{
  "transactions": [
    {
      "hash": "0xdbacdef5e027f3ac626e5adb4494c008b22a5787d124ad8242aa98538ad1d8cc",
      "transactionType": "CREATE",
      "contractName": "RepaymentModule",
      "contractAddress": "0x245bb49c0203accc3c6978d64b2b71b3a5b0c997",
      "function": null,
      "arguments": null,
      "transaction": {
        "from": "0xff6bdef4fb646ee44e29fe8fc0862b02f0ba8a33",
        "gas": "0x127bbc",
        "value": "0x0",
        "input": "0x6080806040523461001657610fdf908161001b8239f35b5f80fdfe60406080815260049081361015610014575f80fd5b5f3560e01c8063044093e314610cdf57806318c4110714610ca75780631c5d809014610bc957806355a4347014610aaf57806361b479f914610a6d57806370cd8b6814610a3c578063782876af146108de578063790562341461080a57806395453034146108ad57806396365d44146108835780639ec728bd1461084f578063b82a161c14610825578063be3782281461080a578063c4a0db96146103b6578063d2fdf2e214610331578063da3a5f72146101dd578063dc7b6340146101b85763e2cd4f76146100e2575f80fd5b346101b45760203660031901126101b4575f80516020610f6a83398151915254823592906001600160a01b031633036101a6577f14aa57f11bde39f5bf9c2d6c4d6638f5a3829e646927e7698ce9a2de15f7639c9081549060ff8216610199577f4018fcb748592685f34200d22f4fb69f64e6bda52dc414278eb06dfb19f1a5ba6020868686600187845f80516020610eea83398151915255815f80516020610f4a8339815191525560ff191617905551908152a1005b835162dc149f60e41b8152fd5b905163428a0e1f60e11b8152fd5b5f80fd5b50346101b45760203660031901126101b4576101d660209235610e92565b9051908152f35b5090346101b45760203660031901126101b4575f80516020610f6a833981519152546001600160a01b039180359183163303610323575f80516020610f4a83398151915292600284541461031457600284558215610305575f80516020610f0a83398151915254168451916323b872dd60e01b5f52338152306024528360445260205f60648180865af160015f51148116156102e6575b8387525f606052156102d3575050507f26b8fad11da5740fffba282b3ba46348c95e4bf89e9fc60146d45e941b92c4fc6001935f80516020610f8a8339815191526102c0848254610d20565b809155815193845260208401523392a255005b635274afe760e01b835282015260249150fd5b60018115166102fc57823b15153d151616610274565b833d5f823e3d90fd5b508351631f2a200560e01b8152fd5b50835163769dd35360e11b8152fd5b835163428a0e1f60e11b8152fd5b50346101b45760203660031901126101b4575f80516020610f6a833981519152548235906001600160a01b031633036103a8577ff7dfb9297f30f52fafb3e9f4a1354bcfb1a1da4a884864aa644952e912eb70e092505f80516020610eea83398151915290808254925582519182526020820152a1005b505163428a0e1f60e11b8152fd5b5090346101b457816003193601126101b4578035602480359367ffffffffffffffff918286116101b457366023870112156101b457858501359283116101b457808601958136918560051b0101116101b4575f80516020610f4a8339815191529460028654146107fc576002865584156107ee577f97c54a0bf039447711bcab434c5a40b95f0e18b67d18363706a9ce32d1b0cc769687549460ff8660a81c166107de57600360ff60a09760a01c16146107de575f80516020610f2a8339815191525480156107ce576104976c0c9f2c9cd04674edea400000009189610de6565b0495670de0b6b3a76400006104ba5f80516020610eea833981519152548a610de6565b04946104c68689610d20565b9081156107be575f80516020610f8a83398151915295865483116107b0576127106104f084610dd0565b04936104fc8585610d41565b9687156107a0577f97c54a0bf039447711bcab434c5a40b95f0e18b67d18363706a9ce32d1b0cc73546001600160a01b0397908816915f5b8281106106a4575050505050847f97c54a0bf039447711bcab434c5a40b95f0e18b67d18363706a9ce32d1b0cc71541691823b156101b45760445f92838e958d519687958694632770a7eb60e21b865233908601528401525af1801561069a579b6105b18594936105e997969360019f61068b575b508854610d41565b87556105bc33610d4e565b6105c7868254610d20565b905582610636575b50505033905f80516020610f0a8339815191525416610e1d565b54916105f433610d4e565b549381519586526020860152840152606083015260808201527f75c31a4f385d87ed603cd9f6c5181e9cfb9110586585eaee02ec747be7f3aa7760a03392a255005b61065583835f80516020610f0a83398151915254168484541690610e1d565b54169087519081527fad4b49585f9d2757e10efedfeb3b25f88b63de8d80b581d4a7c7dc5ee55c3c1e60203392a35f81816105cf565b61069490610d86565b5f6105a9565b88513d5f823e3d90fd5b8d6106b0828585610df9565b905163133f757160e31b815290358782015260c09081818a81895afa918215610795575f92610751575b50508a33911603610741576106f0818484610df9565b35843b156101b4578e5190639146014960e01b8252878201525f81898183895af18015610737579060019291610728575b5001610534565b61073190610d86565b5f610721565b8f513d5f823e3d90fd5b8d516370d645e360e01b81528690fd5b90809250813d831161078e575b6107688183610dae565b810103126101b4578051908b821682036101b457860151801515036101b4575f806106da565b503d61075e565b508f513d5f823e3d90fd5b8a51631f2a200560e01b81528390fd5b885163052f1b1360e51b8152fd5b8751631f2a200560e01b81528690fd5b8551631446482960e31b81528490fd5b845163baf3f0f760e01b81528390fd5b8251631f2a200560e01b8152fd5b825163769dd35360e11b8152fd5b50346101b4575f3660031901126101b4576020905160c88152f35b50346101b4575f3660031901126101b4576020905f80516020610eea833981519152549051908152f35b50346101b45760203660031901126101b4576101d661087060209335610e92565b61271061087c82610dd0565b0490610d41565b50346101b4575f3660031901126101b4576020905f80516020610f8a833981519152549051908152f35b50346101b4575f3660031901126101b45760209064e8d4a510005f80516020610f2a83398151915254049051908152f35b5090346101b457602091826003193601126101b457813591303303610a2e578215610a205760ff7f14aa57f11bde39f5bf9c2d6c4d6638f5a3829e646927e7698ce9a2de15f7639c541615610a12575f80516020610f8a83398151915293610947848654610d20565b5f80516020610f0a8339815191525484516370a0823160e01b81523081860152919391908390829060249082906001600160a01b03165afa908115610a08579084915f916109d7575b50106109c95750817f4ca1131a505e2971d5abf2c30b3849c809e0a660f7ebb6986323e6a78e43217e94955582519485528401523392a2005b8351630686648d60e31b8152fd5b809250848092503d8311610a01575b6109f08183610dae565b810103126101b4578390515f610990565b503d6109e6565b85513d5f823e3d90fd5b90516321c4e35760e21b8152fd5b9051631f2a200560e01b8152fd5b90516390e6746960e01b8152fd5b50346101b45760203660031901126101b457612710610a65610a6060209435610e92565b610dd0565b049051908152f35b50346101b4575f3660031901126101b4576020906101d664e8d4a510005f80516020610f2a83398151915254045f80516020610eea8339815191525490610d20565b50346101b45760203660031901126101b4577f14aa57f11bde39f5bf9c2d6c4d6638f5a3829e646927e7698ce9a2de15f7639c80549260ff8416610bbc577f97c54a0bf039447711bcab434c5a40b95f0e18b67d18363706a9ce32d1b0cc70546001600160a01b03163314801590610b8d575b610b7f57917f4018fcb748592685f34200d22f4fb69f64e6bda52dc414278eb06dfb19f1a5ba939160016020943593845f80516020610eea83398151915255815f80516020610f4a8339815191525560ff191617905551908152a1005b8251634e30838360e01b8152fd5b5060ff7f97c54a0bf039447711bcab434c5a40b95f0e18b67d18363706a9ce32d1b0cc765460b01c1615610b22565b825162dc149f60e41b8152fd5b5090346101b45760203660031901126101b4575f80516020610f6a833981519152546001600160a01b039180359183163303610323575f80516020610f4a83398151915292600284541461031457600284558215610305575f80516020610f8a83398151915291825490818511610c99575091610c888460019793610c6f827fe3bf54467f487a47af32bed36bf0294293b3eb428ac83e1903b173cbe9677fa597610d41565b845533905f80516020610f0a8339815191525416610e1d565b54815193845260208401523392a255005b865163225de56360e21b8152fd5b5090346101b45760203660031901126101b45735906001600160a01b03821682036101b457610cd7602092610d4e565b549051908152f35b50346101b4575f3660031901126101b4576020906101d661087064e8d4a510005f80516020610f2a83398151915254045f80516020610eea83398151915254905b91908201809211610d2d57565b634e487b7160e01b5f52601160045260245ffd5b91908203918211610d2d57565b6001600160a01b03165f9081527f14aa57f11bde39f5bf9c2d6c4d6638f5a3829e646927e7698ce9a2de15f7639a6020526040902090565b67ffffffffffffffff8111610d9a57604052565b634e487b7160e01b5f52604160045260245ffd5b90601f8019910116810190811067ffffffffffffffff821117610d9a57604052565b9060c882029180830460c81490151715610d2d57565b81810292918115918404141715610d2d57565b9190811015610e095760051b0190565b634e487b7160e01b5f52603260045260245ffd5b60405163a9059cbb60e01b5f9081526001600160a01b039384166004526024949094529260209060448180855af160015f5114811615610e7c575b8360405215610e6657505050565b635274afe760e01b835216600482015260249150fd5b60018115166102fc57813b15153d151616610e58565b610ee690670de0b6b3a7640000610edf6c0c9f2c9cd04674edea40000000610ec85f80516020610f2a8339815191525485610de6565b04925f80516020610eea8339815191525490610de6565b0490610d20565b9056fe14aa57f11bde39f5bf9c2d6c4d6638f5a3829e646927e7698ce9a2de15f7639997c54a0bf039447711bcab434c5a40b95f0e18b67d18363706a9ce32d1b0cc75d7250d23bb7bc8e93366cf6815d31bcb947e004baa702b9bb515d6082501a23414aa57f11bde39f5bf9c2d6c4d6638f5a3829e646927e7698ce9a2de15f7639b97c54a0bf039447711bcab434c5a40b95f0e18b67d18363706a9ce32d1b0cc6f14aa57f11bde39f5bf9c2d6c4d6638f5a3829e646927e7698ce9a2de15f76398a26469706673582212205623dd1ab04df25064213f759b12aed57c83924163aeb634430018724b9ceb8464736f6c63430008180033",
        "nonce": "0xba",
        "chainId": "0xaa36a7"
      },
      "additionalContracts": [],
      "isFixedGasLimit": false
    },
    {
      "hash": "0x0271cfaa89d3cb9060e6a60dfa93e4dc89e5d21245a1bd5b6b6329fdc97e7e97",
      "transactionType": "CALL",
      "contractName": null,
      "contractAddress": "0xb804de4d151e5a8a9eba61a9904ec3588c8efb56",
      "function": "setModuleKindSelectors(bytes32,bytes4[])",
      "arguments": [
        "0x82beecdd0fd7fb5ab47261b2dec556e40796f55e3706a60c118ff8e2a4e768e7",
        "[0x55a43470, 0xe2cd4f76, 0xda3a5f72, 0x782876af, 0x1c5d8090, 0xd2fdf2e2, 0xc4a0db96, 0x96365d44, 0xb82a161c, 0x79056234, 0x95453034, 0x61b479f9, 0x044093e3, 0x18c41107, 0x9ec728bd, 0xdc7b6340, 0x70cd8b68]"
      ],
      "transaction": {
        "from": "0xff6bdef4fb646ee44e29fe8fc0862b02f0ba8a33",
        "to": "0xb804de4d151e5a8a9eba61a9904ec3588c8efb56",
        "gas": "0x30d7e",
        "value": "0x0",
        "input": "0x7936fe1b82beecdd0fd7fb5ab47261b2dec556e40796f55e3706a60c118ff8e2a4e768e70000000000000000000000000000000000000000000000000000000000000040000000000000000000000000000000000000000000000000000000000000001155a4347000000000000000000000000000000000000000000000000000000000e2cd4f7600000000000000000000000000000000000000000000000000000000da3a5f7200000000000000000000000000000000000000000000000000000000782876af000000000000000000000000000000000000000000000000000000001c5d809000000000000000000000000000000000000000000000000000000000d2fdf2e200000000000000000000000000000000000000000000000000000000c4a0db960000000000000000000000000000000000000000000000000000000096365d4400000000000000000000000000000000000000000000000000000000b82a161c000000000000000000000000000000000000000000000000000000007905623400000000000000000000000000000000000000000000000000000000954530340000000000000000000000000000000000000000000000000000000061b479f900000000000000000000000000000000000000000000000000000000044093e30000000000000000000000000000000000000000000000000000000018c41107000000000000000000000000000000000000000000000000000000009ec728bd00000000000000000000000000000000000000000000000000000000dc7b63400000000000000000000000000000000000000000000000000000000070cd8b6800000000000000000000000000000000000000000000000000000000",
        "nonce": "0xbb",
        "chainId": "0xaa36a7"
      },
      "additionalContracts": [],
      "isFixedGasLimit": false
    },
    {
      "hash": "0x196befb553e399758c905ca153b2052103cca010614e269142df9a75cd729acc",
      "transactionType": "CALL",
      "contractName": null,
      "contractAddress": "0xb804de4d151e5a8a9eba61a9904ec3588c8efb56",
      "function": "approveModuleImpl(bytes32,address,bool)",
      "arguments": [
        "0x82beecdd0fd7fb5ab47261b2dec556e40796f55e3706a60c118ff8e2a4e768e7",
        "0x245bB49c0203aCcC3C6978d64B2b71b3a5B0C997",
        "true"
      ],
      "transaction": {
        "from": "0xff6bdef4fb646ee44e29fe8fc0862b02f0ba8a33",
        "to": "0xb804de4d151e5a8a9eba61a9904ec3588c8efb56",
        "gas": "0x12990",
        "value": "0x0",
        "input": "0xf63de9cd82beecdd0fd7fb5ab47261b2dec556e40796f55e3706a60c118ff8e2a4e768e7000000000000000000000000245bb49c0203accc3c6978d64b2b71b3a5b0c9970000000000000000000000000000000000000000000000000000000000000001",
        "nonce": "0xbc",
        "chainId": "0xaa36a7"
      },
      "additionalContracts": [],
      "isFixedGasLimit": false
    },
    {
      "hash": "0x86421814972461a2077472c0104295955cc37954435c6433677a4bf0033a6664",
      "transactionType": "CALL",
      "contractName": null,
      "contractAddress": "0xb804de4d151e5a8a9eba61a9904ec3588c8efb56",
      "function": "approveModuleImpl(bytes32,address,bool)",
      "arguments": [
        "0x82beecdd0fd7fb5ab47261b2dec556e40796f55e3706a60c118ff8e2a4e768e7",
        "0x1b0a76431b3CfD55b3be22497F03920C71623c47",
        "false"
      ],
      "transaction": {
        "from": "0xff6bdef4fb646ee44e29fe8fc0862b02f0ba8a33",
        "to": "0xb804de4d151e5a8a9eba61a9904ec3588c8efb56",
        "gas": "0xb356",
        "value": "0x0",
        "input": "0xf63de9cd82beecdd0fd7fb5ab47261b2dec556e40796f55e3706a60c118ff8e2a4e768e70000000000000000000000001b0a76431b3cfd55b3be22497f03920c71623c470000000000000000000000000000000000000000000000000000000000000000",
        "nonce": "0xbd",
        "chainId": "0xaa36a7"
      },
      "additionalContracts": [],
      "isFixedGasLimit": false
    },
    {
      "hash": "0xe2c59d3e39c14be3a1aa14476740d2e105b9e0d76e5a4ff7ac10b2b093bc116c",
      "transactionType": "CALL",
      "contractName": null,
      "contractAddress": "0x90f294f6f73515b97b69ac57775ff58eba5e0608",
      "function": "detachModule(bytes32)",
      "arguments": [
        "0x8d8dbd54da6ed08f3af3f4408383e63b6594306608253e922377e052ddfbbc05"
      ],
      "transaction": {
        "from": "0xff6bdef4fb646ee44e29fe8fc0862b02f0ba8a33",
        "to": "0x90f294f6f73515b97b69ac57775ff58eba5e0608",
        "gas": "0x35b6a",
        "value": "0x0",
        "input": "0x146c1ee58d8dbd54da6ed08f3af3f4408383e63b6594306608253e922377e052ddfbbc05",
        "nonce": "0xbe",
        "chainId": "0xaa36a7"
      },
      "additionalContracts": [],
      "isFixedGasLimit": false
    },
    {
      "hash": "0x0fe84712deb655a6204ac246662e6e36c3c274e414749a74f125bd0f99ac4238",
      "transactionType": "CALL",
      "contractName": null,
      "contractAddress": "0x90f294f6f73515b97b69ac57775ff58eba5e0608",
      "function": "attachModule(bytes32,bytes32,address,string)",
      "arguments": [
        "0x8d8dbd54da6ed08f3af3f4408383e63b6594306608253e922377e052ddfbbc05",
        "0x82beecdd0fd7fb5ab47261b2dec556e40796f55e3706a60c118ff8e2a4e768e7",
        "0x245bB49c0203aCcC3C6978d64B2b71b3a5B0C997",
        "growfi://repayment/v1"
      ],
      "transaction": {
        "from": "0xff6bdef4fb646ee44e29fe8fc0862b02f0ba8a33",
        "to": "0x90f294f6f73515b97b69ac57775ff58eba5e0608",
        "gas": "0xc69fa",
        "value": "0x0",
        "input": "0xff57866a8d8dbd54da6ed08f3af3f4408383e63b6594306608253e922377e052ddfbbc0582beecdd0fd7fb5ab47261b2dec556e40796f55e3706a60c118ff8e2a4e768e7000000000000000000000000245bb49c0203accc3c6978d64b2b71b3a5b0c9970000000000000000000000000000000000000000000000000000000000000080000000000000000000000000000000000000000000000000000000000000001567726f7766693a2f2f72657061796d656e742f76310000000000000000000000",
        "nonce": "0xbf",
        "chainId": "0xaa36a7"
      },
      "additionalContracts": [],
      "isFixedGasLimit": false
    }
  ],
  "receipts": [
    {
      "status": "0x1",
      "cumulativeGasUsed": "0x16c2bb9",
      "logs": [],
      "logsBloom": "0x00000000000000000000000000000000000000000000000000000000000000000000000000000000000000000000000000000000000000000000000000000000000000000000000000000000000000000000000000000000000000000000000000000000000000000000000000000000000000000000000000000000000000000000000000000000000000000000000000000000000000000000000000000000000000000000000000000000000000000000000000000000000000000000000000000000000000000000000000000000000000000000000000000000000000000000000000000000000000000000000000000000000000000000000000000000",
      "type": "0x2",
      "transactionHash": "0xdbacdef5e027f3ac626e5adb4494c008b22a5787d124ad8242aa98538ad1d8cc",
      "transactionIndex": "0xa9",
      "blockHash": "0x72ee8a2b42d241e34e13d75e7256d7c2e7bbef98f314d399e238a3fa3b100299",
      "blockNumber": "0xa5f1d4",
      "gasUsed": "0xe37cc",
      "effectiveGasPrice": "0xd33816",
      "from": "0xff6bdef4fb646ee44e29fe8fc0862b02f0ba8a33",
      "to": null,
      "contractAddress": "0x245bb49c0203accc3c6978d64b2b71b3a5b0c997"
    },
    {
      "status": "0x1",
      "cumulativeGasUsed": "0x115d617",
      "logs": [
        {
          "address": "0xb804de4d151e5a8a9eba61a9904ec3588c8efb56",
          "topics": [
            "0xed8ca8233ea5d449da03c55decdd5a2e53090fc53127f41a287743b01b50a825",
            "0x82beecdd0fd7fb5ab47261b2dec556e40796f55e3706a60c118ff8e2a4e768e7"
          ],
          "data": "0x0000000000000000000000000000000000000000000000000000000000000020000000000000000000000000000000000000000000000000000000000000001155a4347000000000000000000000000000000000000000000000000000000000e2cd4f7600000000000000000000000000000000000000000000000000000000da3a5f7200000000000000000000000000000000000000000000000000000000782876af000000000000000000000000000000000000000000000000000000001c5d809000000000000000000000000000000000000000000000000000000000d2fdf2e200000000000000000000000000000000000000000000000000000000c4a0db960000000000000000000000000000000000000000000000000000000096365d4400000000000000000000000000000000000000000000000000000000b82a161c000000000000000000000000000000000000000000000000000000007905623400000000000000000000000000000000000000000000000000000000954530340000000000000000000000000000000000000000000000000000000061b479f900000000000000000000000000000000000000000000000000000000044093e30000000000000000000000000000000000000000000000000000000018c41107000000000000000000000000000000000000000000000000000000009ec728bd00000000000000000000000000000000000000000000000000000000dc7b63400000000000000000000000000000000000000000000000000000000070cd8b6800000000000000000000000000000000000000000000000000000000",
          "blockHash": "0x7c9e2d2297e64dc02d657513146dd7f954dc366cccbb4f089acf1aae46460491",
          "blockNumber": "0xa5f1d5",
          "blockTimestamp": "0x6a0b585c",
          "transactionHash": "0x0271cfaa89d3cb9060e6a60dfa93e4dc89e5d21245a1bd5b6b6329fdc97e7e97",
          "transactionIndex": "0x7f",
          "logIndex": "0x1db",
          "removed": false
        }
      ],
      "logsBloom": "0x00000000000000000040000000000000000000000000000000000000000000000000000000000001000800000000000000000000000000000000000000000000200000000000000000000000000000000000000000000000000000000000000000000080000000000000000000000000000000000001000000000000000000000000000000000000000000000000000000000000000000000000000000004000000000040000000000000000000000000000000000000000000400000000000000000000000000000000000000000000000000000000000000000000000000000000000000000000000000000000000000000000000000000000000000000000",
      "type": "0x2",
      "transactionHash": "0x0271cfaa89d3cb9060e6a60dfa93e4dc89e5d21245a1bd5b6b6329fdc97e7e97",
      "transactionIndex": "0x7f",
      "blockHash": "0x7c9e2d2297e64dc02d657513146dd7f954dc366cccbb4f089acf1aae46460491",
      "blockNumber": "0xa5f1d5",
      "gasUsed": "0x2165b",
      "effectiveGasPrice": "0xcf87f8",
      "from": "0xff6bdef4fb646ee44e29fe8fc0862b02f0ba8a33",
      "to": "0xb804de4d151e5a8a9eba61a9904ec3588c8efb56",
      "contractAddress": null
    },
    {
      "status": "0x1",
      "cumulativeGasUsed": "0x10c6290",
      "logs": [
        {
          "address": "0xb804de4d151e5a8a9eba61a9904ec3588c8efb56",
          "topics": [
            "0x14d2913115bfaf4d7b5bba9e04b1da2cb3ce0911b128ab0e779990214ccf6f7d",
            "0x82beecdd0fd7fb5ab47261b2dec556e40796f55e3706a60c118ff8e2a4e768e7",
            "0x000000000000000000000000245bb49c0203accc3c6978d64b2b71b3a5b0c997"
          ],
          "data": "0x0000000000000000000000000000000000000000000000000000000000000001",
          "blockHash": "0x41f20b3e2ee2e827fbf7e7a99f2b222cf62e57431ae51bdf344cac98bcfe2372",
          "blockNumber": "0xa5f1d6",
          "blockTimestamp": "0x6a0b5868",
          "transactionHash": "0x196befb553e399758c905ca153b2052103cca010614e269142df9a75cd729acc",
          "transactionIndex": "0x74",
          "logIndex": "0x1aa",
          "removed": false
        }
      ],
      "logsBloom": "0x00000000000000000040000000000400000000000000000000000000000000000000000000000000000000000000080000000000000000000000000000000000200000000000000000000000000000000000000000000400000000000000000000000080000000000001000000000000000000000001000000000000000000000000000000000000000000000000000000000000000000000004000000000000000000040000000000000000000000000000000000000000000400000000000000000200000000000000000000000000000000000000000000000000000000000000000000000000000000000000000000000000000000000000000000000000",
      "type": "0x2",
      "transactionHash": "0x196befb553e399758c905ca153b2052103cca010614e269142df9a75cd729acc",
      "transactionIndex": "0x74",
      "blockHash": "0x41f20b3e2ee2e827fbf7e7a99f2b222cf62e57431ae51bdf344cac98bcfe2372",
      "blockNumber": "0xa5f1d6",
      "gasUsed": "0xd76f",
      "effectiveGasPrice": "0xcc9884",
      "from": "0xff6bdef4fb646ee44e29fe8fc0862b02f0ba8a33",
      "to": "0xb804de4d151e5a8a9eba61a9904ec3588c8efb56",
      "contractAddress": null
    },
    {
      "status": "0x1",
      "cumulativeGasUsed": "0xe9f457",
      "logs": [
        {
          "address": "0xb804de4d151e5a8a9eba61a9904ec3588c8efb56",
          "topics": [
            "0x14d2913115bfaf4d7b5bba9e04b1da2cb3ce0911b128ab0e779990214ccf6f7d",
            "0x82beecdd0fd7fb5ab47261b2dec556e40796f55e3706a60c118ff8e2a4e768e7",
            "0x0000000000000000000000001b0a76431b3cfd55b3be22497f03920c71623c47"
          ],
          "data": "0x0000000000000000000000000000000000000000000000000000000000000000",
          "blockHash": "0x76c9e7b5b57e368394eafa45903861f9e157f58013f6fa2a1216e00d5f01ff30",
          "blockNumber": "0xa5f1d7",
          "blockTimestamp": "0x6a0b5874",
          "transactionHash": "0x86421814972461a2077472c0104295955cc37954435c6433677a4bf0033a6664",
          "transactionIndex": "0x6d",
          "logIndex": "0x1c5",
          "removed": false
        }
      ],
      "logsBloom": "0x00000000000000000040000000000400000000000000000000000000000000000000000000000000000000000000080000000000000000000000000000000000200000000000000000000000000000000000000000000000000000000000000000000080000000000001000000000000000000000001000000000000100000000000000000000000000000000000000000000000000000000000000000000000000000040000000000000000000000000000000000000000000400000080000000000000000000000000000000000000000000000000000000000000000000000010000000000000000000000000000000000000000000000000000000000000",
      "type": "0x2",
      "transactionHash": "0x86421814972461a2077472c0104295955cc37954435c6433677a4bf0033a6664",
      "transactionIndex": "0x6d",
      "blockHash": "0x76c9e7b5b57e368394eafa45903861f9e157f58013f6fa2a1216e00d5f01ff30",
      "blockNumber": "0xa5f1d7",
      "gasUsed": "0x81d7",
      "effectiveGasPrice": "0xc88756",
      "from": "0xff6bdef4fb646ee44e29fe8fc0862b02f0ba8a33",
      "to": "0xb804de4d151e5a8a9eba61a9904ec3588c8efb56",
      "contractAddress": null
    },
    {
      "status": "0x1",
      "cumulativeGasUsed": "0xd0b41a",
      "logs": [
        {
          "address": "0x90f294f6f73515b97b69ac57775ff58eba5e0608",
          "topics": [
            "0x0e1598482ba318d0127e7f49bdf17714d1166a38a99927da678f5dd9a4d2e909",
            "0x55a4347000000000000000000000000000000000000000000000000000000000",
            "0x8d8dbd54da6ed08f3af3f4408383e63b6594306608253e922377e052ddfbbc05"
          ],
          "data": "0x",
          "blockHash": "0x00764ac597875f246f928d4de649e22815d059f11f331788e10f1b62fb31831c",
          "blockNumber": "0xa5f1d8",
          "blockTimestamp": "0x6a0b5880",
          "transactionHash": "0xe2c59d3e39c14be3a1aa14476740d2e105b9e0d76e5a4ff7ac10b2b093bc116c",
          "transactionIndex": "0x71",
          "logIndex": "0x1b8",
          "removed": false
        },
        {
          "address": "0x90f294f6f73515b97b69ac57775ff58eba5e0608",
          "topics": [
            "0x0e1598482ba318d0127e7f49bdf17714d1166a38a99927da678f5dd9a4d2e909",
            "0xe2cd4f7600000000000000000000000000000000000000000000000000000000",
            "0x8d8dbd54da6ed08f3af3f4408383e63b6594306608253e922377e052ddfbbc05"
          ],
          "data": "0x",
          "blockHash": "0x00764ac597875f246f928d4de649e22815d059f11f331788e10f1b62fb31831c",
          "blockNumber": "0xa5f1d8",
          "blockTimestamp": "0x6a0b5880",
          "transactionHash": "0xe2c59d3e39c14be3a1aa14476740d2e105b9e0d76e5a4ff7ac10b2b093bc116c",
          "transactionIndex": "0x71",
          "logIndex": "0x1b9",
          "removed": false
        },
        {
          "address": "0x90f294f6f73515b97b69ac57775ff58eba5e0608",
          "topics": [
            "0x0e1598482ba318d0127e7f49bdf17714d1166a38a99927da678f5dd9a4d2e909",
            "0xda3a5f7200000000000000000000000000000000000000000000000000000000",
            "0x8d8dbd54da6ed08f3af3f4408383e63b6594306608253e922377e052ddfbbc05"
          ],
          "data": "0x",
          "blockHash": "0x00764ac597875f246f928d4de649e22815d059f11f331788e10f1b62fb31831c",
          "blockNumber": "0xa5f1d8",
          "blockTimestamp": "0x6a0b5880",
          "transactionHash": "0xe2c59d3e39c14be3a1aa14476740d2e105b9e0d76e5a4ff7ac10b2b093bc116c",
          "transactionIndex": "0x71",
          "logIndex": "0x1ba",
          "removed": false
        },
        {
          "address": "0x90f294f6f73515b97b69ac57775ff58eba5e0608",
          "topics": [
            "0x0e1598482ba318d0127e7f49bdf17714d1166a38a99927da678f5dd9a4d2e909",
            "0x1c5d809000000000000000000000000000000000000000000000000000000000",
            "0x8d8dbd54da6ed08f3af3f4408383e63b6594306608253e922377e052ddfbbc05"
          ],
          "data": "0x",
          "blockHash": "0x00764ac597875f246f928d4de649e22815d059f11f331788e10f1b62fb31831c",
          "blockNumber": "0xa5f1d8",
          "blockTimestamp": "0x6a0b5880",
          "transactionHash": "0xe2c59d3e39c14be3a1aa14476740d2e105b9e0d76e5a4ff7ac10b2b093bc116c",
          "transactionIndex": "0x71",
          "logIndex": "0x1bb",
          "removed": false
        },
        {
          "address": "0x90f294f6f73515b97b69ac57775ff58eba5e0608",
          "topics": [
            "0x0e1598482ba318d0127e7f49bdf17714d1166a38a99927da678f5dd9a4d2e909",
            "0xd2fdf2e200000000000000000000000000000000000000000000000000000000",
            "0x8d8dbd54da6ed08f3af3f4408383e63b6594306608253e922377e052ddfbbc05"
          ],
          "data": "0x",
          "blockHash": "0x00764ac597875f246f928d4de649e22815d059f11f331788e10f1b62fb31831c",
          "blockNumber": "0xa5f1d8",
          "blockTimestamp": "0x6a0b5880",
          "transactionHash": "0xe2c59d3e39c14be3a1aa14476740d2e105b9e0d76e5a4ff7ac10b2b093bc116c",
          "transactionIndex": "0x71",
          "logIndex": "0x1bc",
          "removed": false
        },
        {
          "address": "0x90f294f6f73515b97b69ac57775ff58eba5e0608",
          "topics": [
            "0x0e1598482ba318d0127e7f49bdf17714d1166a38a99927da678f5dd9a4d2e909",
            "0xc4a0db9600000000000000000000000000000000000000000000000000000000",
            "0x8d8dbd54da6ed08f3af3f4408383e63b6594306608253e922377e052ddfbbc05"
          ],
          "data": "0x",
          "blockHash": "0x00764ac597875f246f928d4de649e22815d059f11f331788e10f1b62fb31831c",
          "blockNumber": "0xa5f1d8",
          "blockTimestamp": "0x6a0b5880",
          "transactionHash": "0xe2c59d3e39c14be3a1aa14476740d2e105b9e0d76e5a4ff7ac10b2b093bc116c",
          "transactionIndex": "0x71",
          "logIndex": "0x1bd",
          "removed": false
        },
        {
          "address": "0x90f294f6f73515b97b69ac57775ff58eba5e0608",
          "topics": [
            "0x0e1598482ba318d0127e7f49bdf17714d1166a38a99927da678f5dd9a4d2e909",
            "0x96365d4400000000000000000000000000000000000000000000000000000000",
            "0x8d8dbd54da6ed08f3af3f4408383e63b6594306608253e922377e052ddfbbc05"
          ],
          "data": "0x",
          "blockHash": "0x00764ac597875f246f928d4de649e22815d059f11f331788e10f1b62fb31831c",
          "blockNumber": "0xa5f1d8",
          "blockTimestamp": "0x6a0b5880",
          "transactionHash": "0xe2c59d3e39c14be3a1aa14476740d2e105b9e0d76e5a4ff7ac10b2b093bc116c",
          "transactionIndex": "0x71",
          "logIndex": "0x1be",
          "removed": false
        },
        {
          "address": "0x90f294f6f73515b97b69ac57775ff58eba5e0608",
          "topics": [
            "0x0e1598482ba318d0127e7f49bdf17714d1166a38a99927da678f5dd9a4d2e909",
            "0xb82a161c00000000000000000000000000000000000000000000000000000000",
            "0x8d8dbd54da6ed08f3af3f4408383e63b6594306608253e922377e052ddfbbc05"
          ],
          "data": "0x",
          "blockHash": "0x00764ac597875f246f928d4de649e22815d059f11f331788e10f1b62fb31831c",
          "blockNumber": "0xa5f1d8",
          "blockTimestamp": "0x6a0b5880",
          "transactionHash": "0xe2c59d3e39c14be3a1aa14476740d2e105b9e0d76e5a4ff7ac10b2b093bc116c",
          "transactionIndex": "0x71",
          "logIndex": "0x1bf",
          "removed": false
        },
        {
          "address": "0x90f294f6f73515b97b69ac57775ff58eba5e0608",
          "topics": [
            "0x0e1598482ba318d0127e7f49bdf17714d1166a38a99927da678f5dd9a4d2e909",
            "0x9545303400000000000000000000000000000000000000000000000000000000",
            "0x8d8dbd54da6ed08f3af3f4408383e63b6594306608253e922377e052ddfbbc05"
          ],
          "data": "0x",
          "blockHash": "0x00764ac597875f246f928d4de649e22815d059f11f331788e10f1b62fb31831c",
          "blockNumber": "0xa5f1d8",
          "blockTimestamp": "0x6a0b5880",
          "transactionHash": "0xe2c59d3e39c14be3a1aa14476740d2e105b9e0d76e5a4ff7ac10b2b093bc116c",
          "transactionIndex": "0x71",
          "logIndex": "0x1c0",
          "removed": false
        },
        {
          "address": "0x90f294f6f73515b97b69ac57775ff58eba5e0608",
          "topics": [
            "0x0e1598482ba318d0127e7f49bdf17714d1166a38a99927da678f5dd9a4d2e909",
            "0x61b479f900000000000000000000000000000000000000000000000000000000",
            "0x8d8dbd54da6ed08f3af3f4408383e63b6594306608253e922377e052ddfbbc05"
          ],
          "data": "0x",
          "blockHash": "0x00764ac597875f246f928d4de649e22815d059f11f331788e10f1b62fb31831c",
          "blockNumber": "0xa5f1d8",
          "blockTimestamp": "0x6a0b5880",
          "transactionHash": "0xe2c59d3e39c14be3a1aa14476740d2e105b9e0d76e5a4ff7ac10b2b093bc116c",
          "transactionIndex": "0x71",
          "logIndex": "0x1c1",
          "removed": false
        },
        {
          "address": "0x90f294f6f73515b97b69ac57775ff58eba5e0608",
          "topics": [
            "0x0e1598482ba318d0127e7f49bdf17714d1166a38a99927da678f5dd9a4d2e909",
            "0x18c4110700000000000000000000000000000000000000000000000000000000",
            "0x8d8dbd54da6ed08f3af3f4408383e63b6594306608253e922377e052ddfbbc05"
          ],
          "data": "0x",
          "blockHash": "0x00764ac597875f246f928d4de649e22815d059f11f331788e10f1b62fb31831c",
          "blockNumber": "0xa5f1d8",
          "blockTimestamp": "0x6a0b5880",
          "transactionHash": "0xe2c59d3e39c14be3a1aa14476740d2e105b9e0d76e5a4ff7ac10b2b093bc116c",
          "transactionIndex": "0x71",
          "logIndex": "0x1c2",
          "removed": false
        },
        {
          "address": "0x90f294f6f73515b97b69ac57775ff58eba5e0608",
          "topics": [
            "0x0e1598482ba318d0127e7f49bdf17714d1166a38a99927da678f5dd9a4d2e909",
            "0x9ec728bd00000000000000000000000000000000000000000000000000000000",
            "0x8d8dbd54da6ed08f3af3f4408383e63b6594306608253e922377e052ddfbbc05"
          ],
          "data": "0x",
          "blockHash": "0x00764ac597875f246f928d4de649e22815d059f11f331788e10f1b62fb31831c",
          "blockNumber": "0xa5f1d8",
          "blockTimestamp": "0x6a0b5880",
          "transactionHash": "0xe2c59d3e39c14be3a1aa14476740d2e105b9e0d76e5a4ff7ac10b2b093bc116c",
          "transactionIndex": "0x71",
          "logIndex": "0x1c3",
          "removed": false
        },
        {
          "address": "0x90f294f6f73515b97b69ac57775ff58eba5e0608",
          "topics": [
            "0x2fde62b21db2b501fdb4d475591799716568331a2668b72ad56e290bdb521ef5",
            "0x8d8dbd54da6ed08f3af3f4408383e63b6594306608253e922377e052ddfbbc05",
            "0x0000000000000000000000001b0a76431b3cfd55b3be22497f03920c71623c47"
          ],
          "data": "0x",
          "blockHash": "0x00764ac597875f246f928d4de649e22815d059f11f331788e10f1b62fb31831c",
          "blockNumber": "0xa5f1d8",
          "blockTimestamp": "0x6a0b5880",
          "transactionHash": "0xe2c59d3e39c14be3a1aa14476740d2e105b9e0d76e5a4ff7ac10b2b093bc116c",
          "transactionIndex": "0x71",
          "logIndex": "0x1c4",
          "removed": false
        }
      ],
      "logsBloom": "0x00000004000000000000000000000000041000000000000002000020000000000000000000100100000040000000000000000000000000000000000040000000000000000020001000000010008000000000004000000000800000000000000000000000004002000000a402000000000000200000000040000000001000000000000000800000000100000000000000000000002000000000080000000000000000040200000000100000000000000000000400000000000004000000800001400000000100008200000000000000020000000000000008000080000000000000100000004a00400c0000000000000800000000200000000000000000000000",
      "type": "0x2",
      "transactionHash": "0xe2c59d3e39c14be3a1aa14476740d2e105b9e0d76e5a4ff7ac10b2b093bc116c",
      "transactionIndex": "0x71",
      "blockHash": "0x00764ac597875f246f928d4de649e22815d059f11f331788e10f1b62fb31831c",
      "blockNumber": "0xa5f1d8",
      "gasUsed": "0x24ba3",
      "effectiveGasPrice": "0xc29cbb",
      "from": "0xff6bdef4fb646ee44e29fe8fc0862b02f0ba8a33",
      "to": "0x90f294f6f73515b97b69ac57775ff58eba5e0608",
      "contractAddress": null
    },
    {
      "status": "0x1",
      "cumulativeGasUsed": "0x1da1fd5",
      "logs": [
        {
          "address": "0x90f294f6f73515b97b69ac57775ff58eba5e0608",
          "topics": [
            "0xe4820932fb8bfeb1d651397e57975ed0c2c8652dbf3cea72ffcb6007744d256f",
            "0x55a4347000000000000000000000000000000000000000000000000000000000",
            "0x8d8dbd54da6ed08f3af3f4408383e63b6594306608253e922377e052ddfbbc05"
          ],
          "data": "0x",
          "blockHash": "0x06b984819cf237b815b4eda33abbca24c372b579cf2b5bb020faa57b3e1217a8",
          "blockNumber": "0xa5f1d9",
          "blockTimestamp": "0x6a0b58a4",
          "transactionHash": "0x0fe84712deb655a6204ac246662e6e36c3c274e414749a74f125bd0f99ac4238",
          "transactionIndex": "0xcf",
          "logIndex": "0x28d",
          "removed": false
        },
        {
          "address": "0x90f294f6f73515b97b69ac57775ff58eba5e0608",
          "topics": [
            "0xe4820932fb8bfeb1d651397e57975ed0c2c8652dbf3cea72ffcb6007744d256f",
            "0xe2cd4f7600000000000000000000000000000000000000000000000000000000",
            "0x8d8dbd54da6ed08f3af3f4408383e63b6594306608253e922377e052ddfbbc05"
          ],
          "data": "0x",
          "blockHash": "0x06b984819cf237b815b4eda33abbca24c372b579cf2b5bb020faa57b3e1217a8",
          "blockNumber": "0xa5f1d9",
          "blockTimestamp": "0x6a0b58a4",
          "transactionHash": "0x0fe84712deb655a6204ac246662e6e36c3c274e414749a74f125bd0f99ac4238",
          "transactionIndex": "0xcf",
          "logIndex": "0x28e",
          "removed": false
        },
        {
          "address": "0x90f294f6f73515b97b69ac57775ff58eba5e0608",
          "topics": [
            "0xe4820932fb8bfeb1d651397e57975ed0c2c8652dbf3cea72ffcb6007744d256f",
            "0xda3a5f7200000000000000000000000000000000000000000000000000000000",
            "0x8d8dbd54da6ed08f3af3f4408383e63b6594306608253e922377e052ddfbbc05"
          ],
          "data": "0x",
          "blockHash": "0x06b984819cf237b815b4eda33abbca24c372b579cf2b5bb020faa57b3e1217a8",
          "blockNumber": "0xa5f1d9",
          "blockTimestamp": "0x6a0b58a4",
          "transactionHash": "0x0fe84712deb655a6204ac246662e6e36c3c274e414749a74f125bd0f99ac4238",
          "transactionIndex": "0xcf",
          "logIndex": "0x28f",
          "removed": false
        },
        {
          "address": "0x90f294f6f73515b97b69ac57775ff58eba5e0608",
          "topics": [
            "0xe4820932fb8bfeb1d651397e57975ed0c2c8652dbf3cea72ffcb6007744d256f",
            "0x782876af00000000000000000000000000000000000000000000000000000000",
            "0x8d8dbd54da6ed08f3af3f4408383e63b6594306608253e922377e052ddfbbc05"
          ],
          "data": "0x",
          "blockHash": "0x06b984819cf237b815b4eda33abbca24c372b579cf2b5bb020faa57b3e1217a8",
          "blockNumber": "0xa5f1d9",
          "blockTimestamp": "0x6a0b58a4",
          "transactionHash": "0x0fe84712deb655a6204ac246662e6e36c3c274e414749a74f125bd0f99ac4238",
          "transactionIndex": "0xcf",
          "logIndex": "0x290",
          "removed": false
        },
        {
          "address": "0x90f294f6f73515b97b69ac57775ff58eba5e0608",
          "topics": [
            "0xe4820932fb8bfeb1d651397e57975ed0c2c8652dbf3cea72ffcb6007744d256f",
            "0x1c5d809000000000000000000000000000000000000000000000000000000000",
            "0x8d8dbd54da6ed08f3af3f4408383e63b6594306608253e922377e052ddfbbc05"
          ],
          "data": "0x",
          "blockHash": "0x06b984819cf237b815b4eda33abbca24c372b579cf2b5bb020faa57b3e1217a8",
          "blockNumber": "0xa5f1d9",
          "blockTimestamp": "0x6a0b58a4",
          "transactionHash": "0x0fe84712deb655a6204ac246662e6e36c3c274e414749a74f125bd0f99ac4238",
          "transactionIndex": "0xcf",
          "logIndex": "0x291",
          "removed": false
        },
        {
          "address": "0x90f294f6f73515b97b69ac57775ff58eba5e0608",
          "topics": [
            "0xe4820932fb8bfeb1d651397e57975ed0c2c8652dbf3cea72ffcb6007744d256f",
            "0xd2fdf2e200000000000000000000000000000000000000000000000000000000",
            "0x8d8dbd54da6ed08f3af3f4408383e63b6594306608253e922377e052ddfbbc05"
          ],
          "data": "0x",
          "blockHash": "0x06b984819cf237b815b4eda33abbca24c372b579cf2b5bb020faa57b3e1217a8",
          "blockNumber": "0xa5f1d9",
          "blockTimestamp": "0x6a0b58a4",
          "transactionHash": "0x0fe84712deb655a6204ac246662e6e36c3c274e414749a74f125bd0f99ac4238",
          "transactionIndex": "0xcf",
          "logIndex": "0x292",
          "removed": false
        },
        {
          "address": "0x90f294f6f73515b97b69ac57775ff58eba5e0608",
          "topics": [
            "0xe4820932fb8bfeb1d651397e57975ed0c2c8652dbf3cea72ffcb6007744d256f",
            "0xc4a0db9600000000000000000000000000000000000000000000000000000000",
            "0x8d8dbd54da6ed08f3af3f4408383e63b6594306608253e922377e052ddfbbc05"
          ],
          "data": "0x",
          "blockHash": "0x06b984819cf237b815b4eda33abbca24c372b579cf2b5bb020faa57b3e1217a8",
          "blockNumber": "0xa5f1d9",
          "blockTimestamp": "0x6a0b58a4",
          "transactionHash": "0x0fe84712deb655a6204ac246662e6e36c3c274e414749a74f125bd0f99ac4238",
          "transactionIndex": "0xcf",
          "logIndex": "0x293",
          "removed": false
        },
        {
          "address": "0x90f294f6f73515b97b69ac57775ff58eba5e0608",
          "topics": [
            "0xe4820932fb8bfeb1d651397e57975ed0c2c8652dbf3cea72ffcb6007744d256f",
            "0x96365d4400000000000000000000000000000000000000000000000000000000",
            "0x8d8dbd54da6ed08f3af3f4408383e63b6594306608253e922377e052ddfbbc05"
          ],
          "data": "0x",
          "blockHash": "0x06b984819cf237b815b4eda33abbca24c372b579cf2b5bb020faa57b3e1217a8",
          "blockNumber": "0xa5f1d9",
          "blockTimestamp": "0x6a0b58a4",
          "transactionHash": "0x0fe84712deb655a6204ac246662e6e36c3c274e414749a74f125bd0f99ac4238",
          "transactionIndex": "0xcf",
          "logIndex": "0x294",
          "removed": false
        },
        {
          "address": "0x90f294f6f73515b97b69ac57775ff58eba5e0608",
          "topics": [
            "0xe4820932fb8bfeb1d651397e57975ed0c2c8652dbf3cea72ffcb6007744d256f",
            "0xb82a161c00000000000000000000000000000000000000000000000000000000",
            "0x8d8dbd54da6ed08f3af3f4408383e63b6594306608253e922377e052ddfbbc05"
          ],
          "data": "0x",
          "blockHash": "0x06b984819cf237b815b4eda33abbca24c372b579cf2b5bb020faa57b3e1217a8",
          "blockNumber": "0xa5f1d9",
          "blockTimestamp": "0x6a0b58a4",
          "transactionHash": "0x0fe84712deb655a6204ac246662e6e36c3c274e414749a74f125bd0f99ac4238",
          "transactionIndex": "0xcf",
          "logIndex": "0x295",
          "removed": false
        },
        {
          "address": "0x90f294f6f73515b97b69ac57775ff58eba5e0608",
          "topics": [
            "0xe4820932fb8bfeb1d651397e57975ed0c2c8652dbf3cea72ffcb6007744d256f",
            "0x7905623400000000000000000000000000000000000000000000000000000000",
            "0x8d8dbd54da6ed08f3af3f4408383e63b6594306608253e922377e052ddfbbc05"
          ],
          "data": "0x",
          "blockHash": "0x06b984819cf237b815b4eda33abbca24c372b579cf2b5bb020faa57b3e1217a8",
          "blockNumber": "0xa5f1d9",
          "blockTimestamp": "0x6a0b58a4",
          "transactionHash": "0x0fe84712deb655a6204ac246662e6e36c3c274e414749a74f125bd0f99ac4238",
          "transactionIndex": "0xcf",
          "logIndex": "0x296",
          "removed": false
        },
        {
          "address": "0x90f294f6f73515b97b69ac57775ff58eba5e0608",
          "topics": [
            "0xe4820932fb8bfeb1d651397e57975ed0c2c8652dbf3cea72ffcb6007744d256f",
            "0x9545303400000000000000000000000000000000000000000000000000000000",
            "0x8d8dbd54da6ed08f3af3f4408383e63b6594306608253e922377e052ddfbbc05"
          ],
          "data": "0x",
          "blockHash": "0x06b984819cf237b815b4eda33abbca24c372b579cf2b5bb020faa57b3e1217a8",
          "blockNumber": "0xa5f1d9",
          "blockTimestamp": "0x6a0b58a4",
          "transactionHash": "0x0fe84712deb655a6204ac246662e6e36c3c274e414749a74f125bd0f99ac4238",
          "transactionIndex": "0xcf",
          "logIndex": "0x297",
          "removed": false
        },
        {
          "address": "0x90f294f6f73515b97b69ac57775ff58eba5e0608",
          "topics": [
            "0xe4820932fb8bfeb1d651397e57975ed0c2c8652dbf3cea72ffcb6007744d256f",
            "0x61b479f900000000000000000000000000000000000000000000000000000000",
            "0x8d8dbd54da6ed08f3af3f4408383e63b6594306608253e922377e052ddfbbc05"
          ],
          "data": "0x",
          "blockHash": "0x06b984819cf237b815b4eda33abbca24c372b579cf2b5bb020faa57b3e1217a8",
          "blockNumber": "0xa5f1d9",
          "blockTimestamp": "0x6a0b58a4",
          "transactionHash": "0x0fe84712deb655a6204ac246662e6e36c3c274e414749a74f125bd0f99ac4238",
          "transactionIndex": "0xcf",
          "logIndex": "0x298",
          "removed": false
        },
        {
          "address": "0x90f294f6f73515b97b69ac57775ff58eba5e0608",
          "topics": [
            "0xe4820932fb8bfeb1d651397e57975ed0c2c8652dbf3cea72ffcb6007744d256f",
            "0x044093e300000000000000000000000000000000000000000000000000000000",
            "0x8d8dbd54da6ed08f3af3f4408383e63b6594306608253e922377e052ddfbbc05"
          ],
          "data": "0x",
          "blockHash": "0x06b984819cf237b815b4eda33abbca24c372b579cf2b5bb020faa57b3e1217a8",
          "blockNumber": "0xa5f1d9",
          "blockTimestamp": "0x6a0b58a4",
          "transactionHash": "0x0fe84712deb655a6204ac246662e6e36c3c274e414749a74f125bd0f99ac4238",
          "transactionIndex": "0xcf",
          "logIndex": "0x299",
          "removed": false
        },
        {
          "address": "0x90f294f6f73515b97b69ac57775ff58eba5e0608",
          "topics": [
            "0xe4820932fb8bfeb1d651397e57975ed0c2c8652dbf3cea72ffcb6007744d256f",
            "0x18c4110700000000000000000000000000000000000000000000000000000000",
            "0x8d8dbd54da6ed08f3af3f4408383e63b6594306608253e922377e052ddfbbc05"
          ],
          "data": "0x",
          "blockHash": "0x06b984819cf237b815b4eda33abbca24c372b579cf2b5bb020faa57b3e1217a8",
          "blockNumber": "0xa5f1d9",
          "blockTimestamp": "0x6a0b58a4",
          "transactionHash": "0x0fe84712deb655a6204ac246662e6e36c3c274e414749a74f125bd0f99ac4238",
          "transactionIndex": "0xcf",
          "logIndex": "0x29a",
          "removed": false
        },
        {
          "address": "0x90f294f6f73515b97b69ac57775ff58eba5e0608",
          "topics": [
            "0xe4820932fb8bfeb1d651397e57975ed0c2c8652dbf3cea72ffcb6007744d256f",
            "0x9ec728bd00000000000000000000000000000000000000000000000000000000",
            "0x8d8dbd54da6ed08f3af3f4408383e63b6594306608253e922377e052ddfbbc05"
          ],
          "data": "0x",
          "blockHash": "0x06b984819cf237b815b4eda33abbca24c372b579cf2b5bb020faa57b3e1217a8",
          "blockNumber": "0xa5f1d9",
          "blockTimestamp": "0x6a0b58a4",
          "transactionHash": "0x0fe84712deb655a6204ac246662e6e36c3c274e414749a74f125bd0f99ac4238",
          "transactionIndex": "0xcf",
          "logIndex": "0x29b",
          "removed": false
        },
        {
          "address": "0x90f294f6f73515b97b69ac57775ff58eba5e0608",
          "topics": [
            "0xe4820932fb8bfeb1d651397e57975ed0c2c8652dbf3cea72ffcb6007744d256f",
            "0xdc7b634000000000000000000000000000000000000000000000000000000000",
            "0x8d8dbd54da6ed08f3af3f4408383e63b6594306608253e922377e052ddfbbc05"
          ],
          "data": "0x",
          "blockHash": "0x06b984819cf237b815b4eda33abbca24c372b579cf2b5bb020faa57b3e1217a8",
          "blockNumber": "0xa5f1d9",
          "blockTimestamp": "0x6a0b58a4",
          "transactionHash": "0x0fe84712deb655a6204ac246662e6e36c3c274e414749a74f125bd0f99ac4238",
          "transactionIndex": "0xcf",
          "logIndex": "0x29c",
          "removed": false
        },
        {
          "address": "0x90f294f6f73515b97b69ac57775ff58eba5e0608",
          "topics": [
            "0xe4820932fb8bfeb1d651397e57975ed0c2c8652dbf3cea72ffcb6007744d256f",
            "0x70cd8b6800000000000000000000000000000000000000000000000000000000",
            "0x8d8dbd54da6ed08f3af3f4408383e63b6594306608253e922377e052ddfbbc05"
          ],
          "data": "0x",
          "blockHash": "0x06b984819cf237b815b4eda33abbca24c372b579cf2b5bb020faa57b3e1217a8",
          "blockNumber": "0xa5f1d9",
          "blockTimestamp": "0x6a0b58a4",
          "transactionHash": "0x0fe84712deb655a6204ac246662e6e36c3c274e414749a74f125bd0f99ac4238",
          "transactionIndex": "0xcf",
          "logIndex": "0x29d",
          "removed": false
        },
        {
          "address": "0x90f294f6f73515b97b69ac57775ff58eba5e0608",
          "topics": [
            "0xc3b3bba350d426d8b0241206f22ea56f835fbcc9ade54bd871bf75a0d6c9f887",
            "0x8d8dbd54da6ed08f3af3f4408383e63b6594306608253e922377e052ddfbbc05",
            "0x000000000000000000000000245bb49c0203accc3c6978d64b2b71b3a5b0c997",
            "0x82beecdd0fd7fb5ab47261b2dec556e40796f55e3706a60c118ff8e2a4e768e7"
          ],
          "data": "0x0000000000000000000000000000000000000000000000000000000000000020000000000000000000000000000000000000000000000000000000000000001567726f7766693a2f2f72657061796d656e742f76310000000000000000000000",
          "blockHash": "0x06b984819cf237b815b4eda33abbca24c372b579cf2b5bb020faa57b3e1217a8",
          "blockNumber": "0xa5f1d9",
          "blockTimestamp": "0x6a0b58a4",
          "transactionHash": "0x0fe84712deb655a6204ac246662e6e36c3c274e414749a74f125bd0f99ac4238",
          "transactionIndex": "0xcf",
          "logIndex": "0x29e",
          "removed": false
        }
      ],
      "logsBloom": "0x00000004100000000040000000000000041000000000000002000000000000000000000000100100000040000001000000000000000000000004000040000000000000000020001000000010108000000000004000000400804000000000000100000084000002400000a000000000000000200040000040000000000000080000000000800000000100000000000000000000002000000800040000802000000000040200000000100000000000000000000400000000000004000000000001400002000100008200000000000000120000000000000008200080020040000000000000004a00c00c0000800000000800180000200000000000000000000000",
      "type": "0x2",
      "transactionHash": "0x0fe84712deb655a6204ac246662e6e36c3c274e414749a74f125bd0f99ac4238",
      "transactionIndex": "0xcf",
      "blockHash": "0x06b984819cf237b815b4eda33abbca24c372b579cf2b5bb020faa57b3e1217a8",
      "blockNumber": "0xa5f1d9",
      "gasUsed": "0x8fccd",
      "effectiveGasPrice": "0xbcc0f1",
      "from": "0xff6bdef4fb646ee44e29fe8fc0862b02f0ba8a33",
      "to": "0x90f294f6f73515b97b69ac57775ff58eba5e0608",
      "contractAddress": null
    }
  ],
  "libraries": [],
  "pending": [],
  "returns": {},
  "timestamp": 1779128485091,
  "chain": 11155111,
  "commit": "a472a70"
}