{
  "transactions": [
    {
      "hash": "0x4106bdd48e4e643300a582492781e0634f898e9dbe768473a4c8d5400220894a",
      "transactionType": "CALL",
      "contractName": "MockUSDC",
      "contractAddress": "0x784d2221e11f4e87fa031aac15c168d27b5cceb4",
      "function": "mint(address,uint256)",
      "arguments": [
        "0xFF6bdef4fB646EE44e29FE8FC0862B02F0Ba8a33",
        "25000000000"
      ],
      "transaction": {
        "from": "0xff6bdef4fb646ee44e29fe8fc0862b02f0ba8a33",
        "to": "0x784d2221e11f4e87fa031aac15c168d27b5cceb4",
        "gas": "0xb6e2",
        "value": "0x0",
        "input": "0x40c10f19000000000000000000000000ff6bdef4fb646ee44e29fe8fc0862b02f0ba8a3300000000000000000000000000000000000000000000000000000005d21dba00",
        "nonce": "0x243",
        "chainId": "0x14a34"
      },
      "additionalContracts": [],
      "isFixedGasLimit": false
    },
    {
      "hash": "0xa512fb67f1fa701dedf6fc3b50cbab5526604b3bd228e553e43b55c56f9ca7b2",
      "transactionType": "CALL",
      "contractName": null,
      "contractAddress": "0xaf81c05747eda1e1715ff23626ab83c3351dcff6",
      "function": "createCampaign((address,string,string,string,string,uint256,(uint256,uint256,uint256,uint256,uint256,uint256,address,address),(uint256,uint256,uint256,uint256)))",
      "arguments": [
        "(0xFF6bdef4fB646EE44e29FE8FC0862B02F0Ba8a33, Repayment Vineyard Demo, RPAY, Repayment Vineyard Yield, rYIELD, 1000000000000000000, (100000000000000000, 100000000000000000000, 250000000000000000000000, 1783756066, 604800, 0, 0x0000000000000000000000000000000000000000, 0x0000000000000000000000000000000000000000), (6000000000000000000000, 700000000000000000000, 2030, 0))"
      ],
      "transaction": {
        "from": "0xff6bdef4fb646ee44e29fe8fc0862b02f0ba8a33",
        "to": "0xaf81c05747eda1e1715ff23626ab83c3351dcff6",
        "gas": "0x729439",
        "value": "0x0",
        "input": "0xe5bb36800000000000000000000000000000000000000000000000000000000000000020000000000000000000000000ff6bdef4fb646ee44e29fe8fc0862b02f0ba8a330000000000000000000000000000000000000000000000000000000000000240000000000000000000000000000000000000000000000000000000000000028000000000000000000000000000000000000000000000000000000000000002c000000000000000000000000000000000000000000000000000000000000003000000000000000000000000000000000000000000000000000de0b6b3a7640000000000000000000000000000000000000000000000000000016345785d8a00000000000000000000000000000000000000000000000000056bc75e2d631000000000000000000000000000000000000000000000000034f086f3b33b68400000000000000000000000000000000000000000000000000000000000006a51f5220000000000000000000000000000000000000000000000000000000000093a8000000000000000000000000000000000000000000000000000000000000000000000000000000000000000000000000000000000000000000000000000000000000000000000000000000000000000000000000000000000000000000000000000000000000000000000000000000000000000000000014542ba12a337c00000000000000000000000000000000000000000000000000025f273933db570000000000000000000000000000000000000000000000000000000000000000007ee0000000000000000000000000000000000000000000000000000000000000000000000000000000000000000000000000000000000000000000000000000001752657061796d656e742056696e65796172642044656d6f00000000000000000000000000000000000000000000000000000000000000000000000000000000045250415900000000000000000000000000000000000000000000000000000000000000000000000000000000000000000000000000000000000000000000001852657061796d656e742056696e6579617264205969656c6400000000000000000000000000000000000000000000000000000000000000000000000000000006725949454c440000000000000000000000000000000000000000000000000000",
        "nonce": "0x244",
        "chainId": "0x14a34"
      },
      "additionalContracts": [
        {
          "transactionType": "CREATE",
          "contractName": "TransparentUpgradeableProxy",
          "address": "0xb2ae1c8f4461fafd3af0db9e5bdc5ce89316e080",
          "initCode": "0x604060a08152610aac8038038061001581610268565b9283398101906060818303126102645761002e8161028d565b60209161003c83820161028d565b8582015190916001600160401b039190828211610264570185601f82011215610264578051908282116101ef5761007b601f8301601f19168701610268565b968288528683830101116102645785905f5b8381106102505750505f918701015284511561023f57823b1561021f577f360894a13ba1a3210667c828492db98dca3e2076cc3735a920a3ca505d382bbc80546001600160a01b03199081166001600160a01b03868116918217909355885192979195907fbc7cd75a20ee27fd9adebab32041f755214dbc6bffa90cc0225b39da2e5c2d3b5f80a28151156102035761012692506102a1565b505b85519161048391828401908111848210176101ef57868492879461062985391681520301905ff080156101e557831691826080527f7e644d79422f17c01e4894b5f4f588d331ebfa28653d42ae832dc59e38c9798f857fb53127684a568b3173ae13b9f8a6016e243e63b6e8ee1178d6a717850b5d6103958587549483519286168352820152a182156101ce5716179055516102f69081610333823960805181600f0152f35b8451633173bdd160e11b81525f6004820152602490fd5b84513d5f823e3d90fd5b634e487b7160e01b5f52604160045260245ffd5b5050346102105750610128565b63b398979f60e01b8152600490fd5b8551634c9c8ce360e01b81526001600160a01b0384166004820152602490fd5b85516330a289cf60e21b8152600490fd5b81810183015189820184015287920161008d565b5f80fd5b6040519190601f01601f191682016001600160401b038111838210176101ef57604052565b51906001600160a01b038216820361026457565b905f8091602081519101845af4808061031f575b156102d55750506040513d81523d5f602083013e60203d82010160405290565b156102fc57604051639996b31560e01b81526001600160a01b039091166004820152602490fd5b3d1561030d576040513d5f823e3d90fd5b60405163d6bda27560e01b8152600490fd5b503d1515806102b55750813b15156102b556fe60806040526001600160a01b03337f000000000000000000000000000000000000000000000000000000000000000082160361006a575f356001600160e01b03191663278f794360e11b14610060576040516334ad5dbb60e21b8152600490fd5b6100686100be565b005b5f80917f360894a13ba1a3210667c828492db98dca3e2076cc3735a920a3ca505d382bbc5416368280378136915af43d5f803e156100a6573d5ff35b3d5ffd5b634e487b7160e01b5f52604160045260245ffd5b3660041161015f57604036600319011261015f576004356001600160a01b0381169081900361015f576024359067ffffffffffffffff9081831161015f573660238401121561015f5782600401358281116101635760405192601f8201601f19908116603f011684019081118482101761016357604052808352366024828601011161015f576020815f92602461015d97018387013784010152610168565b565b5f80fd5b6100aa565b90813b156101ff577f360894a13ba1a3210667c828492db98dca3e2076cc3735a920a3ca505d382bbc80546001600160a01b0319166001600160a01b0384169081179091557fbc7cd75a20ee27fd9adebab32041f755214dbc6bffa90cc0225b39da2e5c2d3b5f80a28051156101e4576101e191610220565b50565b5050346101ed57565b60405163b398979f60e01b8152600490fd5b604051634c9c8ce360e01b81526001600160a01b0383166004820152602490fd5b905f8091602081519101845af48080610289575b156102465750506102436102a7565b90565b1561026e57604051639996b31560e01b81526001600160a01b03919091166004820152602490fd5b3d15155f0361029c5760405163d6bda27560e01b8152600490fd5b503d1515806102345750813b1515610234565b6040513d5f823e3d90fd5b604051903d82523d5f602084013e60203d83010160405256fea2646970667358221220371437a14d55b0192ed17af74450cdb0b22bf1f3d480185986e4348c96e968d064736f6c634300081800336080346100b957601f61048338819003918201601f19168301916001600160401b038311848410176100bd578084926020946040528339810103126100b957516001600160a01b0390818116908190036100b95780156100a1575f80546001600160a01b03198116831782556040519316907f8be0079c531659141344cd1fd0a4f28419497f9722a3daafe3b4186f6b6457e09080a36103b190816100d28239f35b604051631e4fbdf760e01b81525f6004820152602490fd5b5f80fd5b634e487b7160e01b5f52604160045260245ffdfe604060808152600480361015610013575f80fd5b5f915f3560e01c8063715018a6146102bb5780638da5cb5b146102945780639623609d1461015c578063ad3cb1cc146100eb5763f2fde38b14610054575f80fd5b346100e75760203660031901126100e7576001600160a01b038235818116939192908490036100e357610085610350565b83156100cd5750505f54826bffffffffffffffffffffffff60a01b8216175f55167f8be0079c531659141344cd1fd0a4f28419497f9722a3daafe3b4186f6b6457e05f80a380f35b51631e4fbdf760e01b8152908101849052602490fd5b5f80fd5b8280fd5b5082346101595780600319360112610159575080519080820182811067ffffffffffffffff821117610146576101429350815260058252640352e302e360dc1b602083015251918291602083526020830190610312565b0390f35b604184634e487b7160e01b5f525260245ffd5b80fd5b5060603660031901126100e3576001600160a01b03823581811693908490036100e35760249182359081168091036100e35767ffffffffffffffff906044358281116100e357366023820112156100e3578084013583811161028257865191601f8201601f19908116603f0116830185811184821017610270578852818352368783830101116100e357815f92886020930183860137830101526101fe610350565b863b156100e357610230965f92875180998194829363278f794360e11b8452898401528a8a8401526044830190610312565b039134905af1801561026657610244578580f35b909192938095501161025557505052005b604190634e487b7160e01b5f52525ffd5b84513d5f823e3d90fd5b87604188634e487b7160e01b5f52525ffd5b85604186634e487b7160e01b5f52525ffd5b50346100e3575f3660031901126100e3575f5490516001600160a01b039091168152602090f35b346100e3575f3660031901126100e3576102d3610350565b5f80546001600160a01b0319811682556001600160a01b03167f8be0079c531659141344cd1fd0a4f28419497f9722a3daafe3b4186f6b6457e08280a3005b91908251928382525f5b84811061033c575050825f602080949584010152601f8019910116010190565b60208183018101518483018201520161031c565b5f546001600160a01b0316330361036357565b60405163118cdaa760e01b8152336004820152602490fdfea26469706673582212202992a71449476404159c12582e1f3d5c014ae92bc1369e2e03b37152567a3c7d64736f6c634300081800330000000000000000000000002db5e242755e44b70bb84c030d841729dc1f2869000000000000000000000000ff6bdef4fb646ee44e29fe8fc0862b02f0ba8a33000000000000000000000000000000000000000000000000000000000000006000000000000000000000000000000000000000000000000000000000000000840415cc15000000000000000000000000ff6bdef4fb646ee44e29fe8fc0862b02f0ba8a33000000000000000000000000af81c05747eda1e1715ff23626ab83c3351dcff6000000000000000000000000784d2221e11f4e87fa031aac15c168d27b5cceb4000000000000000000000000f0ad36ef051742b4397048aa4d5d7ab08f88fef700000000000000000000000000000000000000000000000000000000"
        },
        {
          "transactionType": "CREATE",
          "contractName": "ProxyAdmin",
          "address": "0x4cf966453f47181b04a07a0c84034269ba779dc8",
          "initCode": "0x6080346100b957601f61048338819003918201601f19168301916001600160401b038311848410176100bd578084926020946040528339810103126100b957516001600160a01b0390818116908190036100b95780156100a1575f80546001600160a01b03198116831782556040519316907f8be0079c531659141344cd1fd0a4f28419497f9722a3daafe3b4186f6b6457e09080a36103b190816100d28239f35b604051631e4fbdf760e01b81525f6004820152602490fd5b5f80fd5b634e487b7160e01b5f52604160045260245ffdfe604060808152600480361015610013575f80fd5b5f915f3560e01c8063715018a6146102bb5780638da5cb5b146102945780639623609d1461015c578063ad3cb1cc146100eb5763f2fde38b14610054575f80fd5b346100e75760203660031901126100e7576001600160a01b038235818116939192908490036100e357610085610350565b83156100cd5750505f54826bffffffffffffffffffffffff60a01b8216175f55167f8be0079c531659141344cd1fd0a4f28419497f9722a3daafe3b4186f6b6457e05f80a380f35b51631e4fbdf760e01b8152908101849052602490fd5b5f80fd5b8280fd5b5082346101595780600319360112610159575080519080820182811067ffffffffffffffff821117610146576101429350815260058252640352e302e360dc1b602083015251918291602083526020830190610312565b0390f35b604184634e487b7160e01b5f525260245ffd5b80fd5b5060603660031901126100e3576001600160a01b03823581811693908490036100e35760249182359081168091036100e35767ffffffffffffffff906044358281116100e357366023820112156100e3578084013583811161028257865191601f8201601f19908116603f0116830185811184821017610270578852818352368783830101116100e357815f92886020930183860137830101526101fe610350565b863b156100e357610230965f92875180998194829363278f794360e11b8452898401528a8a8401526044830190610312565b039134905af1801561026657610244578580f35b909192938095501161025557505052005b604190634e487b7160e01b5f52525ffd5b84513d5f823e3d90fd5b87604188634e487b7160e01b5f52525ffd5b85604186634e487b7160e01b5f52525ffd5b50346100e3575f3660031901126100e3575f5490516001600160a01b039091168152602090f35b346100e3575f3660031901126100e3576102d3610350565b5f80546001600160a01b0319811682556001600160a01b03167f8be0079c531659141344cd1fd0a4f28419497f9722a3daafe3b4186f6b6457e08280a3005b91908251928382525f5b84811061033c575050825f602080949584010152601f8019910116010190565b60208183018101518483018201520161031c565b5f546001600160a01b0316330361036357565b60405163118cdaa760e01b8152336004820152602490fdfea26469706673582212202992a71449476404159c12582e1f3d5c014ae92bc1369e2e03b37152567a3c7d64736f6c63430008180033000000000000000000000000ff6bdef4fb646ee44e29fe8fc0862b02f0ba8a33"
        },
        {
          "transactionType": "CREATE",
          "contractName": "TransparentUpgradeableProxy",
          "address": "0x442f66280c4353b5bdbc7b8d01c363bd08e87fae",
          "initCode": "0x604060a08152610aac8038038061001581610268565b9283398101906060818303126102645761002e8161028d565b60209161003c83820161028d565b8582015190916001600160401b039190828211610264570185601f82011215610264578051908282116101ef5761007b601f8301601f19168701610268565b968288528683830101116102645785905f5b8381106102505750505f918701015284511561023f57823b1561021f577f360894a13ba1a3210667c828492db98dca3e2076cc3735a920a3ca505d382bbc80546001600160a01b03199081166001600160a01b03868116918217909355885192979195907fbc7cd75a20ee27fd9adebab32041f755214dbc6bffa90cc0225b39da2e5c2d3b5f80a28151156102035761012692506102a1565b505b85519161048391828401908111848210176101ef57868492879461062985391681520301905ff080156101e557831691826080527f7e644d79422f17c01e4894b5f4f588d331ebfa28653d42ae832dc59e38c9798f857fb53127684a568b3173ae13b9f8a6016e243e63b6e8ee1178d6a717850b5d6103958587549483519286168352820152a182156101ce5716179055516102f69081610333823960805181600f0152f35b8451633173bdd160e11b81525f6004820152602490fd5b84513d5f823e3d90fd5b634e487b7160e01b5f52604160045260245ffd5b5050346102105750610128565b63b398979f60e01b8152600490fd5b8551634c9c8ce360e01b81526001600160a01b0384166004820152602490fd5b85516330a289cf60e21b8152600490fd5b81810183015189820184015287920161008d565b5f80fd5b6040519190601f01601f191682016001600160401b038111838210176101ef57604052565b51906001600160a01b038216820361026457565b905f8091602081519101845af4808061031f575b156102d55750506040513d81523d5f602083013e60203d82010160405290565b156102fc57604051639996b31560e01b81526001600160a01b039091166004820152602490fd5b3d1561030d576040513d5f823e3d90fd5b60405163d6bda27560e01b8152600490fd5b503d1515806102b55750813b15156102b556fe60806040526001600160a01b03337f000000000000000000000000000000000000000000000000000000000000000082160361006a575f356001600160e01b03191663278f794360e11b14610060576040516334ad5dbb60e21b8152600490fd5b6100686100be565b005b5f80917f360894a13ba1a3210667c828492db98dca3e2076cc3735a920a3ca505d382bbc5416368280378136915af43d5f803e156100a6573d5ff35b3d5ffd5b634e487b7160e01b5f52604160045260245ffd5b3660041161015f57604036600319011261015f576004356001600160a01b0381169081900361015f576024359067ffffffffffffffff9081831161015f573660238401121561015f5782600401358281116101635760405192601f8201601f19908116603f011684019081118482101761016357604052808352366024828601011161015f576020815f92602461015d97018387013784010152610168565b565b5f80fd5b6100aa565b90813b156101ff577f360894a13ba1a3210667c828492db98dca3e2076cc3735a920a3ca505d382bbc80546001600160a01b0319166001600160a01b0384169081179091557fbc7cd75a20ee27fd9adebab32041f755214dbc6bffa90cc0225b39da2e5c2d3b5f80a28051156101e4576101e191610220565b50565b5050346101ed57565b60405163b398979f60e01b8152600490fd5b604051634c9c8ce360e01b81526001600160a01b0383166004820152602490fd5b905f8091602081519101845af48080610289575b156102465750506102436102a7565b90565b1561026e57604051639996b31560e01b81526001600160a01b03919091166004820152602490fd5b3d15155f0361029c5760405163d6bda27560e01b8152600490fd5b503d1515806102345750813b1515610234565b6040513d5f823e3d90fd5b604051903d82523d5f602084013e60203d83010160405256fea2646970667358221220371437a14d55b0192ed17af74450cdb0b22bf1f3d480185986e4348c96e968d064736f6c634300081800336080346100b957601f61048338819003918201601f19168301916001600160401b038311848410176100bd578084926020946040528339810103126100b957516001600160a01b0390818116908190036100b95780156100a1575f80546001600160a01b03198116831782556040519316907f8be0079c531659141344cd1fd0a4f28419497f9722a3daafe3b4186f6b6457e09080a36103b190816100d28239f35b604051631e4fbdf760e01b81525f6004820152602490fd5b5f80fd5b634e487b7160e01b5f52604160045260245ffdfe604060808152600480361015610013575f80fd5b5f915f3560e01c8063715018a6146102bb5780638da5cb5b146102945780639623609d1461015c578063ad3cb1cc146100eb5763f2fde38b14610054575f80fd5b346100e75760203660031901126100e7576001600160a01b038235818116939192908490036100e357610085610350565b83156100cd5750505f54826bffffffffffffffffffffffff60a01b8216175f55167f8be0079c531659141344cd1fd0a4f28419497f9722a3daafe3b4186f6b6457e05f80a380f35b51631e4fbdf760e01b8152908101849052602490fd5b5f80fd5b8280fd5b5082346101595780600319360112610159575080519080820182811067ffffffffffffffff821117610146576101429350815260058252640352e302e360dc1b602083015251918291602083526020830190610312565b0390f35b604184634e487b7160e01b5f525260245ffd5b80fd5b5060603660031901126100e3576001600160a01b03823581811693908490036100e35760249182359081168091036100e35767ffffffffffffffff906044358281116100e357366023820112156100e3578084013583811161028257865191601f8201601f19908116603f0116830185811184821017610270578852818352368783830101116100e357815f92886020930183860137830101526101fe610350565b863b156100e357610230965f92875180998194829363278f794360e11b8452898401528a8a8401526044830190610312565b039134905af1801561026657610244578580f35b909192938095501161025557505052005b604190634e487b7160e01b5f52525ffd5b84513d5f823e3d90fd5b87604188634e487b7160e01b5f52525ffd5b85604186634e487b7160e01b5f52525ffd5b50346100e3575f3660031901126100e3575f5490516001600160a01b039091168152602090f35b346100e3575f3660031901126100e3576102d3610350565b5f80546001600160a01b0319811682556001600160a01b03167f8be0079c531659141344cd1fd0a4f28419497f9722a3daafe3b4186f6b6457e08280a3005b91908251928382525f5b84811061033c575050825f602080949584010152601f8019910116010190565b60208183018101518483018201520161031c565b5f546001600160a01b0316330361036357565b60405163118cdaa760e01b8152336004820152602490fdfea26469706673582212202992a71449476404159c12582e1f3d5c014ae92bc1369e2e03b37152567a3c7d64736f6c634300081800330000000000000000000000009fd2705c264901ed656c2803249f2f40f4268206000000000000000000000000ff6bdef4fb646ee44e29fe8fc0862b02f0ba8a33000000000000000000000000000000000000000000000000000000000000006000000000000000000000000000000000000000000000000000000000000000e4077f224a000000000000000000000000000000000000000000000000000000000000006000000000000000000000000000000000000000000000000000000000000000a0000000000000000000000000b2ae1c8f4461fafd3af0db9e5bdc5ce89316e080000000000000000000000000000000000000000000000000000000000000001752657061796d656e742056696e65796172642044656d6f0000000000000000000000000000000000000000000000000000000000000000000000000000000004525041590000000000000000000000000000000000000000000000000000000000000000000000000000000000000000000000000000000000000000"
        },
        {
          "transactionType": "CREATE",
          "contractName": "ProxyAdmin",
          "address": "0xd1d9b68abf37d5ee3b8de9b9dad03e527648bbe9",
          "initCode": "0x6080346100b957601f61048338819003918201601f19168301916001600160401b038311848410176100bd578084926020946040528339810103126100b957516001600160a01b0390818116908190036100b95780156100a1575f80546001600160a01b03198116831782556040519316907f8be0079c531659141344cd1fd0a4f28419497f9722a3daafe3b4186f6b6457e09080a36103b190816100d28239f35b604051631e4fbdf760e01b81525f6004820152602490fd5b5f80fd5b634e487b7160e01b5f52604160045260245ffdfe604060808152600480361015610013575f80fd5b5f915f3560e01c8063715018a6146102bb5780638da5cb5b146102945780639623609d1461015c578063ad3cb1cc146100eb5763f2fde38b14610054575f80fd5b346100e75760203660031901126100e7576001600160a01b038235818116939192908490036100e357610085610350565b83156100cd5750505f54826bffffffffffffffffffffffff60a01b8216175f55167f8be0079c531659141344cd1fd0a4f28419497f9722a3daafe3b4186f6b6457e05f80a380f35b51631e4fbdf760e01b8152908101849052602490fd5b5f80fd5b8280fd5b5082346101595780600319360112610159575080519080820182811067ffffffffffffffff821117610146576101429350815260058252640352e302e360dc1b602083015251918291602083526020830190610312565b0390f35b604184634e487b7160e01b5f525260245ffd5b80fd5b5060603660031901126100e3576001600160a01b03823581811693908490036100e35760249182359081168091036100e35767ffffffffffffffff906044358281116100e357366023820112156100e3578084013583811161028257865191601f8201601f19908116603f0116830185811184821017610270578852818352368783830101116100e357815f92886020930183860137830101526101fe610350565b863b156100e357610230965f92875180998194829363278f794360e11b8452898401528a8a8401526044830190610312565b039134905af1801561026657610244578580f35b909192938095501161025557505052005b604190634e487b7160e01b5f52525ffd5b84513d5f823e3d90fd5b87604188634e487b7160e01b5f52525ffd5b85604186634e487b7160e01b5f52525ffd5b50346100e3575f3660031901126100e3575f5490516001600160a01b039091168152602090f35b346100e3575f3660031901126100e3576102d3610350565b5f80546001600160a01b0319811682556001600160a01b03167f8be0079c531659141344cd1fd0a4f28419497f9722a3daafe3b4186f6b6457e08280a3005b91908251928382525f5b84811061033c575050825f602080949584010152601f8019910116010190565b60208183018101518483018201520161031c565b5f546001600160a01b0316330361036357565b60405163118cdaa760e01b8152336004820152602490fdfea26469706673582212202992a71449476404159c12582e1f3d5c014ae92bc1369e2e03b37152567a3c7d64736f6c63430008180033000000000000000000000000ff6bdef4fb646ee44e29fe8fc0862b02f0ba8a33"
        },
        {
          "transactionType": "CREATE",
          "contractName": "TransparentUpgradeableProxy",
          "address": "0x796eb68ba71ee5d035df906c4057e0bfc17c1182",
          "initCode": "0x604060a08152610aac8038038061001581610268565b9283398101906060818303126102645761002e8161028d565b60209161003c83820161028d565b8582015190916001600160401b039190828211610264570185601f82011215610264578051908282116101ef5761007b601f8301601f19168701610268565b968288528683830101116102645785905f5b8381106102505750505f918701015284511561023f57823b1561021f577f360894a13ba1a3210667c828492db98dca3e2076cc3735a920a3ca505d382bbc80546001600160a01b03199081166001600160a01b03868116918217909355885192979195907fbc7cd75a20ee27fd9adebab32041f755214dbc6bffa90cc0225b39da2e5c2d3b5f80a28151156102035761012692506102a1565b505b85519161048391828401908111848210176101ef57868492879461062985391681520301905ff080156101e557831691826080527f7e644d79422f17c01e4894b5f4f588d331ebfa28653d42ae832dc59e38c9798f857fb53127684a568b3173ae13b9f8a6016e243e63b6e8ee1178d6a717850b5d6103958587549483519286168352820152a182156101ce5716179055516102f69081610333823960805181600f0152f35b8451633173bdd160e11b81525f6004820152602490fd5b84513d5f823e3d90fd5b634e487b7160e01b5f52604160045260245ffd5b5050346102105750610128565b63b398979f60e01b8152600490fd5b8551634c9c8ce360e01b81526001600160a01b0384166004820152602490fd5b85516330a289cf60e21b8152600490fd5b81810183015189820184015287920161008d565b5f80fd5b6040519190601f01601f191682016001600160401b038111838210176101ef57604052565b51906001600160a01b038216820361026457565b905f8091602081519101845af4808061031f575b156102d55750506040513d81523d5f602083013e60203d82010160405290565b156102fc57604051639996b31560e01b81526001600160a01b039091166004820152602490fd5b3d1561030d576040513d5f823e3d90fd5b60405163d6bda27560e01b8152600490fd5b503d1515806102b55750813b15156102b556fe60806040526001600160a01b03337f000000000000000000000000000000000000000000000000000000000000000082160361006a575f356001600160e01b03191663278f794360e11b14610060576040516334ad5dbb60e21b8152600490fd5b6100686100be565b005b5f80917f360894a13ba1a3210667c828492db98dca3e2076cc3735a920a3ca505d382bbc5416368280378136915af43d5f803e156100a6573d5ff35b3d5ffd5b634e487b7160e01b5f52604160045260245ffd5b3660041161015f57604036600319011261015f576004356001600160a01b0381169081900361015f576024359067ffffffffffffffff9081831161015f573660238401121561015f5782600401358281116101635760405192601f8201601f19908116603f011684019081118482101761016357604052808352366024828601011161015f576020815f92602461015d97018387013784010152610168565b565b5f80fd5b6100aa565b90813b156101ff577f360894a13ba1a3210667c828492db98dca3e2076cc3735a920a3ca505d382bbc80546001600160a01b0319166001600160a01b0384169081179091557fbc7cd75a20ee27fd9adebab32041f755214dbc6bffa90cc0225b39da2e5c2d3b5f80a28051156101e4576101e191610220565b50565b5050346101ed57565b60405163b398979f60e01b8152600490fd5b604051634c9c8ce360e01b81526001600160a01b0383166004820152602490fd5b905f8091602081519101845af48080610289575b156102465750506102436102a7565b90565b1561026e57604051639996b31560e01b81526001600160a01b03919091166004820152602490fd5b3d15155f0361029c5760405163d6bda27560e01b8152600490fd5b503d1515806102345750813b1515610234565b6040513d5f823e3d90fd5b604051903d82523d5f602084013e60203d83010160405256fea2646970667358221220371437a14d55b0192ed17af74450cdb0b22bf1f3d480185986e4348c96e968d064736f6c634300081800336080346100b957601f61048338819003918201601f19168301916001600160401b038311848410176100bd578084926020946040528339810103126100b957516001600160a01b0390818116908190036100b95780156100a1575f80546001600160a01b03198116831782556040519316907f8be0079c531659141344cd1fd0a4f28419497f9722a3daafe3b4186f6b6457e09080a36103b190816100d28239f35b604051631e4fbdf760e01b81525f6004820152602490fd5b5f80fd5b634e487b7160e01b5f52604160045260245ffdfe604060808152600480361015610013575f80fd5b5f915f3560e01c8063715018a6146102bb5780638da5cb5b146102945780639623609d1461015c578063ad3cb1cc146100eb5763f2fde38b14610054575f80fd5b346100e75760203660031901126100e7576001600160a01b038235818116939192908490036100e357610085610350565b83156100cd5750505f54826bffffffffffffffffffffffff60a01b8216175f55167f8be0079c531659141344cd1fd0a4f28419497f9722a3daafe3b4186f6b6457e05f80a380f35b51631e4fbdf760e01b8152908101849052602490fd5b5f80fd5b8280fd5b5082346101595780600319360112610159575080519080820182811067ffffffffffffffff821117610146576101429350815260058252640352e302e360dc1b602083015251918291602083526020830190610312565b0390f35b604184634e487b7160e01b5f525260245ffd5b80fd5b5060603660031901126100e3576001600160a01b03823581811693908490036100e35760249182359081168091036100e35767ffffffffffffffff906044358281116100e357366023820112156100e3578084013583811161028257865191601f8201601f19908116603f0116830185811184821017610270578852818352368783830101116100e357815f92886020930183860137830101526101fe610350565b863b156100e357610230965f92875180998194829363278f794360e11b8452898401528a8a8401526044830190610312565b039134905af1801561026657610244578580f35b909192938095501161025557505052005b604190634e487b7160e01b5f52525ffd5b84513d5f823e3d90fd5b87604188634e487b7160e01b5f52525ffd5b85604186634e487b7160e01b5f52525ffd5b50346100e3575f3660031901126100e3575f5490516001600160a01b039091168152602090f35b346100e3575f3660031901126100e3576102d3610350565b5f80546001600160a01b0319811682556001600160a01b03167f8be0079c531659141344cd1fd0a4f28419497f9722a3daafe3b4186f6b6457e08280a3005b91908251928382525f5b84811061033c575050825f602080949584010152601f8019910116010190565b60208183018101518483018201520161031c565b5f546001600160a01b0316330361036357565b60405163118cdaa760e01b8152336004820152602490fdfea26469706673582212202992a71449476404159c12582e1f3d5c014ae92bc1369e2e03b37152567a3c7d64736f6c63430008180033000000000000000000000000f8aa824c02596c7f3edbe487d5602389d8d955b7000000000000000000000000ff6bdef4fb646ee44e29fe8fc0862b02f0ba8a33000000000000000000000000000000000000000000000000000000000000006000000000000000000000000000000000000000000000000000000000000000a4a6b63eb8000000000000000000000000442f66280c4353b5bdbc7b8d01c363bd08e87fae000000000000000000000000b2ae1c8f4461fafd3af0db9e5bdc5ce89316e080000000000000000000000000af81c05747eda1e1715ff23626ab83c3351dcff60000000000000000000000000000000000000000000034f086f3b33b684000000000000000000000000000000000000000000000000000000000000000093a8000000000000000000000000000000000000000000000000000000000"
        },
        {
          "transactionType": "CREATE",
          "contractName": "ProxyAdmin",
          "address": "0x691b43e07b45b89d19036b78af2001c25abfdee5",
          "initCode": "0x6080346100b957601f61048338819003918201601f19168301916001600160401b038311848410176100bd578084926020946040528339810103126100b957516001600160a01b0390818116908190036100b95780156100a1575f80546001600160a01b03198116831782556040519316907f8be0079c531659141344cd1fd0a4f28419497f9722a3daafe3b4186f6b6457e09080a36103b190816100d28239f35b604051631e4fbdf760e01b81525f6004820152602490fd5b5f80fd5b634e487b7160e01b5f52604160045260245ffdfe604060808152600480361015610013575f80fd5b5f915f3560e01c8063715018a6146102bb5780638da5cb5b146102945780639623609d1461015c578063ad3cb1cc146100eb5763f2fde38b14610054575f80fd5b346100e75760203660031901126100e7576001600160a01b038235818116939192908490036100e357610085610350565b83156100cd5750505f54826bffffffffffffffffffffffff60a01b8216175f55167f8be0079c531659141344cd1fd0a4f28419497f9722a3daafe3b4186f6b6457e05f80a380f35b51631e4fbdf760e01b8152908101849052602490fd5b5f80fd5b8280fd5b5082346101595780600319360112610159575080519080820182811067ffffffffffffffff821117610146576101429350815260058252640352e302e360dc1b602083015251918291602083526020830190610312565b0390f35b604184634e487b7160e01b5f525260245ffd5b80fd5b5060603660031901126100e3576001600160a01b03823581811693908490036100e35760249182359081168091036100e35767ffffffffffffffff906044358281116100e357366023820112156100e3578084013583811161028257865191601f8201601f19908116603f0116830185811184821017610270578852818352368783830101116100e357815f92886020930183860137830101526101fe610350565b863b156100e357610230965f92875180998194829363278f794360e11b8452898401528a8a8401526044830190610312565b039134905af1801561026657610244578580f35b909192938095501161025557505052005b604190634e487b7160e01b5f52525ffd5b84513d5f823e3d90fd5b87604188634e487b7160e01b5f52525ffd5b85604186634e487b7160e01b5f52525ffd5b50346100e3575f3660031901126100e3575f5490516001600160a01b039091168152602090f35b346100e3575f3660031901126100e3576102d3610350565b5f80546001600160a01b0319811682556001600160a01b03167f8be0079c531659141344cd1fd0a4f28419497f9722a3daafe3b4186f6b6457e08280a3005b91908251928382525f5b84811061033c575050825f602080949584010152601f8019910116010190565b60208183018101518483018201520161031c565b5f546001600160a01b0316330361036357565b60405163118cdaa760e01b8152336004820152602490fdfea26469706673582212202992a71449476404159c12582e1f3d5c014ae92bc1369e2e03b37152567a3c7d64736f6c63430008180033000000000000000000000000ff6bdef4fb646ee44e29fe8fc0862b02f0ba8a33"
        },
        {
          "transactionType": "CREATE",
          "contractName": "TransparentUpgradeableProxy",
          "address": "0xc85facbe35d038c040bbcc8266e518020d6564ca",
          "initCode": "0x604060a08152610aac8038038061001581610268565b9283398101906060818303126102645761002e8161028d565b60209161003c83820161028d565b8582015190916001600160401b039190828211610264570185601f82011215610264578051908282116101ef5761007b601f8301601f19168701610268565b968288528683830101116102645785905f5b8381106102505750505f918701015284511561023f57823b1561021f577f360894a13ba1a3210667c828492db98dca3e2076cc3735a920a3ca505d382bbc80546001600160a01b03199081166001600160a01b03868116918217909355885192979195907fbc7cd75a20ee27fd9adebab32041f755214dbc6bffa90cc0225b39da2e5c2d3b5f80a28151156102035761012692506102a1565b505b85519161048391828401908111848210176101ef57868492879461062985391681520301905ff080156101e557831691826080527f7e644d79422f17c01e4894b5f4f588d331ebfa28653d42ae832dc59e38c9798f857fb53127684a568b3173ae13b9f8a6016e243e63b6e8ee1178d6a717850b5d6103958587549483519286168352820152a182156101ce5716179055516102f69081610333823960805181600f0152f35b8451633173bdd160e11b81525f6004820152602490fd5b84513d5f823e3d90fd5b634e487b7160e01b5f52604160045260245ffd5b5050346102105750610128565b63b398979f60e01b8152600490fd5b8551634c9c8ce360e01b81526001600160a01b0384166004820152602490fd5b85516330a289cf60e21b8152600490fd5b81810183015189820184015287920161008d565b5f80fd5b6040519190601f01601f191682016001600160401b038111838210176101ef57604052565b51906001600160a01b038216820361026457565b905f8091602081519101845af4808061031f575b156102d55750506040513d81523d5f602083013e60203d82010160405290565b156102fc57604051639996b31560e01b81526001600160a01b039091166004820152602490fd5b3d1561030d576040513d5f823e3d90fd5b60405163d6bda27560e01b8152600490fd5b503d1515806102b55750813b15156102b556fe60806040526001600160a01b03337f000000000000000000000000000000000000000000000000000000000000000082160361006a575f356001600160e01b03191663278f794360e11b14610060576040516334ad5dbb60e21b8152600490fd5b6100686100be565b005b5f80917f360894a13ba1a3210667c828492db98dca3e2076cc3735a920a3ca505d382bbc5416368280378136915af43d5f803e156100a6573d5ff35b3d5ffd5b634e487b7160e01b5f52604160045260245ffd5b3660041161015f57604036600319011261015f576004356001600160a01b0381169081900361015f576024359067ffffffffffffffff9081831161015f573660238401121561015f5782600401358281116101635760405192601f8201601f19908116603f011684019081118482101761016357604052808352366024828601011161015f576020815f92602461015d97018387013784010152610168565b565b5f80fd5b6100aa565b90813b156101ff577f360894a13ba1a3210667c828492db98dca3e2076cc3735a920a3ca505d382bbc80546001600160a01b0319166001600160a01b0384169081179091557fbc7cd75a20ee27fd9adebab32041f755214dbc6bffa90cc0225b39da2e5c2d3b5f80a28051156101e4576101e191610220565b50565b5050346101ed57565b60405163b398979f60e01b8152600490fd5b604051634c9c8ce360e01b81526001600160a01b0383166004820152602490fd5b905f8091602081519101845af48080610289575b156102465750506102436102a7565b90565b1561026e57604051639996b31560e01b81526001600160a01b03919091166004820152602490fd5b3d15155f0361029c5760405163d6bda27560e01b8152600490fd5b503d1515806102345750813b1515610234565b6040513d5f823e3d90fd5b604051903d82523d5f602084013e60203d83010160405256fea2646970667358221220371437a14d55b0192ed17af74450cdb0b22bf1f3d480185986e4348c96e968d064736f6c634300081800336080346100b957601f61048338819003918201601f19168301916001600160401b038311848410176100bd578084926020946040528339810103126100b957516001600160a01b0390818116908190036100b95780156100a1575f80546001600160a01b03198116831782556040519316907f8be0079c531659141344cd1fd0a4f28419497f9722a3daafe3b4186f6b6457e09080a36103b190816100d28239f35b604051631e4fbdf760e01b81525f6004820152602490fd5b5f80fd5b634e487b7160e01b5f52604160045260245ffdfe604060808152600480361015610013575f80fd5b5f915f3560e01c8063715018a6146102bb5780638da5cb5b146102945780639623609d1461015c578063ad3cb1cc146100eb5763f2fde38b14610054575f80fd5b346100e75760203660031901126100e7576001600160a01b038235818116939192908490036100e357610085610350565b83156100cd5750505f54826bffffffffffffffffffffffff60a01b8216175f55167f8be0079c531659141344cd1fd0a4f28419497f9722a3daafe3b4186f6b6457e05f80a380f35b51631e4fbdf760e01b8152908101849052602490fd5b5f80fd5b8280fd5b5082346101595780600319360112610159575080519080820182811067ffffffffffffffff821117610146576101429350815260058252640352e302e360dc1b602083015251918291602083526020830190610312565b0390f35b604184634e487b7160e01b5f525260245ffd5b80fd5b5060603660031901126100e3576001600160a01b03823581811693908490036100e35760249182359081168091036100e35767ffffffffffffffff906044358281116100e357366023820112156100e3578084013583811161028257865191601f8201601f19908116603f0116830185811184821017610270578852818352368783830101116100e357815f92886020930183860137830101526101fe610350565b863b156100e357610230965f92875180998194829363278f794360e11b8452898401528a8a8401526044830190610312565b039134905af1801561026657610244578580f35b909192938095501161025557505052005b604190634e487b7160e01b5f52525ffd5b84513d5f823e3d90fd5b87604188634e487b7160e01b5f52525ffd5b85604186634e487b7160e01b5f52525ffd5b50346100e3575f3660031901126100e3575f5490516001600160a01b039091168152602090f35b346100e3575f3660031901126100e3576102d3610350565b5f80546001600160a01b0319811682556001600160a01b03167f8be0079c531659141344cd1fd0a4f28419497f9722a3daafe3b4186f6b6457e08280a3005b91908251928382525f5b84811061033c575050825f602080949584010152601f8019910116010190565b60208183018101518483018201520161031c565b5f546001600160a01b0316330361036357565b60405163118cdaa760e01b8152336004820152602490fdfea26469706673582212202992a71449476404159c12582e1f3d5c014ae92bc1369e2e03b37152567a3c7d64736f6c63430008180033000000000000000000000000a2bc85c0e4440da0a0e5edfa047ccae207b5ea14000000000000000000000000ff6bdef4fb646ee44e29fe8fc0862b02f0ba8a33000000000000000000000000000000000000000000000000000000000000006000000000000000000000000000000000000000000000000000000000000000c4d7c41c79000000000000000000000000784d2221e11f4e87fa031aac15c168d27b5cceb4000000000000000000000000ff6bdef4fb646ee44e29fe8fc0862b02f0ba8a33000000000000000000000000af81c05747eda1e1715ff23626ab83c3351dcff6000000000000000000000000f0ad36ef051742b4397048aa4d5d7ab08f88fef700000000000000000000000000000000000000000000000000000000000000c80000000000000000000000000000000000000000000000000de0b6b3a764000000000000000000000000000000000000000000000000000000000000"
        },
        {
          "transactionType": "CREATE",
          "contractName": "ProxyAdmin",
          "address": "0xd33e7873d2be4df7a08faf666f360cbe6bc7e4d1",
          "initCode": "0x6080346100b957601f61048338819003918201601f19168301916001600160401b038311848410176100bd578084926020946040528339810103126100b957516001600160a01b0390818116908190036100b95780156100a1575f80546001600160a01b03198116831782556040519316907f8be0079c531659141344cd1fd0a4f28419497f9722a3daafe3b4186f6b6457e09080a36103b190816100d28239f35b604051631e4fbdf760e01b81525f6004820152602490fd5b5f80fd5b634e487b7160e01b5f52604160045260245ffdfe604060808152600480361015610013575f80fd5b5f915f3560e01c8063715018a6146102bb5780638da5cb5b146102945780639623609d1461015c578063ad3cb1cc146100eb5763f2fde38b14610054575f80fd5b346100e75760203660031901126100e7576001600160a01b038235818116939192908490036100e357610085610350565b83156100cd5750505f54826bffffffffffffffffffffffff60a01b8216175f55167f8be0079c531659141344cd1fd0a4f28419497f9722a3daafe3b4186f6b6457e05f80a380f35b51631e4fbdf760e01b8152908101849052602490fd5b5f80fd5b8280fd5b5082346101595780600319360112610159575080519080820182811067ffffffffffffffff821117610146576101429350815260058252640352e302e360dc1b602083015251918291602083526020830190610312565b0390f35b604184634e487b7160e01b5f525260245ffd5b80fd5b5060603660031901126100e3576001600160a01b03823581811693908490036100e35760249182359081168091036100e35767ffffffffffffffff906044358281116100e357366023820112156100e3578084013583811161028257865191601f8201601f19908116603f0116830185811184821017610270578852818352368783830101116100e357815f92886020930183860137830101526101fe610350565b863b156100e357610230965f92875180998194829363278f794360e11b8452898401528a8a8401526044830190610312565b039134905af1801561026657610244578580f35b909192938095501161025557505052005b604190634e487b7160e01b5f52525ffd5b84513d5f823e3d90fd5b87604188634e487b7160e01b5f52525ffd5b85604186634e487b7160e01b5f52525ffd5b50346100e3575f3660031901126100e3575f5490516001600160a01b039091168152602090f35b346100e3575f3660031901126100e3576102d3610350565b5f80546001600160a01b0319811682556001600160a01b03167f8be0079c531659141344cd1fd0a4f28419497f9722a3daafe3b4186f6b6457e08280a3005b91908251928382525f5b84811061033c575050825f602080949584010152601f8019910116010190565b60208183018101518483018201520161031c565b5f546001600160a01b0316330361036357565b60405163118cdaa760e01b8152336004820152602490fdfea26469706673582212202992a71449476404159c12582e1f3d5c014ae92bc1369e2e03b37152567a3c7d64736f6c63430008180033000000000000000000000000ff6bdef4fb646ee44e29fe8fc0862b02f0ba8a33"
        },
        {
          "transactionType": "CREATE",
          "contractName": "TransparentUpgradeableProxy",
          "address": "0x067fe0cb0769a579235512f9b2b3cd7a47019658",
          "initCode": "0x604060a08152610aac8038038061001581610268565b9283398101906060818303126102645761002e8161028d565b60209161003c83820161028d565b8582015190916001600160401b039190828211610264570185601f82011215610264578051908282116101ef5761007b601f8301601f19168701610268565b968288528683830101116102645785905f5b8381106102505750505f918701015284511561023f57823b1561021f577f360894a13ba1a3210667c828492db98dca3e2076cc3735a920a3ca505d382bbc80546001600160a01b03199081166001600160a01b03868116918217909355885192979195907fbc7cd75a20ee27fd9adebab32041f755214dbc6bffa90cc0225b39da2e5c2d3b5f80a28151156102035761012692506102a1565b505b85519161048391828401908111848210176101ef57868492879461062985391681520301905ff080156101e557831691826080527f7e644d79422f17c01e4894b5f4f588d331ebfa28653d42ae832dc59e38c9798f857fb53127684a568b3173ae13b9f8a6016e243e63b6e8ee1178d6a717850b5d6103958587549483519286168352820152a182156101ce5716179055516102f69081610333823960805181600f0152f35b8451633173bdd160e11b81525f6004820152602490fd5b84513d5f823e3d90fd5b634e487b7160e01b5f52604160045260245ffd5b5050346102105750610128565b63b398979f60e01b8152600490fd5b8551634c9c8ce360e01b81526001600160a01b0384166004820152602490fd5b85516330a289cf60e21b8152600490fd5b81810183015189820184015287920161008d565b5f80fd5b6040519190601f01601f191682016001600160401b038111838210176101ef57604052565b51906001600160a01b038216820361026457565b905f8091602081519101845af4808061031f575b156102d55750506040513d81523d5f602083013e60203d82010160405290565b156102fc57604051639996b31560e01b81526001600160a01b039091166004820152602490fd5b3d1561030d576040513d5f823e3d90fd5b60405163d6bda27560e01b8152600490fd5b503d1515806102b55750813b15156102b556fe60806040526001600160a01b03337f000000000000000000000000000000000000000000000000000000000000000082160361006a575f356001600160e01b03191663278f794360e11b14610060576040516334ad5dbb60e21b8152600490fd5b6100686100be565b005b5f80917f360894a13ba1a3210667c828492db98dca3e2076cc3735a920a3ca505d382bbc5416368280378136915af43d5f803e156100a6573d5ff35b3d5ffd5b634e487b7160e01b5f52604160045260245ffd5b3660041161015f57604036600319011261015f576004356001600160a01b0381169081900361015f576024359067ffffffffffffffff9081831161015f573660238401121561015f5782600401358281116101635760405192601f8201601f19908116603f011684019081118482101761016357604052808352366024828601011161015f576020815f92602461015d97018387013784010152610168565b565b5f80fd5b6100aa565b90813b156101ff577f360894a13ba1a3210667c828492db98dca3e2076cc3735a920a3ca505d382bbc80546001600160a01b0319166001600160a01b0384169081179091557fbc7cd75a20ee27fd9adebab32041f755214dbc6bffa90cc0225b39da2e5c2d3b5f80a28051156101e4576101e191610220565b50565b5050346101ed57565b60405163b398979f60e01b8152600490fd5b604051634c9c8ce360e01b81526001600160a01b0383166004820152602490fd5b905f8091602081519101845af48080610289575b156102465750506102436102a7565b90565b1561026e57604051639996b31560e01b81526001600160a01b03919091166004820152602490fd5b3d15155f0361029c5760405163d6bda27560e01b8152600490fd5b503d1515806102345750813b1515610234565b6040513d5f823e3d90fd5b604051903d82523d5f602084013e60203d83010160405256fea2646970667358221220371437a14d55b0192ed17af74450cdb0b22bf1f3d480185986e4348c96e968d064736f6c634300081800336080346100b957601f61048338819003918201601f19168301916001600160401b038311848410176100bd578084926020946040528339810103126100b957516001600160a01b0390818116908190036100b95780156100a1575f80546001600160a01b03198116831782556040519316907f8be0079c531659141344cd1fd0a4f28419497f9722a3daafe3b4186f6b6457e09080a36103b190816100d28239f35b604051631e4fbdf760e01b81525f6004820152602490fd5b5f80fd5b634e487b7160e01b5f52604160045260245ffdfe604060808152600480361015610013575f80fd5b5f915f3560e01c8063715018a6146102bb5780638da5cb5b146102945780639623609d1461015c578063ad3cb1cc146100eb5763f2fde38b14610054575f80fd5b346100e75760203660031901126100e7576001600160a01b038235818116939192908490036100e357610085610350565b83156100cd5750505f54826bffffffffffffffffffffffff60a01b8216175f55167f8be0079c531659141344cd1fd0a4f28419497f9722a3daafe3b4186f6b6457e05f80a380f35b51631e4fbdf760e01b8152908101849052602490fd5b5f80fd5b8280fd5b5082346101595780600319360112610159575080519080820182811067ffffffffffffffff821117610146576101429350815260058252640352e302e360dc1b602083015251918291602083526020830190610312565b0390f35b604184634e487b7160e01b5f525260245ffd5b80fd5b5060603660031901126100e3576001600160a01b03823581811693908490036100e35760249182359081168091036100e35767ffffffffffffffff906044358281116100e357366023820112156100e3578084013583811161028257865191601f8201601f19908116603f0116830185811184821017610270578852818352368783830101116100e357815f92886020930183860137830101526101fe610350565b863b156100e357610230965f92875180998194829363278f794360e11b8452898401528a8a8401526044830190610312565b039134905af1801561026657610244578580f35b909192938095501161025557505052005b604190634e487b7160e01b5f52525ffd5b84513d5f823e3d90fd5b87604188634e487b7160e01b5f52525ffd5b85604186634e487b7160e01b5f52525ffd5b50346100e3575f3660031901126100e3575f5490516001600160a01b039091168152602090f35b346100e3575f3660031901126100e3576102d3610350565b5f80546001600160a01b0319811682556001600160a01b03167f8be0079c531659141344cd1fd0a4f28419497f9722a3daafe3b4186f6b6457e08280a3005b91908251928382525f5b84811061033c575050825f602080949584010152601f8019910116010190565b60208183018101518483018201520161031c565b5f546001600160a01b0316330361036357565b60405163118cdaa760e01b8152336004820152602490fdfea26469706673582212202992a71449476404159c12582e1f3d5c014ae92bc1369e2e03b37152567a3c7d64736f6c63430008180033000000000000000000000000d8ed0d2bc7b9a30f4073bc0c11e60d6eae083d6f000000000000000000000000ff6bdef4fb646ee44e29fe8fc0862b02f0ba8a33000000000000000000000000000000000000000000000000000000000000006000000000000000000000000000000000000000000000000000000000000001048f15b414000000000000000000000000000000000000000000000000000000000000008000000000000000000000000000000000000000000000000000000000000000c0000000000000000000000000796eb68ba71ee5d035df906c4057e0bfc17c1182000000000000000000000000c85facbe35d038c040bbcc8266e518020d6564ca000000000000000000000000000000000000000000000000000000000000001852657061796d656e742056696e6579617264205969656c6400000000000000000000000000000000000000000000000000000000000000000000000000000006725949454c44000000000000000000000000000000000000000000000000000000000000000000000000000000000000000000000000000000000000"
        },
        {
          "transactionType": "CREATE",
          "contractName": "ProxyAdmin",
          "address": "0xb88aa797d19768579e17fcaf92c1092480196828",
          "initCode": "0x6080346100b957601f61048338819003918201601f19168301916001600160401b038311848410176100bd578084926020946040528339810103126100b957516001600160a01b0390818116908190036100b95780156100a1575f80546001600160a01b03198116831782556040519316907f8be0079c531659141344cd1fd0a4f28419497f9722a3daafe3b4186f6b6457e09080a36103b190816100d28239f35b604051631e4fbdf760e01b81525f6004820152602490fd5b5f80fd5b634e487b7160e01b5f52604160045260245ffdfe604060808152600480361015610013575f80fd5b5f915f3560e01c8063715018a6146102bb5780638da5cb5b146102945780639623609d1461015c578063ad3cb1cc146100eb5763f2fde38b14610054575f80fd5b346100e75760203660031901126100e7576001600160a01b038235818116939192908490036100e357610085610350565b83156100cd5750505f54826bffffffffffffffffffffffff60a01b8216175f55167f8be0079c531659141344cd1fd0a4f28419497f9722a3daafe3b4186f6b6457e05f80a380f35b51631e4fbdf760e01b8152908101849052602490fd5b5f80fd5b8280fd5b5082346101595780600319360112610159575080519080820182811067ffffffffffffffff821117610146576101429350815260058252640352e302e360dc1b602083015251918291602083526020830190610312565b0390f35b604184634e487b7160e01b5f525260245ffd5b80fd5b5060603660031901126100e3576001600160a01b03823581811693908490036100e35760249182359081168091036100e35767ffffffffffffffff906044358281116100e357366023820112156100e3578084013583811161028257865191601f8201601f19908116603f0116830185811184821017610270578852818352368783830101116100e357815f92886020930183860137830101526101fe610350565b863b156100e357610230965f92875180998194829363278f794360e11b8452898401528a8a8401526044830190610312565b039134905af1801561026657610244578580f35b909192938095501161025557505052005b604190634e487b7160e01b5f52525ffd5b84513d5f823e3d90fd5b87604188634e487b7160e01b5f52525ffd5b85604186634e487b7160e01b5f52525ffd5b50346100e3575f3660031901126100e3575f5490516001600160a01b039091168152602090f35b346100e3575f3660031901126100e3576102d3610350565b5f80546001600160a01b0319811682556001600160a01b03167f8be0079c531659141344cd1fd0a4f28419497f9722a3daafe3b4186f6b6457e08280a3005b91908251928382525f5b84811061033c575050825f602080949584010152601f8019910116010190565b60208183018101518483018201520161031c565b5f546001600160a01b0316330361036357565b60405163118cdaa760e01b8152336004820152602490fdfea26469706673582212202992a71449476404159c12582e1f3d5c014ae92bc1369e2e03b37152567a3c7d64736f6c63430008180033000000000000000000000000ff6bdef4fb646ee44e29fe8fc0862b02f0ba8a33"
        }
      ],
      "isFixedGasLimit": false
    },
    {
      "hash": "0x3d9823fbc6d8bd735c94814e2558e8d7b6a051a9d2422071d3b0b6609c1b8908",
      "transactionType": "CALL",
      "contractName": "TransparentUpgradeableProxy",
      "contractAddress": "0xb2ae1c8f4461fafd3af0db9e5bdc5ce89316e080",
      "function": null,
      "arguments": null,
      "transaction": {
        "from": "0xff6bdef4fb646ee44e29fe8fc0862b02f0ba8a33",
        "to": "0xb2ae1c8f4461fafd3af0db9e5bdc5ce89316e080",
        "gas": "0x339db",
        "value": "0x0",
        "input": "0x666033e6000000000000000000000000784d2221e11f4e87fa031aac15c168d27b5cceb4000000000000000000000000000000000000000000000000000000000000000000000000000000000000000000000000000000000000000000000000000186a00000000000000000000000000000000000000000000000000000000000000000",
        "nonce": "0x245",
        "chainId": "0x14a34"
      },
      "additionalContracts": [],
      "isFixedGasLimit": false
    },
    {
      "hash": "0x9d3056debc8f324c039adaf1e9073aff5ad92321e6ae7ab09badb2a1a6dc398a",
      "transactionType": "CALL",
      "contractName": "MockUSDC",
      "contractAddress": "0x784d2221e11f4e87fa031aac15c168d27b5cceb4",
      "function": "approve(address,uint256)",
      "arguments": [
        "0xB2ae1c8F4461FaFD3af0Db9E5bDc5cE89316E080",
        "115792089237316195423570985008687907853269984665640564039457584007913129639935"
      ],
      "transaction": {
        "from": "0xff6bdef4fb646ee44e29fe8fc0862b02f0ba8a33",
        "to": "0x784d2221e11f4e87fa031aac15c168d27b5cceb4",
        "gas": "0x10868",
        "value": "0x0",
        "input": "0x095ea7b3000000000000000000000000b2ae1c8f4461fafd3af0db9e5bdc5ce89316e080ffffffffffffffffffffffffffffffffffffffffffffffffffffffffffffffff",
        "nonce": "0x246",
        "chainId": "0x14a34"
      },
      "additionalContracts": [],
      "isFixedGasLimit": false
    },
    {
      "hash": "0x89935a664b07c35e06a05a8d2352188730f432cba4568a34fe6e0f629235d215",
      "transactionType": "CALL",
      "contractName": "TransparentUpgradeableProxy",
      "contractAddress": "0xb2ae1c8f4461fafd3af0db9e5bdc5ce89316e080",
      "function": null,
      "arguments": null,
      "transaction": {
        "from": "0xff6bdef4fb646ee44e29fe8fc0862b02f0ba8a33",
        "to": "0xb2ae1c8f4461fafd3af0db9e5bdc5ce89316e080",
        "gas": "0xad01c",
        "value": "0x0",
        "input": "0xcce7ec13000000000000000000000000784d2221e11f4e87fa031aac15c168d27b5cceb40000000000000000000000000000000000000000000000000000000007270e00",
        "nonce": "0x247",
        "chainId": "0x14a34"
      },
      "additionalContracts": [],
      "isFixedGasLimit": false
    },
    {
      "hash": "0x4c0811b125c22c0b44db81eae55fc2ac59d61542b5387deba53ac99a8497cb5e",
      "transactionType": "CALL",
      "contractName": "TransparentUpgradeableProxy",
      "contractAddress": "0xb2ae1c8f4461fafd3af0db9e5bdc5ce89316e080",
      "function": null,
      "arguments": null,
      "transaction": {
        "from": "0xff6bdef4fb646ee44e29fe8fc0862b02f0ba8a33",
        "to": "0xb2ae1c8f4461fafd3af0db9e5bdc5ce89316e080",
        "gas": "0x1f835",
        "value": "0x0",
        "input": "0xea12e9b6",
        "nonce": "0x248",
        "chainId": "0x14a34"
      },
      "additionalContracts": [],
      "isFixedGasLimit": false
    },
    {
      "hash": "0x386060b0a4ece05c8d4dce13758c8c10d0ce43889af013d359c6876dfe2f1c58",
      "transactionType": "CALL",
      "contractName": "TransparentUpgradeableProxy",
      "contractAddress": "0xb2ae1c8f4461fafd3af0db9e5bdc5ce89316e080",
      "function": null,
      "arguments": null,
      "transaction": {
        "from": "0xff6bdef4fb646ee44e29fe8fc0862b02f0ba8a33",
        "to": "0xb2ae1c8f4461fafd3af0db9e5bdc5ce89316e080",
        "gas": "0x3e4ba",
        "value": "0x0",
        "input": "0x952a9633",
        "nonce": "0x249",
        "chainId": "0x14a34"
      },
      "additionalContracts": [],
      "isFixedGasLimit": false
    },
    {
      "hash": "0x288b05861575f0b5955de1405c1d48c586579a72a592880980aa89e8fee02850",
      "transactionType": "CALL",
      "contractName": "TransparentUpgradeableProxy",
      "contractAddress": "0xb2ae1c8f4461fafd3af0db9e5bdc5ce89316e080",
      "function": null,
      "arguments": null,
      "transaction": {
        "from": "0xff6bdef4fb646ee44e29fe8fc0862b02f0ba8a33",
        "to": "0xb2ae1c8f4461fafd3af0db9e5bdc5ce89316e080",
        "gas": "0xe7cf9",
        "value": "0x0",
        "input": "0xff57866a8d8dbd54da6ed08f3af3f4408383e63b6594306608253e922377e052ddfbbc0582beecdd0fd7fb5ab47261b2dec556e40796f55e3706a60c118ff8e2a4e768e7000000000000000000000000039bc1531a427d299bbeae37d4fb6ee9ebf4477e0000000000000000000000000000000000000000000000000000000000000080000000000000000000000000000000000000000000000000000000000000001c697066733a2f2f67726f7766692d72657061796d656e742d64656d6f00000000",
        "nonce": "0x24a",
        "chainId": "0x14a34"
      },
      "additionalContracts": [],
      "isFixedGasLimit": false
    },
    {
      "hash": "0xde914d684441a985f8f9af028b4dfe8d0451359ba0a1470ce276cf6a1f163ffb",
      "transactionType": "CALL",
      "contractName": "TransparentUpgradeableProxy",
      "contractAddress": "0xb2ae1c8f4461fafd3af0db9e5bdc5ce89316e080",
      "function": null,
      "arguments": null,
      "transaction": {
        "from": "0xff6bdef4fb646ee44e29fe8fc0862b02f0ba8a33",
        "to": "0xb2ae1c8f4461fafd3af0db9e5bdc5ce89316e080",
        "gas": "0x23da2",
        "value": "0x0",
        "input": "0xe2cd4f760000000000000000000000000000000000000000000000000000000000001388",
        "nonce": "0x24b",
        "chainId": "0x14a34"
      },
      "additionalContracts": [],
      "isFixedGasLimit": false
    },
    {
      "hash": "0xbcdd789c149914f5fe79da26270581b220af19e6baf6fa2abf8936305b8abcbf",
      "transactionType": "CALL",
      "contractName": "TransparentUpgradeableProxy",
      "contractAddress": "0xb2ae1c8f4461fafd3af0db9e5bdc5ce89316e080",
      "function": null,
      "arguments": null,
      "transaction": {
        "from": "0xff6bdef4fb646ee44e29fe8fc0862b02f0ba8a33",
        "to": "0xb2ae1c8f4461fafd3af0db9e5bdc5ce89316e080",
        "gas": "0x22599",
        "value": "0x0",
        "input": "0xda3a5f720000000000000000000000000000000000000000000000000000000077359400",
        "nonce": "0x24c",
        "chainId": "0x14a34"
      },
      "additionalContracts": [],
      "isFixedGasLimit": false
    },
    {
      "hash": "0x3b2571ff6ca29bb3e4829ba577241deaf41a34d493b5aadbb2d1c1101862a928",
      "transactionType": "CALL",
      "contractName": null,
      "contractAddress": "0xaf81c05747eda1e1715ff23626ab83c3351dcff6",
      "function": "addGrowfiTreasuryTrackedCampaign(address)",
      "arguments": [
        "0xB2ae1c8F4461FaFD3af0Db9E5bDc5cE89316E080"
      ],
      "transaction": {
        "from": "0xff6bdef4fb646ee44e29fe8fc0862b02f0ba8a33",
        "to": "0xaf81c05747eda1e1715ff23626ab83c3351dcff6",
        "gas": "0x27b7b",
        "value": "0x0",
        "input": "0x7a89cdd4000000000000000000000000b2ae1c8f4461fafd3af0db9e5bdc5ce89316e080",
        "nonce": "0x24d",
        "chainId": "0x14a34"
      },
      "additionalContracts": [],
      "isFixedGasLimit": false
    }
  ],
  "receipts": [
    {
      "status": "0x1",
      "cumulativeGasUsed": "0x2c08e4",
      "logs": [
        {
          "address": "0x784d2221e11f4e87fa031aac15c168d27b5cceb4",
          "topics": [
            "0xddf252ad1be2c89b69c2b068fc378daa952ba7f163c4a11628f55a4df523b3ef",
            "0x0000000000000000000000000000000000000000000000000000000000000000",
            "0x000000000000000000000000ff6bdef4fb646ee44e29fe8fc0862b02f0ba8a33"
          ],
          "data": "0x00000000000000000000000000000000000000000000000000000005d21dba00",
          "blockHash": "0x1037cd0cb57965eaea0970ed24d714b1ee3d3ba90c569caef37ad40742293c92",
          "blockNumber": "0x28b84ac",
          "blockTimestamp": "0x6a2a6838",
          "transactionHash": "0x4106bdd48e4e643300a582492781e0634f898e9dbe768473a4c8d5400220894a",
          "transactionIndex": "0xd",
          "logIndex": "0x53",
          "removed": false
        }
      ],
      "logsBloom": "0x00000000000000000000100000000000000000000000000000000000000000000000000000000000000001000000000000000000000000000000000000000000000000000000000000000008000000000000000000000001000000000000000000000000020000000000000000000800000000000000000000000010000000000000000000000000000000000000000000000000000000000000000000000000000000000000000000000000000000000000000000000000400000000000000000000002000000000000000000010000000000000000000000000000000020000000000000000000000000000000000000000000000000000000000080000000",
      "type": "0x2",
      "transactionHash": "0x4106bdd48e4e643300a582492781e0634f898e9dbe768473a4c8d5400220894a",
      "transactionIndex": "0xd",
      "blockHash": "0x1037cd0cb57965eaea0970ed24d714b1ee3d3ba90c569caef37ad40742293c92",
      "blockNumber": "0x28b84ac",
      "gasUsed": "0x8468",
      "effectiveGasPrice": "0x5b8d80",
      "blobGasUsed": "0xae38",
      "from": "0xff6bdef4fb646ee44e29fe8fc0862b02f0ba8a33",
      "to": "0x784d2221e11f4e87fa031aac15c168d27b5cceb4",
      "contractAddress": null,
      "daFootprintGasScalar": "0x1be",
      "l1BaseFeeScalar": "0x44d",
      "l1BlobBaseFee": "0xf47bb5d",
      "l1BlobBaseFeeScalar": "0xa118b",
      "l1Fee": "0x5aab701e1",
      "l1GasPrice": "0xfb29ca57",
      "l1GasUsed": "0x640"
    },
    {
      "status": "0x1",
      "cumulativeGasUsed": "0x5b72c5",
      "logs": [
        {
          "address": "0xb2ae1c8f4461fafd3af0db9e5bdc5ce89316e080",
          "topics": [
            "0xbc7cd75a20ee27fd9adebab32041f755214dbc6bffa90cc0225b39da2e5c2d3b",
            "0x0000000000000000000000002db5e242755e44b70bb84c030d841729dc1f2869"
          ],
          "data": "0x",
          "blockHash": "0xb559eb8dfab4e8f858fa4587e8d8c4dda923a1467a2d5815642ab0690a7eca40",
          "blockNumber": "0x28b84ae",
          "blockTimestamp": "0x6a2a683c",
          "transactionHash": "0xa512fb67f1fa701dedf6fc3b50cbab5526604b3bd228e553e43b55c56f9ca7b2",
          "transactionIndex": "0x3",
          "logIndex": "0x5",
          "removed": false
        },
        {
          "address": "0xb2ae1c8f4461fafd3af0db9e5bdc5ce89316e080",
          "topics": [
            "0xc7f505b2f371ae2175ee4913f4499e1f2633a7b5936321eed1cdaeb6115181d2"
          ],
          "data": "0x0000000000000000000000000000000000000000000000000000000000000001",
          "blockHash": "0xb559eb8dfab4e8f858fa4587e8d8c4dda923a1467a2d5815642ab0690a7eca40",
          "blockNumber": "0x28b84ae",
          "blockTimestamp": "0x6a2a683c",
          "transactionHash": "0xa512fb67f1fa701dedf6fc3b50cbab5526604b3bd228e553e43b55c56f9ca7b2",
          "transactionIndex": "0x3",
          "logIndex": "0x6",
          "removed": false
        },
        {
          "address": "0x4cf966453f47181b04a07a0c84034269ba779dc8",
          "topics": [
            "0x8be0079c531659141344cd1fd0a4f28419497f9722a3daafe3b4186f6b6457e0",
            "0x0000000000000000000000000000000000000000000000000000000000000000",
            "0x000000000000000000000000ff6bdef4fb646ee44e29fe8fc0862b02f0ba8a33"
          ],
          "data": "0x",
          "blockHash": "0xb559eb8dfab4e8f858fa4587e8d8c4dda923a1467a2d5815642ab0690a7eca40",
          "blockNumber": "0x28b84ae",
          "blockTimestamp": "0x6a2a683c",
          "transactionHash": "0xa512fb67f1fa701dedf6fc3b50cbab5526604b3bd228e553e43b55c56f9ca7b2",
          "transactionIndex": "0x3",
          "logIndex": "0x7",
          "removed": false
        },
        {
          "address": "0xb2ae1c8f4461fafd3af0db9e5bdc5ce89316e080",
          "topics": [
            "0x7e644d79422f17c01e4894b5f4f588d331ebfa28653d42ae832dc59e38c9798f"
          ],
          "data": "0x00000000000000000000000000000000000000000000000000000000000000000000000000000000000000004cf966453f47181b04a07a0c84034269ba779dc8",
          "blockHash": "0xb559eb8dfab4e8f858fa4587e8d8c4dda923a1467a2d5815642ab0690a7eca40",
          "blockNumber": "0x28b84ae",
          "blockTimestamp": "0x6a2a683c",
          "transactionHash": "0xa512fb67f1fa701dedf6fc3b50cbab5526604b3bd228e553e43b55c56f9ca7b2",
          "transactionIndex": "0x3",
          "logIndex": "0x8",
          "removed": false
        },
        {
          "address": "0x442f66280c4353b5bdbc7b8d01c363bd08e87fae",
          "topics": [
            "0xbc7cd75a20ee27fd9adebab32041f755214dbc6bffa90cc0225b39da2e5c2d3b",
            "0x0000000000000000000000009fd2705c264901ed656c2803249f2f40f4268206"
          ],
          "data": "0x",
          "blockHash": "0xb559eb8dfab4e8f858fa4587e8d8c4dda923a1467a2d5815642ab0690a7eca40",
          "blockNumber": "0x28b84ae",
          "blockTimestamp": "0x6a2a683c",
          "transactionHash": "0xa512fb67f1fa701dedf6fc3b50cbab5526604b3bd228e553e43b55c56f9ca7b2",
          "transactionIndex": "0x3",
          "logIndex": "0x9",
          "removed": false
        },
        {
          "address": "0x442f66280c4353b5bdbc7b8d01c363bd08e87fae",
          "topics": [
            "0xc7f505b2f371ae2175ee4913f4499e1f2633a7b5936321eed1cdaeb6115181d2"
          ],
          "data": "0x0000000000000000000000000000000000000000000000000000000000000001",
          "blockHash": "0xb559eb8dfab4e8f858fa4587e8d8c4dda923a1467a2d5815642ab0690a7eca40",
          "blockNumber": "0x28b84ae",
          "blockTimestamp": "0x6a2a683c",
          "transactionHash": "0xa512fb67f1fa701dedf6fc3b50cbab5526604b3bd228e553e43b55c56f9ca7b2",
          "transactionIndex": "0x3",
          "logIndex": "0xa",
          "removed": false
        },
        {
          "address": "0xd1d9b68abf37d5ee3b8de9b9dad03e527648bbe9",
          "topics": [
            "0x8be0079c531659141344cd1fd0a4f28419497f9722a3daafe3b4186f6b6457e0",
            "0x0000000000000000000000000000000000000000000000000000000000000000",
            "0x000000000000000000000000ff6bdef4fb646ee44e29fe8fc0862b02f0ba8a33"
          ],
          "data": "0x",
          "blockHash": "0xb559eb8dfab4e8f858fa4587e8d8c4dda923a1467a2d5815642ab0690a7eca40",
          "blockNumber": "0x28b84ae",
          "blockTimestamp": "0x6a2a683c",
          "transactionHash": "0xa512fb67f1fa701dedf6fc3b50cbab5526604b3bd228e553e43b55c56f9ca7b2",
          "transactionIndex": "0x3",
          "logIndex": "0xb",
          "removed": false
        },
        {
          "address": "0x442f66280c4353b5bdbc7b8d01c363bd08e87fae",
          "topics": [
            "0x7e644d79422f17c01e4894b5f4f588d331ebfa28653d42ae832dc59e38c9798f"
          ],
          "data": "0x0000000000000000000000000000000000000000000000000000000000000000000000000000000000000000d1d9b68abf37d5ee3b8de9b9dad03e527648bbe9",
          "blockHash": "0xb559eb8dfab4e8f858fa4587e8d8c4dda923a1467a2d5815642ab0690a7eca40",
          "blockNumber": "0x28b84ae",
          "blockTimestamp": "0x6a2a683c",
          "transactionHash": "0xa512fb67f1fa701dedf6fc3b50cbab5526604b3bd228e553e43b55c56f9ca7b2",
          "transactionIndex": "0x3",
          "logIndex": "0xc",
          "removed": false
        },
        {
          "address": "0x796eb68ba71ee5d035df906c4057e0bfc17c1182",
          "topics": [
            "0xbc7cd75a20ee27fd9adebab32041f755214dbc6bffa90cc0225b39da2e5c2d3b",
            "0x000000000000000000000000f8aa824c02596c7f3edbe487d5602389d8d955b7"
          ],
          "data": "0x",
          "blockHash": "0xb559eb8dfab4e8f858fa4587e8d8c4dda923a1467a2d5815642ab0690a7eca40",
          "blockNumber": "0x28b84ae",
          "blockTimestamp": "0x6a2a683c",
          "transactionHash": "0xa512fb67f1fa701dedf6fc3b50cbab5526604b3bd228e553e43b55c56f9ca7b2",
          "transactionIndex": "0x3",
          "logIndex": "0xd",
          "removed": false
        },
        {
          "address": "0x796eb68ba71ee5d035df906c4057e0bfc17c1182",
          "topics": [
            "0xc7f505b2f371ae2175ee4913f4499e1f2633a7b5936321eed1cdaeb6115181d2"
          ],
          "data": "0x0000000000000000000000000000000000000000000000000000000000000001",
          "blockHash": "0xb559eb8dfab4e8f858fa4587e8d8c4dda923a1467a2d5815642ab0690a7eca40",
          "blockNumber": "0x28b84ae",
          "blockTimestamp": "0x6a2a683c",
          "transactionHash": "0xa512fb67f1fa701dedf6fc3b50cbab5526604b3bd228e553e43b55c56f9ca7b2",
          "transactionIndex": "0x3",
          "logIndex": "0xe",
          "removed": false
        },
        {
          "address": "0x691b43e07b45b89d19036b78af2001c25abfdee5",
          "topics": [
            "0x8be0079c531659141344cd1fd0a4f28419497f9722a3daafe3b4186f6b6457e0",
            "0x0000000000000000000000000000000000000000000000000000000000000000",
            "0x000000000000000000000000ff6bdef4fb646ee44e29fe8fc0862b02f0ba8a33"
          ],
          "data": "0x",
          "blockHash": "0xb559eb8dfab4e8f858fa4587e8d8c4dda923a1467a2d5815642ab0690a7eca40",
          "blockNumber": "0x28b84ae",
          "blockTimestamp": "0x6a2a683c",
          "transactionHash": "0xa512fb67f1fa701dedf6fc3b50cbab5526604b3bd228e553e43b55c56f9ca7b2",
          "transactionIndex": "0x3",
          "logIndex": "0xf",
          "removed": false
        },
        {
          "address": "0x796eb68ba71ee5d035df906c4057e0bfc17c1182",
          "topics": [
            "0x7e644d79422f17c01e4894b5f4f588d331ebfa28653d42ae832dc59e38c9798f"
          ],
          "data": "0x0000000000000000000000000000000000000000000000000000000000000000000000000000000000000000691b43e07b45b89d19036b78af2001c25abfdee5",
          "blockHash": "0xb559eb8dfab4e8f858fa4587e8d8c4dda923a1467a2d5815642ab0690a7eca40",
          "blockNumber": "0x28b84ae",
          "blockTimestamp": "0x6a2a683c",
          "transactionHash": "0xa512fb67f1fa701dedf6fc3b50cbab5526604b3bd228e553e43b55c56f9ca7b2",
          "transactionIndex": "0x3",
          "logIndex": "0x10",
          "removed": false
        },
        {
          "address": "0xc85facbe35d038c040bbcc8266e518020d6564ca",
          "topics": [
            "0xbc7cd75a20ee27fd9adebab32041f755214dbc6bffa90cc0225b39da2e5c2d3b",
            "0x000000000000000000000000a2bc85c0e4440da0a0e5edfa047ccae207b5ea14"
          ],
          "data": "0x",
          "blockHash": "0xb559eb8dfab4e8f858fa4587e8d8c4dda923a1467a2d5815642ab0690a7eca40",
          "blockNumber": "0x28b84ae",
          "blockTimestamp": "0x6a2a683c",
          "transactionHash": "0xa512fb67f1fa701dedf6fc3b50cbab5526604b3bd228e553e43b55c56f9ca7b2",
          "transactionIndex": "0x3",
          "logIndex": "0x11",
          "removed": false
        },
        {
          "address": "0xc85facbe35d038c040bbcc8266e518020d6564ca",
          "topics": [
            "0xc7f505b2f371ae2175ee4913f4499e1f2633a7b5936321eed1cdaeb6115181d2"
          ],
          "data": "0x0000000000000000000000000000000000000000000000000000000000000001",
          "blockHash": "0xb559eb8dfab4e8f858fa4587e8d8c4dda923a1467a2d5815642ab0690a7eca40",
          "blockNumber": "0x28b84ae",
          "blockTimestamp": "0x6a2a683c",
          "transactionHash": "0xa512fb67f1fa701dedf6fc3b50cbab5526604b3bd228e553e43b55c56f9ca7b2",
          "transactionIndex": "0x3",
          "logIndex": "0x12",
          "removed": false
        },
        {
          "address": "0xd33e7873d2be4df7a08faf666f360cbe6bc7e4d1",
          "topics": [
            "0x8be0079c531659141344cd1fd0a4f28419497f9722a3daafe3b4186f6b6457e0",
            "0x0000000000000000000000000000000000000000000000000000000000000000",
            "0x000000000000000000000000ff6bdef4fb646ee44e29fe8fc0862b02f0ba8a33"
          ],
          "data": "0x",
          "blockHash": "0xb559eb8dfab4e8f858fa4587e8d8c4dda923a1467a2d5815642ab0690a7eca40",
          "blockNumber": "0x28b84ae",
          "blockTimestamp": "0x6a2a683c",
          "transactionHash": "0xa512fb67f1fa701dedf6fc3b50cbab5526604b3bd228e553e43b55c56f9ca7b2",
          "transactionIndex": "0x3",
          "logIndex": "0x13",
          "removed": false
        },
        {
          "address": "0xc85facbe35d038c040bbcc8266e518020d6564ca",
          "topics": [
            "0x7e644d79422f17c01e4894b5f4f588d331ebfa28653d42ae832dc59e38c9798f"
          ],
          "data": "0x0000000000000000000000000000000000000000000000000000000000000000000000000000000000000000d33e7873d2be4df7a08faf666f360cbe6bc7e4d1",
          "blockHash": "0xb559eb8dfab4e8f858fa4587e8d8c4dda923a1467a2d5815642ab0690a7eca40",
          "blockNumber": "0x28b84ae",
          "blockTimestamp": "0x6a2a683c",
          "transactionHash": "0xa512fb67f1fa701dedf6fc3b50cbab5526604b3bd228e553e43b55c56f9ca7b2",
          "transactionIndex": "0x3",
          "logIndex": "0x14",
          "removed": false
        },
        {
          "address": "0x067fe0cb0769a579235512f9b2b3cd7a47019658",
          "topics": [
            "0xbc7cd75a20ee27fd9adebab32041f755214dbc6bffa90cc0225b39da2e5c2d3b",
            "0x000000000000000000000000d8ed0d2bc7b9a30f4073bc0c11e60d6eae083d6f"
          ],
          "data": "0x",
          "blockHash": "0xb559eb8dfab4e8f858fa4587e8d8c4dda923a1467a2d5815642ab0690a7eca40",
          "blockNumber": "0x28b84ae",
          "blockTimestamp": "0x6a2a683c",
          "transactionHash": "0xa512fb67f1fa701dedf6fc3b50cbab5526604b3bd228e553e43b55c56f9ca7b2",
          "transactionIndex": "0x3",
          "logIndex": "0x15",
          "removed": false
        },
        {
          "address": "0x067fe0cb0769a579235512f9b2b3cd7a47019658",
          "topics": [
            "0xc7f505b2f371ae2175ee4913f4499e1f2633a7b5936321eed1cdaeb6115181d2"
          ],
          "data": "0x0000000000000000000000000000000000000000000000000000000000000001",
          "blockHash": "0xb559eb8dfab4e8f858fa4587e8d8c4dda923a1467a2d5815642ab0690a7eca40",
          "blockNumber": "0x28b84ae",
          "blockTimestamp": "0x6a2a683c",
          "transactionHash": "0xa512fb67f1fa701dedf6fc3b50cbab5526604b3bd228e553e43b55c56f9ca7b2",
          "transactionIndex": "0x3",
          "logIndex": "0x16",
          "removed": false
        },
        {
          "address": "0xb88aa797d19768579e17fcaf92c1092480196828",
          "topics": [
            "0x8be0079c531659141344cd1fd0a4f28419497f9722a3daafe3b4186f6b6457e0",
            "0x0000000000000000000000000000000000000000000000000000000000000000",
            "0x000000000000000000000000ff6bdef4fb646ee44e29fe8fc0862b02f0ba8a33"
          ],
          "data": "0x",
          "blockHash": "0xb559eb8dfab4e8f858fa4587e8d8c4dda923a1467a2d5815642ab0690a7eca40",
          "blockNumber": "0x28b84ae",
          "blockTimestamp": "0x6a2a683c",
          "transactionHash": "0xa512fb67f1fa701dedf6fc3b50cbab5526604b3bd228e553e43b55c56f9ca7b2",
          "transactionIndex": "0x3",
          "logIndex": "0x17",
          "removed": false
        },
        {
          "address": "0x067fe0cb0769a579235512f9b2b3cd7a47019658",
          "topics": [
            "0x7e644d79422f17c01e4894b5f4f588d331ebfa28653d42ae832dc59e38c9798f"
          ],
          "data": "0x0000000000000000000000000000000000000000000000000000000000000000000000000000000000000000b88aa797d19768579e17fcaf92c1092480196828",
          "blockHash": "0xb559eb8dfab4e8f858fa4587e8d8c4dda923a1467a2d5815642ab0690a7eca40",
          "blockNumber": "0x28b84ae",
          "blockTimestamp": "0x6a2a683c",
          "transactionHash": "0xa512fb67f1fa701dedf6fc3b50cbab5526604b3bd228e553e43b55c56f9ca7b2",
          "transactionIndex": "0x3",
          "logIndex": "0x18",
          "removed": false
        },
        {
          "address": "0xb2ae1c8f4461fafd3af0db9e5bdc5ce89316e080",
          "topics": [
            "0xe4820932fb8bfeb1d651397e57975ed0c2c8652dbf3cea72ffcb6007744d256f",
            "0xa04e266000000000000000000000000000000000000000000000000000000000",
            "0xc472767d72fba4fcee7061e2ac39a16f5573eb47987e601e2298bc318921f04b"
          ],
          "data": "0x",
          "blockHash": "0xb559eb8dfab4e8f858fa4587e8d8c4dda923a1467a2d5815642ab0690a7eca40",
          "blockNumber": "0x28b84ae",
          "blockTimestamp": "0x6a2a683c",
          "transactionHash": "0xa512fb67f1fa701dedf6fc3b50cbab5526604b3bd228e553e43b55c56f9ca7b2",
          "transactionIndex": "0x3",
          "logIndex": "0x19",
          "removed": false
        },
        {
          "address": "0xb2ae1c8f4461fafd3af0db9e5bdc5ce89316e080",
          "topics": [
            "0xe4820932fb8bfeb1d651397e57975ed0c2c8652dbf3cea72ffcb6007744d256f",
            "0x666033e600000000000000000000000000000000000000000000000000000000",
            "0xc472767d72fba4fcee7061e2ac39a16f5573eb47987e601e2298bc318921f04b"
          ],
          "data": "0x",
          "blockHash": "0xb559eb8dfab4e8f858fa4587e8d8c4dda923a1467a2d5815642ab0690a7eca40",
          "blockNumber": "0x28b84ae",
          "blockTimestamp": "0x6a2a683c",
          "transactionHash": "0xa512fb67f1fa701dedf6fc3b50cbab5526604b3bd228e553e43b55c56f9ca7b2",
          "transactionIndex": "0x3",
          "logIndex": "0x1a",
          "removed": false
        },
        {
          "address": "0xb2ae1c8f4461fafd3af0db9e5bdc5ce89316e080",
          "topics": [
            "0xe4820932fb8bfeb1d651397e57975ed0c2c8652dbf3cea72ffcb6007744d256f",
            "0xd8134a2300000000000000000000000000000000000000000000000000000000",
            "0xc472767d72fba4fcee7061e2ac39a16f5573eb47987e601e2298bc318921f04b"
          ],
          "data": "0x",
          "blockHash": "0xb559eb8dfab4e8f858fa4587e8d8c4dda923a1467a2d5815642ab0690a7eca40",
          "blockNumber": "0x28b84ae",
          "blockTimestamp": "0x6a2a683c",
          "transactionHash": "0xa512fb67f1fa701dedf6fc3b50cbab5526604b3bd228e553e43b55c56f9ca7b2",
          "transactionIndex": "0x3",
          "logIndex": "0x1b",
          "removed": false
        },
        {
          "address": "0xb2ae1c8f4461fafd3af0db9e5bdc5ce89316e080",
          "topics": [
            "0xe4820932fb8bfeb1d651397e57975ed0c2c8652dbf3cea72ffcb6007744d256f",
            "0xcce7ec1300000000000000000000000000000000000000000000000000000000",
            "0xc472767d72fba4fcee7061e2ac39a16f5573eb47987e601e2298bc318921f04b"
          ],
          "data": "0x",
          "blockHash": "0xb559eb8dfab4e8f858fa4587e8d8c4dda923a1467a2d5815642ab0690a7eca40",
          "blockNumber": "0x28b84ae",
          "blockTimestamp": "0x6a2a683c",
          "transactionHash": "0xa512fb67f1fa701dedf6fc3b50cbab5526604b3bd228e553e43b55c56f9ca7b2",
          "transactionIndex": "0x3",
          "logIndex": "0x1c",
          "removed": false
        },
        {
          "address": "0xb2ae1c8f4461fafd3af0db9e5bdc5ce89316e080",
          "topics": [
            "0xe4820932fb8bfeb1d651397e57975ed0c2c8652dbf3cea72ffcb6007744d256f",
            "0xad5d4bc500000000000000000000000000000000000000000000000000000000",
            "0xc472767d72fba4fcee7061e2ac39a16f5573eb47987e601e2298bc318921f04b"
          ],
          "data": "0x",
          "blockHash": "0xb559eb8dfab4e8f858fa4587e8d8c4dda923a1467a2d5815642ab0690a7eca40",
          "blockNumber": "0x28b84ae",
          "blockTimestamp": "0x6a2a683c",
          "transactionHash": "0xa512fb67f1fa701dedf6fc3b50cbab5526604b3bd228e553e43b55c56f9ca7b2",
          "transactionIndex": "0x3",
          "logIndex": "0x1d",
          "removed": false
        },
        {
          "address": "0xb2ae1c8f4461fafd3af0db9e5bdc5ce89316e080",
          "topics": [
            "0xe4820932fb8bfeb1d651397e57975ed0c2c8652dbf3cea72ffcb6007744d256f",
            "0x9cbc0c9000000000000000000000000000000000000000000000000000000000",
            "0xc472767d72fba4fcee7061e2ac39a16f5573eb47987e601e2298bc318921f04b"
          ],
          "data": "0x",
          "blockHash": "0xb559eb8dfab4e8f858fa4587e8d8c4dda923a1467a2d5815642ab0690a7eca40",
          "blockNumber": "0x28b84ae",
          "blockTimestamp": "0x6a2a683c",
          "transactionHash": "0xa512fb67f1fa701dedf6fc3b50cbab5526604b3bd228e553e43b55c56f9ca7b2",
          "transactionIndex": "0x3",
          "logIndex": "0x1e",
          "removed": false
        },
        {
          "address": "0xb2ae1c8f4461fafd3af0db9e5bdc5ce89316e080",
          "topics": [
            "0xe4820932fb8bfeb1d651397e57975ed0c2c8652dbf3cea72ffcb6007744d256f",
            "0xe7fa35ea00000000000000000000000000000000000000000000000000000000",
            "0xc472767d72fba4fcee7061e2ac39a16f5573eb47987e601e2298bc318921f04b"
          ],
          "data": "0x",
          "blockHash": "0xb559eb8dfab4e8f858fa4587e8d8c4dda923a1467a2d5815642ab0690a7eca40",
          "blockNumber": "0x28b84ae",
          "blockTimestamp": "0x6a2a683c",
          "transactionHash": "0xa512fb67f1fa701dedf6fc3b50cbab5526604b3bd228e553e43b55c56f9ca7b2",
          "transactionIndex": "0x3",
          "logIndex": "0x1f",
          "removed": false
        },
        {
          "address": "0xb2ae1c8f4461fafd3af0db9e5bdc5ce89316e080",
          "topics": [
            "0xe4820932fb8bfeb1d651397e57975ed0c2c8652dbf3cea72ffcb6007744d256f",
            "0xfb3e6f2900000000000000000000000000000000000000000000000000000000",
            "0xc472767d72fba4fcee7061e2ac39a16f5573eb47987e601e2298bc318921f04b"
          ],
          "data": "0x",
          "blockHash": "0xb559eb8dfab4e8f858fa4587e8d8c4dda923a1467a2d5815642ab0690a7eca40",
          "blockNumber": "0x28b84ae",
          "blockTimestamp": "0x6a2a683c",
          "transactionHash": "0xa512fb67f1fa701dedf6fc3b50cbab5526604b3bd228e553e43b55c56f9ca7b2",
          "transactionIndex": "0x3",
          "logIndex": "0x20",
          "removed": false
        },
        {
          "address": "0xb2ae1c8f4461fafd3af0db9e5bdc5ce89316e080",
          "topics": [
            "0xe4820932fb8bfeb1d651397e57975ed0c2c8652dbf3cea72ffcb6007744d256f",
            "0xea12e9b600000000000000000000000000000000000000000000000000000000",
            "0xc472767d72fba4fcee7061e2ac39a16f5573eb47987e601e2298bc318921f04b"
          ],
          "data": "0x",
          "blockHash": "0xb559eb8dfab4e8f858fa4587e8d8c4dda923a1467a2d5815642ab0690a7eca40",
          "blockNumber": "0x28b84ae",
          "blockTimestamp": "0x6a2a683c",
          "transactionHash": "0xa512fb67f1fa701dedf6fc3b50cbab5526604b3bd228e553e43b55c56f9ca7b2",
          "transactionIndex": "0x3",
          "logIndex": "0x21",
          "removed": false
        },
        {
          "address": "0xb2ae1c8f4461fafd3af0db9e5bdc5ce89316e080",
          "topics": [
            "0xe4820932fb8bfeb1d651397e57975ed0c2c8652dbf3cea72ffcb6007744d256f",
            "0xf5d8790400000000000000000000000000000000000000000000000000000000",
            "0xc472767d72fba4fcee7061e2ac39a16f5573eb47987e601e2298bc318921f04b"
          ],
          "data": "0x",
          "blockHash": "0xb559eb8dfab4e8f858fa4587e8d8c4dda923a1467a2d5815642ab0690a7eca40",
          "blockNumber": "0x28b84ae",
          "blockTimestamp": "0x6a2a683c",
          "transactionHash": "0xa512fb67f1fa701dedf6fc3b50cbab5526604b3bd228e553e43b55c56f9ca7b2",
          "transactionIndex": "0x3",
          "logIndex": "0x22",
          "removed": false
        },
        {
          "address": "0xb2ae1c8f4461fafd3af0db9e5bdc5ce89316e080",
          "topics": [
            "0xe4820932fb8bfeb1d651397e57975ed0c2c8652dbf3cea72ffcb6007744d256f",
            "0xae3b748d00000000000000000000000000000000000000000000000000000000",
            "0xc472767d72fba4fcee7061e2ac39a16f5573eb47987e601e2298bc318921f04b"
          ],
          "data": "0x",
          "blockHash": "0xb559eb8dfab4e8f858fa4587e8d8c4dda923a1467a2d5815642ab0690a7eca40",
          "blockNumber": "0x28b84ae",
          "blockTimestamp": "0x6a2a683c",
          "transactionHash": "0xa512fb67f1fa701dedf6fc3b50cbab5526604b3bd228e553e43b55c56f9ca7b2",
          "transactionIndex": "0x3",
          "logIndex": "0x23",
          "removed": false
        },
        {
          "address": "0xb2ae1c8f4461fafd3af0db9e5bdc5ce89316e080",
          "topics": [
            "0xe4820932fb8bfeb1d651397e57975ed0c2c8652dbf3cea72ffcb6007744d256f",
            "0x763265de00000000000000000000000000000000000000000000000000000000",
            "0xc472767d72fba4fcee7061e2ac39a16f5573eb47987e601e2298bc318921f04b"
          ],
          "data": "0x",
          "blockHash": "0xb559eb8dfab4e8f858fa4587e8d8c4dda923a1467a2d5815642ab0690a7eca40",
          "blockNumber": "0x28b84ae",
          "blockTimestamp": "0x6a2a683c",
          "transactionHash": "0xa512fb67f1fa701dedf6fc3b50cbab5526604b3bd228e553e43b55c56f9ca7b2",
          "transactionIndex": "0x3",
          "logIndex": "0x24",
          "removed": false
        },
        {
          "address": "0xb2ae1c8f4461fafd3af0db9e5bdc5ce89316e080",
          "topics": [
            "0xe4820932fb8bfeb1d651397e57975ed0c2c8652dbf3cea72ffcb6007744d256f",
            "0xb5ac48a000000000000000000000000000000000000000000000000000000000",
            "0xc472767d72fba4fcee7061e2ac39a16f5573eb47987e601e2298bc318921f04b"
          ],
          "data": "0x",
          "blockHash": "0xb559eb8dfab4e8f858fa4587e8d8c4dda923a1467a2d5815642ab0690a7eca40",
          "blockNumber": "0x28b84ae",
          "blockTimestamp": "0x6a2a683c",
          "transactionHash": "0xa512fb67f1fa701dedf6fc3b50cbab5526604b3bd228e553e43b55c56f9ca7b2",
          "transactionIndex": "0x3",
          "logIndex": "0x25",
          "removed": false
        },
        {
          "address": "0xb2ae1c8f4461fafd3af0db9e5bdc5ce89316e080",
          "topics": [
            "0xe4820932fb8bfeb1d651397e57975ed0c2c8652dbf3cea72ffcb6007744d256f",
            "0x449e815d00000000000000000000000000000000000000000000000000000000",
            "0xc472767d72fba4fcee7061e2ac39a16f5573eb47987e601e2298bc318921f04b"
          ],
          "data": "0x",
          "blockHash": "0xb559eb8dfab4e8f858fa4587e8d8c4dda923a1467a2d5815642ab0690a7eca40",
          "blockNumber": "0x28b84ae",
          "blockTimestamp": "0x6a2a683c",
          "transactionHash": "0xa512fb67f1fa701dedf6fc3b50cbab5526604b3bd228e553e43b55c56f9ca7b2",
          "transactionIndex": "0x3",
          "logIndex": "0x26",
          "removed": false
        },
        {
          "address": "0xb2ae1c8f4461fafd3af0db9e5bdc5ce89316e080",
          "topics": [
            "0xe4820932fb8bfeb1d651397e57975ed0c2c8652dbf3cea72ffcb6007744d256f",
            "0x2f75700600000000000000000000000000000000000000000000000000000000",
            "0xc472767d72fba4fcee7061e2ac39a16f5573eb47987e601e2298bc318921f04b"
          ],
          "data": "0x",
          "blockHash": "0xb559eb8dfab4e8f858fa4587e8d8c4dda923a1467a2d5815642ab0690a7eca40",
          "blockNumber": "0x28b84ae",
          "blockTimestamp": "0x6a2a683c",
          "transactionHash": "0xa512fb67f1fa701dedf6fc3b50cbab5526604b3bd228e553e43b55c56f9ca7b2",
          "transactionIndex": "0x3",
          "logIndex": "0x27",
          "removed": false
        },
        {
          "address": "0xb2ae1c8f4461fafd3af0db9e5bdc5ce89316e080",
          "topics": [
            "0xe4820932fb8bfeb1d651397e57975ed0c2c8652dbf3cea72ffcb6007744d256f",
            "0x0bec101c00000000000000000000000000000000000000000000000000000000",
            "0xc472767d72fba4fcee7061e2ac39a16f5573eb47987e601e2298bc318921f04b"
          ],
          "data": "0x",
          "blockHash": "0xb559eb8dfab4e8f858fa4587e8d8c4dda923a1467a2d5815642ab0690a7eca40",
          "blockNumber": "0x28b84ae",
          "blockTimestamp": "0x6a2a683c",
          "transactionHash": "0xa512fb67f1fa701dedf6fc3b50cbab5526604b3bd228e553e43b55c56f9ca7b2",
          "transactionIndex": "0x3",
          "logIndex": "0x28",
          "removed": false
        },
        {
          "address": "0xb2ae1c8f4461fafd3af0db9e5bdc5ce89316e080",
          "topics": [
            "0xe4820932fb8bfeb1d651397e57975ed0c2c8652dbf3cea72ffcb6007744d256f",
            "0xfe136c4e00000000000000000000000000000000000000000000000000000000",
            "0xc472767d72fba4fcee7061e2ac39a16f5573eb47987e601e2298bc318921f04b"
          ],
          "data": "0x",
          "blockHash": "0xb559eb8dfab4e8f858fa4587e8d8c4dda923a1467a2d5815642ab0690a7eca40",
          "blockNumber": "0x28b84ae",
          "blockTimestamp": "0x6a2a683c",
          "transactionHash": "0xa512fb67f1fa701dedf6fc3b50cbab5526604b3bd228e553e43b55c56f9ca7b2",
          "transactionIndex": "0x3",
          "logIndex": "0x29",
          "removed": false
        },
        {
          "address": "0xb2ae1c8f4461fafd3af0db9e5bdc5ce89316e080",
          "topics": [
            "0xe4820932fb8bfeb1d651397e57975ed0c2c8652dbf3cea72ffcb6007744d256f",
            "0x7b1b1de600000000000000000000000000000000000000000000000000000000",
            "0xc472767d72fba4fcee7061e2ac39a16f5573eb47987e601e2298bc318921f04b"
          ],
          "data": "0x",
          "blockHash": "0xb559eb8dfab4e8f858fa4587e8d8c4dda923a1467a2d5815642ab0690a7eca40",
          "blockNumber": "0x28b84ae",
          "blockTimestamp": "0x6a2a683c",
          "transactionHash": "0xa512fb67f1fa701dedf6fc3b50cbab5526604b3bd228e553e43b55c56f9ca7b2",
          "transactionIndex": "0x3",
          "logIndex": "0x2a",
          "removed": false
        },
        {
          "address": "0xb2ae1c8f4461fafd3af0db9e5bdc5ce89316e080",
          "topics": [
            "0xe4820932fb8bfeb1d651397e57975ed0c2c8652dbf3cea72ffcb6007744d256f",
            "0x3fa615b000000000000000000000000000000000000000000000000000000000",
            "0xc472767d72fba4fcee7061e2ac39a16f5573eb47987e601e2298bc318921f04b"
          ],
          "data": "0x",
          "blockHash": "0xb559eb8dfab4e8f858fa4587e8d8c4dda923a1467a2d5815642ab0690a7eca40",
          "blockNumber": "0x28b84ae",
          "blockTimestamp": "0x6a2a683c",
          "transactionHash": "0xa512fb67f1fa701dedf6fc3b50cbab5526604b3bd228e553e43b55c56f9ca7b2",
          "transactionIndex": "0x3",
          "logIndex": "0x2b",
          "removed": false
        },
        {
          "address": "0xb2ae1c8f4461fafd3af0db9e5bdc5ce89316e080",
          "topics": [
            "0xe4820932fb8bfeb1d651397e57975ed0c2c8652dbf3cea72ffcb6007744d256f",
            "0x23548b8b00000000000000000000000000000000000000000000000000000000",
            "0xc472767d72fba4fcee7061e2ac39a16f5573eb47987e601e2298bc318921f04b"
          ],
          "data": "0x",
          "blockHash": "0xb559eb8dfab4e8f858fa4587e8d8c4dda923a1467a2d5815642ab0690a7eca40",
          "blockNumber": "0x28b84ae",
          "blockTimestamp": "0x6a2a683c",
          "transactionHash": "0xa512fb67f1fa701dedf6fc3b50cbab5526604b3bd228e553e43b55c56f9ca7b2",
          "transactionIndex": "0x3",
          "logIndex": "0x2c",
          "removed": false
        },
        {
          "address": "0xb2ae1c8f4461fafd3af0db9e5bdc5ce89316e080",
          "topics": [
            "0xe4820932fb8bfeb1d651397e57975ed0c2c8652dbf3cea72ffcb6007744d256f",
            "0x796b23bb00000000000000000000000000000000000000000000000000000000",
            "0xc472767d72fba4fcee7061e2ac39a16f5573eb47987e601e2298bc318921f04b"
          ],
          "data": "0x",
          "blockHash": "0xb559eb8dfab4e8f858fa4587e8d8c4dda923a1467a2d5815642ab0690a7eca40",
          "blockNumber": "0x28b84ae",
          "blockTimestamp": "0x6a2a683c",
          "transactionHash": "0xa512fb67f1fa701dedf6fc3b50cbab5526604b3bd228e553e43b55c56f9ca7b2",
          "transactionIndex": "0x3",
          "logIndex": "0x2d",
          "removed": false
        },
        {
          "address": "0xb2ae1c8f4461fafd3af0db9e5bdc5ce89316e080",
          "topics": [
            "0xe4820932fb8bfeb1d651397e57975ed0c2c8652dbf3cea72ffcb6007744d256f",
            "0xe76c590800000000000000000000000000000000000000000000000000000000",
            "0xc472767d72fba4fcee7061e2ac39a16f5573eb47987e601e2298bc318921f04b"
          ],
          "data": "0x",
          "blockHash": "0xb559eb8dfab4e8f858fa4587e8d8c4dda923a1467a2d5815642ab0690a7eca40",
          "blockNumber": "0x28b84ae",
          "blockTimestamp": "0x6a2a683c",
          "transactionHash": "0xa512fb67f1fa701dedf6fc3b50cbab5526604b3bd228e553e43b55c56f9ca7b2",
          "transactionIndex": "0x3",
          "logIndex": "0x2e",
          "removed": false
        },
        {
          "address": "0xb2ae1c8f4461fafd3af0db9e5bdc5ce89316e080",
          "topics": [
            "0xe4820932fb8bfeb1d651397e57975ed0c2c8652dbf3cea72ffcb6007744d256f",
            "0x1c1e04ac00000000000000000000000000000000000000000000000000000000",
            "0xc472767d72fba4fcee7061e2ac39a16f5573eb47987e601e2298bc318921f04b"
          ],
          "data": "0x",
          "blockHash": "0xb559eb8dfab4e8f858fa4587e8d8c4dda923a1467a2d5815642ab0690a7eca40",
          "blockNumber": "0x28b84ae",
          "blockTimestamp": "0x6a2a683c",
          "transactionHash": "0xa512fb67f1fa701dedf6fc3b50cbab5526604b3bd228e553e43b55c56f9ca7b2",
          "transactionIndex": "0x3",
          "logIndex": "0x2f",
          "removed": false
        },
        {
          "address": "0xb2ae1c8f4461fafd3af0db9e5bdc5ce89316e080",
          "topics": [
            "0xe4820932fb8bfeb1d651397e57975ed0c2c8652dbf3cea72ffcb6007744d256f",
            "0x771282f600000000000000000000000000000000000000000000000000000000",
            "0xc472767d72fba4fcee7061e2ac39a16f5573eb47987e601e2298bc318921f04b"
          ],
          "data": "0x",
          "blockHash": "0xb559eb8dfab4e8f858fa4587e8d8c4dda923a1467a2d5815642ab0690a7eca40",
          "blockNumber": "0x28b84ae",
          "blockTimestamp": "0x6a2a683c",
          "transactionHash": "0xa512fb67f1fa701dedf6fc3b50cbab5526604b3bd228e553e43b55c56f9ca7b2",
          "transactionIndex": "0x3",
          "logIndex": "0x30",
          "removed": false
        },
        {
          "address": "0xb2ae1c8f4461fafd3af0db9e5bdc5ce89316e080",
          "topics": [
            "0xe4820932fb8bfeb1d651397e57975ed0c2c8652dbf3cea72ffcb6007744d256f",
            "0x6b98f83500000000000000000000000000000000000000000000000000000000",
            "0xc472767d72fba4fcee7061e2ac39a16f5573eb47987e601e2298bc318921f04b"
          ],
          "data": "0x",
          "blockHash": "0xb559eb8dfab4e8f858fa4587e8d8c4dda923a1467a2d5815642ab0690a7eca40",
          "blockNumber": "0x28b84ae",
          "blockTimestamp": "0x6a2a683c",
          "transactionHash": "0xa512fb67f1fa701dedf6fc3b50cbab5526604b3bd228e553e43b55c56f9ca7b2",
          "transactionIndex": "0x3",
          "logIndex": "0x31",
          "removed": false
        },
        {
          "address": "0xb2ae1c8f4461fafd3af0db9e5bdc5ce89316e080",
          "topics": [
            "0xe4820932fb8bfeb1d651397e57975ed0c2c8652dbf3cea72ffcb6007744d256f",
            "0xa36c415600000000000000000000000000000000000000000000000000000000",
            "0xc472767d72fba4fcee7061e2ac39a16f5573eb47987e601e2298bc318921f04b"
          ],
          "data": "0x",
          "blockHash": "0xb559eb8dfab4e8f858fa4587e8d8c4dda923a1467a2d5815642ab0690a7eca40",
          "blockNumber": "0x28b84ae",
          "blockTimestamp": "0x6a2a683c",
          "transactionHash": "0xa512fb67f1fa701dedf6fc3b50cbab5526604b3bd228e553e43b55c56f9ca7b2",
          "transactionIndex": "0x3",
          "logIndex": "0x32",
          "removed": false
        },
        {
          "address": "0xb2ae1c8f4461fafd3af0db9e5bdc5ce89316e080",
          "topics": [
            "0xe4820932fb8bfeb1d651397e57975ed0c2c8652dbf3cea72ffcb6007744d256f",
            "0xf8dfe6ca00000000000000000000000000000000000000000000000000000000",
            "0xc472767d72fba4fcee7061e2ac39a16f5573eb47987e601e2298bc318921f04b"
          ],
          "data": "0x",
          "blockHash": "0xb559eb8dfab4e8f858fa4587e8d8c4dda923a1467a2d5815642ab0690a7eca40",
          "blockNumber": "0x28b84ae",
          "blockTimestamp": "0x6a2a683c",
          "transactionHash": "0xa512fb67f1fa701dedf6fc3b50cbab5526604b3bd228e553e43b55c56f9ca7b2",
          "transactionIndex": "0x3",
          "logIndex": "0x33",
          "removed": false
        },
        {
          "address": "0xb2ae1c8f4461fafd3af0db9e5bdc5ce89316e080",
          "topics": [
            "0xe4820932fb8bfeb1d651397e57975ed0c2c8652dbf3cea72ffcb6007744d256f",
            "0x912aeac900000000000000000000000000000000000000000000000000000000",
            "0xc472767d72fba4fcee7061e2ac39a16f5573eb47987e601e2298bc318921f04b"
          ],
          "data": "0x",
          "blockHash": "0xb559eb8dfab4e8f858fa4587e8d8c4dda923a1467a2d5815642ab0690a7eca40",
          "blockNumber": "0x28b84ae",
          "blockTimestamp": "0x6a2a683c",
          "transactionHash": "0xa512fb67f1fa701dedf6fc3b50cbab5526604b3bd228e553e43b55c56f9ca7b2",
          "transactionIndex": "0x3",
          "logIndex": "0x34",
          "removed": false
        },
        {
          "address": "0xb2ae1c8f4461fafd3af0db9e5bdc5ce89316e080",
          "topics": [
            "0xe4820932fb8bfeb1d651397e57975ed0c2c8652dbf3cea72ffcb6007744d256f",
            "0x6d291fe200000000000000000000000000000000000000000000000000000000",
            "0xc472767d72fba4fcee7061e2ac39a16f5573eb47987e601e2298bc318921f04b"
          ],
          "data": "0x",
          "blockHash": "0xb559eb8dfab4e8f858fa4587e8d8c4dda923a1467a2d5815642ab0690a7eca40",
          "blockNumber": "0x28b84ae",
          "blockTimestamp": "0x6a2a683c",
          "transactionHash": "0xa512fb67f1fa701dedf6fc3b50cbab5526604b3bd228e553e43b55c56f9ca7b2",
          "transactionIndex": "0x3",
          "logIndex": "0x35",
          "removed": false
        },
        {
          "address": "0xb2ae1c8f4461fafd3af0db9e5bdc5ce89316e080",
          "topics": [
            "0xc3b3bba350d426d8b0241206f22ea56f835fbcc9ade54bd871bf75a0d6c9f887",
            "0xc472767d72fba4fcee7061e2ac39a16f5573eb47987e601e2298bc318921f04b",
            "0x000000000000000000000000cea009e498be9e4cf0386bb2e66fe000a34c878f",
            "0x88e9afc607128bf3de27d7af622a7cba98b48c9d710282f9e82f9fb433935e74"
          ],
          "data": "0x00000000000000000000000000000000000000000000000000000000000000200000000000000000000000000000000000000000000000000000000000000000",
          "blockHash": "0xb559eb8dfab4e8f858fa4587e8d8c4dda923a1467a2d5815642ab0690a7eca40",
          "blockNumber": "0x28b84ae",
          "blockTimestamp": "0x6a2a683c",
          "transactionHash": "0xa512fb67f1fa701dedf6fc3b50cbab5526604b3bd228e553e43b55c56f9ca7b2",
          "transactionIndex": "0x3",
          "logIndex": "0x36",
          "removed": false
        },
        {
          "address": "0xb2ae1c8f4461fafd3af0db9e5bdc5ce89316e080",
          "topics": [
            "0x4ea5d8560836bfba61d44f4e79836932f499a1372b9668df9ba51c1a49a8d822"
          ],
          "data": "0x000000000000000000000000000000000000000000000000016345785d8a00000000000000000000000000000000000000000000000000056bc75e2d631000000000000000000000000000000000000000000000000034f086f3b33b68400000000000000000000000000000000000000000000000000000000000006a51f5220000000000000000000000000000000000000000000000000000000000093a80000000000000000000000000000000000000000000000000000000000000012c",
          "blockHash": "0xb559eb8dfab4e8f858fa4587e8d8c4dda923a1467a2d5815642ab0690a7eca40",
          "blockNumber": "0x28b84ae",
          "blockTimestamp": "0x6a2a683c",
          "transactionHash": "0xa512fb67f1fa701dedf6fc3b50cbab5526604b3bd228e553e43b55c56f9ca7b2",
          "transactionIndex": "0x3",
          "logIndex": "0x37",
          "removed": false
        },
        {
          "address": "0xb2ae1c8f4461fafd3af0db9e5bdc5ce89316e080",
          "topics": [
            "0xe4820932fb8bfeb1d651397e57975ed0c2c8652dbf3cea72ffcb6007744d256f",
            "0xa850809000000000000000000000000000000000000000000000000000000000",
            "0x8e5ea360bdeed818efd87c6f274fcdf58af90bb406d23ae98973b22658c61d20"
          ],
          "data": "0x",
          "blockHash": "0xb559eb8dfab4e8f858fa4587e8d8c4dda923a1467a2d5815642ab0690a7eca40",
          "blockNumber": "0x28b84ae",
          "blockTimestamp": "0x6a2a683c",
          "transactionHash": "0xa512fb67f1fa701dedf6fc3b50cbab5526604b3bd228e553e43b55c56f9ca7b2",
          "transactionIndex": "0x3",
          "logIndex": "0x38",
          "removed": false
        },
        {
          "address": "0xb2ae1c8f4461fafd3af0db9e5bdc5ce89316e080",
          "topics": [
            "0xe4820932fb8bfeb1d651397e57975ed0c2c8652dbf3cea72ffcb6007744d256f",
            "0xe2233cbd00000000000000000000000000000000000000000000000000000000",
            "0x8e5ea360bdeed818efd87c6f274fcdf58af90bb406d23ae98973b22658c61d20"
          ],
          "data": "0x",
          "blockHash": "0xb559eb8dfab4e8f858fa4587e8d8c4dda923a1467a2d5815642ab0690a7eca40",
          "blockNumber": "0x28b84ae",
          "blockTimestamp": "0x6a2a683c",
          "transactionHash": "0xa512fb67f1fa701dedf6fc3b50cbab5526604b3bd228e553e43b55c56f9ca7b2",
          "transactionIndex": "0x3",
          "logIndex": "0x39",
          "removed": false
        },
        {
          "address": "0xb2ae1c8f4461fafd3af0db9e5bdc5ce89316e080",
          "topics": [
            "0xe4820932fb8bfeb1d651397e57975ed0c2c8652dbf3cea72ffcb6007744d256f",
            "0xe740010f00000000000000000000000000000000000000000000000000000000",
            "0x8e5ea360bdeed818efd87c6f274fcdf58af90bb406d23ae98973b22658c61d20"
          ],
          "data": "0x",
          "blockHash": "0xb559eb8dfab4e8f858fa4587e8d8c4dda923a1467a2d5815642ab0690a7eca40",
          "blockNumber": "0x28b84ae",
          "blockTimestamp": "0x6a2a683c",
          "transactionHash": "0xa512fb67f1fa701dedf6fc3b50cbab5526604b3bd228e553e43b55c56f9ca7b2",
          "transactionIndex": "0x3",
          "logIndex": "0x3a",
          "removed": false
        },
        {
          "address": "0xb2ae1c8f4461fafd3af0db9e5bdc5ce89316e080",
          "topics": [
            "0xe4820932fb8bfeb1d651397e57975ed0c2c8652dbf3cea72ffcb6007744d256f",
            "0xffc8321700000000000000000000000000000000000000000000000000000000",
            "0x8e5ea360bdeed818efd87c6f274fcdf58af90bb406d23ae98973b22658c61d20"
          ],
          "data": "0x",
          "blockHash": "0xb559eb8dfab4e8f858fa4587e8d8c4dda923a1467a2d5815642ab0690a7eca40",
          "blockNumber": "0x28b84ae",
          "blockTimestamp": "0x6a2a683c",
          "transactionHash": "0xa512fb67f1fa701dedf6fc3b50cbab5526604b3bd228e553e43b55c56f9ca7b2",
          "transactionIndex": "0x3",
          "logIndex": "0x3b",
          "removed": false
        },
        {
          "address": "0xb2ae1c8f4461fafd3af0db9e5bdc5ce89316e080",
          "topics": [
            "0xe4820932fb8bfeb1d651397e57975ed0c2c8652dbf3cea72ffcb6007744d256f",
            "0x251f47c100000000000000000000000000000000000000000000000000000000",
            "0x8e5ea360bdeed818efd87c6f274fcdf58af90bb406d23ae98973b22658c61d20"
          ],
          "data": "0x",
          "blockHash": "0xb559eb8dfab4e8f858fa4587e8d8c4dda923a1467a2d5815642ab0690a7eca40",
          "blockNumber": "0x28b84ae",
          "blockTimestamp": "0x6a2a683c",
          "transactionHash": "0xa512fb67f1fa701dedf6fc3b50cbab5526604b3bd228e553e43b55c56f9ca7b2",
          "transactionIndex": "0x3",
          "logIndex": "0x3c",
          "removed": false
        },
        {
          "address": "0xb2ae1c8f4461fafd3af0db9e5bdc5ce89316e080",
          "topics": [
            "0xe4820932fb8bfeb1d651397e57975ed0c2c8652dbf3cea72ffcb6007744d256f",
            "0x1a63dfe000000000000000000000000000000000000000000000000000000000",
            "0x8e5ea360bdeed818efd87c6f274fcdf58af90bb406d23ae98973b22658c61d20"
          ],
          "data": "0x",
          "blockHash": "0xb559eb8dfab4e8f858fa4587e8d8c4dda923a1467a2d5815642ab0690a7eca40",
          "blockNumber": "0x28b84ae",
          "blockTimestamp": "0x6a2a683c",
          "transactionHash": "0xa512fb67f1fa701dedf6fc3b50cbab5526604b3bd228e553e43b55c56f9ca7b2",
          "transactionIndex": "0x3",
          "logIndex": "0x3d",
          "removed": false
        },
        {
          "address": "0xb2ae1c8f4461fafd3af0db9e5bdc5ce89316e080",
          "topics": [
            "0xe4820932fb8bfeb1d651397e57975ed0c2c8652dbf3cea72ffcb6007744d256f",
            "0x6d076eed00000000000000000000000000000000000000000000000000000000",
            "0x8e5ea360bdeed818efd87c6f274fcdf58af90bb406d23ae98973b22658c61d20"
          ],
          "data": "0x",
          "blockHash": "0xb559eb8dfab4e8f858fa4587e8d8c4dda923a1467a2d5815642ab0690a7eca40",
          "blockNumber": "0x28b84ae",
          "blockTimestamp": "0x6a2a683c",
          "transactionHash": "0xa512fb67f1fa701dedf6fc3b50cbab5526604b3bd228e553e43b55c56f9ca7b2",
          "transactionIndex": "0x3",
          "logIndex": "0x3e",
          "removed": false
        },
        {
          "address": "0xb2ae1c8f4461fafd3af0db9e5bdc5ce89316e080",
          "topics": [
            "0xe4820932fb8bfeb1d651397e57975ed0c2c8652dbf3cea72ffcb6007744d256f",
            "0xa95effd300000000000000000000000000000000000000000000000000000000",
            "0x8e5ea360bdeed818efd87c6f274fcdf58af90bb406d23ae98973b22658c61d20"
          ],
          "data": "0x",
          "blockHash": "0xb559eb8dfab4e8f858fa4587e8d8c4dda923a1467a2d5815642ab0690a7eca40",
          "blockNumber": "0x28b84ae",
          "blockTimestamp": "0x6a2a683c",
          "transactionHash": "0xa512fb67f1fa701dedf6fc3b50cbab5526604b3bd228e553e43b55c56f9ca7b2",
          "transactionIndex": "0x3",
          "logIndex": "0x3f",
          "removed": false
        },
        {
          "address": "0xb2ae1c8f4461fafd3af0db9e5bdc5ce89316e080",
          "topics": [
            "0xe4820932fb8bfeb1d651397e57975ed0c2c8652dbf3cea72ffcb6007744d256f",
            "0x2ae14e7600000000000000000000000000000000000000000000000000000000",
            "0x8e5ea360bdeed818efd87c6f274fcdf58af90bb406d23ae98973b22658c61d20"
          ],
          "data": "0x",
          "blockHash": "0xb559eb8dfab4e8f858fa4587e8d8c4dda923a1467a2d5815642ab0690a7eca40",
          "blockNumber": "0x28b84ae",
          "blockTimestamp": "0x6a2a683c",
          "transactionHash": "0xa512fb67f1fa701dedf6fc3b50cbab5526604b3bd228e553e43b55c56f9ca7b2",
          "transactionIndex": "0x3",
          "logIndex": "0x40",
          "removed": false
        },
        {
          "address": "0xb2ae1c8f4461fafd3af0db9e5bdc5ce89316e080",
          "topics": [
            "0xe4820932fb8bfeb1d651397e57975ed0c2c8652dbf3cea72ffcb6007744d256f",
            "0xd612873a00000000000000000000000000000000000000000000000000000000",
            "0x8e5ea360bdeed818efd87c6f274fcdf58af90bb406d23ae98973b22658c61d20"
          ],
          "data": "0x",
          "blockHash": "0xb559eb8dfab4e8f858fa4587e8d8c4dda923a1467a2d5815642ab0690a7eca40",
          "blockNumber": "0x28b84ae",
          "blockTimestamp": "0x6a2a683c",
          "transactionHash": "0xa512fb67f1fa701dedf6fc3b50cbab5526604b3bd228e553e43b55c56f9ca7b2",
          "transactionIndex": "0x3",
          "logIndex": "0x41",
          "removed": false
        },
        {
          "address": "0xb2ae1c8f4461fafd3af0db9e5bdc5ce89316e080",
          "topics": [
            "0xe4820932fb8bfeb1d651397e57975ed0c2c8652dbf3cea72ffcb6007744d256f",
            "0x6a3541c500000000000000000000000000000000000000000000000000000000",
            "0x8e5ea360bdeed818efd87c6f274fcdf58af90bb406d23ae98973b22658c61d20"
          ],
          "data": "0x",
          "blockHash": "0xb559eb8dfab4e8f858fa4587e8d8c4dda923a1467a2d5815642ab0690a7eca40",
          "blockNumber": "0x28b84ae",
          "blockTimestamp": "0x6a2a683c",
          "transactionHash": "0xa512fb67f1fa701dedf6fc3b50cbab5526604b3bd228e553e43b55c56f9ca7b2",
          "transactionIndex": "0x3",
          "logIndex": "0x42",
          "removed": false
        },
        {
          "address": "0xb2ae1c8f4461fafd3af0db9e5bdc5ce89316e080",
          "topics": [
            "0xe4820932fb8bfeb1d651397e57975ed0c2c8652dbf3cea72ffcb6007744d256f",
            "0xca343f0e00000000000000000000000000000000000000000000000000000000",
            "0x8e5ea360bdeed818efd87c6f274fcdf58af90bb406d23ae98973b22658c61d20"
          ],
          "data": "0x",
          "blockHash": "0xb559eb8dfab4e8f858fa4587e8d8c4dda923a1467a2d5815642ab0690a7eca40",
          "blockNumber": "0x28b84ae",
          "blockTimestamp": "0x6a2a683c",
          "transactionHash": "0xa512fb67f1fa701dedf6fc3b50cbab5526604b3bd228e553e43b55c56f9ca7b2",
          "transactionIndex": "0x3",
          "logIndex": "0x43",
          "removed": false
        },
        {
          "address": "0xb2ae1c8f4461fafd3af0db9e5bdc5ce89316e080",
          "topics": [
            "0xe4820932fb8bfeb1d651397e57975ed0c2c8652dbf3cea72ffcb6007744d256f",
            "0x02d40c7f00000000000000000000000000000000000000000000000000000000",
            "0x8e5ea360bdeed818efd87c6f274fcdf58af90bb406d23ae98973b22658c61d20"
          ],
          "data": "0x",
          "blockHash": "0xb559eb8dfab4e8f858fa4587e8d8c4dda923a1467a2d5815642ab0690a7eca40",
          "blockNumber": "0x28b84ae",
          "blockTimestamp": "0x6a2a683c",
          "transactionHash": "0xa512fb67f1fa701dedf6fc3b50cbab5526604b3bd228e553e43b55c56f9ca7b2",
          "transactionIndex": "0x3",
          "logIndex": "0x44",
          "removed": false
        },
        {
          "address": "0xb2ae1c8f4461fafd3af0db9e5bdc5ce89316e080",
          "topics": [
            "0xc3b3bba350d426d8b0241206f22ea56f835fbcc9ade54bd871bf75a0d6c9f887",
            "0x8e5ea360bdeed818efd87c6f274fcdf58af90bb406d23ae98973b22658c61d20",
            "0x0000000000000000000000008931f022248c92a66de12036723506c3ae77ca96",
            "0x6c793fb30246223245423ced28fc6fa7b89eea6a674b20b41c832376265edb73"
          ],
          "data": "0x00000000000000000000000000000000000000000000000000000000000000200000000000000000000000000000000000000000000000000000000000000000",
          "blockHash": "0xb559eb8dfab4e8f858fa4587e8d8c4dda923a1467a2d5815642ab0690a7eca40",
          "blockNumber": "0x28b84ae",
          "blockTimestamp": "0x6a2a683c",
          "transactionHash": "0xa512fb67f1fa701dedf6fc3b50cbab5526604b3bd228e553e43b55c56f9ca7b2",
          "transactionIndex": "0x3",
          "logIndex": "0x45",
          "removed": false
        },
        {
          "address": "0xb2ae1c8f4461fafd3af0db9e5bdc5ce89316e080",
          "topics": [
            "0x2c6cd2e637271e88bd41d11ab8103ce18ceb1d94731043fce5c8ef9316c95ddd"
          ],
          "data": "0x00000000000000000000000000000000000000000000014542ba12a337c00000000000000000000000000000000000000000000000000025f273933db570000000000000000000000000000000000000000000000000000000000000000007ee0000000000000000000000000000000000000000000000000000000000000000",
          "blockHash": "0xb559eb8dfab4e8f858fa4587e8d8c4dda923a1467a2d5815642ab0690a7eca40",
          "blockNumber": "0x28b84ae",
          "blockTimestamp": "0x6a2a683c",
          "transactionHash": "0xa512fb67f1fa701dedf6fc3b50cbab5526604b3bd228e553e43b55c56f9ca7b2",
          "transactionIndex": "0x3",
          "logIndex": "0x46",
          "removed": false
        },
        {
          "address": "0xb2ae1c8f4461fafd3af0db9e5bdc5ce89316e080",
          "topics": [
            "0x725cf1036108ee5837eb8c6e4e3d5b0e688428b7922f5f165872bc2b4b69b7b1"
          ],
          "data": "0x",
          "blockHash": "0xb559eb8dfab4e8f858fa4587e8d8c4dda923a1467a2d5815642ab0690a7eca40",
          "blockNumber": "0x28b84ae",
          "blockTimestamp": "0x6a2a683c",
          "transactionHash": "0xa512fb67f1fa701dedf6fc3b50cbab5526604b3bd228e553e43b55c56f9ca7b2",
          "transactionIndex": "0x3",
          "logIndex": "0x47",
          "removed": false
        },
        {
          "address": "0xa9d37cef4756349ad2be0023643122af16868b57",
          "topics": [
            "0xfcf599051bcc41e5a7b155a94bbdd6aaa68f954e694c5ab7bdecd3cfcf65ffad",
            "0x000000000000000000000000b2ae1c8f4461fafd3af0db9e5bdc5ce89316e080"
          ],
          "data": "0x",
          "blockHash": "0xb559eb8dfab4e8f858fa4587e8d8c4dda923a1467a2d5815642ab0690a7eca40",
          "blockNumber": "0x28b84ae",
          "blockTimestamp": "0x6a2a683c",
          "transactionHash": "0xa512fb67f1fa701dedf6fc3b50cbab5526604b3bd228e553e43b55c56f9ca7b2",
          "transactionIndex": "0x3",
          "logIndex": "0x48",
          "removed": false
        },
        {
          "address": "0xaf81c05747eda1e1715ff23626ab83c3351dcff6",
          "topics": [
            "0x3d0d0506c8fbb4fe692d4bb7a08d56876fec8ff877b533d59f460ce6e1658c69",
            "0x000000000000000000000000b2ae1c8f4461fafd3af0db9e5bdc5ce89316e080",
            "0x000000000000000000000000ff6bdef4fb646ee44e29fe8fc0862b02f0ba8a33"
          ],
          "data": "0x000000000000000000000000442f66280c4353b5bdbc7b8d01c363bd08e87fae000000000000000000000000067fe0cb0769a579235512f9b2b3cd7a47019658000000000000000000000000796eb68ba71ee5d035df906c4057e0bfc17c1182000000000000000000000000c85facbe35d038c040bbcc8266e518020d6564ca000000000000000000000000000000000000000000000000016345785d8a00000000000000000000000000000000000000000000000000056bc75e2d631000000000000000000000000000000000000000000000000034f086f3b33b68400000000000000000000000000000000000000000000000000000000000006a51f5220000000000000000000000000000000000000000000000000000000000093a800000000000000000000000000000000000000000000000000de0b6b3a7640000000000000000000000000000000000000000000000000000000000006a2a683c00000000000000000000000000000000000000000000014542ba12a337c00000000000000000000000000000000000000000000000000025f273933db570000000000000000000000000000000000000000000000000000000000000000007ee0000000000000000000000000000000000000000000000000000000000000000",
          "blockHash": "0xb559eb8dfab4e8f858fa4587e8d8c4dda923a1467a2d5815642ab0690a7eca40",
          "blockNumber": "0x28b84ae",
          "blockTimestamp": "0x6a2a683c",
          "transactionHash": "0xa512fb67f1fa701dedf6fc3b50cbab5526604b3bd228e553e43b55c56f9ca7b2",
          "transactionIndex": "0x3",
          "logIndex": "0x49",
          "removed": false
        }
      ],
      "logsBloom": "0x52080001006880000000b400000000004022090040000020008000800400a805041000010002900003225004620000000001000000000180021000490000000088d0020a0621041080800104000802408811100040000305000000000002011000800000020082400020000010c00d9002101081400016060000800000050040000080200000084000080002c100403100000000080294880820400108c6a0002040008002000200204004028000802010000010140002004000000002010000c4004020000c000002000002800300005204000024040000040417000100200210100010000000d1000200800940800010884810062c40000000080008041000",
      "type": "0x2",
      "transactionHash": "0xa512fb67f1fa701dedf6fc3b50cbab5526604b3bd228e553e43b55c56f9ca7b2",
      "transactionIndex": "0x3",
      "blockHash": "0xb559eb8dfab4e8f858fa4587e8d8c4dda923a1467a2d5815642ab0690a7eca40",
      "blockNumber": "0x28b84ae",
      "gasUsed": "0x52f400",
      "effectiveGasPrice": "0x5b8d80",
      "blobGasUsed": "0x1c6b6",
      "from": "0xff6bdef4fb646ee44e29fe8fc0862b02f0ba8a33",
      "to": "0xaf81c05747eda1e1715ff23626ab83c3351dcff6",
      "contractAddress": null,
      "daFootprintGasScalar": "0x1be",
      "l1BaseFeeScalar": "0x44d",
      "l1BlobBaseFee": "0xf47bb5d",
      "l1BlobBaseFeeScalar": "0xa118b",
      "l1Fee": "0xecb4af680",
      "l1GasPrice": "0xfb29ca57",
      "l1GasUsed": "0x1051"
    },
    {
      "status": "0x1",
      "cumulativeGasUsed": "0x4d4ef2",
      "logs": [
        {
          "address": "0xb2ae1c8f4461fafd3af0db9e5bdc5ce89316e080",
          "topics": [
            "0x1809803edc7f4d0a1c400a8f95cac12ace860d60e118b6c9b491082a623963df",
            "0x000000000000000000000000784d2221e11f4e87fa031aac15c168d27b5cceb4"
          ],
          "data": "0x0000000000000000000000000000000000000000000000000000000000000080000000000000000000000000000000000000000000000000000000000000000000000000000000000000000000000000000000000000000000000000000186a000000000000000000000000000000000000000000000000000000000000000000000000000000000000000000000000000000000000000000000000000000000",
          "blockHash": "0x400d9f633226fbc9a44a7ea3a764f56e211bf2a419ebfb9ffb8ffe242e3698f8",
          "blockNumber": "0x28b84af",
          "blockTimestamp": "0x6a2a683e",
          "transactionHash": "0x3d9823fbc6d8bd735c94814e2558e8d7b6a051a9d2422071d3b0b6609c1b8908",
          "transactionIndex": "0xf",
          "logIndex": "0x6f",
          "removed": false
        }
      ],
      "logsBloom": "0x00000000000000000000000000000000000000000000000400000000000000000000000000000000000000000000000000000000000000008000000000000000000000000000000000000000000000000000000000000000000000000000000000000000000000000000000000000000000000000000000000000000000000000000000000000000000000000000000000000000000000000000000000000000000000000000000000100000000000000000000000000000000000000000000000000000000000000000000000000000000000004000000000040400010000001000000000000000000000000000000000000000000002000000000000000000",
      "type": "0x2",
      "transactionHash": "0x3d9823fbc6d8bd735c94814e2558e8d7b6a051a9d2422071d3b0b6609c1b8908",
      "transactionIndex": "0xf",
      "blockHash": "0x400d9f633226fbc9a44a7ea3a764f56e211bf2a419ebfb9ffb8ffe242e3698f8",
      "blockNumber": "0x28b84af",
      "gasUsed": "0x255e8",
      "effectiveGasPrice": "0x5b8d80",
      "blobGasUsed": "0xae38",
      "from": "0xff6bdef4fb646ee44e29fe8fc0862b02f0ba8a33",
      "to": "0xb2ae1c8f4461fafd3af0db9e5bdc5ce89316e080",
      "contractAddress": null,
      "daFootprintGasScalar": "0x1be",
      "l1BaseFeeScalar": "0x44d",
      "l1BlobBaseFee": "0xf47bb5d",
      "l1BlobBaseFeeScalar": "0xa118b",
      "l1Fee": "0x5aab701e1",
      "l1GasPrice": "0xfb29ca57",
      "l1GasUsed": "0x640"
    },
    {
      "status": "0x1",
      "cumulativeGasUsed": "0x356796",
      "logs": [
        {
          "address": "0x784d2221e11f4e87fa031aac15c168d27b5cceb4",
          "topics": [
            "0x8c5be1e5ebec7d5bd14f71427d1e84f3dd0314c0f7b2291e5b200ac8c7c3b925",
            "0x000000000000000000000000ff6bdef4fb646ee44e29fe8fc0862b02f0ba8a33",
            "0x000000000000000000000000b2ae1c8f4461fafd3af0db9e5bdc5ce89316e080"
          ],
          "data": "0xffffffffffffffffffffffffffffffffffffffffffffffffffffffffffffffff",
          "blockHash": "0x0466ab87aaff6e5353f0b96f97eb24948a68acfbe184d15860de437a16a5761b",
          "blockNumber": "0x28b84b0",
          "blockTimestamp": "0x6a2a6840",
          "transactionHash": "0x9d3056debc8f324c039adaf1e9073aff5ad92321e6ae7ab09badb2a1a6dc398a",
          "transactionIndex": "0x10",
          "logIndex": "0x5c",
          "removed": false
        }
      ],
      "logsBloom": "0x00000000000000000000100000000000000000000000000000000000000000000000000000000000000001000000000000000000000000000000000000200000000000000000000000000000000000000000000000000001000000000000000000000000000000000000000000000000000000000000000000000000000000000000000000000000000000000000000000000000000000000000000000000000020000000000000000000000000000000000000000000000400000000000000000000000000000000000000200010000000000000000000000000000000000001010000000000000000000000000000000000000000000000000000080001000",
      "type": "0x2",
      "transactionHash": "0x9d3056debc8f324c039adaf1e9073aff5ad92321e6ae7ab09badb2a1a6dc398a",
      "transactionIndex": "0x10",
      "blockHash": "0x0466ab87aaff6e5353f0b96f97eb24948a68acfbe184d15860de437a16a5761b",
      "blockNumber": "0x28b84b0",
      "gasUsed": "0xb4cb",
      "effectiveGasPrice": "0x5b8d80",
      "blobGasUsed": "0xae38",
      "from": "0xff6bdef4fb646ee44e29fe8fc0862b02f0ba8a33",
      "to": "0x784d2221e11f4e87fa031aac15c168d27b5cceb4",
      "contractAddress": null,
      "daFootprintGasScalar": "0x1be",
      "l1BaseFeeScalar": "0x44d",
      "l1BlobBaseFee": "0xf47bb5d",
      "l1BlobBaseFeeScalar": "0xa118b",
      "l1Fee": "0x5aab701e1",
      "l1GasPrice": "0xfb29ca57",
      "l1GasUsed": "0x640"
    },
    {
      "status": "0x1",
      "cumulativeGasUsed": "0x81950",
      "logs": [
        {
          "address": "0x784d2221e11f4e87fa031aac15c168d27b5cceb4",
          "topics": [
            "0xddf252ad1be2c89b69c2b068fc378daa952ba7f163c4a11628f55a4df523b3ef",
            "0x000000000000000000000000ff6bdef4fb646ee44e29fe8fc0862b02f0ba8a33",
            "0x000000000000000000000000b2ae1c8f4461fafd3af0db9e5bdc5ce89316e080"
          ],
          "data": "0x0000000000000000000000000000000000000000000000000000000007270e00",
          "blockHash": "0x55a3ae273f159e28f10029ee0c0d4315cb663f56a8bbbf9dd34da79c4b602a02",
          "blockNumber": "0x28b84b2",
          "blockTimestamp": "0x6a2a6844",
          "transactionHash": "0x89935a664b07c35e06a05a8d2352188730f432cba4568a34fe6e0f629235d215",
          "transactionIndex": "0x1",
          "logIndex": "0x0",
          "removed": false
        },
        {
          "address": "0x784d2221e11f4e87fa031aac15c168d27b5cceb4",
          "topics": [
            "0xddf252ad1be2c89b69c2b068fc378daa952ba7f163c4a11628f55a4df523b3ef",
            "0x000000000000000000000000b2ae1c8f4461fafd3af0db9e5bdc5ce89316e080",
            "0x000000000000000000000000f0ad36ef051742b4397048aa4d5d7ab08f88fef7"
          ],
          "data": "0x000000000000000000000000000000000000000000000000000000000036ee80",
          "blockHash": "0x55a3ae273f159e28f10029ee0c0d4315cb663f56a8bbbf9dd34da79c4b602a02",
          "blockNumber": "0x28b84b2",
          "blockTimestamp": "0x6a2a6844",
          "transactionHash": "0x89935a664b07c35e06a05a8d2352188730f432cba4568a34fe6e0f629235d215",
          "transactionIndex": "0x1",
          "logIndex": "0x1",
          "removed": false
        },
        {
          "address": "0xb2ae1c8f4461fafd3af0db9e5bdc5ce89316e080",
          "topics": [
            "0x4dd12c0ecba594b5bb7a4e3ec05ef19e1135fed23711a1fe4b1c9e6c9b40391b",
            "0x000000000000000000000000ff6bdef4fb646ee44e29fe8fc0862b02f0ba8a33",
            "0x000000000000000000000000784d2221e11f4e87fa031aac15c168d27b5cceb4"
          ],
          "data": "0x000000000000000000000000000000000000000000000000000000000036ee80",
          "blockHash": "0x55a3ae273f159e28f10029ee0c0d4315cb663f56a8bbbf9dd34da79c4b602a02",
          "blockNumber": "0x28b84b2",
          "blockTimestamp": "0x6a2a6844",
          "transactionHash": "0x89935a664b07c35e06a05a8d2352188730f432cba4568a34fe6e0f629235d215",
          "transactionIndex": "0x1",
          "logIndex": "0x2",
          "removed": false
        },
        {
          "address": "0x442f66280c4353b5bdbc7b8d01c363bd08e87fae",
          "topics": [
            "0xddf252ad1be2c89b69c2b068fc378daa952ba7f163c4a11628f55a4df523b3ef",
            "0x0000000000000000000000000000000000000000000000000000000000000000",
            "0x000000000000000000000000ff6bdef4fb646ee44e29fe8fc0862b02f0ba8a33"
          ],
          "data": "0x0000000000000000000000000000000000000000000000410d586a20a4c00000",
          "blockHash": "0x55a3ae273f159e28f10029ee0c0d4315cb663f56a8bbbf9dd34da79c4b602a02",
          "blockNumber": "0x28b84b2",
          "blockTimestamp": "0x6a2a6844",
          "transactionHash": "0x89935a664b07c35e06a05a8d2352188730f432cba4568a34fe6e0f629235d215",
          "transactionIndex": "0x1",
          "logIndex": "0x3",
          "removed": false
        },
        {
          "address": "0xb2ae1c8f4461fafd3af0db9e5bdc5ce89316e080",
          "topics": [
            "0x0b9c8304b83df3d2827b952a8e4c87faef3556dddcde57a47cb80f0c755606a5",
            "0x000000000000000000000000ff6bdef4fb646ee44e29fe8fc0862b02f0ba8a33",
            "0x000000000000000000000000784d2221e11f4e87fa031aac15c168d27b5cceb4"
          ],
          "data": "0x0000000000000000000000000000000000000000000000000000000007270e000000000000000000000000000000000000000000000000410d586a20a4c0000000000000000000000000000000000000000000000000000000000000000000000000000000000000000000000000000000000000000000410d586a20a4c00000",
          "blockHash": "0x55a3ae273f159e28f10029ee0c0d4315cb663f56a8bbbf9dd34da79c4b602a02",
          "blockNumber": "0x28b84b2",
          "blockTimestamp": "0x6a2a6844",
          "transactionHash": "0x89935a664b07c35e06a05a8d2352188730f432cba4568a34fe6e0f629235d215",
          "transactionIndex": "0x1",
          "logIndex": "0x4",
          "removed": false
        },
        {
          "address": "0xa9d37cef4756349ad2be0023643122af16868b57",
          "topics": [
            "0x719e40e438f954166f47e9c151eedc7cf154fd5379ffbaad9796c3530ba668b4",
            "0x000000000000000000000000b2ae1c8f4461fafd3af0db9e5bdc5ce89316e080",
            "0x000000000000000000000000ff6bdef4fb646ee44e29fe8fc0862b02f0ba8a33"
          ],
          "data": "0x000000000000000000000000000000000000000000000004b75e170de2fc0000",
          "blockHash": "0x55a3ae273f159e28f10029ee0c0d4315cb663f56a8bbbf9dd34da79c4b602a02",
          "blockNumber": "0x28b84b2",
          "blockTimestamp": "0x6a2a6844",
          "transactionHash": "0x89935a664b07c35e06a05a8d2352188730f432cba4568a34fe6e0f629235d215",
          "transactionIndex": "0x1",
          "logIndex": "0x5",
          "removed": false
        }
      ],
      "logsBloom": "0x00000000000000000000300000000000000001000000000080000000000000000000000000000000000001000000000000000000000000000000000000000000000000000000000000000008000010000000002000000001000000000002000000000000020000000000000000000800000000000000000000000010001000000000000000800000000000000000000000000000000000000000000000000000000000100000000000100000000000000000000010000000400000010000000000400002000400000000000200010000000000004000004000240500010020001000000002000000000000000000000000000800000000000000000080001000",
      "type": "0x2",
      "transactionHash": "0x89935a664b07c35e06a05a8d2352188730f432cba4568a34fe6e0f629235d215",
      "transactionIndex": "0x1",
      "blockHash": "0x55a3ae273f159e28f10029ee0c0d4315cb663f56a8bbbf9dd34da79c4b602a02",
      "blockNumber": "0x28b84b2",
      "gasUsed": "0x764ba",
      "effectiveGasPrice": "0x5b8d80",
      "blobGasUsed": "0xae38",
      "from": "0xff6bdef4fb646ee44e29fe8fc0862b02f0ba8a33",
      "to": "0xb2ae1c8f4461fafd3af0db9e5bdc5ce89316e080",
      "contractAddress": null,
      "daFootprintGasScalar": "0x1be",
      "l1BaseFeeScalar": "0x44d",
      "l1BlobBaseFee": "0xf82ad70",
      "l1BlobBaseFeeScalar": "0xa118b",
      "l1Fee": "0x5b203fc8a",
      "l1GasPrice": "0xf6aecac2",
      "l1GasUsed": "0x640"
    },
    {
      "status": "0x1",
      "cumulativeGasUsed": "0x4fabb2",
      "logs": [
        {
          "address": "0x784d2221e11f4e87fa031aac15c168d27b5cceb4",
          "topics": [
            "0xddf252ad1be2c89b69c2b068fc378daa952ba7f163c4a11628f55a4df523b3ef",
            "0x000000000000000000000000b2ae1c8f4461fafd3af0db9e5bdc5ce89316e080",
            "0x000000000000000000000000ff6bdef4fb646ee44e29fe8fc0862b02f0ba8a33"
          ],
          "data": "0x0000000000000000000000000000000000000000000000000000000006f01f80",
          "blockHash": "0xa7071cd3ee4e4b33c2fab7415e146d1cfa953b1887571745337c2ff85004eed0",
          "blockNumber": "0x28b84b3",
          "blockTimestamp": "0x6a2a6846",
          "transactionHash": "0x4c0811b125c22c0b44db81eae55fc2ac59d61542b5387deba53ac99a8497cb5e",
          "transactionIndex": "0xd",
          "logIndex": "0x104",
          "removed": false
        },
        {
          "address": "0xa9d37cef4756349ad2be0023643122af16868b57",
          "topics": [
            "0x127a0d60b64e68d983855c4d67e59aab432c3fded72f4317958b05a2eb1dbe0f",
            "0x000000000000000000000000b2ae1c8f4461fafd3af0db9e5bdc5ce89316e080"
          ],
          "data": "0x000000000000000000000000000000000000000000000004b75e170de2fc0000",
          "blockHash": "0xa7071cd3ee4e4b33c2fab7415e146d1cfa953b1887571745337c2ff85004eed0",
          "blockNumber": "0x28b84b3",
          "blockTimestamp": "0x6a2a6846",
          "transactionHash": "0x4c0811b125c22c0b44db81eae55fc2ac59d61542b5387deba53ac99a8497cb5e",
          "transactionIndex": "0xd",
          "logIndex": "0x105",
          "removed": false
        },
        {
          "address": "0xb2ae1c8f4461fafd3af0db9e5bdc5ce89316e080",
          "topics": [
            "0x120bfc1de29621f7872a5b3129b6524ceb18df8c689a37496b8ee4007235dbc8"
          ],
          "data": "0x00000000000000000000000000000000000000000000000000000000000000000000000000000000000000000000000000000000000000000000000000000001",
          "blockHash": "0xa7071cd3ee4e4b33c2fab7415e146d1cfa953b1887571745337c2ff85004eed0",
          "blockNumber": "0x28b84b3",
          "blockTimestamp": "0x6a2a6846",
          "transactionHash": "0x4c0811b125c22c0b44db81eae55fc2ac59d61542b5387deba53ac99a8497cb5e",
          "transactionIndex": "0xd",
          "logIndex": "0x106",
          "removed": false
        },
        {
          "address": "0xb2ae1c8f4461fafd3af0db9e5bdc5ce89316e080",
          "topics": [
            "0xccb4518c7bb9cdee893961401854c0ac29fad869f3338dc3087c9215fa4ab9e1"
          ],
          "data": "0x00000000000000000000000000000000000000000000000000000000000000000000000000000000000000000000000000000000000000410d586a20a4c00000",
          "blockHash": "0xa7071cd3ee4e4b33c2fab7415e146d1cfa953b1887571745337c2ff85004eed0",
          "blockNumber": "0x28b84b3",
          "blockTimestamp": "0x6a2a6846",
          "transactionHash": "0x4c0811b125c22c0b44db81eae55fc2ac59d61542b5387deba53ac99a8497cb5e",
          "transactionIndex": "0xd",
          "logIndex": "0x107",
          "removed": false
        }
      ],
      "logsBloom": "0x00000000000000000000100000000000000000000000400000000000000048000000000000000000000001000000000000000000000000000000000000000000000000000000000000000008000000000000000000800001000000000002000000000000000000000000000000000000000000000000000000000010000000000000000000000000000000000000000000000000000000000000000000000000000000000000000000100020000000000000000010000000400002000000000000000002000000000000000200012000000000000000000000040500010000001002000000000000000000000000000000000000000000000000000080001000",
      "type": "0x2",
      "transactionHash": "0x4c0811b125c22c0b44db81eae55fc2ac59d61542b5387deba53ac99a8497cb5e",
      "transactionIndex": "0xd",
      "blockHash": "0xa7071cd3ee4e4b33c2fab7415e146d1cfa953b1887571745337c2ff85004eed0",
      "blockNumber": "0x28b84b3",
      "gasUsed": "0x158c2",
      "effectiveGasPrice": "0x5b8d80",
      "blobGasUsed": "0xae38",
      "from": "0xff6bdef4fb646ee44e29fe8fc0862b02f0ba8a33",
      "to": "0xb2ae1c8f4461fafd3af0db9e5bdc5ce89316e080",
      "contractAddress": null,
      "daFootprintGasScalar": "0x1be",
      "l1BaseFeeScalar": "0x44d",
      "l1BlobBaseFee": "0xf82ad70",
      "l1BlobBaseFeeScalar": "0xa118b",
      "l1Fee": "0x5b203fc8a",
      "l1GasPrice": "0xf6aecac2",
      "l1GasUsed": "0x640"
    },
    {
      "status": "0x1",
      "cumulativeGasUsed": "0x6f1bed",
      "logs": [
        {
          "address": "0x796eb68ba71ee5d035df906c4057e0bfc17c1182",
          "topics": [
            "0x8d160eff266df162107c57259a1f1e71787bd4ab800800826bd189d6f2f3e83c",
            "0x0000000000000000000000000000000000000000000000000000000000000001"
          ],
          "data": "0x000000000000000000000000000000000000000000000000000000006a2a6848",
          "blockHash": "0x1cd414f07eea176c1dfbec538806d30d41947a0f2ab41fa426b7a9b488ab9aa2",
          "blockNumber": "0x28b84b4",
          "blockTimestamp": "0x6a2a6848",
          "transactionHash": "0x386060b0a4ece05c8d4dce13758c8c10d0ce43889af013d359c6876dfe2f1c58",
          "transactionIndex": "0x11",
          "logIndex": "0xd9",
          "removed": false
        }
      ],
      "logsBloom": "0x00000000800000000000000000000000000000000000000000000000000000000000000000000000000000000000000000000000000000000000000000040000000002000000000000000000000000000000000000040000000000000000000000000000000000000000000000000000000000000000000000000000000000000000000000000000000000000000000000000000000000000000000000000000000000000000000000000000080000000000000000000000000000000000000000000000000000000000000000000000400000000000000000000000000040000000000200000010000000000000000000000000000000000000000000000000",
      "type": "0x2",
      "transactionHash": "0x386060b0a4ece05c8d4dce13758c8c10d0ce43889af013d359c6876dfe2f1c58",
      "transactionIndex": "0x11",
      "blockHash": "0x1cd414f07eea176c1dfbec538806d30d41947a0f2ab41fa426b7a9b488ab9aa2",
      "blockNumber": "0x28b84b4",
      "gasUsed": "0x2d19e",
      "effectiveGasPrice": "0x5b8d80",
      "blobGasUsed": "0xae38",
      "from": "0xff6bdef4fb646ee44e29fe8fc0862b02f0ba8a33",
      "to": "0xb2ae1c8f4461fafd3af0db9e5bdc5ce89316e080",
      "contractAddress": null,
      "daFootprintGasScalar": "0x1be",
      "l1BaseFeeScalar": "0x44d",
      "l1BlobBaseFee": "0xf82ad70",
      "l1BlobBaseFeeScalar": "0xa118b",
      "l1Fee": "0x5b203fc8a",
      "l1GasPrice": "0xf6aecac2",
      "l1GasUsed": "0x640"
    },
    {
      "status": "0x1",
      "cumulativeGasUsed": "0x6540bb",
      "logs": [
        {
          "address": "0xb2ae1c8f4461fafd3af0db9e5bdc5ce89316e080",
          "topics": [
            "0xe4820932fb8bfeb1d651397e57975ed0c2c8652dbf3cea72ffcb6007744d256f",
            "0x55a4347000000000000000000000000000000000000000000000000000000000",
            "0x8d8dbd54da6ed08f3af3f4408383e63b6594306608253e922377e052ddfbbc05"
          ],
          "data": "0x",
          "blockHash": "0x2692687b98a2ec3cbbf8b5493271a409d884348b71ec167a2571d28a80aa23ca",
          "blockNumber": "0x28b84b5",
          "blockTimestamp": "0x6a2a684a",
          "transactionHash": "0x288b05861575f0b5955de1405c1d48c586579a72a592880980aa89e8fee02850",
          "transactionIndex": "0x12",
          "logIndex": "0x10c",
          "removed": false
        },
        {
          "address": "0xb2ae1c8f4461fafd3af0db9e5bdc5ce89316e080",
          "topics": [
            "0xe4820932fb8bfeb1d651397e57975ed0c2c8652dbf3cea72ffcb6007744d256f",
            "0xe2cd4f7600000000000000000000000000000000000000000000000000000000",
            "0x8d8dbd54da6ed08f3af3f4408383e63b6594306608253e922377e052ddfbbc05"
          ],
          "data": "0x",
          "blockHash": "0x2692687b98a2ec3cbbf8b5493271a409d884348b71ec167a2571d28a80aa23ca",
          "blockNumber": "0x28b84b5",
          "blockTimestamp": "0x6a2a684a",
          "transactionHash": "0x288b05861575f0b5955de1405c1d48c586579a72a592880980aa89e8fee02850",
          "transactionIndex": "0x12",
          "logIndex": "0x10d",
          "removed": false
        },
        {
          "address": "0xb2ae1c8f4461fafd3af0db9e5bdc5ce89316e080",
          "topics": [
            "0xe4820932fb8bfeb1d651397e57975ed0c2c8652dbf3cea72ffcb6007744d256f",
            "0xda3a5f7200000000000000000000000000000000000000000000000000000000",
            "0x8d8dbd54da6ed08f3af3f4408383e63b6594306608253e922377e052ddfbbc05"
          ],
          "data": "0x",
          "blockHash": "0x2692687b98a2ec3cbbf8b5493271a409d884348b71ec167a2571d28a80aa23ca",
          "blockNumber": "0x28b84b5",
          "blockTimestamp": "0x6a2a684a",
          "transactionHash": "0x288b05861575f0b5955de1405c1d48c586579a72a592880980aa89e8fee02850",
          "transactionIndex": "0x12",
          "logIndex": "0x10e",
          "removed": false
        },
        {
          "address": "0xb2ae1c8f4461fafd3af0db9e5bdc5ce89316e080",
          "topics": [
            "0xe4820932fb8bfeb1d651397e57975ed0c2c8652dbf3cea72ffcb6007744d256f",
            "0x782876af00000000000000000000000000000000000000000000000000000000",
            "0x8d8dbd54da6ed08f3af3f4408383e63b6594306608253e922377e052ddfbbc05"
          ],
          "data": "0x",
          "blockHash": "0x2692687b98a2ec3cbbf8b5493271a409d884348b71ec167a2571d28a80aa23ca",
          "blockNumber": "0x28b84b5",
          "blockTimestamp": "0x6a2a684a",
          "transactionHash": "0x288b05861575f0b5955de1405c1d48c586579a72a592880980aa89e8fee02850",
          "transactionIndex": "0x12",
          "logIndex": "0x10f",
          "removed": false
        },
        {
          "address": "0xb2ae1c8f4461fafd3af0db9e5bdc5ce89316e080",
          "topics": [
            "0xe4820932fb8bfeb1d651397e57975ed0c2c8652dbf3cea72ffcb6007744d256f",
            "0x1c5d809000000000000000000000000000000000000000000000000000000000",
            "0x8d8dbd54da6ed08f3af3f4408383e63b6594306608253e922377e052ddfbbc05"
          ],
          "data": "0x",
          "blockHash": "0x2692687b98a2ec3cbbf8b5493271a409d884348b71ec167a2571d28a80aa23ca",
          "blockNumber": "0x28b84b5",
          "blockTimestamp": "0x6a2a684a",
          "transactionHash": "0x288b05861575f0b5955de1405c1d48c586579a72a592880980aa89e8fee02850",
          "transactionIndex": "0x12",
          "logIndex": "0x110",
          "removed": false
        },
        {
          "address": "0xb2ae1c8f4461fafd3af0db9e5bdc5ce89316e080",
          "topics": [
            "0xe4820932fb8bfeb1d651397e57975ed0c2c8652dbf3cea72ffcb6007744d256f",
            "0xd2fdf2e200000000000000000000000000000000000000000000000000000000",
            "0x8d8dbd54da6ed08f3af3f4408383e63b6594306608253e922377e052ddfbbc05"
          ],
          "data": "0x",
          "blockHash": "0x2692687b98a2ec3cbbf8b5493271a409d884348b71ec167a2571d28a80aa23ca",
          "blockNumber": "0x28b84b5",
          "blockTimestamp": "0x6a2a684a",
          "transactionHash": "0x288b05861575f0b5955de1405c1d48c586579a72a592880980aa89e8fee02850",
          "transactionIndex": "0x12",
          "logIndex": "0x111",
          "removed": false
        },
        {
          "address": "0xb2ae1c8f4461fafd3af0db9e5bdc5ce89316e080",
          "topics": [
            "0xe4820932fb8bfeb1d651397e57975ed0c2c8652dbf3cea72ffcb6007744d256f",
            "0xc4a0db9600000000000000000000000000000000000000000000000000000000",
            "0x8d8dbd54da6ed08f3af3f4408383e63b6594306608253e922377e052ddfbbc05"
          ],
          "data": "0x",
          "blockHash": "0x2692687b98a2ec3cbbf8b5493271a409d884348b71ec167a2571d28a80aa23ca",
          "blockNumber": "0x28b84b5",
          "blockTimestamp": "0x6a2a684a",
          "transactionHash": "0x288b05861575f0b5955de1405c1d48c586579a72a592880980aa89e8fee02850",
          "transactionIndex": "0x12",
          "logIndex": "0x112",
          "removed": false
        },
        {
          "address": "0xb2ae1c8f4461fafd3af0db9e5bdc5ce89316e080",
          "topics": [
            "0xe4820932fb8bfeb1d651397e57975ed0c2c8652dbf3cea72ffcb6007744d256f",
            "0x96365d4400000000000000000000000000000000000000000000000000000000",
            "0x8d8dbd54da6ed08f3af3f4408383e63b6594306608253e922377e052ddfbbc05"
          ],
          "data": "0x",
          "blockHash": "0x2692687b98a2ec3cbbf8b5493271a409d884348b71ec167a2571d28a80aa23ca",
          "blockNumber": "0x28b84b5",
          "blockTimestamp": "0x6a2a684a",
          "transactionHash": "0x288b05861575f0b5955de1405c1d48c586579a72a592880980aa89e8fee02850",
          "transactionIndex": "0x12",
          "logIndex": "0x113",
          "removed": false
        },
        {
          "address": "0xb2ae1c8f4461fafd3af0db9e5bdc5ce89316e080",
          "topics": [
            "0xe4820932fb8bfeb1d651397e57975ed0c2c8652dbf3cea72ffcb6007744d256f",
            "0xb82a161c00000000000000000000000000000000000000000000000000000000",
            "0x8d8dbd54da6ed08f3af3f4408383e63b6594306608253e922377e052ddfbbc05"
          ],
          "data": "0x",
          "blockHash": "0x2692687b98a2ec3cbbf8b5493271a409d884348b71ec167a2571d28a80aa23ca",
          "blockNumber": "0x28b84b5",
          "blockTimestamp": "0x6a2a684a",
          "transactionHash": "0x288b05861575f0b5955de1405c1d48c586579a72a592880980aa89e8fee02850",
          "transactionIndex": "0x12",
          "logIndex": "0x114",
          "removed": false
        },
        {
          "address": "0xb2ae1c8f4461fafd3af0db9e5bdc5ce89316e080",
          "topics": [
            "0xe4820932fb8bfeb1d651397e57975ed0c2c8652dbf3cea72ffcb6007744d256f",
            "0x7905623400000000000000000000000000000000000000000000000000000000",
            "0x8d8dbd54da6ed08f3af3f4408383e63b6594306608253e922377e052ddfbbc05"
          ],
          "data": "0x",
          "blockHash": "0x2692687b98a2ec3cbbf8b5493271a409d884348b71ec167a2571d28a80aa23ca",
          "blockNumber": "0x28b84b5",
          "blockTimestamp": "0x6a2a684a",
          "transactionHash": "0x288b05861575f0b5955de1405c1d48c586579a72a592880980aa89e8fee02850",
          "transactionIndex": "0x12",
          "logIndex": "0x115",
          "removed": false
        },
        {
          "address": "0xb2ae1c8f4461fafd3af0db9e5bdc5ce89316e080",
          "topics": [
            "0xe4820932fb8bfeb1d651397e57975ed0c2c8652dbf3cea72ffcb6007744d256f",
            "0x9545303400000000000000000000000000000000000000000000000000000000",
            "0x8d8dbd54da6ed08f3af3f4408383e63b6594306608253e922377e052ddfbbc05"
          ],
          "data": "0x",
          "blockHash": "0x2692687b98a2ec3cbbf8b5493271a409d884348b71ec167a2571d28a80aa23ca",
          "blockNumber": "0x28b84b5",
          "blockTimestamp": "0x6a2a684a",
          "transactionHash": "0x288b05861575f0b5955de1405c1d48c586579a72a592880980aa89e8fee02850",
          "transactionIndex": "0x12",
          "logIndex": "0x116",
          "removed": false
        },
        {
          "address": "0xb2ae1c8f4461fafd3af0db9e5bdc5ce89316e080",
          "topics": [
            "0xe4820932fb8bfeb1d651397e57975ed0c2c8652dbf3cea72ffcb6007744d256f",
            "0x61b479f900000000000000000000000000000000000000000000000000000000",
            "0x8d8dbd54da6ed08f3af3f4408383e63b6594306608253e922377e052ddfbbc05"
          ],
          "data": "0x",
          "blockHash": "0x2692687b98a2ec3cbbf8b5493271a409d884348b71ec167a2571d28a80aa23ca",
          "blockNumber": "0x28b84b5",
          "blockTimestamp": "0x6a2a684a",
          "transactionHash": "0x288b05861575f0b5955de1405c1d48c586579a72a592880980aa89e8fee02850",
          "transactionIndex": "0x12",
          "logIndex": "0x117",
          "removed": false
        },
        {
          "address": "0xb2ae1c8f4461fafd3af0db9e5bdc5ce89316e080",
          "topics": [
            "0xe4820932fb8bfeb1d651397e57975ed0c2c8652dbf3cea72ffcb6007744d256f",
            "0x044093e300000000000000000000000000000000000000000000000000000000",
            "0x8d8dbd54da6ed08f3af3f4408383e63b6594306608253e922377e052ddfbbc05"
          ],
          "data": "0x",
          "blockHash": "0x2692687b98a2ec3cbbf8b5493271a409d884348b71ec167a2571d28a80aa23ca",
          "blockNumber": "0x28b84b5",
          "blockTimestamp": "0x6a2a684a",
          "transactionHash": "0x288b05861575f0b5955de1405c1d48c586579a72a592880980aa89e8fee02850",
          "transactionIndex": "0x12",
          "logIndex": "0x118",
          "removed": false
        },
        {
          "address": "0xb2ae1c8f4461fafd3af0db9e5bdc5ce89316e080",
          "topics": [
            "0xe4820932fb8bfeb1d651397e57975ed0c2c8652dbf3cea72ffcb6007744d256f",
            "0x18c4110700000000000000000000000000000000000000000000000000000000",
            "0x8d8dbd54da6ed08f3af3f4408383e63b6594306608253e922377e052ddfbbc05"
          ],
          "data": "0x",
          "blockHash": "0x2692687b98a2ec3cbbf8b5493271a409d884348b71ec167a2571d28a80aa23ca",
          "blockNumber": "0x28b84b5",
          "blockTimestamp": "0x6a2a684a",
          "transactionHash": "0x288b05861575f0b5955de1405c1d48c586579a72a592880980aa89e8fee02850",
          "transactionIndex": "0x12",
          "logIndex": "0x119",
          "removed": false
        },
        {
          "address": "0xb2ae1c8f4461fafd3af0db9e5bdc5ce89316e080",
          "topics": [
            "0xe4820932fb8bfeb1d651397e57975ed0c2c8652dbf3cea72ffcb6007744d256f",
            "0x9ec728bd00000000000000000000000000000000000000000000000000000000",
            "0x8d8dbd54da6ed08f3af3f4408383e63b6594306608253e922377e052ddfbbc05"
          ],
          "data": "0x",
          "blockHash": "0x2692687b98a2ec3cbbf8b5493271a409d884348b71ec167a2571d28a80aa23ca",
          "blockNumber": "0x28b84b5",
          "blockTimestamp": "0x6a2a684a",
          "transactionHash": "0x288b05861575f0b5955de1405c1d48c586579a72a592880980aa89e8fee02850",
          "transactionIndex": "0x12",
          "logIndex": "0x11a",
          "removed": false
        },
        {
          "address": "0xb2ae1c8f4461fafd3af0db9e5bdc5ce89316e080",
          "topics": [
            "0xe4820932fb8bfeb1d651397e57975ed0c2c8652dbf3cea72ffcb6007744d256f",
            "0xdc7b634000000000000000000000000000000000000000000000000000000000",
            "0x8d8dbd54da6ed08f3af3f4408383e63b6594306608253e922377e052ddfbbc05"
          ],
          "data": "0x",
          "blockHash": "0x2692687b98a2ec3cbbf8b5493271a409d884348b71ec167a2571d28a80aa23ca",
          "blockNumber": "0x28b84b5",
          "blockTimestamp": "0x6a2a684a",
          "transactionHash": "0x288b05861575f0b5955de1405c1d48c586579a72a592880980aa89e8fee02850",
          "transactionIndex": "0x12",
          "logIndex": "0x11b",
          "removed": false
        },
        {
          "address": "0xb2ae1c8f4461fafd3af0db9e5bdc5ce89316e080",
          "topics": [
            "0xe4820932fb8bfeb1d651397e57975ed0c2c8652dbf3cea72ffcb6007744d256f",
            "0x70cd8b6800000000000000000000000000000000000000000000000000000000",
            "0x8d8dbd54da6ed08f3af3f4408383e63b6594306608253e922377e052ddfbbc05"
          ],
          "data": "0x",
          "blockHash": "0x2692687b98a2ec3cbbf8b5493271a409d884348b71ec167a2571d28a80aa23ca",
          "blockNumber": "0x28b84b5",
          "blockTimestamp": "0x6a2a684a",
          "transactionHash": "0x288b05861575f0b5955de1405c1d48c586579a72a592880980aa89e8fee02850",
          "transactionIndex": "0x12",
          "logIndex": "0x11c",
          "removed": false
        },
        {
          "address": "0xb2ae1c8f4461fafd3af0db9e5bdc5ce89316e080",
          "topics": [
            "0xc3b3bba350d426d8b0241206f22ea56f835fbcc9ade54bd871bf75a0d6c9f887",
            "0x8d8dbd54da6ed08f3af3f4408383e63b6594306608253e922377e052ddfbbc05",
            "0x000000000000000000000000039bc1531a427d299bbeae37d4fb6ee9ebf4477e",
            "0x82beecdd0fd7fb5ab47261b2dec556e40796f55e3706a60c118ff8e2a4e768e7"
          ],
          "data": "0x0000000000000000000000000000000000000000000000000000000000000020000000000000000000000000000000000000000000000000000000000000001c697066733a2f2f67726f7766692d72657061796d656e742d64656d6f00000000",
          "blockHash": "0x2692687b98a2ec3cbbf8b5493271a409d884348b71ec167a2571d28a80aa23ca",
          "blockNumber": "0x28b84b5",
          "blockTimestamp": "0x6a2a684a",
          "transactionHash": "0x288b05861575f0b5955de1405c1d48c586579a72a592880980aa89e8fee02850",
          "transactionIndex": "0x12",
          "logIndex": "0x11d",
          "removed": false
        }
      ],
      "logsBloom": "0x00000000100000000040000000000000041000000000000002000000000000000000000000100000000040000001000000000000000000000004000040000000000000000020001000000010108000000000004000000000804000000000000100000084000002400000a000000000000000200040000040000000000000080000000000800000000100000000000000000000002000000800000000812000000000040200000000100000000000000000000400000000000004000000000001400000000100000200000000000000120000000000000008200484020140000000000000004a00c00c0000800000000800180000200000000000100000000000",
      "type": "0x2",
      "transactionHash": "0x288b05861575f0b5955de1405c1d48c586579a72a592880980aa89e8fee02850",
      "transactionIndex": "0x12",
      "blockHash": "0x2692687b98a2ec3cbbf8b5493271a409d884348b71ec167a2571d28a80aa23ca",
      "blockNumber": "0x28b84b5",
      "gasUsed": "0xa7d3c",
      "effectiveGasPrice": "0x5b8d80",
      "blobGasUsed": "0x130e2",
      "from": "0xff6bdef4fb646ee44e29fe8fc0862b02f0ba8a33",
      "to": "0xb2ae1c8f4461fafd3af0db9e5bdc5ce89316e080",
      "contractAddress": null,
      "daFootprintGasScalar": "0x1be",
      "l1BaseFeeScalar": "0x44d",
      "l1BlobBaseFee": "0xf82ad70",
      "l1BlobBaseFeeScalar": "0xa118b",
      "l1Fee": "0xa0254667b",
      "l1GasPrice": "0xf6aecac2",
      "l1GasUsed": "0xafb"
    },
    {
      "status": "0x1",
      "cumulativeGasUsed": "0x1202dc",
      "logs": [
        {
          "address": "0xb2ae1c8f4461fafd3af0db9e5bdc5ce89316e080",
          "topics": [
            "0x4018fcb748592685f34200d22f4fb69f64e6bda52dc414278eb06dfb19f1a5ba"
          ],
          "data": "0x0000000000000000000000000000000000000000000000000000000000001388",
          "blockHash": "0x734820c99e3d0ff8efce5b47a89758eb20c97bd77b890740bc23c40032e39faf",
          "blockNumber": "0x28b84b7",
          "blockTimestamp": "0x6a2a684e",
          "transactionHash": "0xde914d684441a985f8f9af028b4dfe8d0451359ba0a1470ce276cf6a1f163ffb",
          "transactionIndex": "0x4",
          "logIndex": "0x3f",
          "removed": false
        }
      ],
      "logsBloom": "0x00000000000000000000000000000000000000000000000000000000000000000000000000000000000000000000000000000000000000000000000000000000000000000004000000000400000000000000000000000000000000000000000000000000000000000000000000000000000000000000000000000000000000000000000000000000000000000000000000000400000000000000000000000000000000000000000000000000000000000000000000000000000000000000000000000000000000000000000000000000000000000000000000040400010000000000000000000000000000000000000000000000000000000000000000000000",
      "type": "0x2",
      "transactionHash": "0xde914d684441a985f8f9af028b4dfe8d0451359ba0a1470ce276cf6a1f163ffb",
      "transactionIndex": "0x4",
      "blockHash": "0x734820c99e3d0ff8efce5b47a89758eb20c97bd77b890740bc23c40032e39faf",
      "blockNumber": "0x28b84b7",
      "gasUsed": "0x19f4e",
      "effectiveGasPrice": "0x5b8d80",
      "blobGasUsed": "0xae38",
      "from": "0xff6bdef4fb646ee44e29fe8fc0862b02f0ba8a33",
      "to": "0xb2ae1c8f4461fafd3af0db9e5bdc5ce89316e080",
      "contractAddress": null,
      "daFootprintGasScalar": "0x1be",
      "l1BaseFeeScalar": "0x44d",
      "l1BlobBaseFee": "0xddd57b7",
      "l1BlobBaseFeeScalar": "0xa118b",
      "l1Fee": "0x54a4c4cac",
      "l1GasPrice": "0xf974737e",
      "l1GasUsed": "0x640"
    },
    {
      "status": "0x1",
      "cumulativeGasUsed": "0x2fcf62",
      "logs": [
        {
          "address": "0x784d2221e11f4e87fa031aac15c168d27b5cceb4",
          "topics": [
            "0xddf252ad1be2c89b69c2b068fc378daa952ba7f163c4a11628f55a4df523b3ef",
            "0x000000000000000000000000ff6bdef4fb646ee44e29fe8fc0862b02f0ba8a33",
            "0x000000000000000000000000b2ae1c8f4461fafd3af0db9e5bdc5ce89316e080"
          ],
          "data": "0x0000000000000000000000000000000000000000000000000000000077359400",
          "blockHash": "0xe7650847d9051b64cb46144102f2dec265513721081d01311cfcb3fa1a025839",
          "blockNumber": "0x28b84b8",
          "blockTimestamp": "0x6a2a6850",
          "transactionHash": "0xbcdd789c149914f5fe79da26270581b220af19e6baf6fa2abf8936305b8abcbf",
          "transactionIndex": "0xc",
          "logIndex": "0x5b",
          "removed": false
        },
        {
          "address": "0xb2ae1c8f4461fafd3af0db9e5bdc5ce89316e080",
          "topics": [
            "0x26b8fad11da5740fffba282b3ba46348c95e4bf89e9fc60146d45e941b92c4fc",
            "0x000000000000000000000000ff6bdef4fb646ee44e29fe8fc0862b02f0ba8a33"
          ],
          "data": "0x00000000000000000000000000000000000000000000000000000000773594000000000000000000000000000000000000000000000000000000000077359400",
          "blockHash": "0xe7650847d9051b64cb46144102f2dec265513721081d01311cfcb3fa1a025839",
          "blockNumber": "0x28b84b8",
          "blockTimestamp": "0x6a2a6850",
          "transactionHash": "0xbcdd789c149914f5fe79da26270581b220af19e6baf6fa2abf8936305b8abcbf",
          "transactionIndex": "0xc",
          "logIndex": "0x5c",
          "removed": false
        }
      ],
      "logsBloom": "0x00000000000000000000100000000000000000000000000000000000000000000000000000000000000001000000000000000020000000000000000000000000000000000000000000000008000000000000000000000001000000000000000000000000000000000000000000000000000000000000000000000010000000000000000000000000000000001000000000000000000000000000000000000000000000000000000000000000000000000000000000000000400000000000000000000002000000000000000200010000000000000000000000040400010000001000000000000000000000000000000000000000000000000008000080001000",
      "type": "0x2",
      "transactionHash": "0xbcdd789c149914f5fe79da26270581b220af19e6baf6fa2abf8936305b8abcbf",
      "transactionIndex": "0xc",
      "blockHash": "0xe7650847d9051b64cb46144102f2dec265513721081d01311cfcb3fa1a025839",
      "blockNumber": "0x28b84b8",
      "gasUsed": "0x18de7",
      "effectiveGasPrice": "0x5b8d80",
      "blobGasUsed": "0xae38",
      "from": "0xff6bdef4fb646ee44e29fe8fc0862b02f0ba8a33",
      "to": "0xb2ae1c8f4461fafd3af0db9e5bdc5ce89316e080",
      "contractAddress": null,
      "daFootprintGasScalar": "0x1be",
      "l1BaseFeeScalar": "0x44d",
      "l1BlobBaseFee": "0xddd57b7",
      "l1BlobBaseFeeScalar": "0xa118b",
      "l1Fee": "0x54a4c4cac",
      "l1GasPrice": "0xf974737e",
      "l1GasUsed": "0x640"
    },
    {
      "status": "0x1",
      "cumulativeGasUsed": "0x36985f",
      "logs": [
        {
          "address": "0x66b3b38fce61b0e5c96e9a1f0279321b14ac54d0",
          "topics": [
            "0xf06d825adfb713360b9703a6cd4510b7e21da224ee5ade3542128b322e0b2afd",
            "0x000000000000000000000000b2ae1c8f4461fafd3af0db9e5bdc5ce89316e080"
          ],
          "data": "0x",
          "blockHash": "0x6c65bd616de3f38478ac5fecdbebe1174f0f3088ffe8578e3a0214932290fd5b",
          "blockNumber": "0x28b84b9",
          "blockTimestamp": "0x6a2a6852",
          "transactionHash": "0x3b2571ff6ca29bb3e4829ba577241deaf41a34d493b5aadbb2d1c1101862a928",
          "transactionIndex": "0xa",
          "logIndex": "0x20",
          "removed": false
        }
      ],
      "logsBloom": "0x00000000000000000000000020000000000000000000000000000000000000000000000000000000000000000000001000000000000000000000000000000000000000000000000000000000000000000000000000000000000000000000000080000000000000000000000000000000000000000000000000000000000000000020000000000000000000000000000000000000000000000000000000000000000000000010000000000000000000000000000000000000000000000000000000000400000000000000000200000000000000000000000000000000000000001000000000000000000000000000000000000000000000000000000000001000",
      "type": "0x2",
      "transactionHash": "0x3b2571ff6ca29bb3e4829ba577241deaf41a34d493b5aadbb2d1c1101862a928",
      "transactionIndex": "0xa",
      "blockHash": "0x6c65bd616de3f38478ac5fecdbebe1174f0f3088ffe8578e3a0214932290fd5b",
      "blockNumber": "0x28b84b9",
      "gasUsed": "0x1cc14",
      "effectiveGasPrice": "0x5b8d80",
      "blobGasUsed": "0xae38",
      "from": "0xff6bdef4fb646ee44e29fe8fc0862b02f0ba8a33",
      "to": "0xaf81c05747eda1e1715ff23626ab83c3351dcff6",
      "contractAddress": null,
      "daFootprintGasScalar": "0x1be",
      "l1BaseFeeScalar": "0x44d",
      "l1BlobBaseFee": "0xddd57b7",
      "l1BlobBaseFeeScalar": "0xa118b",
      "l1Fee": "0x54a4c4cac",
      "l1GasPrice": "0xf974737e",
      "l1GasUsed": "0x640"
    }
  ],
  "libraries": [],
  "pending": [],
  "returns": {},
  "timestamp": 1781164114594,
  "chain": 84532,
  "commit": "4d1a755"
}