{
  "transactions": [
    {
      "hash": "0x224cbb6f2730f1d51233b664676bcfa0dd6f1ddfacb75ef2ccf2864d8643610f",
      "transactionType": "CREATE",
      "contractName": "CampaignProceedsSplitModule",
      "contractAddress": "0x989659d823011127af2757a7164ff57f6dac9bc7",
      "function": null,
      "arguments": null,
      "transaction": {
        "from": "0xff6bdef4fb646ee44e29fe8fc0862b02f0ba8a33",
        "to": null,
        "gas": "0x566dc",
        "value": "0x0",
        "input": "0x60808060405234610016576103f5908161001b8239f35b5f80fdfe608060409080825260049081361015610016575f80fd5b5f3560e01c90816315d496c6146101c55750806317054ad6146101265780639d6b0bc1146100775763e85860d61461004c575f80fd5b34610073576020366003190112610073576100679035610353565b82519182526020820152f35b5f80fd5b509034610073575f366003190112610073577f97c54a0bf039447711bcab434c5a40b95f0e18b67d18363706a9ce32d1b0cc6f546001600160a01b03163303610119575f805160206103a08339815191529182549160ff8360b01c161561010c5750506001600160b81b03191690557ff7b923f72abecc038364c9f73232f3934f37031adb3854c6b5cb79cc8b85c4755f80a1005b5163a88ee57760e01b8152fd5b5163428a0e1f60e11b8152fd5b8234610073575f366003190112610073575f805160206103a0833981519152547f97c54a0bf039447711bcab434c5a40b95f0e18b67d18363706a9ce32d1b0cc6f5460a09260b083901c60ff169261ffff926001600160a01b039081169282871c85169290919086156101bc5761019c8461032b565b945b83519715158852602088015216908501526060840152166080820152f35b6127109461019e565b9050823461007357806003193601126100735782356001600160a01b038181169391849003610073576024359461ffff918287169384880361007357817f97c54a0bf039447711bcab434c5a40b95f0e18b67d18363706a9ce32d1b0cc6f5416330361031d5750851561030e5783158015610303575b6102f4575f805160206103a0833981519152918254918760ff8460b01c1691826102e8575b5050806102da575b6102cc575060a087901b61ffff60a01b166001600160b81b0319909116861717600160b01b17905592937f4df3ec6150582b78995803d31e197a1359883911bdc948639f25ae3db11acc7893906102be9061032b565b8351928352166020820152a2005b855163a88ee57760e01b8152fd5b5084848360a01c1614610268565b8416149050878a610260565b50835163c6cc5d7f60e01b8152fd5b50612710841161023b565b50835163d92e233d60e01b8152fd5b63428a0e1f60e11b81529050fd5b9061ffff8092166127100391821161033f57565b634e487b7160e01b5f52601160045260245ffd5b5f805160206103a08339815191525460ff8160b01c16156103995761ffff9060a01c1680820290828204148215171561033f5761271090049081810390811161033f5791565b50905f9056fe42bf718305fc64ba040690224a5dbdd05d355220311634ca593020a819cb9984a2646970667358221220fcf5d2c31ee2790fffde04aa4aa594fcb541beda76493d8178abcb45a6b671e464736f6c63430008180033",
        "nonce": "0xee",
        "chainId": "0xaa36a7"
      },
      "additionalContracts": [],
      "isFixedGasLimit": false
    },
    {
      "hash": "0x2ec042ac420fa93bfe3415fdb26466cb4bd56401e0e39a4c667e85fdfa473f93",
      "transactionType": "CREATE",
      "contractName": "DirectIssueModule",
      "contractAddress": "0x36cd3cab0c1b039dcb2b1bfba6bf926078f705a3",
      "function": null,
      "arguments": null,
      "transaction": {
        "from": "0xff6bdef4fb646ee44e29fe8fc0862b02f0ba8a33",
        "to": null,
        "gas": "0x86e98",
        "value": "0x0",
        "input": "0x60808060405234610016576106b8908161001b8239f35b5f80fdfe608060409080825260049081361015610016575f80fd5b5f3560e01c9081631f469013146102c1575080639dcf26431461006e5763fd0b0fb214610041575f80fd5b3461006a57602036600319011261006a5761005c90356104cb565b825191825215156020820152f35b5f80fd5b503461006a578160031936011261006a5767ffffffffffffffff90803582811161006a5761009f9036908301610419565b909260243590811161006a576100b89036908401610419565b7f97c54a0bf039447711bcab434c5a40b95f0e18b67d18363706a9ce32d1b0cc6f546001600160a01b039390841633036102b15781810361029e57801561028e575f805b838210610228576101159150610110610550565b610614565b95847f97c54a0bf039447711bcab434c5a40b95f0e18b67d18363706a9ce32d1b0cc7154165f5b83811061014d576020898b51908152f35b61016061015b82868661044a565b61046e565b9061016c81878961044a565b35833b1561006a578b516340c10f1960e01b81526001600160a01b03909316838b0190815260208101919091528b92905f9082908190604001038183885af1801561021e576001938a8a6101fa8f958c6101f461015b8a8f8f82967f3429ccffd4ebc375788003b55807cf1ffbb2cc869b0c47b395d49d12f0ce3a4d9c61020f575b5061044a565b9361044a565b3594835195865260208601521692a20161013c565b610218906104a3565b5f6101ee565b83513d5f823e3d90fd5b8561023761015b84868c61044a565b161561027e5761024882858761044a565b351561026e5761026660019161025f84878961044a565b3590610482565b9101906100fc565b8851631f2a200560e01b81528790fd5b885163d92e233d60e01b81528790fd5b8651631f2a200560e01b81528590fd5b86516001621398b960e31b031981528590fd5b865163428a0e1f60e11b81528590fd5b82843461006a578060031936011261006a576001600160a01b03918035838116919082810361006a5760243595857f97c54a0bf039447711bcab434c5a40b95f0e18b67d18363706a9ce32d1b0cc6f5416330361040b575082156103fc5785156103ed5761032d610550565b61033686610614565b947f97c54a0bf039447711bcab434c5a40b95f0e18b67d18363706a9ce32d1b0cc71541691823b1561006a5784516340c10f1960e01b81526001600160a01b039092169082019081526020810187905290915f9183919082908490829060400103925af1801561021e576020957f3429ccffd4ebc375788003b55807cf1ffbb2cc869b0c47b395d49d12f0ce3a4d9285926103de575b5081519081528587820152a251908152f35b6103e7906104a3565b876103cc565b508251631f2a200560e01b8152fd5b50825163d92e233d60e01b8152fd5b63428a0e1f60e11b81529050fd5b9181601f8401121561006a5782359167ffffffffffffffff831161006a576020808501948460051b01011161006a57565b919081101561045a5760051b0190565b634e487b7160e01b5f52603260045260245ffd5b356001600160a01b038116810361006a5790565b9190820180921161048f57565b634e487b7160e01b5f52601160045260245ffd5b67ffffffffffffffff81116104b757604052565b634e487b7160e01b5f52604160045260245ffd5b908115610527576105207fd7250d23bb7bc8e93366cf6815d31bcb947e004baa702b9bb515d6082501a23a54927fd7250d23bb7bc8e93366cf6815d31bcb947e004baa702b9bb515d6082501a2365493610482565b9182111590565b7fd7250d23bb7bc8e93366cf6815d31bcb947e004baa702b9bb515d6082501a23a549150600190565b7f97c54a0bf039447711bcab434c5a40b95f0e18b67d18363706a9ce32d1b0cc71546001600160a01b0316156105cb577f97c54a0bf039447711bcab434c5a40b95f0e18b67d18363706a9ce32d1b0cc765460ff8160a81c1680156105e9575b6105cb5760a01c60ff1680151590816105dd575b506105cb57565b60405163baf3f0f760e01b8152600490fd5b6001915014155f6105c4565b5060ff7f97c54a0bf039447711bcab434c5a40b95f0e18b67d18363706a9ce32d1b0cc7b54166105b0565b907fd7250d23bb7bc8e93366cf6815d31bcb947e004baa702b9bb515d6082501a23a6106648154937fd7250d23bb7bc8e93366cf6815d31bcb947e004baa702b9bb515d6082501a2365494610482565b92831161067057829055565b6040516305abcf8160e41b8152600490fdfea26469706673582212204353f1c95b5f9119a02b751b7163e2bd1480cd0339b83d695441d9119c22d9a764736f6c63430008180033",
        "nonce": "0xef",
        "chainId": "0xaa36a7"
      },
      "additionalContracts": [],
      "isFixedGasLimit": false
    },
    {
      "hash": "0x7652e686065722596e53c40bf41c3cec3c665d90062454aacf3612f31669094a",
      "transactionType": "CALL",
      "contractName": null,
      "contractAddress": "0xa4ded8ab35e89bcaf1f7dfeb7ab2c1ed533b3f05",
      "function": "setModuleKindSelectors(bytes32,bytes4[])",
      "arguments": [
        "0xc921820d269e802042a87c6f3113cadc04b2e104586f5eacf569b70256c98a7c",
        "[0x15d496c6, 0x9d6b0bc1, 0x17054ad6, 0xe85860d6]"
      ],
      "transaction": {
        "from": "0xff6bdef4fb646ee44e29fe8fc0862b02f0ba8a33",
        "to": "0xa4ded8ab35e89bcaf1f7dfeb7ab2c1ed533b3f05",
        "gas": "0xe538",
        "value": "0x0",
        "input": "0x7936fe1bc921820d269e802042a87c6f3113cadc04b2e104586f5eacf569b70256c98a7c0000000000000000000000000000000000000000000000000000000000000040000000000000000000000000000000000000000000000000000000000000000415d496c6000000000000000000000000000000000000000000000000000000009d6b0bc10000000000000000000000000000000000000000000000000000000017054ad600000000000000000000000000000000000000000000000000000000e85860d600000000000000000000000000000000000000000000000000000000",
        "nonce": "0xf0",
        "chainId": "0xaa36a7"
      },
      "additionalContracts": [],
      "isFixedGasLimit": false
    },
    {
      "hash": "0x28fca0c30788cc1e3402c4e1fb34f3e7e8c56e7829af5b8ceab8a010fffdc4c8",
      "transactionType": "CALL",
      "contractName": null,
      "contractAddress": "0xa4ded8ab35e89bcaf1f7dfeb7ab2c1ed533b3f05",
      "function": "approveModuleImpl(bytes32,address,bool)",
      "arguments": [
        "0xc921820d269e802042a87c6f3113cadc04b2e104586f5eacf569b70256c98a7c",
        "0x989659D823011127af2757A7164Ff57f6daC9Bc7",
        "true"
      ],
      "transaction": {
        "from": "0xff6bdef4fb646ee44e29fe8fc0862b02f0ba8a33",
        "to": "0xa4ded8ab35e89bcaf1f7dfeb7ab2c1ed533b3f05",
        "gas": "0x12a10",
        "value": "0x0",
        "input": "0xf63de9cdc921820d269e802042a87c6f3113cadc04b2e104586f5eacf569b70256c98a7c000000000000000000000000989659d823011127af2757a7164ff57f6dac9bc70000000000000000000000000000000000000000000000000000000000000001",
        "nonce": "0xf1",
        "chainId": "0xaa36a7"
      },
      "additionalContracts": [],
      "isFixedGasLimit": false
    },
    {
      "hash": "0x46ae54541235ef24efb1e31422efb7863e482bfd5b57e00ba9b496f546c99280",
      "transactionType": "CALL",
      "contractName": null,
      "contractAddress": "0xa4ded8ab35e89bcaf1f7dfeb7ab2c1ed533b3f05",
      "function": "setModuleKindSelectors(bytes32,bytes4[])",
      "arguments": [
        "0xc0b13d8cc9d9ca49de3ae4a65abe3c0df35c00d8cb9aac4e986e3f9c035f112f",
        "[0x1f469013, 0x9dcf2643, 0xfd0b0fb2]"
      ],
      "transaction": {
        "from": "0xff6bdef4fb646ee44e29fe8fc0862b02f0ba8a33",
        "to": "0xa4ded8ab35e89bcaf1f7dfeb7ab2c1ed533b3f05",
        "gas": "0xe6e7",
        "value": "0x0",
        "input": "0x7936fe1bc0b13d8cc9d9ca49de3ae4a65abe3c0df35c00d8cb9aac4e986e3f9c035f112f000000000000000000000000000000000000000000000000000000000000004000000000000000000000000000000000000000000000000000000000000000031f469013000000000000000000000000000000000000000000000000000000009dcf264300000000000000000000000000000000000000000000000000000000fd0b0fb200000000000000000000000000000000000000000000000000000000",
        "nonce": "0xf2",
        "chainId": "0xaa36a7"
      },
      "additionalContracts": [],
      "isFixedGasLimit": false
    },
    {
      "hash": "0xc4a8dde53051cd8f7acc19872a2556fd28071df5da13f89cfe6b7289ff0616de",
      "transactionType": "CALL",
      "contractName": null,
      "contractAddress": "0xa4ded8ab35e89bcaf1f7dfeb7ab2c1ed533b3f05",
      "function": "approveModuleImpl(bytes32,address,bool)",
      "arguments": [
        "0xc0b13d8cc9d9ca49de3ae4a65abe3c0df35c00d8cb9aac4e986e3f9c035f112f",
        "0x36cd3caB0c1b039dCB2B1BFba6bf926078f705A3",
        "true"
      ],
      "transaction": {
        "from": "0xff6bdef4fb646ee44e29fe8fc0862b02f0ba8a33",
        "to": "0xa4ded8ab35e89bcaf1f7dfeb7ab2c1ed533b3f05",
        "gas": "0x12a01",
        "value": "0x0",
        "input": "0xf63de9cdc0b13d8cc9d9ca49de3ae4a65abe3c0df35c00d8cb9aac4e986e3f9c035f112f00000000000000000000000036cd3cab0c1b039dcb2b1bfba6bf926078f705a30000000000000000000000000000000000000000000000000000000000000001",
        "nonce": "0xf3",
        "chainId": "0xaa36a7"
      },
      "additionalContracts": [],
      "isFixedGasLimit": false
    },
    {
      "hash": "0x42eb16ec13fd08114262802150faa86824dab84c00387c6a2cb5b44fa3edfa47",
      "transactionType": "CALL",
      "contractName": null,
      "contractAddress": "0xa4ded8ab35e89bcaf1f7dfeb7ab2c1ed533b3f05",
      "function": "createCampaign((address,string,string,string,string,uint256,(uint256,uint256,uint256,uint256,uint256,uint256,address,address),(uint256,uint256,uint256,uint256)))",
      "arguments": [
        "(0xFF6bdef4fB646EE44e29FE8FC0862B02F0Ba8a33, Sepolia Split 100 Seed 11195021-1783091616, SPLIT100, Sepolia Split 100 Yield 11195021-1783091616, ySPLIT, 1000000000000000000, (144000000000000000, 1000000000000000000, 100000000000000000000, 1785683616, 31536000, 0, 0x0000000000000000000000000000000000000000, 0x0000000000000000000000000000000000000000), (1000000000000000000, 1000000000000000000, 2030, 0))"
      ],
      "transaction": {
        "from": "0xff6bdef4fb646ee44e29fe8fc0862b02f0ba8a33",
        "to": "0xa4ded8ab35e89bcaf1f7dfeb7ab2c1ed533b3f05",
        "gas": "0x7c4c93",
        "value": "0x0",
        "input": "0xe5bb36800000000000000000000000000000000000000000000000000000000000000020000000000000000000000000ff6bdef4fb646ee44e29fe8fc0862b02f0ba8a33000000000000000000000000000000000000000000000000000000000000024000000000000000000000000000000000000000000000000000000000000002a000000000000000000000000000000000000000000000000000000000000002e000000000000000000000000000000000000000000000000000000000000003400000000000000000000000000000000000000000000000000de0b6b3a764000000000000000000000000000000000000000000000000000001ff973cafa800000000000000000000000000000000000000000000000000000de0b6b3a76400000000000000000000000000000000000000000000000000056bc75e2d63100000000000000000000000000000000000000000000000000000000000006a6f5ea00000000000000000000000000000000000000000000000000000000001e133800000000000000000000000000000000000000000000000000000000000000000000000000000000000000000000000000000000000000000000000000000000000000000000000000000000000000000000000000000000000000000000000000000000000000000000000000000000000000000000000000de0b6b3a76400000000000000000000000000000000000000000000000000000de0b6b3a764000000000000000000000000000000000000000000000000000000000000000007ee0000000000000000000000000000000000000000000000000000000000000000000000000000000000000000000000000000000000000000000000000000002a5365706f6c69612053706c69742031303020536565642031313139353032312d3137383330393136313600000000000000000000000000000000000000000000000000000000000000000000000000000000000000000000000000000000000853504c4954313030000000000000000000000000000000000000000000000000000000000000000000000000000000000000000000000000000000000000002b5365706f6c69612053706c697420313030205969656c642031313139353032312d3137383330393136313600000000000000000000000000000000000000000000000000000000000000000000000000000000000000000000000000000000067953504c49540000000000000000000000000000000000000000000000000000",
        "nonce": "0xf4",
        "chainId": "0xaa36a7"
      },
      "additionalContracts": [
        {
          "transactionType": "CREATE",
          "contractName": "TransparentUpgradeableProxy",
          "address": "0x64e8ce3911646154e4e29d715c12b5b1b948d196",
          "initCode": "0x604060a08152610aac8038038061001581610268565b9283398101906060818303126102645761002e8161028d565b60209161003c83820161028d565b8582015190916001600160401b039190828211610264570185601f82011215610264578051908282116101ef5761007b601f8301601f19168701610268565b968288528683830101116102645785905f5b8381106102505750505f918701015284511561023f57823b1561021f577f360894a13ba1a3210667c828492db98dca3e2076cc3735a920a3ca505d382bbc80546001600160a01b03199081166001600160a01b03868116918217909355885192979195907fbc7cd75a20ee27fd9adebab32041f755214dbc6bffa90cc0225b39da2e5c2d3b5f80a28151156102035761012692506102a1565b505b85519161048391828401908111848210176101ef57868492879461062985391681520301905ff080156101e557831691826080527f7e644d79422f17c01e4894b5f4f588d331ebfa28653d42ae832dc59e38c9798f857fb53127684a568b3173ae13b9f8a6016e243e63b6e8ee1178d6a717850b5d6103958587549483519286168352820152a182156101ce5716179055516102f69081610333823960805181600f0152f35b8451633173bdd160e11b81525f6004820152602490fd5b84513d5f823e3d90fd5b634e487b7160e01b5f52604160045260245ffd5b5050346102105750610128565b63b398979f60e01b8152600490fd5b8551634c9c8ce360e01b81526001600160a01b0384166004820152602490fd5b85516330a289cf60e21b8152600490fd5b81810183015189820184015287920161008d565b5f80fd5b6040519190601f01601f191682016001600160401b038111838210176101ef57604052565b51906001600160a01b038216820361026457565b905f8091602081519101845af4808061031f575b156102d55750506040513d81523d5f602083013e60203d82010160405290565b156102fc57604051639996b31560e01b81526001600160a01b039091166004820152602490fd5b3d1561030d576040513d5f823e3d90fd5b60405163d6bda27560e01b8152600490fd5b503d1515806102b55750813b15156102b556fe60806040526001600160a01b03337f000000000000000000000000000000000000000000000000000000000000000082160361006a575f356001600160e01b03191663278f794360e11b14610060576040516334ad5dbb60e21b8152600490fd5b6100686100be565b005b5f80917f360894a13ba1a3210667c828492db98dca3e2076cc3735a920a3ca505d382bbc5416368280378136915af43d5f803e156100a6573d5ff35b3d5ffd5b634e487b7160e01b5f52604160045260245ffd5b3660041161015f57604036600319011261015f576004356001600160a01b0381169081900361015f576024359067ffffffffffffffff9081831161015f573660238401121561015f5782600401358281116101635760405192601f8201601f19908116603f011684019081118482101761016357604052808352366024828601011161015f576020815f92602461015d97018387013784010152610168565b565b5f80fd5b6100aa565b90813b156101ff577f360894a13ba1a3210667c828492db98dca3e2076cc3735a920a3ca505d382bbc80546001600160a01b0319166001600160a01b0384169081179091557fbc7cd75a20ee27fd9adebab32041f755214dbc6bffa90cc0225b39da2e5c2d3b5f80a28051156101e4576101e191610220565b50565b5050346101ed57565b60405163b398979f60e01b8152600490fd5b604051634c9c8ce360e01b81526001600160a01b0383166004820152602490fd5b905f8091602081519101845af48080610289575b156102465750506102436102a7565b90565b1561026e57604051639996b31560e01b81526001600160a01b03919091166004820152602490fd5b3d15155f0361029c5760405163d6bda27560e01b8152600490fd5b503d1515806102345750813b1515610234565b6040513d5f823e3d90fd5b604051903d82523d5f602084013e60203d83010160405256fea2646970667358221220371437a14d55b0192ed17af74450cdb0b22bf1f3d480185986e4348c96e968d064736f6c634300081800336080346100b957601f61048338819003918201601f19168301916001600160401b038311848410176100bd578084926020946040528339810103126100b957516001600160a01b0390818116908190036100b95780156100a1575f80546001600160a01b03198116831782556040519316907f8be0079c531659141344cd1fd0a4f28419497f9722a3daafe3b4186f6b6457e09080a36103b190816100d28239f35b604051631e4fbdf760e01b81525f6004820152602490fd5b5f80fd5b634e487b7160e01b5f52604160045260245ffdfe604060808152600480361015610013575f80fd5b5f915f3560e01c8063715018a6146102bb5780638da5cb5b146102945780639623609d1461015c578063ad3cb1cc146100eb5763f2fde38b14610054575f80fd5b346100e75760203660031901126100e7576001600160a01b038235818116939192908490036100e357610085610350565b83156100cd5750505f54826bffffffffffffffffffffffff60a01b8216175f55167f8be0079c531659141344cd1fd0a4f28419497f9722a3daafe3b4186f6b6457e05f80a380f35b51631e4fbdf760e01b8152908101849052602490fd5b5f80fd5b8280fd5b5082346101595780600319360112610159575080519080820182811067ffffffffffffffff821117610146576101429350815260058252640352e302e360dc1b602083015251918291602083526020830190610312565b0390f35b604184634e487b7160e01b5f525260245ffd5b80fd5b5060603660031901126100e3576001600160a01b03823581811693908490036100e35760249182359081168091036100e35767ffffffffffffffff906044358281116100e357366023820112156100e3578084013583811161028257865191601f8201601f19908116603f0116830185811184821017610270578852818352368783830101116100e357815f92886020930183860137830101526101fe610350565b863b156100e357610230965f92875180998194829363278f794360e11b8452898401528a8a8401526044830190610312565b039134905af1801561026657610244578580f35b909192938095501161025557505052005b604190634e487b7160e01b5f52525ffd5b84513d5f823e3d90fd5b87604188634e487b7160e01b5f52525ffd5b85604186634e487b7160e01b5f52525ffd5b50346100e3575f3660031901126100e3575f5490516001600160a01b039091168152602090f35b346100e3575f3660031901126100e3576102d3610350565b5f80546001600160a01b0319811682556001600160a01b03167f8be0079c531659141344cd1fd0a4f28419497f9722a3daafe3b4186f6b6457e08280a3005b91908251928382525f5b84811061033c575050825f602080949584010152601f8019910116010190565b60208183018101518483018201520161031c565b5f546001600160a01b0316330361036357565b60405163118cdaa760e01b8152336004820152602490fdfea26469706673582212202992a71449476404159c12582e1f3d5c014ae92bc1369e2e03b37152567a3c7d64736f6c634300081800330000000000000000000000004e53cf93d2927d225668ee570dc3fa8b55917130000000000000000000000000ff6bdef4fb646ee44e29fe8fc0862b02f0ba8a33000000000000000000000000000000000000000000000000000000000000006000000000000000000000000000000000000000000000000000000000000000840415cc15000000000000000000000000ff6bdef4fb646ee44e29fe8fc0862b02f0ba8a33000000000000000000000000a4ded8ab35e89bcaf1f7dfeb7ab2c1ed533b3f0500000000000000000000000032c344dc9713d904442d0e5b0d2b7994e52b0d4e000000000000000000000000f1a8527e00916588f4bb137ce450e8459b6bd43600000000000000000000000000000000000000000000000000000000"
        },
        {
          "transactionType": "CREATE",
          "contractName": "ProxyAdmin",
          "address": "0x6463262d1c5f322d4e9e3296fa6234f62e4efd93",
          "initCode": "0x6080346100b957601f61048338819003918201601f19168301916001600160401b038311848410176100bd578084926020946040528339810103126100b957516001600160a01b0390818116908190036100b95780156100a1575f80546001600160a01b03198116831782556040519316907f8be0079c531659141344cd1fd0a4f28419497f9722a3daafe3b4186f6b6457e09080a36103b190816100d28239f35b604051631e4fbdf760e01b81525f6004820152602490fd5b5f80fd5b634e487b7160e01b5f52604160045260245ffdfe604060808152600480361015610013575f80fd5b5f915f3560e01c8063715018a6146102bb5780638da5cb5b146102945780639623609d1461015c578063ad3cb1cc146100eb5763f2fde38b14610054575f80fd5b346100e75760203660031901126100e7576001600160a01b038235818116939192908490036100e357610085610350565b83156100cd5750505f54826bffffffffffffffffffffffff60a01b8216175f55167f8be0079c531659141344cd1fd0a4f28419497f9722a3daafe3b4186f6b6457e05f80a380f35b51631e4fbdf760e01b8152908101849052602490fd5b5f80fd5b8280fd5b5082346101595780600319360112610159575080519080820182811067ffffffffffffffff821117610146576101429350815260058252640352e302e360dc1b602083015251918291602083526020830190610312565b0390f35b604184634e487b7160e01b5f525260245ffd5b80fd5b5060603660031901126100e3576001600160a01b03823581811693908490036100e35760249182359081168091036100e35767ffffffffffffffff906044358281116100e357366023820112156100e3578084013583811161028257865191601f8201601f19908116603f0116830185811184821017610270578852818352368783830101116100e357815f92886020930183860137830101526101fe610350565b863b156100e357610230965f92875180998194829363278f794360e11b8452898401528a8a8401526044830190610312565b039134905af1801561026657610244578580f35b909192938095501161025557505052005b604190634e487b7160e01b5f52525ffd5b84513d5f823e3d90fd5b87604188634e487b7160e01b5f52525ffd5b85604186634e487b7160e01b5f52525ffd5b50346100e3575f3660031901126100e3575f5490516001600160a01b039091168152602090f35b346100e3575f3660031901126100e3576102d3610350565b5f80546001600160a01b0319811682556001600160a01b03167f8be0079c531659141344cd1fd0a4f28419497f9722a3daafe3b4186f6b6457e08280a3005b91908251928382525f5b84811061033c575050825f602080949584010152601f8019910116010190565b60208183018101518483018201520161031c565b5f546001600160a01b0316330361036357565b60405163118cdaa760e01b8152336004820152602490fdfea26469706673582212202992a71449476404159c12582e1f3d5c014ae92bc1369e2e03b37152567a3c7d64736f6c63430008180033000000000000000000000000ff6bdef4fb646ee44e29fe8fc0862b02f0ba8a33"
        },
        {
          "transactionType": "CREATE",
          "contractName": "TransparentUpgradeableProxy",
          "address": "0x3eef0143f986c46143d08acbb499862b63116568",
          "initCode": "0x604060a08152610aac8038038061001581610268565b9283398101906060818303126102645761002e8161028d565b60209161003c83820161028d565b8582015190916001600160401b039190828211610264570185601f82011215610264578051908282116101ef5761007b601f8301601f19168701610268565b968288528683830101116102645785905f5b8381106102505750505f918701015284511561023f57823b1561021f577f360894a13ba1a3210667c828492db98dca3e2076cc3735a920a3ca505d382bbc80546001600160a01b03199081166001600160a01b03868116918217909355885192979195907fbc7cd75a20ee27fd9adebab32041f755214dbc6bffa90cc0225b39da2e5c2d3b5f80a28151156102035761012692506102a1565b505b85519161048391828401908111848210176101ef57868492879461062985391681520301905ff080156101e557831691826080527f7e644d79422f17c01e4894b5f4f588d331ebfa28653d42ae832dc59e38c9798f857fb53127684a568b3173ae13b9f8a6016e243e63b6e8ee1178d6a717850b5d6103958587549483519286168352820152a182156101ce5716179055516102f69081610333823960805181600f0152f35b8451633173bdd160e11b81525f6004820152602490fd5b84513d5f823e3d90fd5b634e487b7160e01b5f52604160045260245ffd5b5050346102105750610128565b63b398979f60e01b8152600490fd5b8551634c9c8ce360e01b81526001600160a01b0384166004820152602490fd5b85516330a289cf60e21b8152600490fd5b81810183015189820184015287920161008d565b5f80fd5b6040519190601f01601f191682016001600160401b038111838210176101ef57604052565b51906001600160a01b038216820361026457565b905f8091602081519101845af4808061031f575b156102d55750506040513d81523d5f602083013e60203d82010160405290565b156102fc57604051639996b31560e01b81526001600160a01b039091166004820152602490fd5b3d1561030d576040513d5f823e3d90fd5b60405163d6bda27560e01b8152600490fd5b503d1515806102b55750813b15156102b556fe60806040526001600160a01b03337f000000000000000000000000000000000000000000000000000000000000000082160361006a575f356001600160e01b03191663278f794360e11b14610060576040516334ad5dbb60e21b8152600490fd5b6100686100be565b005b5f80917f360894a13ba1a3210667c828492db98dca3e2076cc3735a920a3ca505d382bbc5416368280378136915af43d5f803e156100a6573d5ff35b3d5ffd5b634e487b7160e01b5f52604160045260245ffd5b3660041161015f57604036600319011261015f576004356001600160a01b0381169081900361015f576024359067ffffffffffffffff9081831161015f573660238401121561015f5782600401358281116101635760405192601f8201601f19908116603f011684019081118482101761016357604052808352366024828601011161015f576020815f92602461015d97018387013784010152610168565b565b5f80fd5b6100aa565b90813b156101ff577f360894a13ba1a3210667c828492db98dca3e2076cc3735a920a3ca505d382bbc80546001600160a01b0319166001600160a01b0384169081179091557fbc7cd75a20ee27fd9adebab32041f755214dbc6bffa90cc0225b39da2e5c2d3b5f80a28051156101e4576101e191610220565b50565b5050346101ed57565b60405163b398979f60e01b8152600490fd5b604051634c9c8ce360e01b81526001600160a01b0383166004820152602490fd5b905f8091602081519101845af48080610289575b156102465750506102436102a7565b90565b1561026e57604051639996b31560e01b81526001600160a01b03919091166004820152602490fd5b3d15155f0361029c5760405163d6bda27560e01b8152600490fd5b503d1515806102345750813b1515610234565b6040513d5f823e3d90fd5b604051903d82523d5f602084013e60203d83010160405256fea2646970667358221220371437a14d55b0192ed17af74450cdb0b22bf1f3d480185986e4348c96e968d064736f6c634300081800336080346100b957601f61048338819003918201601f19168301916001600160401b038311848410176100bd578084926020946040528339810103126100b957516001600160a01b0390818116908190036100b95780156100a1575f80546001600160a01b03198116831782556040519316907f8be0079c531659141344cd1fd0a4f28419497f9722a3daafe3b4186f6b6457e09080a36103b190816100d28239f35b604051631e4fbdf760e01b81525f6004820152602490fd5b5f80fd5b634e487b7160e01b5f52604160045260245ffdfe604060808152600480361015610013575f80fd5b5f915f3560e01c8063715018a6146102bb5780638da5cb5b146102945780639623609d1461015c578063ad3cb1cc146100eb5763f2fde38b14610054575f80fd5b346100e75760203660031901126100e7576001600160a01b038235818116939192908490036100e357610085610350565b83156100cd5750505f54826bffffffffffffffffffffffff60a01b8216175f55167f8be0079c531659141344cd1fd0a4f28419497f9722a3daafe3b4186f6b6457e05f80a380f35b51631e4fbdf760e01b8152908101849052602490fd5b5f80fd5b8280fd5b5082346101595780600319360112610159575080519080820182811067ffffffffffffffff821117610146576101429350815260058252640352e302e360dc1b602083015251918291602083526020830190610312565b0390f35b604184634e487b7160e01b5f525260245ffd5b80fd5b5060603660031901126100e3576001600160a01b03823581811693908490036100e35760249182359081168091036100e35767ffffffffffffffff906044358281116100e357366023820112156100e3578084013583811161028257865191601f8201601f19908116603f0116830185811184821017610270578852818352368783830101116100e357815f92886020930183860137830101526101fe610350565b863b156100e357610230965f92875180998194829363278f794360e11b8452898401528a8a8401526044830190610312565b039134905af1801561026657610244578580f35b909192938095501161025557505052005b604190634e487b7160e01b5f52525ffd5b84513d5f823e3d90fd5b87604188634e487b7160e01b5f52525ffd5b85604186634e487b7160e01b5f52525ffd5b50346100e3575f3660031901126100e3575f5490516001600160a01b039091168152602090f35b346100e3575f3660031901126100e3576102d3610350565b5f80546001600160a01b0319811682556001600160a01b03167f8be0079c531659141344cd1fd0a4f28419497f9722a3daafe3b4186f6b6457e08280a3005b91908251928382525f5b84811061033c575050825f602080949584010152601f8019910116010190565b60208183018101518483018201520161031c565b5f546001600160a01b0316330361036357565b60405163118cdaa760e01b8152336004820152602490fdfea26469706673582212202992a71449476404159c12582e1f3d5c014ae92bc1369e2e03b37152567a3c7d64736f6c6343000818003300000000000000000000000081c4e22ec9198f2983217c483e4027cf49e940db000000000000000000000000ff6bdef4fb646ee44e29fe8fc0862b02f0ba8a3300000000000000000000000000000000000000000000000000000000000000600000000000000000000000000000000000000000000000000000000000000104077f224a000000000000000000000000000000000000000000000000000000000000006000000000000000000000000000000000000000000000000000000000000000c000000000000000000000000064e8ce3911646154e4e29d715c12b5b1b948d196000000000000000000000000000000000000000000000000000000000000002a5365706f6c69612053706c69742031303020536565642031313139353032312d3137383330393136313600000000000000000000000000000000000000000000000000000000000000000000000000000000000000000000000000000000000853504c495431303000000000000000000000000000000000000000000000000000000000000000000000000000000000000000000000000000000000"
        },
        {
          "transactionType": "CREATE",
          "contractName": "ProxyAdmin",
          "address": "0xd4877cbfdfda8e79fb5e636b8c4a86781c277a5f",
          "initCode": "0x6080346100b957601f61048338819003918201601f19168301916001600160401b038311848410176100bd578084926020946040528339810103126100b957516001600160a01b0390818116908190036100b95780156100a1575f80546001600160a01b03198116831782556040519316907f8be0079c531659141344cd1fd0a4f28419497f9722a3daafe3b4186f6b6457e09080a36103b190816100d28239f35b604051631e4fbdf760e01b81525f6004820152602490fd5b5f80fd5b634e487b7160e01b5f52604160045260245ffdfe604060808152600480361015610013575f80fd5b5f915f3560e01c8063715018a6146102bb5780638da5cb5b146102945780639623609d1461015c578063ad3cb1cc146100eb5763f2fde38b14610054575f80fd5b346100e75760203660031901126100e7576001600160a01b038235818116939192908490036100e357610085610350565b83156100cd5750505f54826bffffffffffffffffffffffff60a01b8216175f55167f8be0079c531659141344cd1fd0a4f28419497f9722a3daafe3b4186f6b6457e05f80a380f35b51631e4fbdf760e01b8152908101849052602490fd5b5f80fd5b8280fd5b5082346101595780600319360112610159575080519080820182811067ffffffffffffffff821117610146576101429350815260058252640352e302e360dc1b602083015251918291602083526020830190610312565b0390f35b604184634e487b7160e01b5f525260245ffd5b80fd5b5060603660031901126100e3576001600160a01b03823581811693908490036100e35760249182359081168091036100e35767ffffffffffffffff906044358281116100e357366023820112156100e3578084013583811161028257865191601f8201601f19908116603f0116830185811184821017610270578852818352368783830101116100e357815f92886020930183860137830101526101fe610350565b863b156100e357610230965f92875180998194829363278f794360e11b8452898401528a8a8401526044830190610312565b039134905af1801561026657610244578580f35b909192938095501161025557505052005b604190634e487b7160e01b5f52525ffd5b84513d5f823e3d90fd5b87604188634e487b7160e01b5f52525ffd5b85604186634e487b7160e01b5f52525ffd5b50346100e3575f3660031901126100e3575f5490516001600160a01b039091168152602090f35b346100e3575f3660031901126100e3576102d3610350565b5f80546001600160a01b0319811682556001600160a01b03167f8be0079c531659141344cd1fd0a4f28419497f9722a3daafe3b4186f6b6457e08280a3005b91908251928382525f5b84811061033c575050825f602080949584010152601f8019910116010190565b60208183018101518483018201520161031c565b5f546001600160a01b0316330361036357565b60405163118cdaa760e01b8152336004820152602490fdfea26469706673582212202992a71449476404159c12582e1f3d5c014ae92bc1369e2e03b37152567a3c7d64736f6c63430008180033000000000000000000000000ff6bdef4fb646ee44e29fe8fc0862b02f0ba8a33"
        },
        {
          "transactionType": "CREATE",
          "contractName": "TransparentUpgradeableProxy",
          "address": "0xef24a895552ee796873f2a52041ffe1eaad3338e",
          "initCode": "0x604060a08152610aac8038038061001581610268565b9283398101906060818303126102645761002e8161028d565b60209161003c83820161028d565b8582015190916001600160401b039190828211610264570185601f82011215610264578051908282116101ef5761007b601f8301601f19168701610268565b968288528683830101116102645785905f5b8381106102505750505f918701015284511561023f57823b1561021f577f360894a13ba1a3210667c828492db98dca3e2076cc3735a920a3ca505d382bbc80546001600160a01b03199081166001600160a01b03868116918217909355885192979195907fbc7cd75a20ee27fd9adebab32041f755214dbc6bffa90cc0225b39da2e5c2d3b5f80a28151156102035761012692506102a1565b505b85519161048391828401908111848210176101ef57868492879461062985391681520301905ff080156101e557831691826080527f7e644d79422f17c01e4894b5f4f588d331ebfa28653d42ae832dc59e38c9798f857fb53127684a568b3173ae13b9f8a6016e243e63b6e8ee1178d6a717850b5d6103958587549483519286168352820152a182156101ce5716179055516102f69081610333823960805181600f0152f35b8451633173bdd160e11b81525f6004820152602490fd5b84513d5f823e3d90fd5b634e487b7160e01b5f52604160045260245ffd5b5050346102105750610128565b63b398979f60e01b8152600490fd5b8551634c9c8ce360e01b81526001600160a01b0384166004820152602490fd5b85516330a289cf60e21b8152600490fd5b81810183015189820184015287920161008d565b5f80fd5b6040519190601f01601f191682016001600160401b038111838210176101ef57604052565b51906001600160a01b038216820361026457565b905f8091602081519101845af4808061031f575b156102d55750506040513d81523d5f602083013e60203d82010160405290565b156102fc57604051639996b31560e01b81526001600160a01b039091166004820152602490fd5b3d1561030d576040513d5f823e3d90fd5b60405163d6bda27560e01b8152600490fd5b503d1515806102b55750813b15156102b556fe60806040526001600160a01b03337f000000000000000000000000000000000000000000000000000000000000000082160361006a575f356001600160e01b03191663278f794360e11b14610060576040516334ad5dbb60e21b8152600490fd5b6100686100be565b005b5f80917f360894a13ba1a3210667c828492db98dca3e2076cc3735a920a3ca505d382bbc5416368280378136915af43d5f803e156100a6573d5ff35b3d5ffd5b634e487b7160e01b5f52604160045260245ffd5b3660041161015f57604036600319011261015f576004356001600160a01b0381169081900361015f576024359067ffffffffffffffff9081831161015f573660238401121561015f5782600401358281116101635760405192601f8201601f19908116603f011684019081118482101761016357604052808352366024828601011161015f576020815f92602461015d97018387013784010152610168565b565b5f80fd5b6100aa565b90813b156101ff577f360894a13ba1a3210667c828492db98dca3e2076cc3735a920a3ca505d382bbc80546001600160a01b0319166001600160a01b0384169081179091557fbc7cd75a20ee27fd9adebab32041f755214dbc6bffa90cc0225b39da2e5c2d3b5f80a28051156101e4576101e191610220565b50565b5050346101ed57565b60405163b398979f60e01b8152600490fd5b604051634c9c8ce360e01b81526001600160a01b0383166004820152602490fd5b905f8091602081519101845af48080610289575b156102465750506102436102a7565b90565b1561026e57604051639996b31560e01b81526001600160a01b03919091166004820152602490fd5b3d15155f0361029c5760405163d6bda27560e01b8152600490fd5b503d1515806102345750813b1515610234565b6040513d5f823e3d90fd5b604051903d82523d5f602084013e60203d83010160405256fea2646970667358221220371437a14d55b0192ed17af74450cdb0b22bf1f3d480185986e4348c96e968d064736f6c634300081800336080346100b957601f61048338819003918201601f19168301916001600160401b038311848410176100bd578084926020946040528339810103126100b957516001600160a01b0390818116908190036100b95780156100a1575f80546001600160a01b03198116831782556040519316907f8be0079c531659141344cd1fd0a4f28419497f9722a3daafe3b4186f6b6457e09080a36103b190816100d28239f35b604051631e4fbdf760e01b81525f6004820152602490fd5b5f80fd5b634e487b7160e01b5f52604160045260245ffdfe604060808152600480361015610013575f80fd5b5f915f3560e01c8063715018a6146102bb5780638da5cb5b146102945780639623609d1461015c578063ad3cb1cc146100eb5763f2fde38b14610054575f80fd5b346100e75760203660031901126100e7576001600160a01b038235818116939192908490036100e357610085610350565b83156100cd5750505f54826bffffffffffffffffffffffff60a01b8216175f55167f8be0079c531659141344cd1fd0a4f28419497f9722a3daafe3b4186f6b6457e05f80a380f35b51631e4fbdf760e01b8152908101849052602490fd5b5f80fd5b8280fd5b5082346101595780600319360112610159575080519080820182811067ffffffffffffffff821117610146576101429350815260058252640352e302e360dc1b602083015251918291602083526020830190610312565b0390f35b604184634e487b7160e01b5f525260245ffd5b80fd5b5060603660031901126100e3576001600160a01b03823581811693908490036100e35760249182359081168091036100e35767ffffffffffffffff906044358281116100e357366023820112156100e3578084013583811161028257865191601f8201601f19908116603f0116830185811184821017610270578852818352368783830101116100e357815f92886020930183860137830101526101fe610350565b863b156100e357610230965f92875180998194829363278f794360e11b8452898401528a8a8401526044830190610312565b039134905af1801561026657610244578580f35b909192938095501161025557505052005b604190634e487b7160e01b5f52525ffd5b84513d5f823e3d90fd5b87604188634e487b7160e01b5f52525ffd5b85604186634e487b7160e01b5f52525ffd5b50346100e3575f3660031901126100e3575f5490516001600160a01b039091168152602090f35b346100e3575f3660031901126100e3576102d3610350565b5f80546001600160a01b0319811682556001600160a01b03167f8be0079c531659141344cd1fd0a4f28419497f9722a3daafe3b4186f6b6457e08280a3005b91908251928382525f5b84811061033c575050825f602080949584010152601f8019910116010190565b60208183018101518483018201520161031c565b5f546001600160a01b0316330361036357565b60405163118cdaa760e01b8152336004820152602490fdfea26469706673582212202992a71449476404159c12582e1f3d5c014ae92bc1369e2e03b37152567a3c7d64736f6c63430008180033000000000000000000000000092ed1e0845f6817e24316a730e98ec074e5f017000000000000000000000000ff6bdef4fb646ee44e29fe8fc0862b02f0ba8a33000000000000000000000000000000000000000000000000000000000000006000000000000000000000000000000000000000000000000000000000000000a4a6b63eb80000000000000000000000003eef0143f986c46143d08acbb499862b6311656800000000000000000000000064e8ce3911646154e4e29d715c12b5b1b948d196000000000000000000000000a4ded8ab35e89bcaf1f7dfeb7ab2c1ed533b3f050000000000000000000000000000000000000000000000056bc75e2d631000000000000000000000000000000000000000000000000000000000000001e1338000000000000000000000000000000000000000000000000000000000"
        },
        {
          "transactionType": "CREATE",
          "contractName": "ProxyAdmin",
          "address": "0x5fc6a0d6790facc0c50c15594a73c855cb6d2ca0",
          "initCode": "0x6080346100b957601f61048338819003918201601f19168301916001600160401b038311848410176100bd578084926020946040528339810103126100b957516001600160a01b0390818116908190036100b95780156100a1575f80546001600160a01b03198116831782556040519316907f8be0079c531659141344cd1fd0a4f28419497f9722a3daafe3b4186f6b6457e09080a36103b190816100d28239f35b604051631e4fbdf760e01b81525f6004820152602490fd5b5f80fd5b634e487b7160e01b5f52604160045260245ffdfe604060808152600480361015610013575f80fd5b5f915f3560e01c8063715018a6146102bb5780638da5cb5b146102945780639623609d1461015c578063ad3cb1cc146100eb5763f2fde38b14610054575f80fd5b346100e75760203660031901126100e7576001600160a01b038235818116939192908490036100e357610085610350565b83156100cd5750505f54826bffffffffffffffffffffffff60a01b8216175f55167f8be0079c531659141344cd1fd0a4f28419497f9722a3daafe3b4186f6b6457e05f80a380f35b51631e4fbdf760e01b8152908101849052602490fd5b5f80fd5b8280fd5b5082346101595780600319360112610159575080519080820182811067ffffffffffffffff821117610146576101429350815260058252640352e302e360dc1b602083015251918291602083526020830190610312565b0390f35b604184634e487b7160e01b5f525260245ffd5b80fd5b5060603660031901126100e3576001600160a01b03823581811693908490036100e35760249182359081168091036100e35767ffffffffffffffff906044358281116100e357366023820112156100e3578084013583811161028257865191601f8201601f19908116603f0116830185811184821017610270578852818352368783830101116100e357815f92886020930183860137830101526101fe610350565b863b156100e357610230965f92875180998194829363278f794360e11b8452898401528a8a8401526044830190610312565b039134905af1801561026657610244578580f35b909192938095501161025557505052005b604190634e487b7160e01b5f52525ffd5b84513d5f823e3d90fd5b87604188634e487b7160e01b5f52525ffd5b85604186634e487b7160e01b5f52525ffd5b50346100e3575f3660031901126100e3575f5490516001600160a01b039091168152602090f35b346100e3575f3660031901126100e3576102d3610350565b5f80546001600160a01b0319811682556001600160a01b03167f8be0079c531659141344cd1fd0a4f28419497f9722a3daafe3b4186f6b6457e08280a3005b91908251928382525f5b84811061033c575050825f602080949584010152601f8019910116010190565b60208183018101518483018201520161031c565b5f546001600160a01b0316330361036357565b60405163118cdaa760e01b8152336004820152602490fdfea26469706673582212202992a71449476404159c12582e1f3d5c014ae92bc1369e2e03b37152567a3c7d64736f6c63430008180033000000000000000000000000ff6bdef4fb646ee44e29fe8fc0862b02f0ba8a33"
        },
        {
          "transactionType": "CREATE",
          "contractName": "TransparentUpgradeableProxy",
          "address": "0x708588c7d22d58473847dd4c7f028a5faf58fe96",
          "initCode": "0x604060a08152610aac8038038061001581610268565b9283398101906060818303126102645761002e8161028d565b60209161003c83820161028d565b8582015190916001600160401b039190828211610264570185601f82011215610264578051908282116101ef5761007b601f8301601f19168701610268565b968288528683830101116102645785905f5b8381106102505750505f918701015284511561023f57823b1561021f577f360894a13ba1a3210667c828492db98dca3e2076cc3735a920a3ca505d382bbc80546001600160a01b03199081166001600160a01b03868116918217909355885192979195907fbc7cd75a20ee27fd9adebab32041f755214dbc6bffa90cc0225b39da2e5c2d3b5f80a28151156102035761012692506102a1565b505b85519161048391828401908111848210176101ef57868492879461062985391681520301905ff080156101e557831691826080527f7e644d79422f17c01e4894b5f4f588d331ebfa28653d42ae832dc59e38c9798f857fb53127684a568b3173ae13b9f8a6016e243e63b6e8ee1178d6a717850b5d6103958587549483519286168352820152a182156101ce5716179055516102f69081610333823960805181600f0152f35b8451633173bdd160e11b81525f6004820152602490fd5b84513d5f823e3d90fd5b634e487b7160e01b5f52604160045260245ffd5b5050346102105750610128565b63b398979f60e01b8152600490fd5b8551634c9c8ce360e01b81526001600160a01b0384166004820152602490fd5b85516330a289cf60e21b8152600490fd5b81810183015189820184015287920161008d565b5f80fd5b6040519190601f01601f191682016001600160401b038111838210176101ef57604052565b51906001600160a01b038216820361026457565b905f8091602081519101845af4808061031f575b156102d55750506040513d81523d5f602083013e60203d82010160405290565b156102fc57604051639996b31560e01b81526001600160a01b039091166004820152602490fd5b3d1561030d576040513d5f823e3d90fd5b60405163d6bda27560e01b8152600490fd5b503d1515806102b55750813b15156102b556fe60806040526001600160a01b03337f000000000000000000000000000000000000000000000000000000000000000082160361006a575f356001600160e01b03191663278f794360e11b14610060576040516334ad5dbb60e21b8152600490fd5b6100686100be565b005b5f80917f360894a13ba1a3210667c828492db98dca3e2076cc3735a920a3ca505d382bbc5416368280378136915af43d5f803e156100a6573d5ff35b3d5ffd5b634e487b7160e01b5f52604160045260245ffd5b3660041161015f57604036600319011261015f576004356001600160a01b0381169081900361015f576024359067ffffffffffffffff9081831161015f573660238401121561015f5782600401358281116101635760405192601f8201601f19908116603f011684019081118482101761016357604052808352366024828601011161015f576020815f92602461015d97018387013784010152610168565b565b5f80fd5b6100aa565b90813b156101ff577f360894a13ba1a3210667c828492db98dca3e2076cc3735a920a3ca505d382bbc80546001600160a01b0319166001600160a01b0384169081179091557fbc7cd75a20ee27fd9adebab32041f755214dbc6bffa90cc0225b39da2e5c2d3b5f80a28051156101e4576101e191610220565b50565b5050346101ed57565b60405163b398979f60e01b8152600490fd5b604051634c9c8ce360e01b81526001600160a01b0383166004820152602490fd5b905f8091602081519101845af48080610289575b156102465750506102436102a7565b90565b1561026e57604051639996b31560e01b81526001600160a01b03919091166004820152602490fd5b3d15155f0361029c5760405163d6bda27560e01b8152600490fd5b503d1515806102345750813b1515610234565b6040513d5f823e3d90fd5b604051903d82523d5f602084013e60203d83010160405256fea2646970667358221220371437a14d55b0192ed17af74450cdb0b22bf1f3d480185986e4348c96e968d064736f6c634300081800336080346100b957601f61048338819003918201601f19168301916001600160401b038311848410176100bd578084926020946040528339810103126100b957516001600160a01b0390818116908190036100b95780156100a1575f80546001600160a01b03198116831782556040519316907f8be0079c531659141344cd1fd0a4f28419497f9722a3daafe3b4186f6b6457e09080a36103b190816100d28239f35b604051631e4fbdf760e01b81525f6004820152602490fd5b5f80fd5b634e487b7160e01b5f52604160045260245ffdfe604060808152600480361015610013575f80fd5b5f915f3560e01c8063715018a6146102bb5780638da5cb5b146102945780639623609d1461015c578063ad3cb1cc146100eb5763f2fde38b14610054575f80fd5b346100e75760203660031901126100e7576001600160a01b038235818116939192908490036100e357610085610350565b83156100cd5750505f54826bffffffffffffffffffffffff60a01b8216175f55167f8be0079c531659141344cd1fd0a4f28419497f9722a3daafe3b4186f6b6457e05f80a380f35b51631e4fbdf760e01b8152908101849052602490fd5b5f80fd5b8280fd5b5082346101595780600319360112610159575080519080820182811067ffffffffffffffff821117610146576101429350815260058252640352e302e360dc1b602083015251918291602083526020830190610312565b0390f35b604184634e487b7160e01b5f525260245ffd5b80fd5b5060603660031901126100e3576001600160a01b03823581811693908490036100e35760249182359081168091036100e35767ffffffffffffffff906044358281116100e357366023820112156100e3578084013583811161028257865191601f8201601f19908116603f0116830185811184821017610270578852818352368783830101116100e357815f92886020930183860137830101526101fe610350565b863b156100e357610230965f92875180998194829363278f794360e11b8452898401528a8a8401526044830190610312565b039134905af1801561026657610244578580f35b909192938095501161025557505052005b604190634e487b7160e01b5f52525ffd5b84513d5f823e3d90fd5b87604188634e487b7160e01b5f52525ffd5b85604186634e487b7160e01b5f52525ffd5b50346100e3575f3660031901126100e3575f5490516001600160a01b039091168152602090f35b346100e3575f3660031901126100e3576102d3610350565b5f80546001600160a01b0319811682556001600160a01b03167f8be0079c531659141344cd1fd0a4f28419497f9722a3daafe3b4186f6b6457e08280a3005b91908251928382525f5b84811061033c575050825f602080949584010152601f8019910116010190565b60208183018101518483018201520161031c565b5f546001600160a01b0316330361036357565b60405163118cdaa760e01b8152336004820152602490fdfea26469706673582212202992a71449476404159c12582e1f3d5c014ae92bc1369e2e03b37152567a3c7d64736f6c6343000818003300000000000000000000000038da3922d3bc3281f57946618404f0e341777f68000000000000000000000000ff6bdef4fb646ee44e29fe8fc0862b02f0ba8a33000000000000000000000000000000000000000000000000000000000000006000000000000000000000000000000000000000000000000000000000000000c4d7c41c7900000000000000000000000032c344dc9713d904442d0e5b0d2b7994e52b0d4e000000000000000000000000ff6bdef4fb646ee44e29fe8fc0862b02f0ba8a33000000000000000000000000a4ded8ab35e89bcaf1f7dfeb7ab2c1ed533b3f05000000000000000000000000f1a8527e00916588f4bb137ce450e8459b6bd43600000000000000000000000000000000000000000000000000000000000000c80000000000000000000000000000000000000000000000000de0b6b3a764000000000000000000000000000000000000000000000000000000000000"
        },
        {
          "transactionType": "CREATE",
          "contractName": "ProxyAdmin",
          "address": "0x3fc1a3a7f690722a6d10a85d511bb78545539655",
          "initCode": "0x6080346100b957601f61048338819003918201601f19168301916001600160401b038311848410176100bd578084926020946040528339810103126100b957516001600160a01b0390818116908190036100b95780156100a1575f80546001600160a01b03198116831782556040519316907f8be0079c531659141344cd1fd0a4f28419497f9722a3daafe3b4186f6b6457e09080a36103b190816100d28239f35b604051631e4fbdf760e01b81525f6004820152602490fd5b5f80fd5b634e487b7160e01b5f52604160045260245ffdfe604060808152600480361015610013575f80fd5b5f915f3560e01c8063715018a6146102bb5780638da5cb5b146102945780639623609d1461015c578063ad3cb1cc146100eb5763f2fde38b14610054575f80fd5b346100e75760203660031901126100e7576001600160a01b038235818116939192908490036100e357610085610350565b83156100cd5750505f54826bffffffffffffffffffffffff60a01b8216175f55167f8be0079c531659141344cd1fd0a4f28419497f9722a3daafe3b4186f6b6457e05f80a380f35b51631e4fbdf760e01b8152908101849052602490fd5b5f80fd5b8280fd5b5082346101595780600319360112610159575080519080820182811067ffffffffffffffff821117610146576101429350815260058252640352e302e360dc1b602083015251918291602083526020830190610312565b0390f35b604184634e487b7160e01b5f525260245ffd5b80fd5b5060603660031901126100e3576001600160a01b03823581811693908490036100e35760249182359081168091036100e35767ffffffffffffffff906044358281116100e357366023820112156100e3578084013583811161028257865191601f8201601f19908116603f0116830185811184821017610270578852818352368783830101116100e357815f92886020930183860137830101526101fe610350565b863b156100e357610230965f92875180998194829363278f794360e11b8452898401528a8a8401526044830190610312565b039134905af1801561026657610244578580f35b909192938095501161025557505052005b604190634e487b7160e01b5f52525ffd5b84513d5f823e3d90fd5b87604188634e487b7160e01b5f52525ffd5b85604186634e487b7160e01b5f52525ffd5b50346100e3575f3660031901126100e3575f5490516001600160a01b039091168152602090f35b346100e3575f3660031901126100e3576102d3610350565b5f80546001600160a01b0319811682556001600160a01b03167f8be0079c531659141344cd1fd0a4f28419497f9722a3daafe3b4186f6b6457e08280a3005b91908251928382525f5b84811061033c575050825f602080949584010152601f8019910116010190565b60208183018101518483018201520161031c565b5f546001600160a01b0316330361036357565b60405163118cdaa760e01b8152336004820152602490fdfea26469706673582212202992a71449476404159c12582e1f3d5c014ae92bc1369e2e03b37152567a3c7d64736f6c63430008180033000000000000000000000000ff6bdef4fb646ee44e29fe8fc0862b02f0ba8a33"
        },
        {
          "transactionType": "CREATE",
          "contractName": "TransparentUpgradeableProxy",
          "address": "0x0f1b855d56b41d768a3e7332e0cfca1d1badd569",
          "initCode": "0x604060a08152610aac8038038061001581610268565b9283398101906060818303126102645761002e8161028d565b60209161003c83820161028d565b8582015190916001600160401b039190828211610264570185601f82011215610264578051908282116101ef5761007b601f8301601f19168701610268565b968288528683830101116102645785905f5b8381106102505750505f918701015284511561023f57823b1561021f577f360894a13ba1a3210667c828492db98dca3e2076cc3735a920a3ca505d382bbc80546001600160a01b03199081166001600160a01b03868116918217909355885192979195907fbc7cd75a20ee27fd9adebab32041f755214dbc6bffa90cc0225b39da2e5c2d3b5f80a28151156102035761012692506102a1565b505b85519161048391828401908111848210176101ef57868492879461062985391681520301905ff080156101e557831691826080527f7e644d79422f17c01e4894b5f4f588d331ebfa28653d42ae832dc59e38c9798f857fb53127684a568b3173ae13b9f8a6016e243e63b6e8ee1178d6a717850b5d6103958587549483519286168352820152a182156101ce5716179055516102f69081610333823960805181600f0152f35b8451633173bdd160e11b81525f6004820152602490fd5b84513d5f823e3d90fd5b634e487b7160e01b5f52604160045260245ffd5b5050346102105750610128565b63b398979f60e01b8152600490fd5b8551634c9c8ce360e01b81526001600160a01b0384166004820152602490fd5b85516330a289cf60e21b8152600490fd5b81810183015189820184015287920161008d565b5f80fd5b6040519190601f01601f191682016001600160401b038111838210176101ef57604052565b51906001600160a01b038216820361026457565b905f8091602081519101845af4808061031f575b156102d55750506040513d81523d5f602083013e60203d82010160405290565b156102fc57604051639996b31560e01b81526001600160a01b039091166004820152602490fd5b3d1561030d576040513d5f823e3d90fd5b60405163d6bda27560e01b8152600490fd5b503d1515806102b55750813b15156102b556fe60806040526001600160a01b03337f000000000000000000000000000000000000000000000000000000000000000082160361006a575f356001600160e01b03191663278f794360e11b14610060576040516334ad5dbb60e21b8152600490fd5b6100686100be565b005b5f80917f360894a13ba1a3210667c828492db98dca3e2076cc3735a920a3ca505d382bbc5416368280378136915af43d5f803e156100a6573d5ff35b3d5ffd5b634e487b7160e01b5f52604160045260245ffd5b3660041161015f57604036600319011261015f576004356001600160a01b0381169081900361015f576024359067ffffffffffffffff9081831161015f573660238401121561015f5782600401358281116101635760405192601f8201601f19908116603f011684019081118482101761016357604052808352366024828601011161015f576020815f92602461015d97018387013784010152610168565b565b5f80fd5b6100aa565b90813b156101ff577f360894a13ba1a3210667c828492db98dca3e2076cc3735a920a3ca505d382bbc80546001600160a01b0319166001600160a01b0384169081179091557fbc7cd75a20ee27fd9adebab32041f755214dbc6bffa90cc0225b39da2e5c2d3b5f80a28051156101e4576101e191610220565b50565b5050346101ed57565b60405163b398979f60e01b8152600490fd5b604051634c9c8ce360e01b81526001600160a01b0383166004820152602490fd5b905f8091602081519101845af48080610289575b156102465750506102436102a7565b90565b1561026e57604051639996b31560e01b81526001600160a01b03919091166004820152602490fd5b3d15155f0361029c5760405163d6bda27560e01b8152600490fd5b503d1515806102345750813b1515610234565b6040513d5f823e3d90fd5b604051903d82523d5f602084013e60203d83010160405256fea2646970667358221220371437a14d55b0192ed17af74450cdb0b22bf1f3d480185986e4348c96e968d064736f6c634300081800336080346100b957601f61048338819003918201601f19168301916001600160401b038311848410176100bd578084926020946040528339810103126100b957516001600160a01b0390818116908190036100b95780156100a1575f80546001600160a01b03198116831782556040519316907f8be0079c531659141344cd1fd0a4f28419497f9722a3daafe3b4186f6b6457e09080a36103b190816100d28239f35b604051631e4fbdf760e01b81525f6004820152602490fd5b5f80fd5b634e487b7160e01b5f52604160045260245ffdfe604060808152600480361015610013575f80fd5b5f915f3560e01c8063715018a6146102bb5780638da5cb5b146102945780639623609d1461015c578063ad3cb1cc146100eb5763f2fde38b14610054575f80fd5b346100e75760203660031901126100e7576001600160a01b038235818116939192908490036100e357610085610350565b83156100cd5750505f54826bffffffffffffffffffffffff60a01b8216175f55167f8be0079c531659141344cd1fd0a4f28419497f9722a3daafe3b4186f6b6457e05f80a380f35b51631e4fbdf760e01b8152908101849052602490fd5b5f80fd5b8280fd5b5082346101595780600319360112610159575080519080820182811067ffffffffffffffff821117610146576101429350815260058252640352e302e360dc1b602083015251918291602083526020830190610312565b0390f35b604184634e487b7160e01b5f525260245ffd5b80fd5b5060603660031901126100e3576001600160a01b03823581811693908490036100e35760249182359081168091036100e35767ffffffffffffffff906044358281116100e357366023820112156100e3578084013583811161028257865191601f8201601f19908116603f0116830185811184821017610270578852818352368783830101116100e357815f92886020930183860137830101526101fe610350565b863b156100e357610230965f92875180998194829363278f794360e11b8452898401528a8a8401526044830190610312565b039134905af1801561026657610244578580f35b909192938095501161025557505052005b604190634e487b7160e01b5f52525ffd5b84513d5f823e3d90fd5b87604188634e487b7160e01b5f52525ffd5b85604186634e487b7160e01b5f52525ffd5b50346100e3575f3660031901126100e3575f5490516001600160a01b039091168152602090f35b346100e3575f3660031901126100e3576102d3610350565b5f80546001600160a01b0319811682556001600160a01b03167f8be0079c531659141344cd1fd0a4f28419497f9722a3daafe3b4186f6b6457e08280a3005b91908251928382525f5b84811061033c575050825f602080949584010152601f8019910116010190565b60208183018101518483018201520161031c565b5f546001600160a01b0316330361036357565b60405163118cdaa760e01b8152336004820152602490fdfea26469706673582212202992a71449476404159c12582e1f3d5c014ae92bc1369e2e03b37152567a3c7d64736f6c634300081800330000000000000000000000008d434e38dd91d9b738f8803dbd18b815720bedad000000000000000000000000ff6bdef4fb646ee44e29fe8fc0862b02f0ba8a33000000000000000000000000000000000000000000000000000000000000006000000000000000000000000000000000000000000000000000000000000001248f15b414000000000000000000000000000000000000000000000000000000000000008000000000000000000000000000000000000000000000000000000000000000e0000000000000000000000000ef24a895552ee796873f2a52041ffe1eaad3338e000000000000000000000000708588c7d22d58473847dd4c7f028a5faf58fe96000000000000000000000000000000000000000000000000000000000000002b5365706f6c69612053706c697420313030205969656c642031313139353032312d3137383330393136313600000000000000000000000000000000000000000000000000000000000000000000000000000000000000000000000000000000067953504c4954000000000000000000000000000000000000000000000000000000000000000000000000000000000000000000000000000000000000"
        },
        {
          "transactionType": "CREATE",
          "contractName": "ProxyAdmin",
          "address": "0x899a4f96b5a9c6870c7517b72821b9a57fd370d8",
          "initCode": "0x6080346100b957601f61048338819003918201601f19168301916001600160401b038311848410176100bd578084926020946040528339810103126100b957516001600160a01b0390818116908190036100b95780156100a1575f80546001600160a01b03198116831782556040519316907f8be0079c531659141344cd1fd0a4f28419497f9722a3daafe3b4186f6b6457e09080a36103b190816100d28239f35b604051631e4fbdf760e01b81525f6004820152602490fd5b5f80fd5b634e487b7160e01b5f52604160045260245ffdfe604060808152600480361015610013575f80fd5b5f915f3560e01c8063715018a6146102bb5780638da5cb5b146102945780639623609d1461015c578063ad3cb1cc146100eb5763f2fde38b14610054575f80fd5b346100e75760203660031901126100e7576001600160a01b038235818116939192908490036100e357610085610350565b83156100cd5750505f54826bffffffffffffffffffffffff60a01b8216175f55167f8be0079c531659141344cd1fd0a4f28419497f9722a3daafe3b4186f6b6457e05f80a380f35b51631e4fbdf760e01b8152908101849052602490fd5b5f80fd5b8280fd5b5082346101595780600319360112610159575080519080820182811067ffffffffffffffff821117610146576101429350815260058252640352e302e360dc1b602083015251918291602083526020830190610312565b0390f35b604184634e487b7160e01b5f525260245ffd5b80fd5b5060603660031901126100e3576001600160a01b03823581811693908490036100e35760249182359081168091036100e35767ffffffffffffffff906044358281116100e357366023820112156100e3578084013583811161028257865191601f8201601f19908116603f0116830185811184821017610270578852818352368783830101116100e357815f92886020930183860137830101526101fe610350565b863b156100e357610230965f92875180998194829363278f794360e11b8452898401528a8a8401526044830190610312565b039134905af1801561026657610244578580f35b909192938095501161025557505052005b604190634e487b7160e01b5f52525ffd5b84513d5f823e3d90fd5b87604188634e487b7160e01b5f52525ffd5b85604186634e487b7160e01b5f52525ffd5b50346100e3575f3660031901126100e3575f5490516001600160a01b039091168152602090f35b346100e3575f3660031901126100e3576102d3610350565b5f80546001600160a01b0319811682556001600160a01b03167f8be0079c531659141344cd1fd0a4f28419497f9722a3daafe3b4186f6b6457e08280a3005b91908251928382525f5b84811061033c575050825f602080949584010152601f8019910116010190565b60208183018101518483018201520161031c565b5f546001600160a01b0316330361036357565b60405163118cdaa760e01b8152336004820152602490fdfea26469706673582212202992a71449476404159c12582e1f3d5c014ae92bc1369e2e03b37152567a3c7d64736f6c63430008180033000000000000000000000000ff6bdef4fb646ee44e29fe8fc0862b02f0ba8a33"
        }
      ],
      "isFixedGasLimit": false
    },
    {
      "hash": "0x10ddabd3eef181288149c61a16acb20dad129a025226fbf6a89652b105da9b41",
      "transactionType": "CALL",
      "contractName": "TransparentUpgradeableProxy",
      "contractAddress": "0x64e8ce3911646154e4e29d715c12b5b1b948d196",
      "function": null,
      "arguments": null,
      "transaction": {
        "from": "0xff6bdef4fb646ee44e29fe8fc0862b02f0ba8a33",
        "to": "0x64e8ce3911646154e4e29d715c12b5b1b948d196",
        "gas": "0x6a4ba",
        "value": "0x0",
        "input": "0xff57866a30b395817081a4bfcc2de11d585353c65c3c5b699309b8740e8ecf6cf6c18d74c921820d269e802042a87c6f3113cadc04b2e104586f5eacf569b70256c98a7c000000000000000000000000989659d823011127af2757a7164ff57f6dac9bc70000000000000000000000000000000000000000000000000000000000000080000000000000000000000000000000000000000000000000000000000000001a67726f7766693a2f2f70726f63656564732d73706c69742f7631000000000000",
        "nonce": "0xf5",
        "chainId": "0xaa36a7"
      },
      "additionalContracts": [],
      "isFixedGasLimit": false
    },
    {
      "hash": "0x07b1970d41bb3940a9ad1f96998bda2b31cbec8dfa9a3ca5a362bb13aca377e9",
      "transactionType": "CALL",
      "contractName": "TransparentUpgradeableProxy",
      "contractAddress": "0x64e8ce3911646154e4e29d715c12b5b1b948d196",
      "function": null,
      "arguments": null,
      "transaction": {
        "from": "0xff6bdef4fb646ee44e29fe8fc0862b02f0ba8a33",
        "to": "0x64e8ce3911646154e4e29d715c12b5b1b948d196",
        "gas": "0x61dcc",
        "value": "0x0",
        "input": "0xff57866af502127c932b4ff52cf7984ab5f3245e8d7935210db5535d8d05aab0d4f49c39c0b13d8cc9d9ca49de3ae4a65abe3c0df35c00d8cb9aac4e986e3f9c035f112f00000000000000000000000036cd3cab0c1b039dcb2b1bfba6bf926078f705a30000000000000000000000000000000000000000000000000000000000000080000000000000000000000000000000000000000000000000000000000000001867726f7766693a2f2f6469726563742d69737375652f76310000000000000000",
        "nonce": "0xf6",
        "chainId": "0xaa36a7"
      },
      "additionalContracts": [],
      "isFixedGasLimit": false
    },
    {
      "hash": "0x6ce7cf6735c7a09cd01341cbc5280180ed8975b41d17a3fc6b3da82f50a71cf9",
      "transactionType": "CALL",
      "contractName": "TransparentUpgradeableProxy",
      "contractAddress": "0x64e8ce3911646154e4e29d715c12b5b1b948d196",
      "function": null,
      "arguments": null,
      "transaction": {
        "from": "0xff6bdef4fb646ee44e29fe8fc0862b02f0ba8a33",
        "to": "0x64e8ce3911646154e4e29d715c12b5b1b948d196",
        "gas": "0x3399d",
        "value": "0x0",
        "input": "0x666033e600000000000000000000000032c344dc9713d904442d0e5b0d2b7994e52b0d4e000000000000000000000000000000000000000000000000000000000000000000000000000000000000000000000000000000000000000000000000000232800000000000000000000000000000000000000000000000000000000000000000",
        "nonce": "0xf7",
        "chainId": "0xaa36a7"
      },
      "additionalContracts": [],
      "isFixedGasLimit": false
    },
    {
      "hash": "0xecf1371c71f5bc74bf7eef3a8483333d1e2a0249ece980dc137ddf78428b1ef9",
      "transactionType": "CALL",
      "contractName": "TransparentUpgradeableProxy",
      "contractAddress": "0x64e8ce3911646154e4e29d715c12b5b1b948d196",
      "function": null,
      "arguments": null,
      "transaction": {
        "from": "0xff6bdef4fb646ee44e29fe8fc0862b02f0ba8a33",
        "to": "0x64e8ce3911646154e4e29d715c12b5b1b948d196",
        "gas": "0x152d0",
        "value": "0x0",
        "input": "0x15d496c6000000000000000000000000000000000000000000000000000000000000beef0000000000000000000000000000000000000000000000000000000000002710",
        "nonce": "0xf8",
        "chainId": "0xaa36a7"
      },
      "additionalContracts": [],
      "isFixedGasLimit": false
    },
    {
      "hash": "0xd50fa5bb0a9705f10d00726979c432edaeddf660cbfca7c9e3281eb4b3016d71",
      "transactionType": "CALL",
      "contractName": "TransparentUpgradeableProxy",
      "contractAddress": "0x64e8ce3911646154e4e29d715c12b5b1b948d196",
      "function": null,
      "arguments": null,
      "transaction": {
        "from": "0xff6bdef4fb646ee44e29fe8fc0862b02f0ba8a33",
        "to": "0x64e8ce3911646154e4e29d715c12b5b1b948d196",
        "gas": "0x3c10b",
        "value": "0x0",
        "input": "0x1f469013000000000000000000000000ff6bdef4fb646ee44e29fe8fc0862b02f0ba8a330000000000000000000000000000000000000000000000000de0b6b3a7640000",
        "nonce": "0xf9",
        "chainId": "0xaa36a7"
      },
      "additionalContracts": [],
      "isFixedGasLimit": false
    },
    {
      "hash": "0xa44c4c828149de9559c14204c173550dfc4f0b4c72dad5471da95b646553d55f",
      "transactionType": "CALL",
      "contractName": "TransparentUpgradeableProxy",
      "contractAddress": "0x64e8ce3911646154e4e29d715c12b5b1b948d196",
      "function": null,
      "arguments": null,
      "transaction": {
        "from": "0xff6bdef4fb646ee44e29fe8fc0862b02f0ba8a33",
        "to": "0x64e8ce3911646154e4e29d715c12b5b1b948d196",
        "gas": "0x1ac14",
        "value": "0x0",
        "input": "0xea12e9b6",
        "nonce": "0xfa",
        "chainId": "0xaa36a7"
      },
      "additionalContracts": [],
      "isFixedGasLimit": false
    },
    {
      "hash": "0x5004c32450b9f2ae3736573e35ef5d74362f7f2224130001c288aa5dd8a3c1f1",
      "transactionType": "CALL",
      "contractName": null,
      "contractAddress": "0x32c344dc9713d904442d0e5b0d2b7994e52b0d4e",
      "function": "mint(address,uint256)",
      "arguments": [
        "0xFF6bdef4fB646EE44e29FE8FC0862B02F0Ba8a33",
        "144000"
      ],
      "transaction": {
        "from": "0xff6bdef4fb646ee44e29fe8fc0862b02f0ba8a33",
        "to": "0x32c344dc9713d904442d0e5b0d2b7994e52b0d4e",
        "gas": "0xb6d1",
        "value": "0x0",
        "input": "0x40c10f19000000000000000000000000ff6bdef4fb646ee44e29fe8fc0862b02f0ba8a330000000000000000000000000000000000000000000000000000000000023280",
        "nonce": "0xfb",
        "chainId": "0xaa36a7"
      },
      "additionalContracts": [],
      "isFixedGasLimit": false
    },
    {
      "hash": "0x0b16c496abecf81c975b6a0132aae65912c52088a4cb9b1d4296577095cfc11a",
      "transactionType": "CALL",
      "contractName": null,
      "contractAddress": "0x32c344dc9713d904442d0e5b0d2b7994e52b0d4e",
      "function": "approve(address,uint256)",
      "arguments": [
        "0x64E8CE3911646154E4e29D715C12b5B1b948D196",
        "144000"
      ],
      "transaction": {
        "from": "0xff6bdef4fb646ee44e29fe8fc0862b02f0ba8a33",
        "to": "0x32c344dc9713d904442d0e5b0d2b7994e52b0d4e",
        "gas": "0xf7d6",
        "value": "0x0",
        "input": "0x095ea7b300000000000000000000000064e8ce3911646154e4e29d715c12b5b1b948d1960000000000000000000000000000000000000000000000000000000000023280",
        "nonce": "0xfc",
        "chainId": "0xaa36a7"
      },
      "additionalContracts": [],
      "isFixedGasLimit": false
    },
    {
      "hash": "0xec657a5e3987a7f7f2e9e4facf7213424c261e5868868eba1a2dcb5f2b1364a1",
      "transactionType": "CALL",
      "contractName": "TransparentUpgradeableProxy",
      "contractAddress": "0x64e8ce3911646154e4e29d715c12b5b1b948d196",
      "function": null,
      "arguments": null,
      "transaction": {
        "from": "0xff6bdef4fb646ee44e29fe8fc0862b02f0ba8a33",
        "to": "0x64e8ce3911646154e4e29d715c12b5b1b948d196",
        "gas": "0x669ab",
        "value": "0x0",
        "input": "0xcce7ec1300000000000000000000000032c344dc9713d904442d0e5b0d2b7994e52b0d4e0000000000000000000000000000000000000000000000000000000000023280",
        "nonce": "0xfd",
        "chainId": "0xaa36a7"
      },
      "additionalContracts": [],
      "isFixedGasLimit": false
    }
  ],
  "receipts": [
    {
      "type": "0x2",
      "status": "0x1",
      "cumulativeGasUsed": "0x19f0e43",
      "logs": [],
      "logsBloom": "0x00000000000000000000000000000000000000000000000000000000000000000000000000000000000000000000000000000000000000000000000000000000000000000000000000000000000000000000000000000000000000000000000000000000000000000000000000000000000000000000000000000000000000000000000000000000000000000000000000000000000000000000000000000000000000000000000000000000000000000000000000000000000000000000000000000000000000000000000000000000000000000000000000000000000000000000000000000000000000000000000000000000000000000000000000000000",
      "transactionHash": "0x224cbb6f2730f1d51233b664676bcfa0dd6f1ddfacb75ef2ccf2864d8643610f",
      "transactionIndex": "0xb4",
      "blockHash": "0xf3cb005834b2f7b3b1a37e2c2c20c4e3fd1be60c6b3f39fe05eaed871deb0bbe",
      "blockNumber": "0xaad28f",
      "gasUsed": "0x427bd",
      "effectiveGasPrice": "0x41427a7e",
      "from": "0xff6bdef4fb646ee44e29fe8fc0862b02f0ba8a33",
      "to": null,
      "contractAddress": "0x989659d823011127af2757a7164ff57f6dac9bc7"
    },
    {
      "type": "0x2",
      "status": "0x1",
      "cumulativeGasUsed": "0x144f47d",
      "logs": [],
      "logsBloom": "0x00000000000000000000000000000000000000000000000000000000000000000000000000000000000000000000000000000000000000000000000000000000000000000000000000000000000000000000000000000000000000000000000000000000000000000000000000000000000000000000000000000000000000000000000000000000000000000000000000000000000000000000000000000000000000000000000000000000000000000000000000000000000000000000000000000000000000000000000000000000000000000000000000000000000000000000000000000000000000000000000000000000000000000000000000000000",
      "transactionHash": "0x2ec042ac420fa93bfe3415fdb26466cb4bd56401e0e39a4c667e85fdfa473f93",
      "transactionIndex": "0x77",
      "blockHash": "0xf65ab54e7e0d72f08511becb0d436a788c249ba70e20a6c4cc58aa425fd69d20",
      "blockNumber": "0xaad290",
      "gasUsed": "0x67c75",
      "effectiveGasPrice": "0x40f880be",
      "from": "0xff6bdef4fb646ee44e29fe8fc0862b02f0ba8a33",
      "to": null,
      "contractAddress": "0x36cd3cab0c1b039dcb2b1bfba6bf926078f705a3"
    },
    {
      "type": "0x2",
      "status": "0x1",
      "cumulativeGasUsed": "0x15ee8a8",
      "logs": [
        {
          "address": "0xa4ded8ab35e89bcaf1f7dfeb7ab2c1ed533b3f05",
          "topics": [
            "0xed8ca8233ea5d449da03c55decdd5a2e53090fc53127f41a287743b01b50a825",
            "0xc921820d269e802042a87c6f3113cadc04b2e104586f5eacf569b70256c98a7c"
          ],
          "data": "0x0000000000000000000000000000000000000000000000000000000000000020000000000000000000000000000000000000000000000000000000000000000415d496c6000000000000000000000000000000000000000000000000000000009d6b0bc10000000000000000000000000000000000000000000000000000000017054ad600000000000000000000000000000000000000000000000000000000e85860d600000000000000000000000000000000000000000000000000000000",
          "blockHash": "0x0d47f7dd6d2191e8cf3897bc9dd12455f5b417afe26e51f6b825d5ab5f40eb1f",
          "blockNumber": "0xaad291",
          "blockTimestamp": "0x6a47d1d0",
          "transactionHash": "0x7652e686065722596e53c40bf41c3cec3c665d90062454aacf3612f31669094a",
          "transactionIndex": "0x9d",
          "logIndex": "0x3a8",
          "removed": false
        }
      ],
      "logsBloom": "0x00000000000000000000000400000000000000000000000000000000000000000000000000000001000800000000000000000000000000000000000000000000000000000000000000000000000000000000000000000000000080000000000000000000000000000000000000100000000000000000000000000000000000000000000000000000000000000000000000000000000000000000000000004000000000000000000000000000000000000000000000000000000000000080000000000000000000000000000000000000000000000000000000000000000000000000002000400000000000000000000000000000000000000000000000000000",
      "transactionHash": "0x7652e686065722596e53c40bf41c3cec3c665d90062454aacf3612f31669094a",
      "transactionIndex": "0x9d",
      "blockHash": "0x0d47f7dd6d2191e8cf3897bc9dd12455f5b417afe26e51f6b825d5ab5f40eb1f",
      "blockNumber": "0xaad291",
      "gasUsed": "0xa5f4",
      "effectiveGasPrice": "0x4087813f",
      "from": "0xff6bdef4fb646ee44e29fe8fc0862b02f0ba8a33",
      "to": "0xa4ded8ab35e89bcaf1f7dfeb7ab2c1ed533b3f05",
      "contractAddress": null
    },
    {
      "type": "0x2",
      "status": "0x1",
      "cumulativeGasUsed": "0x1211186",
      "logs": [
        {
          "address": "0xa4ded8ab35e89bcaf1f7dfeb7ab2c1ed533b3f05",
          "topics": [
            "0x14d2913115bfaf4d7b5bba9e04b1da2cb3ce0911b128ab0e779990214ccf6f7d",
            "0xc921820d269e802042a87c6f3113cadc04b2e104586f5eacf569b70256c98a7c",
            "0x000000000000000000000000989659d823011127af2757a7164ff57f6dac9bc7"
          ],
          "data": "0x0000000000000000000000000000000000000000000000000000000000000001",
          "blockHash": "0x7b3097e743e93deb1fa2168e6aa4b9110553842b99e84a80f8979e82754d5ae2",
          "blockNumber": "0xaad292",
          "blockTimestamp": "0x6a47d1dc",
          "transactionHash": "0x28fca0c30788cc1e3402c4e1fb34f3e7e8c56e7829af5b8ceab8a010fffdc4c8",
          "transactionIndex": "0x70",
          "logIndex": "0x25c",
          "removed": false
        }
      ],
      "logsBloom": "0x00000000000000000000000400000400000000000000000000000000000000000000000000000000000000002000080000000000000000000000000000000000000000000000000000000000000000000000000000000000000080000000000000000000000000000001000000100000000000000000000000000000000000000000000000000000000000000000000000000080000000000000000000000000000000000000400000000000000000000000000000000000000000000080000000000000000000000000000000000000000000000000000000000000000000000000002000400000000000000000000000000000000000000000000000000000",
      "transactionHash": "0x28fca0c30788cc1e3402c4e1fb34f3e7e8c56e7829af5b8ceab8a010fffdc4c8",
      "transactionIndex": "0x70",
      "blockHash": "0x7b3097e743e93deb1fa2168e6aa4b9110553842b99e84a80f8979e82754d5ae2",
      "blockNumber": "0xaad292",
      "gasUsed": "0xd7cc",
      "effectiveGasPrice": "0x41878306",
      "from": "0xff6bdef4fb646ee44e29fe8fc0862b02f0ba8a33",
      "to": "0xa4ded8ab35e89bcaf1f7dfeb7ab2c1ed533b3f05",
      "contractAddress": null
    },
    {
      "type": "0x2",
      "status": "0x1",
      "cumulativeGasUsed": "0x159b03f",
      "logs": [
        {
          "address": "0xa4ded8ab35e89bcaf1f7dfeb7ab2c1ed533b3f05",
          "topics": [
            "0xed8ca8233ea5d449da03c55decdd5a2e53090fc53127f41a287743b01b50a825",
            "0xc0b13d8cc9d9ca49de3ae4a65abe3c0df35c00d8cb9aac4e986e3f9c035f112f"
          ],
          "data": "0x000000000000000000000000000000000000000000000000000000000000002000000000000000000000000000000000000000000000000000000000000000031f469013000000000000000000000000000000000000000000000000000000009dcf264300000000000000000000000000000000000000000000000000000000fd0b0fb200000000000000000000000000000000000000000000000000000000",
          "blockHash": "0x74cf5cf944366e8cb71f533a7928e06f4ad5eaf2537bd040ec354c1073d52d9b",
          "blockNumber": "0xaad293",
          "blockTimestamp": "0x6a47d1e8",
          "transactionHash": "0x46ae54541235ef24efb1e31422efb7863e482bfd5b57e00ba9b496f546c99280",
          "transactionIndex": "0xa5",
          "logIndex": "0x3bd",
          "removed": false
        }
      ],
      "logsBloom": "0x00000000000000000000000000000000000000400000000000000000000000000000000000000001000800000000000010000000000000000000000000000000000000000000000000000000000000000000000000000000000000000000000000000000000000000000000000100000000000000000000000000000000000000000000000000000000000000000000000000000000000000000000000004000000000000000000000000000000000000000000000000000000000000080000000000000000000000000000000000000000000000000000000000000000000000000000000400000000004000000000000000000000000000000000000000000",
      "transactionHash": "0x46ae54541235ef24efb1e31422efb7863e482bfd5b57e00ba9b496f546c99280",
      "transactionIndex": "0xa5",
      "blockHash": "0x74cf5cf944366e8cb71f533a7928e06f4ad5eaf2537bd040ec354c1073d52d9b",
      "blockNumber": "0xaad293",
      "gasUsed": "0x9de2",
      "effectiveGasPrice": "0x3ed6d029",
      "from": "0xff6bdef4fb646ee44e29fe8fc0862b02f0ba8a33",
      "to": "0xa4ded8ab35e89bcaf1f7dfeb7ab2c1ed533b3f05",
      "contractAddress": null
    },
    {
      "type": "0x2",
      "status": "0x1",
      "cumulativeGasUsed": "0x1377982",
      "logs": [
        {
          "address": "0xa4ded8ab35e89bcaf1f7dfeb7ab2c1ed533b3f05",
          "topics": [
            "0x14d2913115bfaf4d7b5bba9e04b1da2cb3ce0911b128ab0e779990214ccf6f7d",
            "0xc0b13d8cc9d9ca49de3ae4a65abe3c0df35c00d8cb9aac4e986e3f9c035f112f",
            "0x00000000000000000000000036cd3cab0c1b039dcb2b1bfba6bf926078f705a3"
          ],
          "data": "0x0000000000000000000000000000000000000000000000000000000000000001",
          "blockHash": "0x91f53f5217ee7cfadb9f5f83241a6d884230f52f104348f0cbb50892f3a446e0",
          "blockNumber": "0xaad294",
          "blockTimestamp": "0x6a47d1f4",
          "transactionHash": "0xc4a8dde53051cd8f7acc19872a2556fd28071df5da13f89cfe6b7289ff0616de",
          "transactionIndex": "0x88",
          "logIndex": "0x2a0",
          "removed": false
        }
      ],
      "logsBloom": "0x00000000000000000000000000000400000000400000000000000000000000000000400000000002000000000000080010000000000000000000000000000000000000000000000000000000000000000000000000000000000000000000000000000000000000000001000000100000000000000000000000000000000000000000000000000000000000000000000000000000000000000000000000000000000000000000000000000000000400000000000000000000000000000080000000000000000000000000000000000000000000000000000000000000000000000000000000400000000004000000000000000000000000000000000000000000",
      "transactionHash": "0xc4a8dde53051cd8f7acc19872a2556fd28071df5da13f89cfe6b7289ff0616de",
      "transactionIndex": "0x88",
      "blockHash": "0x91f53f5217ee7cfadb9f5f83241a6d884230f52f104348f0cbb50892f3a446e0",
      "blockNumber": "0xaad294",
      "gasUsed": "0xd7c0",
      "effectiveGasPrice": "0x3d54e15c",
      "from": "0xff6bdef4fb646ee44e29fe8fc0862b02f0ba8a33",
      "to": "0xa4ded8ab35e89bcaf1f7dfeb7ab2c1ed533b3f05",
      "contractAddress": null
    },
    {
      "type": "0x2",
      "status": "0x1",
      "cumulativeGasUsed": "0x1668501",
      "logs": [
        {
          "address": "0x64e8ce3911646154e4e29d715c12b5b1b948d196",
          "topics": [
            "0xbc7cd75a20ee27fd9adebab32041f755214dbc6bffa90cc0225b39da2e5c2d3b",
            "0x0000000000000000000000004e53cf93d2927d225668ee570dc3fa8b55917130"
          ],
          "data": "0x",
          "blockHash": "0x4385b75651a0b416ddd5ba0c64bb965cbfff831e14f1bb548ecfff627874644f",
          "blockNumber": "0xaad296",
          "blockTimestamp": "0x6a47d20c",
          "transactionHash": "0x42eb16ec13fd08114262802150faa86824dab84c00387c6a2cb5b44fa3edfa47",
          "transactionIndex": "0x8c",
          "logIndex": "0x2d8",
          "removed": false
        },
        {
          "address": "0x64e8ce3911646154e4e29d715c12b5b1b948d196",
          "topics": [
            "0xc7f505b2f371ae2175ee4913f4499e1f2633a7b5936321eed1cdaeb6115181d2"
          ],
          "data": "0x0000000000000000000000000000000000000000000000000000000000000001",
          "blockHash": "0x4385b75651a0b416ddd5ba0c64bb965cbfff831e14f1bb548ecfff627874644f",
          "blockNumber": "0xaad296",
          "blockTimestamp": "0x6a47d20c",
          "transactionHash": "0x42eb16ec13fd08114262802150faa86824dab84c00387c6a2cb5b44fa3edfa47",
          "transactionIndex": "0x8c",
          "logIndex": "0x2d9",
          "removed": false
        },
        {
          "address": "0x6463262d1c5f322d4e9e3296fa6234f62e4efd93",
          "topics": [
            "0x8be0079c531659141344cd1fd0a4f28419497f9722a3daafe3b4186f6b6457e0",
            "0x0000000000000000000000000000000000000000000000000000000000000000",
            "0x000000000000000000000000ff6bdef4fb646ee44e29fe8fc0862b02f0ba8a33"
          ],
          "data": "0x",
          "blockHash": "0x4385b75651a0b416ddd5ba0c64bb965cbfff831e14f1bb548ecfff627874644f",
          "blockNumber": "0xaad296",
          "blockTimestamp": "0x6a47d20c",
          "transactionHash": "0x42eb16ec13fd08114262802150faa86824dab84c00387c6a2cb5b44fa3edfa47",
          "transactionIndex": "0x8c",
          "logIndex": "0x2da",
          "removed": false
        },
        {
          "address": "0x64e8ce3911646154e4e29d715c12b5b1b948d196",
          "topics": [
            "0x7e644d79422f17c01e4894b5f4f588d331ebfa28653d42ae832dc59e38c9798f"
          ],
          "data": "0x00000000000000000000000000000000000000000000000000000000000000000000000000000000000000006463262d1c5f322d4e9e3296fa6234f62e4efd93",
          "blockHash": "0x4385b75651a0b416ddd5ba0c64bb965cbfff831e14f1bb548ecfff627874644f",
          "blockNumber": "0xaad296",
          "blockTimestamp": "0x6a47d20c",
          "transactionHash": "0x42eb16ec13fd08114262802150faa86824dab84c00387c6a2cb5b44fa3edfa47",
          "transactionIndex": "0x8c",
          "logIndex": "0x2db",
          "removed": false
        },
        {
          "address": "0x3eef0143f986c46143d08acbb499862b63116568",
          "topics": [
            "0xbc7cd75a20ee27fd9adebab32041f755214dbc6bffa90cc0225b39da2e5c2d3b",
            "0x00000000000000000000000081c4e22ec9198f2983217c483e4027cf49e940db"
          ],
          "data": "0x",
          "blockHash": "0x4385b75651a0b416ddd5ba0c64bb965cbfff831e14f1bb548ecfff627874644f",
          "blockNumber": "0xaad296",
          "blockTimestamp": "0x6a47d20c",
          "transactionHash": "0x42eb16ec13fd08114262802150faa86824dab84c00387c6a2cb5b44fa3edfa47",
          "transactionIndex": "0x8c",
          "logIndex": "0x2dc",
          "removed": false
        },
        {
          "address": "0x3eef0143f986c46143d08acbb499862b63116568",
          "topics": [
            "0xc7f505b2f371ae2175ee4913f4499e1f2633a7b5936321eed1cdaeb6115181d2"
          ],
          "data": "0x0000000000000000000000000000000000000000000000000000000000000001",
          "blockHash": "0x4385b75651a0b416ddd5ba0c64bb965cbfff831e14f1bb548ecfff627874644f",
          "blockNumber": "0xaad296",
          "blockTimestamp": "0x6a47d20c",
          "transactionHash": "0x42eb16ec13fd08114262802150faa86824dab84c00387c6a2cb5b44fa3edfa47",
          "transactionIndex": "0x8c",
          "logIndex": "0x2dd",
          "removed": false
        },
        {
          "address": "0xd4877cbfdfda8e79fb5e636b8c4a86781c277a5f",
          "topics": [
            "0x8be0079c531659141344cd1fd0a4f28419497f9722a3daafe3b4186f6b6457e0",
            "0x0000000000000000000000000000000000000000000000000000000000000000",
            "0x000000000000000000000000ff6bdef4fb646ee44e29fe8fc0862b02f0ba8a33"
          ],
          "data": "0x",
          "blockHash": "0x4385b75651a0b416ddd5ba0c64bb965cbfff831e14f1bb548ecfff627874644f",
          "blockNumber": "0xaad296",
          "blockTimestamp": "0x6a47d20c",
          "transactionHash": "0x42eb16ec13fd08114262802150faa86824dab84c00387c6a2cb5b44fa3edfa47",
          "transactionIndex": "0x8c",
          "logIndex": "0x2de",
          "removed": false
        },
        {
          "address": "0x3eef0143f986c46143d08acbb499862b63116568",
          "topics": [
            "0x7e644d79422f17c01e4894b5f4f588d331ebfa28653d42ae832dc59e38c9798f"
          ],
          "data": "0x0000000000000000000000000000000000000000000000000000000000000000000000000000000000000000d4877cbfdfda8e79fb5e636b8c4a86781c277a5f",
          "blockHash": "0x4385b75651a0b416ddd5ba0c64bb965cbfff831e14f1bb548ecfff627874644f",
          "blockNumber": "0xaad296",
          "blockTimestamp": "0x6a47d20c",
          "transactionHash": "0x42eb16ec13fd08114262802150faa86824dab84c00387c6a2cb5b44fa3edfa47",
          "transactionIndex": "0x8c",
          "logIndex": "0x2df",
          "removed": false
        },
        {
          "address": "0xef24a895552ee796873f2a52041ffe1eaad3338e",
          "topics": [
            "0xbc7cd75a20ee27fd9adebab32041f755214dbc6bffa90cc0225b39da2e5c2d3b",
            "0x000000000000000000000000092ed1e0845f6817e24316a730e98ec074e5f017"
          ],
          "data": "0x",
          "blockHash": "0x4385b75651a0b416ddd5ba0c64bb965cbfff831e14f1bb548ecfff627874644f",
          "blockNumber": "0xaad296",
          "blockTimestamp": "0x6a47d20c",
          "transactionHash": "0x42eb16ec13fd08114262802150faa86824dab84c00387c6a2cb5b44fa3edfa47",
          "transactionIndex": "0x8c",
          "logIndex": "0x2e0",
          "removed": false
        },
        {
          "address": "0xef24a895552ee796873f2a52041ffe1eaad3338e",
          "topics": [
            "0xc7f505b2f371ae2175ee4913f4499e1f2633a7b5936321eed1cdaeb6115181d2"
          ],
          "data": "0x0000000000000000000000000000000000000000000000000000000000000001",
          "blockHash": "0x4385b75651a0b416ddd5ba0c64bb965cbfff831e14f1bb548ecfff627874644f",
          "blockNumber": "0xaad296",
          "blockTimestamp": "0x6a47d20c",
          "transactionHash": "0x42eb16ec13fd08114262802150faa86824dab84c00387c6a2cb5b44fa3edfa47",
          "transactionIndex": "0x8c",
          "logIndex": "0x2e1",
          "removed": false
        },
        {
          "address": "0x5fc6a0d6790facc0c50c15594a73c855cb6d2ca0",
          "topics": [
            "0x8be0079c531659141344cd1fd0a4f28419497f9722a3daafe3b4186f6b6457e0",
            "0x0000000000000000000000000000000000000000000000000000000000000000",
            "0x000000000000000000000000ff6bdef4fb646ee44e29fe8fc0862b02f0ba8a33"
          ],
          "data": "0x",
          "blockHash": "0x4385b75651a0b416ddd5ba0c64bb965cbfff831e14f1bb548ecfff627874644f",
          "blockNumber": "0xaad296",
          "blockTimestamp": "0x6a47d20c",
          "transactionHash": "0x42eb16ec13fd08114262802150faa86824dab84c00387c6a2cb5b44fa3edfa47",
          "transactionIndex": "0x8c",
          "logIndex": "0x2e2",
          "removed": false
        },
        {
          "address": "0xef24a895552ee796873f2a52041ffe1eaad3338e",
          "topics": [
            "0x7e644d79422f17c01e4894b5f4f588d331ebfa28653d42ae832dc59e38c9798f"
          ],
          "data": "0x00000000000000000000000000000000000000000000000000000000000000000000000000000000000000005fc6a0d6790facc0c50c15594a73c855cb6d2ca0",
          "blockHash": "0x4385b75651a0b416ddd5ba0c64bb965cbfff831e14f1bb548ecfff627874644f",
          "blockNumber": "0xaad296",
          "blockTimestamp": "0x6a47d20c",
          "transactionHash": "0x42eb16ec13fd08114262802150faa86824dab84c00387c6a2cb5b44fa3edfa47",
          "transactionIndex": "0x8c",
          "logIndex": "0x2e3",
          "removed": false
        },
        {
          "address": "0x708588c7d22d58473847dd4c7f028a5faf58fe96",
          "topics": [
            "0xbc7cd75a20ee27fd9adebab32041f755214dbc6bffa90cc0225b39da2e5c2d3b",
            "0x00000000000000000000000038da3922d3bc3281f57946618404f0e341777f68"
          ],
          "data": "0x",
          "blockHash": "0x4385b75651a0b416ddd5ba0c64bb965cbfff831e14f1bb548ecfff627874644f",
          "blockNumber": "0xaad296",
          "blockTimestamp": "0x6a47d20c",
          "transactionHash": "0x42eb16ec13fd08114262802150faa86824dab84c00387c6a2cb5b44fa3edfa47",
          "transactionIndex": "0x8c",
          "logIndex": "0x2e4",
          "removed": false
        },
        {
          "address": "0x708588c7d22d58473847dd4c7f028a5faf58fe96",
          "topics": [
            "0xc7f505b2f371ae2175ee4913f4499e1f2633a7b5936321eed1cdaeb6115181d2"
          ],
          "data": "0x0000000000000000000000000000000000000000000000000000000000000001",
          "blockHash": "0x4385b75651a0b416ddd5ba0c64bb965cbfff831e14f1bb548ecfff627874644f",
          "blockNumber": "0xaad296",
          "blockTimestamp": "0x6a47d20c",
          "transactionHash": "0x42eb16ec13fd08114262802150faa86824dab84c00387c6a2cb5b44fa3edfa47",
          "transactionIndex": "0x8c",
          "logIndex": "0x2e5",
          "removed": false
        },
        {
          "address": "0x3fc1a3a7f690722a6d10a85d511bb78545539655",
          "topics": [
            "0x8be0079c531659141344cd1fd0a4f28419497f9722a3daafe3b4186f6b6457e0",
            "0x0000000000000000000000000000000000000000000000000000000000000000",
            "0x000000000000000000000000ff6bdef4fb646ee44e29fe8fc0862b02f0ba8a33"
          ],
          "data": "0x",
          "blockHash": "0x4385b75651a0b416ddd5ba0c64bb965cbfff831e14f1bb548ecfff627874644f",
          "blockNumber": "0xaad296",
          "blockTimestamp": "0x6a47d20c",
          "transactionHash": "0x42eb16ec13fd08114262802150faa86824dab84c00387c6a2cb5b44fa3edfa47",
          "transactionIndex": "0x8c",
          "logIndex": "0x2e6",
          "removed": false
        },
        {
          "address": "0x708588c7d22d58473847dd4c7f028a5faf58fe96",
          "topics": [
            "0x7e644d79422f17c01e4894b5f4f588d331ebfa28653d42ae832dc59e38c9798f"
          ],
          "data": "0x00000000000000000000000000000000000000000000000000000000000000000000000000000000000000003fc1a3a7f690722a6d10a85d511bb78545539655",
          "blockHash": "0x4385b75651a0b416ddd5ba0c64bb965cbfff831e14f1bb548ecfff627874644f",
          "blockNumber": "0xaad296",
          "blockTimestamp": "0x6a47d20c",
          "transactionHash": "0x42eb16ec13fd08114262802150faa86824dab84c00387c6a2cb5b44fa3edfa47",
          "transactionIndex": "0x8c",
          "logIndex": "0x2e7",
          "removed": false
        },
        {
          "address": "0x0f1b855d56b41d768a3e7332e0cfca1d1badd569",
          "topics": [
            "0xbc7cd75a20ee27fd9adebab32041f755214dbc6bffa90cc0225b39da2e5c2d3b",
            "0x0000000000000000000000008d434e38dd91d9b738f8803dbd18b815720bedad"
          ],
          "data": "0x",
          "blockHash": "0x4385b75651a0b416ddd5ba0c64bb965cbfff831e14f1bb548ecfff627874644f",
          "blockNumber": "0xaad296",
          "blockTimestamp": "0x6a47d20c",
          "transactionHash": "0x42eb16ec13fd08114262802150faa86824dab84c00387c6a2cb5b44fa3edfa47",
          "transactionIndex": "0x8c",
          "logIndex": "0x2e8",
          "removed": false
        },
        {
          "address": "0x0f1b855d56b41d768a3e7332e0cfca1d1badd569",
          "topics": [
            "0xc7f505b2f371ae2175ee4913f4499e1f2633a7b5936321eed1cdaeb6115181d2"
          ],
          "data": "0x0000000000000000000000000000000000000000000000000000000000000001",
          "blockHash": "0x4385b75651a0b416ddd5ba0c64bb965cbfff831e14f1bb548ecfff627874644f",
          "blockNumber": "0xaad296",
          "blockTimestamp": "0x6a47d20c",
          "transactionHash": "0x42eb16ec13fd08114262802150faa86824dab84c00387c6a2cb5b44fa3edfa47",
          "transactionIndex": "0x8c",
          "logIndex": "0x2e9",
          "removed": false
        },
        {
          "address": "0x899a4f96b5a9c6870c7517b72821b9a57fd370d8",
          "topics": [
            "0x8be0079c531659141344cd1fd0a4f28419497f9722a3daafe3b4186f6b6457e0",
            "0x0000000000000000000000000000000000000000000000000000000000000000",
            "0x000000000000000000000000ff6bdef4fb646ee44e29fe8fc0862b02f0ba8a33"
          ],
          "data": "0x",
          "blockHash": "0x4385b75651a0b416ddd5ba0c64bb965cbfff831e14f1bb548ecfff627874644f",
          "blockNumber": "0xaad296",
          "blockTimestamp": "0x6a47d20c",
          "transactionHash": "0x42eb16ec13fd08114262802150faa86824dab84c00387c6a2cb5b44fa3edfa47",
          "transactionIndex": "0x8c",
          "logIndex": "0x2ea",
          "removed": false
        },
        {
          "address": "0x0f1b855d56b41d768a3e7332e0cfca1d1badd569",
          "topics": [
            "0x7e644d79422f17c01e4894b5f4f588d331ebfa28653d42ae832dc59e38c9798f"
          ],
          "data": "0x0000000000000000000000000000000000000000000000000000000000000000000000000000000000000000899a4f96b5a9c6870c7517b72821b9a57fd370d8",
          "blockHash": "0x4385b75651a0b416ddd5ba0c64bb965cbfff831e14f1bb548ecfff627874644f",
          "blockNumber": "0xaad296",
          "blockTimestamp": "0x6a47d20c",
          "transactionHash": "0x42eb16ec13fd08114262802150faa86824dab84c00387c6a2cb5b44fa3edfa47",
          "transactionIndex": "0x8c",
          "logIndex": "0x2eb",
          "removed": false
        },
        {
          "address": "0x64e8ce3911646154e4e29d715c12b5b1b948d196",
          "topics": [
            "0xe4820932fb8bfeb1d651397e57975ed0c2c8652dbf3cea72ffcb6007744d256f",
            "0xa04e266000000000000000000000000000000000000000000000000000000000",
            "0xc472767d72fba4fcee7061e2ac39a16f5573eb47987e601e2298bc318921f04b"
          ],
          "data": "0x",
          "blockHash": "0x4385b75651a0b416ddd5ba0c64bb965cbfff831e14f1bb548ecfff627874644f",
          "blockNumber": "0xaad296",
          "blockTimestamp": "0x6a47d20c",
          "transactionHash": "0x42eb16ec13fd08114262802150faa86824dab84c00387c6a2cb5b44fa3edfa47",
          "transactionIndex": "0x8c",
          "logIndex": "0x2ec",
          "removed": false
        },
        {
          "address": "0x64e8ce3911646154e4e29d715c12b5b1b948d196",
          "topics": [
            "0xe4820932fb8bfeb1d651397e57975ed0c2c8652dbf3cea72ffcb6007744d256f",
            "0x666033e600000000000000000000000000000000000000000000000000000000",
            "0xc472767d72fba4fcee7061e2ac39a16f5573eb47987e601e2298bc318921f04b"
          ],
          "data": "0x",
          "blockHash": "0x4385b75651a0b416ddd5ba0c64bb965cbfff831e14f1bb548ecfff627874644f",
          "blockNumber": "0xaad296",
          "blockTimestamp": "0x6a47d20c",
          "transactionHash": "0x42eb16ec13fd08114262802150faa86824dab84c00387c6a2cb5b44fa3edfa47",
          "transactionIndex": "0x8c",
          "logIndex": "0x2ed",
          "removed": false
        },
        {
          "address": "0x64e8ce3911646154e4e29d715c12b5b1b948d196",
          "topics": [
            "0xe4820932fb8bfeb1d651397e57975ed0c2c8652dbf3cea72ffcb6007744d256f",
            "0xd8134a2300000000000000000000000000000000000000000000000000000000",
            "0xc472767d72fba4fcee7061e2ac39a16f5573eb47987e601e2298bc318921f04b"
          ],
          "data": "0x",
          "blockHash": "0x4385b75651a0b416ddd5ba0c64bb965cbfff831e14f1bb548ecfff627874644f",
          "blockNumber": "0xaad296",
          "blockTimestamp": "0x6a47d20c",
          "transactionHash": "0x42eb16ec13fd08114262802150faa86824dab84c00387c6a2cb5b44fa3edfa47",
          "transactionIndex": "0x8c",
          "logIndex": "0x2ee",
          "removed": false
        },
        {
          "address": "0x64e8ce3911646154e4e29d715c12b5b1b948d196",
          "topics": [
            "0xe4820932fb8bfeb1d651397e57975ed0c2c8652dbf3cea72ffcb6007744d256f",
            "0xcce7ec1300000000000000000000000000000000000000000000000000000000",
            "0xc472767d72fba4fcee7061e2ac39a16f5573eb47987e601e2298bc318921f04b"
          ],
          "data": "0x",
          "blockHash": "0x4385b75651a0b416ddd5ba0c64bb965cbfff831e14f1bb548ecfff627874644f",
          "blockNumber": "0xaad296",
          "blockTimestamp": "0x6a47d20c",
          "transactionHash": "0x42eb16ec13fd08114262802150faa86824dab84c00387c6a2cb5b44fa3edfa47",
          "transactionIndex": "0x8c",
          "logIndex": "0x2ef",
          "removed": false
        },
        {
          "address": "0x64e8ce3911646154e4e29d715c12b5b1b948d196",
          "topics": [
            "0xe4820932fb8bfeb1d651397e57975ed0c2c8652dbf3cea72ffcb6007744d256f",
            "0xad5d4bc500000000000000000000000000000000000000000000000000000000",
            "0xc472767d72fba4fcee7061e2ac39a16f5573eb47987e601e2298bc318921f04b"
          ],
          "data": "0x",
          "blockHash": "0x4385b75651a0b416ddd5ba0c64bb965cbfff831e14f1bb548ecfff627874644f",
          "blockNumber": "0xaad296",
          "blockTimestamp": "0x6a47d20c",
          "transactionHash": "0x42eb16ec13fd08114262802150faa86824dab84c00387c6a2cb5b44fa3edfa47",
          "transactionIndex": "0x8c",
          "logIndex": "0x2f0",
          "removed": false
        },
        {
          "address": "0x64e8ce3911646154e4e29d715c12b5b1b948d196",
          "topics": [
            "0xe4820932fb8bfeb1d651397e57975ed0c2c8652dbf3cea72ffcb6007744d256f",
            "0x9cbc0c9000000000000000000000000000000000000000000000000000000000",
            "0xc472767d72fba4fcee7061e2ac39a16f5573eb47987e601e2298bc318921f04b"
          ],
          "data": "0x",
          "blockHash": "0x4385b75651a0b416ddd5ba0c64bb965cbfff831e14f1bb548ecfff627874644f",
          "blockNumber": "0xaad296",
          "blockTimestamp": "0x6a47d20c",
          "transactionHash": "0x42eb16ec13fd08114262802150faa86824dab84c00387c6a2cb5b44fa3edfa47",
          "transactionIndex": "0x8c",
          "logIndex": "0x2f1",
          "removed": false
        },
        {
          "address": "0x64e8ce3911646154e4e29d715c12b5b1b948d196",
          "topics": [
            "0xe4820932fb8bfeb1d651397e57975ed0c2c8652dbf3cea72ffcb6007744d256f",
            "0xe7fa35ea00000000000000000000000000000000000000000000000000000000",
            "0xc472767d72fba4fcee7061e2ac39a16f5573eb47987e601e2298bc318921f04b"
          ],
          "data": "0x",
          "blockHash": "0x4385b75651a0b416ddd5ba0c64bb965cbfff831e14f1bb548ecfff627874644f",
          "blockNumber": "0xaad296",
          "blockTimestamp": "0x6a47d20c",
          "transactionHash": "0x42eb16ec13fd08114262802150faa86824dab84c00387c6a2cb5b44fa3edfa47",
          "transactionIndex": "0x8c",
          "logIndex": "0x2f2",
          "removed": false
        },
        {
          "address": "0x64e8ce3911646154e4e29d715c12b5b1b948d196",
          "topics": [
            "0xe4820932fb8bfeb1d651397e57975ed0c2c8652dbf3cea72ffcb6007744d256f",
            "0xfb3e6f2900000000000000000000000000000000000000000000000000000000",
            "0xc472767d72fba4fcee7061e2ac39a16f5573eb47987e601e2298bc318921f04b"
          ],
          "data": "0x",
          "blockHash": "0x4385b75651a0b416ddd5ba0c64bb965cbfff831e14f1bb548ecfff627874644f",
          "blockNumber": "0xaad296",
          "blockTimestamp": "0x6a47d20c",
          "transactionHash": "0x42eb16ec13fd08114262802150faa86824dab84c00387c6a2cb5b44fa3edfa47",
          "transactionIndex": "0x8c",
          "logIndex": "0x2f3",
          "removed": false
        },
        {
          "address": "0x64e8ce3911646154e4e29d715c12b5b1b948d196",
          "topics": [
            "0xe4820932fb8bfeb1d651397e57975ed0c2c8652dbf3cea72ffcb6007744d256f",
            "0xea12e9b600000000000000000000000000000000000000000000000000000000",
            "0xc472767d72fba4fcee7061e2ac39a16f5573eb47987e601e2298bc318921f04b"
          ],
          "data": "0x",
          "blockHash": "0x4385b75651a0b416ddd5ba0c64bb965cbfff831e14f1bb548ecfff627874644f",
          "blockNumber": "0xaad296",
          "blockTimestamp": "0x6a47d20c",
          "transactionHash": "0x42eb16ec13fd08114262802150faa86824dab84c00387c6a2cb5b44fa3edfa47",
          "transactionIndex": "0x8c",
          "logIndex": "0x2f4",
          "removed": false
        },
        {
          "address": "0x64e8ce3911646154e4e29d715c12b5b1b948d196",
          "topics": [
            "0xe4820932fb8bfeb1d651397e57975ed0c2c8652dbf3cea72ffcb6007744d256f",
            "0xf5d8790400000000000000000000000000000000000000000000000000000000",
            "0xc472767d72fba4fcee7061e2ac39a16f5573eb47987e601e2298bc318921f04b"
          ],
          "data": "0x",
          "blockHash": "0x4385b75651a0b416ddd5ba0c64bb965cbfff831e14f1bb548ecfff627874644f",
          "blockNumber": "0xaad296",
          "blockTimestamp": "0x6a47d20c",
          "transactionHash": "0x42eb16ec13fd08114262802150faa86824dab84c00387c6a2cb5b44fa3edfa47",
          "transactionIndex": "0x8c",
          "logIndex": "0x2f5",
          "removed": false
        },
        {
          "address": "0x64e8ce3911646154e4e29d715c12b5b1b948d196",
          "topics": [
            "0xe4820932fb8bfeb1d651397e57975ed0c2c8652dbf3cea72ffcb6007744d256f",
            "0xae3b748d00000000000000000000000000000000000000000000000000000000",
            "0xc472767d72fba4fcee7061e2ac39a16f5573eb47987e601e2298bc318921f04b"
          ],
          "data": "0x",
          "blockHash": "0x4385b75651a0b416ddd5ba0c64bb965cbfff831e14f1bb548ecfff627874644f",
          "blockNumber": "0xaad296",
          "blockTimestamp": "0x6a47d20c",
          "transactionHash": "0x42eb16ec13fd08114262802150faa86824dab84c00387c6a2cb5b44fa3edfa47",
          "transactionIndex": "0x8c",
          "logIndex": "0x2f6",
          "removed": false
        },
        {
          "address": "0x64e8ce3911646154e4e29d715c12b5b1b948d196",
          "topics": [
            "0xe4820932fb8bfeb1d651397e57975ed0c2c8652dbf3cea72ffcb6007744d256f",
            "0x763265de00000000000000000000000000000000000000000000000000000000",
            "0xc472767d72fba4fcee7061e2ac39a16f5573eb47987e601e2298bc318921f04b"
          ],
          "data": "0x",
          "blockHash": "0x4385b75651a0b416ddd5ba0c64bb965cbfff831e14f1bb548ecfff627874644f",
          "blockNumber": "0xaad296",
          "blockTimestamp": "0x6a47d20c",
          "transactionHash": "0x42eb16ec13fd08114262802150faa86824dab84c00387c6a2cb5b44fa3edfa47",
          "transactionIndex": "0x8c",
          "logIndex": "0x2f7",
          "removed": false
        },
        {
          "address": "0x64e8ce3911646154e4e29d715c12b5b1b948d196",
          "topics": [
            "0xe4820932fb8bfeb1d651397e57975ed0c2c8652dbf3cea72ffcb6007744d256f",
            "0xb5ac48a000000000000000000000000000000000000000000000000000000000",
            "0xc472767d72fba4fcee7061e2ac39a16f5573eb47987e601e2298bc318921f04b"
          ],
          "data": "0x",
          "blockHash": "0x4385b75651a0b416ddd5ba0c64bb965cbfff831e14f1bb548ecfff627874644f",
          "blockNumber": "0xaad296",
          "blockTimestamp": "0x6a47d20c",
          "transactionHash": "0x42eb16ec13fd08114262802150faa86824dab84c00387c6a2cb5b44fa3edfa47",
          "transactionIndex": "0x8c",
          "logIndex": "0x2f8",
          "removed": false
        },
        {
          "address": "0x64e8ce3911646154e4e29d715c12b5b1b948d196",
          "topics": [
            "0xe4820932fb8bfeb1d651397e57975ed0c2c8652dbf3cea72ffcb6007744d256f",
            "0x449e815d00000000000000000000000000000000000000000000000000000000",
            "0xc472767d72fba4fcee7061e2ac39a16f5573eb47987e601e2298bc318921f04b"
          ],
          "data": "0x",
          "blockHash": "0x4385b75651a0b416ddd5ba0c64bb965cbfff831e14f1bb548ecfff627874644f",
          "blockNumber": "0xaad296",
          "blockTimestamp": "0x6a47d20c",
          "transactionHash": "0x42eb16ec13fd08114262802150faa86824dab84c00387c6a2cb5b44fa3edfa47",
          "transactionIndex": "0x8c",
          "logIndex": "0x2f9",
          "removed": false
        },
        {
          "address": "0x64e8ce3911646154e4e29d715c12b5b1b948d196",
          "topics": [
            "0xe4820932fb8bfeb1d651397e57975ed0c2c8652dbf3cea72ffcb6007744d256f",
            "0x2f75700600000000000000000000000000000000000000000000000000000000",
            "0xc472767d72fba4fcee7061e2ac39a16f5573eb47987e601e2298bc318921f04b"
          ],
          "data": "0x",
          "blockHash": "0x4385b75651a0b416ddd5ba0c64bb965cbfff831e14f1bb548ecfff627874644f",
          "blockNumber": "0xaad296",
          "blockTimestamp": "0x6a47d20c",
          "transactionHash": "0x42eb16ec13fd08114262802150faa86824dab84c00387c6a2cb5b44fa3edfa47",
          "transactionIndex": "0x8c",
          "logIndex": "0x2fa",
          "removed": false
        },
        {
          "address": "0x64e8ce3911646154e4e29d715c12b5b1b948d196",
          "topics": [
            "0xe4820932fb8bfeb1d651397e57975ed0c2c8652dbf3cea72ffcb6007744d256f",
            "0x0bec101c00000000000000000000000000000000000000000000000000000000",
            "0xc472767d72fba4fcee7061e2ac39a16f5573eb47987e601e2298bc318921f04b"
          ],
          "data": "0x",
          "blockHash": "0x4385b75651a0b416ddd5ba0c64bb965cbfff831e14f1bb548ecfff627874644f",
          "blockNumber": "0xaad296",
          "blockTimestamp": "0x6a47d20c",
          "transactionHash": "0x42eb16ec13fd08114262802150faa86824dab84c00387c6a2cb5b44fa3edfa47",
          "transactionIndex": "0x8c",
          "logIndex": "0x2fb",
          "removed": false
        },
        {
          "address": "0x64e8ce3911646154e4e29d715c12b5b1b948d196",
          "topics": [
            "0xe4820932fb8bfeb1d651397e57975ed0c2c8652dbf3cea72ffcb6007744d256f",
            "0xfe136c4e00000000000000000000000000000000000000000000000000000000",
            "0xc472767d72fba4fcee7061e2ac39a16f5573eb47987e601e2298bc318921f04b"
          ],
          "data": "0x",
          "blockHash": "0x4385b75651a0b416ddd5ba0c64bb965cbfff831e14f1bb548ecfff627874644f",
          "blockNumber": "0xaad296",
          "blockTimestamp": "0x6a47d20c",
          "transactionHash": "0x42eb16ec13fd08114262802150faa86824dab84c00387c6a2cb5b44fa3edfa47",
          "transactionIndex": "0x8c",
          "logIndex": "0x2fc",
          "removed": false
        },
        {
          "address": "0x64e8ce3911646154e4e29d715c12b5b1b948d196",
          "topics": [
            "0xe4820932fb8bfeb1d651397e57975ed0c2c8652dbf3cea72ffcb6007744d256f",
            "0x7b1b1de600000000000000000000000000000000000000000000000000000000",
            "0xc472767d72fba4fcee7061e2ac39a16f5573eb47987e601e2298bc318921f04b"
          ],
          "data": "0x",
          "blockHash": "0x4385b75651a0b416ddd5ba0c64bb965cbfff831e14f1bb548ecfff627874644f",
          "blockNumber": "0xaad296",
          "blockTimestamp": "0x6a47d20c",
          "transactionHash": "0x42eb16ec13fd08114262802150faa86824dab84c00387c6a2cb5b44fa3edfa47",
          "transactionIndex": "0x8c",
          "logIndex": "0x2fd",
          "removed": false
        },
        {
          "address": "0x64e8ce3911646154e4e29d715c12b5b1b948d196",
          "topics": [
            "0xe4820932fb8bfeb1d651397e57975ed0c2c8652dbf3cea72ffcb6007744d256f",
            "0x3fa615b000000000000000000000000000000000000000000000000000000000",
            "0xc472767d72fba4fcee7061e2ac39a16f5573eb47987e601e2298bc318921f04b"
          ],
          "data": "0x",
          "blockHash": "0x4385b75651a0b416ddd5ba0c64bb965cbfff831e14f1bb548ecfff627874644f",
          "blockNumber": "0xaad296",
          "blockTimestamp": "0x6a47d20c",
          "transactionHash": "0x42eb16ec13fd08114262802150faa86824dab84c00387c6a2cb5b44fa3edfa47",
          "transactionIndex": "0x8c",
          "logIndex": "0x2fe",
          "removed": false
        },
        {
          "address": "0x64e8ce3911646154e4e29d715c12b5b1b948d196",
          "topics": [
            "0xe4820932fb8bfeb1d651397e57975ed0c2c8652dbf3cea72ffcb6007744d256f",
            "0x23548b8b00000000000000000000000000000000000000000000000000000000",
            "0xc472767d72fba4fcee7061e2ac39a16f5573eb47987e601e2298bc318921f04b"
          ],
          "data": "0x",
          "blockHash": "0x4385b75651a0b416ddd5ba0c64bb965cbfff831e14f1bb548ecfff627874644f",
          "blockNumber": "0xaad296",
          "blockTimestamp": "0x6a47d20c",
          "transactionHash": "0x42eb16ec13fd08114262802150faa86824dab84c00387c6a2cb5b44fa3edfa47",
          "transactionIndex": "0x8c",
          "logIndex": "0x2ff",
          "removed": false
        },
        {
          "address": "0x64e8ce3911646154e4e29d715c12b5b1b948d196",
          "topics": [
            "0xe4820932fb8bfeb1d651397e57975ed0c2c8652dbf3cea72ffcb6007744d256f",
            "0x796b23bb00000000000000000000000000000000000000000000000000000000",
            "0xc472767d72fba4fcee7061e2ac39a16f5573eb47987e601e2298bc318921f04b"
          ],
          "data": "0x",
          "blockHash": "0x4385b75651a0b416ddd5ba0c64bb965cbfff831e14f1bb548ecfff627874644f",
          "blockNumber": "0xaad296",
          "blockTimestamp": "0x6a47d20c",
          "transactionHash": "0x42eb16ec13fd08114262802150faa86824dab84c00387c6a2cb5b44fa3edfa47",
          "transactionIndex": "0x8c",
          "logIndex": "0x300",
          "removed": false
        },
        {
          "address": "0x64e8ce3911646154e4e29d715c12b5b1b948d196",
          "topics": [
            "0xe4820932fb8bfeb1d651397e57975ed0c2c8652dbf3cea72ffcb6007744d256f",
            "0xe76c590800000000000000000000000000000000000000000000000000000000",
            "0xc472767d72fba4fcee7061e2ac39a16f5573eb47987e601e2298bc318921f04b"
          ],
          "data": "0x",
          "blockHash": "0x4385b75651a0b416ddd5ba0c64bb965cbfff831e14f1bb548ecfff627874644f",
          "blockNumber": "0xaad296",
          "blockTimestamp": "0x6a47d20c",
          "transactionHash": "0x42eb16ec13fd08114262802150faa86824dab84c00387c6a2cb5b44fa3edfa47",
          "transactionIndex": "0x8c",
          "logIndex": "0x301",
          "removed": false
        },
        {
          "address": "0x64e8ce3911646154e4e29d715c12b5b1b948d196",
          "topics": [
            "0xe4820932fb8bfeb1d651397e57975ed0c2c8652dbf3cea72ffcb6007744d256f",
            "0x1c1e04ac00000000000000000000000000000000000000000000000000000000",
            "0xc472767d72fba4fcee7061e2ac39a16f5573eb47987e601e2298bc318921f04b"
          ],
          "data": "0x",
          "blockHash": "0x4385b75651a0b416ddd5ba0c64bb965cbfff831e14f1bb548ecfff627874644f",
          "blockNumber": "0xaad296",
          "blockTimestamp": "0x6a47d20c",
          "transactionHash": "0x42eb16ec13fd08114262802150faa86824dab84c00387c6a2cb5b44fa3edfa47",
          "transactionIndex": "0x8c",
          "logIndex": "0x302",
          "removed": false
        },
        {
          "address": "0x64e8ce3911646154e4e29d715c12b5b1b948d196",
          "topics": [
            "0xe4820932fb8bfeb1d651397e57975ed0c2c8652dbf3cea72ffcb6007744d256f",
            "0x771282f600000000000000000000000000000000000000000000000000000000",
            "0xc472767d72fba4fcee7061e2ac39a16f5573eb47987e601e2298bc318921f04b"
          ],
          "data": "0x",
          "blockHash": "0x4385b75651a0b416ddd5ba0c64bb965cbfff831e14f1bb548ecfff627874644f",
          "blockNumber": "0xaad296",
          "blockTimestamp": "0x6a47d20c",
          "transactionHash": "0x42eb16ec13fd08114262802150faa86824dab84c00387c6a2cb5b44fa3edfa47",
          "transactionIndex": "0x8c",
          "logIndex": "0x303",
          "removed": false
        },
        {
          "address": "0x64e8ce3911646154e4e29d715c12b5b1b948d196",
          "topics": [
            "0xe4820932fb8bfeb1d651397e57975ed0c2c8652dbf3cea72ffcb6007744d256f",
            "0x6b98f83500000000000000000000000000000000000000000000000000000000",
            "0xc472767d72fba4fcee7061e2ac39a16f5573eb47987e601e2298bc318921f04b"
          ],
          "data": "0x",
          "blockHash": "0x4385b75651a0b416ddd5ba0c64bb965cbfff831e14f1bb548ecfff627874644f",
          "blockNumber": "0xaad296",
          "blockTimestamp": "0x6a47d20c",
          "transactionHash": "0x42eb16ec13fd08114262802150faa86824dab84c00387c6a2cb5b44fa3edfa47",
          "transactionIndex": "0x8c",
          "logIndex": "0x304",
          "removed": false
        },
        {
          "address": "0x64e8ce3911646154e4e29d715c12b5b1b948d196",
          "topics": [
            "0xe4820932fb8bfeb1d651397e57975ed0c2c8652dbf3cea72ffcb6007744d256f",
            "0xa36c415600000000000000000000000000000000000000000000000000000000",
            "0xc472767d72fba4fcee7061e2ac39a16f5573eb47987e601e2298bc318921f04b"
          ],
          "data": "0x",
          "blockHash": "0x4385b75651a0b416ddd5ba0c64bb965cbfff831e14f1bb548ecfff627874644f",
          "blockNumber": "0xaad296",
          "blockTimestamp": "0x6a47d20c",
          "transactionHash": "0x42eb16ec13fd08114262802150faa86824dab84c00387c6a2cb5b44fa3edfa47",
          "transactionIndex": "0x8c",
          "logIndex": "0x305",
          "removed": false
        },
        {
          "address": "0x64e8ce3911646154e4e29d715c12b5b1b948d196",
          "topics": [
            "0xe4820932fb8bfeb1d651397e57975ed0c2c8652dbf3cea72ffcb6007744d256f",
            "0xf8dfe6ca00000000000000000000000000000000000000000000000000000000",
            "0xc472767d72fba4fcee7061e2ac39a16f5573eb47987e601e2298bc318921f04b"
          ],
          "data": "0x",
          "blockHash": "0x4385b75651a0b416ddd5ba0c64bb965cbfff831e14f1bb548ecfff627874644f",
          "blockNumber": "0xaad296",
          "blockTimestamp": "0x6a47d20c",
          "transactionHash": "0x42eb16ec13fd08114262802150faa86824dab84c00387c6a2cb5b44fa3edfa47",
          "transactionIndex": "0x8c",
          "logIndex": "0x306",
          "removed": false
        },
        {
          "address": "0x64e8ce3911646154e4e29d715c12b5b1b948d196",
          "topics": [
            "0xe4820932fb8bfeb1d651397e57975ed0c2c8652dbf3cea72ffcb6007744d256f",
            "0x912aeac900000000000000000000000000000000000000000000000000000000",
            "0xc472767d72fba4fcee7061e2ac39a16f5573eb47987e601e2298bc318921f04b"
          ],
          "data": "0x",
          "blockHash": "0x4385b75651a0b416ddd5ba0c64bb965cbfff831e14f1bb548ecfff627874644f",
          "blockNumber": "0xaad296",
          "blockTimestamp": "0x6a47d20c",
          "transactionHash": "0x42eb16ec13fd08114262802150faa86824dab84c00387c6a2cb5b44fa3edfa47",
          "transactionIndex": "0x8c",
          "logIndex": "0x307",
          "removed": false
        },
        {
          "address": "0x64e8ce3911646154e4e29d715c12b5b1b948d196",
          "topics": [
            "0xe4820932fb8bfeb1d651397e57975ed0c2c8652dbf3cea72ffcb6007744d256f",
            "0x6d291fe200000000000000000000000000000000000000000000000000000000",
            "0xc472767d72fba4fcee7061e2ac39a16f5573eb47987e601e2298bc318921f04b"
          ],
          "data": "0x",
          "blockHash": "0x4385b75651a0b416ddd5ba0c64bb965cbfff831e14f1bb548ecfff627874644f",
          "blockNumber": "0xaad296",
          "blockTimestamp": "0x6a47d20c",
          "transactionHash": "0x42eb16ec13fd08114262802150faa86824dab84c00387c6a2cb5b44fa3edfa47",
          "transactionIndex": "0x8c",
          "logIndex": "0x308",
          "removed": false
        },
        {
          "address": "0x64e8ce3911646154e4e29d715c12b5b1b948d196",
          "topics": [
            "0xc3b3bba350d426d8b0241206f22ea56f835fbcc9ade54bd871bf75a0d6c9f887",
            "0xc472767d72fba4fcee7061e2ac39a16f5573eb47987e601e2298bc318921f04b",
            "0x0000000000000000000000004e11259078d5ef4de008b563f43f87616f3cf256",
            "0x88e9afc607128bf3de27d7af622a7cba98b48c9d710282f9e82f9fb433935e74"
          ],
          "data": "0x00000000000000000000000000000000000000000000000000000000000000200000000000000000000000000000000000000000000000000000000000000000",
          "blockHash": "0x4385b75651a0b416ddd5ba0c64bb965cbfff831e14f1bb548ecfff627874644f",
          "blockNumber": "0xaad296",
          "blockTimestamp": "0x6a47d20c",
          "transactionHash": "0x42eb16ec13fd08114262802150faa86824dab84c00387c6a2cb5b44fa3edfa47",
          "transactionIndex": "0x8c",
          "logIndex": "0x309",
          "removed": false
        },
        {
          "address": "0x64e8ce3911646154e4e29d715c12b5b1b948d196",
          "topics": [
            "0x4ea5d8560836bfba61d44f4e79836932f499a1372b9668df9ba51c1a49a8d822"
          ],
          "data": "0x00000000000000000000000000000000000000000000000001ff973cafa800000000000000000000000000000000000000000000000000000de0b6b3a76400000000000000000000000000000000000000000000000000056bc75e2d63100000000000000000000000000000000000000000000000000000000000006a6f5ea00000000000000000000000000000000000000000000000000000000001e13380000000000000000000000000000000000000000000000000000000000000012c",
          "blockHash": "0x4385b75651a0b416ddd5ba0c64bb965cbfff831e14f1bb548ecfff627874644f",
          "blockNumber": "0xaad296",
          "blockTimestamp": "0x6a47d20c",
          "transactionHash": "0x42eb16ec13fd08114262802150faa86824dab84c00387c6a2cb5b44fa3edfa47",
          "transactionIndex": "0x8c",
          "logIndex": "0x30a",
          "removed": false
        },
        {
          "address": "0x64e8ce3911646154e4e29d715c12b5b1b948d196",
          "topics": [
            "0xe4820932fb8bfeb1d651397e57975ed0c2c8652dbf3cea72ffcb6007744d256f",
            "0xa850809000000000000000000000000000000000000000000000000000000000",
            "0x8e5ea360bdeed818efd87c6f274fcdf58af90bb406d23ae98973b22658c61d20"
          ],
          "data": "0x",
          "blockHash": "0x4385b75651a0b416ddd5ba0c64bb965cbfff831e14f1bb548ecfff627874644f",
          "blockNumber": "0xaad296",
          "blockTimestamp": "0x6a47d20c",
          "transactionHash": "0x42eb16ec13fd08114262802150faa86824dab84c00387c6a2cb5b44fa3edfa47",
          "transactionIndex": "0x8c",
          "logIndex": "0x30b",
          "removed": false
        },
        {
          "address": "0x64e8ce3911646154e4e29d715c12b5b1b948d196",
          "topics": [
            "0xe4820932fb8bfeb1d651397e57975ed0c2c8652dbf3cea72ffcb6007744d256f",
            "0xe2233cbd00000000000000000000000000000000000000000000000000000000",
            "0x8e5ea360bdeed818efd87c6f274fcdf58af90bb406d23ae98973b22658c61d20"
          ],
          "data": "0x",
          "blockHash": "0x4385b75651a0b416ddd5ba0c64bb965cbfff831e14f1bb548ecfff627874644f",
          "blockNumber": "0xaad296",
          "blockTimestamp": "0x6a47d20c",
          "transactionHash": "0x42eb16ec13fd08114262802150faa86824dab84c00387c6a2cb5b44fa3edfa47",
          "transactionIndex": "0x8c",
          "logIndex": "0x30c",
          "removed": false
        },
        {
          "address": "0x64e8ce3911646154e4e29d715c12b5b1b948d196",
          "topics": [
            "0xe4820932fb8bfeb1d651397e57975ed0c2c8652dbf3cea72ffcb6007744d256f",
            "0xe740010f00000000000000000000000000000000000000000000000000000000",
            "0x8e5ea360bdeed818efd87c6f274fcdf58af90bb406d23ae98973b22658c61d20"
          ],
          "data": "0x",
          "blockHash": "0x4385b75651a0b416ddd5ba0c64bb965cbfff831e14f1bb548ecfff627874644f",
          "blockNumber": "0xaad296",
          "blockTimestamp": "0x6a47d20c",
          "transactionHash": "0x42eb16ec13fd08114262802150faa86824dab84c00387c6a2cb5b44fa3edfa47",
          "transactionIndex": "0x8c",
          "logIndex": "0x30d",
          "removed": false
        },
        {
          "address": "0x64e8ce3911646154e4e29d715c12b5b1b948d196",
          "topics": [
            "0xe4820932fb8bfeb1d651397e57975ed0c2c8652dbf3cea72ffcb6007744d256f",
            "0xffc8321700000000000000000000000000000000000000000000000000000000",
            "0x8e5ea360bdeed818efd87c6f274fcdf58af90bb406d23ae98973b22658c61d20"
          ],
          "data": "0x",
          "blockHash": "0x4385b75651a0b416ddd5ba0c64bb965cbfff831e14f1bb548ecfff627874644f",
          "blockNumber": "0xaad296",
          "blockTimestamp": "0x6a47d20c",
          "transactionHash": "0x42eb16ec13fd08114262802150faa86824dab84c00387c6a2cb5b44fa3edfa47",
          "transactionIndex": "0x8c",
          "logIndex": "0x30e",
          "removed": false
        },
        {
          "address": "0x64e8ce3911646154e4e29d715c12b5b1b948d196",
          "topics": [
            "0xe4820932fb8bfeb1d651397e57975ed0c2c8652dbf3cea72ffcb6007744d256f",
            "0x251f47c100000000000000000000000000000000000000000000000000000000",
            "0x8e5ea360bdeed818efd87c6f274fcdf58af90bb406d23ae98973b22658c61d20"
          ],
          "data": "0x",
          "blockHash": "0x4385b75651a0b416ddd5ba0c64bb965cbfff831e14f1bb548ecfff627874644f",
          "blockNumber": "0xaad296",
          "blockTimestamp": "0x6a47d20c",
          "transactionHash": "0x42eb16ec13fd08114262802150faa86824dab84c00387c6a2cb5b44fa3edfa47",
          "transactionIndex": "0x8c",
          "logIndex": "0x30f",
          "removed": false
        },
        {
          "address": "0x64e8ce3911646154e4e29d715c12b5b1b948d196",
          "topics": [
            "0xe4820932fb8bfeb1d651397e57975ed0c2c8652dbf3cea72ffcb6007744d256f",
            "0x1a63dfe000000000000000000000000000000000000000000000000000000000",
            "0x8e5ea360bdeed818efd87c6f274fcdf58af90bb406d23ae98973b22658c61d20"
          ],
          "data": "0x",
          "blockHash": "0x4385b75651a0b416ddd5ba0c64bb965cbfff831e14f1bb548ecfff627874644f",
          "blockNumber": "0xaad296",
          "blockTimestamp": "0x6a47d20c",
          "transactionHash": "0x42eb16ec13fd08114262802150faa86824dab84c00387c6a2cb5b44fa3edfa47",
          "transactionIndex": "0x8c",
          "logIndex": "0x310",
          "removed": false
        },
        {
          "address": "0x64e8ce3911646154e4e29d715c12b5b1b948d196",
          "topics": [
            "0xe4820932fb8bfeb1d651397e57975ed0c2c8652dbf3cea72ffcb6007744d256f",
            "0x6d076eed00000000000000000000000000000000000000000000000000000000",
            "0x8e5ea360bdeed818efd87c6f274fcdf58af90bb406d23ae98973b22658c61d20"
          ],
          "data": "0x",
          "blockHash": "0x4385b75651a0b416ddd5ba0c64bb965cbfff831e14f1bb548ecfff627874644f",
          "blockNumber": "0xaad296",
          "blockTimestamp": "0x6a47d20c",
          "transactionHash": "0x42eb16ec13fd08114262802150faa86824dab84c00387c6a2cb5b44fa3edfa47",
          "transactionIndex": "0x8c",
          "logIndex": "0x311",
          "removed": false
        },
        {
          "address": "0x64e8ce3911646154e4e29d715c12b5b1b948d196",
          "topics": [
            "0xe4820932fb8bfeb1d651397e57975ed0c2c8652dbf3cea72ffcb6007744d256f",
            "0xa95effd300000000000000000000000000000000000000000000000000000000",
            "0x8e5ea360bdeed818efd87c6f274fcdf58af90bb406d23ae98973b22658c61d20"
          ],
          "data": "0x",
          "blockHash": "0x4385b75651a0b416ddd5ba0c64bb965cbfff831e14f1bb548ecfff627874644f",
          "blockNumber": "0xaad296",
          "blockTimestamp": "0x6a47d20c",
          "transactionHash": "0x42eb16ec13fd08114262802150faa86824dab84c00387c6a2cb5b44fa3edfa47",
          "transactionIndex": "0x8c",
          "logIndex": "0x312",
          "removed": false
        },
        {
          "address": "0x64e8ce3911646154e4e29d715c12b5b1b948d196",
          "topics": [
            "0xe4820932fb8bfeb1d651397e57975ed0c2c8652dbf3cea72ffcb6007744d256f",
            "0x2ae14e7600000000000000000000000000000000000000000000000000000000",
            "0x8e5ea360bdeed818efd87c6f274fcdf58af90bb406d23ae98973b22658c61d20"
          ],
          "data": "0x",
          "blockHash": "0x4385b75651a0b416ddd5ba0c64bb965cbfff831e14f1bb548ecfff627874644f",
          "blockNumber": "0xaad296",
          "blockTimestamp": "0x6a47d20c",
          "transactionHash": "0x42eb16ec13fd08114262802150faa86824dab84c00387c6a2cb5b44fa3edfa47",
          "transactionIndex": "0x8c",
          "logIndex": "0x313",
          "removed": false
        },
        {
          "address": "0x64e8ce3911646154e4e29d715c12b5b1b948d196",
          "topics": [
            "0xe4820932fb8bfeb1d651397e57975ed0c2c8652dbf3cea72ffcb6007744d256f",
            "0xd612873a00000000000000000000000000000000000000000000000000000000",
            "0x8e5ea360bdeed818efd87c6f274fcdf58af90bb406d23ae98973b22658c61d20"
          ],
          "data": "0x",
          "blockHash": "0x4385b75651a0b416ddd5ba0c64bb965cbfff831e14f1bb548ecfff627874644f",
          "blockNumber": "0xaad296",
          "blockTimestamp": "0x6a47d20c",
          "transactionHash": "0x42eb16ec13fd08114262802150faa86824dab84c00387c6a2cb5b44fa3edfa47",
          "transactionIndex": "0x8c",
          "logIndex": "0x314",
          "removed": false
        },
        {
          "address": "0x64e8ce3911646154e4e29d715c12b5b1b948d196",
          "topics": [
            "0xe4820932fb8bfeb1d651397e57975ed0c2c8652dbf3cea72ffcb6007744d256f",
            "0x6a3541c500000000000000000000000000000000000000000000000000000000",
            "0x8e5ea360bdeed818efd87c6f274fcdf58af90bb406d23ae98973b22658c61d20"
          ],
          "data": "0x",
          "blockHash": "0x4385b75651a0b416ddd5ba0c64bb965cbfff831e14f1bb548ecfff627874644f",
          "blockNumber": "0xaad296",
          "blockTimestamp": "0x6a47d20c",
          "transactionHash": "0x42eb16ec13fd08114262802150faa86824dab84c00387c6a2cb5b44fa3edfa47",
          "transactionIndex": "0x8c",
          "logIndex": "0x315",
          "removed": false
        },
        {
          "address": "0x64e8ce3911646154e4e29d715c12b5b1b948d196",
          "topics": [
            "0xe4820932fb8bfeb1d651397e57975ed0c2c8652dbf3cea72ffcb6007744d256f",
            "0xca343f0e00000000000000000000000000000000000000000000000000000000",
            "0x8e5ea360bdeed818efd87c6f274fcdf58af90bb406d23ae98973b22658c61d20"
          ],
          "data": "0x",
          "blockHash": "0x4385b75651a0b416ddd5ba0c64bb965cbfff831e14f1bb548ecfff627874644f",
          "blockNumber": "0xaad296",
          "blockTimestamp": "0x6a47d20c",
          "transactionHash": "0x42eb16ec13fd08114262802150faa86824dab84c00387c6a2cb5b44fa3edfa47",
          "transactionIndex": "0x8c",
          "logIndex": "0x316",
          "removed": false
        },
        {
          "address": "0x64e8ce3911646154e4e29d715c12b5b1b948d196",
          "topics": [
            "0xe4820932fb8bfeb1d651397e57975ed0c2c8652dbf3cea72ffcb6007744d256f",
            "0x02d40c7f00000000000000000000000000000000000000000000000000000000",
            "0x8e5ea360bdeed818efd87c6f274fcdf58af90bb406d23ae98973b22658c61d20"
          ],
          "data": "0x",
          "blockHash": "0x4385b75651a0b416ddd5ba0c64bb965cbfff831e14f1bb548ecfff627874644f",
          "blockNumber": "0xaad296",
          "blockTimestamp": "0x6a47d20c",
          "transactionHash": "0x42eb16ec13fd08114262802150faa86824dab84c00387c6a2cb5b44fa3edfa47",
          "transactionIndex": "0x8c",
          "logIndex": "0x317",
          "removed": false
        },
        {
          "address": "0x64e8ce3911646154e4e29d715c12b5b1b948d196",
          "topics": [
            "0xc3b3bba350d426d8b0241206f22ea56f835fbcc9ade54bd871bf75a0d6c9f887",
            "0x8e5ea360bdeed818efd87c6f274fcdf58af90bb406d23ae98973b22658c61d20",
            "0x000000000000000000000000f2eab14f7288e7d4e611c44f2784dff6394ec476",
            "0x6c793fb30246223245423ced28fc6fa7b89eea6a674b20b41c832376265edb73"
          ],
          "data": "0x00000000000000000000000000000000000000000000000000000000000000200000000000000000000000000000000000000000000000000000000000000000",
          "blockHash": "0x4385b75651a0b416ddd5ba0c64bb965cbfff831e14f1bb548ecfff627874644f",
          "blockNumber": "0xaad296",
          "blockTimestamp": "0x6a47d20c",
          "transactionHash": "0x42eb16ec13fd08114262802150faa86824dab84c00387c6a2cb5b44fa3edfa47",
          "transactionIndex": "0x8c",
          "logIndex": "0x318",
          "removed": false
        },
        {
          "address": "0x64e8ce3911646154e4e29d715c12b5b1b948d196",
          "topics": [
            "0x2c6cd2e637271e88bd41d11ab8103ce18ceb1d94731043fce5c8ef9316c95ddd"
          ],
          "data": "0x0000000000000000000000000000000000000000000000000de0b6b3a76400000000000000000000000000000000000000000000000000000de0b6b3a764000000000000000000000000000000000000000000000000000000000000000007ee0000000000000000000000000000000000000000000000000000000000000000",
          "blockHash": "0x4385b75651a0b416ddd5ba0c64bb965cbfff831e14f1bb548ecfff627874644f",
          "blockNumber": "0xaad296",
          "blockTimestamp": "0x6a47d20c",
          "transactionHash": "0x42eb16ec13fd08114262802150faa86824dab84c00387c6a2cb5b44fa3edfa47",
          "transactionIndex": "0x8c",
          "logIndex": "0x319",
          "removed": false
        },
        {
          "address": "0x64e8ce3911646154e4e29d715c12b5b1b948d196",
          "topics": [
            "0x725cf1036108ee5837eb8c6e4e3d5b0e688428b7922f5f165872bc2b4b69b7b1"
          ],
          "data": "0x",
          "blockHash": "0x4385b75651a0b416ddd5ba0c64bb965cbfff831e14f1bb548ecfff627874644f",
          "blockNumber": "0xaad296",
          "blockTimestamp": "0x6a47d20c",
          "transactionHash": "0x42eb16ec13fd08114262802150faa86824dab84c00387c6a2cb5b44fa3edfa47",
          "transactionIndex": "0x8c",
          "logIndex": "0x31a",
          "removed": false
        },
        {
          "address": "0xd99c1985b257a4a55ba8d0836fab536389cdd24c",
          "topics": [
            "0xfcf599051bcc41e5a7b155a94bbdd6aaa68f954e694c5ab7bdecd3cfcf65ffad",
            "0x00000000000000000000000064e8ce3911646154e4e29d715c12b5b1b948d196"
          ],
          "data": "0x",
          "blockHash": "0x4385b75651a0b416ddd5ba0c64bb965cbfff831e14f1bb548ecfff627874644f",
          "blockNumber": "0xaad296",
          "blockTimestamp": "0x6a47d20c",
          "transactionHash": "0x42eb16ec13fd08114262802150faa86824dab84c00387c6a2cb5b44fa3edfa47",
          "transactionIndex": "0x8c",
          "logIndex": "0x31b",
          "removed": false
        },
        {
          "address": "0xa4ded8ab35e89bcaf1f7dfeb7ab2c1ed533b3f05",
          "topics": [
            "0x3d0d0506c8fbb4fe692d4bb7a08d56876fec8ff877b533d59f460ce6e1658c69",
            "0x00000000000000000000000064e8ce3911646154e4e29d715c12b5b1b948d196",
            "0x000000000000000000000000ff6bdef4fb646ee44e29fe8fc0862b02f0ba8a33"
          ],
          "data": "0x0000000000000000000000003eef0143f986c46143d08acbb499862b631165680000000000000000000000000f1b855d56b41d768a3e7332e0cfca1d1badd569000000000000000000000000ef24a895552ee796873f2a52041ffe1eaad3338e000000000000000000000000708588c7d22d58473847dd4c7f028a5faf58fe9600000000000000000000000000000000000000000000000001ff973cafa800000000000000000000000000000000000000000000000000000de0b6b3a76400000000000000000000000000000000000000000000000000056bc75e2d63100000000000000000000000000000000000000000000000000000000000006a6f5ea00000000000000000000000000000000000000000000000000000000001e133800000000000000000000000000000000000000000000000000de0b6b3a7640000000000000000000000000000000000000000000000000000000000006a47d20c0000000000000000000000000000000000000000000000000de0b6b3a76400000000000000000000000000000000000000000000000000000de0b6b3a764000000000000000000000000000000000000000000000000000000000000000007ee0000000000000000000000000000000000000000000000000000000000000000",
          "blockHash": "0x4385b75651a0b416ddd5ba0c64bb965cbfff831e14f1bb548ecfff627874644f",
          "blockNumber": "0xaad296",
          "blockTimestamp": "0x6a47d20c",
          "transactionHash": "0x42eb16ec13fd08114262802150faa86824dab84c00387c6a2cb5b44fa3edfa47",
          "transactionIndex": "0x8c",
          "logIndex": "0x31c",
          "removed": false
        }
      ],
      "logsBloom": "0x52082001006808000000900040000000c0220400400000000080800004002905000000010002120002225004220000000001010000000100121000490000000088d0020a0601040080800004006402408801100040020205000000000000011000a00000020082400100000014d00990011000814000170608009000000400400400802000000840400800028000403000000000028084880820480100c6a080004000800200020008404c02800000605000001004000200c000100002810000c40040200008120102000001880300041204000026144000048012000000200200140010004000c5000110800800800000884810062c50000000000008100040",
      "transactionHash": "0x42eb16ec13fd08114262802150faa86824dab84c00387c6a2cb5b44fa3edfa47",
      "transactionIndex": "0x8c",
      "blockHash": "0x4385b75651a0b416ddd5ba0c64bb965cbfff831e14f1bb548ecfff627874644f",
      "blockNumber": "0xaad296",
      "gasUsed": "0x54fda9",
      "effectiveGasPrice": "0x42917f24",
      "from": "0xff6bdef4fb646ee44e29fe8fc0862b02f0ba8a33",
      "to": "0xa4ded8ab35e89bcaf1f7dfeb7ab2c1ed533b3f05",
      "contractAddress": null
    },
    {
      "type": "0x2",
      "status": "0x1",
      "cumulativeGasUsed": "0x9c9f73",
      "logs": [
        {
          "address": "0x64e8ce3911646154e4e29d715c12b5b1b948d196",
          "topics": [
            "0xe4820932fb8bfeb1d651397e57975ed0c2c8652dbf3cea72ffcb6007744d256f",
            "0x15d496c600000000000000000000000000000000000000000000000000000000",
            "0x30b395817081a4bfcc2de11d585353c65c3c5b699309b8740e8ecf6cf6c18d74"
          ],
          "data": "0x",
          "blockHash": "0x988509e5bae16c8c881d2364ff6399d093981e3278493a6a20a65cc26d4ab5f4",
          "blockNumber": "0xaad297",
          "blockTimestamp": "0x6a47d218",
          "transactionHash": "0x10ddabd3eef181288149c61a16acb20dad129a025226fbf6a89652b105da9b41",
          "transactionIndex": "0x47",
          "logIndex": "0x13f",
          "removed": false
        },
        {
          "address": "0x64e8ce3911646154e4e29d715c12b5b1b948d196",
          "topics": [
            "0xe4820932fb8bfeb1d651397e57975ed0c2c8652dbf3cea72ffcb6007744d256f",
            "0x9d6b0bc100000000000000000000000000000000000000000000000000000000",
            "0x30b395817081a4bfcc2de11d585353c65c3c5b699309b8740e8ecf6cf6c18d74"
          ],
          "data": "0x",
          "blockHash": "0x988509e5bae16c8c881d2364ff6399d093981e3278493a6a20a65cc26d4ab5f4",
          "blockNumber": "0xaad297",
          "blockTimestamp": "0x6a47d218",
          "transactionHash": "0x10ddabd3eef181288149c61a16acb20dad129a025226fbf6a89652b105da9b41",
          "transactionIndex": "0x47",
          "logIndex": "0x140",
          "removed": false
        },
        {
          "address": "0x64e8ce3911646154e4e29d715c12b5b1b948d196",
          "topics": [
            "0xe4820932fb8bfeb1d651397e57975ed0c2c8652dbf3cea72ffcb6007744d256f",
            "0x17054ad600000000000000000000000000000000000000000000000000000000",
            "0x30b395817081a4bfcc2de11d585353c65c3c5b699309b8740e8ecf6cf6c18d74"
          ],
          "data": "0x",
          "blockHash": "0x988509e5bae16c8c881d2364ff6399d093981e3278493a6a20a65cc26d4ab5f4",
          "blockNumber": "0xaad297",
          "blockTimestamp": "0x6a47d218",
          "transactionHash": "0x10ddabd3eef181288149c61a16acb20dad129a025226fbf6a89652b105da9b41",
          "transactionIndex": "0x47",
          "logIndex": "0x141",
          "removed": false
        },
        {
          "address": "0x64e8ce3911646154e4e29d715c12b5b1b948d196",
          "topics": [
            "0xe4820932fb8bfeb1d651397e57975ed0c2c8652dbf3cea72ffcb6007744d256f",
            "0xe85860d600000000000000000000000000000000000000000000000000000000",
            "0x30b395817081a4bfcc2de11d585353c65c3c5b699309b8740e8ecf6cf6c18d74"
          ],
          "data": "0x",
          "blockHash": "0x988509e5bae16c8c881d2364ff6399d093981e3278493a6a20a65cc26d4ab5f4",
          "blockNumber": "0xaad297",
          "blockTimestamp": "0x6a47d218",
          "transactionHash": "0x10ddabd3eef181288149c61a16acb20dad129a025226fbf6a89652b105da9b41",
          "transactionIndex": "0x47",
          "logIndex": "0x142",
          "removed": false
        },
        {
          "address": "0x64e8ce3911646154e4e29d715c12b5b1b948d196",
          "topics": [
            "0xc3b3bba350d426d8b0241206f22ea56f835fbcc9ade54bd871bf75a0d6c9f887",
            "0x30b395817081a4bfcc2de11d585353c65c3c5b699309b8740e8ecf6cf6c18d74",
            "0x000000000000000000000000989659d823011127af2757a7164ff57f6dac9bc7",
            "0xc921820d269e802042a87c6f3113cadc04b2e104586f5eacf569b70256c98a7c"
          ],
          "data": "0x0000000000000000000000000000000000000000000000000000000000000020000000000000000000000000000000000000000000000000000000000000001a67726f7766693a2f2f70726f63656564732d73706c69742f7631000000000000",
          "blockHash": "0x988509e5bae16c8c881d2364ff6399d093981e3278493a6a20a65cc26d4ab5f4",
          "blockNumber": "0xaad297",
          "blockTimestamp": "0x6a47d218",
          "transactionHash": "0x10ddabd3eef181288149c61a16acb20dad129a025226fbf6a89652b105da9b41",
          "transactionIndex": "0x47",
          "logIndex": "0x143",
          "removed": false
        }
      ],
      "logsBloom": "0x00010000000000000000000400000000000000000000000000000000000000000000000000000000000001002020000000000040000001000000000000000000000000010000000000000000014000000000000000000000000080000000010000000000000000400000000000000008000000004000000000000000004000000000000000000000000000000000000000000080000000080000000000000000000000000000400000000000000000000000000000000000000000000000000000000000000000010000000000000000000000000000010000010000000000000000002000010080000000800020000000080000000010000000000002000000",
      "transactionHash": "0x10ddabd3eef181288149c61a16acb20dad129a025226fbf6a89652b105da9b41",
      "transactionIndex": "0x47",
      "blockHash": "0x988509e5bae16c8c881d2364ff6399d093981e3278493a6a20a65cc26d4ab5f4",
      "blockNumber": "0xaad297",
      "gasUsed": "0x4cf4d",
      "effectiveGasPrice": "0x447135ad",
      "from": "0xff6bdef4fb646ee44e29fe8fc0862b02f0ba8a33",
      "to": "0x64e8ce3911646154e4e29d715c12b5b1b948d196",
      "contractAddress": null
    },
    {
      "type": "0x2",
      "status": "0x1",
      "cumulativeGasUsed": "0x16642ef",
      "logs": [
        {
          "address": "0x64e8ce3911646154e4e29d715c12b5b1b948d196",
          "topics": [
            "0xe4820932fb8bfeb1d651397e57975ed0c2c8652dbf3cea72ffcb6007744d256f",
            "0x1f46901300000000000000000000000000000000000000000000000000000000",
            "0xf502127c932b4ff52cf7984ab5f3245e8d7935210db5535d8d05aab0d4f49c39"
          ],
          "data": "0x",
          "blockHash": "0x6b06dba6a07ff467c574b309bdafcc736669298930954e4aac3f43899210c2df",
          "blockNumber": "0xaad298",
          "blockTimestamp": "0x6a47d224",
          "transactionHash": "0x07b1970d41bb3940a9ad1f96998bda2b31cbec8dfa9a3ca5a362bb13aca377e9",
          "transactionIndex": "0xa0",
          "logIndex": "0x3f9",
          "removed": false
        },
        {
          "address": "0x64e8ce3911646154e4e29d715c12b5b1b948d196",
          "topics": [
            "0xe4820932fb8bfeb1d651397e57975ed0c2c8652dbf3cea72ffcb6007744d256f",
            "0x9dcf264300000000000000000000000000000000000000000000000000000000",
            "0xf502127c932b4ff52cf7984ab5f3245e8d7935210db5535d8d05aab0d4f49c39"
          ],
          "data": "0x",
          "blockHash": "0x6b06dba6a07ff467c574b309bdafcc736669298930954e4aac3f43899210c2df",
          "blockNumber": "0xaad298",
          "blockTimestamp": "0x6a47d224",
          "transactionHash": "0x07b1970d41bb3940a9ad1f96998bda2b31cbec8dfa9a3ca5a362bb13aca377e9",
          "transactionIndex": "0xa0",
          "logIndex": "0x3fa",
          "removed": false
        },
        {
          "address": "0x64e8ce3911646154e4e29d715c12b5b1b948d196",
          "topics": [
            "0xe4820932fb8bfeb1d651397e57975ed0c2c8652dbf3cea72ffcb6007744d256f",
            "0xfd0b0fb200000000000000000000000000000000000000000000000000000000",
            "0xf502127c932b4ff52cf7984ab5f3245e8d7935210db5535d8d05aab0d4f49c39"
          ],
          "data": "0x",
          "blockHash": "0x6b06dba6a07ff467c574b309bdafcc736669298930954e4aac3f43899210c2df",
          "blockNumber": "0xaad298",
          "blockTimestamp": "0x6a47d224",
          "transactionHash": "0x07b1970d41bb3940a9ad1f96998bda2b31cbec8dfa9a3ca5a362bb13aca377e9",
          "transactionIndex": "0xa0",
          "logIndex": "0x3fb",
          "removed": false
        },
        {
          "address": "0x64e8ce3911646154e4e29d715c12b5b1b948d196",
          "topics": [
            "0xc3b3bba350d426d8b0241206f22ea56f835fbcc9ade54bd871bf75a0d6c9f887",
            "0xf502127c932b4ff52cf7984ab5f3245e8d7935210db5535d8d05aab0d4f49c39",
            "0x00000000000000000000000036cd3cab0c1b039dcb2b1bfba6bf926078f705a3",
            "0xc0b13d8cc9d9ca49de3ae4a65abe3c0df35c00d8cb9aac4e986e3f9c035f112f"
          ],
          "data": "0x0000000000000000000000000000000000000000000000000000000000000020000000000000000000000000000000000000000000000000000000000000001867726f7766693a2f2f6469726563742d69737375652f76310000000000000000",
          "blockHash": "0x6b06dba6a07ff467c574b309bdafcc736669298930954e4aac3f43899210c2df",
          "blockNumber": "0xaad298",
          "blockTimestamp": "0x6a47d224",
          "transactionHash": "0x07b1970d41bb3940a9ad1f96998bda2b31cbec8dfa9a3ca5a362bb13aca377e9",
          "transactionIndex": "0xa0",
          "logIndex": "0x3fc",
          "removed": false
        }
      ],
      "logsBloom": "0x00000000000000000000000000000000002004400000000000000000000000000000400000000002000000000000000010000000080000000000000000000000000000000000000000000000004000000000000000800000000000000000000000000000000000500000000000000000000000004000100000000000000000000000000000000000000000000000000000000000000000080000000000004000000000000004000000000000000400000000000000000000000000000000080000000000008000010000000000000000000000000000000000000000000000000000000400000080000104800000000000080000000010000000000000000000",
      "transactionHash": "0x07b1970d41bb3940a9ad1f96998bda2b31cbec8dfa9a3ca5a362bb13aca377e9",
      "transactionIndex": "0xa0",
      "blockHash": "0x6b06dba6a07ff467c574b309bdafcc736669298930954e4aac3f43899210c2df",
      "blockNumber": "0xaad298",
      "gasUsed": "0x46d9d",
      "effectiveGasPrice": "0x3fa4b3ab",
      "from": "0xff6bdef4fb646ee44e29fe8fc0862b02f0ba8a33",
      "to": "0x64e8ce3911646154e4e29d715c12b5b1b948d196",
      "contractAddress": null
    },
    {
      "type": "0x2",
      "status": "0x1",
      "cumulativeGasUsed": "0x110be29",
      "logs": [
        {
          "address": "0x64e8ce3911646154e4e29d715c12b5b1b948d196",
          "topics": [
            "0x1809803edc7f4d0a1c400a8f95cac12ace860d60e118b6c9b491082a623963df",
            "0x00000000000000000000000032c344dc9713d904442d0e5b0d2b7994e52b0d4e"
          ],
          "data": "0x00000000000000000000000000000000000000000000000000000000000000800000000000000000000000000000000000000000000000000000000000000000000000000000000000000000000000000000000000000000000000000002328000000000000000000000000000000000000000000000000000000000000000000000000000000000000000000000000000000000000000000000000000000000",
          "blockHash": "0x896f7392b14d33ddba03af5bae8c98dc6a518739f2009c7ca3c04fc3db95e9ec",
          "blockNumber": "0xaad299",
          "blockTimestamp": "0x6a47d230",
          "transactionHash": "0x6ce7cf6735c7a09cd01341cbc5280180ed8975b41d17a3fc6b3da82f50a71cf9",
          "transactionIndex": "0xa9",
          "logIndex": "0x247",
          "removed": false
        }
      ],
      "logsBloom": "0x00000000000000000000000000000000000000000000000400000000000000000000000000000000000000000000000000000000000000008000000000000000000000000000000000000000004000000000000000000000000000000000000000000000000000020000040000000000000000000000000000000000000000000000000000000000000000000000000000000000000000000000000000000000000000000000000000000000040000000000000000000000000000000000000000000000000000010000000000000000000000000000000000000000000000000000000000000000000000000000000000000000000012000000000000000000",
      "transactionHash": "0x6ce7cf6735c7a09cd01341cbc5280180ed8975b41d17a3fc6b3da82f50a71cf9",
      "transactionIndex": "0xa9",
      "blockHash": "0x896f7392b14d33ddba03af5bae8c98dc6a518739f2009c7ca3c04fc3db95e9ec",
      "blockNumber": "0xaad299",
      "gasUsed": "0x255bc",
      "effectiveGasPrice": "0x3f499aa2",
      "from": "0xff6bdef4fb646ee44e29fe8fc0862b02f0ba8a33",
      "to": "0x64e8ce3911646154e4e29d715c12b5b1b948d196",
      "contractAddress": null
    },
    {
      "type": "0x2",
      "status": "0x1",
      "cumulativeGasUsed": "0x1800282",
      "logs": [
        {
          "address": "0x64e8ce3911646154e4e29d715c12b5b1b948d196",
          "topics": [
            "0x4df3ec6150582b78995803d31e197a1359883911bdc948639f25ae3db11acc78",
            "0x000000000000000000000000000000000000000000000000000000000000beef"
          ],
          "data": "0x00000000000000000000000000000000000000000000000000000000000027100000000000000000000000000000000000000000000000000000000000000000",
          "blockHash": "0x10614b95074a5b77d9dbfe2a1fc5213941eb4b720be9b236eacd8436d967960a",
          "blockNumber": "0xaad29a",
          "blockTimestamp": "0x6a47d23c",
          "transactionHash": "0xecf1371c71f5bc74bf7eef3a8483333d1e2a0249ece980dc137ddf78428b1ef9",
          "transactionIndex": "0x7c",
          "logIndex": "0x3a8",
          "removed": false
        }
      ],
      "logsBloom": "0x00000000000000000000000000000000010000000000000000000000000000000000000000000000000000000000000000000000000000000000000000000000000000000000000000000000004000000000000000014000000000000000000000000000000000000000000000000000000000000000000000000000000000000000000000000000000000000000000000000000000000000040000000000000000000000000000000000000000000000000000020000000000000000000000000000000000000010000000000000000000000000002000000000000000000000000000000000000000000000000000000000000000010000000000000000000",
      "transactionHash": "0xecf1371c71f5bc74bf7eef3a8483333d1e2a0249ece980dc137ddf78428b1ef9",
      "transactionIndex": "0x7c",
      "blockHash": "0x10614b95074a5b77d9dbfe2a1fc5213941eb4b720be9b236eacd8436d967960a",
      "blockNumber": "0xaad29a",
      "gasUsed": "0xf54c",
      "effectiveGasPrice": "0x3cc1426a",
      "from": "0xff6bdef4fb646ee44e29fe8fc0862b02f0ba8a33",
      "to": "0x64e8ce3911646154e4e29d715c12b5b1b948d196",
      "contractAddress": null
    },
    {
      "type": "0x2",
      "status": "0x1",
      "cumulativeGasUsed": "0xcde33a",
      "logs": [
        {
          "address": "0x3eef0143f986c46143d08acbb499862b63116568",
          "topics": [
            "0xddf252ad1be2c89b69c2b068fc378daa952ba7f163c4a11628f55a4df523b3ef",
            "0x0000000000000000000000000000000000000000000000000000000000000000",
            "0x000000000000000000000000ff6bdef4fb646ee44e29fe8fc0862b02f0ba8a33"
          ],
          "data": "0x0000000000000000000000000000000000000000000000000de0b6b3a7640000",
          "blockHash": "0x7a82610f4075f68235544e0df0154f0e3fde6bb8296fb711060e0e49db856e52",
          "blockNumber": "0xaad29b",
          "blockTimestamp": "0x6a47d248",
          "transactionHash": "0xd50fa5bb0a9705f10d00726979c432edaeddf660cbfca7c9e3281eb4b3016d71",
          "transactionIndex": "0x6b",
          "logIndex": "0x21a",
          "removed": false
        },
        {
          "address": "0x64e8ce3911646154e4e29d715c12b5b1b948d196",
          "topics": [
            "0x3429ccffd4ebc375788003b55807cf1ffbb2cc869b0c47b395d49d12f0ce3a4d",
            "0x000000000000000000000000ff6bdef4fb646ee44e29fe8fc0862b02f0ba8a33"
          ],
          "data": "0x0000000000000000000000000000000000000000000000000de0b6b3a76400000000000000000000000000000000000000000000000000000de0b6b3a7640000",
          "blockHash": "0x7a82610f4075f68235544e0df0154f0e3fde6bb8296fb711060e0e49db856e52",
          "blockNumber": "0xaad29b",
          "blockTimestamp": "0x6a47d248",
          "transactionHash": "0xd50fa5bb0a9705f10d00726979c432edaeddf660cbfca7c9e3281eb4b3016d71",
          "transactionIndex": "0x6b",
          "logIndex": "0x21b",
          "removed": false
        }
      ],
      "logsBloom": "0x00000000000008000000100040000000000000000000000000000000000000000000000000000000000000000000000000000000000000000000000000000000000000000000000000000008004000000000000000000001000000000000000000000000020000000000000000000800000000000000000000000010000000000000000000008000010000000000000000000000000000000000000000000000000000000000000000000000000000000000000000000000000000000000400040000002000000010000000000010000000000000000000000000000000020000000000000000000000000000000000000000000000010000000000000000000",
      "transactionHash": "0xd50fa5bb0a9705f10d00726979c432edaeddf660cbfca7c9e3281eb4b3016d71",
      "transactionIndex": "0x6b",
      "blockHash": "0x7a82610f4075f68235544e0df0154f0e3fde6bb8296fb711060e0e49db856e52",
      "blockNumber": "0xaad29b",
      "gasUsed": "0x2b7c8",
      "effectiveGasPrice": "0x3cfb094f",
      "from": "0xff6bdef4fb646ee44e29fe8fc0862b02f0ba8a33",
      "to": "0x64e8ce3911646154e4e29d715c12b5b1b948d196",
      "contractAddress": null
    },
    {
      "type": "0x2",
      "status": "0x1",
      "cumulativeGasUsed": "0xede914",
      "logs": [
        {
          "address": "0xd99c1985b257a4a55ba8d0836fab536389cdd24c",
          "topics": [
            "0x127a0d60b64e68d983855c4d67e59aab432c3fded72f4317958b05a2eb1dbe0f",
            "0x00000000000000000000000064e8ce3911646154e4e29d715c12b5b1b948d196"
          ],
          "data": "0x0000000000000000000000000000000000000000000000000000000000000000",
          "blockHash": "0x240e2c649ca6ab2c51e8688a66c8def5a51ac1474b17bf8b56dc60a4163fe08a",
          "blockNumber": "0xaad29d",
          "blockTimestamp": "0x6a47d260",
          "transactionHash": "0xa44c4c828149de9559c14204c173550dfc4f0b4c72dad5471da95b646553d55f",
          "transactionIndex": "0x68",
          "logIndex": "0x294",
          "removed": false
        },
        {
          "address": "0x64e8ce3911646154e4e29d715c12b5b1b948d196",
          "topics": [
            "0x120bfc1de29621f7872a5b3129b6524ceb18df8c689a37496b8ee4007235dbc8"
          ],
          "data": "0x00000000000000000000000000000000000000000000000000000000000000000000000000000000000000000000000000000000000000000000000000000001",
          "blockHash": "0x240e2c649ca6ab2c51e8688a66c8def5a51ac1474b17bf8b56dc60a4163fe08a",
          "blockNumber": "0xaad29d",
          "blockTimestamp": "0x6a47d260",
          "transactionHash": "0xa44c4c828149de9559c14204c173550dfc4f0b4c72dad5471da95b646553d55f",
          "transactionIndex": "0x68",
          "logIndex": "0x295",
          "removed": false
        },
        {
          "address": "0x64e8ce3911646154e4e29d715c12b5b1b948d196",
          "topics": [
            "0xccb4518c7bb9cdee893961401854c0ac29fad869f3338dc3087c9215fa4ab9e1"
          ],
          "data": "0x00000000000000000000000000000000000000000000000000000000000000000000000000000000000000000000000000000000000000000de0b6b3a7640000",
          "blockHash": "0x240e2c649ca6ab2c51e8688a66c8def5a51ac1474b17bf8b56dc60a4163fe08a",
          "blockNumber": "0xaad29d",
          "blockTimestamp": "0x6a47d260",
          "transactionHash": "0xa44c4c828149de9559c14204c173550dfc4f0b4c72dad5471da95b646553d55f",
          "transactionIndex": "0x68",
          "logIndex": "0x296",
          "removed": false
        }
      ],
      "logsBloom": "0x00000000000000000000000000000000000000000000400000000000000048000000000000000000000000000000000000000000000000001000000000000000000000000000000000000000004000000000000000800000000000000000000000000000000000000000000000000000000000000000000000000000000000000400000000000000400000000000000000000000000000000000000000000000000000800000000000100020000000000000000000000000800002000000000000000000000010010000000000002000000000000000000000000000000000000002000000000000000000000000000000000000000010000000000000000000",
      "transactionHash": "0xa44c4c828149de9559c14204c173550dfc4f0b4c72dad5471da95b646553d55f",
      "transactionIndex": "0x68",
      "blockHash": "0x240e2c649ca6ab2c51e8688a66c8def5a51ac1474b17bf8b56dc60a4163fe08a",
      "blockNumber": "0xaad29d",
      "gasUsed": "0x135ed",
      "effectiveGasPrice": "0x421d89d9",
      "from": "0xff6bdef4fb646ee44e29fe8fc0862b02f0ba8a33",
      "to": "0x64e8ce3911646154e4e29d715c12b5b1b948d196",
      "contractAddress": null
    },
    {
      "type": "0x2",
      "status": "0x1",
      "cumulativeGasUsed": "0x19e284f",
      "logs": [
        {
          "address": "0x32c344dc9713d904442d0e5b0d2b7994e52b0d4e",
          "topics": [
            "0xddf252ad1be2c89b69c2b068fc378daa952ba7f163c4a11628f55a4df523b3ef",
            "0x0000000000000000000000000000000000000000000000000000000000000000",
            "0x000000000000000000000000ff6bdef4fb646ee44e29fe8fc0862b02f0ba8a33"
          ],
          "data": "0x0000000000000000000000000000000000000000000000000000000000023280",
          "blockHash": "0xaa2a3aaaa9d5c27ce6f8f1edd65366402262e58897bfdad45e350295aa837f10",
          "blockNumber": "0xaad29e",
          "blockTimestamp": "0x6a47d26c",
          "transactionHash": "0x5004c32450b9f2ae3736573e35ef5d74362f7f2224130001c288aa5dd8a3c1f1",
          "transactionIndex": "0x9f",
          "logIndex": "0x2dd",
          "removed": false
        }
      ],
      "logsBloom": "0x00000000000000000000100000000000000000000000000000000000000000000000000000000000000000000000000000000000000000000000000000000000000000000000000000000008000000000000000000000001000000000000000000000000020000000000000000000800010000000000000000000010000000000000000000000000000000000000000000000000000000000001000000000000000000000000000000000000000000000000000000000000000000000000000000000002040000000000000000010000000000000000000000000000000020000000000000000000000000000000000000000000000000000000000000000000",
      "transactionHash": "0x5004c32450b9f2ae3736573e35ef5d74362f7f2224130001c288aa5dd8a3c1f1",
      "transactionIndex": "0x9f",
      "blockHash": "0xaa2a3aaaa9d5c27ce6f8f1edd65366402262e58897bfdad45e350295aa837f10",
      "blockNumber": "0xaad29e",
      "gasUsed": "0x845c",
      "effectiveGasPrice": "0x41647b4f",
      "from": "0xff6bdef4fb646ee44e29fe8fc0862b02f0ba8a33",
      "to": "0x32c344dc9713d904442d0e5b0d2b7994e52b0d4e",
      "contractAddress": null
    },
    {
      "type": "0x2",
      "status": "0x1",
      "cumulativeGasUsed": "0x1a6a784",
      "logs": [
        {
          "address": "0x32c344dc9713d904442d0e5b0d2b7994e52b0d4e",
          "topics": [
            "0x8c5be1e5ebec7d5bd14f71427d1e84f3dd0314c0f7b2291e5b200ac8c7c3b925",
            "0x000000000000000000000000ff6bdef4fb646ee44e29fe8fc0862b02f0ba8a33",
            "0x00000000000000000000000064e8ce3911646154e4e29d715c12b5b1b948d196"
          ],
          "data": "0x0000000000000000000000000000000000000000000000000000000000023280",
          "blockHash": "0x12d8479a220c75f309d1b758909ec7563b8dc199eafc4f54b34d30c79053b0c5",
          "blockNumber": "0xaad29f",
          "blockTimestamp": "0x6a47d278",
          "transactionHash": "0x0b16c496abecf81c975b6a0132aae65912c52088a4cb9b1d4296577095cfc11a",
          "transactionIndex": "0x89",
          "logIndex": "0x3d8",
          "removed": false
        }
      ],
      "logsBloom": "0x00000000000000000000100000000000000000000000000000000000000000000000000000000000000000000000000000000000000000001000000000200000000000000000000000000000000000000000000000000001000000000000000000000000000000000000000000000000010000000000000000000000000000000000000000000000000000000000000000000000000000000001000000000000020000800000000000000000000000000000000000000000800000000000000000000000040000000000000000010000000000000000000000000000000000000010000000000000000000000000000000000000000000000000000000000000",
      "transactionHash": "0x0b16c496abecf81c975b6a0132aae65912c52088a4cb9b1d4296577095cfc11a",
      "transactionIndex": "0x89",
      "blockHash": "0x12d8479a220c75f309d1b758909ec7563b8dc199eafc4f54b34d30c79053b0c5",
      "blockNumber": "0xaad29f",
      "gasUsed": "0xb36f",
      "effectiveGasPrice": "0x409d5d31",
      "from": "0xff6bdef4fb646ee44e29fe8fc0862b02f0ba8a33",
      "to": "0x32c344dc9713d904442d0e5b0d2b7994e52b0d4e",
      "contractAddress": null
    },
    {
      "type": "0x2",
      "status": "0x1",
      "cumulativeGasUsed": "0x1eee1b0",
      "logs": [
        {
          "address": "0x32c344dc9713d904442d0e5b0d2b7994e52b0d4e",
          "topics": [
            "0xddf252ad1be2c89b69c2b068fc378daa952ba7f163c4a11628f55a4df523b3ef",
            "0x000000000000000000000000ff6bdef4fb646ee44e29fe8fc0862b02f0ba8a33",
            "0x00000000000000000000000064e8ce3911646154e4e29d715c12b5b1b948d196"
          ],
          "data": "0x0000000000000000000000000000000000000000000000000000000000023280",
          "blockHash": "0xf790eb659a6f2d3ec1286fc75f1240be0a069d02f1b634b3d2bbc638b05137cf",
          "blockNumber": "0xaad2a0",
          "blockTimestamp": "0x6a47d284",
          "transactionHash": "0xec657a5e3987a7f7f2e9e4facf7213424c261e5868868eba1a2dcb5f2b1364a1",
          "transactionIndex": "0xc0",
          "logIndex": "0x3d8",
          "removed": false
        },
        {
          "address": "0x32c344dc9713d904442d0e5b0d2b7994e52b0d4e",
          "topics": [
            "0xddf252ad1be2c89b69c2b068fc378daa952ba7f163c4a11628f55a4df523b3ef",
            "0x00000000000000000000000064e8ce3911646154e4e29d715c12b5b1b948d196",
            "0x000000000000000000000000f1a8527e00916588f4bb137ce450e8459b6bd436"
          ],
          "data": "0x00000000000000000000000000000000000000000000000000000000000010e0",
          "blockHash": "0xf790eb659a6f2d3ec1286fc75f1240be0a069d02f1b634b3d2bbc638b05137cf",
          "blockNumber": "0xaad2a0",
          "blockTimestamp": "0x6a47d284",
          "transactionHash": "0xec657a5e3987a7f7f2e9e4facf7213424c261e5868868eba1a2dcb5f2b1364a1",
          "transactionIndex": "0xc0",
          "logIndex": "0x3d9",
          "removed": false
        },
        {
          "address": "0x64e8ce3911646154e4e29d715c12b5b1b948d196",
          "topics": [
            "0x4dd12c0ecba594b5bb7a4e3ec05ef19e1135fed23711a1fe4b1c9e6c9b40391b",
            "0x000000000000000000000000ff6bdef4fb646ee44e29fe8fc0862b02f0ba8a33",
            "0x00000000000000000000000032c344dc9713d904442d0e5b0d2b7994e52b0d4e"
          ],
          "data": "0x00000000000000000000000000000000000000000000000000000000000010e0",
          "blockHash": "0xf790eb659a6f2d3ec1286fc75f1240be0a069d02f1b634b3d2bbc638b05137cf",
          "blockNumber": "0xaad2a0",
          "blockTimestamp": "0x6a47d284",
          "transactionHash": "0xec657a5e3987a7f7f2e9e4facf7213424c261e5868868eba1a2dcb5f2b1364a1",
          "transactionIndex": "0xc0",
          "logIndex": "0x3da",
          "removed": false
        },
        {
          "address": "0x32c344dc9713d904442d0e5b0d2b7994e52b0d4e",
          "topics": [
            "0xddf252ad1be2c89b69c2b068fc378daa952ba7f163c4a11628f55a4df523b3ef",
            "0x00000000000000000000000064e8ce3911646154e4e29d715c12b5b1b948d196",
            "0x000000000000000000000000000000000000000000000000000000000000beef"
          ],
          "data": "0x00000000000000000000000000000000000000000000000000000000000221a0",
          "blockHash": "0xf790eb659a6f2d3ec1286fc75f1240be0a069d02f1b634b3d2bbc638b05137cf",
          "blockNumber": "0xaad2a0",
          "blockTimestamp": "0x6a47d284",
          "transactionHash": "0xec657a5e3987a7f7f2e9e4facf7213424c261e5868868eba1a2dcb5f2b1364a1",
          "transactionIndex": "0xc0",
          "logIndex": "0x3db",
          "removed": false
        },
        {
          "address": "0x64e8ce3911646154e4e29d715c12b5b1b948d196",
          "topics": [
            "0x41087eaf7563a5408fdfb26ca1d617b0e32af2e34b0e7151846c6eb68312344c",
            "0x00000000000000000000000032c344dc9713d904442d0e5b0d2b7994e52b0d4e",
            "0x000000000000000000000000ff6bdef4fb646ee44e29fe8fc0862b02f0ba8a33",
            "0x000000000000000000000000000000000000000000000000000000000000beef"
          ],
          "data": "0x00000000000000000000000000000000000000000000000000000000000221a0000000000000000000000000000000000000000000000000000000000000000000000000000000000000000000000000000000000000000000000000000221a0",
          "blockHash": "0xf790eb659a6f2d3ec1286fc75f1240be0a069d02f1b634b3d2bbc638b05137cf",
          "blockNumber": "0xaad2a0",
          "blockTimestamp": "0x6a47d284",
          "transactionHash": "0xec657a5e3987a7f7f2e9e4facf7213424c261e5868868eba1a2dcb5f2b1364a1",
          "transactionIndex": "0xc0",
          "logIndex": "0x3dc",
          "removed": false
        },
        {
          "address": "0x3eef0143f986c46143d08acbb499862b63116568",
          "topics": [
            "0xddf252ad1be2c89b69c2b068fc378daa952ba7f163c4a11628f55a4df523b3ef",
            "0x0000000000000000000000000000000000000000000000000000000000000000",
            "0x000000000000000000000000ff6bdef4fb646ee44e29fe8fc0862b02f0ba8a33"
          ],
          "data": "0x0000000000000000000000000000000000000000000000000de0b6b3a7640000",
          "blockHash": "0xf790eb659a6f2d3ec1286fc75f1240be0a069d02f1b634b3d2bbc638b05137cf",
          "blockNumber": "0xaad2a0",
          "blockTimestamp": "0x6a47d284",
          "transactionHash": "0xec657a5e3987a7f7f2e9e4facf7213424c261e5868868eba1a2dcb5f2b1364a1",
          "transactionIndex": "0xc0",
          "logIndex": "0x3dd",
          "removed": false
        },
        {
          "address": "0x64e8ce3911646154e4e29d715c12b5b1b948d196",
          "topics": [
            "0x0b9c8304b83df3d2827b952a8e4c87faef3556dddcde57a47cb80f0c755606a5",
            "0x000000000000000000000000ff6bdef4fb646ee44e29fe8fc0862b02f0ba8a33",
            "0x00000000000000000000000032c344dc9713d904442d0e5b0d2b7994e52b0d4e"
          ],
          "data": "0x00000000000000000000000000000000000000000000000000000000000232800000000000000000000000000000000000000000000000000de0b6b3a764000000000000000000000000000000000000000000000000000000000000000000000000000000000000000000000000000000000000000000001bc16d674ec80000",
          "blockHash": "0xf790eb659a6f2d3ec1286fc75f1240be0a069d02f1b634b3d2bbc638b05137cf",
          "blockNumber": "0xaad2a0",
          "blockTimestamp": "0x6a47d284",
          "transactionHash": "0xec657a5e3987a7f7f2e9e4facf7213424c261e5868868eba1a2dcb5f2b1364a1",
          "transactionIndex": "0xc0",
          "logIndex": "0x3de",
          "removed": false
        },
        {
          "address": "0x9bb4f9c41ed922282c181f2f3e01d8384c960b44",
          "topics": [
            "0xddf252ad1be2c89b69c2b068fc378daa952ba7f163c4a11628f55a4df523b3ef",
            "0x0000000000000000000000000000000000000000000000000000000000000000",
            "0x000000000000000000000000ff6bdef4fb646ee44e29fe8fc0862b02f0ba8a33"
          ],
          "data": "0x00000000000000000000000000000000000000000000000001ff973cafa80000",
          "blockHash": "0xf790eb659a6f2d3ec1286fc75f1240be0a069d02f1b634b3d2bbc638b05137cf",
          "blockNumber": "0xaad2a0",
          "blockTimestamp": "0x6a47d284",
          "transactionHash": "0xec657a5e3987a7f7f2e9e4facf7213424c261e5868868eba1a2dcb5f2b1364a1",
          "transactionIndex": "0xc0",
          "logIndex": "0x3df",
          "removed": false
        },
        {
          "address": "0xd99c1985b257a4a55ba8d0836fab536389cdd24c",
          "topics": [
            "0x5418fe61f16a84e7b87b5da0f73314f08624f7632e2a989871231743bff24659",
            "0x00000000000000000000000064e8ce3911646154e4e29d715c12b5b1b948d196",
            "0x000000000000000000000000ff6bdef4fb646ee44e29fe8fc0862b02f0ba8a33"
          ],
          "data": "0x00000000000000000000000000000000000000000000000001ff973cafa80000",
          "blockHash": "0xf790eb659a6f2d3ec1286fc75f1240be0a069d02f1b634b3d2bbc638b05137cf",
          "blockNumber": "0xaad2a0",
          "blockTimestamp": "0x6a47d284",
          "transactionHash": "0xec657a5e3987a7f7f2e9e4facf7213424c261e5868868eba1a2dcb5f2b1364a1",
          "transactionIndex": "0xc0",
          "logIndex": "0x3e0",
          "removed": false
        }
      ],
      "logsBloom": "0x00001000000008000000100040000000000000000000000080000000000000000000000000000000000000000000008000000000020000001000402000000000000000000000000000000008004010000000000000014001000000000000000000000000020000220000040000000800010000080000000000000010001000000400000000000000400000000000000000000000000000000041000000000000000000800080000000000000048000000000000000000000800000000000000040400002040010010000000000090000000000000000004000000000000020000000000002000000010000000010000000000000000010000000000000000000",
      "transactionHash": "0xec657a5e3987a7f7f2e9e4facf7213424c261e5868868eba1a2dcb5f2b1364a1",
      "transactionIndex": "0xc0",
      "blockHash": "0xf790eb659a6f2d3ec1286fc75f1240be0a069d02f1b634b3d2bbc638b05137cf",
      "blockNumber": "0xaad2a0",
      "gasUsed": "0x46283",
      "effectiveGasPrice": "0x40ec1436",
      "from": "0xff6bdef4fb646ee44e29fe8fc0862b02f0ba8a33",
      "to": "0x64e8ce3911646154e4e29d715c12b5b1b948d196",
      "contractAddress": null
    }
  ],
  "libraries": [],
  "pending": [],
  "returns": {},
  "timestamp": 1783091846259,
  "chain": 11155111,
  "commit": "e062f57"
}