{
  "transactions": [
    {
      "hash": "0x6b9de0ff66f00e04052420a8f71329463ffe28396cdd1c0df10566992c15c42e",
      "transactionType": "CALL",
      "contractName": null,
      "contractAddress": "0x3fa41528a22645bef478e9ebae83981c02e98f74",
      "function": "createCampaign((address,string,string,string,string,uint256,uint256,uint256,uint256,uint256,uint256))",
      "arguments": [
        "(0xFF6bdef4fB646EE44e29FE8FC0862B02F0Ba8a33, Fast Olive, FAST, Fast Yield, fY, 144000000000000000, 100000000000000000000, 1000000000000000000000, 1776509588, 3600, 1000000000000000000)"
      ],
      "transaction": {
        "from": "0xff6bdef4fb646ee44e29fe8fc0862b02f0ba8a33",
        "to": "0x3fa41528a22645bef478e9ebae83981c02e98f74",
        "gas": "0x4ba69f",
        "value": "0x0",
        "input": "0x7df3f5040000000000000000000000000000000000000000000000000000000000000020000000000000000000000000ff6bdef4fb646ee44e29fe8fc0862b02f0ba8a33000000000000000000000000000000000000000000000000000000000000016000000000000000000000000000000000000000000000000000000000000001a000000000000000000000000000000000000000000000000000000000000001e0000000000000000000000000000000000000000000000000000000000000022000000000000000000000000000000000000000000000000001ff973cafa800000000000000000000000000000000000000000000000000056bc75e2d6310000000000000000000000000000000000000000000000000003635c9adc5dea000000000000000000000000000000000000000000000000000000000000069e362940000000000000000000000000000000000000000000000000000000000000e100000000000000000000000000000000000000000000000000de0b6b3a7640000000000000000000000000000000000000000000000000000000000000000000a46617374204f6c6976650000000000000000000000000000000000000000000000000000000000000000000000000000000000000000000000000000000000044641535400000000000000000000000000000000000000000000000000000000000000000000000000000000000000000000000000000000000000000000000a46617374205969656c640000000000000000000000000000000000000000000000000000000000000000000000000000000000000000000000000000000000026659000000000000000000000000000000000000000000000000000000000000",
        "nonce": "0x10",
        "chainId": "0x14a34"
      },
      "additionalContracts": [
        {
          "transactionType": "CREATE",
          "contractName": "TransparentUpgradeableProxy",
          "address": "0x17c152432d066cce7599fb3612c4cfbf58555977",
          "initCode": "0x604060a08152610aac8038038061001581610268565b9283398101906060818303126102645761002e8161028d565b60209161003c83820161028d565b8582015190916001600160401b039190828211610264570185601f82011215610264578051908282116101ef5761007b601f8301601f19168701610268565b968288528683830101116102645785905f5b8381106102505750505f918701015284511561023f57823b1561021f577f360894a13ba1a3210667c828492db98dca3e2076cc3735a920a3ca505d382bbc80546001600160a01b03199081166001600160a01b03868116918217909355885192979195907fbc7cd75a20ee27fd9adebab32041f755214dbc6bffa90cc0225b39da2e5c2d3b5f80a28151156102035761012692506102a1565b505b85519161048391828401908111848210176101ef57868492879461062985391681520301905ff080156101e557831691826080527f7e644d79422f17c01e4894b5f4f588d331ebfa28653d42ae832dc59e38c9798f857fb53127684a568b3173ae13b9f8a6016e243e63b6e8ee1178d6a717850b5d6103958587549483519286168352820152a182156101ce5716179055516102f69081610333823960805181600f0152f35b8451633173bdd160e11b81525f6004820152602490fd5b84513d5f823e3d90fd5b634e487b7160e01b5f52604160045260245ffd5b5050346102105750610128565b63b398979f60e01b8152600490fd5b8551634c9c8ce360e01b81526001600160a01b0384166004820152602490fd5b85516330a289cf60e21b8152600490fd5b81810183015189820184015287920161008d565b5f80fd5b6040519190601f01601f191682016001600160401b038111838210176101ef57604052565b51906001600160a01b038216820361026457565b905f8091602081519101845af4808061031f575b156102d55750506040513d81523d5f602083013e60203d82010160405290565b156102fc57604051639996b31560e01b81526001600160a01b039091166004820152602490fd5b3d1561030d576040513d5f823e3d90fd5b60405163d6bda27560e01b8152600490fd5b503d1515806102b55750813b15156102b556fe60806040526001600160a01b03337f000000000000000000000000000000000000000000000000000000000000000082160361006a575f356001600160e01b03191663278f794360e11b14610060576040516334ad5dbb60e21b8152600490fd5b6100686100be565b005b5f80917f360894a13ba1a3210667c828492db98dca3e2076cc3735a920a3ca505d382bbc5416368280378136915af43d5f803e156100a6573d5ff35b3d5ffd5b634e487b7160e01b5f52604160045260245ffd5b3660041161015f57604036600319011261015f576004356001600160a01b0381169081900361015f576024359067ffffffffffffffff9081831161015f573660238401121561015f5782600401358281116101635760405192601f8201601f19908116603f011684019081118482101761016357604052808352366024828601011161015f576020815f92602461015d97018387013784010152610168565b565b5f80fd5b6100aa565b90813b156101ff577f360894a13ba1a3210667c828492db98dca3e2076cc3735a920a3ca505d382bbc80546001600160a01b0319166001600160a01b0384169081179091557fbc7cd75a20ee27fd9adebab32041f755214dbc6bffa90cc0225b39da2e5c2d3b5f80a28051156101e4576101e191610220565b50565b5050346101ed57565b60405163b398979f60e01b8152600490fd5b604051634c9c8ce360e01b81526001600160a01b0383166004820152602490fd5b905f8091602081519101845af48080610289575b156102465750506102436102a7565b90565b1561026e57604051639996b31560e01b81526001600160a01b03919091166004820152602490fd5b3d15155f0361029c5760405163d6bda27560e01b8152600490fd5b503d1515806102345750813b1515610234565b6040513d5f823e3d90fd5b604051903d82523d5f602084013e60203d83010160405256fea2646970667358221220371437a14d55b0192ed17af74450cdb0b22bf1f3d480185986e4348c96e968d064736f6c634300081800336080346100b957601f61048338819003918201601f19168301916001600160401b038311848410176100bd578084926020946040528339810103126100b957516001600160a01b0390818116908190036100b95780156100a1575f80546001600160a01b03198116831782556040519316907f8be0079c531659141344cd1fd0a4f28419497f9722a3daafe3b4186f6b6457e09080a36103b190816100d28239f35b604051631e4fbdf760e01b81525f6004820152602490fd5b5f80fd5b634e487b7160e01b5f52604160045260245ffdfe604060808152600480361015610013575f80fd5b5f915f3560e01c8063715018a6146102bb5780638da5cb5b146102945780639623609d1461015c578063ad3cb1cc146100eb5763f2fde38b14610054575f80fd5b346100e75760203660031901126100e7576001600160a01b038235818116939192908490036100e357610085610350565b83156100cd5750505f54826bffffffffffffffffffffffff60a01b8216175f55167f8be0079c531659141344cd1fd0a4f28419497f9722a3daafe3b4186f6b6457e05f80a380f35b51631e4fbdf760e01b8152908101849052602490fd5b5f80fd5b8280fd5b5082346101595780600319360112610159575080519080820182811067ffffffffffffffff821117610146576101429350815260058252640352e302e360dc1b602083015251918291602083526020830190610312565b0390f35b604184634e487b7160e01b5f525260245ffd5b80fd5b5060603660031901126100e3576001600160a01b03823581811693908490036100e35760249182359081168091036100e35767ffffffffffffffff906044358281116100e357366023820112156100e3578084013583811161028257865191601f8201601f19908116603f0116830185811184821017610270578852818352368783830101116100e357815f92886020930183860137830101526101fe610350565b863b156100e357610230965f92875180998194829363278f794360e11b8452898401528a8a8401526044830190610312565b039134905af1801561026657610244578580f35b909192938095501161025557505052005b604190634e487b7160e01b5f52525ffd5b84513d5f823e3d90fd5b87604188634e487b7160e01b5f52525ffd5b85604186634e487b7160e01b5f52525ffd5b50346100e3575f3660031901126100e3575f5490516001600160a01b039091168152602090f35b346100e3575f3660031901126100e3576102d3610350565b5f80546001600160a01b0319811682556001600160a01b03167f8be0079c531659141344cd1fd0a4f28419497f9722a3daafe3b4186f6b6457e08280a3005b91908251928382525f5b84811061033c575050825f602080949584010152601f8019910116010190565b60208183018101518483018201520161031c565b5f546001600160a01b0316330361036357565b60405163118cdaa760e01b8152336004820152602490fdfea26469706673582212202992a71449476404159c12582e1f3d5c014ae92bc1369e2e03b37152567a3c7d64736f6c6343000818003300000000000000000000000061afa5fdfb09b465dafc5b868e186dec832de945000000000000000000000000ff6bdef4fb646ee44e29fe8fc0862b02f0ba8a3300000000000000000000000000000000000000000000000000000000000000600000000000000000000000000000000000000000000000000000000000000144fc9c968e000000000000000000000000ff6bdef4fb646ee44e29fe8fc0862b02f0ba8a330000000000000000000000003fa41528a22645bef478e9ebae83981c02e98f7400000000000000000000000000000000000000000000000001ff973cafa800000000000000000000000000000000000000000000000000056bc75e2d6310000000000000000000000000000000000000000000000000003635c9adc5dea000000000000000000000000000000000000000000000000000000000000069e362940000000000000000000000000000000000000000000000000000000000000e1000000000000000000000000000000000000000000000000000000000000000c8000000000000000000000000ff6bdef4fb646ee44e29fe8fc0862b02f0ba8a33000000000000000000000000000000000000000000000000000000000000000000000000000000000000000000000000000000000000000000000000"
        },
        {
          "transactionType": "CREATE",
          "contractName": "ProxyAdmin",
          "address": "0x357ec444a4b2aca2981a06fd13e72916cb2c8edb",
          "initCode": "0x6080346100b957601f61048338819003918201601f19168301916001600160401b038311848410176100bd578084926020946040528339810103126100b957516001600160a01b0390818116908190036100b95780156100a1575f80546001600160a01b03198116831782556040519316907f8be0079c531659141344cd1fd0a4f28419497f9722a3daafe3b4186f6b6457e09080a36103b190816100d28239f35b604051631e4fbdf760e01b81525f6004820152602490fd5b5f80fd5b634e487b7160e01b5f52604160045260245ffdfe604060808152600480361015610013575f80fd5b5f915f3560e01c8063715018a6146102bb5780638da5cb5b146102945780639623609d1461015c578063ad3cb1cc146100eb5763f2fde38b14610054575f80fd5b346100e75760203660031901126100e7576001600160a01b038235818116939192908490036100e357610085610350565b83156100cd5750505f54826bffffffffffffffffffffffff60a01b8216175f55167f8be0079c531659141344cd1fd0a4f28419497f9722a3daafe3b4186f6b6457e05f80a380f35b51631e4fbdf760e01b8152908101849052602490fd5b5f80fd5b8280fd5b5082346101595780600319360112610159575080519080820182811067ffffffffffffffff821117610146576101429350815260058252640352e302e360dc1b602083015251918291602083526020830190610312565b0390f35b604184634e487b7160e01b5f525260245ffd5b80fd5b5060603660031901126100e3576001600160a01b03823581811693908490036100e35760249182359081168091036100e35767ffffffffffffffff906044358281116100e357366023820112156100e3578084013583811161028257865191601f8201601f19908116603f0116830185811184821017610270578852818352368783830101116100e357815f92886020930183860137830101526101fe610350565b863b156100e357610230965f92875180998194829363278f794360e11b8452898401528a8a8401526044830190610312565b039134905af1801561026657610244578580f35b909192938095501161025557505052005b604190634e487b7160e01b5f52525ffd5b84513d5f823e3d90fd5b87604188634e487b7160e01b5f52525ffd5b85604186634e487b7160e01b5f52525ffd5b50346100e3575f3660031901126100e3575f5490516001600160a01b039091168152602090f35b346100e3575f3660031901126100e3576102d3610350565b5f80546001600160a01b0319811682556001600160a01b03167f8be0079c531659141344cd1fd0a4f28419497f9722a3daafe3b4186f6b6457e08280a3005b91908251928382525f5b84811061033c575050825f602080949584010152601f8019910116010190565b60208183018101518483018201520161031c565b5f546001600160a01b0316330361036357565b60405163118cdaa760e01b8152336004820152602490fdfea26469706673582212202992a71449476404159c12582e1f3d5c014ae92bc1369e2e03b37152567a3c7d64736f6c63430008180033000000000000000000000000ff6bdef4fb646ee44e29fe8fc0862b02f0ba8a33"
        },
        {
          "transactionType": "CREATE",
          "contractName": "TransparentUpgradeableProxy",
          "address": "0xe6c3182d62d331b0dea867c96fbdfe5f28c36710",
          "initCode": "0x604060a08152610aac8038038061001581610268565b9283398101906060818303126102645761002e8161028d565b60209161003c83820161028d565b8582015190916001600160401b039190828211610264570185601f82011215610264578051908282116101ef5761007b601f8301601f19168701610268565b968288528683830101116102645785905f5b8381106102505750505f918701015284511561023f57823b1561021f577f360894a13ba1a3210667c828492db98dca3e2076cc3735a920a3ca505d382bbc80546001600160a01b03199081166001600160a01b03868116918217909355885192979195907fbc7cd75a20ee27fd9adebab32041f755214dbc6bffa90cc0225b39da2e5c2d3b5f80a28151156102035761012692506102a1565b505b85519161048391828401908111848210176101ef57868492879461062985391681520301905ff080156101e557831691826080527f7e644d79422f17c01e4894b5f4f588d331ebfa28653d42ae832dc59e38c9798f857fb53127684a568b3173ae13b9f8a6016e243e63b6e8ee1178d6a717850b5d6103958587549483519286168352820152a182156101ce5716179055516102f69081610333823960805181600f0152f35b8451633173bdd160e11b81525f6004820152602490fd5b84513d5f823e3d90fd5b634e487b7160e01b5f52604160045260245ffd5b5050346102105750610128565b63b398979f60e01b8152600490fd5b8551634c9c8ce360e01b81526001600160a01b0384166004820152602490fd5b85516330a289cf60e21b8152600490fd5b81810183015189820184015287920161008d565b5f80fd5b6040519190601f01601f191682016001600160401b038111838210176101ef57604052565b51906001600160a01b038216820361026457565b905f8091602081519101845af4808061031f575b156102d55750506040513d81523d5f602083013e60203d82010160405290565b156102fc57604051639996b31560e01b81526001600160a01b039091166004820152602490fd5b3d1561030d576040513d5f823e3d90fd5b60405163d6bda27560e01b8152600490fd5b503d1515806102b55750813b15156102b556fe60806040526001600160a01b03337f000000000000000000000000000000000000000000000000000000000000000082160361006a575f356001600160e01b03191663278f794360e11b14610060576040516334ad5dbb60e21b8152600490fd5b6100686100be565b005b5f80917f360894a13ba1a3210667c828492db98dca3e2076cc3735a920a3ca505d382bbc5416368280378136915af43d5f803e156100a6573d5ff35b3d5ffd5b634e487b7160e01b5f52604160045260245ffd5b3660041161015f57604036600319011261015f576004356001600160a01b0381169081900361015f576024359067ffffffffffffffff9081831161015f573660238401121561015f5782600401358281116101635760405192601f8201601f19908116603f011684019081118482101761016357604052808352366024828601011161015f576020815f92602461015d97018387013784010152610168565b565b5f80fd5b6100aa565b90813b156101ff577f360894a13ba1a3210667c828492db98dca3e2076cc3735a920a3ca505d382bbc80546001600160a01b0319166001600160a01b0384169081179091557fbc7cd75a20ee27fd9adebab32041f755214dbc6bffa90cc0225b39da2e5c2d3b5f80a28051156101e4576101e191610220565b50565b5050346101ed57565b60405163b398979f60e01b8152600490fd5b604051634c9c8ce360e01b81526001600160a01b0383166004820152602490fd5b905f8091602081519101845af48080610289575b156102465750506102436102a7565b90565b1561026e57604051639996b31560e01b81526001600160a01b03919091166004820152602490fd5b3d15155f0361029c5760405163d6bda27560e01b8152600490fd5b503d1515806102345750813b1515610234565b6040513d5f823e3d90fd5b604051903d82523d5f602084013e60203d83010160405256fea2646970667358221220371437a14d55b0192ed17af74450cdb0b22bf1f3d480185986e4348c96e968d064736f6c634300081800336080346100b957601f61048338819003918201601f19168301916001600160401b038311848410176100bd578084926020946040528339810103126100b957516001600160a01b0390818116908190036100b95780156100a1575f80546001600160a01b03198116831782556040519316907f8be0079c531659141344cd1fd0a4f28419497f9722a3daafe3b4186f6b6457e09080a36103b190816100d28239f35b604051631e4fbdf760e01b81525f6004820152602490fd5b5f80fd5b634e487b7160e01b5f52604160045260245ffdfe604060808152600480361015610013575f80fd5b5f915f3560e01c8063715018a6146102bb5780638da5cb5b146102945780639623609d1461015c578063ad3cb1cc146100eb5763f2fde38b14610054575f80fd5b346100e75760203660031901126100e7576001600160a01b038235818116939192908490036100e357610085610350565b83156100cd5750505f54826bffffffffffffffffffffffff60a01b8216175f55167f8be0079c531659141344cd1fd0a4f28419497f9722a3daafe3b4186f6b6457e05f80a380f35b51631e4fbdf760e01b8152908101849052602490fd5b5f80fd5b8280fd5b5082346101595780600319360112610159575080519080820182811067ffffffffffffffff821117610146576101429350815260058252640352e302e360dc1b602083015251918291602083526020830190610312565b0390f35b604184634e487b7160e01b5f525260245ffd5b80fd5b5060603660031901126100e3576001600160a01b03823581811693908490036100e35760249182359081168091036100e35767ffffffffffffffff906044358281116100e357366023820112156100e3578084013583811161028257865191601f8201601f19908116603f0116830185811184821017610270578852818352368783830101116100e357815f92886020930183860137830101526101fe610350565b863b156100e357610230965f92875180998194829363278f794360e11b8452898401528a8a8401526044830190610312565b039134905af1801561026657610244578580f35b909192938095501161025557505052005b604190634e487b7160e01b5f52525ffd5b84513d5f823e3d90fd5b87604188634e487b7160e01b5f52525ffd5b85604186634e487b7160e01b5f52525ffd5b50346100e3575f3660031901126100e3575f5490516001600160a01b039091168152602090f35b346100e3575f3660031901126100e3576102d3610350565b5f80546001600160a01b0319811682556001600160a01b03167f8be0079c531659141344cd1fd0a4f28419497f9722a3daafe3b4186f6b6457e08280a3005b91908251928382525f5b84811061033c575050825f602080949584010152601f8019910116010190565b60208183018101518483018201520161031c565b5f546001600160a01b0316330361036357565b60405163118cdaa760e01b8152336004820152602490fdfea26469706673582212202992a71449476404159c12582e1f3d5c014ae92bc1369e2e03b37152567a3c7d64736f6c634300081800330000000000000000000000000dbe11ad9c2bf4126fe8d422e7374de47600a2ca000000000000000000000000ff6bdef4fb646ee44e29fe8fc0862b02f0ba8a33000000000000000000000000000000000000000000000000000000000000006000000000000000000000000000000000000000000000000000000000000000e4077f224a000000000000000000000000000000000000000000000000000000000000006000000000000000000000000000000000000000000000000000000000000000a000000000000000000000000017c152432d066cce7599fb3612c4cfbf58555977000000000000000000000000000000000000000000000000000000000000000a46617374204f6c697665000000000000000000000000000000000000000000000000000000000000000000000000000000000000000000000000000000000004464153540000000000000000000000000000000000000000000000000000000000000000000000000000000000000000000000000000000000000000"
        },
        {
          "transactionType": "CREATE",
          "contractName": "ProxyAdmin",
          "address": "0x70975c0e453e0a2b77475b85dc5fabd691ec2159",
          "initCode": "0x6080346100b957601f61048338819003918201601f19168301916001600160401b038311848410176100bd578084926020946040528339810103126100b957516001600160a01b0390818116908190036100b95780156100a1575f80546001600160a01b03198116831782556040519316907f8be0079c531659141344cd1fd0a4f28419497f9722a3daafe3b4186f6b6457e09080a36103b190816100d28239f35b604051631e4fbdf760e01b81525f6004820152602490fd5b5f80fd5b634e487b7160e01b5f52604160045260245ffdfe604060808152600480361015610013575f80fd5b5f915f3560e01c8063715018a6146102bb5780638da5cb5b146102945780639623609d1461015c578063ad3cb1cc146100eb5763f2fde38b14610054575f80fd5b346100e75760203660031901126100e7576001600160a01b038235818116939192908490036100e357610085610350565b83156100cd5750505f54826bffffffffffffffffffffffff60a01b8216175f55167f8be0079c531659141344cd1fd0a4f28419497f9722a3daafe3b4186f6b6457e05f80a380f35b51631e4fbdf760e01b8152908101849052602490fd5b5f80fd5b8280fd5b5082346101595780600319360112610159575080519080820182811067ffffffffffffffff821117610146576101429350815260058252640352e302e360dc1b602083015251918291602083526020830190610312565b0390f35b604184634e487b7160e01b5f525260245ffd5b80fd5b5060603660031901126100e3576001600160a01b03823581811693908490036100e35760249182359081168091036100e35767ffffffffffffffff906044358281116100e357366023820112156100e3578084013583811161028257865191601f8201601f19908116603f0116830185811184821017610270578852818352368783830101116100e357815f92886020930183860137830101526101fe610350565b863b156100e357610230965f92875180998194829363278f794360e11b8452898401528a8a8401526044830190610312565b039134905af1801561026657610244578580f35b909192938095501161025557505052005b604190634e487b7160e01b5f52525ffd5b84513d5f823e3d90fd5b87604188634e487b7160e01b5f52525ffd5b85604186634e487b7160e01b5f52525ffd5b50346100e3575f3660031901126100e3575f5490516001600160a01b039091168152602090f35b346100e3575f3660031901126100e3576102d3610350565b5f80546001600160a01b0319811682556001600160a01b03167f8be0079c531659141344cd1fd0a4f28419497f9722a3daafe3b4186f6b6457e08280a3005b91908251928382525f5b84811061033c575050825f602080949584010152601f8019910116010190565b60208183018101518483018201520161031c565b5f546001600160a01b0316330361036357565b60405163118cdaa760e01b8152336004820152602490fdfea26469706673582212202992a71449476404159c12582e1f3d5c014ae92bc1369e2e03b37152567a3c7d64736f6c63430008180033000000000000000000000000ff6bdef4fb646ee44e29fe8fc0862b02f0ba8a33"
        },
        {
          "transactionType": "CREATE",
          "contractName": "TransparentUpgradeableProxy",
          "address": "0x35477e7a3400851f74a60bd8dc14201c742b2a7a",
          "initCode": "0x604060a08152610aac8038038061001581610268565b9283398101906060818303126102645761002e8161028d565b60209161003c83820161028d565b8582015190916001600160401b039190828211610264570185601f82011215610264578051908282116101ef5761007b601f8301601f19168701610268565b968288528683830101116102645785905f5b8381106102505750505f918701015284511561023f57823b1561021f577f360894a13ba1a3210667c828492db98dca3e2076cc3735a920a3ca505d382bbc80546001600160a01b03199081166001600160a01b03868116918217909355885192979195907fbc7cd75a20ee27fd9adebab32041f755214dbc6bffa90cc0225b39da2e5c2d3b5f80a28151156102035761012692506102a1565b505b85519161048391828401908111848210176101ef57868492879461062985391681520301905ff080156101e557831691826080527f7e644d79422f17c01e4894b5f4f588d331ebfa28653d42ae832dc59e38c9798f857fb53127684a568b3173ae13b9f8a6016e243e63b6e8ee1178d6a717850b5d6103958587549483519286168352820152a182156101ce5716179055516102f69081610333823960805181600f0152f35b8451633173bdd160e11b81525f6004820152602490fd5b84513d5f823e3d90fd5b634e487b7160e01b5f52604160045260245ffd5b5050346102105750610128565b63b398979f60e01b8152600490fd5b8551634c9c8ce360e01b81526001600160a01b0384166004820152602490fd5b85516330a289cf60e21b8152600490fd5b81810183015189820184015287920161008d565b5f80fd5b6040519190601f01601f191682016001600160401b038111838210176101ef57604052565b51906001600160a01b038216820361026457565b905f8091602081519101845af4808061031f575b156102d55750506040513d81523d5f602083013e60203d82010160405290565b156102fc57604051639996b31560e01b81526001600160a01b039091166004820152602490fd5b3d1561030d576040513d5f823e3d90fd5b60405163d6bda27560e01b8152600490fd5b503d1515806102b55750813b15156102b556fe60806040526001600160a01b03337f000000000000000000000000000000000000000000000000000000000000000082160361006a575f356001600160e01b03191663278f794360e11b14610060576040516334ad5dbb60e21b8152600490fd5b6100686100be565b005b5f80917f360894a13ba1a3210667c828492db98dca3e2076cc3735a920a3ca505d382bbc5416368280378136915af43d5f803e156100a6573d5ff35b3d5ffd5b634e487b7160e01b5f52604160045260245ffd5b3660041161015f57604036600319011261015f576004356001600160a01b0381169081900361015f576024359067ffffffffffffffff9081831161015f573660238401121561015f5782600401358281116101635760405192601f8201601f19908116603f011684019081118482101761016357604052808352366024828601011161015f576020815f92602461015d97018387013784010152610168565b565b5f80fd5b6100aa565b90813b156101ff577f360894a13ba1a3210667c828492db98dca3e2076cc3735a920a3ca505d382bbc80546001600160a01b0319166001600160a01b0384169081179091557fbc7cd75a20ee27fd9adebab32041f755214dbc6bffa90cc0225b39da2e5c2d3b5f80a28051156101e4576101e191610220565b50565b5050346101ed57565b60405163b398979f60e01b8152600490fd5b604051634c9c8ce360e01b81526001600160a01b0383166004820152602490fd5b905f8091602081519101845af48080610289575b156102465750506102436102a7565b90565b1561026e57604051639996b31560e01b81526001600160a01b03919091166004820152602490fd5b3d15155f0361029c5760405163d6bda27560e01b8152600490fd5b503d1515806102345750813b1515610234565b6040513d5f823e3d90fd5b604051903d82523d5f602084013e60203d83010160405256fea2646970667358221220371437a14d55b0192ed17af74450cdb0b22bf1f3d480185986e4348c96e968d064736f6c634300081800336080346100b957601f61048338819003918201601f19168301916001600160401b038311848410176100bd578084926020946040528339810103126100b957516001600160a01b0390818116908190036100b95780156100a1575f80546001600160a01b03198116831782556040519316907f8be0079c531659141344cd1fd0a4f28419497f9722a3daafe3b4186f6b6457e09080a36103b190816100d28239f35b604051631e4fbdf760e01b81525f6004820152602490fd5b5f80fd5b634e487b7160e01b5f52604160045260245ffdfe604060808152600480361015610013575f80fd5b5f915f3560e01c8063715018a6146102bb5780638da5cb5b146102945780639623609d1461015c578063ad3cb1cc146100eb5763f2fde38b14610054575f80fd5b346100e75760203660031901126100e7576001600160a01b038235818116939192908490036100e357610085610350565b83156100cd5750505f54826bffffffffffffffffffffffff60a01b8216175f55167f8be0079c531659141344cd1fd0a4f28419497f9722a3daafe3b4186f6b6457e05f80a380f35b51631e4fbdf760e01b8152908101849052602490fd5b5f80fd5b8280fd5b5082346101595780600319360112610159575080519080820182811067ffffffffffffffff821117610146576101429350815260058252640352e302e360dc1b602083015251918291602083526020830190610312565b0390f35b604184634e487b7160e01b5f525260245ffd5b80fd5b5060603660031901126100e3576001600160a01b03823581811693908490036100e35760249182359081168091036100e35767ffffffffffffffff906044358281116100e357366023820112156100e3578084013583811161028257865191601f8201601f19908116603f0116830185811184821017610270578852818352368783830101116100e357815f92886020930183860137830101526101fe610350565b863b156100e357610230965f92875180998194829363278f794360e11b8452898401528a8a8401526044830190610312565b039134905af1801561026657610244578580f35b909192938095501161025557505052005b604190634e487b7160e01b5f52525ffd5b84513d5f823e3d90fd5b87604188634e487b7160e01b5f52525ffd5b85604186634e487b7160e01b5f52525ffd5b50346100e3575f3660031901126100e3575f5490516001600160a01b039091168152602090f35b346100e3575f3660031901126100e3576102d3610350565b5f80546001600160a01b0319811682556001600160a01b03167f8be0079c531659141344cd1fd0a4f28419497f9722a3daafe3b4186f6b6457e08280a3005b91908251928382525f5b84811061033c575050825f602080949584010152601f8019910116010190565b60208183018101518483018201520161031c565b5f546001600160a01b0316330361036357565b60405163118cdaa760e01b8152336004820152602490fdfea26469706673582212202992a71449476404159c12582e1f3d5c014ae92bc1369e2e03b37152567a3c7d64736f6c6343000818003300000000000000000000000081c4e22ec9198f2983217c483e4027cf49e940db000000000000000000000000ff6bdef4fb646ee44e29fe8fc0862b02f0ba8a33000000000000000000000000000000000000000000000000000000000000006000000000000000000000000000000000000000000000000000000000000000a4a6b63eb8000000000000000000000000e6c3182d62d331b0dea867c96fbdfe5f28c3671000000000000000000000000017c152432d066cce7599fb3612c4cfbf585559770000000000000000000000003fa41528a22645bef478e9ebae83981c02e98f7400000000000000000000000000000000000000000000003635c9adc5dea000000000000000000000000000000000000000000000000000000000000000000e1000000000000000000000000000000000000000000000000000000000"
        },
        {
          "transactionType": "CREATE",
          "contractName": "ProxyAdmin",
          "address": "0x91adb8d79bfd8b2cc0b4f0a062215ce8d58eb0ad",
          "initCode": "0x6080346100b957601f61048338819003918201601f19168301916001600160401b038311848410176100bd578084926020946040528339810103126100b957516001600160a01b0390818116908190036100b95780156100a1575f80546001600160a01b03198116831782556040519316907f8be0079c531659141344cd1fd0a4f28419497f9722a3daafe3b4186f6b6457e09080a36103b190816100d28239f35b604051631e4fbdf760e01b81525f6004820152602490fd5b5f80fd5b634e487b7160e01b5f52604160045260245ffdfe604060808152600480361015610013575f80fd5b5f915f3560e01c8063715018a6146102bb5780638da5cb5b146102945780639623609d1461015c578063ad3cb1cc146100eb5763f2fde38b14610054575f80fd5b346100e75760203660031901126100e7576001600160a01b038235818116939192908490036100e357610085610350565b83156100cd5750505f54826bffffffffffffffffffffffff60a01b8216175f55167f8be0079c531659141344cd1fd0a4f28419497f9722a3daafe3b4186f6b6457e05f80a380f35b51631e4fbdf760e01b8152908101849052602490fd5b5f80fd5b8280fd5b5082346101595780600319360112610159575080519080820182811067ffffffffffffffff821117610146576101429350815260058252640352e302e360dc1b602083015251918291602083526020830190610312565b0390f35b604184634e487b7160e01b5f525260245ffd5b80fd5b5060603660031901126100e3576001600160a01b03823581811693908490036100e35760249182359081168091036100e35767ffffffffffffffff906044358281116100e357366023820112156100e3578084013583811161028257865191601f8201601f19908116603f0116830185811184821017610270578852818352368783830101116100e357815f92886020930183860137830101526101fe610350565b863b156100e357610230965f92875180998194829363278f794360e11b8452898401528a8a8401526044830190610312565b039134905af1801561026657610244578580f35b909192938095501161025557505052005b604190634e487b7160e01b5f52525ffd5b84513d5f823e3d90fd5b87604188634e487b7160e01b5f52525ffd5b85604186634e487b7160e01b5f52525ffd5b50346100e3575f3660031901126100e3575f5490516001600160a01b039091168152602090f35b346100e3575f3660031901126100e3576102d3610350565b5f80546001600160a01b0319811682556001600160a01b03167f8be0079c531659141344cd1fd0a4f28419497f9722a3daafe3b4186f6b6457e08280a3005b91908251928382525f5b84811061033c575050825f602080949584010152601f8019910116010190565b60208183018101518483018201520161031c565b5f546001600160a01b0316330361036357565b60405163118cdaa760e01b8152336004820152602490fdfea26469706673582212202992a71449476404159c12582e1f3d5c014ae92bc1369e2e03b37152567a3c7d64736f6c63430008180033000000000000000000000000ff6bdef4fb646ee44e29fe8fc0862b02f0ba8a33"
        },
        {
          "transactionType": "CREATE",
          "contractName": "TransparentUpgradeableProxy",
          "address": "0x4796c635cee0128259db6517853a97415dd8d35c",
          "initCode": "0x604060a08152610aac8038038061001581610268565b9283398101906060818303126102645761002e8161028d565b60209161003c83820161028d565b8582015190916001600160401b039190828211610264570185601f82011215610264578051908282116101ef5761007b601f8301601f19168701610268565b968288528683830101116102645785905f5b8381106102505750505f918701015284511561023f57823b1561021f577f360894a13ba1a3210667c828492db98dca3e2076cc3735a920a3ca505d382bbc80546001600160a01b03199081166001600160a01b03868116918217909355885192979195907fbc7cd75a20ee27fd9adebab32041f755214dbc6bffa90cc0225b39da2e5c2d3b5f80a28151156102035761012692506102a1565b505b85519161048391828401908111848210176101ef57868492879461062985391681520301905ff080156101e557831691826080527f7e644d79422f17c01e4894b5f4f588d331ebfa28653d42ae832dc59e38c9798f857fb53127684a568b3173ae13b9f8a6016e243e63b6e8ee1178d6a717850b5d6103958587549483519286168352820152a182156101ce5716179055516102f69081610333823960805181600f0152f35b8451633173bdd160e11b81525f6004820152602490fd5b84513d5f823e3d90fd5b634e487b7160e01b5f52604160045260245ffd5b5050346102105750610128565b63b398979f60e01b8152600490fd5b8551634c9c8ce360e01b81526001600160a01b0384166004820152602490fd5b85516330a289cf60e21b8152600490fd5b81810183015189820184015287920161008d565b5f80fd5b6040519190601f01601f191682016001600160401b038111838210176101ef57604052565b51906001600160a01b038216820361026457565b905f8091602081519101845af4808061031f575b156102d55750506040513d81523d5f602083013e60203d82010160405290565b156102fc57604051639996b31560e01b81526001600160a01b039091166004820152602490fd5b3d1561030d576040513d5f823e3d90fd5b60405163d6bda27560e01b8152600490fd5b503d1515806102b55750813b15156102b556fe60806040526001600160a01b03337f000000000000000000000000000000000000000000000000000000000000000082160361006a575f356001600160e01b03191663278f794360e11b14610060576040516334ad5dbb60e21b8152600490fd5b6100686100be565b005b5f80917f360894a13ba1a3210667c828492db98dca3e2076cc3735a920a3ca505d382bbc5416368280378136915af43d5f803e156100a6573d5ff35b3d5ffd5b634e487b7160e01b5f52604160045260245ffd5b3660041161015f57604036600319011261015f576004356001600160a01b0381169081900361015f576024359067ffffffffffffffff9081831161015f573660238401121561015f5782600401358281116101635760405192601f8201601f19908116603f011684019081118482101761016357604052808352366024828601011161015f576020815f92602461015d97018387013784010152610168565b565b5f80fd5b6100aa565b90813b156101ff577f360894a13ba1a3210667c828492db98dca3e2076cc3735a920a3ca505d382bbc80546001600160a01b0319166001600160a01b0384169081179091557fbc7cd75a20ee27fd9adebab32041f755214dbc6bffa90cc0225b39da2e5c2d3b5f80a28051156101e4576101e191610220565b50565b5050346101ed57565b60405163b398979f60e01b8152600490fd5b604051634c9c8ce360e01b81526001600160a01b0383166004820152602490fd5b905f8091602081519101845af48080610289575b156102465750506102436102a7565b90565b1561026e57604051639996b31560e01b81526001600160a01b03919091166004820152602490fd5b3d15155f0361029c5760405163d6bda27560e01b8152600490fd5b503d1515806102345750813b1515610234565b6040513d5f823e3d90fd5b604051903d82523d5f602084013e60203d83010160405256fea2646970667358221220371437a14d55b0192ed17af74450cdb0b22bf1f3d480185986e4348c96e968d064736f6c634300081800336080346100b957601f61048338819003918201601f19168301916001600160401b038311848410176100bd578084926020946040528339810103126100b957516001600160a01b0390818116908190036100b95780156100a1575f80546001600160a01b03198116831782556040519316907f8be0079c531659141344cd1fd0a4f28419497f9722a3daafe3b4186f6b6457e09080a36103b190816100d28239f35b604051631e4fbdf760e01b81525f6004820152602490fd5b5f80fd5b634e487b7160e01b5f52604160045260245ffdfe604060808152600480361015610013575f80fd5b5f915f3560e01c8063715018a6146102bb5780638da5cb5b146102945780639623609d1461015c578063ad3cb1cc146100eb5763f2fde38b14610054575f80fd5b346100e75760203660031901126100e7576001600160a01b038235818116939192908490036100e357610085610350565b83156100cd5750505f54826bffffffffffffffffffffffff60a01b8216175f55167f8be0079c531659141344cd1fd0a4f28419497f9722a3daafe3b4186f6b6457e05f80a380f35b51631e4fbdf760e01b8152908101849052602490fd5b5f80fd5b8280fd5b5082346101595780600319360112610159575080519080820182811067ffffffffffffffff821117610146576101429350815260058252640352e302e360dc1b602083015251918291602083526020830190610312565b0390f35b604184634e487b7160e01b5f525260245ffd5b80fd5b5060603660031901126100e3576001600160a01b03823581811693908490036100e35760249182359081168091036100e35767ffffffffffffffff906044358281116100e357366023820112156100e3578084013583811161028257865191601f8201601f19908116603f0116830185811184821017610270578852818352368783830101116100e357815f92886020930183860137830101526101fe610350565b863b156100e357610230965f92875180998194829363278f794360e11b8452898401528a8a8401526044830190610312565b039134905af1801561026657610244578580f35b909192938095501161025557505052005b604190634e487b7160e01b5f52525ffd5b84513d5f823e3d90fd5b87604188634e487b7160e01b5f52525ffd5b85604186634e487b7160e01b5f52525ffd5b50346100e3575f3660031901126100e3575f5490516001600160a01b039091168152602090f35b346100e3575f3660031901126100e3576102d3610350565b5f80546001600160a01b0319811682556001600160a01b03167f8be0079c531659141344cd1fd0a4f28419497f9722a3daafe3b4186f6b6457e08280a3005b91908251928382525f5b84811061033c575050825f602080949584010152601f8019910116010190565b60208183018101518483018201520161031c565b5f546001600160a01b0316330361036357565b60405163118cdaa760e01b8152336004820152602490fdfea26469706673582212202992a71449476404159c12582e1f3d5c014ae92bc1369e2e03b37152567a3c7d64736f6c634300081800330000000000000000000000008d434e38dd91d9b738f8803dbd18b815720bedad000000000000000000000000ff6bdef4fb646ee44e29fe8fc0862b02f0ba8a33000000000000000000000000000000000000000000000000000000000000006000000000000000000000000000000000000000000000000000000000000000c4d7c41c7900000000000000000000000032c344dc9713d904442d0e5b0d2b7994e52b0d4e000000000000000000000000ff6bdef4fb646ee44e29fe8fc0862b02f0ba8a330000000000000000000000003fa41528a22645bef478e9ebae83981c02e98f74000000000000000000000000ff6bdef4fb646ee44e29fe8fc0862b02f0ba8a3300000000000000000000000000000000000000000000000000000000000000c80000000000000000000000000000000000000000000000000de0b6b3a764000000000000000000000000000000000000000000000000000000000000"
        },
        {
          "transactionType": "CREATE",
          "contractName": "ProxyAdmin",
          "address": "0x539776ba8aebd98f1fd5dc29a756503cd364f8c8",
          "initCode": "0x6080346100b957601f61048338819003918201601f19168301916001600160401b038311848410176100bd578084926020946040528339810103126100b957516001600160a01b0390818116908190036100b95780156100a1575f80546001600160a01b03198116831782556040519316907f8be0079c531659141344cd1fd0a4f28419497f9722a3daafe3b4186f6b6457e09080a36103b190816100d28239f35b604051631e4fbdf760e01b81525f6004820152602490fd5b5f80fd5b634e487b7160e01b5f52604160045260245ffdfe604060808152600480361015610013575f80fd5b5f915f3560e01c8063715018a6146102bb5780638da5cb5b146102945780639623609d1461015c578063ad3cb1cc146100eb5763f2fde38b14610054575f80fd5b346100e75760203660031901126100e7576001600160a01b038235818116939192908490036100e357610085610350565b83156100cd5750505f54826bffffffffffffffffffffffff60a01b8216175f55167f8be0079c531659141344cd1fd0a4f28419497f9722a3daafe3b4186f6b6457e05f80a380f35b51631e4fbdf760e01b8152908101849052602490fd5b5f80fd5b8280fd5b5082346101595780600319360112610159575080519080820182811067ffffffffffffffff821117610146576101429350815260058252640352e302e360dc1b602083015251918291602083526020830190610312565b0390f35b604184634e487b7160e01b5f525260245ffd5b80fd5b5060603660031901126100e3576001600160a01b03823581811693908490036100e35760249182359081168091036100e35767ffffffffffffffff906044358281116100e357366023820112156100e3578084013583811161028257865191601f8201601f19908116603f0116830185811184821017610270578852818352368783830101116100e357815f92886020930183860137830101526101fe610350565b863b156100e357610230965f92875180998194829363278f794360e11b8452898401528a8a8401526044830190610312565b039134905af1801561026657610244578580f35b909192938095501161025557505052005b604190634e487b7160e01b5f52525ffd5b84513d5f823e3d90fd5b87604188634e487b7160e01b5f52525ffd5b85604186634e487b7160e01b5f52525ffd5b50346100e3575f3660031901126100e3575f5490516001600160a01b039091168152602090f35b346100e3575f3660031901126100e3576102d3610350565b5f80546001600160a01b0319811682556001600160a01b03167f8be0079c531659141344cd1fd0a4f28419497f9722a3daafe3b4186f6b6457e08280a3005b91908251928382525f5b84811061033c575050825f602080949584010152601f8019910116010190565b60208183018101518483018201520161031c565b5f546001600160a01b0316330361036357565b60405163118cdaa760e01b8152336004820152602490fdfea26469706673582212202992a71449476404159c12582e1f3d5c014ae92bc1369e2e03b37152567a3c7d64736f6c63430008180033000000000000000000000000ff6bdef4fb646ee44e29fe8fc0862b02f0ba8a33"
        },
        {
          "transactionType": "CREATE",
          "contractName": "TransparentUpgradeableProxy",
          "address": "0x42ddf5c40ca5da832b29ac64316aaaed1e99f2fd",
          "initCode": "0x604060a08152610aac8038038061001581610268565b9283398101906060818303126102645761002e8161028d565b60209161003c83820161028d565b8582015190916001600160401b039190828211610264570185601f82011215610264578051908282116101ef5761007b601f8301601f19168701610268565b968288528683830101116102645785905f5b8381106102505750505f918701015284511561023f57823b1561021f577f360894a13ba1a3210667c828492db98dca3e2076cc3735a920a3ca505d382bbc80546001600160a01b03199081166001600160a01b03868116918217909355885192979195907fbc7cd75a20ee27fd9adebab32041f755214dbc6bffa90cc0225b39da2e5c2d3b5f80a28151156102035761012692506102a1565b505b85519161048391828401908111848210176101ef57868492879461062985391681520301905ff080156101e557831691826080527f7e644d79422f17c01e4894b5f4f588d331ebfa28653d42ae832dc59e38c9798f857fb53127684a568b3173ae13b9f8a6016e243e63b6e8ee1178d6a717850b5d6103958587549483519286168352820152a182156101ce5716179055516102f69081610333823960805181600f0152f35b8451633173bdd160e11b81525f6004820152602490fd5b84513d5f823e3d90fd5b634e487b7160e01b5f52604160045260245ffd5b5050346102105750610128565b63b398979f60e01b8152600490fd5b8551634c9c8ce360e01b81526001600160a01b0384166004820152602490fd5b85516330a289cf60e21b8152600490fd5b81810183015189820184015287920161008d565b5f80fd5b6040519190601f01601f191682016001600160401b038111838210176101ef57604052565b51906001600160a01b038216820361026457565b905f8091602081519101845af4808061031f575b156102d55750506040513d81523d5f602083013e60203d82010160405290565b156102fc57604051639996b31560e01b81526001600160a01b039091166004820152602490fd5b3d1561030d576040513d5f823e3d90fd5b60405163d6bda27560e01b8152600490fd5b503d1515806102b55750813b15156102b556fe60806040526001600160a01b03337f000000000000000000000000000000000000000000000000000000000000000082160361006a575f356001600160e01b03191663278f794360e11b14610060576040516334ad5dbb60e21b8152600490fd5b6100686100be565b005b5f80917f360894a13ba1a3210667c828492db98dca3e2076cc3735a920a3ca505d382bbc5416368280378136915af43d5f803e156100a6573d5ff35b3d5ffd5b634e487b7160e01b5f52604160045260245ffd5b3660041161015f57604036600319011261015f576004356001600160a01b0381169081900361015f576024359067ffffffffffffffff9081831161015f573660238401121561015f5782600401358281116101635760405192601f8201601f19908116603f011684019081118482101761016357604052808352366024828601011161015f576020815f92602461015d97018387013784010152610168565b565b5f80fd5b6100aa565b90813b156101ff577f360894a13ba1a3210667c828492db98dca3e2076cc3735a920a3ca505d382bbc80546001600160a01b0319166001600160a01b0384169081179091557fbc7cd75a20ee27fd9adebab32041f755214dbc6bffa90cc0225b39da2e5c2d3b5f80a28051156101e4576101e191610220565b50565b5050346101ed57565b60405163b398979f60e01b8152600490fd5b604051634c9c8ce360e01b81526001600160a01b0383166004820152602490fd5b905f8091602081519101845af48080610289575b156102465750506102436102a7565b90565b1561026e57604051639996b31560e01b81526001600160a01b03919091166004820152602490fd5b3d15155f0361029c5760405163d6bda27560e01b8152600490fd5b503d1515806102345750813b1515610234565b6040513d5f823e3d90fd5b604051903d82523d5f602084013e60203d83010160405256fea2646970667358221220371437a14d55b0192ed17af74450cdb0b22bf1f3d480185986e4348c96e968d064736f6c634300081800336080346100b957601f61048338819003918201601f19168301916001600160401b038311848410176100bd578084926020946040528339810103126100b957516001600160a01b0390818116908190036100b95780156100a1575f80546001600160a01b03198116831782556040519316907f8be0079c531659141344cd1fd0a4f28419497f9722a3daafe3b4186f6b6457e09080a36103b190816100d28239f35b604051631e4fbdf760e01b81525f6004820152602490fd5b5f80fd5b634e487b7160e01b5f52604160045260245ffdfe604060808152600480361015610013575f80fd5b5f915f3560e01c8063715018a6146102bb5780638da5cb5b146102945780639623609d1461015c578063ad3cb1cc146100eb5763f2fde38b14610054575f80fd5b346100e75760203660031901126100e7576001600160a01b038235818116939192908490036100e357610085610350565b83156100cd5750505f54826bffffffffffffffffffffffff60a01b8216175f55167f8be0079c531659141344cd1fd0a4f28419497f9722a3daafe3b4186f6b6457e05f80a380f35b51631e4fbdf760e01b8152908101849052602490fd5b5f80fd5b8280fd5b5082346101595780600319360112610159575080519080820182811067ffffffffffffffff821117610146576101429350815260058252640352e302e360dc1b602083015251918291602083526020830190610312565b0390f35b604184634e487b7160e01b5f525260245ffd5b80fd5b5060603660031901126100e3576001600160a01b03823581811693908490036100e35760249182359081168091036100e35767ffffffffffffffff906044358281116100e357366023820112156100e3578084013583811161028257865191601f8201601f19908116603f0116830185811184821017610270578852818352368783830101116100e357815f92886020930183860137830101526101fe610350565b863b156100e357610230965f92875180998194829363278f794360e11b8452898401528a8a8401526044830190610312565b039134905af1801561026657610244578580f35b909192938095501161025557505052005b604190634e487b7160e01b5f52525ffd5b84513d5f823e3d90fd5b87604188634e487b7160e01b5f52525ffd5b85604186634e487b7160e01b5f52525ffd5b50346100e3575f3660031901126100e3575f5490516001600160a01b039091168152602090f35b346100e3575f3660031901126100e3576102d3610350565b5f80546001600160a01b0319811682556001600160a01b03167f8be0079c531659141344cd1fd0a4f28419497f9722a3daafe3b4186f6b6457e08280a3005b91908251928382525f5b84811061033c575050825f602080949584010152601f8019910116010190565b60208183018101518483018201520161031c565b5f546001600160a01b0316330361036357565b60405163118cdaa760e01b8152336004820152602490fdfea26469706673582212202992a71449476404159c12582e1f3d5c014ae92bc1369e2e03b37152567a3c7d64736f6c63430008180033000000000000000000000000092ed1e0845f6817e24316a730e98ec074e5f017000000000000000000000000ff6bdef4fb646ee44e29fe8fc0862b02f0ba8a33000000000000000000000000000000000000000000000000000000000000006000000000000000000000000000000000000000000000000000000000000001048f15b414000000000000000000000000000000000000000000000000000000000000008000000000000000000000000000000000000000000000000000000000000000c000000000000000000000000035477e7a3400851f74a60bd8dc14201c742b2a7a0000000000000000000000004796c635cee0128259db6517853a97415dd8d35c000000000000000000000000000000000000000000000000000000000000000a46617374205969656c64000000000000000000000000000000000000000000000000000000000000000000000000000000000000000000000000000000000002665900000000000000000000000000000000000000000000000000000000000000000000000000000000000000000000000000000000000000000000"
        },
        {
          "transactionType": "CREATE",
          "contractName": "ProxyAdmin",
          "address": "0x1f893d5476469bb376d59da48a908c6660ec33a9",
          "initCode": "0x6080346100b957601f61048338819003918201601f19168301916001600160401b038311848410176100bd578084926020946040528339810103126100b957516001600160a01b0390818116908190036100b95780156100a1575f80546001600160a01b03198116831782556040519316907f8be0079c531659141344cd1fd0a4f28419497f9722a3daafe3b4186f6b6457e09080a36103b190816100d28239f35b604051631e4fbdf760e01b81525f6004820152602490fd5b5f80fd5b634e487b7160e01b5f52604160045260245ffdfe604060808152600480361015610013575f80fd5b5f915f3560e01c8063715018a6146102bb5780638da5cb5b146102945780639623609d1461015c578063ad3cb1cc146100eb5763f2fde38b14610054575f80fd5b346100e75760203660031901126100e7576001600160a01b038235818116939192908490036100e357610085610350565b83156100cd5750505f54826bffffffffffffffffffffffff60a01b8216175f55167f8be0079c531659141344cd1fd0a4f28419497f9722a3daafe3b4186f6b6457e05f80a380f35b51631e4fbdf760e01b8152908101849052602490fd5b5f80fd5b8280fd5b5082346101595780600319360112610159575080519080820182811067ffffffffffffffff821117610146576101429350815260058252640352e302e360dc1b602083015251918291602083526020830190610312565b0390f35b604184634e487b7160e01b5f525260245ffd5b80fd5b5060603660031901126100e3576001600160a01b03823581811693908490036100e35760249182359081168091036100e35767ffffffffffffffff906044358281116100e357366023820112156100e3578084013583811161028257865191601f8201601f19908116603f0116830185811184821017610270578852818352368783830101116100e357815f92886020930183860137830101526101fe610350565b863b156100e357610230965f92875180998194829363278f794360e11b8452898401528a8a8401526044830190610312565b039134905af1801561026657610244578580f35b909192938095501161025557505052005b604190634e487b7160e01b5f52525ffd5b84513d5f823e3d90fd5b87604188634e487b7160e01b5f52525ffd5b85604186634e487b7160e01b5f52525ffd5b50346100e3575f3660031901126100e3575f5490516001600160a01b039091168152602090f35b346100e3575f3660031901126100e3576102d3610350565b5f80546001600160a01b0319811682556001600160a01b03167f8be0079c531659141344cd1fd0a4f28419497f9722a3daafe3b4186f6b6457e08280a3005b91908251928382525f5b84811061033c575050825f602080949584010152601f8019910116010190565b60208183018101518483018201520161031c565b5f546001600160a01b0316330361036357565b60405163118cdaa760e01b8152336004820152602490fdfea26469706673582212202992a71449476404159c12582e1f3d5c014ae92bc1369e2e03b37152567a3c7d64736f6c63430008180033000000000000000000000000ff6bdef4fb646ee44e29fe8fc0862b02f0ba8a33"
        }
      ],
      "isFixedGasLimit": false
    },
    {
      "hash": "0x0403ba8ab46a9e0258c763d53674534ebb997f131873a37650a8f627bedc17fe",
      "transactionType": "CALL",
      "contractName": "TransparentUpgradeableProxy",
      "contractAddress": "0x17c152432d066cce7599fb3612c4cfbf58555977",
      "function": null,
      "arguments": null,
      "transaction": {
        "from": "0xff6bdef4fb646ee44e29fe8fc0862b02f0ba8a33",
        "to": "0x17c152432d066cce7599fb3612c4cfbf58555977",
        "gas": "0x2ad19",
        "value": "0x0",
        "input": "0x666033e600000000000000000000000032c344dc9713d904442d0e5b0d2b7994e52b0d4e000000000000000000000000000000000000000000000000000000000000000000000000000000000000000000000000000000000000000000000000000232800000000000000000000000000000000000000000000000000000000000000000",
        "nonce": "0x11",
        "chainId": "0x14a34"
      },
      "additionalContracts": [],
      "isFixedGasLimit": false
    },
    {
      "hash": "0x6ebacc5a2462c2fed163448d242c0364714a5943f1919f7924d7bda9631cb929",
      "transactionType": "CALL",
      "contractName": "MockUSDC",
      "contractAddress": "0x32c344dc9713d904442d0e5b0d2b7994e52b0d4e",
      "function": "approve(address,uint256)",
      "arguments": [
        "0x17c152432D066ccE7599fB3612c4CFBf58555977",
        "115792089237316195423570985008687907853269984665640564039457584007913129639935"
      ],
      "transaction": {
        "from": "0xff6bdef4fb646ee44e29fe8fc0862b02f0ba8a33",
        "to": "0x32c344dc9713d904442d0e5b0d2b7994e52b0d4e",
        "gas": "0x10868",
        "value": "0x0",
        "input": "0x095ea7b300000000000000000000000017c152432d066cce7599fb3612c4cfbf58555977ffffffffffffffffffffffffffffffffffffffffffffffffffffffffffffffff",
        "nonce": "0x12",
        "chainId": "0x14a34"
      },
      "additionalContracts": [],
      "isFixedGasLimit": false
    },
    {
      "hash": "0xd14e7d547efba1144e7eb86c18a4faeac33658040f73f4e8427ad4c7ba9b4cc8",
      "transactionType": "CALL",
      "contractName": "TransparentUpgradeableProxy",
      "contractAddress": "0x17c152432d066cce7599fb3612c4cfbf58555977",
      "function": null,
      "arguments": null,
      "transaction": {
        "from": "0xff6bdef4fb646ee44e29fe8fc0862b02f0ba8a33",
        "to": "0x17c152432d066cce7599fb3612c4cfbf58555977",
        "gas": "0x6479a",
        "value": "0x0",
        "input": "0xcce7ec1300000000000000000000000032c344dc9713d904442d0e5b0d2b7994e52b0d4e0000000000000000000000000000000000000000000000000000000000e4e1c0",
        "nonce": "0x13",
        "chainId": "0x14a34"
      },
      "additionalContracts": [],
      "isFixedGasLimit": false
    },
    {
      "hash": "0xb88567ed9aba1d7bb8045268da00eba3bbd27b66f4a75aedc142ea5673ad5155",
      "transactionType": "CALL",
      "contractName": "TransparentUpgradeableProxy",
      "contractAddress": "0x17c152432d066cce7599fb3612c4cfbf58555977",
      "function": null,
      "arguments": null,
      "transaction": {
        "from": "0xff6bdef4fb646ee44e29fe8fc0862b02f0ba8a33",
        "to": "0x17c152432d066cce7599fb3612c4cfbf58555977",
        "gas": "0x327d7",
        "value": "0x0",
        "input": "0x703dbfe40000000000000000000000000000000000000000000000000000000000000001",
        "nonce": "0x14",
        "chainId": "0x14a34"
      },
      "additionalContracts": [],
      "isFixedGasLimit": false
    },
    {
      "hash": "0xb7a068c1489c299abdea762e280ccdc694656eb96e19fb0239fe731852438de3",
      "transactionType": "CALL",
      "contractName": "TransparentUpgradeableProxy",
      "contractAddress": "0xe6c3182d62d331b0dea867c96fbdfe5f28c36710",
      "function": null,
      "arguments": null,
      "transaction": {
        "from": "0xff6bdef4fb646ee44e29fe8fc0862b02f0ba8a33",
        "to": "0xe6c3182d62d331b0dea867c96fbdfe5f28c36710",
        "gas": "0x11488",
        "value": "0x0",
        "input": "0x095ea7b300000000000000000000000035477e7a3400851f74a60bd8dc14201c742b2a7affffffffffffffffffffffffffffffffffffffffffffffffffffffffffffffff",
        "nonce": "0x15",
        "chainId": "0x14a34"
      },
      "additionalContracts": [],
      "isFixedGasLimit": false
    },
    {
      "hash": "0x992a1464ae885d723c7f0e892d3558bc70afc52e1d9b07d871242d5edc44994d",
      "transactionType": "CALL",
      "contractName": "TransparentUpgradeableProxy",
      "contractAddress": "0x35477e7a3400851f74a60bd8dc14201c742b2a7a",
      "function": null,
      "arguments": null,
      "transaction": {
        "from": "0xff6bdef4fb646ee44e29fe8fc0862b02f0ba8a33",
        "to": "0x35477e7a3400851f74a60bd8dc14201c742b2a7a",
        "gas": "0x6801b",
        "value": "0x0",
        "input": "0xa694fc3a000000000000000000000000000000000000000000000005a59a576f4730aaaa",
        "nonce": "0x16",
        "chainId": "0x14a34"
      },
      "additionalContracts": [],
      "isFixedGasLimit": false
    }
  ],
  "receipts": [
    {
      "status": "0x1",
      "cumulativeGasUsed": "0xaa87e1",
      "logs": [
        {
          "address": "0x17c152432d066cce7599fb3612c4cfbf58555977",
          "topics": [
            "0xbc7cd75a20ee27fd9adebab32041f755214dbc6bffa90cc0225b39da2e5c2d3b",
            "0x00000000000000000000000061afa5fdfb09b465dafc5b868e186dec832de945"
          ],
          "data": "0x",
          "blockHash": "0x89441b870e7f60557d4d3da3d3013cbf7c803e6cbe72d4b76196f89616a01605",
          "blockNumber": "0x2675921",
          "blockTimestamp": "0x69e21122",
          "transactionHash": "0xd14e7d547efba1144e7eb86c18a4faeac33658040f73f4e8427ad4c7ba9b4cc8",
          "transactionIndex": "0x10",
          "logIndex": "0xcd",
          "removed": false
        },
        {
          "address": "0x17c152432d066cce7599fb3612c4cfbf58555977",
          "topics": [
            "0xc7f505b2f371ae2175ee4913f4499e1f2633a7b5936321eed1cdaeb6115181d2"
          ],
          "data": "0x0000000000000000000000000000000000000000000000000000000000000001",
          "blockHash": "0x89441b870e7f60557d4d3da3d3013cbf7c803e6cbe72d4b76196f89616a01605",
          "blockNumber": "0x2675921",
          "blockTimestamp": "0x69e21122",
          "transactionHash": "0xd14e7d547efba1144e7eb86c18a4faeac33658040f73f4e8427ad4c7ba9b4cc8",
          "transactionIndex": "0x10",
          "logIndex": "0xce",
          "removed": false
        },
        {
          "address": "0x357ec444a4b2aca2981a06fd13e72916cb2c8edb",
          "topics": [
            "0x8be0079c531659141344cd1fd0a4f28419497f9722a3daafe3b4186f6b6457e0",
            "0x0000000000000000000000000000000000000000000000000000000000000000",
            "0x000000000000000000000000ff6bdef4fb646ee44e29fe8fc0862b02f0ba8a33"
          ],
          "data": "0x",
          "blockHash": "0x89441b870e7f60557d4d3da3d3013cbf7c803e6cbe72d4b76196f89616a01605",
          "blockNumber": "0x2675921",
          "blockTimestamp": "0x69e21122",
          "transactionHash": "0xd14e7d547efba1144e7eb86c18a4faeac33658040f73f4e8427ad4c7ba9b4cc8",
          "transactionIndex": "0x10",
          "logIndex": "0xcf",
          "removed": false
        },
        {
          "address": "0x17c152432d066cce7599fb3612c4cfbf58555977",
          "topics": [
            "0x7e644d79422f17c01e4894b5f4f588d331ebfa28653d42ae832dc59e38c9798f"
          ],
          "data": "0x0000000000000000000000000000000000000000000000000000000000000000000000000000000000000000357ec444a4b2aca2981a06fd13e72916cb2c8edb",
          "blockHash": "0x89441b870e7f60557d4d3da3d3013cbf7c803e6cbe72d4b76196f89616a01605",
          "blockNumber": "0x2675921",
          "blockTimestamp": "0x69e21122",
          "transactionHash": "0xd14e7d547efba1144e7eb86c18a4faeac33658040f73f4e8427ad4c7ba9b4cc8",
          "transactionIndex": "0x10",
          "logIndex": "0xd0",
          "removed": false
        },
        {
          "address": "0xe6c3182d62d331b0dea867c96fbdfe5f28c36710",
          "topics": [
            "0xbc7cd75a20ee27fd9adebab32041f755214dbc6bffa90cc0225b39da2e5c2d3b",
            "0x0000000000000000000000000dbe11ad9c2bf4126fe8d422e7374de47600a2ca"
          ],
          "data": "0x",
          "blockHash": "0x89441b870e7f60557d4d3da3d3013cbf7c803e6cbe72d4b76196f89616a01605",
          "blockNumber": "0x2675921",
          "blockTimestamp": "0x69e21122",
          "transactionHash": "0xd14e7d547efba1144e7eb86c18a4faeac33658040f73f4e8427ad4c7ba9b4cc8",
          "transactionIndex": "0x10",
          "logIndex": "0xd1",
          "removed": false
        },
        {
          "address": "0xe6c3182d62d331b0dea867c96fbdfe5f28c36710",
          "topics": [
            "0xc7f505b2f371ae2175ee4913f4499e1f2633a7b5936321eed1cdaeb6115181d2"
          ],
          "data": "0x0000000000000000000000000000000000000000000000000000000000000001",
          "blockHash": "0x89441b870e7f60557d4d3da3d3013cbf7c803e6cbe72d4b76196f89616a01605",
          "blockNumber": "0x2675921",
          "blockTimestamp": "0x69e21122",
          "transactionHash": "0xd14e7d547efba1144e7eb86c18a4faeac33658040f73f4e8427ad4c7ba9b4cc8",
          "transactionIndex": "0x10",
          "logIndex": "0xd2",
          "removed": false
        },
        {
          "address": "0x70975c0e453e0a2b77475b85dc5fabd691ec2159",
          "topics": [
            "0x8be0079c531659141344cd1fd0a4f28419497f9722a3daafe3b4186f6b6457e0",
            "0x0000000000000000000000000000000000000000000000000000000000000000",
            "0x000000000000000000000000ff6bdef4fb646ee44e29fe8fc0862b02f0ba8a33"
          ],
          "data": "0x",
          "blockHash": "0x89441b870e7f60557d4d3da3d3013cbf7c803e6cbe72d4b76196f89616a01605",
          "blockNumber": "0x2675921",
          "blockTimestamp": "0x69e21122",
          "transactionHash": "0xd14e7d547efba1144e7eb86c18a4faeac33658040f73f4e8427ad4c7ba9b4cc8",
          "transactionIndex": "0x10",
          "logIndex": "0xd3",
          "removed": false
        },
        {
          "address": "0xe6c3182d62d331b0dea867c96fbdfe5f28c36710",
          "topics": [
            "0x7e644d79422f17c01e4894b5f4f588d331ebfa28653d42ae832dc59e38c9798f"
          ],
          "data": "0x000000000000000000000000000000000000000000000000000000000000000000000000000000000000000070975c0e453e0a2b77475b85dc5fabd691ec2159",
          "blockHash": "0x89441b870e7f60557d4d3da3d3013cbf7c803e6cbe72d4b76196f89616a01605",
          "blockNumber": "0x2675921",
          "blockTimestamp": "0x69e21122",
          "transactionHash": "0xd14e7d547efba1144e7eb86c18a4faeac33658040f73f4e8427ad4c7ba9b4cc8",
          "transactionIndex": "0x10",
          "logIndex": "0xd4",
          "removed": false
        },
        {
          "address": "0x35477e7a3400851f74a60bd8dc14201c742b2a7a",
          "topics": [
            "0xbc7cd75a20ee27fd9adebab32041f755214dbc6bffa90cc0225b39da2e5c2d3b",
            "0x00000000000000000000000081c4e22ec9198f2983217c483e4027cf49e940db"
          ],
          "data": "0x",
          "blockHash": "0x89441b870e7f60557d4d3da3d3013cbf7c803e6cbe72d4b76196f89616a01605",
          "blockNumber": "0x2675921",
          "blockTimestamp": "0x69e21122",
          "transactionHash": "0xd14e7d547efba1144e7eb86c18a4faeac33658040f73f4e8427ad4c7ba9b4cc8",
          "transactionIndex": "0x10",
          "logIndex": "0xd5",
          "removed": false
        },
        {
          "address": "0x35477e7a3400851f74a60bd8dc14201c742b2a7a",
          "topics": [
            "0xc7f505b2f371ae2175ee4913f4499e1f2633a7b5936321eed1cdaeb6115181d2"
          ],
          "data": "0x0000000000000000000000000000000000000000000000000000000000000001",
          "blockHash": "0x89441b870e7f60557d4d3da3d3013cbf7c803e6cbe72d4b76196f89616a01605",
          "blockNumber": "0x2675921",
          "blockTimestamp": "0x69e21122",
          "transactionHash": "0xd14e7d547efba1144e7eb86c18a4faeac33658040f73f4e8427ad4c7ba9b4cc8",
          "transactionIndex": "0x10",
          "logIndex": "0xd6",
          "removed": false
        },
        {
          "address": "0x91adb8d79bfd8b2cc0b4f0a062215ce8d58eb0ad",
          "topics": [
            "0x8be0079c531659141344cd1fd0a4f28419497f9722a3daafe3b4186f6b6457e0",
            "0x0000000000000000000000000000000000000000000000000000000000000000",
            "0x000000000000000000000000ff6bdef4fb646ee44e29fe8fc0862b02f0ba8a33"
          ],
          "data": "0x",
          "blockHash": "0x89441b870e7f60557d4d3da3d3013cbf7c803e6cbe72d4b76196f89616a01605",
          "blockNumber": "0x2675921",
          "blockTimestamp": "0x69e21122",
          "transactionHash": "0xd14e7d547efba1144e7eb86c18a4faeac33658040f73f4e8427ad4c7ba9b4cc8",
          "transactionIndex": "0x10",
          "logIndex": "0xd7",
          "removed": false
        },
        {
          "address": "0x35477e7a3400851f74a60bd8dc14201c742b2a7a",
          "topics": [
            "0x7e644d79422f17c01e4894b5f4f588d331ebfa28653d42ae832dc59e38c9798f"
          ],
          "data": "0x000000000000000000000000000000000000000000000000000000000000000000000000000000000000000091adb8d79bfd8b2cc0b4f0a062215ce8d58eb0ad",
          "blockHash": "0x89441b870e7f60557d4d3da3d3013cbf7c803e6cbe72d4b76196f89616a01605",
          "blockNumber": "0x2675921",
          "blockTimestamp": "0x69e21122",
          "transactionHash": "0xd14e7d547efba1144e7eb86c18a4faeac33658040f73f4e8427ad4c7ba9b4cc8",
          "transactionIndex": "0x10",
          "logIndex": "0xd8",
          "removed": false
        },
        {
          "address": "0x4796c635cee0128259db6517853a97415dd8d35c",
          "topics": [
            "0xbc7cd75a20ee27fd9adebab32041f755214dbc6bffa90cc0225b39da2e5c2d3b",
            "0x0000000000000000000000008d434e38dd91d9b738f8803dbd18b815720bedad"
          ],
          "data": "0x",
          "blockHash": "0x89441b870e7f60557d4d3da3d3013cbf7c803e6cbe72d4b76196f89616a01605",
          "blockNumber": "0x2675921",
          "blockTimestamp": "0x69e21122",
          "transactionHash": "0xd14e7d547efba1144e7eb86c18a4faeac33658040f73f4e8427ad4c7ba9b4cc8",
          "transactionIndex": "0x10",
          "logIndex": "0xd9",
          "removed": false
        },
        {
          "address": "0x4796c635cee0128259db6517853a97415dd8d35c",
          "topics": [
            "0xc7f505b2f371ae2175ee4913f4499e1f2633a7b5936321eed1cdaeb6115181d2"
          ],
          "data": "0x0000000000000000000000000000000000000000000000000000000000000001",
          "blockHash": "0x89441b870e7f60557d4d3da3d3013cbf7c803e6cbe72d4b76196f89616a01605",
          "blockNumber": "0x2675921",
          "blockTimestamp": "0x69e21122",
          "transactionHash": "0xd14e7d547efba1144e7eb86c18a4faeac33658040f73f4e8427ad4c7ba9b4cc8",
          "transactionIndex": "0x10",
          "logIndex": "0xda",
          "removed": false
        },
        {
          "address": "0x539776ba8aebd98f1fd5dc29a756503cd364f8c8",
          "topics": [
            "0x8be0079c531659141344cd1fd0a4f28419497f9722a3daafe3b4186f6b6457e0",
            "0x0000000000000000000000000000000000000000000000000000000000000000",
            "0x000000000000000000000000ff6bdef4fb646ee44e29fe8fc0862b02f0ba8a33"
          ],
          "data": "0x",
          "blockHash": "0x89441b870e7f60557d4d3da3d3013cbf7c803e6cbe72d4b76196f89616a01605",
          "blockNumber": "0x2675921",
          "blockTimestamp": "0x69e21122",
          "transactionHash": "0xd14e7d547efba1144e7eb86c18a4faeac33658040f73f4e8427ad4c7ba9b4cc8",
          "transactionIndex": "0x10",
          "logIndex": "0xdb",
          "removed": false
        },
        {
          "address": "0x4796c635cee0128259db6517853a97415dd8d35c",
          "topics": [
            "0x7e644d79422f17c01e4894b5f4f588d331ebfa28653d42ae832dc59e38c9798f"
          ],
          "data": "0x0000000000000000000000000000000000000000000000000000000000000000000000000000000000000000539776ba8aebd98f1fd5dc29a756503cd364f8c8",
          "blockHash": "0x89441b870e7f60557d4d3da3d3013cbf7c803e6cbe72d4b76196f89616a01605",
          "blockNumber": "0x2675921",
          "blockTimestamp": "0x69e21122",
          "transactionHash": "0xd14e7d547efba1144e7eb86c18a4faeac33658040f73f4e8427ad4c7ba9b4cc8",
          "transactionIndex": "0x10",
          "logIndex": "0xdc",
          "removed": false
        },
        {
          "address": "0x42ddf5c40ca5da832b29ac64316aaaed1e99f2fd",
          "topics": [
            "0xbc7cd75a20ee27fd9adebab32041f755214dbc6bffa90cc0225b39da2e5c2d3b",
            "0x000000000000000000000000092ed1e0845f6817e24316a730e98ec074e5f017"
          ],
          "data": "0x",
          "blockHash": "0x89441b870e7f60557d4d3da3d3013cbf7c803e6cbe72d4b76196f89616a01605",
          "blockNumber": "0x2675921",
          "blockTimestamp": "0x69e21122",
          "transactionHash": "0xd14e7d547efba1144e7eb86c18a4faeac33658040f73f4e8427ad4c7ba9b4cc8",
          "transactionIndex": "0x10",
          "logIndex": "0xdd",
          "removed": false
        },
        {
          "address": "0x42ddf5c40ca5da832b29ac64316aaaed1e99f2fd",
          "topics": [
            "0xc7f505b2f371ae2175ee4913f4499e1f2633a7b5936321eed1cdaeb6115181d2"
          ],
          "data": "0x0000000000000000000000000000000000000000000000000000000000000001",
          "blockHash": "0x89441b870e7f60557d4d3da3d3013cbf7c803e6cbe72d4b76196f89616a01605",
          "blockNumber": "0x2675921",
          "blockTimestamp": "0x69e21122",
          "transactionHash": "0xd14e7d547efba1144e7eb86c18a4faeac33658040f73f4e8427ad4c7ba9b4cc8",
          "transactionIndex": "0x10",
          "logIndex": "0xde",
          "removed": false
        },
        {
          "address": "0x1f893d5476469bb376d59da48a908c6660ec33a9",
          "topics": [
            "0x8be0079c531659141344cd1fd0a4f28419497f9722a3daafe3b4186f6b6457e0",
            "0x0000000000000000000000000000000000000000000000000000000000000000",
            "0x000000000000000000000000ff6bdef4fb646ee44e29fe8fc0862b02f0ba8a33"
          ],
          "data": "0x",
          "blockHash": "0x89441b870e7f60557d4d3da3d3013cbf7c803e6cbe72d4b76196f89616a01605",
          "blockNumber": "0x2675921",
          "blockTimestamp": "0x69e21122",
          "transactionHash": "0xd14e7d547efba1144e7eb86c18a4faeac33658040f73f4e8427ad4c7ba9b4cc8",
          "transactionIndex": "0x10",
          "logIndex": "0xdf",
          "removed": false
        },
        {
          "address": "0x42ddf5c40ca5da832b29ac64316aaaed1e99f2fd",
          "topics": [
            "0x7e644d79422f17c01e4894b5f4f588d331ebfa28653d42ae832dc59e38c9798f"
          ],
          "data": "0x00000000000000000000000000000000000000000000000000000000000000000000000000000000000000001f893d5476469bb376d59da48a908c6660ec33a9",
          "blockHash": "0x89441b870e7f60557d4d3da3d3013cbf7c803e6cbe72d4b76196f89616a01605",
          "blockNumber": "0x2675921",
          "blockTimestamp": "0x69e21122",
          "transactionHash": "0xd14e7d547efba1144e7eb86c18a4faeac33658040f73f4e8427ad4c7ba9b4cc8",
          "transactionIndex": "0x10",
          "logIndex": "0xe0",
          "removed": false
        },
        {
          "address": "0x3fa41528a22645bef478e9ebae83981c02e98f74",
          "topics": [
            "0xdaba71fb20c7def36f77061e2eb9b33ce4c86c9777d97c848deb399d13dcca8b",
            "0x00000000000000000000000017c152432d066cce7599fb3612c4cfbf58555977",
            "0x000000000000000000000000ff6bdef4fb646ee44e29fe8fc0862b02f0ba8a33"
          ],
          "data": "0x000000000000000000000000e6c3182d62d331b0dea867c96fbdfe5f28c3671000000000000000000000000042ddf5c40ca5da832b29ac64316aaaed1e99f2fd00000000000000000000000035477e7a3400851f74a60bd8dc14201c742b2a7a0000000000000000000000004796c635cee0128259db6517853a97415dd8d35c00000000000000000000000000000000000000000000000001ff973cafa800000000000000000000000000000000000000000000000000056bc75e2d6310000000000000000000000000000000000000000000000000003635c9adc5dea000000000000000000000000000000000000000000000000000000000000069e362940000000000000000000000000000000000000000000000000000000000000e100000000000000000000000000000000000000000000000000de0b6b3a76400000000000000000000000000000000000000000000000000000000000069e21122",
          "blockHash": "0x89441b870e7f60557d4d3da3d3013cbf7c803e6cbe72d4b76196f89616a01605",
          "blockNumber": "0x2675921",
          "blockTimestamp": "0x69e21122",
          "transactionHash": "0xd14e7d547efba1144e7eb86c18a4faeac33658040f73f4e8427ad4c7ba9b4cc8",
          "transactionIndex": "0x10",
          "logIndex": "0xe1",
          "removed": false
        }
      ],
      "logsBloom": "0x00080000204000000010100000000000c00800000000000000808000000000000000040000200000000000000001000000000000400000008000000000040000000000000400000000010000000002a0000100000000000110000000800000020002000002001000010000020000080000000084040000000000100000000040000000000000000000080000000000008000000000008008000000000080000008000000000020000004c800000000400000000000000000000008000000000100000020088000008000000000010000000000008404200800000000010020400000000000000002000000800000000000000000000020000000000000100140",
      "type": "0x2",
      "transactionHash": "0xd14e7d547efba1144e7eb86c18a4faeac33658040f73f4e8427ad4c7ba9b4cc8",
      "transactionIndex": "0x10",
      "blockHash": "0x89441b870e7f60557d4d3da3d3013cbf7c803e6cbe72d4b76196f89616a01605",
      "blockNumber": "0x2675921",
      "gasUsed": "0x36c516",
      "effectiveGasPrice": "0x5b8d80",
      "blobGasUsed": "0x7e9c",
      "from": "0xff6bdef4fb646ee44e29fe8fc0862b02f0ba8a33",
      "to": "0x3fa41528a22645bef478e9ebae83981c02e98f74",
      "contractAddress": null,
      "daFootprintGasScalar": "0x94",
      "l1BaseFeeScalar": "0x44d",
      "l1BlobBaseFee": "0xf851f3",
      "l1BlobBaseFeeScalar": "0xa118b",
      "l1Fee": "0xc5b47b70",
      "l1GasPrice": "0xedb6c88",
      "l1GasUsed": "0xdb3"
    },
    {
      "status": "0x1",
      "cumulativeGasUsed": "0xac77e1",
      "logs": [
        {
          "address": "0x17c152432d066cce7599fb3612c4cfbf58555977",
          "topics": [
            "0x1809803edc7f4d0a1c400a8f95cac12ace860d60e118b6c9b491082a623963df",
            "0x00000000000000000000000032c344dc9713d904442d0e5b0d2b7994e52b0d4e"
          ],
          "data": "0x00000000000000000000000000000000000000000000000000000000000000800000000000000000000000000000000000000000000000000000000000000000000000000000000000000000000000000000000000000000000000000002328000000000000000000000000000000000000000000000000000000000000000000000000000000000000000000000000000000000000000000000000000000000",
          "blockHash": "0x89441b870e7f60557d4d3da3d3013cbf7c803e6cbe72d4b76196f89616a01605",
          "blockNumber": "0x2675921",
          "blockTimestamp": "0x69e21122",
          "transactionHash": "0x6ebacc5a2462c2fed163448d242c0364714a5943f1919f7924d7bda9631cb929",
          "transactionIndex": "0x11",
          "logIndex": "0xe2",
          "removed": false
        }
      ],
      "logsBloom": "0x00000000000000000000000000000000000000000000000400000000000000000000000000000000000000000000000000000000000000008000000000000000000000000000000000000000000000000000000000000000000000000000000000020000000000020000040000000000000000000000000000000000000000000000000000000000000000000000000000000000000000000000000000000000000000000000200000000000040000000000000000000000000000000000000000000000008000000000000000000000000000000000000000000000000000000000000000000000000000000000000000000000000002000000000000000000",
      "type": "0x2",
      "transactionHash": "0x6ebacc5a2462c2fed163448d242c0364714a5943f1919f7924d7bda9631cb929",
      "transactionIndex": "0x11",
      "blockHash": "0x89441b870e7f60557d4d3da3d3013cbf7c803e6cbe72d4b76196f89616a01605",
      "blockNumber": "0x2675921",
      "gasUsed": "0x1f000",
      "effectiveGasPrice": "0x5b8d80",
      "blobGasUsed": "0x39d0",
      "from": "0xff6bdef4fb646ee44e29fe8fc0862b02f0ba8a33",
      "to": "0x17c152432d066cce7599fb3612c4cfbf58555977",
      "contractAddress": null,
      "daFootprintGasScalar": "0x94",
      "l1BaseFeeScalar": "0x44d",
      "l1BlobBaseFee": "0xf851f3",
      "l1BlobBaseFeeScalar": "0xa118b",
      "l1Fee": "0x5a2d8a08",
      "l1GasPrice": "0xedb6c88",
      "l1GasUsed": "0x640"
    },
    {
      "status": "0x1",
      "cumulativeGasUsed": "0xad2cac",
      "logs": [
        {
          "address": "0x32c344dc9713d904442d0e5b0d2b7994e52b0d4e",
          "topics": [
            "0x8c5be1e5ebec7d5bd14f71427d1e84f3dd0314c0f7b2291e5b200ac8c7c3b925",
            "0x000000000000000000000000ff6bdef4fb646ee44e29fe8fc0862b02f0ba8a33",
            "0x00000000000000000000000017c152432d066cce7599fb3612c4cfbf58555977"
          ],
          "data": "0xffffffffffffffffffffffffffffffffffffffffffffffffffffffffffffffff",
          "blockHash": "0x89441b870e7f60557d4d3da3d3013cbf7c803e6cbe72d4b76196f89616a01605",
          "blockNumber": "0x2675921",
          "blockTimestamp": "0x69e21122",
          "transactionHash": "0x992a1464ae885d723c7f0e892d3558bc70afc52e1d9b07d871242d5edc44994d",
          "transactionIndex": "0x12",
          "logIndex": "0xe3",
          "removed": false
        }
      ],
      "logsBloom": "0x00000000000000000000100000000000000800000000000000000000000000000000000000000000000000000001000000000000000000000000000000200000000000000000000000000000000000000000000000000001000000000000000000000000000000000000000000000000010000000000000000000000000000000000000000000000000000000000000000000000000000000001000000000000020000000000000000008000000000000000000000000000000000000000000000000000040000000000000000010000000000000000000000000000000000000010000000000000000000000000000000000000000000000000000000000000",
      "type": "0x2",
      "transactionHash": "0x992a1464ae885d723c7f0e892d3558bc70afc52e1d9b07d871242d5edc44994d",
      "transactionIndex": "0x12",
      "blockHash": "0x89441b870e7f60557d4d3da3d3013cbf7c803e6cbe72d4b76196f89616a01605",
      "blockNumber": "0x2675921",
      "gasUsed": "0xb4cb",
      "effectiveGasPrice": "0x5b8d80",
      "blobGasUsed": "0x39d0",
      "from": "0xff6bdef4fb646ee44e29fe8fc0862b02f0ba8a33",
      "to": "0x32c344dc9713d904442d0e5b0d2b7994e52b0d4e",
      "contractAddress": null,
      "daFootprintGasScalar": "0x94",
      "l1BaseFeeScalar": "0x44d",
      "l1BlobBaseFee": "0xf851f3",
      "l1BlobBaseFeeScalar": "0xa118b",
      "l1Fee": "0x5a2d8a08",
      "l1GasPrice": "0xedb6c88",
      "l1GasUsed": "0x640"
    },
    {
      "status": "0x1",
      "cumulativeGasUsed": "0xb1b88c",
      "logs": [
        {
          "address": "0x32c344dc9713d904442d0e5b0d2b7994e52b0d4e",
          "topics": [
            "0xddf252ad1be2c89b69c2b068fc378daa952ba7f163c4a11628f55a4df523b3ef",
            "0x000000000000000000000000ff6bdef4fb646ee44e29fe8fc0862b02f0ba8a33",
            "0x00000000000000000000000017c152432d066cce7599fb3612c4cfbf58555977"
          ],
          "data": "0x0000000000000000000000000000000000000000000000000000000000e4e1c0",
          "blockHash": "0x89441b870e7f60557d4d3da3d3013cbf7c803e6cbe72d4b76196f89616a01605",
          "blockNumber": "0x2675921",
          "blockTimestamp": "0x69e21122",
          "transactionHash": "0xb88567ed9aba1d7bb8045268da00eba3bbd27b66f4a75aedc142ea5673ad5155",
          "transactionIndex": "0x13",
          "logIndex": "0xe4",
          "removed": false
        },
        {
          "address": "0xe6c3182d62d331b0dea867c96fbdfe5f28c36710",
          "topics": [
            "0xddf252ad1be2c89b69c2b068fc378daa952ba7f163c4a11628f55a4df523b3ef",
            "0x0000000000000000000000000000000000000000000000000000000000000000",
            "0x000000000000000000000000ff6bdef4fb646ee44e29fe8fc0862b02f0ba8a33"
          ],
          "data": "0x000000000000000000000000000000000000000000000005a59a576f4730aaaa",
          "blockHash": "0x89441b870e7f60557d4d3da3d3013cbf7c803e6cbe72d4b76196f89616a01605",
          "blockNumber": "0x2675921",
          "blockTimestamp": "0x69e21122",
          "transactionHash": "0xb88567ed9aba1d7bb8045268da00eba3bbd27b66f4a75aedc142ea5673ad5155",
          "transactionIndex": "0x13",
          "logIndex": "0xe5",
          "removed": false
        },
        {
          "address": "0x17c152432d066cce7599fb3612c4cfbf58555977",
          "topics": [
            "0x0b9c8304b83df3d2827b952a8e4c87faef3556dddcde57a47cb80f0c755606a5",
            "0x000000000000000000000000ff6bdef4fb646ee44e29fe8fc0862b02f0ba8a33",
            "0x00000000000000000000000032c344dc9713d904442d0e5b0d2b7994e52b0d4e"
          ],
          "data": "0x0000000000000000000000000000000000000000000000000000000000e4e1c0000000000000000000000000000000000000000000000005a59a576f4730aaaa0000000000000000000000000000000000000000000000000000000000000000000000000000000000000000000000000000000000000005a59a576f4730aaaa",
          "blockHash": "0x89441b870e7f60557d4d3da3d3013cbf7c803e6cbe72d4b76196f89616a01605",
          "blockNumber": "0x2675921",
          "blockTimestamp": "0x69e21122",
          "transactionHash": "0xb88567ed9aba1d7bb8045268da00eba3bbd27b66f4a75aedc142ea5673ad5155",
          "transactionIndex": "0x13",
          "logIndex": "0xe6",
          "removed": false
        },
        {
          "address": "0x32c344dc9713d904442d0e5b0d2b7994e52b0d4e",
          "topics": [
            "0xddf252ad1be2c89b69c2b068fc378daa952ba7f163c4a11628f55a4df523b3ef",
            "0x00000000000000000000000017c152432d066cce7599fb3612c4cfbf58555977",
            "0x000000000000000000000000ff6bdef4fb646ee44e29fe8fc0862b02f0ba8a33"
          ],
          "data": "0x00000000000000000000000000000000000000000000000000000000000493e0",
          "blockHash": "0x89441b870e7f60557d4d3da3d3013cbf7c803e6cbe72d4b76196f89616a01605",
          "blockNumber": "0x2675921",
          "blockTimestamp": "0x69e21122",
          "transactionHash": "0xb88567ed9aba1d7bb8045268da00eba3bbd27b66f4a75aedc142ea5673ad5155",
          "transactionIndex": "0x13",
          "logIndex": "0xe7",
          "removed": false
        },
        {
          "address": "0x32c344dc9713d904442d0e5b0d2b7994e52b0d4e",
          "topics": [
            "0xddf252ad1be2c89b69c2b068fc378daa952ba7f163c4a11628f55a4df523b3ef",
            "0x00000000000000000000000017c152432d066cce7599fb3612c4cfbf58555977",
            "0x000000000000000000000000ff6bdef4fb646ee44e29fe8fc0862b02f0ba8a33"
          ],
          "data": "0x0000000000000000000000000000000000000000000000000000000000e04de0",
          "blockHash": "0x89441b870e7f60557d4d3da3d3013cbf7c803e6cbe72d4b76196f89616a01605",
          "blockNumber": "0x2675921",
          "blockTimestamp": "0x69e21122",
          "transactionHash": "0xb88567ed9aba1d7bb8045268da00eba3bbd27b66f4a75aedc142ea5673ad5155",
          "transactionIndex": "0x13",
          "logIndex": "0xe8",
          "removed": false
        },
        {
          "address": "0x17c152432d066cce7599fb3612c4cfbf58555977",
          "topics": [
            "0x120bfc1de29621f7872a5b3129b6524ceb18df8c689a37496b8ee4007235dbc8"
          ],
          "data": "0x00000000000000000000000000000000000000000000000000000000000000000000000000000000000000000000000000000000000000000000000000000001",
          "blockHash": "0x89441b870e7f60557d4d3da3d3013cbf7c803e6cbe72d4b76196f89616a01605",
          "blockNumber": "0x2675921",
          "blockTimestamp": "0x69e21122",
          "transactionHash": "0xb88567ed9aba1d7bb8045268da00eba3bbd27b66f4a75aedc142ea5673ad5155",
          "transactionIndex": "0x13",
          "logIndex": "0xe9",
          "removed": false
        },
        {
          "address": "0x17c152432d066cce7599fb3612c4cfbf58555977",
          "topics": [
            "0xccb4518c7bb9cdee893961401854c0ac29fad869f3338dc3087c9215fa4ab9e1"
          ],
          "data": "0x0000000000000000000000000000000000000000000000000000000000000000000000000000000000000000000000000000000000000005a59a576f4730aaaa",
          "blockHash": "0x89441b870e7f60557d4d3da3d3013cbf7c803e6cbe72d4b76196f89616a01605",
          "blockNumber": "0x2675921",
          "blockTimestamp": "0x69e21122",
          "transactionHash": "0xb88567ed9aba1d7bb8045268da00eba3bbd27b66f4a75aedc142ea5673ad5155",
          "transactionIndex": "0x13",
          "logIndex": "0xea",
          "removed": false
        }
      ],
      "logsBloom": "0x00000000000000000010100000000000000800000000400000000000000008000000000000000000000000000001000000000000000000000000000000000000000000000000000000000008000010000000000000800001000000000000000000020000020000020000040000000800010000000000000000000010000000000000000000000000000000000000000000000000000000000001000000000000080000000000200000108020040000000000000000000000000000000000000000400002048000000000000000012000000000000000004800000000000020000000000000000000000000000000000000000000000000000000000000000000",
      "type": "0x2",
      "transactionHash": "0xb88567ed9aba1d7bb8045268da00eba3bbd27b66f4a75aedc142ea5673ad5155",
      "transactionIndex": "0x13",
      "blockHash": "0x89441b870e7f60557d4d3da3d3013cbf7c803e6cbe72d4b76196f89616a01605",
      "blockNumber": "0x2675921",
      "gasUsed": "0x48be0",
      "effectiveGasPrice": "0x5b8d80",
      "blobGasUsed": "0x39d0",
      "from": "0xff6bdef4fb646ee44e29fe8fc0862b02f0ba8a33",
      "to": "0x17c152432d066cce7599fb3612c4cfbf58555977",
      "contractAddress": null,
      "daFootprintGasScalar": "0x94",
      "l1BaseFeeScalar": "0x44d",
      "l1BlobBaseFee": "0xf851f3",
      "l1BlobBaseFeeScalar": "0xa118b",
      "l1Fee": "0x5a2d8a08",
      "l1GasPrice": "0xedb6c88",
      "l1GasUsed": "0x640"
    },
    {
      "status": "0x1",
      "cumulativeGasUsed": "0xb4016a",
      "logs": [
        {
          "address": "0x35477e7a3400851f74a60bd8dc14201c742b2a7a",
          "topics": [
            "0x8d160eff266df162107c57259a1f1e71787bd4ab800800826bd189d6f2f3e83c",
            "0x0000000000000000000000000000000000000000000000000000000000000001"
          ],
          "data": "0x0000000000000000000000000000000000000000000000000000000069e21122",
          "blockHash": "0x89441b870e7f60557d4d3da3d3013cbf7c803e6cbe72d4b76196f89616a01605",
          "blockNumber": "0x2675921",
          "blockTimestamp": "0x69e21122",
          "transactionHash": "0x0403ba8ab46a9e0258c763d53674534ebb997f131873a37650a8f627bedc17fe",
          "transactionIndex": "0x14",
          "logIndex": "0xeb",
          "removed": false
        }
      ],
      "logsBloom": "0x00000000800000000000000000000000000000000000000000000000000000000000000000000000000000000000000000000000000000000000000000040000000000000000000000000000000000800000000000040000100000000000000000000000000000000000000000000000000000000000000000000000000000000000000000000000000000000000000000000000000000000000000000000000000000000000000000000000080000000000000000000000000000000000000000000000000000000000000000000000000000000000000000000000010040000000000200000000000000000000000000000000000000000000000000000000",
      "type": "0x2",
      "transactionHash": "0x0403ba8ab46a9e0258c763d53674534ebb997f131873a37650a8f627bedc17fe",
      "transactionIndex": "0x14",
      "blockHash": "0x89441b870e7f60557d4d3da3d3013cbf7c803e6cbe72d4b76196f89616a01605",
      "blockNumber": "0x2675921",
      "gasUsed": "0x248de",
      "effectiveGasPrice": "0x5b8d80",
      "blobGasUsed": "0x39d0",
      "from": "0xff6bdef4fb646ee44e29fe8fc0862b02f0ba8a33",
      "to": "0x17c152432d066cce7599fb3612c4cfbf58555977",
      "contractAddress": null,
      "daFootprintGasScalar": "0x94",
      "l1BaseFeeScalar": "0x44d",
      "l1BlobBaseFee": "0xf851f3",
      "l1BlobBaseFeeScalar": "0xa118b",
      "l1Fee": "0x5a2d8a08",
      "l1GasPrice": "0xedb6c88",
      "l1GasUsed": "0x640"
    },
    {
      "status": "0x1",
      "cumulativeGasUsed": "0xb4c99f",
      "logs": [
        {
          "address": "0xe6c3182d62d331b0dea867c96fbdfe5f28c36710",
          "topics": [
            "0x8c5be1e5ebec7d5bd14f71427d1e84f3dd0314c0f7b2291e5b200ac8c7c3b925",
            "0x000000000000000000000000ff6bdef4fb646ee44e29fe8fc0862b02f0ba8a33",
            "0x00000000000000000000000035477e7a3400851f74a60bd8dc14201c742b2a7a"
          ],
          "data": "0xffffffffffffffffffffffffffffffffffffffffffffffffffffffffffffffff",
          "blockHash": "0x89441b870e7f60557d4d3da3d3013cbf7c803e6cbe72d4b76196f89616a01605",
          "blockNumber": "0x2675921",
          "blockTimestamp": "0x69e21122",
          "transactionHash": "0xb7a068c1489c299abdea762e280ccdc694656eb96e19fb0239fe731852438de3",
          "transactionIndex": "0x15",
          "logIndex": "0xec",
          "removed": false
        }
      ],
      "logsBloom": "0x000000000000000000101000000000000000000000000000000000000000000000000000000000000010000000000000000000000000000000000000002000000000001000000000000000000000000000000000000000010000000000000000000000000000000000000000000000000000000000000000000000002000000000000000000000000000000000000000000000000000000000000000000000000a0000000000000000000000000000000000000000000000000000000000000000000000000000000000000000010000000000000000000800000000000000000010000000000000000000000000000000000000000000000000000000000000",
      "type": "0x2",
      "transactionHash": "0xb7a068c1489c299abdea762e280ccdc694656eb96e19fb0239fe731852438de3",
      "transactionIndex": "0x15",
      "blockHash": "0x89441b870e7f60557d4d3da3d3013cbf7c803e6cbe72d4b76196f89616a01605",
      "blockNumber": "0x2675921",
      "gasUsed": "0xc835",
      "effectiveGasPrice": "0x5b8d80",
      "blobGasUsed": "0x39d0",
      "from": "0xff6bdef4fb646ee44e29fe8fc0862b02f0ba8a33",
      "to": "0xe6c3182d62d331b0dea867c96fbdfe5f28c36710",
      "contractAddress": null,
      "daFootprintGasScalar": "0x94",
      "l1BaseFeeScalar": "0x44d",
      "l1BlobBaseFee": "0xf851f3",
      "l1BlobBaseFeeScalar": "0xa118b",
      "l1Fee": "0x5a2d8a08",
      "l1GasPrice": "0xedb6c88",
      "l1GasUsed": "0x640"
    },
    {
      "status": "0x1",
      "cumulativeGasUsed": "0xb93b79",
      "logs": [
        {
          "address": "0xe6c3182d62d331b0dea867c96fbdfe5f28c36710",
          "topics": [
            "0xddf252ad1be2c89b69c2b068fc378daa952ba7f163c4a11628f55a4df523b3ef",
            "0x000000000000000000000000ff6bdef4fb646ee44e29fe8fc0862b02f0ba8a33",
            "0x00000000000000000000000035477e7a3400851f74a60bd8dc14201c742b2a7a"
          ],
          "data": "0x000000000000000000000000000000000000000000000005a59a576f4730aaaa",
          "blockHash": "0x89441b870e7f60557d4d3da3d3013cbf7c803e6cbe72d4b76196f89616a01605",
          "blockNumber": "0x2675921",
          "blockTimestamp": "0x69e21122",
          "transactionHash": "0x6b9de0ff66f00e04052420a8f71329463ffe28396cdd1c0df10566992c15c42e",
          "transactionIndex": "0x16",
          "logIndex": "0xed",
          "removed": false
        },
        {
          "address": "0x35477e7a3400851f74a60bd8dc14201c742b2a7a",
          "topics": [
            "0x9cfd25589d1eb8ad71e342a86a8524e83522e3936c0803048c08f6d9ad974f40",
            "0x000000000000000000000000ff6bdef4fb646ee44e29fe8fc0862b02f0ba8a33",
            "0x0000000000000000000000000000000000000000000000000000000000000000"
          ],
          "data": "0x000000000000000000000000000000000000000000000005a59a576f4730aaaa000000000000000000000000000000000000000000000005a59a576f4730aaaa0000000000000000000000000000000000000000000000003f9b4562148a5558",
          "blockHash": "0x89441b870e7f60557d4d3da3d3013cbf7c803e6cbe72d4b76196f89616a01605",
          "blockNumber": "0x2675921",
          "blockTimestamp": "0x69e21122",
          "transactionHash": "0x6b9de0ff66f00e04052420a8f71329463ffe28396cdd1c0df10566992c15c42e",
          "transactionIndex": "0x16",
          "logIndex": "0xee",
          "removed": false
        },
        {
          "address": "0x35477e7a3400851f74a60bd8dc14201c742b2a7a",
          "topics": [
            "0x875894a489de1b1b13bf2e6c03981e3ddabcf1794b4b94dc5ba5d8e855a1e2f9"
          ],
          "data": "0x0000000000000000000000000000000000000000000000003f9b4562148a5558000000000000000000000000000000000000000000000005a59a576f4730aaaa00000000000000000000000000000000000000000000003635c9adc5dea00000",
          "blockHash": "0x89441b870e7f60557d4d3da3d3013cbf7c803e6cbe72d4b76196f89616a01605",
          "blockNumber": "0x2675921",
          "blockTimestamp": "0x69e21122",
          "transactionHash": "0x6b9de0ff66f00e04052420a8f71329463ffe28396cdd1c0df10566992c15c42e",
          "transactionIndex": "0x16",
          "logIndex": "0xef",
          "removed": false
        }
      ],
      "logsBloom": "0x00000000000000000010100000000000000000000000000000000000000000000000000000000000001000000000000000000000000000000008000000000000000000100000000000000008000000800000000000000001100000000000000000000000020000000000000000000800000000000000000000000010200000000000000000000000000000000000000000000000000000000000000000000000080000000000000000000010000000000000000000000000000000000000200000800002000000000000000000010000000000000000000800000000010020000000000000800000000000000000000000000000000000000000000000100000",
      "type": "0x2",
      "transactionHash": "0x6b9de0ff66f00e04052420a8f71329463ffe28396cdd1c0df10566992c15c42e",
      "transactionIndex": "0x16",
      "blockHash": "0x89441b870e7f60557d4d3da3d3013cbf7c803e6cbe72d4b76196f89616a01605",
      "blockNumber": "0x2675921",
      "gasUsed": "0x471da",
      "effectiveGasPrice": "0x5b8d80",
      "blobGasUsed": "0x39d0",
      "from": "0xff6bdef4fb646ee44e29fe8fc0862b02f0ba8a33",
      "to": "0x35477e7a3400851f74a60bd8dc14201c742b2a7a",
      "contractAddress": null,
      "daFootprintGasScalar": "0x94",
      "l1BaseFeeScalar": "0x44d",
      "l1BlobBaseFee": "0xf851f3",
      "l1BlobBaseFeeScalar": "0xa118b",
      "l1Fee": "0x5a2d8a08",
      "l1GasPrice": "0xedb6c88",
      "l1GasUsed": "0x640"
    }
  ],
  "libraries": [],
  "pending": [],
  "returns": {},
  "timestamp": 1776423204162,
  "chain": 84532,
  "commit": "6d4907f"
}