{
  "transactions": [
    {
      "hash": "0xb6bd23275ef91a420309fcce4985c81305f22d16265f730376b658b78b8f7ca3",
      "transactionType": "CALL",
      "contractName": null,
      "contractAddress": "0x3280d078424fde86fde23688561ff377278071de",
      "function": "attachModule(bytes32,bytes32,address,string)",
      "arguments": [
        "0x30b395817081a4bfcc2de11d585353c65c3c5b699309b8740e8ecf6cf6c18d74",
        "0xc921820d269e802042a87c6f3113cadc04b2e104586f5eacf569b70256c98a7c",
        "0x500ced1282AC5918798A73bD66E7EdC2cffD8577",
        ""
      ],
      "transaction": {
        "from": "0xff6bdef4fb646ee44e29fe8fc0862b02f0ba8a33",
        "to": "0x3280d078424fde86fde23688561ff377278071de",
        "gas": "0x634e5",
        "value": "0x0",
        "input": "0xff57866a30b395817081a4bfcc2de11d585353c65c3c5b699309b8740e8ecf6cf6c18d74c921820d269e802042a87c6f3113cadc04b2e104586f5eacf569b70256c98a7c000000000000000000000000500ced1282ac5918798a73bd66e7edc2cffd857700000000000000000000000000000000000000000000000000000000000000800000000000000000000000000000000000000000000000000000000000000000",
        "nonce": "0xe6",
        "chainId": "0xaa36a7"
      },
      "additionalContracts": [],
      "isFixedGasLimit": false
    },
    {
      "hash": "0x294c212a6c792ed65d866cdd098c4f97b15623b3c723e23cf105689eef7169fd",
      "transactionType": "CALL",
      "contractName": null,
      "contractAddress": "0x3280d078424fde86fde23688561ff377278071de",
      "function": "attachModule(bytes32,bytes32,address,string)",
      "arguments": [
        "0xf502127c932b4ff52cf7984ab5f3245e8d7935210db5535d8d05aab0d4f49c39",
        "0xc0b13d8cc9d9ca49de3ae4a65abe3c0df35c00d8cb9aac4e986e3f9c035f112f",
        "0x6f5074658561353644Db6a6270cf7dE2Cebe1256",
        ""
      ],
      "transaction": {
        "from": "0xff6bdef4fb646ee44e29fe8fc0862b02f0ba8a33",
        "to": "0x3280d078424fde86fde23688561ff377278071de",
        "gas": "0x5ae17",
        "value": "0x0",
        "input": "0xff57866af502127c932b4ff52cf7984ab5f3245e8d7935210db5535d8d05aab0d4f49c39c0b13d8cc9d9ca49de3ae4a65abe3c0df35c00d8cb9aac4e986e3f9c035f112f0000000000000000000000006f5074658561353644db6a6270cf7de2cebe125600000000000000000000000000000000000000000000000000000000000000800000000000000000000000000000000000000000000000000000000000000000",
        "nonce": "0xe7",
        "chainId": "0xaa36a7"
      },
      "additionalContracts": [],
      "isFixedGasLimit": false
    },
    {
      "hash": "0x3527eb3b0dd2a454b6f0a3ec9938d1bc50d692ec0809bcd52fd1180edc9179bb",
      "transactionType": "CALL",
      "contractName": null,
      "contractAddress": "0x3280d078424fde86fde23688561ff377278071de",
      "function": "issueCampaignTokens(address,uint256)",
      "arguments": [
        "0xFF6bdef4fB646EE44e29FE8FC0862B02F0Ba8a33",
        "1"
      ],
      "transaction": {
        "from": "0xff6bdef4fb646ee44e29fe8fc0862b02f0ba8a33",
        "to": "0x3280d078424fde86fde23688561ff377278071de",
        "gas": "0x25d49",
        "value": "0x0",
        "input": "0x1f469013000000000000000000000000ff6bdef4fb646ee44e29fe8fc0862b02f0ba8a330000000000000000000000000000000000000000000000000000000000000001",
        "nonce": "0xe8",
        "chainId": "0xaa36a7"
      },
      "additionalContracts": [],
      "isFixedGasLimit": false
    },
    {
      "hash": "0x59c82cff783041ea60d114b6a781857448a42ae5bd0fb84e3531e46942476456",
      "transactionType": "CALL",
      "contractName": null,
      "contractAddress": "0x3280d078424fde86fde23688561ff377278071de",
      "function": "setProceedsSplit(address,uint16)",
      "arguments": [
        "0x000000000000000000000000000000000000bEEF",
        "2500"
      ],
      "transaction": {
        "from": "0xff6bdef4fb646ee44e29fe8fc0862b02f0ba8a33",
        "to": "0x3280d078424fde86fde23688561ff377278071de",
        "gas": "0x152d3",
        "value": "0x0",
        "input": "0x15d496c6000000000000000000000000000000000000000000000000000000000000beef00000000000000000000000000000000000000000000000000000000000009c4",
        "nonce": "0xe9",
        "chainId": "0xaa36a7"
      },
      "additionalContracts": [],
      "isFixedGasLimit": false
    },
    {
      "hash": "0xa367e3aa1440913562d740b93a057c021090c956e4ba3bcf859aecdf33d876e6",
      "transactionType": "CALL",
      "contractName": null,
      "contractAddress": "0x32c344dc9713d904442d0e5b0d2b7994e52b0d4e",
      "function": "mint(address,uint256)",
      "arguments": [
        "0xFF6bdef4fB646EE44e29FE8FC0862B02F0Ba8a33",
        "144000"
      ],
      "transaction": {
        "from": "0xff6bdef4fb646ee44e29fe8fc0862b02f0ba8a33",
        "to": "0x32c344dc9713d904442d0e5b0d2b7994e52b0d4e",
        "gas": "0xb6d1",
        "value": "0x0",
        "input": "0x40c10f19000000000000000000000000ff6bdef4fb646ee44e29fe8fc0862b02f0ba8a330000000000000000000000000000000000000000000000000000000000023280",
        "nonce": "0xea",
        "chainId": "0xaa36a7"
      },
      "additionalContracts": [],
      "isFixedGasLimit": false
    },
    {
      "hash": "0xc9aa2842560733435d4560a829cc06dd289fc032c5ade49e03187a290c2b6a7a",
      "transactionType": "CALL",
      "contractName": null,
      "contractAddress": "0x32c344dc9713d904442d0e5b0d2b7994e52b0d4e",
      "function": "approve(address,uint256)",
      "arguments": [
        "0x3280d078424FDE86fdE23688561FF377278071de",
        "144000"
      ],
      "transaction": {
        "from": "0xff6bdef4fb646ee44e29fe8fc0862b02f0ba8a33",
        "to": "0x32c344dc9713d904442d0e5b0d2b7994e52b0d4e",
        "gas": "0xa4ba",
        "value": "0x0",
        "input": "0x095ea7b30000000000000000000000003280d078424fde86fde23688561ff377278071de0000000000000000000000000000000000000000000000000000000000023280",
        "nonce": "0xeb",
        "chainId": "0xaa36a7"
      },
      "additionalContracts": [],
      "isFixedGasLimit": false
    },
    {
      "hash": "0x38e875600087ef2415eb91e5018727a192687f9f34e498342c41636b42d905e7",
      "transactionType": "CALL",
      "contractName": null,
      "contractAddress": "0x3280d078424fde86fde23688561ff377278071de",
      "function": "buy(address,uint256)",
      "arguments": [
        "0x32C344Dc9713d904442d0E5B0d2b7994E52B0d4E",
        "144000"
      ],
      "transaction": {
        "from": "0xff6bdef4fb646ee44e29fe8fc0862b02f0ba8a33",
        "to": "0x3280d078424fde86fde23688561ff377278071de",
        "gas": "0x54b8f",
        "value": "0x0",
        "input": "0xcce7ec1300000000000000000000000032c344dc9713d904442d0e5b0d2b7994e52b0d4e0000000000000000000000000000000000000000000000000000000000023280",
        "nonce": "0xec",
        "chainId": "0xaa36a7"
      },
      "additionalContracts": [],
      "isFixedGasLimit": false
    },
    {
      "hash": "0xe898fbac6500d2147212ef0ff2677c094b8286fd809de3e71e05668f955e1c5e",
      "transactionType": "CALL",
      "contractName": null,
      "contractAddress": "0x3280d078424fde86fde23688561ff377278071de",
      "function": "clearProceedsSplit()",
      "arguments": [],
      "transaction": {
        "from": "0xff6bdef4fb646ee44e29fe8fc0862b02f0ba8a33",
        "to": "0x3280d078424fde86fde23688561ff377278071de",
        "gas": "0xd451",
        "value": "0x0",
        "input": "0x9d6b0bc1",
        "nonce": "0xed",
        "chainId": "0xaa36a7"
      },
      "additionalContracts": [],
      "isFixedGasLimit": false
    }
  ],
  "receipts": [
    {
      "type": "0x2",
      "status": "0x1",
      "cumulativeGasUsed": "0xe8b3a1",
      "logs": [
        {
          "address": "0x3280d078424fde86fde23688561ff377278071de",
          "topics": [
            "0xe4820932fb8bfeb1d651397e57975ed0c2c8652dbf3cea72ffcb6007744d256f",
            "0x15d496c600000000000000000000000000000000000000000000000000000000",
            "0x30b395817081a4bfcc2de11d585353c65c3c5b699309b8740e8ecf6cf6c18d74"
          ],
          "data": "0x",
          "blockHash": "0x765048b492ca4e88545ee12cdba24e2e079d7c7ac1dcfe4e85f667269646cae1",
          "blockNumber": "0xaacf8e",
          "blockTimestamp": "0x6a47ada0",
          "transactionHash": "0xc9aa2842560733435d4560a829cc06dd289fc032c5ade49e03187a290c2b6a7a",
          "transactionIndex": "0x60",
          "logIndex": "0x2a1",
          "removed": false
        },
        {
          "address": "0x3280d078424fde86fde23688561ff377278071de",
          "topics": [
            "0xe4820932fb8bfeb1d651397e57975ed0c2c8652dbf3cea72ffcb6007744d256f",
            "0x9d6b0bc100000000000000000000000000000000000000000000000000000000",
            "0x30b395817081a4bfcc2de11d585353c65c3c5b699309b8740e8ecf6cf6c18d74"
          ],
          "data": "0x",
          "blockHash": "0x765048b492ca4e88545ee12cdba24e2e079d7c7ac1dcfe4e85f667269646cae1",
          "blockNumber": "0xaacf8e",
          "blockTimestamp": "0x6a47ada0",
          "transactionHash": "0xc9aa2842560733435d4560a829cc06dd289fc032c5ade49e03187a290c2b6a7a",
          "transactionIndex": "0x60",
          "logIndex": "0x2a2",
          "removed": false
        },
        {
          "address": "0x3280d078424fde86fde23688561ff377278071de",
          "topics": [
            "0xe4820932fb8bfeb1d651397e57975ed0c2c8652dbf3cea72ffcb6007744d256f",
            "0x17054ad600000000000000000000000000000000000000000000000000000000",
            "0x30b395817081a4bfcc2de11d585353c65c3c5b699309b8740e8ecf6cf6c18d74"
          ],
          "data": "0x",
          "blockHash": "0x765048b492ca4e88545ee12cdba24e2e079d7c7ac1dcfe4e85f667269646cae1",
          "blockNumber": "0xaacf8e",
          "blockTimestamp": "0x6a47ada0",
          "transactionHash": "0xc9aa2842560733435d4560a829cc06dd289fc032c5ade49e03187a290c2b6a7a",
          "transactionIndex": "0x60",
          "logIndex": "0x2a3",
          "removed": false
        },
        {
          "address": "0x3280d078424fde86fde23688561ff377278071de",
          "topics": [
            "0xe4820932fb8bfeb1d651397e57975ed0c2c8652dbf3cea72ffcb6007744d256f",
            "0xe85860d600000000000000000000000000000000000000000000000000000000",
            "0x30b395817081a4bfcc2de11d585353c65c3c5b699309b8740e8ecf6cf6c18d74"
          ],
          "data": "0x",
          "blockHash": "0x765048b492ca4e88545ee12cdba24e2e079d7c7ac1dcfe4e85f667269646cae1",
          "blockNumber": "0xaacf8e",
          "blockTimestamp": "0x6a47ada0",
          "transactionHash": "0xc9aa2842560733435d4560a829cc06dd289fc032c5ade49e03187a290c2b6a7a",
          "transactionIndex": "0x60",
          "logIndex": "0x2a4",
          "removed": false
        },
        {
          "address": "0x3280d078424fde86fde23688561ff377278071de",
          "topics": [
            "0xc3b3bba350d426d8b0241206f22ea56f835fbcc9ade54bd871bf75a0d6c9f887",
            "0x30b395817081a4bfcc2de11d585353c65c3c5b699309b8740e8ecf6cf6c18d74",
            "0x000000000000000000000000500ced1282ac5918798a73bd66e7edc2cffd8577",
            "0xc921820d269e802042a87c6f3113cadc04b2e104586f5eacf569b70256c98a7c"
          ],
          "data": "0x00000000000000000000000000000000000000000000000000000000000000200000000000000000000000000000000000000000000000000000000000000000",
          "blockHash": "0x765048b492ca4e88545ee12cdba24e2e079d7c7ac1dcfe4e85f667269646cae1",
          "blockNumber": "0xaacf8e",
          "blockTimestamp": "0x6a47ada0",
          "transactionHash": "0xc9aa2842560733435d4560a829cc06dd289fc032c5ade49e03187a290c2b6a7a",
          "transactionIndex": "0x60",
          "logIndex": "0x2a5",
          "removed": false
        }
      ],
      "logsBloom": "0x00010000000000000000000400000000000000000000000000000000000000000000000001000000000001000020000000000040000001000000000000000000000000010000000000000000090000000000000000000000000080000000010000000000000000400000000000000008000000004000000000000000004000000000000000000000000000000000000000000000000000080000000000240000000000000000000000000000000000000000000000000000000000000000000000000000000000000000000000000000800000000000010000010000000000000000002000010080000000800020040000080000000000000000000002000000",
      "transactionHash": "0xc9aa2842560733435d4560a829cc06dd289fc032c5ade49e03187a290c2b6a7a",
      "transactionIndex": "0x60",
      "blockHash": "0x765048b492ca4e88545ee12cdba24e2e079d7c7ac1dcfe4e85f667269646cae1",
      "blockNumber": "0xaacf8e",
      "gasUsed": "0x47e55",
      "effectiveGasPrice": "0xb3b3ebde",
      "from": "0xff6bdef4fb646ee44e29fe8fc0862b02f0ba8a33",
      "to": "0x3280d078424fde86fde23688561ff377278071de",
      "contractAddress": null
    },
    {
      "type": "0x2",
      "status": "0x1",
      "cumulativeGasUsed": "0xecd05e",
      "logs": [
        {
          "address": "0x3280d078424fde86fde23688561ff377278071de",
          "topics": [
            "0xe4820932fb8bfeb1d651397e57975ed0c2c8652dbf3cea72ffcb6007744d256f",
            "0x1f46901300000000000000000000000000000000000000000000000000000000",
            "0xf502127c932b4ff52cf7984ab5f3245e8d7935210db5535d8d05aab0d4f49c39"
          ],
          "data": "0x",
          "blockHash": "0x765048b492ca4e88545ee12cdba24e2e079d7c7ac1dcfe4e85f667269646cae1",
          "blockNumber": "0xaacf8e",
          "blockTimestamp": "0x6a47ada0",
          "transactionHash": "0x38e875600087ef2415eb91e5018727a192687f9f34e498342c41636b42d905e7",
          "transactionIndex": "0x61",
          "logIndex": "0x2a6",
          "removed": false
        },
        {
          "address": "0x3280d078424fde86fde23688561ff377278071de",
          "topics": [
            "0xe4820932fb8bfeb1d651397e57975ed0c2c8652dbf3cea72ffcb6007744d256f",
            "0x9dcf264300000000000000000000000000000000000000000000000000000000",
            "0xf502127c932b4ff52cf7984ab5f3245e8d7935210db5535d8d05aab0d4f49c39"
          ],
          "data": "0x",
          "blockHash": "0x765048b492ca4e88545ee12cdba24e2e079d7c7ac1dcfe4e85f667269646cae1",
          "blockNumber": "0xaacf8e",
          "blockTimestamp": "0x6a47ada0",
          "transactionHash": "0x38e875600087ef2415eb91e5018727a192687f9f34e498342c41636b42d905e7",
          "transactionIndex": "0x61",
          "logIndex": "0x2a7",
          "removed": false
        },
        {
          "address": "0x3280d078424fde86fde23688561ff377278071de",
          "topics": [
            "0xe4820932fb8bfeb1d651397e57975ed0c2c8652dbf3cea72ffcb6007744d256f",
            "0xfd0b0fb200000000000000000000000000000000000000000000000000000000",
            "0xf502127c932b4ff52cf7984ab5f3245e8d7935210db5535d8d05aab0d4f49c39"
          ],
          "data": "0x",
          "blockHash": "0x765048b492ca4e88545ee12cdba24e2e079d7c7ac1dcfe4e85f667269646cae1",
          "blockNumber": "0xaacf8e",
          "blockTimestamp": "0x6a47ada0",
          "transactionHash": "0x38e875600087ef2415eb91e5018727a192687f9f34e498342c41636b42d905e7",
          "transactionIndex": "0x61",
          "logIndex": "0x2a8",
          "removed": false
        },
        {
          "address": "0x3280d078424fde86fde23688561ff377278071de",
          "topics": [
            "0xc3b3bba350d426d8b0241206f22ea56f835fbcc9ade54bd871bf75a0d6c9f887",
            "0xf502127c932b4ff52cf7984ab5f3245e8d7935210db5535d8d05aab0d4f49c39",
            "0x0000000000000000000000006f5074658561353644db6a6270cf7de2cebe1256",
            "0xc0b13d8cc9d9ca49de3ae4a65abe3c0df35c00d8cb9aac4e986e3f9c035f112f"
          ],
          "data": "0x00000000000000000000000000000000000000000000000000000000000000200000000000000000000000000000000000000000000000000000000000000000",
          "blockHash": "0x765048b492ca4e88545ee12cdba24e2e079d7c7ac1dcfe4e85f667269646cae1",
          "blockNumber": "0xaacf8e",
          "blockTimestamp": "0x6a47ada0",
          "transactionHash": "0x38e875600087ef2415eb91e5018727a192687f9f34e498342c41636b42d905e7",
          "transactionIndex": "0x61",
          "logIndex": "0x2a9",
          "removed": false
        }
      ],
      "logsBloom": "0x00000000000000000000000000000020002004400000000000000000000000000000000101000000000000000000000010000000080000000000000000000000000000000000000000000000000000000000000000800000000000000000000000000000000000500000000000000000000000004000100000000000000000000000000000000000000000000000000000000000000000080000000000004000000000000004000000000000000000000000000000200000000000000000080000000000008000000000000000000000800000000000000000000000000000000000000400000080000104800000040000080000000000000000000000000000",
      "transactionHash": "0x38e875600087ef2415eb91e5018727a192687f9f34e498342c41636b42d905e7",
      "transactionIndex": "0x61",
      "blockHash": "0x765048b492ca4e88545ee12cdba24e2e079d7c7ac1dcfe4e85f667269646cae1",
      "blockNumber": "0xaacf8e",
      "gasUsed": "0x41cbd",
      "effectiveGasPrice": "0xb3b3ebde",
      "from": "0xff6bdef4fb646ee44e29fe8fc0862b02f0ba8a33",
      "to": "0x3280d078424fde86fde23688561ff377278071de",
      "contractAddress": null
    },
    {
      "type": "0x2",
      "status": "0x1",
      "cumulativeGasUsed": "0xee8696",
      "logs": [
        {
          "address": "0x1f88735e395c941c5cd05dfd3e639ec1c162860c",
          "topics": [
            "0xddf252ad1be2c89b69c2b068fc378daa952ba7f163c4a11628f55a4df523b3ef",
            "0x0000000000000000000000000000000000000000000000000000000000000000",
            "0x000000000000000000000000ff6bdef4fb646ee44e29fe8fc0862b02f0ba8a33"
          ],
          "data": "0x0000000000000000000000000000000000000000000000000000000000000001",
          "blockHash": "0x765048b492ca4e88545ee12cdba24e2e079d7c7ac1dcfe4e85f667269646cae1",
          "blockNumber": "0xaacf8e",
          "blockTimestamp": "0x6a47ada0",
          "transactionHash": "0xe898fbac6500d2147212ef0ff2677c094b8286fd809de3e71e05668f955e1c5e",
          "transactionIndex": "0x62",
          "logIndex": "0x2aa",
          "removed": false
        },
        {
          "address": "0x3280d078424fde86fde23688561ff377278071de",
          "topics": [
            "0x3429ccffd4ebc375788003b55807cf1ffbb2cc869b0c47b395d49d12f0ce3a4d",
            "0x000000000000000000000000ff6bdef4fb646ee44e29fe8fc0862b02f0ba8a33"
          ],
          "data": "0x00000000000000000000000000000000000000000000000000000000000000010000000000000000000000000000000000000000000003855e58c6ade54647fe",
          "blockHash": "0x765048b492ca4e88545ee12cdba24e2e079d7c7ac1dcfe4e85f667269646cae1",
          "blockNumber": "0xaacf8e",
          "blockTimestamp": "0x6a47ada0",
          "transactionHash": "0xe898fbac6500d2147212ef0ff2677c094b8286fd809de3e71e05668f955e1c5e",
          "transactionIndex": "0x62",
          "logIndex": "0x2ab",
          "removed": false
        }
      ],
      "logsBloom": "0x00000000000000000000100000000000000000000000000000000000000000000000000001000000000000000000000000000000000000000000000000000000000000000000000000000008000000000000000000000001000000000000000000000000020000000000000000000800000000000000000000000010000000000000000000008000110000000000000000000000000000800000000000000000000000000000000000000000000000000000080000000000000000000000400000000002000000000000000000010000800000000000000000000000000020000000000000000000000000000000040000000000000000000000000000000000",
      "transactionHash": "0xe898fbac6500d2147212ef0ff2677c094b8286fd809de3e71e05668f955e1c5e",
      "transactionIndex": "0x62",
      "blockHash": "0x765048b492ca4e88545ee12cdba24e2e079d7c7ac1dcfe4e85f667269646cae1",
      "blockNumber": "0xaacf8e",
      "gasUsed": "0x1b638",
      "effectiveGasPrice": "0xb3b3ebde",
      "from": "0xff6bdef4fb646ee44e29fe8fc0862b02f0ba8a33",
      "to": "0x3280d078424fde86fde23688561ff377278071de",
      "contractAddress": null
    },
    {
      "type": "0x2",
      "status": "0x1",
      "cumulativeGasUsed": "0xef7be5",
      "logs": [
        {
          "address": "0x3280d078424fde86fde23688561ff377278071de",
          "topics": [
            "0x4df3ec6150582b78995803d31e197a1359883911bdc948639f25ae3db11acc78",
            "0x000000000000000000000000000000000000000000000000000000000000beef"
          ],
          "data": "0x00000000000000000000000000000000000000000000000000000000000009c40000000000000000000000000000000000000000000000000000000000001d4c",
          "blockHash": "0x765048b492ca4e88545ee12cdba24e2e079d7c7ac1dcfe4e85f667269646cae1",
          "blockNumber": "0xaacf8e",
          "blockTimestamp": "0x6a47ada0",
          "transactionHash": "0x59c82cff783041ea60d114b6a781857448a42ae5bd0fb84e3531e46942476456",
          "transactionIndex": "0x63",
          "logIndex": "0x2ac",
          "removed": false
        }
      ],
      "logsBloom": "0x00000000000000000000000000000000010000000000000000000000000000000000000001000000000000000000000000000000000000000000000000000000000000000000000000000000000000000000000000014000000000000000000000000000000000000000000000000000000000000000000000000000000000000000000000000000000000000000000000000000000000000040000000000000000000000000000000000000000000000000000020000000000000000000000000000000000000000000000000000000800000000002000000000000000000000000000000000000000000000000040000000000000000000000000000000000",
      "transactionHash": "0x59c82cff783041ea60d114b6a781857448a42ae5bd0fb84e3531e46942476456",
      "transactionIndex": "0x63",
      "blockHash": "0x765048b492ca4e88545ee12cdba24e2e079d7c7ac1dcfe4e85f667269646cae1",
      "blockNumber": "0xaacf8e",
      "gasUsed": "0xf54f",
      "effectiveGasPrice": "0xb3b3ebde",
      "from": "0xff6bdef4fb646ee44e29fe8fc0862b02f0ba8a33",
      "to": "0x3280d078424fde86fde23688561ff377278071de",
      "contractAddress": null
    },
    {
      "type": "0x2",
      "status": "0x1",
      "cumulativeGasUsed": "0xf00041",
      "logs": [
        {
          "address": "0x32c344dc9713d904442d0e5b0d2b7994e52b0d4e",
          "topics": [
            "0xddf252ad1be2c89b69c2b068fc378daa952ba7f163c4a11628f55a4df523b3ef",
            "0x0000000000000000000000000000000000000000000000000000000000000000",
            "0x000000000000000000000000ff6bdef4fb646ee44e29fe8fc0862b02f0ba8a33"
          ],
          "data": "0x0000000000000000000000000000000000000000000000000000000000023280",
          "blockHash": "0x765048b492ca4e88545ee12cdba24e2e079d7c7ac1dcfe4e85f667269646cae1",
          "blockNumber": "0xaacf8e",
          "blockTimestamp": "0x6a47ada0",
          "transactionHash": "0x294c212a6c792ed65d866cdd098c4f97b15623b3c723e23cf105689eef7169fd",
          "transactionIndex": "0x64",
          "logIndex": "0x2ad",
          "removed": false
        }
      ],
      "logsBloom": "0x00000000000000000000100000000000000000000000000000000000000000000000000000000000000000000000000000000000000000000000000000000000000000000000000000000008000000000000000000000001000000000000000000000000020000000000000000000800010000000000000000000010000000000000000000000000000000000000000000000000000000000001000000000000000000000000000000000000000000000000000000000000000000000000000000000002040000000000000000010000000000000000000000000000000020000000000000000000000000000000000000000000000000000000000000000000",
      "transactionHash": "0x294c212a6c792ed65d866cdd098c4f97b15623b3c723e23cf105689eef7169fd",
      "transactionIndex": "0x64",
      "blockHash": "0x765048b492ca4e88545ee12cdba24e2e079d7c7ac1dcfe4e85f667269646cae1",
      "blockNumber": "0xaacf8e",
      "gasUsed": "0x845c",
      "effectiveGasPrice": "0xb3b3ebde",
      "from": "0xff6bdef4fb646ee44e29fe8fc0862b02f0ba8a33",
      "to": "0x32c344dc9713d904442d0e5b0d2b7994e52b0d4e",
      "contractAddress": null
    },
    {
      "type": "0x2",
      "status": "0x1",
      "cumulativeGasUsed": "0xf070e4",
      "logs": [
        {
          "address": "0x32c344dc9713d904442d0e5b0d2b7994e52b0d4e",
          "topics": [
            "0x8c5be1e5ebec7d5bd14f71427d1e84f3dd0314c0f7b2291e5b200ac8c7c3b925",
            "0x000000000000000000000000ff6bdef4fb646ee44e29fe8fc0862b02f0ba8a33",
            "0x0000000000000000000000003280d078424fde86fde23688561ff377278071de"
          ],
          "data": "0x0000000000000000000000000000000000000000000000000000000000023280",
          "blockHash": "0x765048b492ca4e88545ee12cdba24e2e079d7c7ac1dcfe4e85f667269646cae1",
          "blockNumber": "0xaacf8e",
          "blockTimestamp": "0x6a47ada0",
          "transactionHash": "0xa367e3aa1440913562d740b93a057c021090c956e4ba3bcf859aecdf33d876e6",
          "transactionIndex": "0x65",
          "logIndex": "0x2ae",
          "removed": false
        }
      ],
      "logsBloom": "0x04000000000000000000100000000000000000000000000000000000000000000000000000000000000000000000000000000000000000000000000000200000000000000000000000000000000000000000000000000001000000000000000000000000000000000000000000000000010000000000000000000000000000000000000000000400000000000000000000000000000000000001000000000000020000000000000000000000000000000000000000000000002000000000000000000000040000000000000000010000000000000000000000000000000000000010000000000000000000000000000000000000000000000000000000000000",
      "transactionHash": "0xa367e3aa1440913562d740b93a057c021090c956e4ba3bcf859aecdf33d876e6",
      "transactionIndex": "0x65",
      "blockHash": "0x765048b492ca4e88545ee12cdba24e2e079d7c7ac1dcfe4e85f667269646cae1",
      "blockNumber": "0xaacf8e",
      "gasUsed": "0x70a3",
      "effectiveGasPrice": "0xb3b3ebde",
      "from": "0xff6bdef4fb646ee44e29fe8fc0862b02f0ba8a33",
      "to": "0x32c344dc9713d904442d0e5b0d2b7994e52b0d4e",
      "contractAddress": null
    },
    {
      "type": "0x2",
      "status": "0x1",
      "cumulativeGasUsed": "0xf4464b",
      "logs": [
        {
          "address": "0x32c344dc9713d904442d0e5b0d2b7994e52b0d4e",
          "topics": [
            "0xddf252ad1be2c89b69c2b068fc378daa952ba7f163c4a11628f55a4df523b3ef",
            "0x000000000000000000000000ff6bdef4fb646ee44e29fe8fc0862b02f0ba8a33",
            "0x0000000000000000000000003280d078424fde86fde23688561ff377278071de"
          ],
          "data": "0x0000000000000000000000000000000000000000000000000000000000023280",
          "blockHash": "0x765048b492ca4e88545ee12cdba24e2e079d7c7ac1dcfe4e85f667269646cae1",
          "blockNumber": "0xaacf8e",
          "blockTimestamp": "0x6a47ada0",
          "transactionHash": "0x3527eb3b0dd2a454b6f0a3ec9938d1bc50d692ec0809bcd52fd1180edc9179bb",
          "transactionIndex": "0x66",
          "logIndex": "0x2af",
          "removed": false
        },
        {
          "address": "0x32c344dc9713d904442d0e5b0d2b7994e52b0d4e",
          "topics": [
            "0xddf252ad1be2c89b69c2b068fc378daa952ba7f163c4a11628f55a4df523b3ef",
            "0x0000000000000000000000003280d078424fde86fde23688561ff377278071de",
            "0x000000000000000000000000f1a8527e00916588f4bb137ce450e8459b6bd436"
          ],
          "data": "0x00000000000000000000000000000000000000000000000000000000000010e0",
          "blockHash": "0x765048b492ca4e88545ee12cdba24e2e079d7c7ac1dcfe4e85f667269646cae1",
          "blockNumber": "0xaacf8e",
          "blockTimestamp": "0x6a47ada0",
          "transactionHash": "0x3527eb3b0dd2a454b6f0a3ec9938d1bc50d692ec0809bcd52fd1180edc9179bb",
          "transactionIndex": "0x66",
          "logIndex": "0x2b0",
          "removed": false
        },
        {
          "address": "0x3280d078424fde86fde23688561ff377278071de",
          "topics": [
            "0x4dd12c0ecba594b5bb7a4e3ec05ef19e1135fed23711a1fe4b1c9e6c9b40391b",
            "0x000000000000000000000000ff6bdef4fb646ee44e29fe8fc0862b02f0ba8a33",
            "0x00000000000000000000000032c344dc9713d904442d0e5b0d2b7994e52b0d4e"
          ],
          "data": "0x00000000000000000000000000000000000000000000000000000000000010e0",
          "blockHash": "0x765048b492ca4e88545ee12cdba24e2e079d7c7ac1dcfe4e85f667269646cae1",
          "blockNumber": "0xaacf8e",
          "blockTimestamp": "0x6a47ada0",
          "transactionHash": "0x3527eb3b0dd2a454b6f0a3ec9938d1bc50d692ec0809bcd52fd1180edc9179bb",
          "transactionIndex": "0x66",
          "logIndex": "0x2b1",
          "removed": false
        },
        {
          "address": "0x32c344dc9713d904442d0e5b0d2b7994e52b0d4e",
          "topics": [
            "0xddf252ad1be2c89b69c2b068fc378daa952ba7f163c4a11628f55a4df523b3ef",
            "0x0000000000000000000000003280d078424fde86fde23688561ff377278071de",
            "0x000000000000000000000000ff6bdef4fb646ee44e29fe8fc0862b02f0ba8a33"
          ],
          "data": "0x0000000000000000000000000000000000000000000000000000000000019938",
          "blockHash": "0x765048b492ca4e88545ee12cdba24e2e079d7c7ac1dcfe4e85f667269646cae1",
          "blockNumber": "0xaacf8e",
          "blockTimestamp": "0x6a47ada0",
          "transactionHash": "0x3527eb3b0dd2a454b6f0a3ec9938d1bc50d692ec0809bcd52fd1180edc9179bb",
          "transactionIndex": "0x66",
          "logIndex": "0x2b2",
          "removed": false
        },
        {
          "address": "0x32c344dc9713d904442d0e5b0d2b7994e52b0d4e",
          "topics": [
            "0xddf252ad1be2c89b69c2b068fc378daa952ba7f163c4a11628f55a4df523b3ef",
            "0x0000000000000000000000003280d078424fde86fde23688561ff377278071de",
            "0x000000000000000000000000000000000000000000000000000000000000beef"
          ],
          "data": "0x0000000000000000000000000000000000000000000000000000000000008868",
          "blockHash": "0x765048b492ca4e88545ee12cdba24e2e079d7c7ac1dcfe4e85f667269646cae1",
          "blockNumber": "0xaacf8e",
          "blockTimestamp": "0x6a47ada0",
          "transactionHash": "0x3527eb3b0dd2a454b6f0a3ec9938d1bc50d692ec0809bcd52fd1180edc9179bb",
          "transactionIndex": "0x66",
          "logIndex": "0x2b3",
          "removed": false
        },
        {
          "address": "0x3280d078424fde86fde23688561ff377278071de",
          "topics": [
            "0x41087eaf7563a5408fdfb26ca1d617b0e32af2e34b0e7151846c6eb68312344c",
            "0x00000000000000000000000032c344dc9713d904442d0e5b0d2b7994e52b0d4e",
            "0x000000000000000000000000ff6bdef4fb646ee44e29fe8fc0862b02f0ba8a33",
            "0x000000000000000000000000000000000000000000000000000000000000beef"
          ],
          "data": "0x00000000000000000000000000000000000000000000000000000000000221a000000000000000000000000000000000000000000000000000000000000199380000000000000000000000000000000000000000000000000000000000008868",
          "blockHash": "0x765048b492ca4e88545ee12cdba24e2e079d7c7ac1dcfe4e85f667269646cae1",
          "blockNumber": "0xaacf8e",
          "blockTimestamp": "0x6a47ada0",
          "transactionHash": "0x3527eb3b0dd2a454b6f0a3ec9938d1bc50d692ec0809bcd52fd1180edc9179bb",
          "transactionIndex": "0x66",
          "logIndex": "0x2b4",
          "removed": false
        },
        {
          "address": "0x1f88735e395c941c5cd05dfd3e639ec1c162860c",
          "topics": [
            "0xddf252ad1be2c89b69c2b068fc378daa952ba7f163c4a11628f55a4df523b3ef",
            "0x0000000000000000000000000000000000000000000000000000000000000000",
            "0x000000000000000000000000ff6bdef4fb646ee44e29fe8fc0862b02f0ba8a33"
          ],
          "data": "0x0000000000000000000000000000000000000000000000000de0b6b3a7640000",
          "blockHash": "0x765048b492ca4e88545ee12cdba24e2e079d7c7ac1dcfe4e85f667269646cae1",
          "blockNumber": "0xaacf8e",
          "blockTimestamp": "0x6a47ada0",
          "transactionHash": "0x3527eb3b0dd2a454b6f0a3ec9938d1bc50d692ec0809bcd52fd1180edc9179bb",
          "transactionIndex": "0x66",
          "logIndex": "0x2b5",
          "removed": false
        },
        {
          "address": "0x3280d078424fde86fde23688561ff377278071de",
          "topics": [
            "0x0b9c8304b83df3d2827b952a8e4c87faef3556dddcde57a47cb80f0c755606a5",
            "0x000000000000000000000000ff6bdef4fb646ee44e29fe8fc0862b02f0ba8a33",
            "0x00000000000000000000000032c344dc9713d904442d0e5b0d2b7994e52b0d4e"
          ],
          "data": "0x00000000000000000000000000000000000000000000000000000000000232800000000000000000000000000000000000000000000000000de0b6b3a764000000000000000000000000000000000000000000000000000000000000000000000000000000000000000000000000000000000000000003856c397d618caa47fe",
          "blockHash": "0x765048b492ca4e88545ee12cdba24e2e079d7c7ac1dcfe4e85f667269646cae1",
          "blockNumber": "0xaacf8e",
          "blockTimestamp": "0x6a47ada0",
          "transactionHash": "0x3527eb3b0dd2a454b6f0a3ec9938d1bc50d692ec0809bcd52fd1180edc9179bb",
          "transactionIndex": "0x66",
          "logIndex": "0x2b6",
          "removed": false
        },
        {
          "address": "0x9bb4f9c41ed922282c181f2f3e01d8384c960b44",
          "topics": [
            "0xddf252ad1be2c89b69c2b068fc378daa952ba7f163c4a11628f55a4df523b3ef",
            "0x0000000000000000000000000000000000000000000000000000000000000000",
            "0x000000000000000000000000ff6bdef4fb646ee44e29fe8fc0862b02f0ba8a33"
          ],
          "data": "0x00000000000000000000000000000000000000000000000001661d10e15c0000",
          "blockHash": "0x765048b492ca4e88545ee12cdba24e2e079d7c7ac1dcfe4e85f667269646cae1",
          "blockNumber": "0xaacf8e",
          "blockTimestamp": "0x6a47ada0",
          "transactionHash": "0x3527eb3b0dd2a454b6f0a3ec9938d1bc50d692ec0809bcd52fd1180edc9179bb",
          "transactionIndex": "0x66",
          "logIndex": "0x2b7",
          "removed": false
        },
        {
          "address": "0xd99c1985b257a4a55ba8d0836fab536389cdd24c",
          "topics": [
            "0x5418fe61f16a84e7b87b5da0f73314f08624f7632e2a989871231743bff24659",
            "0x0000000000000000000000003280d078424fde86fde23688561ff377278071de",
            "0x000000000000000000000000ff6bdef4fb646ee44e29fe8fc0862b02f0ba8a33"
          ],
          "data": "0x00000000000000000000000000000000000000000000000001661d10e15c0000",
          "blockHash": "0x765048b492ca4e88545ee12cdba24e2e079d7c7ac1dcfe4e85f667269646cae1",
          "blockNumber": "0xaacf8e",
          "blockTimestamp": "0x6a47ada0",
          "transactionHash": "0x3527eb3b0dd2a454b6f0a3ec9938d1bc50d692ec0809bcd52fd1180edc9179bb",
          "transactionIndex": "0x66",
          "logIndex": "0x2b8",
          "removed": false
        }
      ],
      "logsBloom": "0x04001000000000000000100000000000000000000000000080000000000000000000000001000000000000000000008000000000020000000000402000000000000000000000000000000008000010000000000000014001000000000000000000000000020000220000040000000800010000080000000000000010001000000400000000000400500000000000000000000000000000800041000000000000000000000080000000000000048000000000080000000000002000000000000000400002040010000000000000090000800000000000004000000000000020000000000002000000010000000010040000000000000000000000000000000000",
      "transactionHash": "0x3527eb3b0dd2a454b6f0a3ec9938d1bc50d692ec0809bcd52fd1180edc9179bb",
      "transactionIndex": "0x66",
      "blockHash": "0x765048b492ca4e88545ee12cdba24e2e079d7c7ac1dcfe4e85f667269646cae1",
      "blockNumber": "0xaacf8e",
      "gasUsed": "0x3d567",
      "effectiveGasPrice": "0xb3b3ebde",
      "from": "0xff6bdef4fb646ee44e29fe8fc0862b02f0ba8a33",
      "to": "0x3280d078424fde86fde23688561ff377278071de",
      "contractAddress": null
    },
    {
      "type": "0x2",
      "status": "0x1",
      "cumulativeGasUsed": "0xf4e002",
      "logs": [
        {
          "address": "0x3280d078424fde86fde23688561ff377278071de",
          "topics": [
            "0xf7b923f72abecc038364c9f73232f3934f37031adb3854c6b5cb79cc8b85c475"
          ],
          "data": "0x",
          "blockHash": "0x765048b492ca4e88545ee12cdba24e2e079d7c7ac1dcfe4e85f667269646cae1",
          "blockNumber": "0xaacf8e",
          "blockTimestamp": "0x6a47ada0",
          "transactionHash": "0xb6bd23275ef91a420309fcce4985c81305f22d16265f730376b658b78b8f7ca3",
          "transactionIndex": "0x67",
          "logIndex": "0x2b9",
          "removed": false
        }
      ],
      "logsBloom": "0x00000000000000000080000000000000000000000000000000000000000000000000000001000000000000000000000000000000000000000000000000000000000000000000000000000000000000000000000000000000000000000000000000000000000000000000000000000000000000000000000000000000000000000000000000000000000000000000000000000000000000000001000000000000000000000000000000000040000000000000000000000000000000000000000000000000000000000000000000000000800000000000000000000000000000000000000000000000000000000000040000000000000000000000000000000000",
      "transactionHash": "0xb6bd23275ef91a420309fcce4985c81305f22d16265f730376b658b78b8f7ca3",
      "transactionIndex": "0x67",
      "blockHash": "0x765048b492ca4e88545ee12cdba24e2e079d7c7ac1dcfe4e85f667269646cae1",
      "blockNumber": "0xaacf8e",
      "gasUsed": "0x99b7",
      "effectiveGasPrice": "0xb3b3ebde",
      "from": "0xff6bdef4fb646ee44e29fe8fc0862b02f0ba8a33",
      "to": "0x3280d078424fde86fde23688561ff377278071de",
      "contractAddress": null
    }
  ],
  "libraries": [],
  "pending": [],
  "returns": {},
  "timestamp": 1783082400976,
  "chain": 11155111,
  "commit": "31bf5f3"
}