{
  "transactions": [
    {
      "hash": "0x919c5bfe22aa4542f223b1a42eabd9d3d8c5559c8e0edb51e520ee2059e8d9ab",
      "transactionType": "CREATE",
      "contractName": "HarvestManager",
      "contractAddress": "0x944d4810c83c2a6e4c57d3f55c62a499fa0a79ff",
      "function": null,
      "arguments": null,
      "transaction": {
        "from": "0xff6bdef4fb646ee44e29fe8fc0862b02f0ba8a33",
        "gas": "0x195687",
        "value": "0x0",
        "input": "0x608080604052346100dc5760017f9b779b17422d0df92223018b32b4d1fa46e071723d6817e2486d003becc55f00557ff0c57e16840df040f15088dc2f81fe391c3923bec73e23a9662efc9c229c6a009081549060ff8260401c166100cd57506001600160401b036002600160401b031982821601610088575b60405161153d90816100e18239f35b6001600160401b031990911681179091556040519081527fc7f505b2f371ae2175ee4913f4499e1f2633a7b5936321eed1cdaeb6115181d290602090a15f8080610079565b63f92ee8a960e01b8152600490fd5b5f80fdfe60806040526004361015610011575f80fd5b5f803560e01c8063184c7408146110d35780631da4c66b1461103c57806323ffce8514610fe257806324e7964a14610fb957806335659fb814610f9b5780633761267214610f725780633e413bee14610f495780634a4e3bd514610ec857806351858e2714610e575780635a1c934214610e395780635c975abb14610e0a57806364df049e14610de15780636e5f4a8914610c5d57806376d5de8514610c36578063a053e85514610c17578063a2de6ba714610bf9578063c45a015514610bd0578063d7c41c7914610a22578063df6e805814610804578063e740010f146105c0578063ee0434ea14610599578063eeeac58e14610254578063f92a3e5a146101a95763fe56079214610122575f80fd5b346101a65760203660031901126101a65761013b611278565b6004546001600160a01b039081163303610194576008549060ff8260081c166101825761010092166001600160601b0360a01b600154161760015561ff0019161760085580f35b60405163a741a04560e01b8152600490fd5b604051630636a15760e11b8152600490fd5b80fd5b50346101a65760203660031901126101a6576040610180916004358152600960205220805490600181015490600281015460038201546004830154600584015460068501549060078601549260088701549460098801549660ff600b600a8b01549a015416996040519b8c5260208c015260408b015260608a0152608089015260a088015260c087015260e08601526101008501526101208401526101408301521515610160820152f35b50346101a65760603660031901126101a65767ffffffffffffffff604435116101a6573660236044350112156101a65767ffffffffffffffff60443560040135116101a65760053660246044356004013560051b6044350101116104f8576102ba6113f0565b6102c261141f565b600435825260096020526040822060ff600b82015416156105875760048101544210801561057a575b610568576004358352600a60205260408320335f5260205260405f209060ff82541661055657602435156105445761033761032c60038301546024356112af565b6002830154906112c2565b9260075484106105325760405190602082013360601b815260043560348401528560548401526054835282608081011067ffffffffffffffff60808501111761051e5760808301604052825190209254946103a160206044356004013560051b01608085016112f4565b60443560040135608084015260a09360a08401602460443501905b60246044356004013560051b6044350101821061050e575050809588965b608086015188101561041c5787851b8601870151908181101561040b578a52602052600160408a205b9701966103da565b908a52602052600160408a20610403565b89945088036104fc57835484906001600160a01b0316803b156104f857604051632770a7eb60e21b815233600482015260248035908201529082908290604490829084905af180156104ed576104d5575b505061010161ffff19825416178155600160243591015560405191602435835260208301526040820152600435907f13ca6fadf805f16664277e3b5e8cadf2fe2b18b5069c26658ea40db17b1a414a60603392a360015f805160206114e88339815191525580f35b6104de906112e0565b6104e957838561046d565b8380fd5b6040513d84823e3d90fd5b5080fd5b60405163582f497d60e11b8152600490fd5b81358152602091820191016103bc565b634e487b7160e01b5f52604160045260245ffd5b604051633bed78b960e11b8152600490fd5b604051631f2a200560e01b8152600490fd5b604051630c8d9eab60e31b8152600490fd5b60405163f0f25a3360e01b8152600490fd5b50600581015442116102eb565b60405163746fe1ff60e01b8152600490fd5b50346101a65760203660031901126101a65760206105b8600435611391565b604051908152f35b50346101a6576105cf3661124c565b6003549091906001600160a01b0390811633036107f2576105ee6113f0565b6105f661141f565b8184526009602052604084209060ff600b830154161561058757600682015442116107e057831561054457612710610630600654866112af565b049161063c838661128e565b906007810191825464e8d4a51000918281029281840414901517156107cc579061066591611316565b936008820193845486116107ba576002546040516323b872dd60e01b8b52336004523060245260448a905290821660208b60648180855af160018c511481161561079b575b826040528b6060521561078657505091818694938893610716575b50505050555490604051938452602084015260408301527fcb56add5582543f29fb4a2d26ea77df41ac397650c4baa72fba51bf8ff2d0fe560603393a360015f805160206114e88339815191525580f35b600a7f0d83ca35adecc0af1533ae91279419c61ebd39a46b507022c7dca7e88721cc699361074e848460025416856005541690611449565b0161075a838254611316565b90556005546040805193845291166001600160a01b03166020830152819081010390a2845f80806106c5565b635274afe760e01b8252600482015260249150fd5b60018115166107b157813b15153d1516166106aa565b823d8d823e3d90fd5b604051631bcb738360e11b8152600490fd5b634e487b7160e01b89526011600452602489fd5b604051631f82baad60e11b8152600490fd5b60405163428a0e1f60e11b8152600490fd5b50346101a65760803660031901126101a657600354606435919060043590604435906001600160a01b039060243590821633036107f25761084361141f565b838552602092600984526040862096600b88019485549060ff8216610a1057612710610871600654876112af565b049661087d888761128e565b928760015416838b602460405180948193631b0734ff60e01b835260048301525afa908115610a05578d89918e936109cf575b50808960019255015560028d01558460038d01554260048d015562278d0042019b8c42116109bb5790818d6005819998979695940155629e340042018098116109a757938a8c9d9e94610100989460017f7c2294627e662c6a10ba8931435038efc89684661b674f36b9804d7b1e0aa4989f9c99958460098b7fa6bccf48b3dc88722afdf2a5056cb3fc5045256a84f861cd8dc568f175dc24259f6006819e0155015560ff19161790556040519788528701526040860152606085015260808401524260a084015260c083015260e0820152a26005546040805193845291166001600160a01b03166020830152819081010390a280f35b634e487b7160e01b8d52601160045260248dfd5b634e487b7160e01b8c52601160045260248cfd5b925050508381813d83116109fe575b6109e881836112f4565b810103126109fa5751878d60016108b0565b8b80fd5b503d6109de565b6040513d8e823e3d90fd5b60405163770c15e360e01b8152600490fd5b50346101a65760c03660031901126101a657610a3c611278565b610a44611262565b6001600160a01b036044358181169390849003610bcc5760643590828216809203610bcc577ff0c57e16840df040f15088dc2f81fe391c3923bec73e23a9662efc9c229c6a009485549360ff8560401c16159467ffffffffffffffff811680159081610bc4575b6001149081610bba575b159081610bb1575b50610b9f5767ffffffffffffffff198116600117885585610b80575b5086549560ff8760401c1615610b6e57816001600160601b0360a01b941684600254161760025516826003541617600355816004541617600455600554161760055560843560065560a435600755610b2f578280f35b68ff0000000000000000191690557fc7f505b2f371ae2175ee4913f4499e1f2633a7b5936321eed1cdaeb6115181d2602060405160018152a15f808280f35b604051631afcd79f60e31b8152600490fd5b68ffffffffffffffffff1916680100000000000000011787555f610ad9565b60405163f92ee8a960e01b8152600490fd5b9050155f610abd565b303b159150610ab5565b879150610aab565b5f80fd5b50346101a657806003193601126101a6576004546040516001600160a01b039091168152602090f35b50346101a657806003193601126101a65760206040516276a7008152f35b50346101a65760203660031901126101a65760206105b8600435611323565b50346101a657806003193601126101a657546040516001600160a01b039091168152602090f35b50346101a65760203660031901126101a657600435610c7a6113f0565b808252600a60205260408220335f5260205260405f2060ff815460081c166003811015610dcd57600203610dbb576002810154908115610544578284526009602052604084209160078301548015610da95760088294015491828210610d88575b505050600301610ced8154809361128e565b80156105445764e8d4a51000809104928315610544578184029184830403610d745790610d1991611316565b9055600254610d3490829033906001600160a01b0316611449565b6040519081527f40e63bc28dd0f2c6ed1b1bb1ea5b5e84f5eb5ebf700ada288cef5413f45c5d0d60203392a360015f805160206114e88339815191525580f35b634e487b7160e01b86526011600452602486fd5b6003939450610da09291610d9b916112af565b6112c2565b91905f80610cdb565b604051632438344760e21b8152600490fd5b6040516345d366db60e11b8152600490fd5b634e487b7160e01b84526021600452602484fd5b50346101a657806003193601126101a6576005546040516001600160a01b039091168152602090f35b50346101a657806003193601126101a657602060ff5f805160206114c883398151915254166040519015158152f35b50346101a657806003193601126101a6576020600754604051908152f35b50346101a657806003193601126101a6576004546001600160a01b0316330361019457610e8261141f565b5f805160206114c8833981519152600160ff198254161790557f62e78cea01bee320cd4e420270b5ea74000d11b0c9f74754ebdbfc544b05a2586020604051338152a180f35b50346101a657806003193601126101a6576004546001600160a01b03163303610194575f805160206114c8833981519152805460ff811615610f375760ff191690557f5db9ee0a495bf2e6ff9c91a7834c1ba4fdd244a5e8aa4e537bd38aeae4b073aa6020604051338152a180f35b604051638dfc202b60e01b8152600490fd5b50346101a657806003193601126101a6576002546040516001600160a01b039091168152602090f35b50346101a657806003193601126101a6576003546040516001600160a01b039091168152602090f35b50346101a657806003193601126101a6576020600654604051908152f35b50346101a657806003193601126101a6576001546040516001600160a01b039091168152602090f35b50346101a65760203660031901126101a657610ffc611278565b6004546001600160a01b039081163303610194576008549060ff821661018257600192166001600160601b0360a01b84541617835560ff19161760085580f35b50346101a65760403660031901126101a657611056611262565b6004358252600a602052604082209060018060a01b03165f5260205260405f2080549060ff8260081c16906001810154600360028301549201549260ff60405195161515855260038110156110bf5760a095506020850152604084015260608301526080820152f35b634e487b7160e01b86526021600452602486fd5b5034610bcc576110e23661124c565b6110ea6113f0565b6110f261141f565b815f52600960205260405f2060ff600b82015416156105875760048101544210801561123f575b61056857825f52600a60205260405f20335f5260205260405f209060ff8254166105565782156105445761116261032c61115c600184015460098501549061128e565b856112af565b5f549092906001600160a01b0316803b15610bcc57604051632770a7eb60e21b815233600482015260248101869052905f908290604490829084905af180156112345761121a575b509082600260089361020161ffff198254161781558660018201550155016111d3828254611316565b905560405191825260208201527f97b3a4c15d681df1ab013b70b8a40d2b911cd934000efaddd3b5e784df6d003c60403392a360015f805160206114e88339815191525580f35b600892919650611229906112e0565b5f95909150826111aa565b6040513d5f823e3d90fd5b5060058101544211611119565b6040906003190112610bcc576004359060243590565b602435906001600160a01b0382168203610bcc57565b600435906001600160a01b0382168203610bcc57565b9190820391821161129b57565b634e487b7160e01b5f52601160045260245ffd5b8181029291811591840414171561129b57565b81156112cc570490565b634e487b7160e01b5f52601260045260245ffd5b67ffffffffffffffff811161051e57604052565b90601f8019910116810190811067ffffffffffffffff82111761051e57604052565b9190820180921161129b57565b5f52600960205260405f2060ff600b82015416158015611385575b61138057611355600182015460098301549061128e565b670de0b6b3a76400009081810291818304149015171561129b57600261137d920154906112c2565b90565b505f90565b5060028101541561133e565b5f52600960205260405f2060086007820154910154808210156113ea57600654916127109283039183831161129b5764e8d4a51000916113d09161128e565b0482810292818404149015171561129b5761137d916112c2565b50505f90565b5f805160206114e8833981519152600281541461140d5760029055565b604051633ee5aeb560e01b8152600490fd5b60ff5f805160206114c8833981519152541661143757565b60405163d93c066560e01b8152600490fd5b60405163a9059cbb60e01b5f9081526001600160a01b039384166004526024949094529260209060448180855af160015f51148116156114a8575b836040521561149257505050565b635274afe760e01b835216600482015260249150fd5b60018115166114be57813b15153d151616611484565b833d5f823e3d90fdfecd5ed15c6e187e77e9aee88184c21f4f2182ab5827cb3b7e07fbedcd63f033009b779b17422d0df92223018b32b4d1fa46e071723d6817e2486d003becc55f00a26469706673582212206c32f58277e356a4514d80538c9c4359755fe519622a711de59b18e9a930b9d564736f6c63430008180033",
        "nonce": "0x3a",
        "chainId": "0x14a34"
      },
      "additionalContracts": [],
      "isFixedGasLimit": false
    },
    {
      "hash": "0x8d51b6cce2fd758d26639c66613dd6b4cbdc2b92457f8159f93221cb113bcb16",
      "transactionType": "CALL",
      "contractName": null,
      "contractAddress": "0x3fa41528a22645bef478e9ebae83981c02e98f74",
      "function": "setHarvestManagerImpl(address)",
      "arguments": [
        "0x944D4810c83C2a6E4c57D3f55C62a499fa0a79fF"
      ],
      "transaction": {
        "from": "0xff6bdef4fb646ee44e29fe8fc0862b02f0ba8a33",
        "to": "0x3fa41528a22645bef478e9ebae83981c02e98f74",
        "gas": "0xbfb8",
        "value": "0x0",
        "input": "0x042bb4e7000000000000000000000000944d4810c83c2a6e4c57d3f55c62a499fa0a79ff",
        "nonce": "0x3b",
        "chainId": "0x14a34"
      },
      "additionalContracts": [],
      "isFixedGasLimit": false
    },
    {
      "hash": "0xbdee6d7e589ae028e3e56ac96af04f7e7a4daec324ef90a02304e9eb2b129372",
      "transactionType": "CALL",
      "contractName": null,
      "contractAddress": "0x587c362d0b7020dc04ca948d3276f19ce96ccf3d",
      "function": "upgradeAndCall(address,address,bytes)",
      "arguments": [
        "0xAdF3b6935598F029ACD2AfBcEcB8Ee4b82D83eBd",
        "0x944D4810c83C2a6E4c57D3f55C62a499fa0a79fF",
        "0x"
      ],
      "transaction": {
        "from": "0xff6bdef4fb646ee44e29fe8fc0862b02f0ba8a33",
        "to": "0x587c362d0b7020dc04ca948d3276f19ce96ccf3d",
        "gas": "0xc8d4",
        "value": "0x0",
        "input": "0x9623609d000000000000000000000000adf3b6935598f029acd2afbcecb8ee4b82d83ebd000000000000000000000000944d4810c83c2a6e4c57d3f55c62a499fa0a79ff00000000000000000000000000000000000000000000000000000000000000600000000000000000000000000000000000000000000000000000000000000000",
        "nonce": "0x3c",
        "chainId": "0x14a34"
      },
      "additionalContracts": [],
      "isFixedGasLimit": false
    },
    {
      "hash": "0x1347a78032f142703a021feb727e14671fe67956b3b7d66c84d09e2e978ea6b6",
      "transactionType": "CALL",
      "contractName": null,
      "contractAddress": "0x539776ba8aebd98f1fd5dc29a756503cd364f8c8",
      "function": "upgradeAndCall(address,address,bytes)",
      "arguments": [
        "0x4796C635cEe0128259db6517853A97415DD8D35C",
        "0x944D4810c83C2a6E4c57D3f55C62a499fa0a79fF",
        "0x"
      ],
      "transaction": {
        "from": "0xff6bdef4fb646ee44e29fe8fc0862b02f0ba8a33",
        "to": "0x539776ba8aebd98f1fd5dc29a756503cd364f8c8",
        "gas": "0xc8d4",
        "value": "0x0",
        "input": "0x9623609d0000000000000000000000004796c635cee0128259db6517853a97415dd8d35c000000000000000000000000944d4810c83c2a6e4c57d3f55c62a499fa0a79ff00000000000000000000000000000000000000000000000000000000000000600000000000000000000000000000000000000000000000000000000000000000",
        "nonce": "0x3d",
        "chainId": "0x14a34"
      },
      "additionalContracts": [],
      "isFixedGasLimit": false
    },
    {
      "hash": "0xb349be5cc63347af06cec344a3becff193f37e793186d664026ed7e08c568e7b",
      "transactionType": "CALL",
      "contractName": null,
      "contractAddress": "0x9a0b168cb0f25c8d3eba7c4c31ffca85d5900521",
      "function": "upgradeAndCall(address,address,bytes)",
      "arguments": [
        "0xB084B755ebA0CC459955ecB1C6bCb051ed832C74",
        "0x944D4810c83C2a6E4c57D3f55C62a499fa0a79fF",
        "0x"
      ],
      "transaction": {
        "from": "0xff6bdef4fb646ee44e29fe8fc0862b02f0ba8a33",
        "to": "0x9a0b168cb0f25c8d3eba7c4c31ffca85d5900521",
        "gas": "0xc8d4",
        "value": "0x0",
        "input": "0x9623609d000000000000000000000000b084b755eba0cc459955ecb1c6bcb051ed832c74000000000000000000000000944d4810c83c2a6e4c57d3f55c62a499fa0a79ff00000000000000000000000000000000000000000000000000000000000000600000000000000000000000000000000000000000000000000000000000000000",
        "nonce": "0x3e",
        "chainId": "0x14a34"
      },
      "additionalContracts": [],
      "isFixedGasLimit": false
    }
  ],
  "receipts": [
    {
      "status": "0x1",
      "cumulativeGasUsed": "0x6b22c4",
      "logs": [
        {
          "address": "0x944d4810c83c2a6e4c57d3f55c62a499fa0a79ff",
          "topics": [
            "0xc7f505b2f371ae2175ee4913f4499e1f2633a7b5936321eed1cdaeb6115181d2"
          ],
          "data": "0x000000000000000000000000000000000000000000000000ffffffffffffffff",
          "blockHash": "0xdf44c9eb568daa3095e18deb5673d68accefa925756420384436109bc3d0f46c",
          "blockNumber": "0x267a43e",
          "blockTimestamp": "0x69e2a75c",
          "transactionHash": "0xb349be5cc63347af06cec344a3becff193f37e793186d664026ed7e08c568e7b",
          "transactionIndex": "0x10",
          "logIndex": "0x119",
          "removed": false
        }
      ],
      "logsBloom": "0x00000000000000000000000000000000400000000000000000000000000000000000000000000000000000000000000000000000000000000000000000000000000000000000000000000000000000000000000000000000000000000000000000000000000000000000000000000000000000000000000000000000000000100000000000000000000800000000000000000000000080000000000000000000000000000000000004000000000000000000000000000000000000000000000000000000000000000000000000000000000000000004000000000000000000000000000000000000000000000000000000000000000000000000000000000000",
      "type": "0x2",
      "transactionHash": "0xb349be5cc63347af06cec344a3becff193f37e793186d664026ed7e08c568e7b",
      "transactionIndex": "0x10",
      "blockHash": "0xdf44c9eb568daa3095e18deb5673d68accefa925756420384436109bc3d0f46c",
      "blockNumber": "0x267a43e",
      "gasUsed": "0x137da3",
      "effectiveGasPrice": "0x5b8d80",
      "blobGasUsed": "0x7db4c",
      "from": "0xff6bdef4fb646ee44e29fe8fc0862b02f0ba8a33",
      "to": null,
      "contractAddress": "0x944d4810c83c2a6e4c57d3f55c62a499fa0a79ff",
      "daFootprintGasScalar": "0x94",
      "l1BaseFeeScalar": "0x44d",
      "l1BlobBaseFee": "0x4cc1",
      "l1BlobBaseFeeScalar": "0xa118b",
      "l1Fee": "0x30f38a8",
      "l1GasPrice": "0x18bc0",
      "l1GasUsed": "0xd97e"
    },
    {
      "status": "0x1",
      "cumulativeGasUsed": "0x6bad92",
      "logs": [
        {
          "address": "0x3fa41528a22645bef478e9ebae83981c02e98f74",
          "topics": [
            "0xafe8ffe5b5828311740c78326b619d9e961daf5b14537a2160e07f4e5629c00f",
            "0x686172766573744d616e61676572000000000000000000000000000000000000"
          ],
          "data": "0x0000000000000000000000008d434e38dd91d9b738f8803dbd18b815720bedad000000000000000000000000944d4810c83c2a6e4c57d3f55c62a499fa0a79ff",
          "blockHash": "0xdf44c9eb568daa3095e18deb5673d68accefa925756420384436109bc3d0f46c",
          "blockNumber": "0x267a43e",
          "blockTimestamp": "0x69e2a75c",
          "transactionHash": "0x919c5bfe22aa4542f223b1a42eabd9d3d8c5559c8e0edb51e520ee2059e8d9ab",
          "transactionIndex": "0x11",
          "logIndex": "0x11a",
          "removed": false
        }
      ],
      "logsBloom": "0x00000000000000000000000000000800000000800000000000000000000000000000000000000000000000000000000000000000000000000000000000000000000000000000000200000000000000000000000000000000000800000000000000000000000000000000000000000000000000000000000000000000000000000000000000000000000000000000000080000000000000000000000000000000000000000000000000000000000000000000000000000020000000000000000000000008000000000000000000000000000000000000000000000000000000000000000000000002000000000000000000000000000000000000000000100000",
      "type": "0x2",
      "transactionHash": "0x919c5bfe22aa4542f223b1a42eabd9d3d8c5559c8e0edb51e520ee2059e8d9ab",
      "transactionIndex": "0x11",
      "blockHash": "0xdf44c9eb568daa3095e18deb5673d68accefa925756420384436109bc3d0f46c",
      "blockNumber": "0x267a43e",
      "gasUsed": "0x8ace",
      "effectiveGasPrice": "0x5b8d80",
      "blobGasUsed": "0x39d0",
      "from": "0xff6bdef4fb646ee44e29fe8fc0862b02f0ba8a33",
      "to": "0x3fa41528a22645bef478e9ebae83981c02e98f74",
      "contractAddress": null,
      "daFootprintGasScalar": "0x94",
      "l1BaseFeeScalar": "0x44d",
      "l1BlobBaseFee": "0x4cc1",
      "l1BlobBaseFeeScalar": "0xa118b",
      "l1Fee": "0x1681c4",
      "l1GasPrice": "0x18bc0",
      "l1GasUsed": "0x640"
    },
    {
      "status": "0x1",
      "cumulativeGasUsed": "0x6c3ef8",
      "logs": [
        {
          "address": "0xadf3b6935598f029acd2afbcecb8ee4b82d83ebd",
          "topics": [
            "0xbc7cd75a20ee27fd9adebab32041f755214dbc6bffa90cc0225b39da2e5c2d3b",
            "0x000000000000000000000000944d4810c83c2a6e4c57d3f55c62a499fa0a79ff"
          ],
          "data": "0x",
          "blockHash": "0xdf44c9eb568daa3095e18deb5673d68accefa925756420384436109bc3d0f46c",
          "blockNumber": "0x267a43e",
          "blockTimestamp": "0x69e2a75c",
          "transactionHash": "0x8d51b6cce2fd758d26639c66613dd6b4cbdc2b92457f8159f93221cb113bcb16",
          "transactionIndex": "0x12",
          "logIndex": "0x11b",
          "removed": false
        }
      ],
      "logsBloom": "0x00000000000000000000000000000040400000000000000000000000000000001000000000000000000000000000000000400000000000000000000000000000000000000000000000000000000002000000000000000000000000000000000000000000000000000000000000000400000000000000000000000000000000000000000000000000000000000000000000000000000000000000000000000000000000000000000000000000000000000000000000000000000000000000000000001020000000000000000000000000000000000000000000000000000000000000000000000000000000000000000000000200000000000000000000000000",
      "type": "0x2",
      "transactionHash": "0x8d51b6cce2fd758d26639c66613dd6b4cbdc2b92457f8159f93221cb113bcb16",
      "transactionIndex": "0x12",
      "blockHash": "0xdf44c9eb568daa3095e18deb5673d68accefa925756420384436109bc3d0f46c",
      "blockNumber": "0x267a43e",
      "gasUsed": "0x9166",
      "effectiveGasPrice": "0x5b8d80",
      "blobGasUsed": "0x3f04",
      "from": "0xff6bdef4fb646ee44e29fe8fc0862b02f0ba8a33",
      "to": "0x587c362d0b7020dc04ca948d3276f19ce96ccf3d",
      "contractAddress": null,
      "daFootprintGasScalar": "0x94",
      "l1BaseFeeScalar": "0x44d",
      "l1BlobBaseFee": "0x4cc1",
      "l1BlobBaseFeeScalar": "0xa118b",
      "l1Fee": "0x18ae34",
      "l1GasPrice": "0x18bc0",
      "l1GasUsed": "0x6da"
    },
    {
      "status": "0x1",
      "cumulativeGasUsed": "0x6cd05e",
      "logs": [
        {
          "address": "0x4796c635cee0128259db6517853a97415dd8d35c",
          "topics": [
            "0xbc7cd75a20ee27fd9adebab32041f755214dbc6bffa90cc0225b39da2e5c2d3b",
            "0x000000000000000000000000944d4810c83c2a6e4c57d3f55c62a499fa0a79ff"
          ],
          "data": "0x",
          "blockHash": "0xdf44c9eb568daa3095e18deb5673d68accefa925756420384436109bc3d0f46c",
          "blockNumber": "0x267a43e",
          "blockTimestamp": "0x69e2a75c",
          "transactionHash": "0x1347a78032f142703a021feb727e14671fe67956b3b7d66c84d09e2e978ea6b6",
          "transactionIndex": "0x13",
          "logIndex": "0x11c",
          "removed": false
        }
      ],
      "logsBloom": "0x00000000000000000000000000000000400000000000000000000000000000000000000000000000000000000000000000400000000000000000000000000000000000000000000000000000000002000000000000000000000000000000000000000000000000000000000000000400000000000000000000000000000000000000000000000000000000000000000000000000000000000000000000000000000000000000000000000000000000000000000000000000000000000000000100001020000000000000000000000000000000008000000000000000000000400000000000000000000000000000000000000000000000000000000000000000",
      "type": "0x2",
      "transactionHash": "0x1347a78032f142703a021feb727e14671fe67956b3b7d66c84d09e2e978ea6b6",
      "transactionIndex": "0x13",
      "blockHash": "0xdf44c9eb568daa3095e18deb5673d68accefa925756420384436109bc3d0f46c",
      "blockNumber": "0x267a43e",
      "gasUsed": "0x9166",
      "effectiveGasPrice": "0x5b8d80",
      "blobGasUsed": "0x3f04",
      "from": "0xff6bdef4fb646ee44e29fe8fc0862b02f0ba8a33",
      "to": "0x539776ba8aebd98f1fd5dc29a756503cd364f8c8",
      "contractAddress": null,
      "daFootprintGasScalar": "0x94",
      "l1BaseFeeScalar": "0x44d",
      "l1BlobBaseFee": "0x4cc1",
      "l1BlobBaseFeeScalar": "0xa118b",
      "l1Fee": "0x18ae34",
      "l1GasPrice": "0x18bc0",
      "l1GasUsed": "0x6da"
    },
    {
      "status": "0x1",
      "cumulativeGasUsed": "0x6d61c4",
      "logs": [
        {
          "address": "0xb084b755eba0cc459955ecb1c6bcb051ed832c74",
          "topics": [
            "0xbc7cd75a20ee27fd9adebab32041f755214dbc6bffa90cc0225b39da2e5c2d3b",
            "0x000000000000000000000000944d4810c83c2a6e4c57d3f55c62a499fa0a79ff"
          ],
          "data": "0x",
          "blockHash": "0xdf44c9eb568daa3095e18deb5673d68accefa925756420384436109bc3d0f46c",
          "blockNumber": "0x267a43e",
          "blockTimestamp": "0x69e2a75c",
          "transactionHash": "0xbdee6d7e589ae028e3e56ac96af04f7e7a4daec324ef90a02304e9eb2b129372",
          "transactionIndex": "0x14",
          "logIndex": "0x11d",
          "removed": false
        }
      ],
      "logsBloom": "0x00000000000000000000000000000000400000000000000000000000000000000000000000000000000000000000000000400000000000000000000000000000000000000000000000000000000002000000000000000000000000010000000000000000000000000000000000000400000000000000000000000000000000000000000000000000000000000000000000000000000000000000000000000000000000000000000000000000000000000000001000000000000000000000000000001020000000000000000000000000000000000000000000000000000000000000000000000000000000000000000000000000000000000000000000000040",
      "type": "0x2",
      "transactionHash": "0xbdee6d7e589ae028e3e56ac96af04f7e7a4daec324ef90a02304e9eb2b129372",
      "transactionIndex": "0x14",
      "blockHash": "0xdf44c9eb568daa3095e18deb5673d68accefa925756420384436109bc3d0f46c",
      "blockNumber": "0x267a43e",
      "gasUsed": "0x9166",
      "effectiveGasPrice": "0x5b8d80",
      "blobGasUsed": "0x3f04",
      "from": "0xff6bdef4fb646ee44e29fe8fc0862b02f0ba8a33",
      "to": "0x9a0b168cb0f25c8d3eba7c4c31ffca85d5900521",
      "contractAddress": null,
      "daFootprintGasScalar": "0x94",
      "l1BaseFeeScalar": "0x44d",
      "l1BlobBaseFee": "0x4cc1",
      "l1BlobBaseFeeScalar": "0xa118b",
      "l1Fee": "0x18ae34",
      "l1GasPrice": "0x18bc0",
      "l1GasUsed": "0x6da"
    }
  ],
  "libraries": [],
  "pending": [],
  "returns": {},
  "timestamp": 1776461661532,
  "chain": 84532,
  "commit": "2eee8c0"
}