{
  "transactions": [
    {
      "hash": "0x6f1a5d0e90867151be93a459927058e3de02cb6ecb516afaeca87bcd8cde42b3",
      "transactionType": "CREATE",
      "contractName": "GrowfiProducerRegistryV2",
      "contractAddress": "0x267901bb08cb864b204d92185fac8d6f9dee0f98",
      "function": null,
      "arguments": [
        "0xA229F3c9851E26fC9eA18157b88cd1CDA6F90e55",
        "0x651fb29e69Bde3ADE988e8E75e9A3012272D2de5"
      ],
      "transaction": {
        "from": "0xa229f3c9851e26fc9ea18157b88cd1cda6f90e55",
        "gas": "0x24baf8",
        "value": "0x0",
        "input": "0x6101806040818152346200026d578082620026028038038091620000248285620002d1565b8339810103126200026d576200003a82620002f5565b916200004a6020809201620002f5565b918051906200005982620002b5565b60168252828201937f47726f77666950726f647563657252656769737472790000000000000000000085528151956200009287620002b5565b60018752848701603160f81b8152620000ab856200030a565b96610120978852620000bd89620004d4565b95610140968752519020978860e05251902091610100978389524660a052845193878501917f8b73c3c69bb8fe3d512ecc4cf759cc79239f7b179b0ffacaa9a75d522b39400f83528686015260608501524660808501523060a085015260a0845260c084019380851060018060401b03861117620002a1578486525190206080523060c0526001600160a01b03918216928315620002925750600480546001600160a01b031916841790558351835f7f8be0079c531659141344cd1fd0a4f28419497f9722a3daafe3b4186f6b6457e08180a3813b1562000283575081169460048161016097808952865192838092638da5cb5b60e01b82525afa91821562000279575f9262000237575b5050160362000227575192611f8694856200067c863960805185611db2015260a05185611e7d015260c05185611d7c015260e05185611e0101525184611e270152518361084f015251826108790152518181816104930152610f7b0152f35b516317a66b3760e21b8152600490fd5b90809250813d831162000271575b620002518183620002d1565b810103126200026d576200026590620002f5565b5f80620001c8565b5f80fd5b503d62000245565b85513d5f823e3d90fd5b6317a66b3760e21b8152600490fd5b63d92e233d60e01b8152600490fd5b634e487b7160e01b5f52604160045260245ffd5b604081019081106001600160401b03821117620002a157604052565b601f909101601f19168101906001600160401b03821190821017620002a157604052565b51906001600160a01b03821682036200026d57565b805160209081811015620003a45750601f8251116200034557808251920151908083106200033757501790565b825f19910360031b1b161790565b90604051809263305a27a960e01b82528060048301528251908160248401525f935b8285106200038a575050604492505f838284010152601f80199101168101030190fd5b848101820151868601604401529381019385935062000367565b906001600160401b038211620002a1575f54926001938481811c91168015620004c9575b83821014620004b557601f81116200047f575b5081601f84116001146200041957509282939183925f946200040d575b50501b915f199060031b1c1916175f5560ff90565b015192505f80620003f8565b919083601f1981165f8052845f20945f905b888383106200046457505050106200044b575b505050811b015f5560ff90565b01515f1960f88460031b161c191690555f80806200043e565b8587015188559096019594850194879350908101906200042b565b5f805284601f845f20920160051c820191601f860160051c015b828110620004a9575050620003db565b5f815501859062000499565b634e487b7160e01b5f52602260045260245ffd5b90607f1690620003c8565b805160209081811015620005605750601f8251116200050157808251920151908083106200033757501790565b90604051809263305a27a960e01b82528060048301528251908160248401525f935b82851062000546575050604492505f838284010152601f80199101168101030190fd5b848101820151868601604401529381019385935062000523565b9192916001600160401b038111620002a15760019182548381811c9116801562000670575b82821014620004b557601f81116200063a575b5080601f8311600114620005d65750819293945f92620005ca575b50505f19600383901b1c191690821b17905560ff90565b015190505f80620005b3565b90601f19831695845f52825f20925f905b88821062000622575050838596971062000609575b505050811b01905560ff90565b01515f1960f88460031b161c191690555f8080620005fc565b808785968294968601518155019501930190620005e7565b835f5283601f835f20920160051c820191601f850160051c015b8281106200066457505062000598565b5f815501849062000654565b90607f16906200058556fe6080604090808252600480361015610015575f80fd5b5f3560e01c918263098c294c1461140057508163190b0cdc14610f1d578163235b37b114610dad5781632db860cd14610d2e57816334b3312014610c525781634a7af52114610c095781634cbf1ee614610bd2578163515d047b14610b98578163625057f314610b77578163767cb5bf14610b4057816377f133af14610b045781637807aeba14610a2257816379ba5097146109a957816382c22dd31461095557816384b0196e1461083857816385f521e2146107b1578163862b65361461068d578163899085ac1461060e5781638bae099d146105d75781638da5cb5b146105b05781639e0a72f4146104fe5781639e85855a146104c2578163ae8c9d131461047f578163b66bef2b14610448578163bb38b2671461040c578163c9592a87146103d5578163daed7c441461039e578163db4981c814610362578163e30c39781461033a578163f294e24914610250578163f2fde38b146101bf575063fda6d54414610180575f80fd5b346101bb5760203660031901126101bb576020906001600160a01b036101a4611434565b165f526009825260ff815f20541690519015158152f35b5f80fd5b9050346101bb5760203660031901126101bb576101da611434565b81546001600160a01b039081169291338490036102405716928315610233575050600580546001600160a01b031916831790557f38d16b8cac22d99fc7c124b9cd0de2d3fa1faef420bfe791d8c362d765e227005f80a3005b5163d92e233d60e01b8152fd5b84516330cd747160e01b81528390fd5b82346101bb576020806003193601126101bb576001600160a01b03610273611434565b165f5260028152815f2091805180935f90805461028f816114ef565b91828552600191876001821691825f146103135750506001146102d3575b5050506102cf92916102c0910385611556565b519282849384528301906114ca565b0390f35b8693505f92919252825f20915f925b8284106102fb57505050820101816102c06102cf6102ad565b8054848a0186015288955087949093019281016102e2565b60ff19168782015293151560051b860190930193508492506102c091506102cf90506102ad565b82346101bb575f3660031901126101bb5760055490516001600160a01b039091168152602090f35b82346101bb5760203660031901126101bb576020906001600160a01b03610387611434565b165f526007825260ff815f20541690519015158152f35b82346101bb5760203660031901126101bb576020906001600160a01b036103c3611434565b165f52600b8252805f20549051908152f35b82346101bb5760203660031901126101bb576020906001600160a01b036103fa611434565b165f5260088252805f20549051908152f35b82346101bb5760203660031901126101bb576020906001600160a01b03610431611434565b165f526006825260ff815f20541690519015158152f35b82346101bb5760203660031901126101bb576020906001600160a01b0361046d611434565b165f52600d8252805f20549051908152f35b82346101bb575f3660031901126101bb57517f00000000000000000000000000000000000000000000000000000000000000006001600160a01b03168152602090f35b82346101bb5760203660031901126101bb576020906001600160a01b036104e7611434565b165f526010825260ff815f20541690519015158152f35b82346101bb5760203660031901126101bb57610518611434565b82546001600160a01b039190821633036105a1571691821561059357825f52600660205260ff825f2054166105855750815f5260066020525f20600160ff1982541617905533907fc467cfc80a9383b306e91b05d5f73ec6b9a4348bfcea3f8a0a2625a7bbbea7785f80a3005b905163a88ee57760e01b8152fd5b905163d92e233d60e01b8152fd5b5050516330cd747160e01b8152fd5b82346101bb575f3660031901126101bb57905490516001600160a01b039091168152602090f35b82346101bb5760203660031901126101bb576020906001600160a01b036105fc611434565b165f52600e8252805f20549051908152f35b82346101bb5760203660031901126101bb57610628611434565b82546001600160a01b039190821633036105a1571691825f52600660205260ff825f205416156105855750815f5260066020525f2060ff19815416905533907fbde8fae3fca3893dcb7e04c10992c90d31f3221b09c9ac61a13b27285a2ab9f55f80a3005b9050346101bb57602091826003193601126101bb576001600160a01b0392836106b4611434565b169384156107a257843314159081610794575b508061077f575b61077157835f52600a815260ff825f2054161561076357600d90845f52600a8152825f2060ff198154169055600c81525f83812055600e81525f83812055600f81525f83812055525f208054916001830180931161075057505533907f950680db178781c811682bfde44e59a513f2730b8c0d124811c2379c87ef8ccf5f80a3005b601190634e487b7160e01b5f525260245ffd5b505163a88ee57760e01b8152fd5b505163bd1b7fd160e01b8152fd5b50335f526009815260ff825f205416156106ce565b90508354163314155f6106c7565b50505163d92e233d60e01b8152fd5b82346101bb5760203660031901126101bb576107cb611434565b82546001600160a01b039190821633036105a1571691821561059357825f52600960205260ff825f2054166105855750815f5260096020525f20600160ff1982541617905533907fce6c406887191d57809d5baea0f0e748ec504d65801f78692c7cf6673a03601a5f80a3005b9050346101bb575f3660031901126101bb576108737f0000000000000000000000000000000000000000000000000000000000000000611bbb565b9161089d7f0000000000000000000000000000000000000000000000000000000000000000611cbb565b81519160209160208401948486106001600160401b0387111761094257506108f782602092876108ea99989795525f85528151988998600f60f81b8a5260e0868b015260e08a01906114ca565b91888303908901526114ca565b914660608701523060808701525f60a087015285830360c087015251918281520192915f5b82811061092b57505050500390f35b83518552869550938101939281019260010161091c565b604190634e487b7160e01b5f525260245ffd5b82346101bb5760203660031901126101bb576020906001600160a01b0361097a611434565b165f52600a825260ff815f2054169081610997575b519015158152f35b9050600c8252805f205442109061098f565b9050346101bb575f3660031901126101bb576005546001600160a01b038082169390929033859003610a15575080546001600160a01b031980821686179092559116600555167f8be0079c531659141344cd1fd0a4f28419497f9722a3daafe3b4186f6b6457e05f80a3005b51630614e5c760e21b8152fd5b82346101bb57806003193601126101bb57610a3b611434565b90602435801515928382036101bb57335f52600660205260ff835f20541615610af4576001600160a01b0316938415610ae657845f5260076020528360ff845f205416151514610ad85750610aa690845f526007602052825f209060ff801983541691151516179055565b600860205242905f205533917ff3eea6a6e86654f0b0d544a5445a1c06e8a95e7a781e8f93e8fdab133b242fb15f80a4005b825163a88ee57760e01b8152fd5b825163d92e233d60e01b8152fd5b825163f374375760e01b81528590fd5b82346101bb5760203660031901126101bb576020906001600160a01b03610b29611434565b165f52600a825260ff815f20541690519015158152f35b82346101bb5760203660031901126101bb576020906001600160a01b03610b65611434565b165f5260038252805f20549051908152f35b82346101bb57602090610b91610b8c36611477565b6117a2565b9051908152f35b82346101bb575f3660031901126101bb57602090517f6fc1df6c16349cb211dfcdfa82febe1779e3fa6694f77913cbee8baa60c24b2a8152f35b82346101bb5760203660031901126101bb576020906001600160a01b03610bf7611434565b165f52600f8252805f20549051908152f35b82346101bb57610c1836611477565b90335f52600960205260ff815f20541615610c4357610c4182610c3a81611691565b33906118ed565b005b5163bd1b7fd160e01b81529050fd5b82346101bb5760031981813601126101bb578235906001600160401b03908183116101bb576101409083860193360301126101bb576024359081116101bb57610c9e903690850161144a565b9290610ca983611601565b6001600160a01b0391903390831603610d1e57610cf094610ce1610ce792610cd087611691565b610cd9876117a2565b923691611615565b90611afe565b90959195611b38565b83165f52600960205260ff815f20541615610d0f57610c4183836118ed565b51632c996cd960e01b81528390fd5b825163602e4ee360e11b81528690fd5b82346101bb5760203660031901126101bb57610d48611434565b82546001600160a01b039190821633036105a1571691825f52600960205260ff825f205416156105855750815f5260096020525f2060ff19815416905533907f75ab21d261d1dfe8540fefcc5745844b12eb4fc317215d027a8b29a2a694aac55f80a3005b82346101bb576020806003193601126101bb576001600160401b039183358381116101bb57610ddf903690860161144a565b90918115610f0e57335f5260038452805f2054946001966001870180971161075057335f526003865286835f205560028652825f209184116109425750610e3083610e2a83546114ef565b83611592565b5f96601f8411600114610e97575090610e8791610e7384805f80516020611f3183398151915298999a5f91610e8c575b508160011b915f199060031b1c19161790565b90555b5192839286845233968401916115e1565b0390a3005b90508701358b610e60565b96601f198416825f52865f20985f905b828210610ef757505097610e87939291855f80516020611f3183398151915298999a10610ede575b5050600184811b019055610e76565b8601355f19600387901b60f8161c191690558880610ecf565b878401358b55998a01999288019290880190610ea7565b5163683d806b60e11b81528590fd5b9050346101bb57602090816003193601126101bb576001600160a01b039283610f44611434565b169384156113f257845f526010845260ff825f20541680156113e2575b61076357815163767cb5bf60e01b815283810186905293907f0000000000000000000000000000000000000000000000000000000000000000168185602481845afa9485156113d8575f956113a9575b50825163f294e24960e01b8152848101879052905f82602481845afa91821561139f575f92611329575b508351631b69303960e31b8152858101889052918383602481855afa92831561131f575f936112e7575b50845163c9592a8760e01b8152868101899052958487602481865afa9687156112dd575f976112ae575b50871580806112a6575b611297571590818061128e575b61128057895f5260108652865f2091600192600160ff19825416179055611102575b505050917f29fddb7d0b1570e2aa8ca46a23875ce3300e514fb06e1890f47525a100a0e1c595939160609593885f52600783526110b382855f209060ff801983541691151516179055565b6008835284845f2055846110d4575b508251948552151590840152820152a2005b811515897ff3eea6a6e86654f0b0d544a5445a1c06e8a95e7a781e8f93e8fdab133b242fb15f80a45f6110c2565b60028652865f20918351916001600160401b03831161094257509082916111358261112f8e9796546114ef565b85611592565b8790601f83116001146111db57506111c160609a9896948c9a989693946111a1867f29fddb7d0b1570e2aa8ca46a23875ce3300e514fb06e1890f47525a100a0e1c59f975f80516020611f31833981519152965f916111d057508160011b915f199060031b1c19161790565b90555b835f526003885284895f20558851918291898352898301906114ca565b0390a391939581939597611068565b90508401515f610e60565b90601f198316845f52895f20925f905b828210611266575050948c9a989693946001867f29fddb7d0b1570e2aa8ca46a23875ce3300e514fb06e1890f47525a100a0e1c59f979560609f9d9b99955f80516020611f31833981519152976111c1971061124e575b5050811b0190556111a4565b8501515f1960f88460031b161c191690555f80611242565b8784015185558f985093840193928b0192908b01906111eb565b865163683d806b60e11b8152fd5b50825115611046565b50855163a88ee57760e01b8152fd5b508715611039565b9096508481813d83116112d6575b6112c68183611556565b810103126101bb5751955f61102f565b503d6112bc565b86513d5f823e3d90fd5b9092508381813d8311611318575b6112ff8183611556565b810103126101bb575180151581036101bb57915f611005565b503d6112f5565b85513d5f823e3d90fd5b9091503d805f833e61133b8183611556565b81019083818303126101bb578051906001600160401b0382116101bb570181601f820112156101bb57805161136f81611577565b9261137c87519485611556565b8184528582840101116101bb57611398918580850191016114a9565b905f610fdb565b84513d5f823e3d90fd5b9094508181813d83116113d1575b6113c18183611556565b810103126101bb5751935f610fb1565b503d6113b7565b83513d5f823e3d90fd5b5060038452815f20541515610f61565b505163d92e233d60e01b8152fd5b8390346101bb5760203660031901126101bb576020916001600160a01b03611426611434565b165f52600c83525f20548152f35b600435906001600160a01b03821682036101bb57565b9181601f840112156101bb578235916001600160401b0383116101bb57602083818601950101116101bb57565b600319906020818301126101bb57600435916001600160401b0383116101bb5782610140920301126101bb5760040190565b5f5b8381106114ba5750505f910152565b81810151838201526020016114ab565b906020916114e3815180928185528580860191016114a9565b601f01601f1916010190565b90600182811c9216801561151d575b602083101461150957565b634e487b7160e01b5f52602260045260245ffd5b91607f16916114fe565b604081019081106001600160401b0382111761154257604052565b634e487b7160e01b5f52604160045260245ffd5b90601f801991011681019081106001600160401b0382111761154257604052565b6001600160401b03811161154257601f01601f191660200190565b601f821161159f57505050565b5f5260205f20906020601f840160051c830193106115d7575b601f0160051c01905b8181106115cc575050565b5f81556001016115c1565b90915081906115b8565b908060209392818452848401375f828201840152601f01601f1916010190565b356001600160a01b03811681036101bb5790565b92919261162182611577565b9161162f6040519384611556565b8294818452818301116101bb578281602093845f960137010152565b903590601e19813603018212156101bb57018035906001600160401b0382116101bb576020019181360383136101bb57565b356001600160401b03811681036101bb5790565b6001600160a01b03806116a383611601565b1615611790576116b282611601565b165f52600d602052604090815f20546101008201350361177f576116d9602082018261164b565b9050158015611769575b6117585760a081013515611758578060e061171992019060c06117058361167d565b916001600160401b0394859283920161167d565b16911611156117475761172b9061167d565b42911611156117375750565b51632f7a107b60e11b8152600490fd5b825163899a199560e01b8152600490fd5b8151635ece16ad60e11b8152600490fd5b50611777608082018261164b565b9050156116e3565b8151630bce464360e11b8152600490fd5b60405163d92e233d60e01b8152600490fd5b6117ab81611601565b60206117c36117bc8285018561164b565b3691611615565b818151910120926117da6117bc604083018361164b565b828151910120936117f16117bc606084018461164b565b838151910120946118086117bc608085018561164b565b84815191012061181a60c0850161167d565b9061182760e0860161167d565b976101009361012095604051988901997f6fc1df6c16349cb211dfcdfa82febe1779e3fa6694f77913cbee8baa60c24b2a8b5260018060a01b031660408a01526060890152608088015260a087015260c086015260a084013560e08601526001600160401b03968780921683870152168285015282013561014084015261016091013581830152815261018081019281841090841117611542576042926040525190206118d2611d79565b906040519161190160f01b8352600283015260228201522090565b906001600160a01b036118ff83611601565b165f908152600a60205260409020805460ff191660011790556001600160a01b0361192983611601565b165f52600b6020524260405f20556001600160401b0361194b60e0840161167d565b166001600160a01b0361195d84611601565b165f908152600c6020526040902055610120820135916001600160a01b0361198482611601565b165f908152600e6020526040902083905560a0810135916001600160a01b036119ac83611601565b165f52600f6020528260405f205561010082013560018101809111611aea576001600160a01b036119dc84611601565b165f52600d60205260405f20556119f282611601565b6119ff602084018461164b565b91909260408501611a10908661164b565b90611a1e606088018861164b565b90611a2c60808a018a61164b565b92909360c08b01611a3c9061167d565b9a60e001611a499061167d565b956040519a8b9a60e08c5260e08c0190611a62926115e1565b908a820360208c0152611a74926115e1565b9088820360408a0152611a86926115e1565b908682036060880152611a98926115e1565b6001600160401b039687166080860152951660a08401526001600160a01b0390811660c084015216927fc74606eb94c093dff8e5701d328074585c55b91200376f3e1dbd181dc409af8e9291900390a4565b634e487b7160e01b5f52601160045260245ffd5b8151919060418303611b2e57611b279250602082015190606060408401519301515f1a90611ea3565b9192909190565b50505f9160029190565b6004811015611ba75780611b4a575050565b60018103611b645760405163f645eedf60e01b8152600490fd5b60028103611b855760405163fce698f760e01b815260048101839052602490fd5b600314611b8f5750565b602490604051906335e2f38360e21b82526004820152fd5b634e487b7160e01b5f52602160045260245ffd5b60ff8114611bf95760ff811690601f8211611be75760405191611bdd83611527565b8252602082015290565b604051632cd44ac360e21b8152600490fd5b506040515f815f5491611c0b836114ef565b80835292602090600190818116908115611c975750600114611c39575b5050611c3692500382611556565b90565b9150925f80527f290decd9548b62a8d60345a988386fc84ba6bc95484008f6362f93160ef3e563935f925b828410611c7f5750611c369450505081016020015f80611c28565b85548785018301529485019486945092810192611c64565b91505060209250611c3694915060ff191682840152151560051b8201015f80611c28565b60ff8114611cdd5760ff811690601f8211611be75760405191611bdd83611527565b506040515f81600191600154611cf2816114ef565b8084529360209160018116908115611c975750600114611d1a575050611c3692500382611556565b91509260015f527fb10e2d527612073b26eecdfd717e6a320cf44b4afac2b0732d9fcbe2b7fa0cf6935f925b828410611d615750611c369450505081016020015f80611c28565b85548785018301529485019486945092810192611d46565b307f00000000000000000000000000000000000000000000000000000000000000006001600160a01b03161480611e7a575b15611dd4577f000000000000000000000000000000000000000000000000000000000000000090565b60405160208101907f8b73c3c69bb8fe3d512ecc4cf759cc79239f7b179b0ffacaa9a75d522b39400f82527f000000000000000000000000000000000000000000000000000000000000000060408201527f000000000000000000000000000000000000000000000000000000000000000060608201524660808201523060a082015260a0815260c081018181106001600160401b038211176115425760405251902090565b507f00000000000000000000000000000000000000000000000000000000000000004614611dab565b91907f7fffffffffffffffffffffffffffffff5d576e7357a4501ddfe92f46681b20a08411611f25579160209360809260ff5f9560405194855216868401526040830152606082015282805260015afa15611f1a575f516001600160a01b03811615611f1057905f905f90565b505f906001905f90565b6040513d5f823e3d90fd5b5050505f916003919056fe5055a48efcd294523de4f471b7ef149b2de92c815f45a7c72a4df708e6c34954a26469706673582212200a1860bec1b6f81630c0c7e8fa3b58bc05860c56ee4ea1aa60c71690546b178364736f6c63430008180033000000000000000000000000a229f3c9851e26fc9ea18157b88cd1cda6f90e55000000000000000000000000651fb29e69bde3ade988e8e75e9a3012272d2de5",
        "nonce": "0x7e",
        "chainId": "0x1"
      },
      "additionalContracts": [],
      "isFixedGasLimit": false
    },
    {
      "hash": "0x713faed584b379b8758fab268cabec44149db50353a6bb12d93cb7cc00ef7b22",
      "transactionType": "CALL",
      "contractName": "GrowfiProducerRegistryV2",
      "contractAddress": "0x267901bb08cb864b204d92185fac8d6f9dee0f98",
      "function": "migrateLegacyProducer(address)",
      "arguments": [
        "0x06a2608413384F4B9a52576f4f79ceb358c7FC42"
      ],
      "transaction": {
        "from": "0xa229f3c9851e26fc9ea18157b88cd1cda6f90e55",
        "to": "0x267901bb08cb864b204d92185fac8d6f9dee0f98",
        "gas": "0x431cc",
        "value": "0x0",
        "input": "0x190b0cdc00000000000000000000000006a2608413384f4b9a52576f4f79ceb358c7fc42",
        "nonce": "0x7f",
        "chainId": "0x1"
      },
      "additionalContracts": [],
      "isFixedGasLimit": false
    },
    {
      "hash": "0xbff36353b277e091b2c754f5d26135d01c8daeb6495de31a9c6fbb170c2a4869",
      "transactionType": "CALL",
      "contractName": "GrowfiProducerRegistryV2",
      "contractAddress": "0x267901bb08cb864b204d92185fac8d6f9dee0f98",
      "function": "migrateLegacyProducer(address)",
      "arguments": [
        "0xC3FFeb3560EE7FF68C46c1D4162Ed61497ec5268"
      ],
      "transaction": {
        "from": "0xa229f3c9851e26fc9ea18157b88cd1cda6f90e55",
        "to": "0x267901bb08cb864b204d92185fac8d6f9dee0f98",
        "gas": "0x431cc",
        "value": "0x0",
        "input": "0x190b0cdc000000000000000000000000c3ffeb3560ee7ff68c46c1d4162ed61497ec5268",
        "nonce": "0x80",
        "chainId": "0x1"
      },
      "additionalContracts": [],
      "isFixedGasLimit": false
    },
    {
      "hash": "0x7d8f29f4b249a1b492fc489e97338b85a1afc032f366d22740aca58aa35ee4a9",
      "transactionType": "CALL",
      "contractName": "GrowfiProducerRegistryV2",
      "contractAddress": "0x267901bb08cb864b204d92185fac8d6f9dee0f98",
      "function": "migrateLegacyProducer(address)",
      "arguments": [
        "0xE6c30AD5AeE7AD22e9F39D51d67667587cdD05A1"
      ],
      "transaction": {
        "from": "0xa229f3c9851e26fc9ea18157b88cd1cda6f90e55",
        "to": "0x267901bb08cb864b204d92185fac8d6f9dee0f98",
        "gas": "0x431cc",
        "value": "0x0",
        "input": "0x190b0cdc000000000000000000000000e6c30ad5aee7ad22e9f39d51d67667587cdd05a1",
        "nonce": "0x81",
        "chainId": "0x1"
      },
      "additionalContracts": [],
      "isFixedGasLimit": false
    },
    {
      "hash": "0xbf65c69256a0c9730cbedeffc9ae5eb51c55697e5f55799398b710c58d4af7aa",
      "transactionType": "CALL",
      "contractName": "GrowfiProducerRegistryV2",
      "contractAddress": "0x267901bb08cb864b204d92185fac8d6f9dee0f98",
      "function": "grantSocialVerifier(address)",
      "arguments": [
        "0x5e55B7b90F26C980eFaCa5556D56350Ff2157B7c"
      ],
      "transaction": {
        "from": "0xa229f3c9851e26fc9ea18157b88cd1cda6f90e55",
        "to": "0x267901bb08cb864b204d92185fac8d6f9dee0f98",
        "gas": "0x10324",
        "value": "0x0",
        "input": "0x85f521e20000000000000000000000005e55b7b90f26c980efaca5556d56350ff2157b7c",
        "nonce": "0x82",
        "chainId": "0x1"
      },
      "additionalContracts": [],
      "isFixedGasLimit": false
    },
    {
      "hash": "0xe831af965c87c10b65e9a75ae510d27f6e6a6947134dcc10647a239d15ccd828",
      "transactionType": "CALL",
      "contractName": null,
      "contractAddress": "0xa7b39296258348c78294f95b872b282326a97bdf",
      "function": "register(string,address,bool)",
      "arguments": [
        "string protocol,address grower,string platform,string handle,string profileUrl,string proofUrl,bytes32 proofHash,uint64 issuedAt,uint64 expiresAt,uint256 nonce",
        "0x0000000000000000000000000000000000000000",
        "true"
      ],
      "transaction": {
        "from": "0xa229f3c9851e26fc9ea18157b88cd1cda6f90e55",
        "to": "0xa7b39296258348c78294f95b872b282326a97bdf",
        "gas": "0x4517f",
        "value": "0x0",
        "input": "0x60d7a278000000000000000000000000000000000000000000000000000000000000006000000000000000000000000000000000000000000000000000000000000000000000000000000000000000000000000000000000000000000000000000000001000000000000000000000000000000000000000000000000000000000000009f737472696e672070726f746f636f6c2c616464726573732067726f7765722c737472696e6720706c6174666f726d2c737472696e672068616e646c652c737472696e672070726f66696c6555726c2c737472696e672070726f6f6655726c2c627974657333322070726f6f66486173682c75696e7436342069737375656441742c75696e743634206578706972657341742c75696e74323536206e6f6e636500",
        "nonce": "0x83",
        "chainId": "0x1"
      },
      "additionalContracts": [],
      "isFixedGasLimit": false
    }
  ],
  "receipts": [
    {
      "status": "0x1",
      "cumulativeGasUsed": "0xe98a78",
      "logs": [
        {
          "address": "0x267901bb08cb864b204d92185fac8d6f9dee0f98",
          "topics": [
            "0x8be0079c531659141344cd1fd0a4f28419497f9722a3daafe3b4186f6b6457e0",
            "0x0000000000000000000000000000000000000000000000000000000000000000",
            "0x000000000000000000000000a229f3c9851e26fc9ea18157b88cd1cda6f90e55"
          ],
          "data": "0x",
          "blockHash": "0x6ac3bb378b9b606ec0775b13c626cbdaa2c1fa05f8c9bbb1433d5ced79bbc05d",
          "blockNumber": "0x18523c1",
          "blockTimestamp": "0x6a50fb63",
          "transactionHash": "0x6f1a5d0e90867151be93a459927058e3de02cb6ecb516afaeca87bcd8cde42b3",
          "transactionIndex": "0x10",
          "logIndex": "0x11f",
          "removed": false
        }
      ],
      "logsBloom": "0x00000000000000000001000000008000000000000000000000800000000000000000000000000000000000000000000000000000000000000000000000000000000000000002000000000000000000000081000000000000000000000000000000000000020000000000000000000800000000000000000000000000000000400000000000000000000000000040000000000000000000000000000000000000000000000000000000000000000000000000000000000000000000000000000000000000000000000000000000000000000200000000000000000000000020000000000000000000000000000000000000000000000000000000000000000000",
      "type": "0x2",
      "transactionHash": "0x6f1a5d0e90867151be93a459927058e3de02cb6ecb516afaeca87bcd8cde42b3",
      "transactionIndex": "0x10",
      "blockHash": "0x6ac3bb378b9b606ec0775b13c626cbdaa2c1fa05f8c9bbb1433d5ced79bbc05d",
      "blockNumber": "0x18523c1",
      "gasUsed": "0x1c410e",
      "effectiveGasPrice": "0x12ab418d",
      "from": "0xa229f3c9851e26fc9ea18157b88cd1cda6f90e55",
      "to": null,
      "contractAddress": "0x267901bb08cb864b204d92185fac8d6f9dee0f98"
    },
    {
      "status": "0x1",
      "cumulativeGasUsed": "0x11ebd46",
      "logs": [
        {
          "address": "0x267901bb08cb864b204d92185fac8d6f9dee0f98",
          "topics": [
            "0x5055a48efcd294523de4f471b7ef149b2de92c815f45a7c72a4df708e6c34954",
            "0x00000000000000000000000006a2608413384f4b9a52576f4f79ceb358c7fc42",
            "0x0000000000000000000000000000000000000000000000000000000000000001"
          ],
          "data": "0x0000000000000000000000000000000000000000000000000000000000000020000000000000000000000000000000000000000000000000000000000000004c68747470733a2f2f67726f7766692d6d656469612e667261312e6469676974616c6f6365616e7370616365732e636f6d2f70726f6475636572732f31394b6334355278772d63712e6a736f6e0000000000000000000000000000000000000000",
          "blockHash": "0xd5f35ccd10765e5ebc3aab85d34962ea749e3b20f0880fb159680783822b552d",
          "blockNumber": "0x18523c3",
          "blockTimestamp": "0x6a50fb7b",
          "transactionHash": "0x713faed584b379b8758fab268cabec44149db50353a6bb12d93cb7cc00ef7b22",
          "transactionIndex": "0xbd",
          "logIndex": "0x1b1",
          "removed": false
        },
        {
          "address": "0x267901bb08cb864b204d92185fac8d6f9dee0f98",
          "topics": [
            "0x29fddb7d0b1570e2aa8ca46a23875ce3300e514fb06e1890f47525a100a0e1c5",
            "0x00000000000000000000000006a2608413384f4b9a52576f4f79ceb358c7fc42"
          ],
          "data": "0x000000000000000000000000000000000000000000000000000000000000000100000000000000000000000000000000000000000000000000000000000000000000000000000000000000000000000000000000000000000000000000000000",
          "blockHash": "0xd5f35ccd10765e5ebc3aab85d34962ea749e3b20f0880fb159680783822b552d",
          "blockNumber": "0x18523c3",
          "blockTimestamp": "0x6a50fb7b",
          "transactionHash": "0x713faed584b379b8758fab268cabec44149db50353a6bb12d93cb7cc00ef7b22",
          "transactionIndex": "0xbd",
          "logIndex": "0x1b2",
          "removed": false
        }
      ],
      "logsBloom": "0x00000000000000000000000000008000000000000000000000000000000000000000000000000000000000000000000000000000000000000000000000040000000000100000000000000000000000000000000000040000000000000000000000000000000000002000000000000000000000020000000000000000000000000000000000000000000000000040000000000000000000000000000000000000000000000000000000000000000000004000000100000000000000000000000000000000000020000000000000000020000200000000000000000000000040000000000200000000000000080000000000000000000000000000000000000000",
      "type": "0x2",
      "transactionHash": "0x713faed584b379b8758fab268cabec44149db50353a6bb12d93cb7cc00ef7b22",
      "transactionIndex": "0xbd",
      "blockHash": "0xd5f35ccd10765e5ebc3aab85d34962ea749e3b20f0880fb159680783822b552d",
      "blockNumber": "0x18523c3",
      "gasUsed": "0x2de39",
      "effectiveGasPrice": "0x1281dae3",
      "from": "0xa229f3c9851e26fc9ea18157b88cd1cda6f90e55",
      "to": "0x267901bb08cb864b204d92185fac8d6f9dee0f98",
      "contractAddress": null
    },
    {
      "status": "0x1",
      "cumulativeGasUsed": "0x17d1deb",
      "logs": [
        {
          "address": "0x267901bb08cb864b204d92185fac8d6f9dee0f98",
          "topics": [
            "0x5055a48efcd294523de4f471b7ef149b2de92c815f45a7c72a4df708e6c34954",
            "0x000000000000000000000000c3ffeb3560ee7ff68c46c1d4162ed61497ec5268",
            "0x0000000000000000000000000000000000000000000000000000000000000001"
          ],
          "data": "0x0000000000000000000000000000000000000000000000000000000000000020000000000000000000000000000000000000000000000000000000000000004c68747470733a2f2f67726f7766692d6d656469612e667261312e6469676974616c6f6365616e7370616365732e636f6d2f70726f6475636572732f5a545a415568787758554f472e6a736f6e0000000000000000000000000000000000000000",
          "blockHash": "0xb6986c7e8724b391b1ed3bcb068721e6f64df1f411c4c83fd3fbe2ee7d52ebb4",
          "blockNumber": "0x18523c6",
          "blockTimestamp": "0x6a50fb9f",
          "transactionHash": "0xbff36353b277e091b2c754f5d26135d01c8daeb6495de31a9c6fbb170c2a4869",
          "transactionIndex": "0xbc",
          "logIndex": "0x205",
          "removed": false
        },
        {
          "address": "0x267901bb08cb864b204d92185fac8d6f9dee0f98",
          "topics": [
            "0x29fddb7d0b1570e2aa8ca46a23875ce3300e514fb06e1890f47525a100a0e1c5",
            "0x000000000000000000000000c3ffeb3560ee7ff68c46c1d4162ed61497ec5268"
          ],
          "data": "0x000000000000000000000000000000000000000000000000000000000000000100000000000000000000000000000000000000000000000000000000000000000000000000000000000000000000000000000000000000000000000000000000",
          "blockHash": "0xb6986c7e8724b391b1ed3bcb068721e6f64df1f411c4c83fd3fbe2ee7d52ebb4",
          "blockNumber": "0x18523c6",
          "blockTimestamp": "0x6a50fb9f",
          "transactionHash": "0xbff36353b277e091b2c754f5d26135d01c8daeb6495de31a9c6fbb170c2a4869",
          "transactionIndex": "0xbc",
          "logIndex": "0x206",
          "removed": false
        }
      ],
      "logsBloom": "0x00000000000000000000000000008000000000000000000000000000000000000000000000000000000000000000000000000000000000000000000000040000000000000000000000000000000000000000000000040000000000000000000000000000000000002000000000000002000000000000000000000000000000000000000000000000000000000040000000000000000000000000000000000000000000000000000000000000000000004000000100000000000000000000000000000000000020000000000000000020000200000000000000000000000040000000000000000000000000080080020000000000000000000000000000000000",
      "type": "0x2",
      "transactionHash": "0xbff36353b277e091b2c754f5d26135d01c8daeb6495de31a9c6fbb170c2a4869",
      "transactionIndex": "0xbc",
      "blockHash": "0xb6986c7e8724b391b1ed3bcb068721e6f64df1f411c4c83fd3fbe2ee7d52ebb4",
      "blockNumber": "0x18523c6",
      "gasUsed": "0x2de39",
      "effectiveGasPrice": "0x118626d7",
      "from": "0xa229f3c9851e26fc9ea18157b88cd1cda6f90e55",
      "to": "0x267901bb08cb864b204d92185fac8d6f9dee0f98",
      "contractAddress": null
    },
    {
      "status": "0x1",
      "cumulativeGasUsed": "0x13187c3",
      "logs": [
        {
          "address": "0x267901bb08cb864b204d92185fac8d6f9dee0f98",
          "topics": [
            "0x5055a48efcd294523de4f471b7ef149b2de92c815f45a7c72a4df708e6c34954",
            "0x000000000000000000000000e6c30ad5aee7ad22e9f39d51d67667587cdd05a1",
            "0x0000000000000000000000000000000000000000000000000000000000000001"
          ],
          "data": "0x0000000000000000000000000000000000000000000000000000000000000020000000000000000000000000000000000000000000000000000000000000004c68747470733a2f2f67726f7766692d6d656469612e667261312e6469676974616c6f6365616e7370616365732e636f6d2f70726f6475636572732f716c423572495f724c467a552e6a736f6e0000000000000000000000000000000000000000",
          "blockHash": "0xf9bdf2a3fa5e33da38d0ff4c82c20a584ac07b0db160bec61544537d83a9e5d4",
          "blockNumber": "0x18523c7",
          "blockTimestamp": "0x6a50fbab",
          "transactionHash": "0x7d8f29f4b249a1b492fc489e97338b85a1afc032f366d22740aca58aa35ee4a9",
          "transactionIndex": "0xc5",
          "logIndex": "0x284",
          "removed": false
        },
        {
          "address": "0x267901bb08cb864b204d92185fac8d6f9dee0f98",
          "topics": [
            "0x29fddb7d0b1570e2aa8ca46a23875ce3300e514fb06e1890f47525a100a0e1c5",
            "0x000000000000000000000000e6c30ad5aee7ad22e9f39d51d67667587cdd05a1"
          ],
          "data": "0x000000000000000000000000000000000000000000000000000000000000000100000000000000000000000000000000000000000000000000000000000000000000000000000000000000000000000000000000000000000000000000000000",
          "blockHash": "0xf9bdf2a3fa5e33da38d0ff4c82c20a584ac07b0db160bec61544537d83a9e5d4",
          "blockNumber": "0x18523c7",
          "blockTimestamp": "0x6a50fbab",
          "transactionHash": "0x7d8f29f4b249a1b492fc489e97338b85a1afc032f366d22740aca58aa35ee4a9",
          "transactionIndex": "0xc5",
          "logIndex": "0x285",
          "removed": false
        }
      ],
      "logsBloom": "0x00000000000000000000000000008000000000000000000000000000000000000000000000000000000000000000000000000000000000000000000000040000000000000000000000000000000000000000000000040000000000000000000000000000000000002000000000000000010000000000000000000000000000000000000000000000000000000040000000000000000000000000000000000000000000000000000000000000000000004000000100000000000000000000000000000000000020000000000000000020000200000000004000000000000040000000000000000000000000080000000000000400000000000000000000000000",
      "type": "0x2",
      "transactionHash": "0x7d8f29f4b249a1b492fc489e97338b85a1afc032f366d22740aca58aa35ee4a9",
      "transactionIndex": "0xc5",
      "blockHash": "0xf9bdf2a3fa5e33da38d0ff4c82c20a584ac07b0db160bec61544537d83a9e5d4",
      "blockNumber": "0x18523c7",
      "gasUsed": "0x2de39",
      "effectiveGasPrice": "0x12c98017",
      "from": "0xa229f3c9851e26fc9ea18157b88cd1cda6f90e55",
      "to": "0x267901bb08cb864b204d92185fac8d6f9dee0f98",
      "contractAddress": null
    },
    {
      "status": "0x1",
      "cumulativeGasUsed": "0x1299a72",
      "logs": [
        {
          "address": "0x267901bb08cb864b204d92185fac8d6f9dee0f98",
          "topics": [
            "0xce6c406887191d57809d5baea0f0e748ec504d65801f78692c7cf6673a03601a",
            "0x0000000000000000000000005e55b7b90f26c980efaca5556d56350ff2157b7c",
            "0x000000000000000000000000a229f3c9851e26fc9ea18157b88cd1cda6f90e55"
          ],
          "data": "0x",
          "blockHash": "0xa0c79bef87b3a3f14a4d4317bb8021802d8a590250739870fe825f7f5c73ff5d",
          "blockNumber": "0x18523c8",
          "blockTimestamp": "0x6a50fbb7",
          "transactionHash": "0xbf65c69256a0c9730cbedeffc9ae5eb51c55697e5f55799398b710c58d4af7aa",
          "transactionIndex": "0xe5",
          "logIndex": "0x2a4",
          "removed": false
        }
      ],
      "logsBloom": "0x00000000000000000001000000008000000000000000000000000000000000000000000000000000000000000000000000000000000000000000000000000000000000000002000000000000000000000080000000000000000000000000000000000000000000000000000000000020000000000000000000000000000000010000000000000000000000000040000000000000000000000000000000000000000000000000000000000000000000000000000000000000000000000000000000000000000000000008000000000000002200000000000000000000000000000000000000004000000000000000000000000000000000000000020000000000",
      "type": "0x2",
      "transactionHash": "0xbf65c69256a0c9730cbedeffc9ae5eb51c55697e5f55799398b710c58d4af7aa",
      "transactionIndex": "0xe5",
      "blockHash": "0xa0c79bef87b3a3f14a4d4317bb8021802d8a590250739870fe825f7f5c73ff5d",
      "blockNumber": "0x18523c8",
      "gasUsed": "0xbb9e",
      "effectiveGasPrice": "0x12e36f91",
      "from": "0xa229f3c9851e26fc9ea18157b88cd1cda6f90e55",
      "to": "0x267901bb08cb864b204d92185fac8d6f9dee0f98",
      "contractAddress": null
    },
    {
      "status": "0x1",
      "cumulativeGasUsed": "0x1d66400",
      "logs": [
        {
          "address": "0xa7b39296258348c78294f95b872b282326a97bdf",
          "topics": [
            "0x7d917fcbc9a29a9705ff9936ffa599500e4fd902e4486bae317414fe967b307c",
            "0x78422879833ca667e9b3ea79d6aaa24328d751493bbd42c92d271d7e94f40caa"
          ],
          "data": "0x000000000000000000000000a229f3c9851e26fc9ea18157b88cd1cda6f90e55",
          "blockHash": "0x4fb73ff279e946f13c1d1f688f1ff2c78803a28e2bf938bd5d20b5017191663e",
          "blockNumber": "0x18523ca",
          "blockTimestamp": "0x6a50fbcf",
          "transactionHash": "0xe831af965c87c10b65e9a75ae510d27f6e6a6947134dcc10647a239d15ccd828",
          "transactionIndex": "0xff",
          "logIndex": "0x262",
          "removed": false
        }
      ],
      "logsBloom": "0x00000000000000000000000000000000000000000000000000000000000000000000000000000000000000000000000000000000000000000000000000000000000000000000000000000000000000000000000000000000000000000000000000000200000000000000900000000000000000000100000000000000000000000000000000000010000000000000000000000000000000000000000000000000000000000000000000020000000000000400000000000000000000000000000000000000000000000000000000000000000000020000000000000020000000000000000000000000000000000000000000000000000000000000000000000000",
      "type": "0x2",
      "transactionHash": "0xe831af965c87c10b65e9a75ae510d27f6e6a6947134dcc10647a239d15ccd828",
      "transactionIndex": "0xff",
      "blockHash": "0x4fb73ff279e946f13c1d1f688f1ff2c78803a28e2bf938bd5d20b5017191663e",
      "blockNumber": "0x18523ca",
      "gasUsed": "0x3205d",
      "effectiveGasPrice": "0x121fd625",
      "from": "0xa229f3c9851e26fc9ea18157b88cd1cda6f90e55",
      "to": "0xa7b39296258348c78294f95b872b282326a97bdf",
      "contractAddress": null
    }
  ],
  "libraries": [],
  "pending": [],
  "returns": {},
  "timestamp": 1783692242443,
  "chain": 1,
  "commit": "6418381"
}