{
  "transactions": [
    {
      "hash": "0xebf3d0c921b05aa36ab5a2ac46a87530bffaecb9e7cecba2ba0da6790cf87831",
      "transactionType": "CALL",
      "contractName": "TransparentUpgradeableProxy",
      "contractAddress": "0x5178a4ab4c6400ceeb812663affd1bd5b0c9ff64",
      "function": null,
      "arguments": null,
      "transaction": {
        "from": "0xff6bdef4fb646ee44e29fe8fc0862b02f0ba8a33",
        "to": "0x5178a4ab4c6400ceeb812663affd1bd5b0c9ff64",
        "gas": "0xbc5e",
        "value": "0x0",
        "input": "0x4cd9c82d0000000000000000000000000000000000000000000000000000000000000708",
        "nonce": "0x6a",
        "chainId": "0x14a34"
      },
      "additionalContracts": [],
      "isFixedGasLimit": false
    },
    {
      "hash": "0x4390439b85f450bd6aabd8047154d2ff34a66453a42b7358de5b6f34ba0bd8d4",
      "transactionType": "CALL",
      "contractName": "TransparentUpgradeableProxy",
      "contractAddress": "0x5178a4ab4c6400ceeb812663affd1bd5b0c9ff64",
      "function": null,
      "arguments": null,
      "transaction": {
        "from": "0xff6bdef4fb646ee44e29fe8fc0862b02f0ba8a33",
        "to": "0x5178a4ab4c6400ceeb812663affd1bd5b0c9ff64",
        "gas": "0x4c1def",
        "value": "0x0",
        "input": "0x7df3f5040000000000000000000000000000000000000000000000000000000000000020000000000000000000000000ff6bdef4fb646ee44e29fe8fc0862b02f0ba8a33000000000000000000000000000000000000000000000000000000000000016000000000000000000000000000000000000000000000000000000000000001a000000000000000000000000000000000000000000000000000000000000001e0000000000000000000000000000000000000000000000000000000000000022000000000000000000000000000000000000000000000000001ff973cafa8000000000000000000000000000000000000000000000000001b1ae4d6e2ef50000000000000000000000000000000000000000000000000006c6b935b8bbd4000000000000000000000000000000000000000000000000000000000000069ebaa7e00000000000000000000000000000000000000000000000000000000000007080000000000000000000000000000000000000000000000000de0b6b3a764000000000000000000000000000000000000000000000000000000000000000000104f6c6976652049475020536963696c790000000000000000000000000000000000000000000000000000000000000000000000000000000000000000000000054f4c495645000000000000000000000000000000000000000000000000000000000000000000000000000000000000000000000000000000000000000000000b4f6c697665205969656c6400000000000000000000000000000000000000000000000000000000000000000000000000000000000000000000000000000000066f5949454c440000000000000000000000000000000000000000000000000000",
        "nonce": "0x6b",
        "chainId": "0x14a34"
      },
      "additionalContracts": [
        {
          "transactionType": "CREATE",
          "contractName": "TransparentUpgradeableProxy",
          "address": "0xa76a33fd6bc2e9d37d6a02d060e91ab4c84728d0",
          "initCode": "0x604060a08152610aac8038038061001581610268565b9283398101906060818303126102645761002e8161028d565b60209161003c83820161028d565b8582015190916001600160401b039190828211610264570185601f82011215610264578051908282116101ef5761007b601f8301601f19168701610268565b968288528683830101116102645785905f5b8381106102505750505f918701015284511561023f57823b1561021f577f360894a13ba1a3210667c828492db98dca3e2076cc3735a920a3ca505d382bbc80546001600160a01b03199081166001600160a01b03868116918217909355885192979195907fbc7cd75a20ee27fd9adebab32041f755214dbc6bffa90cc0225b39da2e5c2d3b5f80a28151156102035761012692506102a1565b505b85519161048391828401908111848210176101ef57868492879461062985391681520301905ff080156101e557831691826080527f7e644d79422f17c01e4894b5f4f588d331ebfa28653d42ae832dc59e38c9798f857fb53127684a568b3173ae13b9f8a6016e243e63b6e8ee1178d6a717850b5d6103958587549483519286168352820152a182156101ce5716179055516102f69081610333823960805181600f0152f35b8451633173bdd160e11b81525f6004820152602490fd5b84513d5f823e3d90fd5b634e487b7160e01b5f52604160045260245ffd5b5050346102105750610128565b63b398979f60e01b8152600490fd5b8551634c9c8ce360e01b81526001600160a01b0384166004820152602490fd5b85516330a289cf60e21b8152600490fd5b81810183015189820184015287920161008d565b5f80fd5b6040519190601f01601f191682016001600160401b038111838210176101ef57604052565b51906001600160a01b038216820361026457565b905f8091602081519101845af4808061031f575b156102d55750506040513d81523d5f602083013e60203d82010160405290565b156102fc57604051639996b31560e01b81526001600160a01b039091166004820152602490fd5b3d1561030d576040513d5f823e3d90fd5b60405163d6bda27560e01b8152600490fd5b503d1515806102b55750813b15156102b556fe60806040526001600160a01b03337f000000000000000000000000000000000000000000000000000000000000000082160361006a575f356001600160e01b03191663278f794360e11b14610060576040516334ad5dbb60e21b8152600490fd5b6100686100be565b005b5f80917f360894a13ba1a3210667c828492db98dca3e2076cc3735a920a3ca505d382bbc5416368280378136915af43d5f803e156100a6573d5ff35b3d5ffd5b634e487b7160e01b5f52604160045260245ffd5b3660041161015f57604036600319011261015f576004356001600160a01b0381169081900361015f576024359067ffffffffffffffff9081831161015f573660238401121561015f5782600401358281116101635760405192601f8201601f19908116603f011684019081118482101761016357604052808352366024828601011161015f576020815f92602461015d97018387013784010152610168565b565b5f80fd5b6100aa565b90813b156101ff577f360894a13ba1a3210667c828492db98dca3e2076cc3735a920a3ca505d382bbc80546001600160a01b0319166001600160a01b0384169081179091557fbc7cd75a20ee27fd9adebab32041f755214dbc6bffa90cc0225b39da2e5c2d3b5f80a28051156101e4576101e191610220565b50565b5050346101ed57565b60405163b398979f60e01b8152600490fd5b604051634c9c8ce360e01b81526001600160a01b0383166004820152602490fd5b905f8091602081519101845af48080610289575b156102465750506102436102a7565b90565b1561026e57604051639996b31560e01b81526001600160a01b03919091166004820152602490fd5b3d15155f0361029c5760405163d6bda27560e01b8152600490fd5b503d1515806102345750813b1515610234565b6040513d5f823e3d90fd5b604051903d82523d5f602084013e60203d83010160405256fea2646970667358221220371437a14d55b0192ed17af74450cdb0b22bf1f3d480185986e4348c96e968d064736f6c634300081800336080346100b957601f61048338819003918201601f19168301916001600160401b038311848410176100bd578084926020946040528339810103126100b957516001600160a01b0390818116908190036100b95780156100a1575f80546001600160a01b03198116831782556040519316907f8be0079c531659141344cd1fd0a4f28419497f9722a3daafe3b4186f6b6457e09080a36103b190816100d28239f35b604051631e4fbdf760e01b81525f6004820152602490fd5b5f80fd5b634e487b7160e01b5f52604160045260245ffdfe604060808152600480361015610013575f80fd5b5f915f3560e01c8063715018a6146102bb5780638da5cb5b146102945780639623609d1461015c578063ad3cb1cc146100eb5763f2fde38b14610054575f80fd5b346100e75760203660031901126100e7576001600160a01b038235818116939192908490036100e357610085610350565b83156100cd5750505f54826bffffffffffffffffffffffff60a01b8216175f55167f8be0079c531659141344cd1fd0a4f28419497f9722a3daafe3b4186f6b6457e05f80a380f35b51631e4fbdf760e01b8152908101849052602490fd5b5f80fd5b8280fd5b5082346101595780600319360112610159575080519080820182811067ffffffffffffffff821117610146576101429350815260058252640352e302e360dc1b602083015251918291602083526020830190610312565b0390f35b604184634e487b7160e01b5f525260245ffd5b80fd5b5060603660031901126100e3576001600160a01b03823581811693908490036100e35760249182359081168091036100e35767ffffffffffffffff906044358281116100e357366023820112156100e3578084013583811161028257865191601f8201601f19908116603f0116830185811184821017610270578852818352368783830101116100e357815f92886020930183860137830101526101fe610350565b863b156100e357610230965f92875180998194829363278f794360e11b8452898401528a8a8401526044830190610312565b039134905af1801561026657610244578580f35b909192938095501161025557505052005b604190634e487b7160e01b5f52525ffd5b84513d5f823e3d90fd5b87604188634e487b7160e01b5f52525ffd5b85604186634e487b7160e01b5f52525ffd5b50346100e3575f3660031901126100e3575f5490516001600160a01b039091168152602090f35b346100e3575f3660031901126100e3576102d3610350565b5f80546001600160a01b0319811682556001600160a01b03167f8be0079c531659141344cd1fd0a4f28419497f9722a3daafe3b4186f6b6457e08280a3005b91908251928382525f5b84811061033c575050825f602080949584010152601f8019910116010190565b60208183018101518483018201520161031c565b5f546001600160a01b0316330361036357565b60405163118cdaa760e01b8152336004820152602490fdfea26469706673582212202992a71449476404159c12582e1f3d5c014ae92bc1369e2e03b37152567a3c7d64736f6c63430008180033000000000000000000000000fb80bc2bced8cc7a97c5dd52e718981ef647eca2000000000000000000000000ff6bdef4fb646ee44e29fe8fc0862b02f0ba8a3300000000000000000000000000000000000000000000000000000000000000600000000000000000000000000000000000000000000000000000000000000164618c30b6000000000000000000000000ff6bdef4fb646ee44e29fe8fc0862b02f0ba8a330000000000000000000000005178a4ab4c6400ceeb812663affd1bd5b0c9ff6400000000000000000000000000000000000000000000000001ff973cafa8000000000000000000000000000000000000000000000000001b1ae4d6e2ef50000000000000000000000000000000000000000000000000006c6b935b8bbd4000000000000000000000000000000000000000000000000000000000000069ebaa7e000000000000000000000000000000000000000000000000000000000000070800000000000000000000000000000000000000000000000000000000000000c8000000000000000000000000000000000000000000000000000000000000012c000000000000000000000000ff6bdef4fb646ee44e29fe8fc0862b02f0ba8a33000000000000000000000000000000000000000000000000000000000000000000000000000000000000000000000000000000000000000000000000"
        },
        {
          "transactionType": "CREATE",
          "contractName": "ProxyAdmin",
          "address": "0x30fc4219cf26931336ec5befbcf73344c54deba3",
          "initCode": "0x6080346100b957601f61048338819003918201601f19168301916001600160401b038311848410176100bd578084926020946040528339810103126100b957516001600160a01b0390818116908190036100b95780156100a1575f80546001600160a01b03198116831782556040519316907f8be0079c531659141344cd1fd0a4f28419497f9722a3daafe3b4186f6b6457e09080a36103b190816100d28239f35b604051631e4fbdf760e01b81525f6004820152602490fd5b5f80fd5b634e487b7160e01b5f52604160045260245ffdfe604060808152600480361015610013575f80fd5b5f915f3560e01c8063715018a6146102bb5780638da5cb5b146102945780639623609d1461015c578063ad3cb1cc146100eb5763f2fde38b14610054575f80fd5b346100e75760203660031901126100e7576001600160a01b038235818116939192908490036100e357610085610350565b83156100cd5750505f54826bffffffffffffffffffffffff60a01b8216175f55167f8be0079c531659141344cd1fd0a4f28419497f9722a3daafe3b4186f6b6457e05f80a380f35b51631e4fbdf760e01b8152908101849052602490fd5b5f80fd5b8280fd5b5082346101595780600319360112610159575080519080820182811067ffffffffffffffff821117610146576101429350815260058252640352e302e360dc1b602083015251918291602083526020830190610312565b0390f35b604184634e487b7160e01b5f525260245ffd5b80fd5b5060603660031901126100e3576001600160a01b03823581811693908490036100e35760249182359081168091036100e35767ffffffffffffffff906044358281116100e357366023820112156100e3578084013583811161028257865191601f8201601f19908116603f0116830185811184821017610270578852818352368783830101116100e357815f92886020930183860137830101526101fe610350565b863b156100e357610230965f92875180998194829363278f794360e11b8452898401528a8a8401526044830190610312565b039134905af1801561026657610244578580f35b909192938095501161025557505052005b604190634e487b7160e01b5f52525ffd5b84513d5f823e3d90fd5b87604188634e487b7160e01b5f52525ffd5b85604186634e487b7160e01b5f52525ffd5b50346100e3575f3660031901126100e3575f5490516001600160a01b039091168152602090f35b346100e3575f3660031901126100e3576102d3610350565b5f80546001600160a01b0319811682556001600160a01b03167f8be0079c531659141344cd1fd0a4f28419497f9722a3daafe3b4186f6b6457e08280a3005b91908251928382525f5b84811061033c575050825f602080949584010152601f8019910116010190565b60208183018101518483018201520161031c565b5f546001600160a01b0316330361036357565b60405163118cdaa760e01b8152336004820152602490fdfea26469706673582212202992a71449476404159c12582e1f3d5c014ae92bc1369e2e03b37152567a3c7d64736f6c63430008180033000000000000000000000000ff6bdef4fb646ee44e29fe8fc0862b02f0ba8a33"
        },
        {
          "transactionType": "CREATE",
          "contractName": "TransparentUpgradeableProxy",
          "address": "0xf06b53ce00f1de55e65f9a2969e9d39124e5ddbb",
          "initCode": "0x604060a08152610aac8038038061001581610268565b9283398101906060818303126102645761002e8161028d565b60209161003c83820161028d565b8582015190916001600160401b039190828211610264570185601f82011215610264578051908282116101ef5761007b601f8301601f19168701610268565b968288528683830101116102645785905f5b8381106102505750505f918701015284511561023f57823b1561021f577f360894a13ba1a3210667c828492db98dca3e2076cc3735a920a3ca505d382bbc80546001600160a01b03199081166001600160a01b03868116918217909355885192979195907fbc7cd75a20ee27fd9adebab32041f755214dbc6bffa90cc0225b39da2e5c2d3b5f80a28151156102035761012692506102a1565b505b85519161048391828401908111848210176101ef57868492879461062985391681520301905ff080156101e557831691826080527f7e644d79422f17c01e4894b5f4f588d331ebfa28653d42ae832dc59e38c9798f857fb53127684a568b3173ae13b9f8a6016e243e63b6e8ee1178d6a717850b5d6103958587549483519286168352820152a182156101ce5716179055516102f69081610333823960805181600f0152f35b8451633173bdd160e11b81525f6004820152602490fd5b84513d5f823e3d90fd5b634e487b7160e01b5f52604160045260245ffd5b5050346102105750610128565b63b398979f60e01b8152600490fd5b8551634c9c8ce360e01b81526001600160a01b0384166004820152602490fd5b85516330a289cf60e21b8152600490fd5b81810183015189820184015287920161008d565b5f80fd5b6040519190601f01601f191682016001600160401b038111838210176101ef57604052565b51906001600160a01b038216820361026457565b905f8091602081519101845af4808061031f575b156102d55750506040513d81523d5f602083013e60203d82010160405290565b156102fc57604051639996b31560e01b81526001600160a01b039091166004820152602490fd5b3d1561030d576040513d5f823e3d90fd5b60405163d6bda27560e01b8152600490fd5b503d1515806102b55750813b15156102b556fe60806040526001600160a01b03337f000000000000000000000000000000000000000000000000000000000000000082160361006a575f356001600160e01b03191663278f794360e11b14610060576040516334ad5dbb60e21b8152600490fd5b6100686100be565b005b5f80917f360894a13ba1a3210667c828492db98dca3e2076cc3735a920a3ca505d382bbc5416368280378136915af43d5f803e156100a6573d5ff35b3d5ffd5b634e487b7160e01b5f52604160045260245ffd5b3660041161015f57604036600319011261015f576004356001600160a01b0381169081900361015f576024359067ffffffffffffffff9081831161015f573660238401121561015f5782600401358281116101635760405192601f8201601f19908116603f011684019081118482101761016357604052808352366024828601011161015f576020815f92602461015d97018387013784010152610168565b565b5f80fd5b6100aa565b90813b156101ff577f360894a13ba1a3210667c828492db98dca3e2076cc3735a920a3ca505d382bbc80546001600160a01b0319166001600160a01b0384169081179091557fbc7cd75a20ee27fd9adebab32041f755214dbc6bffa90cc0225b39da2e5c2d3b5f80a28051156101e4576101e191610220565b50565b5050346101ed57565b60405163b398979f60e01b8152600490fd5b604051634c9c8ce360e01b81526001600160a01b0383166004820152602490fd5b905f8091602081519101845af48080610289575b156102465750506102436102a7565b90565b1561026e57604051639996b31560e01b81526001600160a01b03919091166004820152602490fd5b3d15155f0361029c5760405163d6bda27560e01b8152600490fd5b503d1515806102345750813b1515610234565b6040513d5f823e3d90fd5b604051903d82523d5f602084013e60203d83010160405256fea2646970667358221220371437a14d55b0192ed17af74450cdb0b22bf1f3d480185986e4348c96e968d064736f6c634300081800336080346100b957601f61048338819003918201601f19168301916001600160401b038311848410176100bd578084926020946040528339810103126100b957516001600160a01b0390818116908190036100b95780156100a1575f80546001600160a01b03198116831782556040519316907f8be0079c531659141344cd1fd0a4f28419497f9722a3daafe3b4186f6b6457e09080a36103b190816100d28239f35b604051631e4fbdf760e01b81525f6004820152602490fd5b5f80fd5b634e487b7160e01b5f52604160045260245ffdfe604060808152600480361015610013575f80fd5b5f915f3560e01c8063715018a6146102bb5780638da5cb5b146102945780639623609d1461015c578063ad3cb1cc146100eb5763f2fde38b14610054575f80fd5b346100e75760203660031901126100e7576001600160a01b038235818116939192908490036100e357610085610350565b83156100cd5750505f54826bffffffffffffffffffffffff60a01b8216175f55167f8be0079c531659141344cd1fd0a4f28419497f9722a3daafe3b4186f6b6457e05f80a380f35b51631e4fbdf760e01b8152908101849052602490fd5b5f80fd5b8280fd5b5082346101595780600319360112610159575080519080820182811067ffffffffffffffff821117610146576101429350815260058252640352e302e360dc1b602083015251918291602083526020830190610312565b0390f35b604184634e487b7160e01b5f525260245ffd5b80fd5b5060603660031901126100e3576001600160a01b03823581811693908490036100e35760249182359081168091036100e35767ffffffffffffffff906044358281116100e357366023820112156100e3578084013583811161028257865191601f8201601f19908116603f0116830185811184821017610270578852818352368783830101116100e357815f92886020930183860137830101526101fe610350565b863b156100e357610230965f92875180998194829363278f794360e11b8452898401528a8a8401526044830190610312565b039134905af1801561026657610244578580f35b909192938095501161025557505052005b604190634e487b7160e01b5f52525ffd5b84513d5f823e3d90fd5b87604188634e487b7160e01b5f52525ffd5b85604186634e487b7160e01b5f52525ffd5b50346100e3575f3660031901126100e3575f5490516001600160a01b039091168152602090f35b346100e3575f3660031901126100e3576102d3610350565b5f80546001600160a01b0319811682556001600160a01b03167f8be0079c531659141344cd1fd0a4f28419497f9722a3daafe3b4186f6b6457e08280a3005b91908251928382525f5b84811061033c575050825f602080949584010152601f8019910116010190565b60208183018101518483018201520161031c565b5f546001600160a01b0316330361036357565b60405163118cdaa760e01b8152336004820152602490fdfea26469706673582212202992a71449476404159c12582e1f3d5c014ae92bc1369e2e03b37152567a3c7d64736f6c63430008180033000000000000000000000000ba2a6c2bc09bf1f213bb67692e2af672b6c45524000000000000000000000000ff6bdef4fb646ee44e29fe8fc0862b02f0ba8a33000000000000000000000000000000000000000000000000000000000000006000000000000000000000000000000000000000000000000000000000000000e4077f224a000000000000000000000000000000000000000000000000000000000000006000000000000000000000000000000000000000000000000000000000000000a0000000000000000000000000a76a33fd6bc2e9d37d6a02d060e91ab4c84728d000000000000000000000000000000000000000000000000000000000000000104f6c6976652049475020536963696c790000000000000000000000000000000000000000000000000000000000000000000000000000000000000000000000054f4c49564500000000000000000000000000000000000000000000000000000000000000000000000000000000000000000000000000000000000000"
        },
        {
          "transactionType": "CREATE",
          "contractName": "ProxyAdmin",
          "address": "0xc65472ad3542cc7382f665dbc8a81bbc4291d278",
          "initCode": "0x6080346100b957601f61048338819003918201601f19168301916001600160401b038311848410176100bd578084926020946040528339810103126100b957516001600160a01b0390818116908190036100b95780156100a1575f80546001600160a01b03198116831782556040519316907f8be0079c531659141344cd1fd0a4f28419497f9722a3daafe3b4186f6b6457e09080a36103b190816100d28239f35b604051631e4fbdf760e01b81525f6004820152602490fd5b5f80fd5b634e487b7160e01b5f52604160045260245ffdfe604060808152600480361015610013575f80fd5b5f915f3560e01c8063715018a6146102bb5780638da5cb5b146102945780639623609d1461015c578063ad3cb1cc146100eb5763f2fde38b14610054575f80fd5b346100e75760203660031901126100e7576001600160a01b038235818116939192908490036100e357610085610350565b83156100cd5750505f54826bffffffffffffffffffffffff60a01b8216175f55167f8be0079c531659141344cd1fd0a4f28419497f9722a3daafe3b4186f6b6457e05f80a380f35b51631e4fbdf760e01b8152908101849052602490fd5b5f80fd5b8280fd5b5082346101595780600319360112610159575080519080820182811067ffffffffffffffff821117610146576101429350815260058252640352e302e360dc1b602083015251918291602083526020830190610312565b0390f35b604184634e487b7160e01b5f525260245ffd5b80fd5b5060603660031901126100e3576001600160a01b03823581811693908490036100e35760249182359081168091036100e35767ffffffffffffffff906044358281116100e357366023820112156100e3578084013583811161028257865191601f8201601f19908116603f0116830185811184821017610270578852818352368783830101116100e357815f92886020930183860137830101526101fe610350565b863b156100e357610230965f92875180998194829363278f794360e11b8452898401528a8a8401526044830190610312565b039134905af1801561026657610244578580f35b909192938095501161025557505052005b604190634e487b7160e01b5f52525ffd5b84513d5f823e3d90fd5b87604188634e487b7160e01b5f52525ffd5b85604186634e487b7160e01b5f52525ffd5b50346100e3575f3660031901126100e3575f5490516001600160a01b039091168152602090f35b346100e3575f3660031901126100e3576102d3610350565b5f80546001600160a01b0319811682556001600160a01b03167f8be0079c531659141344cd1fd0a4f28419497f9722a3daafe3b4186f6b6457e08280a3005b91908251928382525f5b84811061033c575050825f602080949584010152601f8019910116010190565b60208183018101518483018201520161031c565b5f546001600160a01b0316330361036357565b60405163118cdaa760e01b8152336004820152602490fdfea26469706673582212202992a71449476404159c12582e1f3d5c014ae92bc1369e2e03b37152567a3c7d64736f6c63430008180033000000000000000000000000ff6bdef4fb646ee44e29fe8fc0862b02f0ba8a33"
        },
        {
          "transactionType": "CREATE",
          "contractName": "TransparentUpgradeableProxy",
          "address": "0x45abc9cf7454741b3ae9db7a25b03615d49b64d0",
          "initCode": "0x604060a08152610aac8038038061001581610268565b9283398101906060818303126102645761002e8161028d565b60209161003c83820161028d565b8582015190916001600160401b039190828211610264570185601f82011215610264578051908282116101ef5761007b601f8301601f19168701610268565b968288528683830101116102645785905f5b8381106102505750505f918701015284511561023f57823b1561021f577f360894a13ba1a3210667c828492db98dca3e2076cc3735a920a3ca505d382bbc80546001600160a01b03199081166001600160a01b03868116918217909355885192979195907fbc7cd75a20ee27fd9adebab32041f755214dbc6bffa90cc0225b39da2e5c2d3b5f80a28151156102035761012692506102a1565b505b85519161048391828401908111848210176101ef57868492879461062985391681520301905ff080156101e557831691826080527f7e644d79422f17c01e4894b5f4f588d331ebfa28653d42ae832dc59e38c9798f857fb53127684a568b3173ae13b9f8a6016e243e63b6e8ee1178d6a717850b5d6103958587549483519286168352820152a182156101ce5716179055516102f69081610333823960805181600f0152f35b8451633173bdd160e11b81525f6004820152602490fd5b84513d5f823e3d90fd5b634e487b7160e01b5f52604160045260245ffd5b5050346102105750610128565b63b398979f60e01b8152600490fd5b8551634c9c8ce360e01b81526001600160a01b0384166004820152602490fd5b85516330a289cf60e21b8152600490fd5b81810183015189820184015287920161008d565b5f80fd5b6040519190601f01601f191682016001600160401b038111838210176101ef57604052565b51906001600160a01b038216820361026457565b905f8091602081519101845af4808061031f575b156102d55750506040513d81523d5f602083013e60203d82010160405290565b156102fc57604051639996b31560e01b81526001600160a01b039091166004820152602490fd5b3d1561030d576040513d5f823e3d90fd5b60405163d6bda27560e01b8152600490fd5b503d1515806102b55750813b15156102b556fe60806040526001600160a01b03337f000000000000000000000000000000000000000000000000000000000000000082160361006a575f356001600160e01b03191663278f794360e11b14610060576040516334ad5dbb60e21b8152600490fd5b6100686100be565b005b5f80917f360894a13ba1a3210667c828492db98dca3e2076cc3735a920a3ca505d382bbc5416368280378136915af43d5f803e156100a6573d5ff35b3d5ffd5b634e487b7160e01b5f52604160045260245ffd5b3660041161015f57604036600319011261015f576004356001600160a01b0381169081900361015f576024359067ffffffffffffffff9081831161015f573660238401121561015f5782600401358281116101635760405192601f8201601f19908116603f011684019081118482101761016357604052808352366024828601011161015f576020815f92602461015d97018387013784010152610168565b565b5f80fd5b6100aa565b90813b156101ff577f360894a13ba1a3210667c828492db98dca3e2076cc3735a920a3ca505d382bbc80546001600160a01b0319166001600160a01b0384169081179091557fbc7cd75a20ee27fd9adebab32041f755214dbc6bffa90cc0225b39da2e5c2d3b5f80a28051156101e4576101e191610220565b50565b5050346101ed57565b60405163b398979f60e01b8152600490fd5b604051634c9c8ce360e01b81526001600160a01b0383166004820152602490fd5b905f8091602081519101845af48080610289575b156102465750506102436102a7565b90565b1561026e57604051639996b31560e01b81526001600160a01b03919091166004820152602490fd5b3d15155f0361029c5760405163d6bda27560e01b8152600490fd5b503d1515806102345750813b1515610234565b6040513d5f823e3d90fd5b604051903d82523d5f602084013e60203d83010160405256fea2646970667358221220371437a14d55b0192ed17af74450cdb0b22bf1f3d480185986e4348c96e968d064736f6c634300081800336080346100b957601f61048338819003918201601f19168301916001600160401b038311848410176100bd578084926020946040528339810103126100b957516001600160a01b0390818116908190036100b95780156100a1575f80546001600160a01b03198116831782556040519316907f8be0079c531659141344cd1fd0a4f28419497f9722a3daafe3b4186f6b6457e09080a36103b190816100d28239f35b604051631e4fbdf760e01b81525f6004820152602490fd5b5f80fd5b634e487b7160e01b5f52604160045260245ffdfe604060808152600480361015610013575f80fd5b5f915f3560e01c8063715018a6146102bb5780638da5cb5b146102945780639623609d1461015c578063ad3cb1cc146100eb5763f2fde38b14610054575f80fd5b346100e75760203660031901126100e7576001600160a01b038235818116939192908490036100e357610085610350565b83156100cd5750505f54826bffffffffffffffffffffffff60a01b8216175f55167f8be0079c531659141344cd1fd0a4f28419497f9722a3daafe3b4186f6b6457e05f80a380f35b51631e4fbdf760e01b8152908101849052602490fd5b5f80fd5b8280fd5b5082346101595780600319360112610159575080519080820182811067ffffffffffffffff821117610146576101429350815260058252640352e302e360dc1b602083015251918291602083526020830190610312565b0390f35b604184634e487b7160e01b5f525260245ffd5b80fd5b5060603660031901126100e3576001600160a01b03823581811693908490036100e35760249182359081168091036100e35767ffffffffffffffff906044358281116100e357366023820112156100e3578084013583811161028257865191601f8201601f19908116603f0116830185811184821017610270578852818352368783830101116100e357815f92886020930183860137830101526101fe610350565b863b156100e357610230965f92875180998194829363278f794360e11b8452898401528a8a8401526044830190610312565b039134905af1801561026657610244578580f35b909192938095501161025557505052005b604190634e487b7160e01b5f52525ffd5b84513d5f823e3d90fd5b87604188634e487b7160e01b5f52525ffd5b85604186634e487b7160e01b5f52525ffd5b50346100e3575f3660031901126100e3575f5490516001600160a01b039091168152602090f35b346100e3575f3660031901126100e3576102d3610350565b5f80546001600160a01b0319811682556001600160a01b03167f8be0079c531659141344cd1fd0a4f28419497f9722a3daafe3b4186f6b6457e08280a3005b91908251928382525f5b84811061033c575050825f602080949584010152601f8019910116010190565b60208183018101518483018201520161031c565b5f546001600160a01b0316330361036357565b60405163118cdaa760e01b8152336004820152602490fdfea26469706673582212202992a71449476404159c12582e1f3d5c014ae92bc1369e2e03b37152567a3c7d64736f6c634300081800330000000000000000000000005b5cce7aab1eaf8fbd9d3376c4a1fce76e94acc1000000000000000000000000ff6bdef4fb646ee44e29fe8fc0862b02f0ba8a33000000000000000000000000000000000000000000000000000000000000006000000000000000000000000000000000000000000000000000000000000000a4a6b63eb8000000000000000000000000f06b53ce00f1de55e65f9a2969e9d39124e5ddbb000000000000000000000000a76a33fd6bc2e9d37d6a02d060e91ab4c84728d00000000000000000000000005178a4ab4c6400ceeb812663affd1bd5b0c9ff6400000000000000000000000000000000000000000000006c6b935b8bbd400000000000000000000000000000000000000000000000000000000000000000070800000000000000000000000000000000000000000000000000000000"
        },
        {
          "transactionType": "CREATE",
          "contractName": "ProxyAdmin",
          "address": "0x072c48854bfccc6082d3deb2eea9caa18c3ba31b",
          "initCode": "0x6080346100b957601f61048338819003918201601f19168301916001600160401b038311848410176100bd578084926020946040528339810103126100b957516001600160a01b0390818116908190036100b95780156100a1575f80546001600160a01b03198116831782556040519316907f8be0079c531659141344cd1fd0a4f28419497f9722a3daafe3b4186f6b6457e09080a36103b190816100d28239f35b604051631e4fbdf760e01b81525f6004820152602490fd5b5f80fd5b634e487b7160e01b5f52604160045260245ffdfe604060808152600480361015610013575f80fd5b5f915f3560e01c8063715018a6146102bb5780638da5cb5b146102945780639623609d1461015c578063ad3cb1cc146100eb5763f2fde38b14610054575f80fd5b346100e75760203660031901126100e7576001600160a01b038235818116939192908490036100e357610085610350565b83156100cd5750505f54826bffffffffffffffffffffffff60a01b8216175f55167f8be0079c531659141344cd1fd0a4f28419497f9722a3daafe3b4186f6b6457e05f80a380f35b51631e4fbdf760e01b8152908101849052602490fd5b5f80fd5b8280fd5b5082346101595780600319360112610159575080519080820182811067ffffffffffffffff821117610146576101429350815260058252640352e302e360dc1b602083015251918291602083526020830190610312565b0390f35b604184634e487b7160e01b5f525260245ffd5b80fd5b5060603660031901126100e3576001600160a01b03823581811693908490036100e35760249182359081168091036100e35767ffffffffffffffff906044358281116100e357366023820112156100e3578084013583811161028257865191601f8201601f19908116603f0116830185811184821017610270578852818352368783830101116100e357815f92886020930183860137830101526101fe610350565b863b156100e357610230965f92875180998194829363278f794360e11b8452898401528a8a8401526044830190610312565b039134905af1801561026657610244578580f35b909192938095501161025557505052005b604190634e487b7160e01b5f52525ffd5b84513d5f823e3d90fd5b87604188634e487b7160e01b5f52525ffd5b85604186634e487b7160e01b5f52525ffd5b50346100e3575f3660031901126100e3575f5490516001600160a01b039091168152602090f35b346100e3575f3660031901126100e3576102d3610350565b5f80546001600160a01b0319811682556001600160a01b03167f8be0079c531659141344cd1fd0a4f28419497f9722a3daafe3b4186f6b6457e08280a3005b91908251928382525f5b84811061033c575050825f602080949584010152601f8019910116010190565b60208183018101518483018201520161031c565b5f546001600160a01b0316330361036357565b60405163118cdaa760e01b8152336004820152602490fdfea26469706673582212202992a71449476404159c12582e1f3d5c014ae92bc1369e2e03b37152567a3c7d64736f6c63430008180033000000000000000000000000ff6bdef4fb646ee44e29fe8fc0862b02f0ba8a33"
        },
        {
          "transactionType": "CREATE",
          "contractName": "TransparentUpgradeableProxy",
          "address": "0x9facb505497415086adf4d93b48e638f59e9570a",
          "initCode": "0x604060a08152610aac8038038061001581610268565b9283398101906060818303126102645761002e8161028d565b60209161003c83820161028d565b8582015190916001600160401b039190828211610264570185601f82011215610264578051908282116101ef5761007b601f8301601f19168701610268565b968288528683830101116102645785905f5b8381106102505750505f918701015284511561023f57823b1561021f577f360894a13ba1a3210667c828492db98dca3e2076cc3735a920a3ca505d382bbc80546001600160a01b03199081166001600160a01b03868116918217909355885192979195907fbc7cd75a20ee27fd9adebab32041f755214dbc6bffa90cc0225b39da2e5c2d3b5f80a28151156102035761012692506102a1565b505b85519161048391828401908111848210176101ef57868492879461062985391681520301905ff080156101e557831691826080527f7e644d79422f17c01e4894b5f4f588d331ebfa28653d42ae832dc59e38c9798f857fb53127684a568b3173ae13b9f8a6016e243e63b6e8ee1178d6a717850b5d6103958587549483519286168352820152a182156101ce5716179055516102f69081610333823960805181600f0152f35b8451633173bdd160e11b81525f6004820152602490fd5b84513d5f823e3d90fd5b634e487b7160e01b5f52604160045260245ffd5b5050346102105750610128565b63b398979f60e01b8152600490fd5b8551634c9c8ce360e01b81526001600160a01b0384166004820152602490fd5b85516330a289cf60e21b8152600490fd5b81810183015189820184015287920161008d565b5f80fd5b6040519190601f01601f191682016001600160401b038111838210176101ef57604052565b51906001600160a01b038216820361026457565b905f8091602081519101845af4808061031f575b156102d55750506040513d81523d5f602083013e60203d82010160405290565b156102fc57604051639996b31560e01b81526001600160a01b039091166004820152602490fd5b3d1561030d576040513d5f823e3d90fd5b60405163d6bda27560e01b8152600490fd5b503d1515806102b55750813b15156102b556fe60806040526001600160a01b03337f000000000000000000000000000000000000000000000000000000000000000082160361006a575f356001600160e01b03191663278f794360e11b14610060576040516334ad5dbb60e21b8152600490fd5b6100686100be565b005b5f80917f360894a13ba1a3210667c828492db98dca3e2076cc3735a920a3ca505d382bbc5416368280378136915af43d5f803e156100a6573d5ff35b3d5ffd5b634e487b7160e01b5f52604160045260245ffd5b3660041161015f57604036600319011261015f576004356001600160a01b0381169081900361015f576024359067ffffffffffffffff9081831161015f573660238401121561015f5782600401358281116101635760405192601f8201601f19908116603f011684019081118482101761016357604052808352366024828601011161015f576020815f92602461015d97018387013784010152610168565b565b5f80fd5b6100aa565b90813b156101ff577f360894a13ba1a3210667c828492db98dca3e2076cc3735a920a3ca505d382bbc80546001600160a01b0319166001600160a01b0384169081179091557fbc7cd75a20ee27fd9adebab32041f755214dbc6bffa90cc0225b39da2e5c2d3b5f80a28051156101e4576101e191610220565b50565b5050346101ed57565b60405163b398979f60e01b8152600490fd5b604051634c9c8ce360e01b81526001600160a01b0383166004820152602490fd5b905f8091602081519101845af48080610289575b156102465750506102436102a7565b90565b1561026e57604051639996b31560e01b81526001600160a01b03919091166004820152602490fd5b3d15155f0361029c5760405163d6bda27560e01b8152600490fd5b503d1515806102345750813b1515610234565b6040513d5f823e3d90fd5b604051903d82523d5f602084013e60203d83010160405256fea2646970667358221220371437a14d55b0192ed17af74450cdb0b22bf1f3d480185986e4348c96e968d064736f6c634300081800336080346100b957601f61048338819003918201601f19168301916001600160401b038311848410176100bd578084926020946040528339810103126100b957516001600160a01b0390818116908190036100b95780156100a1575f80546001600160a01b03198116831782556040519316907f8be0079c531659141344cd1fd0a4f28419497f9722a3daafe3b4186f6b6457e09080a36103b190816100d28239f35b604051631e4fbdf760e01b81525f6004820152602490fd5b5f80fd5b634e487b7160e01b5f52604160045260245ffdfe604060808152600480361015610013575f80fd5b5f915f3560e01c8063715018a6146102bb5780638da5cb5b146102945780639623609d1461015c578063ad3cb1cc146100eb5763f2fde38b14610054575f80fd5b346100e75760203660031901126100e7576001600160a01b038235818116939192908490036100e357610085610350565b83156100cd5750505f54826bffffffffffffffffffffffff60a01b8216175f55167f8be0079c531659141344cd1fd0a4f28419497f9722a3daafe3b4186f6b6457e05f80a380f35b51631e4fbdf760e01b8152908101849052602490fd5b5f80fd5b8280fd5b5082346101595780600319360112610159575080519080820182811067ffffffffffffffff821117610146576101429350815260058252640352e302e360dc1b602083015251918291602083526020830190610312565b0390f35b604184634e487b7160e01b5f525260245ffd5b80fd5b5060603660031901126100e3576001600160a01b03823581811693908490036100e35760249182359081168091036100e35767ffffffffffffffff906044358281116100e357366023820112156100e3578084013583811161028257865191601f8201601f19908116603f0116830185811184821017610270578852818352368783830101116100e357815f92886020930183860137830101526101fe610350565b863b156100e357610230965f92875180998194829363278f794360e11b8452898401528a8a8401526044830190610312565b039134905af1801561026657610244578580f35b909192938095501161025557505052005b604190634e487b7160e01b5f52525ffd5b84513d5f823e3d90fd5b87604188634e487b7160e01b5f52525ffd5b85604186634e487b7160e01b5f52525ffd5b50346100e3575f3660031901126100e3575f5490516001600160a01b039091168152602090f35b346100e3575f3660031901126100e3576102d3610350565b5f80546001600160a01b0319811682556001600160a01b03167f8be0079c531659141344cd1fd0a4f28419497f9722a3daafe3b4186f6b6457e08280a3005b91908251928382525f5b84811061033c575050825f602080949584010152601f8019910116010190565b60208183018101518483018201520161031c565b5f546001600160a01b0316330361036357565b60405163118cdaa760e01b8152336004820152602490fdfea26469706673582212202992a71449476404159c12582e1f3d5c014ae92bc1369e2e03b37152567a3c7d64736f6c63430008180033000000000000000000000000fa92130195a1a593b06180c73e33f4448ff639b3000000000000000000000000ff6bdef4fb646ee44e29fe8fc0862b02f0ba8a33000000000000000000000000000000000000000000000000000000000000006000000000000000000000000000000000000000000000000000000000000000c4d7c41c790000000000000000000000001b0a76431b3cfd55b3be22497f03920c71623c47000000000000000000000000ff6bdef4fb646ee44e29fe8fc0862b02f0ba8a330000000000000000000000005178a4ab4c6400ceeb812663affd1bd5b0c9ff64000000000000000000000000ff6bdef4fb646ee44e29fe8fc0862b02f0ba8a3300000000000000000000000000000000000000000000000000000000000000c80000000000000000000000000000000000000000000000000de0b6b3a764000000000000000000000000000000000000000000000000000000000000"
        },
        {
          "transactionType": "CREATE",
          "contractName": "ProxyAdmin",
          "address": "0xa7f6b11213d3e7f3310d60b727db9ce7ea4a5ff7",
          "initCode": "0x6080346100b957601f61048338819003918201601f19168301916001600160401b038311848410176100bd578084926020946040528339810103126100b957516001600160a01b0390818116908190036100b95780156100a1575f80546001600160a01b03198116831782556040519316907f8be0079c531659141344cd1fd0a4f28419497f9722a3daafe3b4186f6b6457e09080a36103b190816100d28239f35b604051631e4fbdf760e01b81525f6004820152602490fd5b5f80fd5b634e487b7160e01b5f52604160045260245ffdfe604060808152600480361015610013575f80fd5b5f915f3560e01c8063715018a6146102bb5780638da5cb5b146102945780639623609d1461015c578063ad3cb1cc146100eb5763f2fde38b14610054575f80fd5b346100e75760203660031901126100e7576001600160a01b038235818116939192908490036100e357610085610350565b83156100cd5750505f54826bffffffffffffffffffffffff60a01b8216175f55167f8be0079c531659141344cd1fd0a4f28419497f9722a3daafe3b4186f6b6457e05f80a380f35b51631e4fbdf760e01b8152908101849052602490fd5b5f80fd5b8280fd5b5082346101595780600319360112610159575080519080820182811067ffffffffffffffff821117610146576101429350815260058252640352e302e360dc1b602083015251918291602083526020830190610312565b0390f35b604184634e487b7160e01b5f525260245ffd5b80fd5b5060603660031901126100e3576001600160a01b03823581811693908490036100e35760249182359081168091036100e35767ffffffffffffffff906044358281116100e357366023820112156100e3578084013583811161028257865191601f8201601f19908116603f0116830185811184821017610270578852818352368783830101116100e357815f92886020930183860137830101526101fe610350565b863b156100e357610230965f92875180998194829363278f794360e11b8452898401528a8a8401526044830190610312565b039134905af1801561026657610244578580f35b909192938095501161025557505052005b604190634e487b7160e01b5f52525ffd5b84513d5f823e3d90fd5b87604188634e487b7160e01b5f52525ffd5b85604186634e487b7160e01b5f52525ffd5b50346100e3575f3660031901126100e3575f5490516001600160a01b039091168152602090f35b346100e3575f3660031901126100e3576102d3610350565b5f80546001600160a01b0319811682556001600160a01b03167f8be0079c531659141344cd1fd0a4f28419497f9722a3daafe3b4186f6b6457e08280a3005b91908251928382525f5b84811061033c575050825f602080949584010152601f8019910116010190565b60208183018101518483018201520161031c565b5f546001600160a01b0316330361036357565b60405163118cdaa760e01b8152336004820152602490fdfea26469706673582212202992a71449476404159c12582e1f3d5c014ae92bc1369e2e03b37152567a3c7d64736f6c63430008180033000000000000000000000000ff6bdef4fb646ee44e29fe8fc0862b02f0ba8a33"
        },
        {
          "transactionType": "CREATE",
          "contractName": "TransparentUpgradeableProxy",
          "address": "0x7cbba82cbe75c7aa312f37f41d56c1abd4ab8395",
          "initCode": "0x604060a08152610aac8038038061001581610268565b9283398101906060818303126102645761002e8161028d565b60209161003c83820161028d565b8582015190916001600160401b039190828211610264570185601f82011215610264578051908282116101ef5761007b601f8301601f19168701610268565b968288528683830101116102645785905f5b8381106102505750505f918701015284511561023f57823b1561021f577f360894a13ba1a3210667c828492db98dca3e2076cc3735a920a3ca505d382bbc80546001600160a01b03199081166001600160a01b03868116918217909355885192979195907fbc7cd75a20ee27fd9adebab32041f755214dbc6bffa90cc0225b39da2e5c2d3b5f80a28151156102035761012692506102a1565b505b85519161048391828401908111848210176101ef57868492879461062985391681520301905ff080156101e557831691826080527f7e644d79422f17c01e4894b5f4f588d331ebfa28653d42ae832dc59e38c9798f857fb53127684a568b3173ae13b9f8a6016e243e63b6e8ee1178d6a717850b5d6103958587549483519286168352820152a182156101ce5716179055516102f69081610333823960805181600f0152f35b8451633173bdd160e11b81525f6004820152602490fd5b84513d5f823e3d90fd5b634e487b7160e01b5f52604160045260245ffd5b5050346102105750610128565b63b398979f60e01b8152600490fd5b8551634c9c8ce360e01b81526001600160a01b0384166004820152602490fd5b85516330a289cf60e21b8152600490fd5b81810183015189820184015287920161008d565b5f80fd5b6040519190601f01601f191682016001600160401b038111838210176101ef57604052565b51906001600160a01b038216820361026457565b905f8091602081519101845af4808061031f575b156102d55750506040513d81523d5f602083013e60203d82010160405290565b156102fc57604051639996b31560e01b81526001600160a01b039091166004820152602490fd5b3d1561030d576040513d5f823e3d90fd5b60405163d6bda27560e01b8152600490fd5b503d1515806102b55750813b15156102b556fe60806040526001600160a01b03337f000000000000000000000000000000000000000000000000000000000000000082160361006a575f356001600160e01b03191663278f794360e11b14610060576040516334ad5dbb60e21b8152600490fd5b6100686100be565b005b5f80917f360894a13ba1a3210667c828492db98dca3e2076cc3735a920a3ca505d382bbc5416368280378136915af43d5f803e156100a6573d5ff35b3d5ffd5b634e487b7160e01b5f52604160045260245ffd5b3660041161015f57604036600319011261015f576004356001600160a01b0381169081900361015f576024359067ffffffffffffffff9081831161015f573660238401121561015f5782600401358281116101635760405192601f8201601f19908116603f011684019081118482101761016357604052808352366024828601011161015f576020815f92602461015d97018387013784010152610168565b565b5f80fd5b6100aa565b90813b156101ff577f360894a13ba1a3210667c828492db98dca3e2076cc3735a920a3ca505d382bbc80546001600160a01b0319166001600160a01b0384169081179091557fbc7cd75a20ee27fd9adebab32041f755214dbc6bffa90cc0225b39da2e5c2d3b5f80a28051156101e4576101e191610220565b50565b5050346101ed57565b60405163b398979f60e01b8152600490fd5b604051634c9c8ce360e01b81526001600160a01b0383166004820152602490fd5b905f8091602081519101845af48080610289575b156102465750506102436102a7565b90565b1561026e57604051639996b31560e01b81526001600160a01b03919091166004820152602490fd5b3d15155f0361029c5760405163d6bda27560e01b8152600490fd5b503d1515806102345750813b1515610234565b6040513d5f823e3d90fd5b604051903d82523d5f602084013e60203d83010160405256fea2646970667358221220371437a14d55b0192ed17af74450cdb0b22bf1f3d480185986e4348c96e968d064736f6c634300081800336080346100b957601f61048338819003918201601f19168301916001600160401b038311848410176100bd578084926020946040528339810103126100b957516001600160a01b0390818116908190036100b95780156100a1575f80546001600160a01b03198116831782556040519316907f8be0079c531659141344cd1fd0a4f28419497f9722a3daafe3b4186f6b6457e09080a36103b190816100d28239f35b604051631e4fbdf760e01b81525f6004820152602490fd5b5f80fd5b634e487b7160e01b5f52604160045260245ffdfe604060808152600480361015610013575f80fd5b5f915f3560e01c8063715018a6146102bb5780638da5cb5b146102945780639623609d1461015c578063ad3cb1cc146100eb5763f2fde38b14610054575f80fd5b346100e75760203660031901126100e7576001600160a01b038235818116939192908490036100e357610085610350565b83156100cd5750505f54826bffffffffffffffffffffffff60a01b8216175f55167f8be0079c531659141344cd1fd0a4f28419497f9722a3daafe3b4186f6b6457e05f80a380f35b51631e4fbdf760e01b8152908101849052602490fd5b5f80fd5b8280fd5b5082346101595780600319360112610159575080519080820182811067ffffffffffffffff821117610146576101429350815260058252640352e302e360dc1b602083015251918291602083526020830190610312565b0390f35b604184634e487b7160e01b5f525260245ffd5b80fd5b5060603660031901126100e3576001600160a01b03823581811693908490036100e35760249182359081168091036100e35767ffffffffffffffff906044358281116100e357366023820112156100e3578084013583811161028257865191601f8201601f19908116603f0116830185811184821017610270578852818352368783830101116100e357815f92886020930183860137830101526101fe610350565b863b156100e357610230965f92875180998194829363278f794360e11b8452898401528a8a8401526044830190610312565b039134905af1801561026657610244578580f35b909192938095501161025557505052005b604190634e487b7160e01b5f52525ffd5b84513d5f823e3d90fd5b87604188634e487b7160e01b5f52525ffd5b85604186634e487b7160e01b5f52525ffd5b50346100e3575f3660031901126100e3575f5490516001600160a01b039091168152602090f35b346100e3575f3660031901126100e3576102d3610350565b5f80546001600160a01b0319811682556001600160a01b03167f8be0079c531659141344cd1fd0a4f28419497f9722a3daafe3b4186f6b6457e08280a3005b91908251928382525f5b84811061033c575050825f602080949584010152601f8019910116010190565b60208183018101518483018201520161031c565b5f546001600160a01b0316330361036357565b60405163118cdaa760e01b8152336004820152602490fdfea26469706673582212202992a71449476404159c12582e1f3d5c014ae92bc1369e2e03b37152567a3c7d64736f6c63430008180033000000000000000000000000bd10e5870bb026d1b5fa7edeefafd913d183697d000000000000000000000000ff6bdef4fb646ee44e29fe8fc0862b02f0ba8a33000000000000000000000000000000000000000000000000000000000000006000000000000000000000000000000000000000000000000000000000000001048f15b414000000000000000000000000000000000000000000000000000000000000008000000000000000000000000000000000000000000000000000000000000000c000000000000000000000000045abc9cf7454741b3ae9db7a25b03615d49b64d00000000000000000000000009facb505497415086adf4d93b48e638f59e9570a000000000000000000000000000000000000000000000000000000000000000b4f6c697665205969656c6400000000000000000000000000000000000000000000000000000000000000000000000000000000000000000000000000000000066f5949454c44000000000000000000000000000000000000000000000000000000000000000000000000000000000000000000000000000000000000"
        },
        {
          "transactionType": "CREATE",
          "contractName": "ProxyAdmin",
          "address": "0x05fb98341b7e9ddfe2d2f9a8cf1cbe15abcf8b29",
          "initCode": "0x6080346100b957601f61048338819003918201601f19168301916001600160401b038311848410176100bd578084926020946040528339810103126100b957516001600160a01b0390818116908190036100b95780156100a1575f80546001600160a01b03198116831782556040519316907f8be0079c531659141344cd1fd0a4f28419497f9722a3daafe3b4186f6b6457e09080a36103b190816100d28239f35b604051631e4fbdf760e01b81525f6004820152602490fd5b5f80fd5b634e487b7160e01b5f52604160045260245ffdfe604060808152600480361015610013575f80fd5b5f915f3560e01c8063715018a6146102bb5780638da5cb5b146102945780639623609d1461015c578063ad3cb1cc146100eb5763f2fde38b14610054575f80fd5b346100e75760203660031901126100e7576001600160a01b038235818116939192908490036100e357610085610350565b83156100cd5750505f54826bffffffffffffffffffffffff60a01b8216175f55167f8be0079c531659141344cd1fd0a4f28419497f9722a3daafe3b4186f6b6457e05f80a380f35b51631e4fbdf760e01b8152908101849052602490fd5b5f80fd5b8280fd5b5082346101595780600319360112610159575080519080820182811067ffffffffffffffff821117610146576101429350815260058252640352e302e360dc1b602083015251918291602083526020830190610312565b0390f35b604184634e487b7160e01b5f525260245ffd5b80fd5b5060603660031901126100e3576001600160a01b03823581811693908490036100e35760249182359081168091036100e35767ffffffffffffffff906044358281116100e357366023820112156100e3578084013583811161028257865191601f8201601f19908116603f0116830185811184821017610270578852818352368783830101116100e357815f92886020930183860137830101526101fe610350565b863b156100e357610230965f92875180998194829363278f794360e11b8452898401528a8a8401526044830190610312565b039134905af1801561026657610244578580f35b909192938095501161025557505052005b604190634e487b7160e01b5f52525ffd5b84513d5f823e3d90fd5b87604188634e487b7160e01b5f52525ffd5b85604186634e487b7160e01b5f52525ffd5b50346100e3575f3660031901126100e3575f5490516001600160a01b039091168152602090f35b346100e3575f3660031901126100e3576102d3610350565b5f80546001600160a01b0319811682556001600160a01b03167f8be0079c531659141344cd1fd0a4f28419497f9722a3daafe3b4186f6b6457e08280a3005b91908251928382525f5b84811061033c575050825f602080949584010152601f8019910116010190565b60208183018101518483018201520161031c565b5f546001600160a01b0316330361036357565b60405163118cdaa760e01b8152336004820152602490fdfea26469706673582212202992a71449476404159c12582e1f3d5c014ae92bc1369e2e03b37152567a3c7d64736f6c63430008180033000000000000000000000000ff6bdef4fb646ee44e29fe8fc0862b02f0ba8a33"
        }
      ],
      "isFixedGasLimit": false
    },
    {
      "hash": "0x63d255fbaace2f028ca2f0a423422643a870919372ec3dd5babe2d20ffc6bb4b",
      "transactionType": "CALL",
      "contractName": "TransparentUpgradeableProxy",
      "contractAddress": "0xa76a33fd6bc2e9d37d6a02d060e91ab4c84728d0",
      "function": null,
      "arguments": null,
      "transaction": {
        "from": "0xff6bdef4fb646ee44e29fe8fc0862b02f0ba8a33",
        "to": "0xa76a33fd6bc2e9d37d6a02d060e91ab4c84728d0",
        "gas": "0x2d5c6",
        "value": "0x0",
        "input": "0x666033e60000000000000000000000001b0a76431b3cfd55b3be22497f03920c71623c47000000000000000000000000000000000000000000000000000000000000000000000000000000000000000000000000000000000000000000000000000232800000000000000000000000000000000000000000000000000000000000000000",
        "nonce": "0x6c",
        "chainId": "0x14a34"
      },
      "additionalContracts": [],
      "isFixedGasLimit": false
    },
    {
      "hash": "0xddaa435554669e89c09bdd452923430c69145dfa87729513d18518e1e7a33e08",
      "transactionType": "CALL",
      "contractName": "MockUSDC",
      "contractAddress": "0x1b0a76431b3cfd55b3be22497f03920c71623c47",
      "function": "approve(address,uint256)",
      "arguments": [
        "0xA76a33fd6BC2e9d37D6A02d060E91aB4c84728D0",
        "115792089237316195423570985008687907853269984665640564039457584007913129639935"
      ],
      "transaction": {
        "from": "0xff6bdef4fb646ee44e29fe8fc0862b02f0ba8a33",
        "to": "0x1b0a76431b3cfd55b3be22497f03920c71623c47",
        "gas": "0x10868",
        "value": "0x0",
        "input": "0x095ea7b3000000000000000000000000a76a33fd6bc2e9d37d6a02d060e91ab4c84728d0ffffffffffffffffffffffffffffffffffffffffffffffffffffffffffffffff",
        "nonce": "0x6d",
        "chainId": "0x14a34"
      },
      "additionalContracts": [],
      "isFixedGasLimit": false
    },
    {
      "hash": "0xcaa50d175b881c2abc9f08443ac2fc137d9126ba441ad278a6ead4f0fd90d163",
      "transactionType": "CALL",
      "contractName": "TransparentUpgradeableProxy",
      "contractAddress": "0xa76a33fd6bc2e9d37d6a02d060e91ab4c84728d0",
      "function": null,
      "arguments": null,
      "transaction": {
        "from": "0xff6bdef4fb646ee44e29fe8fc0862b02f0ba8a33",
        "to": "0xa76a33fd6bc2e9d37d6a02d060e91ab4c84728d0",
        "gas": "0x6b364",
        "value": "0x0",
        "input": "0xcce7ec130000000000000000000000001b0a76431b3cfd55b3be22497f03920c71623c470000000000000000000000000000000000000000000000000000000006021600",
        "nonce": "0x6e",
        "chainId": "0x14a34"
      },
      "additionalContracts": [],
      "isFixedGasLimit": false
    },
    {
      "hash": "0xe15a946837020a2b6f0bc2f8e413605b2690f9b1ee0a1f39405e4cdf23f5d737",
      "transactionType": "CALL",
      "contractName": "TransparentUpgradeableProxy",
      "contractAddress": "0xa76a33fd6bc2e9d37d6a02d060e91ab4c84728d0",
      "function": null,
      "arguments": null,
      "transaction": {
        "from": "0xff6bdef4fb646ee44e29fe8fc0862b02f0ba8a33",
        "to": "0xa76a33fd6bc2e9d37d6a02d060e91ab4c84728d0",
        "gas": "0x32834",
        "value": "0x0",
        "input": "0x703dbfe40000000000000000000000000000000000000000000000000000000000000001",
        "nonce": "0x6f",
        "chainId": "0x14a34"
      },
      "additionalContracts": [],
      "isFixedGasLimit": false
    },
    {
      "hash": "0xce199d197e19dba09f880e6d9c7eab85850584a2709ba9fefc7145b31ede63b2",
      "transactionType": "CALL",
      "contractName": "TransparentUpgradeableProxy",
      "contractAddress": "0xf06b53ce00f1de55e65f9a2969e9d39124e5ddbb",
      "function": null,
      "arguments": null,
      "transaction": {
        "from": "0xff6bdef4fb646ee44e29fe8fc0862b02f0ba8a33",
        "to": "0xf06b53ce00f1de55e65f9a2969e9d39124e5ddbb",
        "gas": "0x124de",
        "value": "0x0",
        "input": "0x095ea7b300000000000000000000000045abc9cf7454741b3ae9db7a25b03615d49b64d0ffffffffffffffffffffffffffffffffffffffffffffffffffffffffffffffff",
        "nonce": "0x70",
        "chainId": "0x14a34"
      },
      "additionalContracts": [],
      "isFixedGasLimit": false
    },
    {
      "hash": "0xe5e80514a020d3ce5e351b288ca6383f8cb3cd2964176ec5109f87bd70b4f576",
      "transactionType": "CALL",
      "contractName": "TransparentUpgradeableProxy",
      "contractAddress": "0x45abc9cf7454741b3ae9db7a25b03615d49b64d0",
      "function": null,
      "arguments": null,
      "transaction": {
        "from": "0xff6bdef4fb646ee44e29fe8fc0862b02f0ba8a33",
        "to": "0x45abc9cf7454741b3ae9db7a25b03615d49b64d0",
        "gas": "0x67ff8",
        "value": "0x0",
        "input": "0xa694fc3a000000000000000000000000000000000000000000000025f273933db5700000",
        "nonce": "0x71",
        "chainId": "0x14a34"
      },
      "additionalContracts": [],
      "isFixedGasLimit": false
    },
    {
      "hash": "0x660af7444acfe6ca783952aaa27c943059c13238fab50109f2cce5698790aa64",
      "transactionType": "CALL",
      "contractName": "MockUSDC",
      "contractAddress": "0x1b0a76431b3cfd55b3be22497f03920c71623c47",
      "function": "mint(address,uint256)",
      "arguments": [
        "0x455aB6723CCab4cb62983710C33f6311cc85Bc97",
        "50000000"
      ],
      "transaction": {
        "from": "0xff6bdef4fb646ee44e29fe8fc0862b02f0ba8a33",
        "to": "0x1b0a76431b3cfd55b3be22497f03920c71623c47",
        "gas": "0x11325",
        "value": "0x0",
        "input": "0x40c10f19000000000000000000000000455ab6723ccab4cb62983710c33f6311cc85bc970000000000000000000000000000000000000000000000000000000002faf080",
        "nonce": "0x72",
        "chainId": "0x14a34"
      },
      "additionalContracts": [],
      "isFixedGasLimit": false
    },
    {
      "hash": "0x5b5e54d3031d76f1bc9d6f500e3b345ebb5837b0ae635ae7f1d20ce4bfad21bb",
      "transactionType": "CALL",
      "contractName": "MockUSDC",
      "contractAddress": "0x1b0a76431b3cfd55b3be22497f03920c71623c47",
      "function": "approve(address,uint256)",
      "arguments": [
        "0xA76a33fd6BC2e9d37D6A02d060E91aB4c84728D0",
        "115792089237316195423570985008687907853269984665640564039457584007913129639935"
      ],
      "transaction": {
        "from": "0x455ab6723ccab4cb62983710c33f6311cc85bc97",
        "to": "0x1b0a76431b3cfd55b3be22497f03920c71623c47",
        "gas": "0x10868",
        "value": "0x0",
        "input": "0x095ea7b3000000000000000000000000a76a33fd6bc2e9d37d6a02d060e91ab4c84728d0ffffffffffffffffffffffffffffffffffffffffffffffffffffffffffffffff",
        "nonce": "0x4",
        "chainId": "0x14a34"
      },
      "additionalContracts": [],
      "isFixedGasLimit": false
    },
    {
      "hash": "0x34f696b8e2cbfd15eab1aac9e072a5026a7f72fdd2f73f87e601dd7e28094b66",
      "transactionType": "CALL",
      "contractName": "TransparentUpgradeableProxy",
      "contractAddress": "0xa76a33fd6bc2e9d37d6a02d060e91ab4c84728d0",
      "function": null,
      "arguments": null,
      "transaction": {
        "from": "0x455ab6723ccab4cb62983710c33f6311cc85bc97",
        "to": "0xa76a33fd6bc2e9d37d6a02d060e91ab4c84728d0",
        "gas": "0x312ae",
        "value": "0x0",
        "input": "0xcce7ec130000000000000000000000001b0a76431b3cfd55b3be22497f03920c71623c470000000000000000000000000000000000000000000000000000000002932e00",
        "nonce": "0x5",
        "chainId": "0x14a34"
      },
      "additionalContracts": [],
      "isFixedGasLimit": false
    },
    {
      "hash": "0x32cebced79c3f92c7cee691bb912caf6433afb442cd2520c350819551a6bfe53",
      "transactionType": "CALL",
      "contractName": "TransparentUpgradeableProxy",
      "contractAddress": "0xf06b53ce00f1de55e65f9a2969e9d39124e5ddbb",
      "function": null,
      "arguments": null,
      "transaction": {
        "from": "0x455ab6723ccab4cb62983710c33f6311cc85bc97",
        "to": "0xf06b53ce00f1de55e65f9a2969e9d39124e5ddbb",
        "gas": "0x124de",
        "value": "0x0",
        "input": "0x095ea7b300000000000000000000000045abc9cf7454741b3ae9db7a25b03615d49b64d0ffffffffffffffffffffffffffffffffffffffffffffffffffffffffffffffff",
        "nonce": "0x6",
        "chainId": "0x14a34"
      },
      "additionalContracts": [],
      "isFixedGasLimit": false
    },
    {
      "hash": "0x0e2aa2def64c5575dc461f8dc1c1ce7e30431a9a275cdd03c761759bf82e741c",
      "transactionType": "CALL",
      "contractName": "TransparentUpgradeableProxy",
      "contractAddress": "0x45abc9cf7454741b3ae9db7a25b03615d49b64d0",
      "function": null,
      "arguments": null,
      "transaction": {
        "from": "0x455ab6723ccab4cb62983710c33f6311cc85bc97",
        "to": "0x45abc9cf7454741b3ae9db7a25b03615d49b64d0",
        "gas": "0x5610c",
        "value": "0x0",
        "input": "0xa694fc3a00000000000000000000000000000000000000000000001043561a8829300000",
        "nonce": "0x7",
        "chainId": "0x14a34"
      },
      "additionalContracts": [],
      "isFixedGasLimit": false
    }
  ],
  "receipts": [
    {
      "status": "0x1",
      "cumulativeGasUsed": "0x4a9fb2",
      "logs": [
        {
          "address": "0x5178a4ab4c6400ceeb812663affd1bd5b0c9ff64",
          "topics": [
            "0xa53bb861f8980ad56ca8ad0ba10cc5ef7a8a6af7fa4ca26f876580318c82f719"
          ],
          "data": "0x0000000000000000000000000000000000000000000000000000000000278d000000000000000000000000000000000000000000000000000000000000000708",
          "blockHash": "0x0000000000000000000000000000000000000000000000000000000000000000",
          "blockNumber": "0x26b7d18",
          "blockTimestamp": "0x69ea5910",
          "transactionHash": "0xebf3d0c921b05aa36ab5a2ac46a87530bffaecb9e7cecba2ba0da6790cf87831",
          "transactionIndex": "0xd",
          "logIndex": "0x9e",
          "removed": false
        }
      ],
      "logsBloom": "0x00000000000000000000000000000000000000000000000000000000000000000000000000000000000040000000000000000000000000000000000000000000000000000000000000000000000000000000000000000001000000000000000000000000000000000000000000000000000000000000000000000000000010000000000020000000000000000000000000000000000000000000000000000000000000000000000000100000000000000000000000000000000000000000000000000000000000000000000000000000000000000010000000000000000000000000000000000000000000000000000000000000000000000000000000000000",
      "type": "0x2",
      "transactionHash": "0xebf3d0c921b05aa36ab5a2ac46a87530bffaecb9e7cecba2ba0da6790cf87831",
      "transactionIndex": "0xd",
      "blockHash": "0x0000000000000000000000000000000000000000000000000000000000000000",
      "blockNumber": "0x26b7d18",
      "gasUsed": "0x8860",
      "effectiveGasPrice": "0x5b8d80",
      "blobGasUsed": "0x39d0",
      "from": "0xff6bdef4fb646ee44e29fe8fc0862b02f0ba8a33",
      "to": "0x5178a4ab4c6400ceeb812663affd1bd5b0c9ff64",
      "contractAddress": null,
      "daFootprintGasScalar": "0x94",
      "l1BaseFeeScalar": "0x44d",
      "l1BlobBaseFee": "0x268c0c",
      "l1BlobBaseFeeScalar": "0xa118b",
      "l1Fee": "0x566acc44",
      "l1GasPrice": "0x36fc9bf",
      "l1GasUsed": "0x640"
    },
    {
      "status": "0x1",
      "cumulativeGasUsed": "0x743fd5",
      "logs": [
        {
          "address": "0xa76a33fd6bc2e9d37d6a02d060e91ab4c84728d0",
          "topics": [
            "0xbc7cd75a20ee27fd9adebab32041f755214dbc6bffa90cc0225b39da2e5c2d3b",
            "0x000000000000000000000000fb80bc2bced8cc7a97c5dd52e718981ef647eca2"
          ],
          "data": "0x",
          "blockHash": "0x0000000000000000000000000000000000000000000000000000000000000000",
          "blockNumber": "0x26b7d19",
          "blockTimestamp": "0x69ea5912",
          "transactionHash": "0x4390439b85f450bd6aabd8047154d2ff34a66453a42b7358de5b6f34ba0bd8d4",
          "transactionIndex": "0x10",
          "logIndex": "0xd5",
          "removed": false
        },
        {
          "address": "0xa76a33fd6bc2e9d37d6a02d060e91ab4c84728d0",
          "topics": [
            "0xc7f505b2f371ae2175ee4913f4499e1f2633a7b5936321eed1cdaeb6115181d2"
          ],
          "data": "0x0000000000000000000000000000000000000000000000000000000000000001",
          "blockHash": "0x0000000000000000000000000000000000000000000000000000000000000000",
          "blockNumber": "0x26b7d19",
          "blockTimestamp": "0x69ea5912",
          "transactionHash": "0x4390439b85f450bd6aabd8047154d2ff34a66453a42b7358de5b6f34ba0bd8d4",
          "transactionIndex": "0x10",
          "logIndex": "0xd6",
          "removed": false
        },
        {
          "address": "0x30fc4219cf26931336ec5befbcf73344c54deba3",
          "topics": [
            "0x8be0079c531659141344cd1fd0a4f28419497f9722a3daafe3b4186f6b6457e0",
            "0x0000000000000000000000000000000000000000000000000000000000000000",
            "0x000000000000000000000000ff6bdef4fb646ee44e29fe8fc0862b02f0ba8a33"
          ],
          "data": "0x",
          "blockHash": "0x0000000000000000000000000000000000000000000000000000000000000000",
          "blockNumber": "0x26b7d19",
          "blockTimestamp": "0x69ea5912",
          "transactionHash": "0x4390439b85f450bd6aabd8047154d2ff34a66453a42b7358de5b6f34ba0bd8d4",
          "transactionIndex": "0x10",
          "logIndex": "0xd7",
          "removed": false
        },
        {
          "address": "0xa76a33fd6bc2e9d37d6a02d060e91ab4c84728d0",
          "topics": [
            "0x7e644d79422f17c01e4894b5f4f588d331ebfa28653d42ae832dc59e38c9798f"
          ],
          "data": "0x000000000000000000000000000000000000000000000000000000000000000000000000000000000000000030fc4219cf26931336ec5befbcf73344c54deba3",
          "blockHash": "0x0000000000000000000000000000000000000000000000000000000000000000",
          "blockNumber": "0x26b7d19",
          "blockTimestamp": "0x69ea5912",
          "transactionHash": "0x4390439b85f450bd6aabd8047154d2ff34a66453a42b7358de5b6f34ba0bd8d4",
          "transactionIndex": "0x10",
          "logIndex": "0xd8",
          "removed": false
        },
        {
          "address": "0xf06b53ce00f1de55e65f9a2969e9d39124e5ddbb",
          "topics": [
            "0xbc7cd75a20ee27fd9adebab32041f755214dbc6bffa90cc0225b39da2e5c2d3b",
            "0x000000000000000000000000ba2a6c2bc09bf1f213bb67692e2af672b6c45524"
          ],
          "data": "0x",
          "blockHash": "0x0000000000000000000000000000000000000000000000000000000000000000",
          "blockNumber": "0x26b7d19",
          "blockTimestamp": "0x69ea5912",
          "transactionHash": "0x4390439b85f450bd6aabd8047154d2ff34a66453a42b7358de5b6f34ba0bd8d4",
          "transactionIndex": "0x10",
          "logIndex": "0xd9",
          "removed": false
        },
        {
          "address": "0xf06b53ce00f1de55e65f9a2969e9d39124e5ddbb",
          "topics": [
            "0xc7f505b2f371ae2175ee4913f4499e1f2633a7b5936321eed1cdaeb6115181d2"
          ],
          "data": "0x0000000000000000000000000000000000000000000000000000000000000001",
          "blockHash": "0x0000000000000000000000000000000000000000000000000000000000000000",
          "blockNumber": "0x26b7d19",
          "blockTimestamp": "0x69ea5912",
          "transactionHash": "0x4390439b85f450bd6aabd8047154d2ff34a66453a42b7358de5b6f34ba0bd8d4",
          "transactionIndex": "0x10",
          "logIndex": "0xda",
          "removed": false
        },
        {
          "address": "0xc65472ad3542cc7382f665dbc8a81bbc4291d278",
          "topics": [
            "0x8be0079c531659141344cd1fd0a4f28419497f9722a3daafe3b4186f6b6457e0",
            "0x0000000000000000000000000000000000000000000000000000000000000000",
            "0x000000000000000000000000ff6bdef4fb646ee44e29fe8fc0862b02f0ba8a33"
          ],
          "data": "0x",
          "blockHash": "0x0000000000000000000000000000000000000000000000000000000000000000",
          "blockNumber": "0x26b7d19",
          "blockTimestamp": "0x69ea5912",
          "transactionHash": "0x4390439b85f450bd6aabd8047154d2ff34a66453a42b7358de5b6f34ba0bd8d4",
          "transactionIndex": "0x10",
          "logIndex": "0xdb",
          "removed": false
        },
        {
          "address": "0xf06b53ce00f1de55e65f9a2969e9d39124e5ddbb",
          "topics": [
            "0x7e644d79422f17c01e4894b5f4f588d331ebfa28653d42ae832dc59e38c9798f"
          ],
          "data": "0x0000000000000000000000000000000000000000000000000000000000000000000000000000000000000000c65472ad3542cc7382f665dbc8a81bbc4291d278",
          "blockHash": "0x0000000000000000000000000000000000000000000000000000000000000000",
          "blockNumber": "0x26b7d19",
          "blockTimestamp": "0x69ea5912",
          "transactionHash": "0x4390439b85f450bd6aabd8047154d2ff34a66453a42b7358de5b6f34ba0bd8d4",
          "transactionIndex": "0x10",
          "logIndex": "0xdc",
          "removed": false
        },
        {
          "address": "0x45abc9cf7454741b3ae9db7a25b03615d49b64d0",
          "topics": [
            "0xbc7cd75a20ee27fd9adebab32041f755214dbc6bffa90cc0225b39da2e5c2d3b",
            "0x0000000000000000000000005b5cce7aab1eaf8fbd9d3376c4a1fce76e94acc1"
          ],
          "data": "0x",
          "blockHash": "0x0000000000000000000000000000000000000000000000000000000000000000",
          "blockNumber": "0x26b7d19",
          "blockTimestamp": "0x69ea5912",
          "transactionHash": "0x4390439b85f450bd6aabd8047154d2ff34a66453a42b7358de5b6f34ba0bd8d4",
          "transactionIndex": "0x10",
          "logIndex": "0xdd",
          "removed": false
        },
        {
          "address": "0x45abc9cf7454741b3ae9db7a25b03615d49b64d0",
          "topics": [
            "0xc7f505b2f371ae2175ee4913f4499e1f2633a7b5936321eed1cdaeb6115181d2"
          ],
          "data": "0x0000000000000000000000000000000000000000000000000000000000000001",
          "blockHash": "0x0000000000000000000000000000000000000000000000000000000000000000",
          "blockNumber": "0x26b7d19",
          "blockTimestamp": "0x69ea5912",
          "transactionHash": "0x4390439b85f450bd6aabd8047154d2ff34a66453a42b7358de5b6f34ba0bd8d4",
          "transactionIndex": "0x10",
          "logIndex": "0xde",
          "removed": false
        },
        {
          "address": "0x072c48854bfccc6082d3deb2eea9caa18c3ba31b",
          "topics": [
            "0x8be0079c531659141344cd1fd0a4f28419497f9722a3daafe3b4186f6b6457e0",
            "0x0000000000000000000000000000000000000000000000000000000000000000",
            "0x000000000000000000000000ff6bdef4fb646ee44e29fe8fc0862b02f0ba8a33"
          ],
          "data": "0x",
          "blockHash": "0x0000000000000000000000000000000000000000000000000000000000000000",
          "blockNumber": "0x26b7d19",
          "blockTimestamp": "0x69ea5912",
          "transactionHash": "0x4390439b85f450bd6aabd8047154d2ff34a66453a42b7358de5b6f34ba0bd8d4",
          "transactionIndex": "0x10",
          "logIndex": "0xdf",
          "removed": false
        },
        {
          "address": "0x45abc9cf7454741b3ae9db7a25b03615d49b64d0",
          "topics": [
            "0x7e644d79422f17c01e4894b5f4f588d331ebfa28653d42ae832dc59e38c9798f"
          ],
          "data": "0x0000000000000000000000000000000000000000000000000000000000000000000000000000000000000000072c48854bfccc6082d3deb2eea9caa18c3ba31b",
          "blockHash": "0x0000000000000000000000000000000000000000000000000000000000000000",
          "blockNumber": "0x26b7d19",
          "blockTimestamp": "0x69ea5912",
          "transactionHash": "0x4390439b85f450bd6aabd8047154d2ff34a66453a42b7358de5b6f34ba0bd8d4",
          "transactionIndex": "0x10",
          "logIndex": "0xe0",
          "removed": false
        },
        {
          "address": "0x9facb505497415086adf4d93b48e638f59e9570a",
          "topics": [
            "0xbc7cd75a20ee27fd9adebab32041f755214dbc6bffa90cc0225b39da2e5c2d3b",
            "0x000000000000000000000000fa92130195a1a593b06180c73e33f4448ff639b3"
          ],
          "data": "0x",
          "blockHash": "0x0000000000000000000000000000000000000000000000000000000000000000",
          "blockNumber": "0x26b7d19",
          "blockTimestamp": "0x69ea5912",
          "transactionHash": "0x4390439b85f450bd6aabd8047154d2ff34a66453a42b7358de5b6f34ba0bd8d4",
          "transactionIndex": "0x10",
          "logIndex": "0xe1",
          "removed": false
        },
        {
          "address": "0x9facb505497415086adf4d93b48e638f59e9570a",
          "topics": [
            "0xc7f505b2f371ae2175ee4913f4499e1f2633a7b5936321eed1cdaeb6115181d2"
          ],
          "data": "0x0000000000000000000000000000000000000000000000000000000000000001",
          "blockHash": "0x0000000000000000000000000000000000000000000000000000000000000000",
          "blockNumber": "0x26b7d19",
          "blockTimestamp": "0x69ea5912",
          "transactionHash": "0x4390439b85f450bd6aabd8047154d2ff34a66453a42b7358de5b6f34ba0bd8d4",
          "transactionIndex": "0x10",
          "logIndex": "0xe2",
          "removed": false
        },
        {
          "address": "0xa7f6b11213d3e7f3310d60b727db9ce7ea4a5ff7",
          "topics": [
            "0x8be0079c531659141344cd1fd0a4f28419497f9722a3daafe3b4186f6b6457e0",
            "0x0000000000000000000000000000000000000000000000000000000000000000",
            "0x000000000000000000000000ff6bdef4fb646ee44e29fe8fc0862b02f0ba8a33"
          ],
          "data": "0x",
          "blockHash": "0x0000000000000000000000000000000000000000000000000000000000000000",
          "blockNumber": "0x26b7d19",
          "blockTimestamp": "0x69ea5912",
          "transactionHash": "0x4390439b85f450bd6aabd8047154d2ff34a66453a42b7358de5b6f34ba0bd8d4",
          "transactionIndex": "0x10",
          "logIndex": "0xe3",
          "removed": false
        },
        {
          "address": "0x9facb505497415086adf4d93b48e638f59e9570a",
          "topics": [
            "0x7e644d79422f17c01e4894b5f4f588d331ebfa28653d42ae832dc59e38c9798f"
          ],
          "data": "0x0000000000000000000000000000000000000000000000000000000000000000000000000000000000000000a7f6b11213d3e7f3310d60b727db9ce7ea4a5ff7",
          "blockHash": "0x0000000000000000000000000000000000000000000000000000000000000000",
          "blockNumber": "0x26b7d19",
          "blockTimestamp": "0x69ea5912",
          "transactionHash": "0x4390439b85f450bd6aabd8047154d2ff34a66453a42b7358de5b6f34ba0bd8d4",
          "transactionIndex": "0x10",
          "logIndex": "0xe4",
          "removed": false
        },
        {
          "address": "0x7cbba82cbe75c7aa312f37f41d56c1abd4ab8395",
          "topics": [
            "0xbc7cd75a20ee27fd9adebab32041f755214dbc6bffa90cc0225b39da2e5c2d3b",
            "0x000000000000000000000000bd10e5870bb026d1b5fa7edeefafd913d183697d"
          ],
          "data": "0x",
          "blockHash": "0x0000000000000000000000000000000000000000000000000000000000000000",
          "blockNumber": "0x26b7d19",
          "blockTimestamp": "0x69ea5912",
          "transactionHash": "0x4390439b85f450bd6aabd8047154d2ff34a66453a42b7358de5b6f34ba0bd8d4",
          "transactionIndex": "0x10",
          "logIndex": "0xe5",
          "removed": false
        },
        {
          "address": "0x7cbba82cbe75c7aa312f37f41d56c1abd4ab8395",
          "topics": [
            "0xc7f505b2f371ae2175ee4913f4499e1f2633a7b5936321eed1cdaeb6115181d2"
          ],
          "data": "0x0000000000000000000000000000000000000000000000000000000000000001",
          "blockHash": "0x0000000000000000000000000000000000000000000000000000000000000000",
          "blockNumber": "0x26b7d19",
          "blockTimestamp": "0x69ea5912",
          "transactionHash": "0x4390439b85f450bd6aabd8047154d2ff34a66453a42b7358de5b6f34ba0bd8d4",
          "transactionIndex": "0x10",
          "logIndex": "0xe6",
          "removed": false
        },
        {
          "address": "0x05fb98341b7e9ddfe2d2f9a8cf1cbe15abcf8b29",
          "topics": [
            "0x8be0079c531659141344cd1fd0a4f28419497f9722a3daafe3b4186f6b6457e0",
            "0x0000000000000000000000000000000000000000000000000000000000000000",
            "0x000000000000000000000000ff6bdef4fb646ee44e29fe8fc0862b02f0ba8a33"
          ],
          "data": "0x",
          "blockHash": "0x0000000000000000000000000000000000000000000000000000000000000000",
          "blockNumber": "0x26b7d19",
          "blockTimestamp": "0x69ea5912",
          "transactionHash": "0x4390439b85f450bd6aabd8047154d2ff34a66453a42b7358de5b6f34ba0bd8d4",
          "transactionIndex": "0x10",
          "logIndex": "0xe7",
          "removed": false
        },
        {
          "address": "0x7cbba82cbe75c7aa312f37f41d56c1abd4ab8395",
          "topics": [
            "0x7e644d79422f17c01e4894b5f4f588d331ebfa28653d42ae832dc59e38c9798f"
          ],
          "data": "0x000000000000000000000000000000000000000000000000000000000000000000000000000000000000000005fb98341b7e9ddfe2d2f9a8cf1cbe15abcf8b29",
          "blockHash": "0x0000000000000000000000000000000000000000000000000000000000000000",
          "blockNumber": "0x26b7d19",
          "blockTimestamp": "0x69ea5912",
          "transactionHash": "0x4390439b85f450bd6aabd8047154d2ff34a66453a42b7358de5b6f34ba0bd8d4",
          "transactionIndex": "0x10",
          "logIndex": "0xe8",
          "removed": false
        },
        {
          "address": "0x5178a4ab4c6400ceeb812663affd1bd5b0c9ff64",
          "topics": [
            "0xdaba71fb20c7def36f77061e2eb9b33ce4c86c9777d97c848deb399d13dcca8b",
            "0x000000000000000000000000a76a33fd6bc2e9d37d6a02d060e91ab4c84728d0",
            "0x000000000000000000000000ff6bdef4fb646ee44e29fe8fc0862b02f0ba8a33"
          ],
          "data": "0x000000000000000000000000f06b53ce00f1de55e65f9a2969e9d39124e5ddbb0000000000000000000000007cbba82cbe75c7aa312f37f41d56c1abd4ab839500000000000000000000000045abc9cf7454741b3ae9db7a25b03615d49b64d00000000000000000000000009facb505497415086adf4d93b48e638f59e9570a00000000000000000000000000000000000000000000000001ff973cafa8000000000000000000000000000000000000000000000000001b1ae4d6e2ef50000000000000000000000000000000000000000000000000006c6b935b8bbd4000000000000000000000000000000000000000000000000000000000000069ebaa7e00000000000000000000000000000000000000000000000000000000000007080000000000000000000000000000000000000000000000000de0b6b3a76400000000000000000000000000000000000000000000000000000000000069ea5912",
          "blockHash": "0x0000000000000000000000000000000000000000000000000000000000000000",
          "blockNumber": "0x26b7d19",
          "blockTimestamp": "0x69ea5912",
          "transactionHash": "0x4390439b85f450bd6aabd8047154d2ff34a66453a42b7358de5b6f34ba0bd8d4",
          "transactionIndex": "0x10",
          "logIndex": "0xe9",
          "removed": false
        }
      ],
      "logsBloom": "0x00000800200000000000300000000000400000040000000000800000000000000020000000000000040040000000000000000000000214000000000000000000000800000000000000000000000002000001020000000001008000000000000000000000022000180000000000000c000100108200402000000020000000004000000000200000000008000000000000000000000000800000004000008000002000200080000000000402100200000000100000000000000000082100000800004000200000000000008000000b0100000000000414000000000000000020000000000080001000000020000000000080000000000004000020000000000008",
      "type": "0x2",
      "transactionHash": "0x4390439b85f450bd6aabd8047154d2ff34a66453a42b7358de5b6f34ba0bd8d4",
      "transactionIndex": "0x10",
      "blockHash": "0x0000000000000000000000000000000000000000000000000000000000000000",
      "blockNumber": "0x26b7d19",
      "gasUsed": "0x371b77",
      "effectiveGasPrice": "0x5b8d80",
      "blobGasUsed": "0x87dc",
      "from": "0xff6bdef4fb646ee44e29fe8fc0862b02f0ba8a33",
      "to": "0x5178a4ab4c6400ceeb812663affd1bd5b0c9ff64",
      "contractAddress": null,
      "daFootprintGasScalar": "0x94",
      "l1BaseFeeScalar": "0x44d",
      "l1BlobBaseFee": "0x268c0c",
      "l1BlobBaseFeeScalar": "0xa118b",
      "l1Fee": "0x25bb1231",
      "l1GasPrice": "0x36fc9bf",
      "l1GasUsed": "0xebf"
    },
    {
      "status": "0x1",
      "cumulativeGasUsed": "0x2a6289",
      "logs": [
        {
          "address": "0xa76a33fd6bc2e9d37d6a02d060e91ab4c84728d0",
          "topics": [
            "0x1809803edc7f4d0a1c400a8f95cac12ace860d60e118b6c9b491082a623963df",
            "0x0000000000000000000000001b0a76431b3cfd55b3be22497f03920c71623c47"
          ],
          "data": "0x00000000000000000000000000000000000000000000000000000000000000800000000000000000000000000000000000000000000000000000000000000000000000000000000000000000000000000000000000000000000000000002328000000000000000000000000000000000000000000000000000000000000000000000000000000000000000000000000000000000000000000000000000000000",
          "blockHash": "0x0000000000000000000000000000000000000000000000000000000000000000",
          "blockNumber": "0x26b7d1a",
          "blockTimestamp": "0x69ea5914",
          "transactionHash": "0x63d255fbaace2f028ca2f0a423422643a870919372ec3dd5babe2d20ffc6bb4b",
          "transactionIndex": "0xd",
          "logIndex": "0x35",
          "removed": false
        }
      ],
      "logsBloom": "0x00000000000000000000000000000000000000000000000400000000000000000000000000000000000000000000000000000000000010008000000000000000000000000000000000000000000000000000000000000000000000000000000000000000000000000000000000000000010000000000000000000000100000000000000000000000000000000000000000000000000000000000000000000000000000000000000000000200000000000000000000000000000000000080000000000000000000000000000000000000000000000000000000000000000000000010000000000000000000000000000000000000000002000000000000000000",
      "type": "0x2",
      "transactionHash": "0x63d255fbaace2f028ca2f0a423422643a870919372ec3dd5babe2d20ffc6bb4b",
      "transactionIndex": "0xd",
      "blockHash": "0x0000000000000000000000000000000000000000000000000000000000000000",
      "blockNumber": "0x26b7d1a",
      "gasUsed": "0x1f042",
      "effectiveGasPrice": "0x5b8d80",
      "blobGasUsed": "0x39d0",
      "from": "0xff6bdef4fb646ee44e29fe8fc0862b02f0ba8a33",
      "to": "0xa76a33fd6bc2e9d37d6a02d060e91ab4c84728d0",
      "contractAddress": null,
      "daFootprintGasScalar": "0x94",
      "l1BaseFeeScalar": "0x44d",
      "l1BlobBaseFee": "0x268c0c",
      "l1BlobBaseFeeScalar": "0xa118b",
      "l1Fee": "0xffd5dbb",
      "l1GasPrice": "0x36fc9bf",
      "l1GasUsed": "0x640"
    },
    {
      "status": "0x1",
      "cumulativeGasUsed": "0x4b0983",
      "logs": [
        {
          "address": "0x1b0a76431b3cfd55b3be22497f03920c71623c47",
          "topics": [
            "0x8c5be1e5ebec7d5bd14f71427d1e84f3dd0314c0f7b2291e5b200ac8c7c3b925",
            "0x000000000000000000000000ff6bdef4fb646ee44e29fe8fc0862b02f0ba8a33",
            "0x000000000000000000000000a76a33fd6bc2e9d37d6a02d060e91ab4c84728d0"
          ],
          "data": "0xffffffffffffffffffffffffffffffffffffffffffffffffffffffffffffffff",
          "blockHash": "0x0000000000000000000000000000000000000000000000000000000000000000",
          "blockNumber": "0x26b7d1b",
          "blockTimestamp": "0x69ea5916",
          "transactionHash": "0xddaa435554669e89c09bdd452923430c69145dfa87729513d18518e1e7a33e08",
          "transactionIndex": "0x11",
          "logIndex": "0xe2",
          "removed": false
        }
      ],
      "logsBloom": "0x00000000000000000000100000000000000000040000000100000000000000000000000000000000000000000000000000000000000000000000000000200000000000000000000000000000000000000000020000000001000000000000000000000000000000000000000000000000000000000000000000000000000000000100000000000000000000000000000000000000000000000000000000000000020000000000000000000000000000000000000000000000000000000000000000000000000000000000800000010000000000000000000000000001000000000010000000000000000000000000000000000000000000000000000000000000",
      "type": "0x2",
      "transactionHash": "0xddaa435554669e89c09bdd452923430c69145dfa87729513d18518e1e7a33e08",
      "transactionIndex": "0x11",
      "blockHash": "0x0000000000000000000000000000000000000000000000000000000000000000",
      "blockNumber": "0x26b7d1b",
      "gasUsed": "0xb4cb",
      "effectiveGasPrice": "0x5b8d80",
      "blobGasUsed": "0x39d0",
      "from": "0xff6bdef4fb646ee44e29fe8fc0862b02f0ba8a33",
      "to": "0x1b0a76431b3cfd55b3be22497f03920c71623c47",
      "contractAddress": null,
      "daFootprintGasScalar": "0x94",
      "l1BaseFeeScalar": "0x44d",
      "l1BlobBaseFee": "0x268c0c",
      "l1BlobBaseFeeScalar": "0xa118b",
      "l1Fee": "0x579ef78d",
      "l1GasPrice": "0x36fc9bf",
      "l1GasUsed": "0x640"
    },
    {
      "status": "0x1",
      "cumulativeGasUsed": "0x22f3d3",
      "logs": [
        {
          "address": "0x1b0a76431b3cfd55b3be22497f03920c71623c47",
          "topics": [
            "0xddf252ad1be2c89b69c2b068fc378daa952ba7f163c4a11628f55a4df523b3ef",
            "0x000000000000000000000000ff6bdef4fb646ee44e29fe8fc0862b02f0ba8a33",
            "0x000000000000000000000000a76a33fd6bc2e9d37d6a02d060e91ab4c84728d0"
          ],
          "data": "0x0000000000000000000000000000000000000000000000000000000006021600",
          "blockHash": "0x0000000000000000000000000000000000000000000000000000000000000000",
          "blockNumber": "0x26b7d1d",
          "blockTimestamp": "0x69ea591a",
          "transactionHash": "0xcaa50d175b881c2abc9f08443ac2fc137d9126ba441ad278a6ead4f0fd90d163",
          "transactionIndex": "0x5",
          "logIndex": "0x79",
          "removed": false
        },
        {
          "address": "0x1b0a76431b3cfd55b3be22497f03920c71623c47",
          "topics": [
            "0xddf252ad1be2c89b69c2b068fc378daa952ba7f163c4a11628f55a4df523b3ef",
            "0x000000000000000000000000a76a33fd6bc2e9d37d6a02d060e91ab4c84728d0",
            "0x000000000000000000000000ff6bdef4fb646ee44e29fe8fc0862b02f0ba8a33"
          ],
          "data": "0x00000000000000000000000000000000000000000000000000000000002e2480",
          "blockHash": "0x0000000000000000000000000000000000000000000000000000000000000000",
          "blockNumber": "0x26b7d1d",
          "blockTimestamp": "0x69ea591a",
          "transactionHash": "0xcaa50d175b881c2abc9f08443ac2fc137d9126ba441ad278a6ead4f0fd90d163",
          "transactionIndex": "0x5",
          "logIndex": "0x7a",
          "removed": false
        },
        {
          "address": "0xa76a33fd6bc2e9d37d6a02d060e91ab4c84728d0",
          "topics": [
            "0x4dd12c0ecba594b5bb7a4e3ec05ef19e1135fed23711a1fe4b1c9e6c9b40391b",
            "0x000000000000000000000000ff6bdef4fb646ee44e29fe8fc0862b02f0ba8a33",
            "0x0000000000000000000000001b0a76431b3cfd55b3be22497f03920c71623c47"
          ],
          "data": "0x00000000000000000000000000000000000000000000000000000000002e2480",
          "blockHash": "0x0000000000000000000000000000000000000000000000000000000000000000",
          "blockNumber": "0x26b7d1d",
          "blockTimestamp": "0x69ea591a",
          "transactionHash": "0xcaa50d175b881c2abc9f08443ac2fc137d9126ba441ad278a6ead4f0fd90d163",
          "transactionIndex": "0x5",
          "logIndex": "0x7b",
          "removed": false
        },
        {
          "address": "0xf06b53ce00f1de55e65f9a2969e9d39124e5ddbb",
          "topics": [
            "0xddf252ad1be2c89b69c2b068fc378daa952ba7f163c4a11628f55a4df523b3ef",
            "0x0000000000000000000000000000000000000000000000000000000000000000",
            "0x000000000000000000000000ff6bdef4fb646ee44e29fe8fc0862b02f0ba8a33"
          ],
          "data": "0x000000000000000000000000000000000000000000000025f273933db5700000",
          "blockHash": "0x0000000000000000000000000000000000000000000000000000000000000000",
          "blockNumber": "0x26b7d1d",
          "blockTimestamp": "0x69ea591a",
          "transactionHash": "0xcaa50d175b881c2abc9f08443ac2fc137d9126ba441ad278a6ead4f0fd90d163",
          "transactionIndex": "0x5",
          "logIndex": "0x7c",
          "removed": false
        },
        {
          "address": "0xa76a33fd6bc2e9d37d6a02d060e91ab4c84728d0",
          "topics": [
            "0x0b9c8304b83df3d2827b952a8e4c87faef3556dddcde57a47cb80f0c755606a5",
            "0x000000000000000000000000ff6bdef4fb646ee44e29fe8fc0862b02f0ba8a33",
            "0x0000000000000000000000001b0a76431b3cfd55b3be22497f03920c71623c47"
          ],
          "data": "0x0000000000000000000000000000000000000000000000000000000006021600000000000000000000000000000000000000000000000025f273933db57000000000000000000000000000000000000000000000000000000000000000000000000000000000000000000000000000000000000000000025f273933db5700000",
          "blockHash": "0x0000000000000000000000000000000000000000000000000000000000000000",
          "blockNumber": "0x26b7d1d",
          "blockTimestamp": "0x69ea591a",
          "transactionHash": "0xcaa50d175b881c2abc9f08443ac2fc137d9126ba441ad278a6ead4f0fd90d163",
          "transactionIndex": "0x5",
          "logIndex": "0x7d",
          "removed": false
        },
        {
          "address": "0x1b0a76431b3cfd55b3be22497f03920c71623c47",
          "topics": [
            "0xddf252ad1be2c89b69c2b068fc378daa952ba7f163c4a11628f55a4df523b3ef",
            "0x000000000000000000000000a76a33fd6bc2e9d37d6a02d060e91ab4c84728d0",
            "0x000000000000000000000000ff6bdef4fb646ee44e29fe8fc0862b02f0ba8a33"
          ],
          "data": "0x0000000000000000000000000000000000000000000000000000000005d3f180",
          "blockHash": "0x0000000000000000000000000000000000000000000000000000000000000000",
          "blockNumber": "0x26b7d1d",
          "blockTimestamp": "0x69ea591a",
          "transactionHash": "0xcaa50d175b881c2abc9f08443ac2fc137d9126ba441ad278a6ead4f0fd90d163",
          "transactionIndex": "0x5",
          "logIndex": "0x7e",
          "removed": false
        },
        {
          "address": "0xa76a33fd6bc2e9d37d6a02d060e91ab4c84728d0",
          "topics": [
            "0x120bfc1de29621f7872a5b3129b6524ceb18df8c689a37496b8ee4007235dbc8"
          ],
          "data": "0x00000000000000000000000000000000000000000000000000000000000000000000000000000000000000000000000000000000000000000000000000000001",
          "blockHash": "0x0000000000000000000000000000000000000000000000000000000000000000",
          "blockNumber": "0x26b7d1d",
          "blockTimestamp": "0x69ea591a",
          "transactionHash": "0xcaa50d175b881c2abc9f08443ac2fc137d9126ba441ad278a6ead4f0fd90d163",
          "transactionIndex": "0x5",
          "logIndex": "0x7f",
          "removed": false
        },
        {
          "address": "0xa76a33fd6bc2e9d37d6a02d060e91ab4c84728d0",
          "topics": [
            "0xccb4518c7bb9cdee893961401854c0ac29fad869f3338dc3087c9215fa4ab9e1"
          ],
          "data": "0x0000000000000000000000000000000000000000000000000000000000000000000000000000000000000000000000000000000000000025f273933db5700000",
          "blockHash": "0x0000000000000000000000000000000000000000000000000000000000000000",
          "blockNumber": "0x26b7d1d",
          "blockTimestamp": "0x69ea591a",
          "transactionHash": "0xcaa50d175b881c2abc9f08443ac2fc137d9126ba441ad278a6ead4f0fd90d163",
          "transactionIndex": "0x5",
          "logIndex": "0x80",
          "removed": false
        }
      ],
      "logsBloom": "0x00000000000000000000100000000000000000040000400180000000000008000000000000000000000000000000000000000000000010000000000000000000000000000000000000000008000010000000020000800001000000000000000000000000020000000000000000000800010000000000000000000010101000000100000000000000000000000000000000000000000000000000000000000000000000000000000000100220020000000000000000000000000000000080000000400002000000000000800000092000000000000000004000000001000020000010000082000000000000000000000000000000000000000000000000000000",
      "type": "0x2",
      "transactionHash": "0xcaa50d175b881c2abc9f08443ac2fc137d9126ba441ad278a6ead4f0fd90d163",
      "transactionIndex": "0x5",
      "blockHash": "0x0000000000000000000000000000000000000000000000000000000000000000",
      "blockNumber": "0x26b7d1d",
      "gasUsed": "0x494eb",
      "effectiveGasPrice": "0x5b8d80",
      "blobGasUsed": "0x39d0",
      "from": "0xff6bdef4fb646ee44e29fe8fc0862b02f0ba8a33",
      "to": "0xa76a33fd6bc2e9d37d6a02d060e91ab4c84728d0",
      "contractAddress": null,
      "daFootprintGasScalar": "0x94",
      "l1BaseFeeScalar": "0x44d",
      "l1BlobBaseFee": "0x27ddc8",
      "l1BlobBaseFeeScalar": "0xa118b",
      "l1Fee": "0x5739adaf",
      "l1GasPrice": "0x38bd8e2",
      "l1GasUsed": "0x640"
    },
    {
      "status": "0x1",
      "cumulativeGasUsed": "0x4dd34e",
      "logs": [
        {
          "address": "0x45abc9cf7454741b3ae9db7a25b03615d49b64d0",
          "topics": [
            "0x8d160eff266df162107c57259a1f1e71787bd4ab800800826bd189d6f2f3e83c",
            "0x0000000000000000000000000000000000000000000000000000000000000001"
          ],
          "data": "0x0000000000000000000000000000000000000000000000000000000069ea591c",
          "blockHash": "0x0000000000000000000000000000000000000000000000000000000000000000",
          "blockNumber": "0x26b7d1e",
          "blockTimestamp": "0x69ea591c",
          "transactionHash": "0xe15a946837020a2b6f0bc2f8e413605b2690f9b1ee0a1f39405e4cdf23f5d737",
          "transactionIndex": "0x10",
          "logIndex": "0xa1",
          "removed": false
        }
      ],
      "logsBloom": "0x00000000800000000000000000000000000000000000000000000000000000000000000000000000000000000000000000000000000000000000000000040000000000000000000000000000000000000000000000040000000000000000000000000000000000000000000000000000000000020040000000000000000000000000000000000000000000000000000000000000000000000000000000000000200000000000000000000000080000000000000000000000000000000000000000000000000000000000000000000000000000000000000000000000000040000000000200000000000000000000000000000000000000000000000000000000",
      "type": "0x2",
      "transactionHash": "0xe15a946837020a2b6f0bc2f8e413605b2690f9b1ee0a1f39405e4cdf23f5d737",
      "transactionIndex": "0x10",
      "blockHash": "0x0000000000000000000000000000000000000000000000000000000000000000",
      "blockNumber": "0x26b7d1e",
      "gasUsed": "0x24920",
      "effectiveGasPrice": "0x5b8d80",
      "blobGasUsed": "0x39d0",
      "from": "0xff6bdef4fb646ee44e29fe8fc0862b02f0ba8a33",
      "to": "0xa76a33fd6bc2e9d37d6a02d060e91ab4c84728d0",
      "contractAddress": null,
      "daFootprintGasScalar": "0x94",
      "l1BaseFeeScalar": "0x44d",
      "l1BlobBaseFee": "0x27ddc8",
      "l1BlobBaseFeeScalar": "0xa118b",
      "l1Fee": "0x589b8155",
      "l1GasPrice": "0x38bd8e2",
      "l1GasUsed": "0x640"
    },
    {
      "status": "0x1",
      "cumulativeGasUsed": "0x41f7c6",
      "logs": [
        {
          "address": "0xf06b53ce00f1de55e65f9a2969e9d39124e5ddbb",
          "topics": [
            "0x8c5be1e5ebec7d5bd14f71427d1e84f3dd0314c0f7b2291e5b200ac8c7c3b925",
            "0x000000000000000000000000ff6bdef4fb646ee44e29fe8fc0862b02f0ba8a33",
            "0x00000000000000000000000045abc9cf7454741b3ae9db7a25b03615d49b64d0"
          ],
          "data": "0xffffffffffffffffffffffffffffffffffffffffffffffffffffffffffffffff",
          "blockHash": "0x0000000000000000000000000000000000000000000000000000000000000000",
          "blockNumber": "0x26b7d1f",
          "blockTimestamp": "0x69ea591e",
          "transactionHash": "0xce199d197e19dba09f880e6d9c7eab85850584a2709ba9fefc7145b31ede63b2",
          "transactionIndex": "0x10",
          "logIndex": "0x7f",
          "removed": false
        }
      ],
      "logsBloom": "0x00000000000000000000100000000000000000000000000000000000000000000000000000000000020000000000000000000000000000000000000000200000000000000000000000000000000000000000000000000001000000000000000000000000000000000000000000000000000000000000000000000000000000000000000000000000000000000000000000000000000000000000000000000000020000000000000000000000020000000000000000000080000000000000000000000000000000000000000000090000000000000000000000000000000000000010001080000000000000000000000000000000000000000000000000000000",
      "type": "0x2",
      "transactionHash": "0xce199d197e19dba09f880e6d9c7eab85850584a2709ba9fefc7145b31ede63b2",
      "transactionIndex": "0x10",
      "blockHash": "0x0000000000000000000000000000000000000000000000000000000000000000",
      "blockNumber": "0x26b7d1f",
      "gasUsed": "0xc841",
      "effectiveGasPrice": "0x5b8d80",
      "blobGasUsed": "0x39d0",
      "from": "0xff6bdef4fb646ee44e29fe8fc0862b02f0ba8a33",
      "to": "0xf06b53ce00f1de55e65f9a2969e9d39124e5ddbb",
      "contractAddress": null,
      "daFootprintGasScalar": "0x94",
      "l1BaseFeeScalar": "0x44d",
      "l1BlobBaseFee": "0x27ddc8",
      "l1BlobBaseFeeScalar": "0xa118b",
      "l1Fee": "0x16f4bc09",
      "l1GasPrice": "0x38bd8e2",
      "l1GasUsed": "0x640"
    },
    {
      "status": "0x1",
      "cumulativeGasUsed": "0x36622b",
      "logs": [
        {
          "address": "0xf06b53ce00f1de55e65f9a2969e9d39124e5ddbb",
          "topics": [
            "0xddf252ad1be2c89b69c2b068fc378daa952ba7f163c4a11628f55a4df523b3ef",
            "0x000000000000000000000000ff6bdef4fb646ee44e29fe8fc0862b02f0ba8a33",
            "0x00000000000000000000000045abc9cf7454741b3ae9db7a25b03615d49b64d0"
          ],
          "data": "0x000000000000000000000000000000000000000000000025f273933db5700000",
          "blockHash": "0x0000000000000000000000000000000000000000000000000000000000000000",
          "blockNumber": "0x26b7d20",
          "blockTimestamp": "0x69ea5920",
          "transactionHash": "0xe5e80514a020d3ce5e351b288ca6383f8cb3cd2964176ec5109f87bd70b4f576",
          "transactionIndex": "0xd",
          "logIndex": "0x66",
          "removed": false
        },
        {
          "address": "0x45abc9cf7454741b3ae9db7a25b03615d49b64d0",
          "topics": [
            "0x9cfd25589d1eb8ad71e342a86a8524e83522e3936c0803048c08f6d9ad974f40",
            "0x000000000000000000000000ff6bdef4fb646ee44e29fe8fc0862b02f0ba8a33",
            "0x0000000000000000000000000000000000000000000000000000000000000000"
          ],
          "data": "0x000000000000000000000000000000000000000000000025f273933db5700000000000000000000000000000000000000000000000000025f273933db570000000000000000000000000000000000000000000000000000031f5c4ed27680000",
          "blockHash": "0x0000000000000000000000000000000000000000000000000000000000000000",
          "blockNumber": "0x26b7d20",
          "blockTimestamp": "0x69ea5920",
          "transactionHash": "0xe5e80514a020d3ce5e351b288ca6383f8cb3cd2964176ec5109f87bd70b4f576",
          "transactionIndex": "0xd",
          "logIndex": "0x67",
          "removed": false
        },
        {
          "address": "0x45abc9cf7454741b3ae9db7a25b03615d49b64d0",
          "topics": [
            "0x875894a489de1b1b13bf2e6c03981e3ddabcf1794b4b94dc5ba5d8e855a1e2f9"
          ],
          "data": "0x00000000000000000000000000000000000000000000000031f5c4ed27680000000000000000000000000000000000000000000000000025f273933db570000000000000000000000000000000000000000000000000006c6b935b8bbd400000",
          "blockHash": "0x0000000000000000000000000000000000000000000000000000000000000000",
          "blockNumber": "0x26b7d20",
          "blockTimestamp": "0x69ea5920",
          "transactionHash": "0xe5e80514a020d3ce5e351b288ca6383f8cb3cd2964176ec5109f87bd70b4f576",
          "transactionIndex": "0xd",
          "logIndex": "0x68",
          "removed": false
        }
      ],
      "logsBloom": "0x00000000000000000000100000000000000000000000000000000000000000000000000000000000020000000000000000000000000000000008000000000000000000000000000000000008000000000000000000000001000000000000000000000000020000000000000000000800000000020040000000000010000000000000000000000000000000000000000000000000000000000000000000000000200000000000000000000010020000000000000000000080000000000000200000800002000000000000000000090000000000000000000000000000000020000000001080800000000000000000000000000000000000000000000000100000",
      "type": "0x2",
      "transactionHash": "0xe5e80514a020d3ce5e351b288ca6383f8cb3cd2964176ec5109f87bd70b4f576",
      "transactionIndex": "0xd",
      "blockHash": "0x0000000000000000000000000000000000000000000000000000000000000000",
      "blockNumber": "0x26b7d20",
      "gasUsed": "0x47cb2",
      "effectiveGasPrice": "0x5b8d80",
      "blobGasUsed": "0x39d0",
      "from": "0xff6bdef4fb646ee44e29fe8fc0862b02f0ba8a33",
      "to": "0x45abc9cf7454741b3ae9db7a25b03615d49b64d0",
      "contractAddress": null,
      "daFootprintGasScalar": "0x94",
      "l1BaseFeeScalar": "0x44d",
      "l1BlobBaseFee": "0x293b13",
      "l1BlobBaseFeeScalar": "0xa118b",
      "l1Fee": "0x10b925e5",
      "l1GasPrice": "0x375dc5a",
      "l1GasUsed": "0x640"
    },
    {
      "status": "0x1",
      "cumulativeGasUsed": "0x219c7c",
      "logs": [
        {
          "address": "0x1b0a76431b3cfd55b3be22497f03920c71623c47",
          "topics": [
            "0xddf252ad1be2c89b69c2b068fc378daa952ba7f163c4a11628f55a4df523b3ef",
            "0x0000000000000000000000000000000000000000000000000000000000000000",
            "0x000000000000000000000000455ab6723ccab4cb62983710c33f6311cc85bc97"
          ],
          "data": "0x0000000000000000000000000000000000000000000000000000000002faf080",
          "blockHash": "0x0000000000000000000000000000000000000000000000000000000000000000",
          "blockNumber": "0x26b7d21",
          "blockTimestamp": "0x69ea5922",
          "transactionHash": "0x660af7444acfe6ca783952aaa27c943059c13238fab50109f2cce5698790aa64",
          "transactionIndex": "0x9",
          "logIndex": "0x39",
          "removed": false
        }
      ],
      "logsBloom": "0x00000000000000000000000000000000000000000000000100000000000000000000000000000000000000000000000000000000000000000000000000000000000000000000000000000008000000000000000000000000000000000000000000000000020000000000000000000800000000000000000000000010000100000100000000000000000000000002000000000000000000000000000000000000000000000000000000000000000000000000000000000000000000000000000000000002000000000000000000000000000000000000000000000001000020000000000000000000000000000000000000000000000000008000000000000000",
      "type": "0x2",
      "transactionHash": "0x660af7444acfe6ca783952aaa27c943059c13238fab50109f2cce5698790aa64",
      "transactionIndex": "0x9",
      "blockHash": "0x0000000000000000000000000000000000000000000000000000000000000000",
      "blockNumber": "0x26b7d21",
      "gasUsed": "0xc734",
      "effectiveGasPrice": "0x5b8d80",
      "blobGasUsed": "0x39d0",
      "from": "0xff6bdef4fb646ee44e29fe8fc0862b02f0ba8a33",
      "to": "0x1b0a76431b3cfd55b3be22497f03920c71623c47",
      "contractAddress": null,
      "daFootprintGasScalar": "0x94",
      "l1BaseFeeScalar": "0x44d",
      "l1BlobBaseFee": "0x293b13",
      "l1BlobBaseFeeScalar": "0xa118b",
      "l1Fee": "0x10b925e5",
      "l1GasPrice": "0x375dc5a",
      "l1GasUsed": "0x640"
    },
    {
      "status": "0x1",
      "cumulativeGasUsed": "0x6ce8d",
      "logs": [
        {
          "address": "0x1b0a76431b3cfd55b3be22497f03920c71623c47",
          "topics": [
            "0x8c5be1e5ebec7d5bd14f71427d1e84f3dd0314c0f7b2291e5b200ac8c7c3b925",
            "0x000000000000000000000000455ab6723ccab4cb62983710c33f6311cc85bc97",
            "0x000000000000000000000000a76a33fd6bc2e9d37d6a02d060e91ab4c84728d0"
          ],
          "data": "0xffffffffffffffffffffffffffffffffffffffffffffffffffffffffffffffff",
          "blockHash": "0x0000000000000000000000000000000000000000000000000000000000000000",
          "blockNumber": "0x26b7d22",
          "blockTimestamp": "0x69ea5924",
          "transactionHash": "0x5b5e54d3031d76f1bc9d6f500e3b345ebb5837b0ae635ae7f1d20ce4bfad21bb",
          "transactionIndex": "0x2",
          "logIndex": "0xb",
          "removed": false
        }
      ],
      "logsBloom": "0x00000000000000000000000000000000000000040000000100000000000000000000000000000000000000000000000000000000000000000000000000200000000000000000000000000000000000000000020000000000000000000000000000000000000000000000000000000000000000000000000000000000000100000100000000000000000000000002000000000000000000000000000000000000020000000000000000000000000000000000000000000000000000000000000000000000000000000000800000000000000000000000000000000001000000000010000000000000000000000000000000000000000000008000000000000000",
      "type": "0x2",
      "transactionHash": "0x5b5e54d3031d76f1bc9d6f500e3b345ebb5837b0ae635ae7f1d20ce4bfad21bb",
      "transactionIndex": "0x2",
      "blockHash": "0x0000000000000000000000000000000000000000000000000000000000000000",
      "blockNumber": "0x26b7d22",
      "gasUsed": "0xb4cb",
      "effectiveGasPrice": "0x5b8d80",
      "blobGasUsed": "0x39d0",
      "from": "0x455ab6723ccab4cb62983710c33f6311cc85bc97",
      "to": "0x1b0a76431b3cfd55b3be22497f03920c71623c47",
      "contractAddress": null,
      "daFootprintGasScalar": "0x94",
      "l1BaseFeeScalar": "0x44d",
      "l1BlobBaseFee": "0x293b13",
      "l1BlobBaseFeeScalar": "0xa118b",
      "l1Fee": "0x5beb9aa8",
      "l1GasPrice": "0x375dc5a",
      "l1GasUsed": "0x640"
    },
    {
      "status": "0x1",
      "cumulativeGasUsed": "0x45fc18",
      "logs": [
        {
          "address": "0x1b0a76431b3cfd55b3be22497f03920c71623c47",
          "topics": [
            "0xddf252ad1be2c89b69c2b068fc378daa952ba7f163c4a11628f55a4df523b3ef",
            "0x000000000000000000000000455ab6723ccab4cb62983710c33f6311cc85bc97",
            "0x000000000000000000000000a76a33fd6bc2e9d37d6a02d060e91ab4c84728d0"
          ],
          "data": "0x0000000000000000000000000000000000000000000000000000000002932e00",
          "blockHash": "0x0000000000000000000000000000000000000000000000000000000000000000",
          "blockNumber": "0x26b7d23",
          "blockTimestamp": "0x69ea5926",
          "transactionHash": "0x34f696b8e2cbfd15eab1aac9e072a5026a7f72fdd2f73f87e601dd7e28094b66",
          "transactionIndex": "0x10",
          "logIndex": "0xe4",
          "removed": false
        },
        {
          "address": "0x1b0a76431b3cfd55b3be22497f03920c71623c47",
          "topics": [
            "0xddf252ad1be2c89b69c2b068fc378daa952ba7f163c4a11628f55a4df523b3ef",
            "0x000000000000000000000000a76a33fd6bc2e9d37d6a02d060e91ab4c84728d0",
            "0x000000000000000000000000ff6bdef4fb646ee44e29fe8fc0862b02f0ba8a33"
          ],
          "data": "0x000000000000000000000000000000000000000000000000000000000013c680",
          "blockHash": "0x0000000000000000000000000000000000000000000000000000000000000000",
          "blockNumber": "0x26b7d23",
          "blockTimestamp": "0x69ea5926",
          "transactionHash": "0x34f696b8e2cbfd15eab1aac9e072a5026a7f72fdd2f73f87e601dd7e28094b66",
          "transactionIndex": "0x10",
          "logIndex": "0xe5",
          "removed": false
        },
        {
          "address": "0xa76a33fd6bc2e9d37d6a02d060e91ab4c84728d0",
          "topics": [
            "0x4dd12c0ecba594b5bb7a4e3ec05ef19e1135fed23711a1fe4b1c9e6c9b40391b",
            "0x000000000000000000000000455ab6723ccab4cb62983710c33f6311cc85bc97",
            "0x0000000000000000000000001b0a76431b3cfd55b3be22497f03920c71623c47"
          ],
          "data": "0x000000000000000000000000000000000000000000000000000000000013c680",
          "blockHash": "0x0000000000000000000000000000000000000000000000000000000000000000",
          "blockNumber": "0x26b7d23",
          "blockTimestamp": "0x69ea5926",
          "transactionHash": "0x34f696b8e2cbfd15eab1aac9e072a5026a7f72fdd2f73f87e601dd7e28094b66",
          "transactionIndex": "0x10",
          "logIndex": "0xe6",
          "removed": false
        },
        {
          "address": "0x1b0a76431b3cfd55b3be22497f03920c71623c47",
          "topics": [
            "0xddf252ad1be2c89b69c2b068fc378daa952ba7f163c4a11628f55a4df523b3ef",
            "0x000000000000000000000000a76a33fd6bc2e9d37d6a02d060e91ab4c84728d0",
            "0x000000000000000000000000ff6bdef4fb646ee44e29fe8fc0862b02f0ba8a33"
          ],
          "data": "0x00000000000000000000000000000000000000000000000000000000027f6780",
          "blockHash": "0x0000000000000000000000000000000000000000000000000000000000000000",
          "blockNumber": "0x26b7d23",
          "blockTimestamp": "0x69ea5926",
          "transactionHash": "0x34f696b8e2cbfd15eab1aac9e072a5026a7f72fdd2f73f87e601dd7e28094b66",
          "transactionIndex": "0x10",
          "logIndex": "0xe7",
          "removed": false
        },
        {
          "address": "0xf06b53ce00f1de55e65f9a2969e9d39124e5ddbb",
          "topics": [
            "0xddf252ad1be2c89b69c2b068fc378daa952ba7f163c4a11628f55a4df523b3ef",
            "0x0000000000000000000000000000000000000000000000000000000000000000",
            "0x000000000000000000000000455ab6723ccab4cb62983710c33f6311cc85bc97"
          ],
          "data": "0x00000000000000000000000000000000000000000000001043561a8829300000",
          "blockHash": "0x0000000000000000000000000000000000000000000000000000000000000000",
          "blockNumber": "0x26b7d23",
          "blockTimestamp": "0x69ea5926",
          "transactionHash": "0x34f696b8e2cbfd15eab1aac9e072a5026a7f72fdd2f73f87e601dd7e28094b66",
          "transactionIndex": "0x10",
          "logIndex": "0xe8",
          "removed": false
        },
        {
          "address": "0xa76a33fd6bc2e9d37d6a02d060e91ab4c84728d0",
          "topics": [
            "0x0b9c8304b83df3d2827b952a8e4c87faef3556dddcde57a47cb80f0c755606a5",
            "0x000000000000000000000000455ab6723ccab4cb62983710c33f6311cc85bc97",
            "0x0000000000000000000000001b0a76431b3cfd55b3be22497f03920c71623c47"
          ],
          "data": "0x0000000000000000000000000000000000000000000000000000000002932e0000000000000000000000000000000000000000000000001043561a8829300000000000000000000000000000000000000000000000000000000000000000000000000000000000000000000000000000000000000000003635c9adc5dea00000",
          "blockHash": "0x0000000000000000000000000000000000000000000000000000000000000000",
          "blockNumber": "0x26b7d23",
          "blockTimestamp": "0x69ea5926",
          "transactionHash": "0x34f696b8e2cbfd15eab1aac9e072a5026a7f72fdd2f73f87e601dd7e28094b66",
          "transactionIndex": "0x10",
          "logIndex": "0xe9",
          "removed": false
        }
      ],
      "logsBloom": "0x00000000000000000000100000000000000000040000000180000000000000000000000000000000000000000000000000000000000010000000000000000000000000000000000000000008000010000000020000000001000000000000000000000000020000000000000000000800010000000000000000000010101100000100000000000000000000000002000000000000000000000000000000000000000000000000000000000200020000000000000000000000000000000080000000400002000000000000800000090000000000000000004000000001000020000010000082000000000000000000000000000000000000008000000000000000",
      "type": "0x2",
      "transactionHash": "0x34f696b8e2cbfd15eab1aac9e072a5026a7f72fdd2f73f87e601dd7e28094b66",
      "transactionIndex": "0x10",
      "blockHash": "0x0000000000000000000000000000000000000000000000000000000000000000",
      "blockNumber": "0x26b7d23",
      "gasUsed": "0x29160",
      "effectiveGasPrice": "0x5b8d80",
      "blobGasUsed": "0x39d0",
      "from": "0x455ab6723ccab4cb62983710c33f6311cc85bc97",
      "to": "0xa76a33fd6bc2e9d37d6a02d060e91ab4c84728d0",
      "contractAddress": null,
      "daFootprintGasScalar": "0x94",
      "l1BaseFeeScalar": "0x44d",
      "l1BlobBaseFee": "0x293b13",
      "l1BlobBaseFeeScalar": "0xa118b",
      "l1Fee": "0x10b925e5",
      "l1GasPrice": "0x375dc5a",
      "l1GasUsed": "0x640"
    },
    {
      "status": "0x1",
      "cumulativeGasUsed": "0x12ab3c",
      "logs": [
        {
          "address": "0xf06b53ce00f1de55e65f9a2969e9d39124e5ddbb",
          "topics": [
            "0x8c5be1e5ebec7d5bd14f71427d1e84f3dd0314c0f7b2291e5b200ac8c7c3b925",
            "0x000000000000000000000000455ab6723ccab4cb62983710c33f6311cc85bc97",
            "0x00000000000000000000000045abc9cf7454741b3ae9db7a25b03615d49b64d0"
          ],
          "data": "0xffffffffffffffffffffffffffffffffffffffffffffffffffffffffffffffff",
          "blockHash": "0x0000000000000000000000000000000000000000000000000000000000000000",
          "blockNumber": "0x26b7d24",
          "blockTimestamp": "0x69ea5928",
          "transactionHash": "0x32cebced79c3f92c7cee691bb912caf6433afb442cd2520c350819551a6bfe53",
          "transactionIndex": "0x3",
          "logIndex": "0xc",
          "removed": false
        }
      ],
      "logsBloom": "0x00000000000000000000000000000000000000000000000000000000000000000000000000000000020000000000000000000000000000000000000000200000000000000000000000000000000000000000000000000000000000000000000000000000000000000000000000000000000000000000000000000000000100000000000000000000000000000002000000000000000000000000000000000000020000000000000000000000020000000000000000000080000000000000000000000000000000000000000000080000000000000000000000000000000000000010001080000000000000000000000000000000000000008000000000000000",
      "type": "0x2",
      "transactionHash": "0x32cebced79c3f92c7cee691bb912caf6433afb442cd2520c350819551a6bfe53",
      "transactionIndex": "0x3",
      "blockHash": "0x0000000000000000000000000000000000000000000000000000000000000000",
      "blockNumber": "0x26b7d24",
      "gasUsed": "0xc841",
      "effectiveGasPrice": "0x5b8d80",
      "blobGasUsed": "0x39d0",
      "from": "0x455ab6723ccab4cb62983710c33f6311cc85bc97",
      "to": "0xf06b53ce00f1de55e65f9a2969e9d39124e5ddbb",
      "contractAddress": null,
      "daFootprintGasScalar": "0x94",
      "l1BaseFeeScalar": "0x44d",
      "l1BlobBaseFee": "0x293b13",
      "l1BlobBaseFeeScalar": "0xa118b",
      "l1Fee": "0x10b925e5",
      "l1GasPrice": "0x375dc5a",
      "l1GasUsed": "0x640"
    },
    {
      "status": "0x1",
      "cumulativeGasUsed": "0x3fd82a",
      "logs": [
        {
          "address": "0xf06b53ce00f1de55e65f9a2969e9d39124e5ddbb",
          "topics": [
            "0xddf252ad1be2c89b69c2b068fc378daa952ba7f163c4a11628f55a4df523b3ef",
            "0x000000000000000000000000455ab6723ccab4cb62983710c33f6311cc85bc97",
            "0x00000000000000000000000045abc9cf7454741b3ae9db7a25b03615d49b64d0"
          ],
          "data": "0x00000000000000000000000000000000000000000000001043561a8829300000",
          "blockHash": "0x0000000000000000000000000000000000000000000000000000000000000000",
          "blockNumber": "0x26b7d25",
          "blockTimestamp": "0x69ea592a",
          "transactionHash": "0x0e2aa2def64c5575dc461f8dc1c1ce7e30431a9a275cdd03c761759bf82e741c",
          "transactionIndex": "0x10",
          "logIndex": "0x76",
          "removed": false
        },
        {
          "address": "0x45abc9cf7454741b3ae9db7a25b03615d49b64d0",
          "topics": [
            "0x9cfd25589d1eb8ad71e342a86a8524e83522e3936c0803048c08f6d9ad974f40",
            "0x000000000000000000000000455ab6723ccab4cb62983710c33f6311cc85bc97",
            "0x0000000000000000000000000000000000000000000000000000000000000001"
          ],
          "data": "0x00000000000000000000000000000000000000000000001043561a882930000000000000000000000000000000000000000000000000003635c9adc5dea0000000000000000000000000000000000000000000000000000029a2241af62c0000",
          "blockHash": "0x0000000000000000000000000000000000000000000000000000000000000000",
          "blockNumber": "0x26b7d25",
          "blockTimestamp": "0x69ea592a",
          "transactionHash": "0x0e2aa2def64c5575dc461f8dc1c1ce7e30431a9a275cdd03c761759bf82e741c",
          "transactionIndex": "0x10",
          "logIndex": "0x77",
          "removed": false
        },
        {
          "address": "0x45abc9cf7454741b3ae9db7a25b03615d49b64d0",
          "topics": [
            "0x875894a489de1b1b13bf2e6c03981e3ddabcf1794b4b94dc5ba5d8e855a1e2f9"
          ],
          "data": "0x00000000000000000000000000000000000000000000000029a2241af62c000000000000000000000000000000000000000000000000003635c9adc5dea0000000000000000000000000000000000000000000000000006c6b935b8bbd400000",
          "blockHash": "0x0000000000000000000000000000000000000000000000000000000000000000",
          "blockNumber": "0x26b7d25",
          "blockTimestamp": "0x69ea592a",
          "transactionHash": "0x0e2aa2def64c5575dc461f8dc1c1ce7e30431a9a275cdd03c761759bf82e741c",
          "transactionIndex": "0x10",
          "logIndex": "0x78",
          "removed": false
        }
      ],
      "logsBloom": "0x00000000000000000000000000000000000000000000000000000000000000000000000000000000020000000000000000000000000000000008000000040000000000000000000000000008000000000000000000040000000000000000000000000000000000000000000000000000000000020040000000000010000100000000000000000000000000000002000000000000000000000000000000000000200000000000000000000010020000000000000000000080000000000000200000800002000000000000000000080000000000000000000000000000000040000000001080800000000000000000000000000000000000008000000000100000",
      "type": "0x2",
      "transactionHash": "0x0e2aa2def64c5575dc461f8dc1c1ce7e30431a9a275cdd03c761759bf82e741c",
      "transactionIndex": "0x10",
      "blockHash": "0x0000000000000000000000000000000000000000000000000000000000000000",
      "blockNumber": "0x26b7d25",
      "gasUsed": "0x4ade9",
      "effectiveGasPrice": "0x5b8d80",
      "blobGasUsed": "0x39d0",
      "from": "0x455ab6723ccab4cb62983710c33f6311cc85bc97",
      "to": "0x45abc9cf7454741b3ae9db7a25b03615d49b64d0",
      "contractAddress": null,
      "daFootprintGasScalar": "0x94",
      "l1BaseFeeScalar": "0x44d",
      "l1BlobBaseFee": "0x293b13",
      "l1BlobBaseFeeScalar": "0xa118b",
      "l1Fee": "0x10b925e5",
      "l1GasPrice": "0x375dc5a",
      "l1GasUsed": "0x640"
    }
  ],
  "libraries": [],
  "pending": [],
  "returns": {},
  "timestamp": 1776965929860,
  "chain": 84532,
  "commit": "a7e83ce"
}