{
  "transactions": [
    {
      "hash": "0x577feba9eee931d4cf341ad3b829a6485077d652231ecdb3843b61baff12dcf3",
      "transactionType": "CALL",
      "contractName": "TransparentUpgradeableProxy",
      "contractAddress": "0x91fd5c9d274c519a152af14223bd10ed0b446bdd",
      "function": null,
      "arguments": null,
      "transaction": {
        "from": "0xff6bdef4fb646ee44e29fe8fc0862b02f0ba8a33",
        "to": "0x91fd5c9d274c519a152af14223bd10ed0b446bdd",
        "gas": "0xbc5e",
        "value": "0x0",
        "input": "0x4cd9c82d0000000000000000000000000000000000000000000000000000000000000708",
        "nonce": "0x7f",
        "chainId": "0x14a34"
      },
      "additionalContracts": [],
      "isFixedGasLimit": false
    },
    {
      "hash": "0x98793247e1c85b02da756f51ecabce96ba945da1de4d5d5e40f651a3120c89cb",
      "transactionType": "CALL",
      "contractName": "TransparentUpgradeableProxy",
      "contractAddress": "0x91fd5c9d274c519a152af14223bd10ed0b446bdd",
      "function": null,
      "arguments": null,
      "transaction": {
        "from": "0xff6bdef4fb646ee44e29fe8fc0862b02f0ba8a33",
        "to": "0x91fd5c9d274c519a152af14223bd10ed0b446bdd",
        "gas": "0x4f042d",
        "value": "0x0",
        "input": "0x8480fd830000000000000000000000000000000000000000000000000000000000000020000000000000000000000000ff6bdef4fb646ee44e29fe8fc0862b02f0ba8a3300000000000000000000000000000000000000000000000000000000000001c000000000000000000000000000000000000000000000000000000000000002000000000000000000000000000000000000000000000000000000000000000240000000000000000000000000000000000000000000000000000000000000028000000000000000000000000000000000000000000000000001ff973cafa8000000000000000000000000000000000000000000000000001b1ae4d6e2ef50000000000000000000000000000000000000000000000000006c6b935b8bbd4000000000000000000000000000000000000000000000000000000000000069f1adb600000000000000000000000000000000000000000000000000000000000007080000000000000000000000000000000000000000000000000de0b6b3a764000000000000000000000000000000000000000000000000000000000000000003e80000000000000000000000000000000000000000000000000de0b6b3a7640000000000000000000000000000000000000000000000000000000000000000000000000000000000000000000000000000000000000000000000000000000000104f6c6976652049475020536963696c790000000000000000000000000000000000000000000000000000000000000000000000000000000000000000000000054f4c495645000000000000000000000000000000000000000000000000000000000000000000000000000000000000000000000000000000000000000000000b4f6c697665205969656c6400000000000000000000000000000000000000000000000000000000000000000000000000000000000000000000000000000000066f5949454c440000000000000000000000000000000000000000000000000000",
        "nonce": "0x80",
        "chainId": "0x14a34"
      },
      "additionalContracts": [
        {
          "transactionType": "CREATE",
          "contractName": "TransparentUpgradeableProxy",
          "address": "0x66aa3c0367a5c9dd4c992f6fee35427e4b15063d",
          "initCode": "0x604060a08152610aac8038038061001581610268565b9283398101906060818303126102645761002e8161028d565b60209161003c83820161028d565b8582015190916001600160401b039190828211610264570185601f82011215610264578051908282116101ef5761007b601f8301601f19168701610268565b968288528683830101116102645785905f5b8381106102505750505f918701015284511561023f57823b1561021f577f360894a13ba1a3210667c828492db98dca3e2076cc3735a920a3ca505d382bbc80546001600160a01b03199081166001600160a01b03868116918217909355885192979195907fbc7cd75a20ee27fd9adebab32041f755214dbc6bffa90cc0225b39da2e5c2d3b5f80a28151156102035761012692506102a1565b505b85519161048391828401908111848210176101ef57868492879461062985391681520301905ff080156101e557831691826080527f7e644d79422f17c01e4894b5f4f588d331ebfa28653d42ae832dc59e38c9798f857fb53127684a568b3173ae13b9f8a6016e243e63b6e8ee1178d6a717850b5d6103958587549483519286168352820152a182156101ce5716179055516102f69081610333823960805181600f0152f35b8451633173bdd160e11b81525f6004820152602490fd5b84513d5f823e3d90fd5b634e487b7160e01b5f52604160045260245ffd5b5050346102105750610128565b63b398979f60e01b8152600490fd5b8551634c9c8ce360e01b81526001600160a01b0384166004820152602490fd5b85516330a289cf60e21b8152600490fd5b81810183015189820184015287920161008d565b5f80fd5b6040519190601f01601f191682016001600160401b038111838210176101ef57604052565b51906001600160a01b038216820361026457565b905f8091602081519101845af4808061031f575b156102d55750506040513d81523d5f602083013e60203d82010160405290565b156102fc57604051639996b31560e01b81526001600160a01b039091166004820152602490fd5b3d1561030d576040513d5f823e3d90fd5b60405163d6bda27560e01b8152600490fd5b503d1515806102b55750813b15156102b556fe60806040526001600160a01b03337f000000000000000000000000000000000000000000000000000000000000000082160361006a575f356001600160e01b03191663278f794360e11b14610060576040516334ad5dbb60e21b8152600490fd5b6100686100be565b005b5f80917f360894a13ba1a3210667c828492db98dca3e2076cc3735a920a3ca505d382bbc5416368280378136915af43d5f803e156100a6573d5ff35b3d5ffd5b634e487b7160e01b5f52604160045260245ffd5b3660041161015f57604036600319011261015f576004356001600160a01b0381169081900361015f576024359067ffffffffffffffff9081831161015f573660238401121561015f5782600401358281116101635760405192601f8201601f19908116603f011684019081118482101761016357604052808352366024828601011161015f576020815f92602461015d97018387013784010152610168565b565b5f80fd5b6100aa565b90813b156101ff577f360894a13ba1a3210667c828492db98dca3e2076cc3735a920a3ca505d382bbc80546001600160a01b0319166001600160a01b0384169081179091557fbc7cd75a20ee27fd9adebab32041f755214dbc6bffa90cc0225b39da2e5c2d3b5f80a28051156101e4576101e191610220565b50565b5050346101ed57565b60405163b398979f60e01b8152600490fd5b604051634c9c8ce360e01b81526001600160a01b0383166004820152602490fd5b905f8091602081519101845af48080610289575b156102465750506102436102a7565b90565b1561026e57604051639996b31560e01b81526001600160a01b03919091166004820152602490fd5b3d15155f0361029c5760405163d6bda27560e01b8152600490fd5b503d1515806102345750813b1515610234565b6040513d5f823e3d90fd5b604051903d82523d5f602084013e60203d83010160405256fea2646970667358221220371437a14d55b0192ed17af74450cdb0b22bf1f3d480185986e4348c96e968d064736f6c634300081800336080346100b957601f61048338819003918201601f19168301916001600160401b038311848410176100bd578084926020946040528339810103126100b957516001600160a01b0390818116908190036100b95780156100a1575f80546001600160a01b03198116831782556040519316907f8be0079c531659141344cd1fd0a4f28419497f9722a3daafe3b4186f6b6457e09080a36103b190816100d28239f35b604051631e4fbdf760e01b81525f6004820152602490fd5b5f80fd5b634e487b7160e01b5f52604160045260245ffdfe604060808152600480361015610013575f80fd5b5f915f3560e01c8063715018a6146102bb5780638da5cb5b146102945780639623609d1461015c578063ad3cb1cc146100eb5763f2fde38b14610054575f80fd5b346100e75760203660031901126100e7576001600160a01b038235818116939192908490036100e357610085610350565b83156100cd5750505f54826bffffffffffffffffffffffff60a01b8216175f55167f8be0079c531659141344cd1fd0a4f28419497f9722a3daafe3b4186f6b6457e05f80a380f35b51631e4fbdf760e01b8152908101849052602490fd5b5f80fd5b8280fd5b5082346101595780600319360112610159575080519080820182811067ffffffffffffffff821117610146576101429350815260058252640352e302e360dc1b602083015251918291602083526020830190610312565b0390f35b604184634e487b7160e01b5f525260245ffd5b80fd5b5060603660031901126100e3576001600160a01b03823581811693908490036100e35760249182359081168091036100e35767ffffffffffffffff906044358281116100e357366023820112156100e3578084013583811161028257865191601f8201601f19908116603f0116830185811184821017610270578852818352368783830101116100e357815f92886020930183860137830101526101fe610350565b863b156100e357610230965f92875180998194829363278f794360e11b8452898401528a8a8401526044830190610312565b039134905af1801561026657610244578580f35b909192938095501161025557505052005b604190634e487b7160e01b5f52525ffd5b84513d5f823e3d90fd5b87604188634e487b7160e01b5f52525ffd5b85604186634e487b7160e01b5f52525ffd5b50346100e3575f3660031901126100e3575f5490516001600160a01b039091168152602090f35b346100e3575f3660031901126100e3576102d3610350565b5f80546001600160a01b0319811682556001600160a01b03167f8be0079c531659141344cd1fd0a4f28419497f9722a3daafe3b4186f6b6457e08280a3005b91908251928382525f5b84811061033c575050825f602080949584010152601f8019910116010190565b60208183018101518483018201520161031c565b5f546001600160a01b0316330361036357565b60405163118cdaa760e01b8152336004820152602490fdfea26469706673582212202992a71449476404159c12582e1f3d5c014ae92bc1369e2e03b37152567a3c7d64736f6c6343000818003300000000000000000000000088008017bea558799a73b5479f6ae159698b48a8000000000000000000000000ff6bdef4fb646ee44e29fe8fc0862b02f0ba8a33000000000000000000000000000000000000000000000000000000000000006000000000000000000000000000000000000000000000000000000000000001e47c34725f000000000000000000000000ff6bdef4fb646ee44e29fe8fc0862b02f0ba8a3300000000000000000000000091fd5c9d274c519a152af14223bd10ed0b446bdd00000000000000000000000000000000000000000000000001ff973cafa8000000000000000000000000000000000000000000000000001b1ae4d6e2ef50000000000000000000000000000000000000000000000000006c6b935b8bbd4000000000000000000000000000000000000000000000000000000000000069f1adb6000000000000000000000000000000000000000000000000000000000000070800000000000000000000000000000000000000000000000000000000000000c8000000000000000000000000000000000000000000000000000000000000012c00000000000000000000000000000000000000000000000000000000000003e80000000000000000000000000000000000000000000000000de0b6b3a76400000000000000000000000000000000000000000000000000000000000000000000000000000000000000000000ff6bdef4fb646ee44e29fe8fc0862b02f0ba8a330000000000000000000000000000000000000000000000000000000000000000000000000000000000000000f286970e2470948abb010b4dd35e1ad2da3397b000000000000000000000000000000000000000000000000000000000"
        },
        {
          "transactionType": "CREATE",
          "contractName": "ProxyAdmin",
          "address": "0xadc422e64e648ffebae1aba896f6a72d27c67761",
          "initCode": "0x6080346100b957601f61048338819003918201601f19168301916001600160401b038311848410176100bd578084926020946040528339810103126100b957516001600160a01b0390818116908190036100b95780156100a1575f80546001600160a01b03198116831782556040519316907f8be0079c531659141344cd1fd0a4f28419497f9722a3daafe3b4186f6b6457e09080a36103b190816100d28239f35b604051631e4fbdf760e01b81525f6004820152602490fd5b5f80fd5b634e487b7160e01b5f52604160045260245ffdfe604060808152600480361015610013575f80fd5b5f915f3560e01c8063715018a6146102bb5780638da5cb5b146102945780639623609d1461015c578063ad3cb1cc146100eb5763f2fde38b14610054575f80fd5b346100e75760203660031901126100e7576001600160a01b038235818116939192908490036100e357610085610350565b83156100cd5750505f54826bffffffffffffffffffffffff60a01b8216175f55167f8be0079c531659141344cd1fd0a4f28419497f9722a3daafe3b4186f6b6457e05f80a380f35b51631e4fbdf760e01b8152908101849052602490fd5b5f80fd5b8280fd5b5082346101595780600319360112610159575080519080820182811067ffffffffffffffff821117610146576101429350815260058252640352e302e360dc1b602083015251918291602083526020830190610312565b0390f35b604184634e487b7160e01b5f525260245ffd5b80fd5b5060603660031901126100e3576001600160a01b03823581811693908490036100e35760249182359081168091036100e35767ffffffffffffffff906044358281116100e357366023820112156100e3578084013583811161028257865191601f8201601f19908116603f0116830185811184821017610270578852818352368783830101116100e357815f92886020930183860137830101526101fe610350565b863b156100e357610230965f92875180998194829363278f794360e11b8452898401528a8a8401526044830190610312565b039134905af1801561026657610244578580f35b909192938095501161025557505052005b604190634e487b7160e01b5f52525ffd5b84513d5f823e3d90fd5b87604188634e487b7160e01b5f52525ffd5b85604186634e487b7160e01b5f52525ffd5b50346100e3575f3660031901126100e3575f5490516001600160a01b039091168152602090f35b346100e3575f3660031901126100e3576102d3610350565b5f80546001600160a01b0319811682556001600160a01b03167f8be0079c531659141344cd1fd0a4f28419497f9722a3daafe3b4186f6b6457e08280a3005b91908251928382525f5b84811061033c575050825f602080949584010152601f8019910116010190565b60208183018101518483018201520161031c565b5f546001600160a01b0316330361036357565b60405163118cdaa760e01b8152336004820152602490fdfea26469706673582212202992a71449476404159c12582e1f3d5c014ae92bc1369e2e03b37152567a3c7d64736f6c63430008180033000000000000000000000000ff6bdef4fb646ee44e29fe8fc0862b02f0ba8a33"
        },
        {
          "transactionType": "CREATE",
          "contractName": "TransparentUpgradeableProxy",
          "address": "0x9a52f2522c4d74b874ac27a89b938272327da3db",
          "initCode": "0x604060a08152610aac8038038061001581610268565b9283398101906060818303126102645761002e8161028d565b60209161003c83820161028d565b8582015190916001600160401b039190828211610264570185601f82011215610264578051908282116101ef5761007b601f8301601f19168701610268565b968288528683830101116102645785905f5b8381106102505750505f918701015284511561023f57823b1561021f577f360894a13ba1a3210667c828492db98dca3e2076cc3735a920a3ca505d382bbc80546001600160a01b03199081166001600160a01b03868116918217909355885192979195907fbc7cd75a20ee27fd9adebab32041f755214dbc6bffa90cc0225b39da2e5c2d3b5f80a28151156102035761012692506102a1565b505b85519161048391828401908111848210176101ef57868492879461062985391681520301905ff080156101e557831691826080527f7e644d79422f17c01e4894b5f4f588d331ebfa28653d42ae832dc59e38c9798f857fb53127684a568b3173ae13b9f8a6016e243e63b6e8ee1178d6a717850b5d6103958587549483519286168352820152a182156101ce5716179055516102f69081610333823960805181600f0152f35b8451633173bdd160e11b81525f6004820152602490fd5b84513d5f823e3d90fd5b634e487b7160e01b5f52604160045260245ffd5b5050346102105750610128565b63b398979f60e01b8152600490fd5b8551634c9c8ce360e01b81526001600160a01b0384166004820152602490fd5b85516330a289cf60e21b8152600490fd5b81810183015189820184015287920161008d565b5f80fd5b6040519190601f01601f191682016001600160401b038111838210176101ef57604052565b51906001600160a01b038216820361026457565b905f8091602081519101845af4808061031f575b156102d55750506040513d81523d5f602083013e60203d82010160405290565b156102fc57604051639996b31560e01b81526001600160a01b039091166004820152602490fd5b3d1561030d576040513d5f823e3d90fd5b60405163d6bda27560e01b8152600490fd5b503d1515806102b55750813b15156102b556fe60806040526001600160a01b03337f000000000000000000000000000000000000000000000000000000000000000082160361006a575f356001600160e01b03191663278f794360e11b14610060576040516334ad5dbb60e21b8152600490fd5b6100686100be565b005b5f80917f360894a13ba1a3210667c828492db98dca3e2076cc3735a920a3ca505d382bbc5416368280378136915af43d5f803e156100a6573d5ff35b3d5ffd5b634e487b7160e01b5f52604160045260245ffd5b3660041161015f57604036600319011261015f576004356001600160a01b0381169081900361015f576024359067ffffffffffffffff9081831161015f573660238401121561015f5782600401358281116101635760405192601f8201601f19908116603f011684019081118482101761016357604052808352366024828601011161015f576020815f92602461015d97018387013784010152610168565b565b5f80fd5b6100aa565b90813b156101ff577f360894a13ba1a3210667c828492db98dca3e2076cc3735a920a3ca505d382bbc80546001600160a01b0319166001600160a01b0384169081179091557fbc7cd75a20ee27fd9adebab32041f755214dbc6bffa90cc0225b39da2e5c2d3b5f80a28051156101e4576101e191610220565b50565b5050346101ed57565b60405163b398979f60e01b8152600490fd5b604051634c9c8ce360e01b81526001600160a01b0383166004820152602490fd5b905f8091602081519101845af48080610289575b156102465750506102436102a7565b90565b1561026e57604051639996b31560e01b81526001600160a01b03919091166004820152602490fd5b3d15155f0361029c5760405163d6bda27560e01b8152600490fd5b503d1515806102345750813b1515610234565b6040513d5f823e3d90fd5b604051903d82523d5f602084013e60203d83010160405256fea2646970667358221220371437a14d55b0192ed17af74450cdb0b22bf1f3d480185986e4348c96e968d064736f6c634300081800336080346100b957601f61048338819003918201601f19168301916001600160401b038311848410176100bd578084926020946040528339810103126100b957516001600160a01b0390818116908190036100b95780156100a1575f80546001600160a01b03198116831782556040519316907f8be0079c531659141344cd1fd0a4f28419497f9722a3daafe3b4186f6b6457e09080a36103b190816100d28239f35b604051631e4fbdf760e01b81525f6004820152602490fd5b5f80fd5b634e487b7160e01b5f52604160045260245ffdfe604060808152600480361015610013575f80fd5b5f915f3560e01c8063715018a6146102bb5780638da5cb5b146102945780639623609d1461015c578063ad3cb1cc146100eb5763f2fde38b14610054575f80fd5b346100e75760203660031901126100e7576001600160a01b038235818116939192908490036100e357610085610350565b83156100cd5750505f54826bffffffffffffffffffffffff60a01b8216175f55167f8be0079c531659141344cd1fd0a4f28419497f9722a3daafe3b4186f6b6457e05f80a380f35b51631e4fbdf760e01b8152908101849052602490fd5b5f80fd5b8280fd5b5082346101595780600319360112610159575080519080820182811067ffffffffffffffff821117610146576101429350815260058252640352e302e360dc1b602083015251918291602083526020830190610312565b0390f35b604184634e487b7160e01b5f525260245ffd5b80fd5b5060603660031901126100e3576001600160a01b03823581811693908490036100e35760249182359081168091036100e35767ffffffffffffffff906044358281116100e357366023820112156100e3578084013583811161028257865191601f8201601f19908116603f0116830185811184821017610270578852818352368783830101116100e357815f92886020930183860137830101526101fe610350565b863b156100e357610230965f92875180998194829363278f794360e11b8452898401528a8a8401526044830190610312565b039134905af1801561026657610244578580f35b909192938095501161025557505052005b604190634e487b7160e01b5f52525ffd5b84513d5f823e3d90fd5b87604188634e487b7160e01b5f52525ffd5b85604186634e487b7160e01b5f52525ffd5b50346100e3575f3660031901126100e3575f5490516001600160a01b039091168152602090f35b346100e3575f3660031901126100e3576102d3610350565b5f80546001600160a01b0319811682556001600160a01b03167f8be0079c531659141344cd1fd0a4f28419497f9722a3daafe3b4186f6b6457e08280a3005b91908251928382525f5b84811061033c575050825f602080949584010152601f8019910116010190565b60208183018101518483018201520161031c565b5f546001600160a01b0316330361036357565b60405163118cdaa760e01b8152336004820152602490fdfea26469706673582212202992a71449476404159c12582e1f3d5c014ae92bc1369e2e03b37152567a3c7d64736f6c63430008180033000000000000000000000000d5a38db79b7385af025a2cf925ac4b17304a28af000000000000000000000000ff6bdef4fb646ee44e29fe8fc0862b02f0ba8a33000000000000000000000000000000000000000000000000000000000000006000000000000000000000000000000000000000000000000000000000000000e4077f224a000000000000000000000000000000000000000000000000000000000000006000000000000000000000000000000000000000000000000000000000000000a000000000000000000000000066aa3c0367a5c9dd4c992f6fee35427e4b15063d00000000000000000000000000000000000000000000000000000000000000104f6c6976652049475020536963696c790000000000000000000000000000000000000000000000000000000000000000000000000000000000000000000000054f4c49564500000000000000000000000000000000000000000000000000000000000000000000000000000000000000000000000000000000000000"
        },
        {
          "transactionType": "CREATE",
          "contractName": "ProxyAdmin",
          "address": "0xa7cdebff31f2503be1c72cd9c98c078b8890cc4c",
          "initCode": "0x6080346100b957601f61048338819003918201601f19168301916001600160401b038311848410176100bd578084926020946040528339810103126100b957516001600160a01b0390818116908190036100b95780156100a1575f80546001600160a01b03198116831782556040519316907f8be0079c531659141344cd1fd0a4f28419497f9722a3daafe3b4186f6b6457e09080a36103b190816100d28239f35b604051631e4fbdf760e01b81525f6004820152602490fd5b5f80fd5b634e487b7160e01b5f52604160045260245ffdfe604060808152600480361015610013575f80fd5b5f915f3560e01c8063715018a6146102bb5780638da5cb5b146102945780639623609d1461015c578063ad3cb1cc146100eb5763f2fde38b14610054575f80fd5b346100e75760203660031901126100e7576001600160a01b038235818116939192908490036100e357610085610350565b83156100cd5750505f54826bffffffffffffffffffffffff60a01b8216175f55167f8be0079c531659141344cd1fd0a4f28419497f9722a3daafe3b4186f6b6457e05f80a380f35b51631e4fbdf760e01b8152908101849052602490fd5b5f80fd5b8280fd5b5082346101595780600319360112610159575080519080820182811067ffffffffffffffff821117610146576101429350815260058252640352e302e360dc1b602083015251918291602083526020830190610312565b0390f35b604184634e487b7160e01b5f525260245ffd5b80fd5b5060603660031901126100e3576001600160a01b03823581811693908490036100e35760249182359081168091036100e35767ffffffffffffffff906044358281116100e357366023820112156100e3578084013583811161028257865191601f8201601f19908116603f0116830185811184821017610270578852818352368783830101116100e357815f92886020930183860137830101526101fe610350565b863b156100e357610230965f92875180998194829363278f794360e11b8452898401528a8a8401526044830190610312565b039134905af1801561026657610244578580f35b909192938095501161025557505052005b604190634e487b7160e01b5f52525ffd5b84513d5f823e3d90fd5b87604188634e487b7160e01b5f52525ffd5b85604186634e487b7160e01b5f52525ffd5b50346100e3575f3660031901126100e3575f5490516001600160a01b039091168152602090f35b346100e3575f3660031901126100e3576102d3610350565b5f80546001600160a01b0319811682556001600160a01b03167f8be0079c531659141344cd1fd0a4f28419497f9722a3daafe3b4186f6b6457e08280a3005b91908251928382525f5b84811061033c575050825f602080949584010152601f8019910116010190565b60208183018101518483018201520161031c565b5f546001600160a01b0316330361036357565b60405163118cdaa760e01b8152336004820152602490fdfea26469706673582212202992a71449476404159c12582e1f3d5c014ae92bc1369e2e03b37152567a3c7d64736f6c63430008180033000000000000000000000000ff6bdef4fb646ee44e29fe8fc0862b02f0ba8a33"
        },
        {
          "transactionType": "CREATE",
          "contractName": "TransparentUpgradeableProxy",
          "address": "0xa141172f70066424f9ccf40822ba8b7f0597fbf6",
          "initCode": "0x604060a08152610aac8038038061001581610268565b9283398101906060818303126102645761002e8161028d565b60209161003c83820161028d565b8582015190916001600160401b039190828211610264570185601f82011215610264578051908282116101ef5761007b601f8301601f19168701610268565b968288528683830101116102645785905f5b8381106102505750505f918701015284511561023f57823b1561021f577f360894a13ba1a3210667c828492db98dca3e2076cc3735a920a3ca505d382bbc80546001600160a01b03199081166001600160a01b03868116918217909355885192979195907fbc7cd75a20ee27fd9adebab32041f755214dbc6bffa90cc0225b39da2e5c2d3b5f80a28151156102035761012692506102a1565b505b85519161048391828401908111848210176101ef57868492879461062985391681520301905ff080156101e557831691826080527f7e644d79422f17c01e4894b5f4f588d331ebfa28653d42ae832dc59e38c9798f857fb53127684a568b3173ae13b9f8a6016e243e63b6e8ee1178d6a717850b5d6103958587549483519286168352820152a182156101ce5716179055516102f69081610333823960805181600f0152f35b8451633173bdd160e11b81525f6004820152602490fd5b84513d5f823e3d90fd5b634e487b7160e01b5f52604160045260245ffd5b5050346102105750610128565b63b398979f60e01b8152600490fd5b8551634c9c8ce360e01b81526001600160a01b0384166004820152602490fd5b85516330a289cf60e21b8152600490fd5b81810183015189820184015287920161008d565b5f80fd5b6040519190601f01601f191682016001600160401b038111838210176101ef57604052565b51906001600160a01b038216820361026457565b905f8091602081519101845af4808061031f575b156102d55750506040513d81523d5f602083013e60203d82010160405290565b156102fc57604051639996b31560e01b81526001600160a01b039091166004820152602490fd5b3d1561030d576040513d5f823e3d90fd5b60405163d6bda27560e01b8152600490fd5b503d1515806102b55750813b15156102b556fe60806040526001600160a01b03337f000000000000000000000000000000000000000000000000000000000000000082160361006a575f356001600160e01b03191663278f794360e11b14610060576040516334ad5dbb60e21b8152600490fd5b6100686100be565b005b5f80917f360894a13ba1a3210667c828492db98dca3e2076cc3735a920a3ca505d382bbc5416368280378136915af43d5f803e156100a6573d5ff35b3d5ffd5b634e487b7160e01b5f52604160045260245ffd5b3660041161015f57604036600319011261015f576004356001600160a01b0381169081900361015f576024359067ffffffffffffffff9081831161015f573660238401121561015f5782600401358281116101635760405192601f8201601f19908116603f011684019081118482101761016357604052808352366024828601011161015f576020815f92602461015d97018387013784010152610168565b565b5f80fd5b6100aa565b90813b156101ff577f360894a13ba1a3210667c828492db98dca3e2076cc3735a920a3ca505d382bbc80546001600160a01b0319166001600160a01b0384169081179091557fbc7cd75a20ee27fd9adebab32041f755214dbc6bffa90cc0225b39da2e5c2d3b5f80a28051156101e4576101e191610220565b50565b5050346101ed57565b60405163b398979f60e01b8152600490fd5b604051634c9c8ce360e01b81526001600160a01b0383166004820152602490fd5b905f8091602081519101845af48080610289575b156102465750506102436102a7565b90565b1561026e57604051639996b31560e01b81526001600160a01b03919091166004820152602490fd5b3d15155f0361029c5760405163d6bda27560e01b8152600490fd5b503d1515806102345750813b1515610234565b6040513d5f823e3d90fd5b604051903d82523d5f602084013e60203d83010160405256fea2646970667358221220371437a14d55b0192ed17af74450cdb0b22bf1f3d480185986e4348c96e968d064736f6c634300081800336080346100b957601f61048338819003918201601f19168301916001600160401b038311848410176100bd578084926020946040528339810103126100b957516001600160a01b0390818116908190036100b95780156100a1575f80546001600160a01b03198116831782556040519316907f8be0079c531659141344cd1fd0a4f28419497f9722a3daafe3b4186f6b6457e09080a36103b190816100d28239f35b604051631e4fbdf760e01b81525f6004820152602490fd5b5f80fd5b634e487b7160e01b5f52604160045260245ffdfe604060808152600480361015610013575f80fd5b5f915f3560e01c8063715018a6146102bb5780638da5cb5b146102945780639623609d1461015c578063ad3cb1cc146100eb5763f2fde38b14610054575f80fd5b346100e75760203660031901126100e7576001600160a01b038235818116939192908490036100e357610085610350565b83156100cd5750505f54826bffffffffffffffffffffffff60a01b8216175f55167f8be0079c531659141344cd1fd0a4f28419497f9722a3daafe3b4186f6b6457e05f80a380f35b51631e4fbdf760e01b8152908101849052602490fd5b5f80fd5b8280fd5b5082346101595780600319360112610159575080519080820182811067ffffffffffffffff821117610146576101429350815260058252640352e302e360dc1b602083015251918291602083526020830190610312565b0390f35b604184634e487b7160e01b5f525260245ffd5b80fd5b5060603660031901126100e3576001600160a01b03823581811693908490036100e35760249182359081168091036100e35767ffffffffffffffff906044358281116100e357366023820112156100e3578084013583811161028257865191601f8201601f19908116603f0116830185811184821017610270578852818352368783830101116100e357815f92886020930183860137830101526101fe610350565b863b156100e357610230965f92875180998194829363278f794360e11b8452898401528a8a8401526044830190610312565b039134905af1801561026657610244578580f35b909192938095501161025557505052005b604190634e487b7160e01b5f52525ffd5b84513d5f823e3d90fd5b87604188634e487b7160e01b5f52525ffd5b85604186634e487b7160e01b5f52525ffd5b50346100e3575f3660031901126100e3575f5490516001600160a01b039091168152602090f35b346100e3575f3660031901126100e3576102d3610350565b5f80546001600160a01b0319811682556001600160a01b03167f8be0079c531659141344cd1fd0a4f28419497f9722a3daafe3b4186f6b6457e08280a3005b91908251928382525f5b84811061033c575050825f602080949584010152601f8019910116010190565b60208183018101518483018201520161031c565b5f546001600160a01b0316330361036357565b60405163118cdaa760e01b8152336004820152602490fdfea26469706673582212202992a71449476404159c12582e1f3d5c014ae92bc1369e2e03b37152567a3c7d64736f6c63430008180033000000000000000000000000a37df5ec09349dda1e0e7ca60e1ed3d110edb987000000000000000000000000ff6bdef4fb646ee44e29fe8fc0862b02f0ba8a33000000000000000000000000000000000000000000000000000000000000006000000000000000000000000000000000000000000000000000000000000000a4a6b63eb80000000000000000000000009a52f2522c4d74b874ac27a89b938272327da3db00000000000000000000000066aa3c0367a5c9dd4c992f6fee35427e4b15063d00000000000000000000000091fd5c9d274c519a152af14223bd10ed0b446bdd00000000000000000000000000000000000000000000006c6b935b8bbd400000000000000000000000000000000000000000000000000000000000000000070800000000000000000000000000000000000000000000000000000000"
        },
        {
          "transactionType": "CREATE",
          "contractName": "ProxyAdmin",
          "address": "0x0faffcebb2a60ebee53a84ae5b01fd32e6bf4c85",
          "initCode": "0x6080346100b957601f61048338819003918201601f19168301916001600160401b038311848410176100bd578084926020946040528339810103126100b957516001600160a01b0390818116908190036100b95780156100a1575f80546001600160a01b03198116831782556040519316907f8be0079c531659141344cd1fd0a4f28419497f9722a3daafe3b4186f6b6457e09080a36103b190816100d28239f35b604051631e4fbdf760e01b81525f6004820152602490fd5b5f80fd5b634e487b7160e01b5f52604160045260245ffdfe604060808152600480361015610013575f80fd5b5f915f3560e01c8063715018a6146102bb5780638da5cb5b146102945780639623609d1461015c578063ad3cb1cc146100eb5763f2fde38b14610054575f80fd5b346100e75760203660031901126100e7576001600160a01b038235818116939192908490036100e357610085610350565b83156100cd5750505f54826bffffffffffffffffffffffff60a01b8216175f55167f8be0079c531659141344cd1fd0a4f28419497f9722a3daafe3b4186f6b6457e05f80a380f35b51631e4fbdf760e01b8152908101849052602490fd5b5f80fd5b8280fd5b5082346101595780600319360112610159575080519080820182811067ffffffffffffffff821117610146576101429350815260058252640352e302e360dc1b602083015251918291602083526020830190610312565b0390f35b604184634e487b7160e01b5f525260245ffd5b80fd5b5060603660031901126100e3576001600160a01b03823581811693908490036100e35760249182359081168091036100e35767ffffffffffffffff906044358281116100e357366023820112156100e3578084013583811161028257865191601f8201601f19908116603f0116830185811184821017610270578852818352368783830101116100e357815f92886020930183860137830101526101fe610350565b863b156100e357610230965f92875180998194829363278f794360e11b8452898401528a8a8401526044830190610312565b039134905af1801561026657610244578580f35b909192938095501161025557505052005b604190634e487b7160e01b5f52525ffd5b84513d5f823e3d90fd5b87604188634e487b7160e01b5f52525ffd5b85604186634e487b7160e01b5f52525ffd5b50346100e3575f3660031901126100e3575f5490516001600160a01b039091168152602090f35b346100e3575f3660031901126100e3576102d3610350565b5f80546001600160a01b0319811682556001600160a01b03167f8be0079c531659141344cd1fd0a4f28419497f9722a3daafe3b4186f6b6457e08280a3005b91908251928382525f5b84811061033c575050825f602080949584010152601f8019910116010190565b60208183018101518483018201520161031c565b5f546001600160a01b0316330361036357565b60405163118cdaa760e01b8152336004820152602490fdfea26469706673582212202992a71449476404159c12582e1f3d5c014ae92bc1369e2e03b37152567a3c7d64736f6c63430008180033000000000000000000000000ff6bdef4fb646ee44e29fe8fc0862b02f0ba8a33"
        },
        {
          "transactionType": "CREATE",
          "contractName": "TransparentUpgradeableProxy",
          "address": "0xaa394470c2e0bc72e7ef3f2dcffd94e8fbc7ade4",
          "initCode": "0x604060a08152610aac8038038061001581610268565b9283398101906060818303126102645761002e8161028d565b60209161003c83820161028d565b8582015190916001600160401b039190828211610264570185601f82011215610264578051908282116101ef5761007b601f8301601f19168701610268565b968288528683830101116102645785905f5b8381106102505750505f918701015284511561023f57823b1561021f577f360894a13ba1a3210667c828492db98dca3e2076cc3735a920a3ca505d382bbc80546001600160a01b03199081166001600160a01b03868116918217909355885192979195907fbc7cd75a20ee27fd9adebab32041f755214dbc6bffa90cc0225b39da2e5c2d3b5f80a28151156102035761012692506102a1565b505b85519161048391828401908111848210176101ef57868492879461062985391681520301905ff080156101e557831691826080527f7e644d79422f17c01e4894b5f4f588d331ebfa28653d42ae832dc59e38c9798f857fb53127684a568b3173ae13b9f8a6016e243e63b6e8ee1178d6a717850b5d6103958587549483519286168352820152a182156101ce5716179055516102f69081610333823960805181600f0152f35b8451633173bdd160e11b81525f6004820152602490fd5b84513d5f823e3d90fd5b634e487b7160e01b5f52604160045260245ffd5b5050346102105750610128565b63b398979f60e01b8152600490fd5b8551634c9c8ce360e01b81526001600160a01b0384166004820152602490fd5b85516330a289cf60e21b8152600490fd5b81810183015189820184015287920161008d565b5f80fd5b6040519190601f01601f191682016001600160401b038111838210176101ef57604052565b51906001600160a01b038216820361026457565b905f8091602081519101845af4808061031f575b156102d55750506040513d81523d5f602083013e60203d82010160405290565b156102fc57604051639996b31560e01b81526001600160a01b039091166004820152602490fd5b3d1561030d576040513d5f823e3d90fd5b60405163d6bda27560e01b8152600490fd5b503d1515806102b55750813b15156102b556fe60806040526001600160a01b03337f000000000000000000000000000000000000000000000000000000000000000082160361006a575f356001600160e01b03191663278f794360e11b14610060576040516334ad5dbb60e21b8152600490fd5b6100686100be565b005b5f80917f360894a13ba1a3210667c828492db98dca3e2076cc3735a920a3ca505d382bbc5416368280378136915af43d5f803e156100a6573d5ff35b3d5ffd5b634e487b7160e01b5f52604160045260245ffd5b3660041161015f57604036600319011261015f576004356001600160a01b0381169081900361015f576024359067ffffffffffffffff9081831161015f573660238401121561015f5782600401358281116101635760405192601f8201601f19908116603f011684019081118482101761016357604052808352366024828601011161015f576020815f92602461015d97018387013784010152610168565b565b5f80fd5b6100aa565b90813b156101ff577f360894a13ba1a3210667c828492db98dca3e2076cc3735a920a3ca505d382bbc80546001600160a01b0319166001600160a01b0384169081179091557fbc7cd75a20ee27fd9adebab32041f755214dbc6bffa90cc0225b39da2e5c2d3b5f80a28051156101e4576101e191610220565b50565b5050346101ed57565b60405163b398979f60e01b8152600490fd5b604051634c9c8ce360e01b81526001600160a01b0383166004820152602490fd5b905f8091602081519101845af48080610289575b156102465750506102436102a7565b90565b1561026e57604051639996b31560e01b81526001600160a01b03919091166004820152602490fd5b3d15155f0361029c5760405163d6bda27560e01b8152600490fd5b503d1515806102345750813b1515610234565b6040513d5f823e3d90fd5b604051903d82523d5f602084013e60203d83010160405256fea2646970667358221220371437a14d55b0192ed17af74450cdb0b22bf1f3d480185986e4348c96e968d064736f6c634300081800336080346100b957601f61048338819003918201601f19168301916001600160401b038311848410176100bd578084926020946040528339810103126100b957516001600160a01b0390818116908190036100b95780156100a1575f80546001600160a01b03198116831782556040519316907f8be0079c531659141344cd1fd0a4f28419497f9722a3daafe3b4186f6b6457e09080a36103b190816100d28239f35b604051631e4fbdf760e01b81525f6004820152602490fd5b5f80fd5b634e487b7160e01b5f52604160045260245ffdfe604060808152600480361015610013575f80fd5b5f915f3560e01c8063715018a6146102bb5780638da5cb5b146102945780639623609d1461015c578063ad3cb1cc146100eb5763f2fde38b14610054575f80fd5b346100e75760203660031901126100e7576001600160a01b038235818116939192908490036100e357610085610350565b83156100cd5750505f54826bffffffffffffffffffffffff60a01b8216175f55167f8be0079c531659141344cd1fd0a4f28419497f9722a3daafe3b4186f6b6457e05f80a380f35b51631e4fbdf760e01b8152908101849052602490fd5b5f80fd5b8280fd5b5082346101595780600319360112610159575080519080820182811067ffffffffffffffff821117610146576101429350815260058252640352e302e360dc1b602083015251918291602083526020830190610312565b0390f35b604184634e487b7160e01b5f525260245ffd5b80fd5b5060603660031901126100e3576001600160a01b03823581811693908490036100e35760249182359081168091036100e35767ffffffffffffffff906044358281116100e357366023820112156100e3578084013583811161028257865191601f8201601f19908116603f0116830185811184821017610270578852818352368783830101116100e357815f92886020930183860137830101526101fe610350565b863b156100e357610230965f92875180998194829363278f794360e11b8452898401528a8a8401526044830190610312565b039134905af1801561026657610244578580f35b909192938095501161025557505052005b604190634e487b7160e01b5f52525ffd5b84513d5f823e3d90fd5b87604188634e487b7160e01b5f52525ffd5b85604186634e487b7160e01b5f52525ffd5b50346100e3575f3660031901126100e3575f5490516001600160a01b039091168152602090f35b346100e3575f3660031901126100e3576102d3610350565b5f80546001600160a01b0319811682556001600160a01b03167f8be0079c531659141344cd1fd0a4f28419497f9722a3daafe3b4186f6b6457e08280a3005b91908251928382525f5b84811061033c575050825f602080949584010152601f8019910116010190565b60208183018101518483018201520161031c565b5f546001600160a01b0316330361036357565b60405163118cdaa760e01b8152336004820152602490fdfea26469706673582212202992a71449476404159c12582e1f3d5c014ae92bc1369e2e03b37152567a3c7d64736f6c634300081800330000000000000000000000002d1725c10dafb1575e5f3d457aa5b2a7c2bb16f4000000000000000000000000ff6bdef4fb646ee44e29fe8fc0862b02f0ba8a33000000000000000000000000000000000000000000000000000000000000006000000000000000000000000000000000000000000000000000000000000000c4d7c41c79000000000000000000000000f286970e2470948abb010b4dd35e1ad2da3397b0000000000000000000000000ff6bdef4fb646ee44e29fe8fc0862b02f0ba8a3300000000000000000000000091fd5c9d274c519a152af14223bd10ed0b446bdd000000000000000000000000ff6bdef4fb646ee44e29fe8fc0862b02f0ba8a3300000000000000000000000000000000000000000000000000000000000000c80000000000000000000000000000000000000000000000000de0b6b3a764000000000000000000000000000000000000000000000000000000000000"
        },
        {
          "transactionType": "CREATE",
          "contractName": "ProxyAdmin",
          "address": "0xce047b46a98933d3374bc74929e983488463f649",
          "initCode": "0x6080346100b957601f61048338819003918201601f19168301916001600160401b038311848410176100bd578084926020946040528339810103126100b957516001600160a01b0390818116908190036100b95780156100a1575f80546001600160a01b03198116831782556040519316907f8be0079c531659141344cd1fd0a4f28419497f9722a3daafe3b4186f6b6457e09080a36103b190816100d28239f35b604051631e4fbdf760e01b81525f6004820152602490fd5b5f80fd5b634e487b7160e01b5f52604160045260245ffdfe604060808152600480361015610013575f80fd5b5f915f3560e01c8063715018a6146102bb5780638da5cb5b146102945780639623609d1461015c578063ad3cb1cc146100eb5763f2fde38b14610054575f80fd5b346100e75760203660031901126100e7576001600160a01b038235818116939192908490036100e357610085610350565b83156100cd5750505f54826bffffffffffffffffffffffff60a01b8216175f55167f8be0079c531659141344cd1fd0a4f28419497f9722a3daafe3b4186f6b6457e05f80a380f35b51631e4fbdf760e01b8152908101849052602490fd5b5f80fd5b8280fd5b5082346101595780600319360112610159575080519080820182811067ffffffffffffffff821117610146576101429350815260058252640352e302e360dc1b602083015251918291602083526020830190610312565b0390f35b604184634e487b7160e01b5f525260245ffd5b80fd5b5060603660031901126100e3576001600160a01b03823581811693908490036100e35760249182359081168091036100e35767ffffffffffffffff906044358281116100e357366023820112156100e3578084013583811161028257865191601f8201601f19908116603f0116830185811184821017610270578852818352368783830101116100e357815f92886020930183860137830101526101fe610350565b863b156100e357610230965f92875180998194829363278f794360e11b8452898401528a8a8401526044830190610312565b039134905af1801561026657610244578580f35b909192938095501161025557505052005b604190634e487b7160e01b5f52525ffd5b84513d5f823e3d90fd5b87604188634e487b7160e01b5f52525ffd5b85604186634e487b7160e01b5f52525ffd5b50346100e3575f3660031901126100e3575f5490516001600160a01b039091168152602090f35b346100e3575f3660031901126100e3576102d3610350565b5f80546001600160a01b0319811682556001600160a01b03167f8be0079c531659141344cd1fd0a4f28419497f9722a3daafe3b4186f6b6457e08280a3005b91908251928382525f5b84811061033c575050825f602080949584010152601f8019910116010190565b60208183018101518483018201520161031c565b5f546001600160a01b0316330361036357565b60405163118cdaa760e01b8152336004820152602490fdfea26469706673582212202992a71449476404159c12582e1f3d5c014ae92bc1369e2e03b37152567a3c7d64736f6c63430008180033000000000000000000000000ff6bdef4fb646ee44e29fe8fc0862b02f0ba8a33"
        },
        {
          "transactionType": "CREATE",
          "contractName": "TransparentUpgradeableProxy",
          "address": "0x78f2fd10a4b2e1a600228d8d6867fb2f68d36993",
          "initCode": "0x604060a08152610aac8038038061001581610268565b9283398101906060818303126102645761002e8161028d565b60209161003c83820161028d565b8582015190916001600160401b039190828211610264570185601f82011215610264578051908282116101ef5761007b601f8301601f19168701610268565b968288528683830101116102645785905f5b8381106102505750505f918701015284511561023f57823b1561021f577f360894a13ba1a3210667c828492db98dca3e2076cc3735a920a3ca505d382bbc80546001600160a01b03199081166001600160a01b03868116918217909355885192979195907fbc7cd75a20ee27fd9adebab32041f755214dbc6bffa90cc0225b39da2e5c2d3b5f80a28151156102035761012692506102a1565b505b85519161048391828401908111848210176101ef57868492879461062985391681520301905ff080156101e557831691826080527f7e644d79422f17c01e4894b5f4f588d331ebfa28653d42ae832dc59e38c9798f857fb53127684a568b3173ae13b9f8a6016e243e63b6e8ee1178d6a717850b5d6103958587549483519286168352820152a182156101ce5716179055516102f69081610333823960805181600f0152f35b8451633173bdd160e11b81525f6004820152602490fd5b84513d5f823e3d90fd5b634e487b7160e01b5f52604160045260245ffd5b5050346102105750610128565b63b398979f60e01b8152600490fd5b8551634c9c8ce360e01b81526001600160a01b0384166004820152602490fd5b85516330a289cf60e21b8152600490fd5b81810183015189820184015287920161008d565b5f80fd5b6040519190601f01601f191682016001600160401b038111838210176101ef57604052565b51906001600160a01b038216820361026457565b905f8091602081519101845af4808061031f575b156102d55750506040513d81523d5f602083013e60203d82010160405290565b156102fc57604051639996b31560e01b81526001600160a01b039091166004820152602490fd5b3d1561030d576040513d5f823e3d90fd5b60405163d6bda27560e01b8152600490fd5b503d1515806102b55750813b15156102b556fe60806040526001600160a01b03337f000000000000000000000000000000000000000000000000000000000000000082160361006a575f356001600160e01b03191663278f794360e11b14610060576040516334ad5dbb60e21b8152600490fd5b6100686100be565b005b5f80917f360894a13ba1a3210667c828492db98dca3e2076cc3735a920a3ca505d382bbc5416368280378136915af43d5f803e156100a6573d5ff35b3d5ffd5b634e487b7160e01b5f52604160045260245ffd5b3660041161015f57604036600319011261015f576004356001600160a01b0381169081900361015f576024359067ffffffffffffffff9081831161015f573660238401121561015f5782600401358281116101635760405192601f8201601f19908116603f011684019081118482101761016357604052808352366024828601011161015f576020815f92602461015d97018387013784010152610168565b565b5f80fd5b6100aa565b90813b156101ff577f360894a13ba1a3210667c828492db98dca3e2076cc3735a920a3ca505d382bbc80546001600160a01b0319166001600160a01b0384169081179091557fbc7cd75a20ee27fd9adebab32041f755214dbc6bffa90cc0225b39da2e5c2d3b5f80a28051156101e4576101e191610220565b50565b5050346101ed57565b60405163b398979f60e01b8152600490fd5b604051634c9c8ce360e01b81526001600160a01b0383166004820152602490fd5b905f8091602081519101845af48080610289575b156102465750506102436102a7565b90565b1561026e57604051639996b31560e01b81526001600160a01b03919091166004820152602490fd5b3d15155f0361029c5760405163d6bda27560e01b8152600490fd5b503d1515806102345750813b1515610234565b6040513d5f823e3d90fd5b604051903d82523d5f602084013e60203d83010160405256fea2646970667358221220371437a14d55b0192ed17af74450cdb0b22bf1f3d480185986e4348c96e968d064736f6c634300081800336080346100b957601f61048338819003918201601f19168301916001600160401b038311848410176100bd578084926020946040528339810103126100b957516001600160a01b0390818116908190036100b95780156100a1575f80546001600160a01b03198116831782556040519316907f8be0079c531659141344cd1fd0a4f28419497f9722a3daafe3b4186f6b6457e09080a36103b190816100d28239f35b604051631e4fbdf760e01b81525f6004820152602490fd5b5f80fd5b634e487b7160e01b5f52604160045260245ffdfe604060808152600480361015610013575f80fd5b5f915f3560e01c8063715018a6146102bb5780638da5cb5b146102945780639623609d1461015c578063ad3cb1cc146100eb5763f2fde38b14610054575f80fd5b346100e75760203660031901126100e7576001600160a01b038235818116939192908490036100e357610085610350565b83156100cd5750505f54826bffffffffffffffffffffffff60a01b8216175f55167f8be0079c531659141344cd1fd0a4f28419497f9722a3daafe3b4186f6b6457e05f80a380f35b51631e4fbdf760e01b8152908101849052602490fd5b5f80fd5b8280fd5b5082346101595780600319360112610159575080519080820182811067ffffffffffffffff821117610146576101429350815260058252640352e302e360dc1b602083015251918291602083526020830190610312565b0390f35b604184634e487b7160e01b5f525260245ffd5b80fd5b5060603660031901126100e3576001600160a01b03823581811693908490036100e35760249182359081168091036100e35767ffffffffffffffff906044358281116100e357366023820112156100e3578084013583811161028257865191601f8201601f19908116603f0116830185811184821017610270578852818352368783830101116100e357815f92886020930183860137830101526101fe610350565b863b156100e357610230965f92875180998194829363278f794360e11b8452898401528a8a8401526044830190610312565b039134905af1801561026657610244578580f35b909192938095501161025557505052005b604190634e487b7160e01b5f52525ffd5b84513d5f823e3d90fd5b87604188634e487b7160e01b5f52525ffd5b85604186634e487b7160e01b5f52525ffd5b50346100e3575f3660031901126100e3575f5490516001600160a01b039091168152602090f35b346100e3575f3660031901126100e3576102d3610350565b5f80546001600160a01b0319811682556001600160a01b03167f8be0079c531659141344cd1fd0a4f28419497f9722a3daafe3b4186f6b6457e08280a3005b91908251928382525f5b84811061033c575050825f602080949584010152601f8019910116010190565b60208183018101518483018201520161031c565b5f546001600160a01b0316330361036357565b60405163118cdaa760e01b8152336004820152602490fdfea26469706673582212202992a71449476404159c12582e1f3d5c014ae92bc1369e2e03b37152567a3c7d64736f6c63430008180033000000000000000000000000c5b2ccef2304b7803f83c3e0800bfb57a6a396e3000000000000000000000000ff6bdef4fb646ee44e29fe8fc0862b02f0ba8a33000000000000000000000000000000000000000000000000000000000000006000000000000000000000000000000000000000000000000000000000000001048f15b414000000000000000000000000000000000000000000000000000000000000008000000000000000000000000000000000000000000000000000000000000000c0000000000000000000000000a141172f70066424f9ccf40822ba8b7f0597fbf6000000000000000000000000aa394470c2e0bc72e7ef3f2dcffd94e8fbc7ade4000000000000000000000000000000000000000000000000000000000000000b4f6c697665205969656c6400000000000000000000000000000000000000000000000000000000000000000000000000000000000000000000000000000000066f5949454c44000000000000000000000000000000000000000000000000000000000000000000000000000000000000000000000000000000000000"
        },
        {
          "transactionType": "CREATE",
          "contractName": "ProxyAdmin",
          "address": "0xc857d5031b1bf639b28053947caee04860de3c9e",
          "initCode": "0x6080346100b957601f61048338819003918201601f19168301916001600160401b038311848410176100bd578084926020946040528339810103126100b957516001600160a01b0390818116908190036100b95780156100a1575f80546001600160a01b03198116831782556040519316907f8be0079c531659141344cd1fd0a4f28419497f9722a3daafe3b4186f6b6457e09080a36103b190816100d28239f35b604051631e4fbdf760e01b81525f6004820152602490fd5b5f80fd5b634e487b7160e01b5f52604160045260245ffdfe604060808152600480361015610013575f80fd5b5f915f3560e01c8063715018a6146102bb5780638da5cb5b146102945780639623609d1461015c578063ad3cb1cc146100eb5763f2fde38b14610054575f80fd5b346100e75760203660031901126100e7576001600160a01b038235818116939192908490036100e357610085610350565b83156100cd5750505f54826bffffffffffffffffffffffff60a01b8216175f55167f8be0079c531659141344cd1fd0a4f28419497f9722a3daafe3b4186f6b6457e05f80a380f35b51631e4fbdf760e01b8152908101849052602490fd5b5f80fd5b8280fd5b5082346101595780600319360112610159575080519080820182811067ffffffffffffffff821117610146576101429350815260058252640352e302e360dc1b602083015251918291602083526020830190610312565b0390f35b604184634e487b7160e01b5f525260245ffd5b80fd5b5060603660031901126100e3576001600160a01b03823581811693908490036100e35760249182359081168091036100e35767ffffffffffffffff906044358281116100e357366023820112156100e3578084013583811161028257865191601f8201601f19908116603f0116830185811184821017610270578852818352368783830101116100e357815f92886020930183860137830101526101fe610350565b863b156100e357610230965f92875180998194829363278f794360e11b8452898401528a8a8401526044830190610312565b039134905af1801561026657610244578580f35b909192938095501161025557505052005b604190634e487b7160e01b5f52525ffd5b84513d5f823e3d90fd5b87604188634e487b7160e01b5f52525ffd5b85604186634e487b7160e01b5f52525ffd5b50346100e3575f3660031901126100e3575f5490516001600160a01b039091168152602090f35b346100e3575f3660031901126100e3576102d3610350565b5f80546001600160a01b0319811682556001600160a01b03167f8be0079c531659141344cd1fd0a4f28419497f9722a3daafe3b4186f6b6457e08280a3005b91908251928382525f5b84811061033c575050825f602080949584010152601f8019910116010190565b60208183018101518483018201520161031c565b5f546001600160a01b0316330361036357565b60405163118cdaa760e01b8152336004820152602490fdfea26469706673582212202992a71449476404159c12582e1f3d5c014ae92bc1369e2e03b37152567a3c7d64736f6c63430008180033000000000000000000000000ff6bdef4fb646ee44e29fe8fc0862b02f0ba8a33"
        }
      ],
      "isFixedGasLimit": false
    },
    {
      "hash": "0x937a849f7c69b5fa2786858aa1dd548523f5e318e8b6064c3b19f1244d249e03",
      "transactionType": "CALL",
      "contractName": "TransparentUpgradeableProxy",
      "contractAddress": "0x66aa3c0367a5c9dd4c992f6fee35427e4b15063d",
      "function": null,
      "arguments": null,
      "transaction": {
        "from": "0xff6bdef4fb646ee44e29fe8fc0862b02f0ba8a33",
        "to": "0x66aa3c0367a5c9dd4c992f6fee35427e4b15063d",
        "gas": "0x2d677",
        "value": "0x0",
        "input": "0x666033e6000000000000000000000000f286970e2470948abb010b4dd35e1ad2da3397b0000000000000000000000000000000000000000000000000000000000000000000000000000000000000000000000000000000000000000000000000000232800000000000000000000000000000000000000000000000000000000000000000",
        "nonce": "0x81",
        "chainId": "0x14a34"
      },
      "additionalContracts": [],
      "isFixedGasLimit": false
    },
    {
      "hash": "0x6ae1d8320310f56df903ae567354721f709409a030ce3b1fd86878202445f30d",
      "transactionType": "CALL",
      "contractName": "MockUSDC",
      "contractAddress": "0xf286970e2470948abb010b4dd35e1ad2da3397b0",
      "function": "approve(address,uint256)",
      "arguments": [
        "0x66aa3c0367a5c9Dd4C992F6FEE35427e4b15063D",
        "115792089237316195423570985008687907853269984665640564039457584007913129639935"
      ],
      "transaction": {
        "from": "0xff6bdef4fb646ee44e29fe8fc0862b02f0ba8a33",
        "to": "0xf286970e2470948abb010b4dd35e1ad2da3397b0",
        "gas": "0x10868",
        "value": "0x0",
        "input": "0x095ea7b300000000000000000000000066aa3c0367a5c9dd4c992f6fee35427e4b15063dffffffffffffffffffffffffffffffffffffffffffffffffffffffffffffffff",
        "nonce": "0x82",
        "chainId": "0x14a34"
      },
      "additionalContracts": [],
      "isFixedGasLimit": false
    },
    {
      "hash": "0xfb2c3e32c7c589083d0d0a374855c2909e367922335800eb7de755baa1c2eb0f",
      "transactionType": "CALL",
      "contractName": "TransparentUpgradeableProxy",
      "contractAddress": "0x66aa3c0367a5c9dd4c992f6fee35427e4b15063d",
      "function": null,
      "arguments": null,
      "transaction": {
        "from": "0xff6bdef4fb646ee44e29fe8fc0862b02f0ba8a33",
        "to": "0x66aa3c0367a5c9dd4c992f6fee35427e4b15063d",
        "gas": "0x6b494",
        "value": "0x0",
        "input": "0xcce7ec13000000000000000000000000f286970e2470948abb010b4dd35e1ad2da3397b00000000000000000000000000000000000000000000000000000000006021600",
        "nonce": "0x83",
        "chainId": "0x14a34"
      },
      "additionalContracts": [],
      "isFixedGasLimit": false
    },
    {
      "hash": "0x42478583e54370ef7b90ae8690de9ff298a389f9ebd5727822f80e52dee25aab",
      "transactionType": "CALL",
      "contractName": "TransparentUpgradeableProxy",
      "contractAddress": "0x66aa3c0367a5c9dd4c992f6fee35427e4b15063d",
      "function": null,
      "arguments": null,
      "transaction": {
        "from": "0xff6bdef4fb646ee44e29fe8fc0862b02f0ba8a33",
        "to": "0x66aa3c0367a5c9dd4c992f6fee35427e4b15063d",
        "gas": "0x3584d",
        "value": "0x0",
        "input": "0x703dbfe40000000000000000000000000000000000000000000000000000000000000001",
        "nonce": "0x84",
        "chainId": "0x14a34"
      },
      "additionalContracts": [],
      "isFixedGasLimit": false
    },
    {
      "hash": "0x59630ef9e158445a0f910946227af8afffb880dd8d0c1f04f593c520db2ce80a",
      "transactionType": "CALL",
      "contractName": "TransparentUpgradeableProxy",
      "contractAddress": "0x9a52f2522c4d74b874ac27a89b938272327da3db",
      "function": null,
      "arguments": null,
      "transaction": {
        "from": "0xff6bdef4fb646ee44e29fe8fc0862b02f0ba8a33",
        "to": "0x9a52f2522c4d74b874ac27a89b938272327da3db",
        "gas": "0x124de",
        "value": "0x0",
        "input": "0x095ea7b3000000000000000000000000a141172f70066424f9ccf40822ba8b7f0597fbf6ffffffffffffffffffffffffffffffffffffffffffffffffffffffffffffffff",
        "nonce": "0x85",
        "chainId": "0x14a34"
      },
      "additionalContracts": [],
      "isFixedGasLimit": false
    },
    {
      "hash": "0x733f761c0bb8a6922d47b3c930291ad448b863e0788e12f7144873bb772441c4",
      "transactionType": "CALL",
      "contractName": "TransparentUpgradeableProxy",
      "contractAddress": "0xa141172f70066424f9ccf40822ba8b7f0597fbf6",
      "function": null,
      "arguments": null,
      "transaction": {
        "from": "0xff6bdef4fb646ee44e29fe8fc0862b02f0ba8a33",
        "to": "0xa141172f70066424f9ccf40822ba8b7f0597fbf6",
        "gas": "0x67ff8",
        "value": "0x0",
        "input": "0xa694fc3a000000000000000000000000000000000000000000000025f273933db5700000",
        "nonce": "0x86",
        "chainId": "0x14a34"
      },
      "additionalContracts": [],
      "isFixedGasLimit": false
    },
    {
      "hash": "0xe959885c5d00581dab5ffa9f54a894a0f2e6f286a70036383ca21b846589f643",
      "transactionType": "CALL",
      "contractName": "MockUSDC",
      "contractAddress": "0xf286970e2470948abb010b4dd35e1ad2da3397b0",
      "function": "mint(address,uint256)",
      "arguments": [
        "0x455aB6723CCab4cb62983710C33f6311cc85Bc97",
        "50000000"
      ],
      "transaction": {
        "from": "0xff6bdef4fb646ee44e29fe8fc0862b02f0ba8a33",
        "to": "0xf286970e2470948abb010b4dd35e1ad2da3397b0",
        "gas": "0x11325",
        "value": "0x0",
        "input": "0x40c10f19000000000000000000000000455ab6723ccab4cb62983710c33f6311cc85bc970000000000000000000000000000000000000000000000000000000002faf080",
        "nonce": "0x87",
        "chainId": "0x14a34"
      },
      "additionalContracts": [],
      "isFixedGasLimit": false
    },
    {
      "hash": "0xdd99554d7ceae2d161c41ddb81039456540354b462b537ad978f5ab377611178",
      "transactionType": "CALL",
      "contractName": "MockUSDC",
      "contractAddress": "0xf286970e2470948abb010b4dd35e1ad2da3397b0",
      "function": "approve(address,uint256)",
      "arguments": [
        "0x66aa3c0367a5c9Dd4C992F6FEE35427e4b15063D",
        "115792089237316195423570985008687907853269984665640564039457584007913129639935"
      ],
      "transaction": {
        "from": "0x455ab6723ccab4cb62983710c33f6311cc85bc97",
        "to": "0xf286970e2470948abb010b4dd35e1ad2da3397b0",
        "gas": "0x10868",
        "value": "0x0",
        "input": "0x095ea7b300000000000000000000000066aa3c0367a5c9dd4c992f6fee35427e4b15063dffffffffffffffffffffffffffffffffffffffffffffffffffffffffffffffff",
        "nonce": "0x8",
        "chainId": "0x14a34"
      },
      "additionalContracts": [],
      "isFixedGasLimit": false
    },
    {
      "hash": "0x72733ce6880c4863e4ef4bf453052195936a1b744be9b0e6590cbd92c23587b2",
      "transactionType": "CALL",
      "contractName": "TransparentUpgradeableProxy",
      "contractAddress": "0x66aa3c0367a5c9dd4c992f6fee35427e4b15063d",
      "function": null,
      "arguments": null,
      "transaction": {
        "from": "0x455ab6723ccab4cb62983710c33f6311cc85bc97",
        "to": "0x66aa3c0367a5c9dd4c992f6fee35427e4b15063d",
        "gas": "0x34224",
        "value": "0x0",
        "input": "0xcce7ec13000000000000000000000000f286970e2470948abb010b4dd35e1ad2da3397b00000000000000000000000000000000000000000000000000000000002932e00",
        "nonce": "0x9",
        "chainId": "0x14a34"
      },
      "additionalContracts": [],
      "isFixedGasLimit": false
    },
    {
      "hash": "0x8fed786aa79e6cc54026ddd165ea5e7b1fc3dd9cf18b2370320973d44d514f3f",
      "transactionType": "CALL",
      "contractName": "TransparentUpgradeableProxy",
      "contractAddress": "0x9a52f2522c4d74b874ac27a89b938272327da3db",
      "function": null,
      "arguments": null,
      "transaction": {
        "from": "0x455ab6723ccab4cb62983710c33f6311cc85bc97",
        "to": "0x9a52f2522c4d74b874ac27a89b938272327da3db",
        "gas": "0x124de",
        "value": "0x0",
        "input": "0x095ea7b3000000000000000000000000a141172f70066424f9ccf40822ba8b7f0597fbf6ffffffffffffffffffffffffffffffffffffffffffffffffffffffffffffffff",
        "nonce": "0xa",
        "chainId": "0x14a34"
      },
      "additionalContracts": [],
      "isFixedGasLimit": false
    },
    {
      "hash": "0xa4d5f8dc1b020dea2efc98416ff5d0bd3e18dd870c3844f17bb9511339f49a72",
      "transactionType": "CALL",
      "contractName": "TransparentUpgradeableProxy",
      "contractAddress": "0xa141172f70066424f9ccf40822ba8b7f0597fbf6",
      "function": null,
      "arguments": null,
      "transaction": {
        "from": "0x455ab6723ccab4cb62983710c33f6311cc85bc97",
        "to": "0xa141172f70066424f9ccf40822ba8b7f0597fbf6",
        "gas": "0x5610c",
        "value": "0x0",
        "input": "0xa694fc3a00000000000000000000000000000000000000000000001043561a8829300000",
        "nonce": "0xb",
        "chainId": "0x14a34"
      },
      "additionalContracts": [],
      "isFixedGasLimit": false
    }
  ],
  "receipts": [
    {
      "status": "0x1",
      "cumulativeGasUsed": "0x1aebdd",
      "logs": [
        {
          "address": "0x91fd5c9d274c519a152af14223bd10ed0b446bdd",
          "topics": [
            "0xa53bb861f8980ad56ca8ad0ba10cc5ef7a8a6af7fa4ca26f876580318c82f719"
          ],
          "data": "0x0000000000000000000000000000000000000000000000000000000000000e100000000000000000000000000000000000000000000000000000000000000708",
          "blockHash": "0x0000000000000000000000000000000000000000000000000000000000000000",
          "blockNumber": "0x26e7ecc",
          "blockTimestamp": "0x69f05c78",
          "transactionHash": "0x577feba9eee931d4cf341ad3b829a6485077d652231ecdb3843b61baff12dcf3",
          "transactionIndex": "0x8",
          "logIndex": "0x31",
          "removed": false
        }
      ],
      "logsBloom": "0x00000000000020000000000000000000000000000000000000000000000000000000000000000000000000000000000000000000000000000000000000000000000000000000000000000000000000040000000000000001000000000000000000000000000000000000000000000000000000000000000000000000000010000000000000000000000000000000000000000000000000000000000000000000000000000000000000100000000000000000000000000000000000000000000000000000000080000000000000000000000000000000000000000000000000000000000000000000000000000000000000000000000000000000000000000000",
      "type": "0x2",
      "transactionHash": "0x577feba9eee931d4cf341ad3b829a6485077d652231ecdb3843b61baff12dcf3",
      "transactionIndex": "0x8",
      "blockHash": "0x0000000000000000000000000000000000000000000000000000000000000000",
      "blockNumber": "0x26e7ecc",
      "gasUsed": "0x8860",
      "effectiveGasPrice": "0x5b8d80",
      "blobGasUsed": "0x39d0",
      "from": "0xff6bdef4fb646ee44e29fe8fc0862b02f0ba8a33",
      "to": "0x91fd5c9d274c519a152af14223bd10ed0b446bdd",
      "contractAddress": null,
      "daFootprintGasScalar": "0x94",
      "l1BaseFeeScalar": "0x44d",
      "l1BlobBaseFee": "0x91d40c",
      "l1BlobBaseFeeScalar": "0xa118b",
      "l1Fee": "0x1224a34fc",
      "l1GasPrice": "0x8d38e0d",
      "l1GasUsed": "0x640"
    },
    {
      "status": "0x1",
      "cumulativeGasUsed": "0x95573b",
      "logs": [
        {
          "address": "0x66aa3c0367a5c9dd4c992f6fee35427e4b15063d",
          "topics": [
            "0xbc7cd75a20ee27fd9adebab32041f755214dbc6bffa90cc0225b39da2e5c2d3b",
            "0x00000000000000000000000088008017bea558799a73b5479f6ae159698b48a8"
          ],
          "data": "0x",
          "blockHash": "0x55748d84ff2f13e7500201259b0533887419a6d80653ac554e68e8e7d46253a0",
          "blockNumber": "0x26e7ecd",
          "blockTimestamp": "0x69f05c7a",
          "transactionHash": "0x98793247e1c85b02da756f51ecabce96ba945da1de4d5d5e40f651a3120c89cb",
          "transactionIndex": "0xc",
          "logIndex": "0x104",
          "removed": false
        },
        {
          "address": "0x66aa3c0367a5c9dd4c992f6fee35427e4b15063d",
          "topics": [
            "0xc7f505b2f371ae2175ee4913f4499e1f2633a7b5936321eed1cdaeb6115181d2"
          ],
          "data": "0x0000000000000000000000000000000000000000000000000000000000000001",
          "blockHash": "0x55748d84ff2f13e7500201259b0533887419a6d80653ac554e68e8e7d46253a0",
          "blockNumber": "0x26e7ecd",
          "blockTimestamp": "0x69f05c7a",
          "transactionHash": "0x98793247e1c85b02da756f51ecabce96ba945da1de4d5d5e40f651a3120c89cb",
          "transactionIndex": "0xc",
          "logIndex": "0x105",
          "removed": false
        },
        {
          "address": "0xadc422e64e648ffebae1aba896f6a72d27c67761",
          "topics": [
            "0x8be0079c531659141344cd1fd0a4f28419497f9722a3daafe3b4186f6b6457e0",
            "0x0000000000000000000000000000000000000000000000000000000000000000",
            "0x000000000000000000000000ff6bdef4fb646ee44e29fe8fc0862b02f0ba8a33"
          ],
          "data": "0x",
          "blockHash": "0x55748d84ff2f13e7500201259b0533887419a6d80653ac554e68e8e7d46253a0",
          "blockNumber": "0x26e7ecd",
          "blockTimestamp": "0x69f05c7a",
          "transactionHash": "0x98793247e1c85b02da756f51ecabce96ba945da1de4d5d5e40f651a3120c89cb",
          "transactionIndex": "0xc",
          "logIndex": "0x106",
          "removed": false
        },
        {
          "address": "0x66aa3c0367a5c9dd4c992f6fee35427e4b15063d",
          "topics": [
            "0x7e644d79422f17c01e4894b5f4f588d331ebfa28653d42ae832dc59e38c9798f"
          ],
          "data": "0x0000000000000000000000000000000000000000000000000000000000000000000000000000000000000000adc422e64e648ffebae1aba896f6a72d27c67761",
          "blockHash": "0x55748d84ff2f13e7500201259b0533887419a6d80653ac554e68e8e7d46253a0",
          "blockNumber": "0x26e7ecd",
          "blockTimestamp": "0x69f05c7a",
          "transactionHash": "0x98793247e1c85b02da756f51ecabce96ba945da1de4d5d5e40f651a3120c89cb",
          "transactionIndex": "0xc",
          "logIndex": "0x107",
          "removed": false
        },
        {
          "address": "0x9a52f2522c4d74b874ac27a89b938272327da3db",
          "topics": [
            "0xbc7cd75a20ee27fd9adebab32041f755214dbc6bffa90cc0225b39da2e5c2d3b",
            "0x000000000000000000000000d5a38db79b7385af025a2cf925ac4b17304a28af"
          ],
          "data": "0x",
          "blockHash": "0x55748d84ff2f13e7500201259b0533887419a6d80653ac554e68e8e7d46253a0",
          "blockNumber": "0x26e7ecd",
          "blockTimestamp": "0x69f05c7a",
          "transactionHash": "0x98793247e1c85b02da756f51ecabce96ba945da1de4d5d5e40f651a3120c89cb",
          "transactionIndex": "0xc",
          "logIndex": "0x108",
          "removed": false
        },
        {
          "address": "0x9a52f2522c4d74b874ac27a89b938272327da3db",
          "topics": [
            "0xc7f505b2f371ae2175ee4913f4499e1f2633a7b5936321eed1cdaeb6115181d2"
          ],
          "data": "0x0000000000000000000000000000000000000000000000000000000000000001",
          "blockHash": "0x55748d84ff2f13e7500201259b0533887419a6d80653ac554e68e8e7d46253a0",
          "blockNumber": "0x26e7ecd",
          "blockTimestamp": "0x69f05c7a",
          "transactionHash": "0x98793247e1c85b02da756f51ecabce96ba945da1de4d5d5e40f651a3120c89cb",
          "transactionIndex": "0xc",
          "logIndex": "0x109",
          "removed": false
        },
        {
          "address": "0xa7cdebff31f2503be1c72cd9c98c078b8890cc4c",
          "topics": [
            "0x8be0079c531659141344cd1fd0a4f28419497f9722a3daafe3b4186f6b6457e0",
            "0x0000000000000000000000000000000000000000000000000000000000000000",
            "0x000000000000000000000000ff6bdef4fb646ee44e29fe8fc0862b02f0ba8a33"
          ],
          "data": "0x",
          "blockHash": "0x55748d84ff2f13e7500201259b0533887419a6d80653ac554e68e8e7d46253a0",
          "blockNumber": "0x26e7ecd",
          "blockTimestamp": "0x69f05c7a",
          "transactionHash": "0x98793247e1c85b02da756f51ecabce96ba945da1de4d5d5e40f651a3120c89cb",
          "transactionIndex": "0xc",
          "logIndex": "0x10a",
          "removed": false
        },
        {
          "address": "0x9a52f2522c4d74b874ac27a89b938272327da3db",
          "topics": [
            "0x7e644d79422f17c01e4894b5f4f588d331ebfa28653d42ae832dc59e38c9798f"
          ],
          "data": "0x0000000000000000000000000000000000000000000000000000000000000000000000000000000000000000a7cdebff31f2503be1c72cd9c98c078b8890cc4c",
          "blockHash": "0x55748d84ff2f13e7500201259b0533887419a6d80653ac554e68e8e7d46253a0",
          "blockNumber": "0x26e7ecd",
          "blockTimestamp": "0x69f05c7a",
          "transactionHash": "0x98793247e1c85b02da756f51ecabce96ba945da1de4d5d5e40f651a3120c89cb",
          "transactionIndex": "0xc",
          "logIndex": "0x10b",
          "removed": false
        },
        {
          "address": "0xa141172f70066424f9ccf40822ba8b7f0597fbf6",
          "topics": [
            "0xbc7cd75a20ee27fd9adebab32041f755214dbc6bffa90cc0225b39da2e5c2d3b",
            "0x000000000000000000000000a37df5ec09349dda1e0e7ca60e1ed3d110edb987"
          ],
          "data": "0x",
          "blockHash": "0x55748d84ff2f13e7500201259b0533887419a6d80653ac554e68e8e7d46253a0",
          "blockNumber": "0x26e7ecd",
          "blockTimestamp": "0x69f05c7a",
          "transactionHash": "0x98793247e1c85b02da756f51ecabce96ba945da1de4d5d5e40f651a3120c89cb",
          "transactionIndex": "0xc",
          "logIndex": "0x10c",
          "removed": false
        },
        {
          "address": "0xa141172f70066424f9ccf40822ba8b7f0597fbf6",
          "topics": [
            "0xc7f505b2f371ae2175ee4913f4499e1f2633a7b5936321eed1cdaeb6115181d2"
          ],
          "data": "0x0000000000000000000000000000000000000000000000000000000000000001",
          "blockHash": "0x55748d84ff2f13e7500201259b0533887419a6d80653ac554e68e8e7d46253a0",
          "blockNumber": "0x26e7ecd",
          "blockTimestamp": "0x69f05c7a",
          "transactionHash": "0x98793247e1c85b02da756f51ecabce96ba945da1de4d5d5e40f651a3120c89cb",
          "transactionIndex": "0xc",
          "logIndex": "0x10d",
          "removed": false
        },
        {
          "address": "0x0faffcebb2a60ebee53a84ae5b01fd32e6bf4c85",
          "topics": [
            "0x8be0079c531659141344cd1fd0a4f28419497f9722a3daafe3b4186f6b6457e0",
            "0x0000000000000000000000000000000000000000000000000000000000000000",
            "0x000000000000000000000000ff6bdef4fb646ee44e29fe8fc0862b02f0ba8a33"
          ],
          "data": "0x",
          "blockHash": "0x55748d84ff2f13e7500201259b0533887419a6d80653ac554e68e8e7d46253a0",
          "blockNumber": "0x26e7ecd",
          "blockTimestamp": "0x69f05c7a",
          "transactionHash": "0x98793247e1c85b02da756f51ecabce96ba945da1de4d5d5e40f651a3120c89cb",
          "transactionIndex": "0xc",
          "logIndex": "0x10e",
          "removed": false
        },
        {
          "address": "0xa141172f70066424f9ccf40822ba8b7f0597fbf6",
          "topics": [
            "0x7e644d79422f17c01e4894b5f4f588d331ebfa28653d42ae832dc59e38c9798f"
          ],
          "data": "0x00000000000000000000000000000000000000000000000000000000000000000000000000000000000000000faffcebb2a60ebee53a84ae5b01fd32e6bf4c85",
          "blockHash": "0x55748d84ff2f13e7500201259b0533887419a6d80653ac554e68e8e7d46253a0",
          "blockNumber": "0x26e7ecd",
          "blockTimestamp": "0x69f05c7a",
          "transactionHash": "0x98793247e1c85b02da756f51ecabce96ba945da1de4d5d5e40f651a3120c89cb",
          "transactionIndex": "0xc",
          "logIndex": "0x10f",
          "removed": false
        },
        {
          "address": "0xaa394470c2e0bc72e7ef3f2dcffd94e8fbc7ade4",
          "topics": [
            "0xbc7cd75a20ee27fd9adebab32041f755214dbc6bffa90cc0225b39da2e5c2d3b",
            "0x0000000000000000000000002d1725c10dafb1575e5f3d457aa5b2a7c2bb16f4"
          ],
          "data": "0x",
          "blockHash": "0x55748d84ff2f13e7500201259b0533887419a6d80653ac554e68e8e7d46253a0",
          "blockNumber": "0x26e7ecd",
          "blockTimestamp": "0x69f05c7a",
          "transactionHash": "0x98793247e1c85b02da756f51ecabce96ba945da1de4d5d5e40f651a3120c89cb",
          "transactionIndex": "0xc",
          "logIndex": "0x110",
          "removed": false
        },
        {
          "address": "0xaa394470c2e0bc72e7ef3f2dcffd94e8fbc7ade4",
          "topics": [
            "0xc7f505b2f371ae2175ee4913f4499e1f2633a7b5936321eed1cdaeb6115181d2"
          ],
          "data": "0x0000000000000000000000000000000000000000000000000000000000000001",
          "blockHash": "0x55748d84ff2f13e7500201259b0533887419a6d80653ac554e68e8e7d46253a0",
          "blockNumber": "0x26e7ecd",
          "blockTimestamp": "0x69f05c7a",
          "transactionHash": "0x98793247e1c85b02da756f51ecabce96ba945da1de4d5d5e40f651a3120c89cb",
          "transactionIndex": "0xc",
          "logIndex": "0x111",
          "removed": false
        },
        {
          "address": "0xce047b46a98933d3374bc74929e983488463f649",
          "topics": [
            "0x8be0079c531659141344cd1fd0a4f28419497f9722a3daafe3b4186f6b6457e0",
            "0x0000000000000000000000000000000000000000000000000000000000000000",
            "0x000000000000000000000000ff6bdef4fb646ee44e29fe8fc0862b02f0ba8a33"
          ],
          "data": "0x",
          "blockHash": "0x55748d84ff2f13e7500201259b0533887419a6d80653ac554e68e8e7d46253a0",
          "blockNumber": "0x26e7ecd",
          "blockTimestamp": "0x69f05c7a",
          "transactionHash": "0x98793247e1c85b02da756f51ecabce96ba945da1de4d5d5e40f651a3120c89cb",
          "transactionIndex": "0xc",
          "logIndex": "0x112",
          "removed": false
        },
        {
          "address": "0xaa394470c2e0bc72e7ef3f2dcffd94e8fbc7ade4",
          "topics": [
            "0x7e644d79422f17c01e4894b5f4f588d331ebfa28653d42ae832dc59e38c9798f"
          ],
          "data": "0x0000000000000000000000000000000000000000000000000000000000000000000000000000000000000000ce047b46a98933d3374bc74929e983488463f649",
          "blockHash": "0x55748d84ff2f13e7500201259b0533887419a6d80653ac554e68e8e7d46253a0",
          "blockNumber": "0x26e7ecd",
          "blockTimestamp": "0x69f05c7a",
          "transactionHash": "0x98793247e1c85b02da756f51ecabce96ba945da1de4d5d5e40f651a3120c89cb",
          "transactionIndex": "0xc",
          "logIndex": "0x113",
          "removed": false
        },
        {
          "address": "0x78f2fd10a4b2e1a600228d8d6867fb2f68d36993",
          "topics": [
            "0xbc7cd75a20ee27fd9adebab32041f755214dbc6bffa90cc0225b39da2e5c2d3b",
            "0x000000000000000000000000c5b2ccef2304b7803f83c3e0800bfb57a6a396e3"
          ],
          "data": "0x",
          "blockHash": "0x55748d84ff2f13e7500201259b0533887419a6d80653ac554e68e8e7d46253a0",
          "blockNumber": "0x26e7ecd",
          "blockTimestamp": "0x69f05c7a",
          "transactionHash": "0x98793247e1c85b02da756f51ecabce96ba945da1de4d5d5e40f651a3120c89cb",
          "transactionIndex": "0xc",
          "logIndex": "0x114",
          "removed": false
        },
        {
          "address": "0x78f2fd10a4b2e1a600228d8d6867fb2f68d36993",
          "topics": [
            "0xc7f505b2f371ae2175ee4913f4499e1f2633a7b5936321eed1cdaeb6115181d2"
          ],
          "data": "0x0000000000000000000000000000000000000000000000000000000000000001",
          "blockHash": "0x55748d84ff2f13e7500201259b0533887419a6d80653ac554e68e8e7d46253a0",
          "blockNumber": "0x26e7ecd",
          "blockTimestamp": "0x69f05c7a",
          "transactionHash": "0x98793247e1c85b02da756f51ecabce96ba945da1de4d5d5e40f651a3120c89cb",
          "transactionIndex": "0xc",
          "logIndex": "0x115",
          "removed": false
        },
        {
          "address": "0xc857d5031b1bf639b28053947caee04860de3c9e",
          "topics": [
            "0x8be0079c531659141344cd1fd0a4f28419497f9722a3daafe3b4186f6b6457e0",
            "0x0000000000000000000000000000000000000000000000000000000000000000",
            "0x000000000000000000000000ff6bdef4fb646ee44e29fe8fc0862b02f0ba8a33"
          ],
          "data": "0x",
          "blockHash": "0x55748d84ff2f13e7500201259b0533887419a6d80653ac554e68e8e7d46253a0",
          "blockNumber": "0x26e7ecd",
          "blockTimestamp": "0x69f05c7a",
          "transactionHash": "0x98793247e1c85b02da756f51ecabce96ba945da1de4d5d5e40f651a3120c89cb",
          "transactionIndex": "0xc",
          "logIndex": "0x116",
          "removed": false
        },
        {
          "address": "0x78f2fd10a4b2e1a600228d8d6867fb2f68d36993",
          "topics": [
            "0x7e644d79422f17c01e4894b5f4f588d331ebfa28653d42ae832dc59e38c9798f"
          ],
          "data": "0x0000000000000000000000000000000000000000000000000000000000000000000000000000000000000000c857d5031b1bf639b28053947caee04860de3c9e",
          "blockHash": "0x55748d84ff2f13e7500201259b0533887419a6d80653ac554e68e8e7d46253a0",
          "blockNumber": "0x26e7ecd",
          "blockTimestamp": "0x69f05c7a",
          "transactionHash": "0x98793247e1c85b02da756f51ecabce96ba945da1de4d5d5e40f651a3120c89cb",
          "transactionIndex": "0xc",
          "logIndex": "0x117",
          "removed": false
        },
        {
          "address": "0x91fd5c9d274c519a152af14223bd10ed0b446bdd",
          "topics": [
            "0x02e5501cd9c125c7ea37808e14d6fc604df3b0ed9d369ac30a1c1393e72dc300",
            "0x00000000000000000000000066aa3c0367a5c9dd4c992f6fee35427e4b15063d",
            "0x000000000000000000000000ff6bdef4fb646ee44e29fe8fc0862b02f0ba8a33"
          ],
          "data": "0x0000000000000000000000009a52f2522c4d74b874ac27a89b938272327da3db00000000000000000000000078f2fd10a4b2e1a600228d8d6867fb2f68d36993000000000000000000000000a141172f70066424f9ccf40822ba8b7f0597fbf6000000000000000000000000aa394470c2e0bc72e7ef3f2dcffd94e8fbc7ade400000000000000000000000000000000000000000000000001ff973cafa8000000000000000000000000000000000000000000000000001b1ae4d6e2ef50000000000000000000000000000000000000000000000000006c6b935b8bbd4000000000000000000000000000000000000000000000000000000000000069f1adb600000000000000000000000000000000000000000000000000000000000007080000000000000000000000000000000000000000000000000de0b6b3a76400000000000000000000000000000000000000000000000000000000000069f05c7a00000000000000000000000000000000000000000000000000000000000003e80000000000000000000000000000000000000000000000000de0b6b3a76400000000000000000000000000000000000000000000000000000000000000000000",
          "blockHash": "0x55748d84ff2f13e7500201259b0533887419a6d80653ac554e68e8e7d46253a0",
          "blockNumber": "0x26e7ecd",
          "blockTimestamp": "0x69f05c7a",
          "transactionHash": "0x98793247e1c85b02da756f51ecabce96ba945da1de4d5d5e40f651a3120c89cb",
          "transactionIndex": "0xc",
          "logIndex": "0x118",
          "removed": false
        }
      ],
      "logsBloom": "0x000000000000200201001001000000804000000000000000008000000000001080000000000000000040000800000000800000000000000000000000000000000002000000004000000020020000020680010020000800010000000000000000000000000200000800000000000008000842208004000400040008100000004000000000000810002008000000008000000000000400840000000000008000000000000000200000002000000000000000000000000000101000000100000000000010200000c0060000000000030000000000000404000000000000000020000200000008000000000000000000000002000000020000004000000040000200",
      "type": "0x2",
      "transactionHash": "0x98793247e1c85b02da756f51ecabce96ba945da1de4d5d5e40f651a3120c89cb",
      "transactionIndex": "0xc",
      "blockHash": "0x55748d84ff2f13e7500201259b0533887419a6d80653ac554e68e8e7d46253a0",
      "blockNumber": "0x26e7ecd",
      "gasUsed": "0x3934d6",
      "effectiveGasPrice": "0x5b8d80",
      "blobGasUsed": "0x8b54",
      "from": "0xff6bdef4fb646ee44e29fe8fc0862b02f0ba8a33",
      "to": "0x91fd5c9d274c519a152af14223bd10ed0b446bdd",
      "contractAddress": null,
      "daFootprintGasScalar": "0x94",
      "l1BaseFeeScalar": "0x44d",
      "l1BlobBaseFee": "0x91d40c",
      "l1BlobBaseFeeScalar": "0xa118b",
      "l1Fee": "0x807f3290",
      "l1GasPrice": "0x8d38e0d",
      "l1GasUsed": "0xf1d"
    },
    {
      "status": "0x1",
      "cumulativeGasUsed": "0x7b9e5",
      "logs": [
        {
          "address": "0x66aa3c0367a5c9dd4c992f6fee35427e4b15063d",
          "topics": [
            "0x1809803edc7f4d0a1c400a8f95cac12ace860d60e118b6c9b491082a623963df",
            "0x000000000000000000000000f286970e2470948abb010b4dd35e1ad2da3397b0"
          ],
          "data": "0x00000000000000000000000000000000000000000000000000000000000000800000000000000000000000000000000000000000000000000000000000000000000000000000000000000000000000000000000000000000000000000002328000000000000000000000000000000000000000000000000000000000000000000000000000000000000000000000000000000000000000000000000000000000",
          "blockHash": "0x0000000000000000000000000000000000000000000000000000000000000000",
          "blockNumber": "0x26e7ecf",
          "blockTimestamp": "0x69f05c7e",
          "transactionHash": "0x937a849f7c69b5fa2786858aa1dd548523f5e318e8b6064c3b19f1244d249e03",
          "transactionIndex": "0x3",
          "logIndex": "0xa",
          "removed": false
        }
      ],
      "logsBloom": "0x00000000000000000000000000000000000000000000000400000000000000000000000000000000000000000000000000000000000000008000000000000000080000000000400000000000000000000000001000080000000000000000000000000000000000000000000000000000000000000000000000000000000000000000000000000000000000000000000000000000000000000000000000000000000000000000000000000000000000000000000000000000000000200000000000000000000000000000000000000000000000000000000000000000000000000000000000000000000000000000000000000000000002000000000040000000",
      "type": "0x2",
      "transactionHash": "0x937a849f7c69b5fa2786858aa1dd548523f5e318e8b6064c3b19f1244d249e03",
      "transactionIndex": "0x3",
      "blockHash": "0x0000000000000000000000000000000000000000000000000000000000000000",
      "blockNumber": "0x26e7ecf",
      "gasUsed": "0x1f0bb",
      "effectiveGasPrice": "0x5b8d80",
      "blobGasUsed": "0x39d0",
      "from": "0xff6bdef4fb646ee44e29fe8fc0862b02f0ba8a33",
      "to": "0x66aa3c0367a5c9dd4c992f6fee35427e4b15063d",
      "contractAddress": null,
      "daFootprintGasScalar": "0x94",
      "l1BaseFeeScalar": "0x44d",
      "l1BlobBaseFee": "0x91d40c",
      "l1BlobBaseFeeScalar": "0xa118b",
      "l1Fee": "0x48efa2f6",
      "l1GasPrice": "0x8d38e0d",
      "l1GasUsed": "0x640"
    },
    {
      "status": "0x1",
      "cumulativeGasUsed": "0xa2b49",
      "logs": [
        {
          "address": "0xf286970e2470948abb010b4dd35e1ad2da3397b0",
          "topics": [
            "0x8c5be1e5ebec7d5bd14f71427d1e84f3dd0314c0f7b2291e5b200ac8c7c3b925",
            "0x000000000000000000000000ff6bdef4fb646ee44e29fe8fc0862b02f0ba8a33",
            "0x00000000000000000000000066aa3c0367a5c9dd4c992f6fee35427e4b15063d"
          ],
          "data": "0xffffffffffffffffffffffffffffffffffffffffffffffffffffffffffffffff",
          "blockHash": "0x0000000000000000000000000000000000000000000000000000000000000000",
          "blockNumber": "0x26e7ed1",
          "blockTimestamp": "0x69f05c82",
          "transactionHash": "0x6ae1d8320310f56df903ae567354721f709409a030ce3b1fd86878202445f30d",
          "transactionIndex": "0x6",
          "logIndex": "0x11",
          "removed": false
        }
      ],
      "logsBloom": "0x00000000000000000000100000000000000000000000000000000000000000000000001000000000000000000000000000000000000000000000000000200000000200000000000000002200000000000000000000000001000000000000000000000000000000000000000000000000000000000000000000000000000000000000000000000000000000000000000000000000000000000000000000000000020000000000000000000000000000000000000000000000000000000000000000000000000000020000000000010000000000400000000000000000000000000010000000000000000000000000000000000000000000000000000000000000",
      "type": "0x2",
      "transactionHash": "0x6ae1d8320310f56df903ae567354721f709409a030ce3b1fd86878202445f30d",
      "transactionIndex": "0x6",
      "blockHash": "0x0000000000000000000000000000000000000000000000000000000000000000",
      "blockNumber": "0x26e7ed1",
      "gasUsed": "0xb4cb",
      "effectiveGasPrice": "0x5b8d80",
      "blobGasUsed": "0x39d0",
      "from": "0xff6bdef4fb646ee44e29fe8fc0862b02f0ba8a33",
      "to": "0xf286970e2470948abb010b4dd35e1ad2da3397b0",
      "contractAddress": null,
      "daFootprintGasScalar": "0x94",
      "l1BaseFeeScalar": "0x44d",
      "l1BlobBaseFee": "0x91d40c",
      "l1BlobBaseFeeScalar": "0xa118b",
      "l1Fee": "0x35d2bb4b",
      "l1GasPrice": "0x8d38e0d",
      "l1GasUsed": "0x640"
    },
    {
      "status": "0x1",
      "cumulativeGasUsed": "0x3336ba",
      "logs": [
        {
          "address": "0xf286970e2470948abb010b4dd35e1ad2da3397b0",
          "topics": [
            "0xddf252ad1be2c89b69c2b068fc378daa952ba7f163c4a11628f55a4df523b3ef",
            "0x000000000000000000000000ff6bdef4fb646ee44e29fe8fc0862b02f0ba8a33",
            "0x00000000000000000000000066aa3c0367a5c9dd4c992f6fee35427e4b15063d"
          ],
          "data": "0x0000000000000000000000000000000000000000000000000000000006021600",
          "blockHash": "0xe166eefd45b92da8a3a656b003180a6705ad1f8ea5a3c0b6951304b51ad1a8bc",
          "blockNumber": "0x26e7ed2",
          "blockTimestamp": "0x69f05c84",
          "transactionHash": "0xfb2c3e32c7c589083d0d0a374855c2909e367922335800eb7de755baa1c2eb0f",
          "transactionIndex": "0xf",
          "logIndex": "0x42",
          "removed": false
        },
        {
          "address": "0xf286970e2470948abb010b4dd35e1ad2da3397b0",
          "topics": [
            "0xddf252ad1be2c89b69c2b068fc378daa952ba7f163c4a11628f55a4df523b3ef",
            "0x00000000000000000000000066aa3c0367a5c9dd4c992f6fee35427e4b15063d",
            "0x000000000000000000000000ff6bdef4fb646ee44e29fe8fc0862b02f0ba8a33"
          ],
          "data": "0x00000000000000000000000000000000000000000000000000000000002e2480",
          "blockHash": "0xe166eefd45b92da8a3a656b003180a6705ad1f8ea5a3c0b6951304b51ad1a8bc",
          "blockNumber": "0x26e7ed2",
          "blockTimestamp": "0x69f05c84",
          "transactionHash": "0xfb2c3e32c7c589083d0d0a374855c2909e367922335800eb7de755baa1c2eb0f",
          "transactionIndex": "0xf",
          "logIndex": "0x43",
          "removed": false
        },
        {
          "address": "0x66aa3c0367a5c9dd4c992f6fee35427e4b15063d",
          "topics": [
            "0x4dd12c0ecba594b5bb7a4e3ec05ef19e1135fed23711a1fe4b1c9e6c9b40391b",
            "0x000000000000000000000000ff6bdef4fb646ee44e29fe8fc0862b02f0ba8a33",
            "0x000000000000000000000000f286970e2470948abb010b4dd35e1ad2da3397b0"
          ],
          "data": "0x00000000000000000000000000000000000000000000000000000000002e2480",
          "blockHash": "0xe166eefd45b92da8a3a656b003180a6705ad1f8ea5a3c0b6951304b51ad1a8bc",
          "blockNumber": "0x26e7ed2",
          "blockTimestamp": "0x69f05c84",
          "transactionHash": "0xfb2c3e32c7c589083d0d0a374855c2909e367922335800eb7de755baa1c2eb0f",
          "transactionIndex": "0xf",
          "logIndex": "0x44",
          "removed": false
        },
        {
          "address": "0x9a52f2522c4d74b874ac27a89b938272327da3db",
          "topics": [
            "0xddf252ad1be2c89b69c2b068fc378daa952ba7f163c4a11628f55a4df523b3ef",
            "0x0000000000000000000000000000000000000000000000000000000000000000",
            "0x000000000000000000000000ff6bdef4fb646ee44e29fe8fc0862b02f0ba8a33"
          ],
          "data": "0x000000000000000000000000000000000000000000000025f273933db5700000",
          "blockHash": "0xe166eefd45b92da8a3a656b003180a6705ad1f8ea5a3c0b6951304b51ad1a8bc",
          "blockNumber": "0x26e7ed2",
          "blockTimestamp": "0x69f05c84",
          "transactionHash": "0xfb2c3e32c7c589083d0d0a374855c2909e367922335800eb7de755baa1c2eb0f",
          "transactionIndex": "0xf",
          "logIndex": "0x45",
          "removed": false
        },
        {
          "address": "0x66aa3c0367a5c9dd4c992f6fee35427e4b15063d",
          "topics": [
            "0x0b9c8304b83df3d2827b952a8e4c87faef3556dddcde57a47cb80f0c755606a5",
            "0x000000000000000000000000ff6bdef4fb646ee44e29fe8fc0862b02f0ba8a33",
            "0x000000000000000000000000f286970e2470948abb010b4dd35e1ad2da3397b0"
          ],
          "data": "0x0000000000000000000000000000000000000000000000000000000006021600000000000000000000000000000000000000000000000025f273933db57000000000000000000000000000000000000000000000000000000000000000000000000000000000000000000000000000000000000000000025f273933db5700000",
          "blockHash": "0xe166eefd45b92da8a3a656b003180a6705ad1f8ea5a3c0b6951304b51ad1a8bc",
          "blockNumber": "0x26e7ed2",
          "blockTimestamp": "0x69f05c84",
          "transactionHash": "0xfb2c3e32c7c589083d0d0a374855c2909e367922335800eb7de755baa1c2eb0f",
          "transactionIndex": "0xf",
          "logIndex": "0x46",
          "removed": false
        },
        {
          "address": "0xf286970e2470948abb010b4dd35e1ad2da3397b0",
          "topics": [
            "0xddf252ad1be2c89b69c2b068fc378daa952ba7f163c4a11628f55a4df523b3ef",
            "0x00000000000000000000000066aa3c0367a5c9dd4c992f6fee35427e4b15063d",
            "0x000000000000000000000000ff6bdef4fb646ee44e29fe8fc0862b02f0ba8a33"
          ],
          "data": "0x0000000000000000000000000000000000000000000000000000000005d3f180",
          "blockHash": "0xe166eefd45b92da8a3a656b003180a6705ad1f8ea5a3c0b6951304b51ad1a8bc",
          "blockNumber": "0x26e7ed2",
          "blockTimestamp": "0x69f05c84",
          "transactionHash": "0xfb2c3e32c7c589083d0d0a374855c2909e367922335800eb7de755baa1c2eb0f",
          "transactionIndex": "0xf",
          "logIndex": "0x47",
          "removed": false
        },
        {
          "address": "0x66aa3c0367a5c9dd4c992f6fee35427e4b15063d",
          "topics": [
            "0x120bfc1de29621f7872a5b3129b6524ceb18df8c689a37496b8ee4007235dbc8"
          ],
          "data": "0x00000000000000000000000000000000000000000000000000000000000000000000000000000000000000000000000000000000000000000000000000000001",
          "blockHash": "0xe166eefd45b92da8a3a656b003180a6705ad1f8ea5a3c0b6951304b51ad1a8bc",
          "blockNumber": "0x26e7ed2",
          "blockTimestamp": "0x69f05c84",
          "transactionHash": "0xfb2c3e32c7c589083d0d0a374855c2909e367922335800eb7de755baa1c2eb0f",
          "transactionIndex": "0xf",
          "logIndex": "0x48",
          "removed": false
        },
        {
          "address": "0x66aa3c0367a5c9dd4c992f6fee35427e4b15063d",
          "topics": [
            "0xccb4518c7bb9cdee893961401854c0ac29fad869f3338dc3087c9215fa4ab9e1"
          ],
          "data": "0x0000000000000000000000000000000000000000000000000000000000000000000000000000000000000000000000000000000000000025f273933db5700000",
          "blockHash": "0xe166eefd45b92da8a3a656b003180a6705ad1f8ea5a3c0b6951304b51ad1a8bc",
          "blockNumber": "0x26e7ed2",
          "blockTimestamp": "0x69f05c84",
          "transactionHash": "0xfb2c3e32c7c589083d0d0a374855c2909e367922335800eb7de755baa1c2eb0f",
          "transactionIndex": "0xf",
          "logIndex": "0x49",
          "removed": false
        }
      ],
      "logsBloom": "0x0000000000000000000010000000000000000000000040008000000000000800000000100000000000000000000000000000000000000000000000000000000008020000000040000000220a000010008000001000880001000000000000000000000000020000000000000000000800000000000000000000000010001000000000000000000000000000000000000000000000000000000000000000000000000000000000000000100020000000000000000000000000000000200000000000400002000000020000000000032000000000400000004000000000000020000000000002000000000000000000000000000000000000000000000040000000",
      "type": "0x2",
      "transactionHash": "0xfb2c3e32c7c589083d0d0a374855c2909e367922335800eb7de755baa1c2eb0f",
      "transactionIndex": "0xf",
      "blockHash": "0xe166eefd45b92da8a3a656b003180a6705ad1f8ea5a3c0b6951304b51ad1a8bc",
      "blockNumber": "0x26e7ed2",
      "gasUsed": "0x495bb",
      "effectiveGasPrice": "0x5b8d80",
      "blobGasUsed": "0x39d0",
      "from": "0xff6bdef4fb646ee44e29fe8fc0862b02f0ba8a33",
      "to": "0x66aa3c0367a5c9dd4c992f6fee35427e4b15063d",
      "contractAddress": null,
      "daFootprintGasScalar": "0x94",
      "l1BaseFeeScalar": "0x44d",
      "l1BlobBaseFee": "0x91d40c",
      "l1BlobBaseFeeScalar": "0xa118b",
      "l1Fee": "0x3522ed68",
      "l1GasPrice": "0x8d38e0d",
      "l1GasUsed": "0x640"
    },
    {
      "status": "0x1",
      "cumulativeGasUsed": "0x46579d",
      "logs": [
        {
          "address": "0xa141172f70066424f9ccf40822ba8b7f0597fbf6",
          "topics": [
            "0x8d160eff266df162107c57259a1f1e71787bd4ab800800826bd189d6f2f3e83c",
            "0x0000000000000000000000000000000000000000000000000000000000000001"
          ],
          "data": "0x0000000000000000000000000000000000000000000000000000000069f05c86",
          "blockHash": "0x700a8ba72e128ad854d3672a665f781775f57972cb60c02df6ff5113d10fc688",
          "blockNumber": "0x26e7ed3",
          "blockTimestamp": "0x69f05c86",
          "transactionHash": "0x42478583e54370ef7b90ae8690de9ff298a389f9ebd5727822f80e52dee25aab",
          "transactionIndex": "0x12",
          "logIndex": "0x7b",
          "removed": false
        }
      ],
      "logsBloom": "0x00000000800000000000000000000000000000000000000000000000000000000000000000000000000000080000000000000000000000000000000000040000000000000000000000000000000000000000000000040000000000000000000000000000000000080000000000000000000000000000000000000000000000000000000000000000000000000000000000000000000000000000000000000000000000000000000000000000080000000000000000000000000000000000000000000000000040000000000000000000000000000000000000000000000040000000000200000000000000000000000000000000000000000000000000000000",
      "type": "0x2",
      "transactionHash": "0x42478583e54370ef7b90ae8690de9ff298a389f9ebd5727822f80e52dee25aab",
      "transactionIndex": "0x12",
      "blockHash": "0x700a8ba72e128ad854d3672a665f781775f57972cb60c02df6ff5113d10fc688",
      "blockNumber": "0x26e7ed3",
      "gasUsed": "0x24982",
      "effectiveGasPrice": "0x5b8d80",
      "blobGasUsed": "0x39d0",
      "from": "0xff6bdef4fb646ee44e29fe8fc0862b02f0ba8a33",
      "to": "0x66aa3c0367a5c9dd4c992f6fee35427e4b15063d",
      "contractAddress": null,
      "daFootprintGasScalar": "0x94",
      "l1BaseFeeScalar": "0x44d",
      "l1BlobBaseFee": "0x91d40c",
      "l1BlobBaseFeeScalar": "0xa118b",
      "l1Fee": "0x3522ed68",
      "l1GasPrice": "0x8d38e0d",
      "l1GasUsed": "0x640"
    },
    {
      "status": "0x1",
      "cumulativeGasUsed": "0x723b2",
      "logs": [
        {
          "address": "0x9a52f2522c4d74b874ac27a89b938272327da3db",
          "topics": [
            "0x8c5be1e5ebec7d5bd14f71427d1e84f3dd0314c0f7b2291e5b200ac8c7c3b925",
            "0x000000000000000000000000ff6bdef4fb646ee44e29fe8fc0862b02f0ba8a33",
            "0x000000000000000000000000a141172f70066424f9ccf40822ba8b7f0597fbf6"
          ],
          "data": "0xffffffffffffffffffffffffffffffffffffffffffffffffffffffffffffffff",
          "blockHash": "0x0000000000000000000000000000000000000000000000000000000000000000",
          "blockNumber": "0x26e7ed5",
          "blockTimestamp": "0x69f05c8a",
          "transactionHash": "0x59630ef9e158445a0f910946227af8afffb880dd8d0c1f04f593c520db2ce80a",
          "transactionIndex": "0x4",
          "logIndex": "0xb",
          "removed": false
        }
      ],
      "logsBloom": "0x00000000000000000000100000000000000000000000000000000000000000000000000000000000000000000000000000000000000000000100000000200000000000000000000000000002000000008000000000000001000000000000004000000000000000000000000000000000000000000000000000000000000000000000000000000000000000000000000000000000000000000000000000000000020000000000000000000000000000000000000000000000000000000000000000000000000000000000000000030000000000000000000000000000000000000010000020000000000000000000000000000000000000000000000000000000",
      "type": "0x2",
      "transactionHash": "0x59630ef9e158445a0f910946227af8afffb880dd8d0c1f04f593c520db2ce80a",
      "transactionIndex": "0x4",
      "blockHash": "0x0000000000000000000000000000000000000000000000000000000000000000",
      "blockNumber": "0x26e7ed5",
      "gasUsed": "0xc841",
      "effectiveGasPrice": "0x5b8d80",
      "blobGasUsed": "0x39d0",
      "from": "0xff6bdef4fb646ee44e29fe8fc0862b02f0ba8a33",
      "to": "0x9a52f2522c4d74b874ac27a89b938272327da3db",
      "contractAddress": null,
      "daFootprintGasScalar": "0x94",
      "l1BaseFeeScalar": "0x44d",
      "l1BlobBaseFee": "0x91d40c",
      "l1BlobBaseFeeScalar": "0xa118b",
      "l1Fee": "0x3522ed68",
      "l1GasPrice": "0x8d38e0d",
      "l1GasUsed": "0x640"
    },
    {
      "status": "0x1",
      "cumulativeGasUsed": "0x321668",
      "logs": [
        {
          "address": "0x9a52f2522c4d74b874ac27a89b938272327da3db",
          "topics": [
            "0xddf252ad1be2c89b69c2b068fc378daa952ba7f163c4a11628f55a4df523b3ef",
            "0x000000000000000000000000ff6bdef4fb646ee44e29fe8fc0862b02f0ba8a33",
            "0x000000000000000000000000a141172f70066424f9ccf40822ba8b7f0597fbf6"
          ],
          "data": "0x000000000000000000000000000000000000000000000025f273933db5700000",
          "blockHash": "0x0000000000000000000000000000000000000000000000000000000000000000",
          "blockNumber": "0x26e7ed6",
          "blockTimestamp": "0x69f05c8c",
          "transactionHash": "0x733f761c0bb8a6922d47b3c930291ad448b863e0788e12f7144873bb772441c4",
          "transactionIndex": "0xd",
          "logIndex": "0x72",
          "removed": false
        },
        {
          "address": "0xa141172f70066424f9ccf40822ba8b7f0597fbf6",
          "topics": [
            "0x9cfd25589d1eb8ad71e342a86a8524e83522e3936c0803048c08f6d9ad974f40",
            "0x000000000000000000000000ff6bdef4fb646ee44e29fe8fc0862b02f0ba8a33",
            "0x0000000000000000000000000000000000000000000000000000000000000000"
          ],
          "data": "0x000000000000000000000000000000000000000000000025f273933db5700000000000000000000000000000000000000000000000000025f273933db570000000000000000000000000000000000000000000000000000031f5c4ed27680000",
          "blockHash": "0x0000000000000000000000000000000000000000000000000000000000000000",
          "blockNumber": "0x26e7ed6",
          "blockTimestamp": "0x69f05c8c",
          "transactionHash": "0x733f761c0bb8a6922d47b3c930291ad448b863e0788e12f7144873bb772441c4",
          "transactionIndex": "0xd",
          "logIndex": "0x73",
          "removed": false
        },
        {
          "address": "0xa141172f70066424f9ccf40822ba8b7f0597fbf6",
          "topics": [
            "0x875894a489de1b1b13bf2e6c03981e3ddabcf1794b4b94dc5ba5d8e855a1e2f9"
          ],
          "data": "0x00000000000000000000000000000000000000000000000031f5c4ed27680000000000000000000000000000000000000000000000000025f273933db570000000000000000000000000000000000000000000000000006c6b935b8bbd400000",
          "blockHash": "0x0000000000000000000000000000000000000000000000000000000000000000",
          "blockNumber": "0x26e7ed6",
          "blockTimestamp": "0x69f05c8c",
          "transactionHash": "0x733f761c0bb8a6922d47b3c930291ad448b863e0788e12f7144873bb772441c4",
          "transactionIndex": "0xd",
          "logIndex": "0x74",
          "removed": false
        }
      ],
      "logsBloom": "0x0000000000000000000010000000000000000000000000000000000000000000000000000000000000000008000000000000000000000000010800000000000000000000000000000000000a000000008000000000000001000000000000004000000000020000080000000000000800000000000000000000000010000000000000000000000000000000000000000000000000000000000000000000000000000000000000000000000010000000000000000000000000000000000000200000800002000040000000000000030000000000000000000000000000000020000000000020800000000000000000000000000000000000000000000000100000",
      "type": "0x2",
      "transactionHash": "0x733f761c0bb8a6922d47b3c930291ad448b863e0788e12f7144873bb772441c4",
      "transactionIndex": "0xd",
      "blockHash": "0x0000000000000000000000000000000000000000000000000000000000000000",
      "blockNumber": "0x26e7ed6",
      "gasUsed": "0x47cb2",
      "effectiveGasPrice": "0x5b8d80",
      "blobGasUsed": "0x39d0",
      "from": "0xff6bdef4fb646ee44e29fe8fc0862b02f0ba8a33",
      "to": "0xa141172f70066424f9ccf40822ba8b7f0597fbf6",
      "contractAddress": null,
      "daFootprintGasScalar": "0x94",
      "l1BaseFeeScalar": "0x44d",
      "l1BlobBaseFee": "0x91d40c",
      "l1BlobBaseFeeScalar": "0xa118b",
      "l1Fee": "0x840d8163",
      "l1GasPrice": "0x8d38e0d",
      "l1GasUsed": "0x640"
    },
    {
      "status": "0x1",
      "cumulativeGasUsed": "0x2780ed",
      "logs": [
        {
          "address": "0xf286970e2470948abb010b4dd35e1ad2da3397b0",
          "topics": [
            "0xddf252ad1be2c89b69c2b068fc378daa952ba7f163c4a11628f55a4df523b3ef",
            "0x0000000000000000000000000000000000000000000000000000000000000000",
            "0x000000000000000000000000455ab6723ccab4cb62983710c33f6311cc85bc97"
          ],
          "data": "0x0000000000000000000000000000000000000000000000000000000002faf080",
          "blockHash": "0x0000000000000000000000000000000000000000000000000000000000000000",
          "blockNumber": "0x26e7ed7",
          "blockTimestamp": "0x69f05c8e",
          "transactionHash": "0xe959885c5d00581dab5ffa9f54a894a0f2e6f286a70036383ca21b846589f643",
          "transactionIndex": "0xd",
          "logIndex": "0x5f",
          "removed": false
        }
      ],
      "logsBloom": "0x00000000000000000000000000000000000000000000000000000000000000000000001000000000000000000000000000000000000000000000000000000000000000000000000000000208000000000000000000000000000000000000000000000000020000000000000000000800000000000000000000000010000100000000000000000000000000000002000000000000000000000000000000000000000000000000000000000000000000000000000000000000000000000000000000000002000000000000000000000000000000400000000000000000000020000000000000000000000000000000000000000000000000008000000000000000",
      "type": "0x2",
      "transactionHash": "0xe959885c5d00581dab5ffa9f54a894a0f2e6f286a70036383ca21b846589f643",
      "transactionIndex": "0xd",
      "blockHash": "0x0000000000000000000000000000000000000000000000000000000000000000",
      "blockNumber": "0x26e7ed7",
      "gasUsed": "0xc734",
      "effectiveGasPrice": "0x5b8d80",
      "blobGasUsed": "0x39d0",
      "from": "0xff6bdef4fb646ee44e29fe8fc0862b02f0ba8a33",
      "to": "0xf286970e2470948abb010b4dd35e1ad2da3397b0",
      "contractAddress": null,
      "daFootprintGasScalar": "0x94",
      "l1BaseFeeScalar": "0x44d",
      "l1BlobBaseFee": "0x91d40c",
      "l1BlobBaseFeeScalar": "0xa118b",
      "l1Fee": "0x3522ed68",
      "l1GasPrice": "0x8d38e0d",
      "l1GasUsed": "0x640"
    },
    {
      "status": "0x1",
      "cumulativeGasUsed": "0x4691dc",
      "logs": [
        {
          "address": "0xf286970e2470948abb010b4dd35e1ad2da3397b0",
          "topics": [
            "0x8c5be1e5ebec7d5bd14f71427d1e84f3dd0314c0f7b2291e5b200ac8c7c3b925",
            "0x000000000000000000000000455ab6723ccab4cb62983710c33f6311cc85bc97",
            "0x00000000000000000000000066aa3c0367a5c9dd4c992f6fee35427e4b15063d"
          ],
          "data": "0xffffffffffffffffffffffffffffffffffffffffffffffffffffffffffffffff",
          "blockHash": "0x6e7163c70e6b71099d1859c502d2263d9e5998bf917eb75d38aac00a7331b889",
          "blockNumber": "0x26e7ed8",
          "blockTimestamp": "0x69f05c90",
          "transactionHash": "0xdd99554d7ceae2d161c41ddb81039456540354b462b537ad978f5ab377611178",
          "transactionIndex": "0x11",
          "logIndex": "0x46",
          "removed": false
        }
      ],
      "logsBloom": "0x00000000000000000000000000000000000000000000000000000000000000000000001000000000000000000000000000000000000000000000000000200000000200000000000000002200000000000000000000000000000000000000000000000000000000000000000000000000000000000000000000000000000100000000000000000000000000000002000000000000000000000000000000000000020000000000000000000000000000000000000000000000000000000000000000000000000000020000000000000000000000400000000000000000000000000010000000000000000000000000000000000000000000008000000000000000",
      "type": "0x2",
      "transactionHash": "0xdd99554d7ceae2d161c41ddb81039456540354b462b537ad978f5ab377611178",
      "transactionIndex": "0x11",
      "blockHash": "0x6e7163c70e6b71099d1859c502d2263d9e5998bf917eb75d38aac00a7331b889",
      "blockNumber": "0x26e7ed8",
      "gasUsed": "0xb4cb",
      "effectiveGasPrice": "0x5b8d80",
      "blobGasUsed": "0x39d0",
      "from": "0x455ab6723ccab4cb62983710c33f6311cc85bc97",
      "to": "0xf286970e2470948abb010b4dd35e1ad2da3397b0",
      "contractAddress": null,
      "daFootprintGasScalar": "0x94",
      "l1BaseFeeScalar": "0x44d",
      "l1BlobBaseFee": "0x91d40c",
      "l1BlobBaseFeeScalar": "0xa118b",
      "l1Fee": "0x3522ed68",
      "l1GasPrice": "0x8d38e0d",
      "l1GasUsed": "0x640"
    },
    {
      "status": "0x1",
      "cumulativeGasUsed": "0xdf605",
      "logs": [
        {
          "address": "0xf286970e2470948abb010b4dd35e1ad2da3397b0",
          "topics": [
            "0xddf252ad1be2c89b69c2b068fc378daa952ba7f163c4a11628f55a4df523b3ef",
            "0x000000000000000000000000455ab6723ccab4cb62983710c33f6311cc85bc97",
            "0x00000000000000000000000066aa3c0367a5c9dd4c992f6fee35427e4b15063d"
          ],
          "data": "0x0000000000000000000000000000000000000000000000000000000002932e00",
          "blockHash": "0x0000000000000000000000000000000000000000000000000000000000000000",
          "blockNumber": "0x26e7eda",
          "blockTimestamp": "0x69f05c94",
          "transactionHash": "0x72733ce6880c4863e4ef4bf453052195936a1b744be9b0e6590cbd92c23587b2",
          "transactionIndex": "0x4",
          "logIndex": "0x10",
          "removed": false
        },
        {
          "address": "0xf286970e2470948abb010b4dd35e1ad2da3397b0",
          "topics": [
            "0xddf252ad1be2c89b69c2b068fc378daa952ba7f163c4a11628f55a4df523b3ef",
            "0x00000000000000000000000066aa3c0367a5c9dd4c992f6fee35427e4b15063d",
            "0x000000000000000000000000ff6bdef4fb646ee44e29fe8fc0862b02f0ba8a33"
          ],
          "data": "0x000000000000000000000000000000000000000000000000000000000013c680",
          "blockHash": "0x0000000000000000000000000000000000000000000000000000000000000000",
          "blockNumber": "0x26e7eda",
          "blockTimestamp": "0x69f05c94",
          "transactionHash": "0x72733ce6880c4863e4ef4bf453052195936a1b744be9b0e6590cbd92c23587b2",
          "transactionIndex": "0x4",
          "logIndex": "0x11",
          "removed": false
        },
        {
          "address": "0x66aa3c0367a5c9dd4c992f6fee35427e4b15063d",
          "topics": [
            "0x4dd12c0ecba594b5bb7a4e3ec05ef19e1135fed23711a1fe4b1c9e6c9b40391b",
            "0x000000000000000000000000455ab6723ccab4cb62983710c33f6311cc85bc97",
            "0x000000000000000000000000f286970e2470948abb010b4dd35e1ad2da3397b0"
          ],
          "data": "0x000000000000000000000000000000000000000000000000000000000013c680",
          "blockHash": "0x0000000000000000000000000000000000000000000000000000000000000000",
          "blockNumber": "0x26e7eda",
          "blockTimestamp": "0x69f05c94",
          "transactionHash": "0x72733ce6880c4863e4ef4bf453052195936a1b744be9b0e6590cbd92c23587b2",
          "transactionIndex": "0x4",
          "logIndex": "0x12",
          "removed": false
        },
        {
          "address": "0xf286970e2470948abb010b4dd35e1ad2da3397b0",
          "topics": [
            "0xddf252ad1be2c89b69c2b068fc378daa952ba7f163c4a11628f55a4df523b3ef",
            "0x00000000000000000000000066aa3c0367a5c9dd4c992f6fee35427e4b15063d",
            "0x000000000000000000000000ff6bdef4fb646ee44e29fe8fc0862b02f0ba8a33"
          ],
          "data": "0x00000000000000000000000000000000000000000000000000000000027f6780",
          "blockHash": "0x0000000000000000000000000000000000000000000000000000000000000000",
          "blockNumber": "0x26e7eda",
          "blockTimestamp": "0x69f05c94",
          "transactionHash": "0x72733ce6880c4863e4ef4bf453052195936a1b744be9b0e6590cbd92c23587b2",
          "transactionIndex": "0x4",
          "logIndex": "0x13",
          "removed": false
        },
        {
          "address": "0x9a52f2522c4d74b874ac27a89b938272327da3db",
          "topics": [
            "0xddf252ad1be2c89b69c2b068fc378daa952ba7f163c4a11628f55a4df523b3ef",
            "0x0000000000000000000000000000000000000000000000000000000000000000",
            "0x000000000000000000000000455ab6723ccab4cb62983710c33f6311cc85bc97"
          ],
          "data": "0x00000000000000000000000000000000000000000000001043561a8829300000",
          "blockHash": "0x0000000000000000000000000000000000000000000000000000000000000000",
          "blockNumber": "0x26e7eda",
          "blockTimestamp": "0x69f05c94",
          "transactionHash": "0x72733ce6880c4863e4ef4bf453052195936a1b744be9b0e6590cbd92c23587b2",
          "transactionIndex": "0x4",
          "logIndex": "0x14",
          "removed": false
        },
        {
          "address": "0x66aa3c0367a5c9dd4c992f6fee35427e4b15063d",
          "topics": [
            "0x0b9c8304b83df3d2827b952a8e4c87faef3556dddcde57a47cb80f0c755606a5",
            "0x000000000000000000000000455ab6723ccab4cb62983710c33f6311cc85bc97",
            "0x000000000000000000000000f286970e2470948abb010b4dd35e1ad2da3397b0"
          ],
          "data": "0x0000000000000000000000000000000000000000000000000000000002932e0000000000000000000000000000000000000000000000001043561a8829300000000000000000000000000000000000000000000000000000000000000000000000000000000000000000000000000000000000000000003635c9adc5dea00000",
          "blockHash": "0x0000000000000000000000000000000000000000000000000000000000000000",
          "blockNumber": "0x26e7eda",
          "blockTimestamp": "0x69f05c94",
          "transactionHash": "0x72733ce6880c4863e4ef4bf453052195936a1b744be9b0e6590cbd92c23587b2",
          "transactionIndex": "0x4",
          "logIndex": "0x15",
          "removed": false
        }
      ],
      "logsBloom": "0x0000000000000000000010000000000000000000000000008000000000000000000000100000000000000000000000000000000000000000000000000000000008020000000040000000220a000010008000001000080001000000000000000000000000020000000000000000000800000000000000000000000010001100000000000000000000000000000002000000000000000000000000000000000000000000000000000000000000000000000000000000000000000000200000000000400002000000020000000000030000000000400000004000000000000020000000000002000000000000000000000000000000000000008000000040000000",
      "type": "0x2",
      "transactionHash": "0x72733ce6880c4863e4ef4bf453052195936a1b744be9b0e6590cbd92c23587b2",
      "transactionIndex": "0x4",
      "blockHash": "0x0000000000000000000000000000000000000000000000000000000000000000",
      "blockNumber": "0x26e7eda",
      "gasUsed": "0x2922f",
      "effectiveGasPrice": "0x5b8d80",
      "blobGasUsed": "0x39d0",
      "from": "0x455ab6723ccab4cb62983710c33f6311cc85bc97",
      "to": "0x66aa3c0367a5c9dd4c992f6fee35427e4b15063d",
      "contractAddress": null,
      "daFootprintGasScalar": "0x94",
      "l1BaseFeeScalar": "0x44d",
      "l1BlobBaseFee": "0x91d40c",
      "l1BlobBaseFeeScalar": "0xa118b",
      "l1Fee": "0x3522ed68",
      "l1GasPrice": "0x8d38e0d",
      "l1GasUsed": "0x640"
    },
    {
      "status": "0x1",
      "cumulativeGasUsed": "0x7afe7",
      "logs": [
        {
          "address": "0x9a52f2522c4d74b874ac27a89b938272327da3db",
          "topics": [
            "0x8c5be1e5ebec7d5bd14f71427d1e84f3dd0314c0f7b2291e5b200ac8c7c3b925",
            "0x000000000000000000000000455ab6723ccab4cb62983710c33f6311cc85bc97",
            "0x000000000000000000000000a141172f70066424f9ccf40822ba8b7f0597fbf6"
          ],
          "data": "0xffffffffffffffffffffffffffffffffffffffffffffffffffffffffffffffff",
          "blockHash": "0x0000000000000000000000000000000000000000000000000000000000000000",
          "blockNumber": "0x26e7edc",
          "blockTimestamp": "0x69f05c98",
          "transactionHash": "0x8fed786aa79e6cc54026ddd165ea5e7b1fc3dd9cf18b2370320973d44d514f3f",
          "transactionIndex": "0x2",
          "logIndex": "0xb",
          "removed": false
        }
      ],
      "logsBloom": "0x00000000000000000000000000000000000000000000000000000000000000000000000000000000000000000000000000000000000000000100000000200000000000000000000000000002000000008000000000000000000000000000004000000000000000000000000000000000000000000000000000000000000100000000000000000000000000000002000000000000000000000000000000000000020000000000000000000000000000000000000000000000000000000000000000000000000000000000000000020000000000000000000000000000000000000010000020000000000000000000000000000000000000008000000000000000",
      "type": "0x2",
      "transactionHash": "0x8fed786aa79e6cc54026ddd165ea5e7b1fc3dd9cf18b2370320973d44d514f3f",
      "transactionIndex": "0x2",
      "blockHash": "0x0000000000000000000000000000000000000000000000000000000000000000",
      "blockNumber": "0x26e7edc",
      "gasUsed": "0xc841",
      "effectiveGasPrice": "0x5b8d80",
      "blobGasUsed": "0x39d0",
      "from": "0x455ab6723ccab4cb62983710c33f6311cc85bc97",
      "to": "0x9a52f2522c4d74b874ac27a89b938272327da3db",
      "contractAddress": null,
      "daFootprintGasScalar": "0x94",
      "l1BaseFeeScalar": "0x44d",
      "l1BlobBaseFee": "0x88561e",
      "l1BlobBaseFeeScalar": "0xa118b",
      "l1Fee": "0x10ed8c3de",
      "l1GasPrice": "0x87ff4a6",
      "l1GasUsed": "0x640"
    },
    {
      "status": "0x1",
      "cumulativeGasUsed": "0x4297c7",
      "logs": [
        {
          "address": "0x9a52f2522c4d74b874ac27a89b938272327da3db",
          "topics": [
            "0xddf252ad1be2c89b69c2b068fc378daa952ba7f163c4a11628f55a4df523b3ef",
            "0x000000000000000000000000455ab6723ccab4cb62983710c33f6311cc85bc97",
            "0x000000000000000000000000a141172f70066424f9ccf40822ba8b7f0597fbf6"
          ],
          "data": "0x00000000000000000000000000000000000000000000001043561a8829300000",
          "blockHash": "0xc1d1d1e372891b2ac4fa62c235c107b1086dd7a147fec46e92b04b1b0d971b82",
          "blockNumber": "0x26e7edd",
          "blockTimestamp": "0x69f05c9a",
          "transactionHash": "0xa4d5f8dc1b020dea2efc98416ff5d0bd3e18dd870c3844f17bb9511339f49a72",
          "transactionIndex": "0xc",
          "logIndex": "0x3c",
          "removed": false
        },
        {
          "address": "0xa141172f70066424f9ccf40822ba8b7f0597fbf6",
          "topics": [
            "0x9cfd25589d1eb8ad71e342a86a8524e83522e3936c0803048c08f6d9ad974f40",
            "0x000000000000000000000000455ab6723ccab4cb62983710c33f6311cc85bc97",
            "0x0000000000000000000000000000000000000000000000000000000000000001"
          ],
          "data": "0x00000000000000000000000000000000000000000000001043561a882930000000000000000000000000000000000000000000000000003635c9adc5dea0000000000000000000000000000000000000000000000000000029a2241af62c0000",
          "blockHash": "0xc1d1d1e372891b2ac4fa62c235c107b1086dd7a147fec46e92b04b1b0d971b82",
          "blockNumber": "0x26e7edd",
          "blockTimestamp": "0x69f05c9a",
          "transactionHash": "0xa4d5f8dc1b020dea2efc98416ff5d0bd3e18dd870c3844f17bb9511339f49a72",
          "transactionIndex": "0xc",
          "logIndex": "0x3d",
          "removed": false
        },
        {
          "address": "0xa141172f70066424f9ccf40822ba8b7f0597fbf6",
          "topics": [
            "0x875894a489de1b1b13bf2e6c03981e3ddabcf1794b4b94dc5ba5d8e855a1e2f9"
          ],
          "data": "0x00000000000000000000000000000000000000000000000029a2241af62c000000000000000000000000000000000000000000000000003635c9adc5dea0000000000000000000000000000000000000000000000000006c6b935b8bbd400000",
          "blockHash": "0xc1d1d1e372891b2ac4fa62c235c107b1086dd7a147fec46e92b04b1b0d971b82",
          "blockNumber": "0x26e7edd",
          "blockTimestamp": "0x69f05c9a",
          "transactionHash": "0xa4d5f8dc1b020dea2efc98416ff5d0bd3e18dd870c3844f17bb9511339f49a72",
          "transactionIndex": "0xc",
          "logIndex": "0x3e",
          "removed": false
        }
      ],
      "logsBloom": "0x0000000000000000000000000000000000000000000000000000000000000000000000000000000000000008000000000000000000000000010800000004000000000000000000000000000a000000008000000000040000000000000000004000000000000000080000000000000000000000000000000000000010000100000000000000000000000000000002000000000000000000000000000000000000000000000000000000000010000000000000000000000000000000000000200000800002000040000000000000020000000000000000000000000000000040000000000020800000000000000000000000000000000000008000000000100000",
      "type": "0x2",
      "transactionHash": "0xa4d5f8dc1b020dea2efc98416ff5d0bd3e18dd870c3844f17bb9511339f49a72",
      "transactionIndex": "0xc",
      "blockHash": "0xc1d1d1e372891b2ac4fa62c235c107b1086dd7a147fec46e92b04b1b0d971b82",
      "blockNumber": "0x26e7edd",
      "gasUsed": "0x4ade9",
      "effectiveGasPrice": "0x5b8d80",
      "blobGasUsed": "0x39d0",
      "from": "0x455ab6723ccab4cb62983710c33f6311cc85bc97",
      "to": "0xa141172f70066424f9ccf40822ba8b7f0597fbf6",
      "contractAddress": null,
      "daFootprintGasScalar": "0x94",
      "l1BaseFeeScalar": "0x44d",
      "l1BlobBaseFee": "0x88561e",
      "l1BlobBaseFeeScalar": "0xa118b",
      "l1Fee": "0x321d558b",
      "l1GasPrice": "0x87ff4a6",
      "l1GasUsed": "0x640"
    }
  ],
  "libraries": [],
  "pending": [],
  "returns": {},
  "timestamp": 1777360026567,
  "chain": 84532,
  "commit": "7d743c5"
}