{
  "transactions": [
    {
      "hash": "0xce58a0ac64e6e4ea1f8ad5d2841b0227a4ab1f7a03398be57e47326d0b75d798",
      "transactionType": "CALL",
      "contractName": null,
      "contractAddress": "0x3fa41528a22645bef478e9ebae83981c02e98f74",
      "function": "setMinSeasonDuration(uint256)",
      "arguments": [
        "1800"
      ],
      "transaction": {
        "from": "0xff6bdef4fb646ee44e29fe8fc0862b02f0ba8a33",
        "to": "0x3fa41528a22645bef478e9ebae83981c02e98f74",
        "gas": "0xc752",
        "value": "0x0",
        "input": "0x4cd9c82d0000000000000000000000000000000000000000000000000000000000000708",
        "nonce": "0x23",
        "chainId": "0x14a34"
      },
      "additionalContracts": [],
      "isFixedGasLimit": false
    },
    {
      "hash": "0x28460842f75e8ca435d493f82a715874f29b08eb684d13e74a0de82002279c68",
      "transactionType": "CALL",
      "contractName": null,
      "contractAddress": "0x3fa41528a22645bef478e9ebae83981c02e98f74",
      "function": "createCampaign((address,string,string,string,string,uint256,uint256,uint256,uint256,uint256,uint256))",
      "arguments": [
        "(0xFF6bdef4fB646EE44e29FE8FC0862B02F0Ba8a33, Olive IGP Sicily, OLIVE, Olive Yield, oYIELD, 144000000000000000, 500000000000000000000, 2000000000000000000000, 1776541170, 1800, 1000000000000000000)"
      ],
      "transaction": {
        "from": "0xff6bdef4fb646ee44e29fe8fc0862b02f0ba8a33",
        "to": "0x3fa41528a22645bef478e9ebae83981c02e98f74",
        "gas": "0x4ba766",
        "value": "0x0",
        "input": "0x7df3f5040000000000000000000000000000000000000000000000000000000000000020000000000000000000000000ff6bdef4fb646ee44e29fe8fc0862b02f0ba8a33000000000000000000000000000000000000000000000000000000000000016000000000000000000000000000000000000000000000000000000000000001a000000000000000000000000000000000000000000000000000000000000001e0000000000000000000000000000000000000000000000000000000000000022000000000000000000000000000000000000000000000000001ff973cafa8000000000000000000000000000000000000000000000000001b1ae4d6e2ef50000000000000000000000000000000000000000000000000006c6b935b8bbd4000000000000000000000000000000000000000000000000000000000000069e3ddf200000000000000000000000000000000000000000000000000000000000007080000000000000000000000000000000000000000000000000de0b6b3a764000000000000000000000000000000000000000000000000000000000000000000104f6c6976652049475020536963696c790000000000000000000000000000000000000000000000000000000000000000000000000000000000000000000000054f4c495645000000000000000000000000000000000000000000000000000000000000000000000000000000000000000000000000000000000000000000000b4f6c697665205969656c6400000000000000000000000000000000000000000000000000000000000000000000000000000000000000000000000000000000066f5949454c440000000000000000000000000000000000000000000000000000",
        "nonce": "0x24",
        "chainId": "0x14a34"
      },
      "additionalContracts": [
        {
          "transactionType": "CREATE",
          "contractName": "TransparentUpgradeableProxy",
          "address": "0xd5bf655644398f0aea2c6c7d5178cf9920afbfd2",
          "initCode": "0x604060a08152610aac8038038061001581610268565b9283398101906060818303126102645761002e8161028d565b60209161003c83820161028d565b8582015190916001600160401b039190828211610264570185601f82011215610264578051908282116101ef5761007b601f8301601f19168701610268565b968288528683830101116102645785905f5b8381106102505750505f918701015284511561023f57823b1561021f577f360894a13ba1a3210667c828492db98dca3e2076cc3735a920a3ca505d382bbc80546001600160a01b03199081166001600160a01b03868116918217909355885192979195907fbc7cd75a20ee27fd9adebab32041f755214dbc6bffa90cc0225b39da2e5c2d3b5f80a28151156102035761012692506102a1565b505b85519161048391828401908111848210176101ef57868492879461062985391681520301905ff080156101e557831691826080527f7e644d79422f17c01e4894b5f4f588d331ebfa28653d42ae832dc59e38c9798f857fb53127684a568b3173ae13b9f8a6016e243e63b6e8ee1178d6a717850b5d6103958587549483519286168352820152a182156101ce5716179055516102f69081610333823960805181600f0152f35b8451633173bdd160e11b81525f6004820152602490fd5b84513d5f823e3d90fd5b634e487b7160e01b5f52604160045260245ffd5b5050346102105750610128565b63b398979f60e01b8152600490fd5b8551634c9c8ce360e01b81526001600160a01b0384166004820152602490fd5b85516330a289cf60e21b8152600490fd5b81810183015189820184015287920161008d565b5f80fd5b6040519190601f01601f191682016001600160401b038111838210176101ef57604052565b51906001600160a01b038216820361026457565b905f8091602081519101845af4808061031f575b156102d55750506040513d81523d5f602083013e60203d82010160405290565b156102fc57604051639996b31560e01b81526001600160a01b039091166004820152602490fd5b3d1561030d576040513d5f823e3d90fd5b60405163d6bda27560e01b8152600490fd5b503d1515806102b55750813b15156102b556fe60806040526001600160a01b03337f000000000000000000000000000000000000000000000000000000000000000082160361006a575f356001600160e01b03191663278f794360e11b14610060576040516334ad5dbb60e21b8152600490fd5b6100686100be565b005b5f80917f360894a13ba1a3210667c828492db98dca3e2076cc3735a920a3ca505d382bbc5416368280378136915af43d5f803e156100a6573d5ff35b3d5ffd5b634e487b7160e01b5f52604160045260245ffd5b3660041161015f57604036600319011261015f576004356001600160a01b0381169081900361015f576024359067ffffffffffffffff9081831161015f573660238401121561015f5782600401358281116101635760405192601f8201601f19908116603f011684019081118482101761016357604052808352366024828601011161015f576020815f92602461015d97018387013784010152610168565b565b5f80fd5b6100aa565b90813b156101ff577f360894a13ba1a3210667c828492db98dca3e2076cc3735a920a3ca505d382bbc80546001600160a01b0319166001600160a01b0384169081179091557fbc7cd75a20ee27fd9adebab32041f755214dbc6bffa90cc0225b39da2e5c2d3b5f80a28051156101e4576101e191610220565b50565b5050346101ed57565b60405163b398979f60e01b8152600490fd5b604051634c9c8ce360e01b81526001600160a01b0383166004820152602490fd5b905f8091602081519101845af48080610289575b156102465750506102436102a7565b90565b1561026e57604051639996b31560e01b81526001600160a01b03919091166004820152602490fd5b3d15155f0361029c5760405163d6bda27560e01b8152600490fd5b503d1515806102345750813b1515610234565b6040513d5f823e3d90fd5b604051903d82523d5f602084013e60203d83010160405256fea2646970667358221220371437a14d55b0192ed17af74450cdb0b22bf1f3d480185986e4348c96e968d064736f6c634300081800336080346100b957601f61048338819003918201601f19168301916001600160401b038311848410176100bd578084926020946040528339810103126100b957516001600160a01b0390818116908190036100b95780156100a1575f80546001600160a01b03198116831782556040519316907f8be0079c531659141344cd1fd0a4f28419497f9722a3daafe3b4186f6b6457e09080a36103b190816100d28239f35b604051631e4fbdf760e01b81525f6004820152602490fd5b5f80fd5b634e487b7160e01b5f52604160045260245ffdfe604060808152600480361015610013575f80fd5b5f915f3560e01c8063715018a6146102bb5780638da5cb5b146102945780639623609d1461015c578063ad3cb1cc146100eb5763f2fde38b14610054575f80fd5b346100e75760203660031901126100e7576001600160a01b038235818116939192908490036100e357610085610350565b83156100cd5750505f54826bffffffffffffffffffffffff60a01b8216175f55167f8be0079c531659141344cd1fd0a4f28419497f9722a3daafe3b4186f6b6457e05f80a380f35b51631e4fbdf760e01b8152908101849052602490fd5b5f80fd5b8280fd5b5082346101595780600319360112610159575080519080820182811067ffffffffffffffff821117610146576101429350815260058252640352e302e360dc1b602083015251918291602083526020830190610312565b0390f35b604184634e487b7160e01b5f525260245ffd5b80fd5b5060603660031901126100e3576001600160a01b03823581811693908490036100e35760249182359081168091036100e35767ffffffffffffffff906044358281116100e357366023820112156100e3578084013583811161028257865191601f8201601f19908116603f0116830185811184821017610270578852818352368783830101116100e357815f92886020930183860137830101526101fe610350565b863b156100e357610230965f92875180998194829363278f794360e11b8452898401528a8a8401526044830190610312565b039134905af1801561026657610244578580f35b909192938095501161025557505052005b604190634e487b7160e01b5f52525ffd5b84513d5f823e3d90fd5b87604188634e487b7160e01b5f52525ffd5b85604186634e487b7160e01b5f52525ffd5b50346100e3575f3660031901126100e3575f5490516001600160a01b039091168152602090f35b346100e3575f3660031901126100e3576102d3610350565b5f80546001600160a01b0319811682556001600160a01b03167f8be0079c531659141344cd1fd0a4f28419497f9722a3daafe3b4186f6b6457e08280a3005b91908251928382525f5b84811061033c575050825f602080949584010152601f8019910116010190565b60208183018101518483018201520161031c565b5f546001600160a01b0316330361036357565b60405163118cdaa760e01b8152336004820152602490fdfea26469706673582212202992a71449476404159c12582e1f3d5c014ae92bc1369e2e03b37152567a3c7d64736f6c6343000818003300000000000000000000000061afa5fdfb09b465dafc5b868e186dec832de945000000000000000000000000ff6bdef4fb646ee44e29fe8fc0862b02f0ba8a3300000000000000000000000000000000000000000000000000000000000000600000000000000000000000000000000000000000000000000000000000000144fc9c968e000000000000000000000000ff6bdef4fb646ee44e29fe8fc0862b02f0ba8a330000000000000000000000003fa41528a22645bef478e9ebae83981c02e98f7400000000000000000000000000000000000000000000000001ff973cafa8000000000000000000000000000000000000000000000000001b1ae4d6e2ef50000000000000000000000000000000000000000000000000006c6b935b8bbd4000000000000000000000000000000000000000000000000000000000000069e3ddf2000000000000000000000000000000000000000000000000000000000000070800000000000000000000000000000000000000000000000000000000000000c8000000000000000000000000ff6bdef4fb646ee44e29fe8fc0862b02f0ba8a33000000000000000000000000000000000000000000000000000000000000000000000000000000000000000000000000000000000000000000000000"
        },
        {
          "transactionType": "CREATE",
          "contractName": "ProxyAdmin",
          "address": "0x17a731ea6bd64bcbb5f624743031eaf08b8d62d8",
          "initCode": "0x6080346100b957601f61048338819003918201601f19168301916001600160401b038311848410176100bd578084926020946040528339810103126100b957516001600160a01b0390818116908190036100b95780156100a1575f80546001600160a01b03198116831782556040519316907f8be0079c531659141344cd1fd0a4f28419497f9722a3daafe3b4186f6b6457e09080a36103b190816100d28239f35b604051631e4fbdf760e01b81525f6004820152602490fd5b5f80fd5b634e487b7160e01b5f52604160045260245ffdfe604060808152600480361015610013575f80fd5b5f915f3560e01c8063715018a6146102bb5780638da5cb5b146102945780639623609d1461015c578063ad3cb1cc146100eb5763f2fde38b14610054575f80fd5b346100e75760203660031901126100e7576001600160a01b038235818116939192908490036100e357610085610350565b83156100cd5750505f54826bffffffffffffffffffffffff60a01b8216175f55167f8be0079c531659141344cd1fd0a4f28419497f9722a3daafe3b4186f6b6457e05f80a380f35b51631e4fbdf760e01b8152908101849052602490fd5b5f80fd5b8280fd5b5082346101595780600319360112610159575080519080820182811067ffffffffffffffff821117610146576101429350815260058252640352e302e360dc1b602083015251918291602083526020830190610312565b0390f35b604184634e487b7160e01b5f525260245ffd5b80fd5b5060603660031901126100e3576001600160a01b03823581811693908490036100e35760249182359081168091036100e35767ffffffffffffffff906044358281116100e357366023820112156100e3578084013583811161028257865191601f8201601f19908116603f0116830185811184821017610270578852818352368783830101116100e357815f92886020930183860137830101526101fe610350565b863b156100e357610230965f92875180998194829363278f794360e11b8452898401528a8a8401526044830190610312565b039134905af1801561026657610244578580f35b909192938095501161025557505052005b604190634e487b7160e01b5f52525ffd5b84513d5f823e3d90fd5b87604188634e487b7160e01b5f52525ffd5b85604186634e487b7160e01b5f52525ffd5b50346100e3575f3660031901126100e3575f5490516001600160a01b039091168152602090f35b346100e3575f3660031901126100e3576102d3610350565b5f80546001600160a01b0319811682556001600160a01b03167f8be0079c531659141344cd1fd0a4f28419497f9722a3daafe3b4186f6b6457e08280a3005b91908251928382525f5b84811061033c575050825f602080949584010152601f8019910116010190565b60208183018101518483018201520161031c565b5f546001600160a01b0316330361036357565b60405163118cdaa760e01b8152336004820152602490fdfea26469706673582212202992a71449476404159c12582e1f3d5c014ae92bc1369e2e03b37152567a3c7d64736f6c63430008180033000000000000000000000000ff6bdef4fb646ee44e29fe8fc0862b02f0ba8a33"
        },
        {
          "transactionType": "CREATE",
          "contractName": "TransparentUpgradeableProxy",
          "address": "0xbb2ba6eefda0c56e7501f4834b871df59945e3bb",
          "initCode": "0x604060a08152610aac8038038061001581610268565b9283398101906060818303126102645761002e8161028d565b60209161003c83820161028d565b8582015190916001600160401b039190828211610264570185601f82011215610264578051908282116101ef5761007b601f8301601f19168701610268565b968288528683830101116102645785905f5b8381106102505750505f918701015284511561023f57823b1561021f577f360894a13ba1a3210667c828492db98dca3e2076cc3735a920a3ca505d382bbc80546001600160a01b03199081166001600160a01b03868116918217909355885192979195907fbc7cd75a20ee27fd9adebab32041f755214dbc6bffa90cc0225b39da2e5c2d3b5f80a28151156102035761012692506102a1565b505b85519161048391828401908111848210176101ef57868492879461062985391681520301905ff080156101e557831691826080527f7e644d79422f17c01e4894b5f4f588d331ebfa28653d42ae832dc59e38c9798f857fb53127684a568b3173ae13b9f8a6016e243e63b6e8ee1178d6a717850b5d6103958587549483519286168352820152a182156101ce5716179055516102f69081610333823960805181600f0152f35b8451633173bdd160e11b81525f6004820152602490fd5b84513d5f823e3d90fd5b634e487b7160e01b5f52604160045260245ffd5b5050346102105750610128565b63b398979f60e01b8152600490fd5b8551634c9c8ce360e01b81526001600160a01b0384166004820152602490fd5b85516330a289cf60e21b8152600490fd5b81810183015189820184015287920161008d565b5f80fd5b6040519190601f01601f191682016001600160401b038111838210176101ef57604052565b51906001600160a01b038216820361026457565b905f8091602081519101845af4808061031f575b156102d55750506040513d81523d5f602083013e60203d82010160405290565b156102fc57604051639996b31560e01b81526001600160a01b039091166004820152602490fd5b3d1561030d576040513d5f823e3d90fd5b60405163d6bda27560e01b8152600490fd5b503d1515806102b55750813b15156102b556fe60806040526001600160a01b03337f000000000000000000000000000000000000000000000000000000000000000082160361006a575f356001600160e01b03191663278f794360e11b14610060576040516334ad5dbb60e21b8152600490fd5b6100686100be565b005b5f80917f360894a13ba1a3210667c828492db98dca3e2076cc3735a920a3ca505d382bbc5416368280378136915af43d5f803e156100a6573d5ff35b3d5ffd5b634e487b7160e01b5f52604160045260245ffd5b3660041161015f57604036600319011261015f576004356001600160a01b0381169081900361015f576024359067ffffffffffffffff9081831161015f573660238401121561015f5782600401358281116101635760405192601f8201601f19908116603f011684019081118482101761016357604052808352366024828601011161015f576020815f92602461015d97018387013784010152610168565b565b5f80fd5b6100aa565b90813b156101ff577f360894a13ba1a3210667c828492db98dca3e2076cc3735a920a3ca505d382bbc80546001600160a01b0319166001600160a01b0384169081179091557fbc7cd75a20ee27fd9adebab32041f755214dbc6bffa90cc0225b39da2e5c2d3b5f80a28051156101e4576101e191610220565b50565b5050346101ed57565b60405163b398979f60e01b8152600490fd5b604051634c9c8ce360e01b81526001600160a01b0383166004820152602490fd5b905f8091602081519101845af48080610289575b156102465750506102436102a7565b90565b1561026e57604051639996b31560e01b81526001600160a01b03919091166004820152602490fd5b3d15155f0361029c5760405163d6bda27560e01b8152600490fd5b503d1515806102345750813b1515610234565b6040513d5f823e3d90fd5b604051903d82523d5f602084013e60203d83010160405256fea2646970667358221220371437a14d55b0192ed17af74450cdb0b22bf1f3d480185986e4348c96e968d064736f6c634300081800336080346100b957601f61048338819003918201601f19168301916001600160401b038311848410176100bd578084926020946040528339810103126100b957516001600160a01b0390818116908190036100b95780156100a1575f80546001600160a01b03198116831782556040519316907f8be0079c531659141344cd1fd0a4f28419497f9722a3daafe3b4186f6b6457e09080a36103b190816100d28239f35b604051631e4fbdf760e01b81525f6004820152602490fd5b5f80fd5b634e487b7160e01b5f52604160045260245ffdfe604060808152600480361015610013575f80fd5b5f915f3560e01c8063715018a6146102bb5780638da5cb5b146102945780639623609d1461015c578063ad3cb1cc146100eb5763f2fde38b14610054575f80fd5b346100e75760203660031901126100e7576001600160a01b038235818116939192908490036100e357610085610350565b83156100cd5750505f54826bffffffffffffffffffffffff60a01b8216175f55167f8be0079c531659141344cd1fd0a4f28419497f9722a3daafe3b4186f6b6457e05f80a380f35b51631e4fbdf760e01b8152908101849052602490fd5b5f80fd5b8280fd5b5082346101595780600319360112610159575080519080820182811067ffffffffffffffff821117610146576101429350815260058252640352e302e360dc1b602083015251918291602083526020830190610312565b0390f35b604184634e487b7160e01b5f525260245ffd5b80fd5b5060603660031901126100e3576001600160a01b03823581811693908490036100e35760249182359081168091036100e35767ffffffffffffffff906044358281116100e357366023820112156100e3578084013583811161028257865191601f8201601f19908116603f0116830185811184821017610270578852818352368783830101116100e357815f92886020930183860137830101526101fe610350565b863b156100e357610230965f92875180998194829363278f794360e11b8452898401528a8a8401526044830190610312565b039134905af1801561026657610244578580f35b909192938095501161025557505052005b604190634e487b7160e01b5f52525ffd5b84513d5f823e3d90fd5b87604188634e487b7160e01b5f52525ffd5b85604186634e487b7160e01b5f52525ffd5b50346100e3575f3660031901126100e3575f5490516001600160a01b039091168152602090f35b346100e3575f3660031901126100e3576102d3610350565b5f80546001600160a01b0319811682556001600160a01b03167f8be0079c531659141344cd1fd0a4f28419497f9722a3daafe3b4186f6b6457e08280a3005b91908251928382525f5b84811061033c575050825f602080949584010152601f8019910116010190565b60208183018101518483018201520161031c565b5f546001600160a01b0316330361036357565b60405163118cdaa760e01b8152336004820152602490fdfea26469706673582212202992a71449476404159c12582e1f3d5c014ae92bc1369e2e03b37152567a3c7d64736f6c634300081800330000000000000000000000000dbe11ad9c2bf4126fe8d422e7374de47600a2ca000000000000000000000000ff6bdef4fb646ee44e29fe8fc0862b02f0ba8a33000000000000000000000000000000000000000000000000000000000000006000000000000000000000000000000000000000000000000000000000000000e4077f224a000000000000000000000000000000000000000000000000000000000000006000000000000000000000000000000000000000000000000000000000000000a0000000000000000000000000d5bf655644398f0aea2c6c7d5178cf9920afbfd200000000000000000000000000000000000000000000000000000000000000104f6c6976652049475020536963696c790000000000000000000000000000000000000000000000000000000000000000000000000000000000000000000000054f4c49564500000000000000000000000000000000000000000000000000000000000000000000000000000000000000000000000000000000000000"
        },
        {
          "transactionType": "CREATE",
          "contractName": "ProxyAdmin",
          "address": "0x0a140b1f6861eba0a078839952766746ee4fd333",
          "initCode": "0x6080346100b957601f61048338819003918201601f19168301916001600160401b038311848410176100bd578084926020946040528339810103126100b957516001600160a01b0390818116908190036100b95780156100a1575f80546001600160a01b03198116831782556040519316907f8be0079c531659141344cd1fd0a4f28419497f9722a3daafe3b4186f6b6457e09080a36103b190816100d28239f35b604051631e4fbdf760e01b81525f6004820152602490fd5b5f80fd5b634e487b7160e01b5f52604160045260245ffdfe604060808152600480361015610013575f80fd5b5f915f3560e01c8063715018a6146102bb5780638da5cb5b146102945780639623609d1461015c578063ad3cb1cc146100eb5763f2fde38b14610054575f80fd5b346100e75760203660031901126100e7576001600160a01b038235818116939192908490036100e357610085610350565b83156100cd5750505f54826bffffffffffffffffffffffff60a01b8216175f55167f8be0079c531659141344cd1fd0a4f28419497f9722a3daafe3b4186f6b6457e05f80a380f35b51631e4fbdf760e01b8152908101849052602490fd5b5f80fd5b8280fd5b5082346101595780600319360112610159575080519080820182811067ffffffffffffffff821117610146576101429350815260058252640352e302e360dc1b602083015251918291602083526020830190610312565b0390f35b604184634e487b7160e01b5f525260245ffd5b80fd5b5060603660031901126100e3576001600160a01b03823581811693908490036100e35760249182359081168091036100e35767ffffffffffffffff906044358281116100e357366023820112156100e3578084013583811161028257865191601f8201601f19908116603f0116830185811184821017610270578852818352368783830101116100e357815f92886020930183860137830101526101fe610350565b863b156100e357610230965f92875180998194829363278f794360e11b8452898401528a8a8401526044830190610312565b039134905af1801561026657610244578580f35b909192938095501161025557505052005b604190634e487b7160e01b5f52525ffd5b84513d5f823e3d90fd5b87604188634e487b7160e01b5f52525ffd5b85604186634e487b7160e01b5f52525ffd5b50346100e3575f3660031901126100e3575f5490516001600160a01b039091168152602090f35b346100e3575f3660031901126100e3576102d3610350565b5f80546001600160a01b0319811682556001600160a01b03167f8be0079c531659141344cd1fd0a4f28419497f9722a3daafe3b4186f6b6457e08280a3005b91908251928382525f5b84811061033c575050825f602080949584010152601f8019910116010190565b60208183018101518483018201520161031c565b5f546001600160a01b0316330361036357565b60405163118cdaa760e01b8152336004820152602490fdfea26469706673582212202992a71449476404159c12582e1f3d5c014ae92bc1369e2e03b37152567a3c7d64736f6c63430008180033000000000000000000000000ff6bdef4fb646ee44e29fe8fc0862b02f0ba8a33"
        },
        {
          "transactionType": "CREATE",
          "contractName": "TransparentUpgradeableProxy",
          "address": "0xfc76be90153b5f834b8ebc15e18a339e50083cfb",
          "initCode": "0x604060a08152610aac8038038061001581610268565b9283398101906060818303126102645761002e8161028d565b60209161003c83820161028d565b8582015190916001600160401b039190828211610264570185601f82011215610264578051908282116101ef5761007b601f8301601f19168701610268565b968288528683830101116102645785905f5b8381106102505750505f918701015284511561023f57823b1561021f577f360894a13ba1a3210667c828492db98dca3e2076cc3735a920a3ca505d382bbc80546001600160a01b03199081166001600160a01b03868116918217909355885192979195907fbc7cd75a20ee27fd9adebab32041f755214dbc6bffa90cc0225b39da2e5c2d3b5f80a28151156102035761012692506102a1565b505b85519161048391828401908111848210176101ef57868492879461062985391681520301905ff080156101e557831691826080527f7e644d79422f17c01e4894b5f4f588d331ebfa28653d42ae832dc59e38c9798f857fb53127684a568b3173ae13b9f8a6016e243e63b6e8ee1178d6a717850b5d6103958587549483519286168352820152a182156101ce5716179055516102f69081610333823960805181600f0152f35b8451633173bdd160e11b81525f6004820152602490fd5b84513d5f823e3d90fd5b634e487b7160e01b5f52604160045260245ffd5b5050346102105750610128565b63b398979f60e01b8152600490fd5b8551634c9c8ce360e01b81526001600160a01b0384166004820152602490fd5b85516330a289cf60e21b8152600490fd5b81810183015189820184015287920161008d565b5f80fd5b6040519190601f01601f191682016001600160401b038111838210176101ef57604052565b51906001600160a01b038216820361026457565b905f8091602081519101845af4808061031f575b156102d55750506040513d81523d5f602083013e60203d82010160405290565b156102fc57604051639996b31560e01b81526001600160a01b039091166004820152602490fd5b3d1561030d576040513d5f823e3d90fd5b60405163d6bda27560e01b8152600490fd5b503d1515806102b55750813b15156102b556fe60806040526001600160a01b03337f000000000000000000000000000000000000000000000000000000000000000082160361006a575f356001600160e01b03191663278f794360e11b14610060576040516334ad5dbb60e21b8152600490fd5b6100686100be565b005b5f80917f360894a13ba1a3210667c828492db98dca3e2076cc3735a920a3ca505d382bbc5416368280378136915af43d5f803e156100a6573d5ff35b3d5ffd5b634e487b7160e01b5f52604160045260245ffd5b3660041161015f57604036600319011261015f576004356001600160a01b0381169081900361015f576024359067ffffffffffffffff9081831161015f573660238401121561015f5782600401358281116101635760405192601f8201601f19908116603f011684019081118482101761016357604052808352366024828601011161015f576020815f92602461015d97018387013784010152610168565b565b5f80fd5b6100aa565b90813b156101ff577f360894a13ba1a3210667c828492db98dca3e2076cc3735a920a3ca505d382bbc80546001600160a01b0319166001600160a01b0384169081179091557fbc7cd75a20ee27fd9adebab32041f755214dbc6bffa90cc0225b39da2e5c2d3b5f80a28051156101e4576101e191610220565b50565b5050346101ed57565b60405163b398979f60e01b8152600490fd5b604051634c9c8ce360e01b81526001600160a01b0383166004820152602490fd5b905f8091602081519101845af48080610289575b156102465750506102436102a7565b90565b1561026e57604051639996b31560e01b81526001600160a01b03919091166004820152602490fd5b3d15155f0361029c5760405163d6bda27560e01b8152600490fd5b503d1515806102345750813b1515610234565b6040513d5f823e3d90fd5b604051903d82523d5f602084013e60203d83010160405256fea2646970667358221220371437a14d55b0192ed17af74450cdb0b22bf1f3d480185986e4348c96e968d064736f6c634300081800336080346100b957601f61048338819003918201601f19168301916001600160401b038311848410176100bd578084926020946040528339810103126100b957516001600160a01b0390818116908190036100b95780156100a1575f80546001600160a01b03198116831782556040519316907f8be0079c531659141344cd1fd0a4f28419497f9722a3daafe3b4186f6b6457e09080a36103b190816100d28239f35b604051631e4fbdf760e01b81525f6004820152602490fd5b5f80fd5b634e487b7160e01b5f52604160045260245ffdfe604060808152600480361015610013575f80fd5b5f915f3560e01c8063715018a6146102bb5780638da5cb5b146102945780639623609d1461015c578063ad3cb1cc146100eb5763f2fde38b14610054575f80fd5b346100e75760203660031901126100e7576001600160a01b038235818116939192908490036100e357610085610350565b83156100cd5750505f54826bffffffffffffffffffffffff60a01b8216175f55167f8be0079c531659141344cd1fd0a4f28419497f9722a3daafe3b4186f6b6457e05f80a380f35b51631e4fbdf760e01b8152908101849052602490fd5b5f80fd5b8280fd5b5082346101595780600319360112610159575080519080820182811067ffffffffffffffff821117610146576101429350815260058252640352e302e360dc1b602083015251918291602083526020830190610312565b0390f35b604184634e487b7160e01b5f525260245ffd5b80fd5b5060603660031901126100e3576001600160a01b03823581811693908490036100e35760249182359081168091036100e35767ffffffffffffffff906044358281116100e357366023820112156100e3578084013583811161028257865191601f8201601f19908116603f0116830185811184821017610270578852818352368783830101116100e357815f92886020930183860137830101526101fe610350565b863b156100e357610230965f92875180998194829363278f794360e11b8452898401528a8a8401526044830190610312565b039134905af1801561026657610244578580f35b909192938095501161025557505052005b604190634e487b7160e01b5f52525ffd5b84513d5f823e3d90fd5b87604188634e487b7160e01b5f52525ffd5b85604186634e487b7160e01b5f52525ffd5b50346100e3575f3660031901126100e3575f5490516001600160a01b039091168152602090f35b346100e3575f3660031901126100e3576102d3610350565b5f80546001600160a01b0319811682556001600160a01b03167f8be0079c531659141344cd1fd0a4f28419497f9722a3daafe3b4186f6b6457e08280a3005b91908251928382525f5b84811061033c575050825f602080949584010152601f8019910116010190565b60208183018101518483018201520161031c565b5f546001600160a01b0316330361036357565b60405163118cdaa760e01b8152336004820152602490fdfea26469706673582212202992a71449476404159c12582e1f3d5c014ae92bc1369e2e03b37152567a3c7d64736f6c6343000818003300000000000000000000000081c4e22ec9198f2983217c483e4027cf49e940db000000000000000000000000ff6bdef4fb646ee44e29fe8fc0862b02f0ba8a33000000000000000000000000000000000000000000000000000000000000006000000000000000000000000000000000000000000000000000000000000000a4a6b63eb8000000000000000000000000bb2ba6eefda0c56e7501f4834b871df59945e3bb000000000000000000000000d5bf655644398f0aea2c6c7d5178cf9920afbfd20000000000000000000000003fa41528a22645bef478e9ebae83981c02e98f7400000000000000000000000000000000000000000000006c6b935b8bbd400000000000000000000000000000000000000000000000000000000000000000070800000000000000000000000000000000000000000000000000000000"
        },
        {
          "transactionType": "CREATE",
          "contractName": "ProxyAdmin",
          "address": "0x9ef0677ee1aaaa27ce136c36f3d8d2dbaf73ac70",
          "initCode": "0x6080346100b957601f61048338819003918201601f19168301916001600160401b038311848410176100bd578084926020946040528339810103126100b957516001600160a01b0390818116908190036100b95780156100a1575f80546001600160a01b03198116831782556040519316907f8be0079c531659141344cd1fd0a4f28419497f9722a3daafe3b4186f6b6457e09080a36103b190816100d28239f35b604051631e4fbdf760e01b81525f6004820152602490fd5b5f80fd5b634e487b7160e01b5f52604160045260245ffdfe604060808152600480361015610013575f80fd5b5f915f3560e01c8063715018a6146102bb5780638da5cb5b146102945780639623609d1461015c578063ad3cb1cc146100eb5763f2fde38b14610054575f80fd5b346100e75760203660031901126100e7576001600160a01b038235818116939192908490036100e357610085610350565b83156100cd5750505f54826bffffffffffffffffffffffff60a01b8216175f55167f8be0079c531659141344cd1fd0a4f28419497f9722a3daafe3b4186f6b6457e05f80a380f35b51631e4fbdf760e01b8152908101849052602490fd5b5f80fd5b8280fd5b5082346101595780600319360112610159575080519080820182811067ffffffffffffffff821117610146576101429350815260058252640352e302e360dc1b602083015251918291602083526020830190610312565b0390f35b604184634e487b7160e01b5f525260245ffd5b80fd5b5060603660031901126100e3576001600160a01b03823581811693908490036100e35760249182359081168091036100e35767ffffffffffffffff906044358281116100e357366023820112156100e3578084013583811161028257865191601f8201601f19908116603f0116830185811184821017610270578852818352368783830101116100e357815f92886020930183860137830101526101fe610350565b863b156100e357610230965f92875180998194829363278f794360e11b8452898401528a8a8401526044830190610312565b039134905af1801561026657610244578580f35b909192938095501161025557505052005b604190634e487b7160e01b5f52525ffd5b84513d5f823e3d90fd5b87604188634e487b7160e01b5f52525ffd5b85604186634e487b7160e01b5f52525ffd5b50346100e3575f3660031901126100e3575f5490516001600160a01b039091168152602090f35b346100e3575f3660031901126100e3576102d3610350565b5f80546001600160a01b0319811682556001600160a01b03167f8be0079c531659141344cd1fd0a4f28419497f9722a3daafe3b4186f6b6457e08280a3005b91908251928382525f5b84811061033c575050825f602080949584010152601f8019910116010190565b60208183018101518483018201520161031c565b5f546001600160a01b0316330361036357565b60405163118cdaa760e01b8152336004820152602490fdfea26469706673582212202992a71449476404159c12582e1f3d5c014ae92bc1369e2e03b37152567a3c7d64736f6c63430008180033000000000000000000000000ff6bdef4fb646ee44e29fe8fc0862b02f0ba8a33"
        },
        {
          "transactionType": "CREATE",
          "contractName": "TransparentUpgradeableProxy",
          "address": "0xadf3b6935598f029acd2afbcecb8ee4b82d83ebd",
          "initCode": "0x604060a08152610aac8038038061001581610268565b9283398101906060818303126102645761002e8161028d565b60209161003c83820161028d565b8582015190916001600160401b039190828211610264570185601f82011215610264578051908282116101ef5761007b601f8301601f19168701610268565b968288528683830101116102645785905f5b8381106102505750505f918701015284511561023f57823b1561021f577f360894a13ba1a3210667c828492db98dca3e2076cc3735a920a3ca505d382bbc80546001600160a01b03199081166001600160a01b03868116918217909355885192979195907fbc7cd75a20ee27fd9adebab32041f755214dbc6bffa90cc0225b39da2e5c2d3b5f80a28151156102035761012692506102a1565b505b85519161048391828401908111848210176101ef57868492879461062985391681520301905ff080156101e557831691826080527f7e644d79422f17c01e4894b5f4f588d331ebfa28653d42ae832dc59e38c9798f857fb53127684a568b3173ae13b9f8a6016e243e63b6e8ee1178d6a717850b5d6103958587549483519286168352820152a182156101ce5716179055516102f69081610333823960805181600f0152f35b8451633173bdd160e11b81525f6004820152602490fd5b84513d5f823e3d90fd5b634e487b7160e01b5f52604160045260245ffd5b5050346102105750610128565b63b398979f60e01b8152600490fd5b8551634c9c8ce360e01b81526001600160a01b0384166004820152602490fd5b85516330a289cf60e21b8152600490fd5b81810183015189820184015287920161008d565b5f80fd5b6040519190601f01601f191682016001600160401b038111838210176101ef57604052565b51906001600160a01b038216820361026457565b905f8091602081519101845af4808061031f575b156102d55750506040513d81523d5f602083013e60203d82010160405290565b156102fc57604051639996b31560e01b81526001600160a01b039091166004820152602490fd5b3d1561030d576040513d5f823e3d90fd5b60405163d6bda27560e01b8152600490fd5b503d1515806102b55750813b15156102b556fe60806040526001600160a01b03337f000000000000000000000000000000000000000000000000000000000000000082160361006a575f356001600160e01b03191663278f794360e11b14610060576040516334ad5dbb60e21b8152600490fd5b6100686100be565b005b5f80917f360894a13ba1a3210667c828492db98dca3e2076cc3735a920a3ca505d382bbc5416368280378136915af43d5f803e156100a6573d5ff35b3d5ffd5b634e487b7160e01b5f52604160045260245ffd5b3660041161015f57604036600319011261015f576004356001600160a01b0381169081900361015f576024359067ffffffffffffffff9081831161015f573660238401121561015f5782600401358281116101635760405192601f8201601f19908116603f011684019081118482101761016357604052808352366024828601011161015f576020815f92602461015d97018387013784010152610168565b565b5f80fd5b6100aa565b90813b156101ff577f360894a13ba1a3210667c828492db98dca3e2076cc3735a920a3ca505d382bbc80546001600160a01b0319166001600160a01b0384169081179091557fbc7cd75a20ee27fd9adebab32041f755214dbc6bffa90cc0225b39da2e5c2d3b5f80a28051156101e4576101e191610220565b50565b5050346101ed57565b60405163b398979f60e01b8152600490fd5b604051634c9c8ce360e01b81526001600160a01b0383166004820152602490fd5b905f8091602081519101845af48080610289575b156102465750506102436102a7565b90565b1561026e57604051639996b31560e01b81526001600160a01b03919091166004820152602490fd5b3d15155f0361029c5760405163d6bda27560e01b8152600490fd5b503d1515806102345750813b1515610234565b6040513d5f823e3d90fd5b604051903d82523d5f602084013e60203d83010160405256fea2646970667358221220371437a14d55b0192ed17af74450cdb0b22bf1f3d480185986e4348c96e968d064736f6c634300081800336080346100b957601f61048338819003918201601f19168301916001600160401b038311848410176100bd578084926020946040528339810103126100b957516001600160a01b0390818116908190036100b95780156100a1575f80546001600160a01b03198116831782556040519316907f8be0079c531659141344cd1fd0a4f28419497f9722a3daafe3b4186f6b6457e09080a36103b190816100d28239f35b604051631e4fbdf760e01b81525f6004820152602490fd5b5f80fd5b634e487b7160e01b5f52604160045260245ffdfe604060808152600480361015610013575f80fd5b5f915f3560e01c8063715018a6146102bb5780638da5cb5b146102945780639623609d1461015c578063ad3cb1cc146100eb5763f2fde38b14610054575f80fd5b346100e75760203660031901126100e7576001600160a01b038235818116939192908490036100e357610085610350565b83156100cd5750505f54826bffffffffffffffffffffffff60a01b8216175f55167f8be0079c531659141344cd1fd0a4f28419497f9722a3daafe3b4186f6b6457e05f80a380f35b51631e4fbdf760e01b8152908101849052602490fd5b5f80fd5b8280fd5b5082346101595780600319360112610159575080519080820182811067ffffffffffffffff821117610146576101429350815260058252640352e302e360dc1b602083015251918291602083526020830190610312565b0390f35b604184634e487b7160e01b5f525260245ffd5b80fd5b5060603660031901126100e3576001600160a01b03823581811693908490036100e35760249182359081168091036100e35767ffffffffffffffff906044358281116100e357366023820112156100e3578084013583811161028257865191601f8201601f19908116603f0116830185811184821017610270578852818352368783830101116100e357815f92886020930183860137830101526101fe610350565b863b156100e357610230965f92875180998194829363278f794360e11b8452898401528a8a8401526044830190610312565b039134905af1801561026657610244578580f35b909192938095501161025557505052005b604190634e487b7160e01b5f52525ffd5b84513d5f823e3d90fd5b87604188634e487b7160e01b5f52525ffd5b85604186634e487b7160e01b5f52525ffd5b50346100e3575f3660031901126100e3575f5490516001600160a01b039091168152602090f35b346100e3575f3660031901126100e3576102d3610350565b5f80546001600160a01b0319811682556001600160a01b03167f8be0079c531659141344cd1fd0a4f28419497f9722a3daafe3b4186f6b6457e08280a3005b91908251928382525f5b84811061033c575050825f602080949584010152601f8019910116010190565b60208183018101518483018201520161031c565b5f546001600160a01b0316330361036357565b60405163118cdaa760e01b8152336004820152602490fdfea26469706673582212202992a71449476404159c12582e1f3d5c014ae92bc1369e2e03b37152567a3c7d64736f6c634300081800330000000000000000000000008d434e38dd91d9b738f8803dbd18b815720bedad000000000000000000000000ff6bdef4fb646ee44e29fe8fc0862b02f0ba8a33000000000000000000000000000000000000000000000000000000000000006000000000000000000000000000000000000000000000000000000000000000c4d7c41c7900000000000000000000000032c344dc9713d904442d0e5b0d2b7994e52b0d4e000000000000000000000000ff6bdef4fb646ee44e29fe8fc0862b02f0ba8a330000000000000000000000003fa41528a22645bef478e9ebae83981c02e98f74000000000000000000000000ff6bdef4fb646ee44e29fe8fc0862b02f0ba8a3300000000000000000000000000000000000000000000000000000000000000c80000000000000000000000000000000000000000000000000de0b6b3a764000000000000000000000000000000000000000000000000000000000000"
        },
        {
          "transactionType": "CREATE",
          "contractName": "ProxyAdmin",
          "address": "0x587c362d0b7020dc04ca948d3276f19ce96ccf3d",
          "initCode": "0x6080346100b957601f61048338819003918201601f19168301916001600160401b038311848410176100bd578084926020946040528339810103126100b957516001600160a01b0390818116908190036100b95780156100a1575f80546001600160a01b03198116831782556040519316907f8be0079c531659141344cd1fd0a4f28419497f9722a3daafe3b4186f6b6457e09080a36103b190816100d28239f35b604051631e4fbdf760e01b81525f6004820152602490fd5b5f80fd5b634e487b7160e01b5f52604160045260245ffdfe604060808152600480361015610013575f80fd5b5f915f3560e01c8063715018a6146102bb5780638da5cb5b146102945780639623609d1461015c578063ad3cb1cc146100eb5763f2fde38b14610054575f80fd5b346100e75760203660031901126100e7576001600160a01b038235818116939192908490036100e357610085610350565b83156100cd5750505f54826bffffffffffffffffffffffff60a01b8216175f55167f8be0079c531659141344cd1fd0a4f28419497f9722a3daafe3b4186f6b6457e05f80a380f35b51631e4fbdf760e01b8152908101849052602490fd5b5f80fd5b8280fd5b5082346101595780600319360112610159575080519080820182811067ffffffffffffffff821117610146576101429350815260058252640352e302e360dc1b602083015251918291602083526020830190610312565b0390f35b604184634e487b7160e01b5f525260245ffd5b80fd5b5060603660031901126100e3576001600160a01b03823581811693908490036100e35760249182359081168091036100e35767ffffffffffffffff906044358281116100e357366023820112156100e3578084013583811161028257865191601f8201601f19908116603f0116830185811184821017610270578852818352368783830101116100e357815f92886020930183860137830101526101fe610350565b863b156100e357610230965f92875180998194829363278f794360e11b8452898401528a8a8401526044830190610312565b039134905af1801561026657610244578580f35b909192938095501161025557505052005b604190634e487b7160e01b5f52525ffd5b84513d5f823e3d90fd5b87604188634e487b7160e01b5f52525ffd5b85604186634e487b7160e01b5f52525ffd5b50346100e3575f3660031901126100e3575f5490516001600160a01b039091168152602090f35b346100e3575f3660031901126100e3576102d3610350565b5f80546001600160a01b0319811682556001600160a01b03167f8be0079c531659141344cd1fd0a4f28419497f9722a3daafe3b4186f6b6457e08280a3005b91908251928382525f5b84811061033c575050825f602080949584010152601f8019910116010190565b60208183018101518483018201520161031c565b5f546001600160a01b0316330361036357565b60405163118cdaa760e01b8152336004820152602490fdfea26469706673582212202992a71449476404159c12582e1f3d5c014ae92bc1369e2e03b37152567a3c7d64736f6c63430008180033000000000000000000000000ff6bdef4fb646ee44e29fe8fc0862b02f0ba8a33"
        },
        {
          "transactionType": "CREATE",
          "contractName": "TransparentUpgradeableProxy",
          "address": "0x30b3033a2a0cd95bdf8d5c01837f1fd501af04c5",
          "initCode": "0x604060a08152610aac8038038061001581610268565b9283398101906060818303126102645761002e8161028d565b60209161003c83820161028d565b8582015190916001600160401b039190828211610264570185601f82011215610264578051908282116101ef5761007b601f8301601f19168701610268565b968288528683830101116102645785905f5b8381106102505750505f918701015284511561023f57823b1561021f577f360894a13ba1a3210667c828492db98dca3e2076cc3735a920a3ca505d382bbc80546001600160a01b03199081166001600160a01b03868116918217909355885192979195907fbc7cd75a20ee27fd9adebab32041f755214dbc6bffa90cc0225b39da2e5c2d3b5f80a28151156102035761012692506102a1565b505b85519161048391828401908111848210176101ef57868492879461062985391681520301905ff080156101e557831691826080527f7e644d79422f17c01e4894b5f4f588d331ebfa28653d42ae832dc59e38c9798f857fb53127684a568b3173ae13b9f8a6016e243e63b6e8ee1178d6a717850b5d6103958587549483519286168352820152a182156101ce5716179055516102f69081610333823960805181600f0152f35b8451633173bdd160e11b81525f6004820152602490fd5b84513d5f823e3d90fd5b634e487b7160e01b5f52604160045260245ffd5b5050346102105750610128565b63b398979f60e01b8152600490fd5b8551634c9c8ce360e01b81526001600160a01b0384166004820152602490fd5b85516330a289cf60e21b8152600490fd5b81810183015189820184015287920161008d565b5f80fd5b6040519190601f01601f191682016001600160401b038111838210176101ef57604052565b51906001600160a01b038216820361026457565b905f8091602081519101845af4808061031f575b156102d55750506040513d81523d5f602083013e60203d82010160405290565b156102fc57604051639996b31560e01b81526001600160a01b039091166004820152602490fd5b3d1561030d576040513d5f823e3d90fd5b60405163d6bda27560e01b8152600490fd5b503d1515806102b55750813b15156102b556fe60806040526001600160a01b03337f000000000000000000000000000000000000000000000000000000000000000082160361006a575f356001600160e01b03191663278f794360e11b14610060576040516334ad5dbb60e21b8152600490fd5b6100686100be565b005b5f80917f360894a13ba1a3210667c828492db98dca3e2076cc3735a920a3ca505d382bbc5416368280378136915af43d5f803e156100a6573d5ff35b3d5ffd5b634e487b7160e01b5f52604160045260245ffd5b3660041161015f57604036600319011261015f576004356001600160a01b0381169081900361015f576024359067ffffffffffffffff9081831161015f573660238401121561015f5782600401358281116101635760405192601f8201601f19908116603f011684019081118482101761016357604052808352366024828601011161015f576020815f92602461015d97018387013784010152610168565b565b5f80fd5b6100aa565b90813b156101ff577f360894a13ba1a3210667c828492db98dca3e2076cc3735a920a3ca505d382bbc80546001600160a01b0319166001600160a01b0384169081179091557fbc7cd75a20ee27fd9adebab32041f755214dbc6bffa90cc0225b39da2e5c2d3b5f80a28051156101e4576101e191610220565b50565b5050346101ed57565b60405163b398979f60e01b8152600490fd5b604051634c9c8ce360e01b81526001600160a01b0383166004820152602490fd5b905f8091602081519101845af48080610289575b156102465750506102436102a7565b90565b1561026e57604051639996b31560e01b81526001600160a01b03919091166004820152602490fd5b3d15155f0361029c5760405163d6bda27560e01b8152600490fd5b503d1515806102345750813b1515610234565b6040513d5f823e3d90fd5b604051903d82523d5f602084013e60203d83010160405256fea2646970667358221220371437a14d55b0192ed17af74450cdb0b22bf1f3d480185986e4348c96e968d064736f6c634300081800336080346100b957601f61048338819003918201601f19168301916001600160401b038311848410176100bd578084926020946040528339810103126100b957516001600160a01b0390818116908190036100b95780156100a1575f80546001600160a01b03198116831782556040519316907f8be0079c531659141344cd1fd0a4f28419497f9722a3daafe3b4186f6b6457e09080a36103b190816100d28239f35b604051631e4fbdf760e01b81525f6004820152602490fd5b5f80fd5b634e487b7160e01b5f52604160045260245ffdfe604060808152600480361015610013575f80fd5b5f915f3560e01c8063715018a6146102bb5780638da5cb5b146102945780639623609d1461015c578063ad3cb1cc146100eb5763f2fde38b14610054575f80fd5b346100e75760203660031901126100e7576001600160a01b038235818116939192908490036100e357610085610350565b83156100cd5750505f54826bffffffffffffffffffffffff60a01b8216175f55167f8be0079c531659141344cd1fd0a4f28419497f9722a3daafe3b4186f6b6457e05f80a380f35b51631e4fbdf760e01b8152908101849052602490fd5b5f80fd5b8280fd5b5082346101595780600319360112610159575080519080820182811067ffffffffffffffff821117610146576101429350815260058252640352e302e360dc1b602083015251918291602083526020830190610312565b0390f35b604184634e487b7160e01b5f525260245ffd5b80fd5b5060603660031901126100e3576001600160a01b03823581811693908490036100e35760249182359081168091036100e35767ffffffffffffffff906044358281116100e357366023820112156100e3578084013583811161028257865191601f8201601f19908116603f0116830185811184821017610270578852818352368783830101116100e357815f92886020930183860137830101526101fe610350565b863b156100e357610230965f92875180998194829363278f794360e11b8452898401528a8a8401526044830190610312565b039134905af1801561026657610244578580f35b909192938095501161025557505052005b604190634e487b7160e01b5f52525ffd5b84513d5f823e3d90fd5b87604188634e487b7160e01b5f52525ffd5b85604186634e487b7160e01b5f52525ffd5b50346100e3575f3660031901126100e3575f5490516001600160a01b039091168152602090f35b346100e3575f3660031901126100e3576102d3610350565b5f80546001600160a01b0319811682556001600160a01b03167f8be0079c531659141344cd1fd0a4f28419497f9722a3daafe3b4186f6b6457e08280a3005b91908251928382525f5b84811061033c575050825f602080949584010152601f8019910116010190565b60208183018101518483018201520161031c565b5f546001600160a01b0316330361036357565b60405163118cdaa760e01b8152336004820152602490fdfea26469706673582212202992a71449476404159c12582e1f3d5c014ae92bc1369e2e03b37152567a3c7d64736f6c63430008180033000000000000000000000000092ed1e0845f6817e24316a730e98ec074e5f017000000000000000000000000ff6bdef4fb646ee44e29fe8fc0862b02f0ba8a33000000000000000000000000000000000000000000000000000000000000006000000000000000000000000000000000000000000000000000000000000001048f15b414000000000000000000000000000000000000000000000000000000000000008000000000000000000000000000000000000000000000000000000000000000c0000000000000000000000000fc76be90153b5f834b8ebc15e18a339e50083cfb000000000000000000000000adf3b6935598f029acd2afbcecb8ee4b82d83ebd000000000000000000000000000000000000000000000000000000000000000b4f6c697665205969656c6400000000000000000000000000000000000000000000000000000000000000000000000000000000000000000000000000000000066f5949454c44000000000000000000000000000000000000000000000000000000000000000000000000000000000000000000000000000000000000"
        },
        {
          "transactionType": "CREATE",
          "contractName": "ProxyAdmin",
          "address": "0xb538413c4ad1cbb94d67bf1c0a5f69b060ffe750",
          "initCode": "0x6080346100b957601f61048338819003918201601f19168301916001600160401b038311848410176100bd578084926020946040528339810103126100b957516001600160a01b0390818116908190036100b95780156100a1575f80546001600160a01b03198116831782556040519316907f8be0079c531659141344cd1fd0a4f28419497f9722a3daafe3b4186f6b6457e09080a36103b190816100d28239f35b604051631e4fbdf760e01b81525f6004820152602490fd5b5f80fd5b634e487b7160e01b5f52604160045260245ffdfe604060808152600480361015610013575f80fd5b5f915f3560e01c8063715018a6146102bb5780638da5cb5b146102945780639623609d1461015c578063ad3cb1cc146100eb5763f2fde38b14610054575f80fd5b346100e75760203660031901126100e7576001600160a01b038235818116939192908490036100e357610085610350565b83156100cd5750505f54826bffffffffffffffffffffffff60a01b8216175f55167f8be0079c531659141344cd1fd0a4f28419497f9722a3daafe3b4186f6b6457e05f80a380f35b51631e4fbdf760e01b8152908101849052602490fd5b5f80fd5b8280fd5b5082346101595780600319360112610159575080519080820182811067ffffffffffffffff821117610146576101429350815260058252640352e302e360dc1b602083015251918291602083526020830190610312565b0390f35b604184634e487b7160e01b5f525260245ffd5b80fd5b5060603660031901126100e3576001600160a01b03823581811693908490036100e35760249182359081168091036100e35767ffffffffffffffff906044358281116100e357366023820112156100e3578084013583811161028257865191601f8201601f19908116603f0116830185811184821017610270578852818352368783830101116100e357815f92886020930183860137830101526101fe610350565b863b156100e357610230965f92875180998194829363278f794360e11b8452898401528a8a8401526044830190610312565b039134905af1801561026657610244578580f35b909192938095501161025557505052005b604190634e487b7160e01b5f52525ffd5b84513d5f823e3d90fd5b87604188634e487b7160e01b5f52525ffd5b85604186634e487b7160e01b5f52525ffd5b50346100e3575f3660031901126100e3575f5490516001600160a01b039091168152602090f35b346100e3575f3660031901126100e3576102d3610350565b5f80546001600160a01b0319811682556001600160a01b03167f8be0079c531659141344cd1fd0a4f28419497f9722a3daafe3b4186f6b6457e08280a3005b91908251928382525f5b84811061033c575050825f602080949584010152601f8019910116010190565b60208183018101518483018201520161031c565b5f546001600160a01b0316330361036357565b60405163118cdaa760e01b8152336004820152602490fdfea26469706673582212202992a71449476404159c12582e1f3d5c014ae92bc1369e2e03b37152567a3c7d64736f6c63430008180033000000000000000000000000ff6bdef4fb646ee44e29fe8fc0862b02f0ba8a33"
        }
      ],
      "isFixedGasLimit": false
    },
    {
      "hash": "0x37e845e7142c29e9e19835d403bd1d889f0e3c42f47eb5a7152b3fe679ca29ae",
      "transactionType": "CALL",
      "contractName": "TransparentUpgradeableProxy",
      "contractAddress": "0xd5bf655644398f0aea2c6c7d5178cf9920afbfd2",
      "function": null,
      "arguments": null,
      "transaction": {
        "from": "0xff6bdef4fb646ee44e29fe8fc0862b02f0ba8a33",
        "to": "0xd5bf655644398f0aea2c6c7d5178cf9920afbfd2",
        "gas": "0x2ad19",
        "value": "0x0",
        "input": "0x666033e600000000000000000000000032c344dc9713d904442d0e5b0d2b7994e52b0d4e000000000000000000000000000000000000000000000000000000000000000000000000000000000000000000000000000000000000000000000000000232800000000000000000000000000000000000000000000000000000000000000000",
        "nonce": "0x25",
        "chainId": "0x14a34"
      },
      "additionalContracts": [],
      "isFixedGasLimit": false
    },
    {
      "hash": "0x0aa69a991d07551d487d7a536db46452b2baa9a090f3bd139e74c84515b95191",
      "transactionType": "CALL",
      "contractName": "MockUSDC",
      "contractAddress": "0x32c344dc9713d904442d0e5b0d2b7994e52b0d4e",
      "function": "approve(address,uint256)",
      "arguments": [
        "0xd5bf655644398f0AEA2C6C7d5178cF9920afbfD2",
        "115792089237316195423570985008687907853269984665640564039457584007913129639935"
      ],
      "transaction": {
        "from": "0xff6bdef4fb646ee44e29fe8fc0862b02f0ba8a33",
        "to": "0x32c344dc9713d904442d0e5b0d2b7994e52b0d4e",
        "gas": "0x10868",
        "value": "0x0",
        "input": "0x095ea7b3000000000000000000000000d5bf655644398f0aea2c6c7d5178cf9920afbfd2ffffffffffffffffffffffffffffffffffffffffffffffffffffffffffffffff",
        "nonce": "0x26",
        "chainId": "0x14a34"
      },
      "additionalContracts": [],
      "isFixedGasLimit": false
    },
    {
      "hash": "0x1b16613da8e702686cc11560525b33f32b924507d87bc7233a19bd3e70c01316",
      "transactionType": "CALL",
      "contractName": "TransparentUpgradeableProxy",
      "contractAddress": "0xd5bf655644398f0aea2c6c7d5178cf9920afbfd2",
      "function": null,
      "arguments": null,
      "transaction": {
        "from": "0xff6bdef4fb646ee44e29fe8fc0862b02f0ba8a33",
        "to": "0xd5bf655644398f0aea2c6c7d5178cf9920afbfd2",
        "gas": "0x6479a",
        "value": "0x0",
        "input": "0xcce7ec1300000000000000000000000032c344dc9713d904442d0e5b0d2b7994e52b0d4e0000000000000000000000000000000000000000000000000000000006021600",
        "nonce": "0x27",
        "chainId": "0x14a34"
      },
      "additionalContracts": [],
      "isFixedGasLimit": false
    },
    {
      "hash": "0x051b6912d8068de14dfa421515afd224544ee29e91376bb75569e39e8b8d2e59",
      "transactionType": "CALL",
      "contractName": "TransparentUpgradeableProxy",
      "contractAddress": "0xd5bf655644398f0aea2c6c7d5178cf9920afbfd2",
      "function": null,
      "arguments": null,
      "transaction": {
        "from": "0xff6bdef4fb646ee44e29fe8fc0862b02f0ba8a33",
        "to": "0xd5bf655644398f0aea2c6c7d5178cf9920afbfd2",
        "gas": "0x327d7",
        "value": "0x0",
        "input": "0x703dbfe40000000000000000000000000000000000000000000000000000000000000001",
        "nonce": "0x28",
        "chainId": "0x14a34"
      },
      "additionalContracts": [],
      "isFixedGasLimit": false
    },
    {
      "hash": "0x21fd0acd054007bfd5494f26dc90f32dc17d5ad9f2a349764e9bd1f630e21b22",
      "transactionType": "CALL",
      "contractName": "TransparentUpgradeableProxy",
      "contractAddress": "0xbb2ba6eefda0c56e7501f4834b871df59945e3bb",
      "function": null,
      "arguments": null,
      "transaction": {
        "from": "0xff6bdef4fb646ee44e29fe8fc0862b02f0ba8a33",
        "to": "0xbb2ba6eefda0c56e7501f4834b871df59945e3bb",
        "gas": "0x124de",
        "value": "0x0",
        "input": "0x095ea7b3000000000000000000000000fc76be90153b5f834b8ebc15e18a339e50083cfbffffffffffffffffffffffffffffffffffffffffffffffffffffffffffffffff",
        "nonce": "0x29",
        "chainId": "0x14a34"
      },
      "additionalContracts": [],
      "isFixedGasLimit": false
    },
    {
      "hash": "0x22cd8b9ba9b4379d2f6e4159cf17c0261a1712f55cc8a05095de728e6297afc8",
      "transactionType": "CALL",
      "contractName": "TransparentUpgradeableProxy",
      "contractAddress": "0xfc76be90153b5f834b8ebc15e18a339e50083cfb",
      "function": null,
      "arguments": null,
      "transaction": {
        "from": "0xff6bdef4fb646ee44e29fe8fc0862b02f0ba8a33",
        "to": "0xfc76be90153b5f834b8ebc15e18a339e50083cfb",
        "gas": "0x67ff8",
        "value": "0x0",
        "input": "0xa694fc3a000000000000000000000000000000000000000000000025f273933db5700000",
        "nonce": "0x2a",
        "chainId": "0x14a34"
      },
      "additionalContracts": [],
      "isFixedGasLimit": false
    },
    {
      "hash": "0xb73b4dcc83a2b1a5ed17ad550aaf0a2464886804c08ff32c40447e8cf5c5d05a",
      "transactionType": "CALL",
      "contractName": "MockUSDC",
      "contractAddress": "0x32c344dc9713d904442d0e5b0d2b7994e52b0d4e",
      "function": "mint(address,uint256)",
      "arguments": [
        "0x455aB6723CCab4cb62983710C33f6311cc85Bc97",
        "50000000"
      ],
      "transaction": {
        "from": "0xff6bdef4fb646ee44e29fe8fc0862b02f0ba8a33",
        "to": "0x32c344dc9713d904442d0e5b0d2b7994e52b0d4e",
        "gas": "0x11325",
        "value": "0x0",
        "input": "0x40c10f19000000000000000000000000455ab6723ccab4cb62983710c33f6311cc85bc970000000000000000000000000000000000000000000000000000000002faf080",
        "nonce": "0x2b",
        "chainId": "0x14a34"
      },
      "additionalContracts": [],
      "isFixedGasLimit": false
    },
    {
      "hash": "0x9e35b48b9b552639b3d3362053176335882c96080f9f1807c2badf99c159ac68",
      "transactionType": "CALL",
      "contractName": "MockUSDC",
      "contractAddress": "0x32c344dc9713d904442d0e5b0d2b7994e52b0d4e",
      "function": "approve(address,uint256)",
      "arguments": [
        "0xd5bf655644398f0AEA2C6C7d5178cF9920afbfD2",
        "115792089237316195423570985008687907853269984665640564039457584007913129639935"
      ],
      "transaction": {
        "from": "0x455ab6723ccab4cb62983710c33f6311cc85bc97",
        "to": "0x32c344dc9713d904442d0e5b0d2b7994e52b0d4e",
        "gas": "0x10868",
        "value": "0x0",
        "input": "0x095ea7b3000000000000000000000000d5bf655644398f0aea2c6c7d5178cf9920afbfd2ffffffffffffffffffffffffffffffffffffffffffffffffffffffffffffffff",
        "nonce": "0x0",
        "chainId": "0x14a34"
      },
      "additionalContracts": [],
      "isFixedGasLimit": false
    },
    {
      "hash": "0x4fa6a38bce53e161729635deae54f4e5ca918099a9d952bda295548d6c190de7",
      "transactionType": "CALL",
      "contractName": "TransparentUpgradeableProxy",
      "contractAddress": "0xd5bf655644398f0aea2c6c7d5178cf9920afbfd2",
      "function": null,
      "arguments": null,
      "transaction": {
        "from": "0x455ab6723ccab4cb62983710c33f6311cc85bc97",
        "to": "0xd5bf655644398f0aea2c6c7d5178cf9920afbfd2",
        "gas": "0x3068b",
        "value": "0x0",
        "input": "0xcce7ec1300000000000000000000000032c344dc9713d904442d0e5b0d2b7994e52b0d4e0000000000000000000000000000000000000000000000000000000002932e00",
        "nonce": "0x1",
        "chainId": "0x14a34"
      },
      "additionalContracts": [],
      "isFixedGasLimit": false
    },
    {
      "hash": "0x89f300ba3613eaf8bd264396b18270a3cac60cdc4980c57544262814f4b0a417",
      "transactionType": "CALL",
      "contractName": "TransparentUpgradeableProxy",
      "contractAddress": "0xbb2ba6eefda0c56e7501f4834b871df59945e3bb",
      "function": null,
      "arguments": null,
      "transaction": {
        "from": "0x455ab6723ccab4cb62983710c33f6311cc85bc97",
        "to": "0xbb2ba6eefda0c56e7501f4834b871df59945e3bb",
        "gas": "0x124de",
        "value": "0x0",
        "input": "0x095ea7b3000000000000000000000000fc76be90153b5f834b8ebc15e18a339e50083cfbffffffffffffffffffffffffffffffffffffffffffffffffffffffffffffffff",
        "nonce": "0x2",
        "chainId": "0x14a34"
      },
      "additionalContracts": [],
      "isFixedGasLimit": false
    },
    {
      "hash": "0x6842428f77e6656c185ac5af86bfefc8f63e67cb7e889c89ebf1a23962c16020",
      "transactionType": "CALL",
      "contractName": "TransparentUpgradeableProxy",
      "contractAddress": "0xfc76be90153b5f834b8ebc15e18a339e50083cfb",
      "function": null,
      "arguments": null,
      "transaction": {
        "from": "0x455ab6723ccab4cb62983710c33f6311cc85bc97",
        "to": "0xfc76be90153b5f834b8ebc15e18a339e50083cfb",
        "gas": "0x5610c",
        "value": "0x0",
        "input": "0xa694fc3a00000000000000000000000000000000000000000000001043561a8829300000",
        "nonce": "0x3",
        "chainId": "0x14a34"
      },
      "additionalContracts": [],
      "isFixedGasLimit": false
    }
  ],
  "receipts": [
    {
      "status": "0x1",
      "cumulativeGasUsed": "0x3fe947",
      "logs": [
        {
          "address": "0x3fa41528a22645bef478e9ebae83981c02e98f74",
          "topics": [
            "0xa53bb861f8980ad56ca8ad0ba10cc5ef7a8a6af7fa4ca26f876580318c82f719"
          ],
          "data": "0x0000000000000000000000000000000000000000000000000000000000000e100000000000000000000000000000000000000000000000000000000000000708",
          "blockHash": "0xe5568ca7fd5021d4be9f5c8258f9d2e906e843edf9d2163a6c7b91041a758ae7",
          "blockNumber": "0x26796cf",
          "blockTimestamp": "0x69e28c7e",
          "transactionHash": "0xce58a0ac64e6e4ea1f8ad5d2841b0227a4ab1f7a03398be57e47326d0b75d798",
          "transactionIndex": "0x10",
          "logIndex": "0x95",
          "removed": false
        }
      ],
      "logsBloom": "0x00000000000000000000000000000000000000000000000000000000000000000000000000000000000000000000000000000000000000000000000000000000000000000000000000000000000000000000000000000001000000000000000000000000000000000000000000000000000000000000000000000000000010000000000000000000000000000000000080000000000000000000000000000000000000000000000000100000000000000000000000000000000000000000000000000000000000000000000000000000000000000000000000000000000000000000000000000002000000000000000000000000000000000000000000100000",
      "type": "0x2",
      "transactionHash": "0xce58a0ac64e6e4ea1f8ad5d2841b0227a4ab1f7a03398be57e47326d0b75d798",
      "transactionIndex": "0x10",
      "blockHash": "0xe5568ca7fd5021d4be9f5c8258f9d2e906e843edf9d2163a6c7b91041a758ae7",
      "blockNumber": "0x26796cf",
      "gasUsed": "0x884a",
      "effectiveGasPrice": "0x5b8d80",
      "blobGasUsed": "0x39d0",
      "from": "0xff6bdef4fb646ee44e29fe8fc0862b02f0ba8a33",
      "to": "0x3fa41528a22645bef478e9ebae83981c02e98f74",
      "contractAddress": null,
      "daFootprintGasScalar": "0x94",
      "l1BaseFeeScalar": "0x44d",
      "l1BlobBaseFee": "0x1ab0a",
      "l1BlobBaseFeeScalar": "0xa118b",
      "l1Fee": "0x73c143",
      "l1GasPrice": "0x339fb",
      "l1GasUsed": "0x640"
    },
    {
      "status": "0x1",
      "cumulativeGasUsed": "0x61c9ce",
      "logs": [
        {
          "address": "0xd5bf655644398f0aea2c6c7d5178cf9920afbfd2",
          "topics": [
            "0xbc7cd75a20ee27fd9adebab32041f755214dbc6bffa90cc0225b39da2e5c2d3b",
            "0x00000000000000000000000061afa5fdfb09b465dafc5b868e186dec832de945"
          ],
          "data": "0x",
          "blockHash": "0xde0242a738dcec1aa620dd9f9587689fcc6ef81da3bb0699658b33a1332626c1",
          "blockNumber": "0x26796d0",
          "blockTimestamp": "0x69e28c80",
          "transactionHash": "0x28460842f75e8ca435d493f82a715874f29b08eb684d13e74a0de82002279c68",
          "transactionIndex": "0xd",
          "logIndex": "0x41",
          "removed": false
        },
        {
          "address": "0xd5bf655644398f0aea2c6c7d5178cf9920afbfd2",
          "topics": [
            "0xc7f505b2f371ae2175ee4913f4499e1f2633a7b5936321eed1cdaeb6115181d2"
          ],
          "data": "0x0000000000000000000000000000000000000000000000000000000000000001",
          "blockHash": "0xde0242a738dcec1aa620dd9f9587689fcc6ef81da3bb0699658b33a1332626c1",
          "blockNumber": "0x26796d0",
          "blockTimestamp": "0x69e28c80",
          "transactionHash": "0x28460842f75e8ca435d493f82a715874f29b08eb684d13e74a0de82002279c68",
          "transactionIndex": "0xd",
          "logIndex": "0x42",
          "removed": false
        },
        {
          "address": "0x17a731ea6bd64bcbb5f624743031eaf08b8d62d8",
          "topics": [
            "0x8be0079c531659141344cd1fd0a4f28419497f9722a3daafe3b4186f6b6457e0",
            "0x0000000000000000000000000000000000000000000000000000000000000000",
            "0x000000000000000000000000ff6bdef4fb646ee44e29fe8fc0862b02f0ba8a33"
          ],
          "data": "0x",
          "blockHash": "0xde0242a738dcec1aa620dd9f9587689fcc6ef81da3bb0699658b33a1332626c1",
          "blockNumber": "0x26796d0",
          "blockTimestamp": "0x69e28c80",
          "transactionHash": "0x28460842f75e8ca435d493f82a715874f29b08eb684d13e74a0de82002279c68",
          "transactionIndex": "0xd",
          "logIndex": "0x43",
          "removed": false
        },
        {
          "address": "0xd5bf655644398f0aea2c6c7d5178cf9920afbfd2",
          "topics": [
            "0x7e644d79422f17c01e4894b5f4f588d331ebfa28653d42ae832dc59e38c9798f"
          ],
          "data": "0x000000000000000000000000000000000000000000000000000000000000000000000000000000000000000017a731ea6bd64bcbb5f624743031eaf08b8d62d8",
          "blockHash": "0xde0242a738dcec1aa620dd9f9587689fcc6ef81da3bb0699658b33a1332626c1",
          "blockNumber": "0x26796d0",
          "blockTimestamp": "0x69e28c80",
          "transactionHash": "0x28460842f75e8ca435d493f82a715874f29b08eb684d13e74a0de82002279c68",
          "transactionIndex": "0xd",
          "logIndex": "0x44",
          "removed": false
        },
        {
          "address": "0xbb2ba6eefda0c56e7501f4834b871df59945e3bb",
          "topics": [
            "0xbc7cd75a20ee27fd9adebab32041f755214dbc6bffa90cc0225b39da2e5c2d3b",
            "0x0000000000000000000000000dbe11ad9c2bf4126fe8d422e7374de47600a2ca"
          ],
          "data": "0x",
          "blockHash": "0xde0242a738dcec1aa620dd9f9587689fcc6ef81da3bb0699658b33a1332626c1",
          "blockNumber": "0x26796d0",
          "blockTimestamp": "0x69e28c80",
          "transactionHash": "0x28460842f75e8ca435d493f82a715874f29b08eb684d13e74a0de82002279c68",
          "transactionIndex": "0xd",
          "logIndex": "0x45",
          "removed": false
        },
        {
          "address": "0xbb2ba6eefda0c56e7501f4834b871df59945e3bb",
          "topics": [
            "0xc7f505b2f371ae2175ee4913f4499e1f2633a7b5936321eed1cdaeb6115181d2"
          ],
          "data": "0x0000000000000000000000000000000000000000000000000000000000000001",
          "blockHash": "0xde0242a738dcec1aa620dd9f9587689fcc6ef81da3bb0699658b33a1332626c1",
          "blockNumber": "0x26796d0",
          "blockTimestamp": "0x69e28c80",
          "transactionHash": "0x28460842f75e8ca435d493f82a715874f29b08eb684d13e74a0de82002279c68",
          "transactionIndex": "0xd",
          "logIndex": "0x46",
          "removed": false
        },
        {
          "address": "0x0a140b1f6861eba0a078839952766746ee4fd333",
          "topics": [
            "0x8be0079c531659141344cd1fd0a4f28419497f9722a3daafe3b4186f6b6457e0",
            "0x0000000000000000000000000000000000000000000000000000000000000000",
            "0x000000000000000000000000ff6bdef4fb646ee44e29fe8fc0862b02f0ba8a33"
          ],
          "data": "0x",
          "blockHash": "0xde0242a738dcec1aa620dd9f9587689fcc6ef81da3bb0699658b33a1332626c1",
          "blockNumber": "0x26796d0",
          "blockTimestamp": "0x69e28c80",
          "transactionHash": "0x28460842f75e8ca435d493f82a715874f29b08eb684d13e74a0de82002279c68",
          "transactionIndex": "0xd",
          "logIndex": "0x47",
          "removed": false
        },
        {
          "address": "0xbb2ba6eefda0c56e7501f4834b871df59945e3bb",
          "topics": [
            "0x7e644d79422f17c01e4894b5f4f588d331ebfa28653d42ae832dc59e38c9798f"
          ],
          "data": "0x00000000000000000000000000000000000000000000000000000000000000000000000000000000000000000a140b1f6861eba0a078839952766746ee4fd333",
          "blockHash": "0xde0242a738dcec1aa620dd9f9587689fcc6ef81da3bb0699658b33a1332626c1",
          "blockNumber": "0x26796d0",
          "blockTimestamp": "0x69e28c80",
          "transactionHash": "0x28460842f75e8ca435d493f82a715874f29b08eb684d13e74a0de82002279c68",
          "transactionIndex": "0xd",
          "logIndex": "0x48",
          "removed": false
        },
        {
          "address": "0xfc76be90153b5f834b8ebc15e18a339e50083cfb",
          "topics": [
            "0xbc7cd75a20ee27fd9adebab32041f755214dbc6bffa90cc0225b39da2e5c2d3b",
            "0x00000000000000000000000081c4e22ec9198f2983217c483e4027cf49e940db"
          ],
          "data": "0x",
          "blockHash": "0xde0242a738dcec1aa620dd9f9587689fcc6ef81da3bb0699658b33a1332626c1",
          "blockNumber": "0x26796d0",
          "blockTimestamp": "0x69e28c80",
          "transactionHash": "0x28460842f75e8ca435d493f82a715874f29b08eb684d13e74a0de82002279c68",
          "transactionIndex": "0xd",
          "logIndex": "0x49",
          "removed": false
        },
        {
          "address": "0xfc76be90153b5f834b8ebc15e18a339e50083cfb",
          "topics": [
            "0xc7f505b2f371ae2175ee4913f4499e1f2633a7b5936321eed1cdaeb6115181d2"
          ],
          "data": "0x0000000000000000000000000000000000000000000000000000000000000001",
          "blockHash": "0xde0242a738dcec1aa620dd9f9587689fcc6ef81da3bb0699658b33a1332626c1",
          "blockNumber": "0x26796d0",
          "blockTimestamp": "0x69e28c80",
          "transactionHash": "0x28460842f75e8ca435d493f82a715874f29b08eb684d13e74a0de82002279c68",
          "transactionIndex": "0xd",
          "logIndex": "0x4a",
          "removed": false
        },
        {
          "address": "0x9ef0677ee1aaaa27ce136c36f3d8d2dbaf73ac70",
          "topics": [
            "0x8be0079c531659141344cd1fd0a4f28419497f9722a3daafe3b4186f6b6457e0",
            "0x0000000000000000000000000000000000000000000000000000000000000000",
            "0x000000000000000000000000ff6bdef4fb646ee44e29fe8fc0862b02f0ba8a33"
          ],
          "data": "0x",
          "blockHash": "0xde0242a738dcec1aa620dd9f9587689fcc6ef81da3bb0699658b33a1332626c1",
          "blockNumber": "0x26796d0",
          "blockTimestamp": "0x69e28c80",
          "transactionHash": "0x28460842f75e8ca435d493f82a715874f29b08eb684d13e74a0de82002279c68",
          "transactionIndex": "0xd",
          "logIndex": "0x4b",
          "removed": false
        },
        {
          "address": "0xfc76be90153b5f834b8ebc15e18a339e50083cfb",
          "topics": [
            "0x7e644d79422f17c01e4894b5f4f588d331ebfa28653d42ae832dc59e38c9798f"
          ],
          "data": "0x00000000000000000000000000000000000000000000000000000000000000000000000000000000000000009ef0677ee1aaaa27ce136c36f3d8d2dbaf73ac70",
          "blockHash": "0xde0242a738dcec1aa620dd9f9587689fcc6ef81da3bb0699658b33a1332626c1",
          "blockNumber": "0x26796d0",
          "blockTimestamp": "0x69e28c80",
          "transactionHash": "0x28460842f75e8ca435d493f82a715874f29b08eb684d13e74a0de82002279c68",
          "transactionIndex": "0xd",
          "logIndex": "0x4c",
          "removed": false
        },
        {
          "address": "0xadf3b6935598f029acd2afbcecb8ee4b82d83ebd",
          "topics": [
            "0xbc7cd75a20ee27fd9adebab32041f755214dbc6bffa90cc0225b39da2e5c2d3b",
            "0x0000000000000000000000008d434e38dd91d9b738f8803dbd18b815720bedad"
          ],
          "data": "0x",
          "blockHash": "0xde0242a738dcec1aa620dd9f9587689fcc6ef81da3bb0699658b33a1332626c1",
          "blockNumber": "0x26796d0",
          "blockTimestamp": "0x69e28c80",
          "transactionHash": "0x28460842f75e8ca435d493f82a715874f29b08eb684d13e74a0de82002279c68",
          "transactionIndex": "0xd",
          "logIndex": "0x4d",
          "removed": false
        },
        {
          "address": "0xadf3b6935598f029acd2afbcecb8ee4b82d83ebd",
          "topics": [
            "0xc7f505b2f371ae2175ee4913f4499e1f2633a7b5936321eed1cdaeb6115181d2"
          ],
          "data": "0x0000000000000000000000000000000000000000000000000000000000000001",
          "blockHash": "0xde0242a738dcec1aa620dd9f9587689fcc6ef81da3bb0699658b33a1332626c1",
          "blockNumber": "0x26796d0",
          "blockTimestamp": "0x69e28c80",
          "transactionHash": "0x28460842f75e8ca435d493f82a715874f29b08eb684d13e74a0de82002279c68",
          "transactionIndex": "0xd",
          "logIndex": "0x4e",
          "removed": false
        },
        {
          "address": "0x587c362d0b7020dc04ca948d3276f19ce96ccf3d",
          "topics": [
            "0x8be0079c531659141344cd1fd0a4f28419497f9722a3daafe3b4186f6b6457e0",
            "0x0000000000000000000000000000000000000000000000000000000000000000",
            "0x000000000000000000000000ff6bdef4fb646ee44e29fe8fc0862b02f0ba8a33"
          ],
          "data": "0x",
          "blockHash": "0xde0242a738dcec1aa620dd9f9587689fcc6ef81da3bb0699658b33a1332626c1",
          "blockNumber": "0x26796d0",
          "blockTimestamp": "0x69e28c80",
          "transactionHash": "0x28460842f75e8ca435d493f82a715874f29b08eb684d13e74a0de82002279c68",
          "transactionIndex": "0xd",
          "logIndex": "0x4f",
          "removed": false
        },
        {
          "address": "0xadf3b6935598f029acd2afbcecb8ee4b82d83ebd",
          "topics": [
            "0x7e644d79422f17c01e4894b5f4f588d331ebfa28653d42ae832dc59e38c9798f"
          ],
          "data": "0x0000000000000000000000000000000000000000000000000000000000000000000000000000000000000000587c362d0b7020dc04ca948d3276f19ce96ccf3d",
          "blockHash": "0xde0242a738dcec1aa620dd9f9587689fcc6ef81da3bb0699658b33a1332626c1",
          "blockNumber": "0x26796d0",
          "blockTimestamp": "0x69e28c80",
          "transactionHash": "0x28460842f75e8ca435d493f82a715874f29b08eb684d13e74a0de82002279c68",
          "transactionIndex": "0xd",
          "logIndex": "0x50",
          "removed": false
        },
        {
          "address": "0x30b3033a2a0cd95bdf8d5c01837f1fd501af04c5",
          "topics": [
            "0xbc7cd75a20ee27fd9adebab32041f755214dbc6bffa90cc0225b39da2e5c2d3b",
            "0x000000000000000000000000092ed1e0845f6817e24316a730e98ec074e5f017"
          ],
          "data": "0x",
          "blockHash": "0xde0242a738dcec1aa620dd9f9587689fcc6ef81da3bb0699658b33a1332626c1",
          "blockNumber": "0x26796d0",
          "blockTimestamp": "0x69e28c80",
          "transactionHash": "0x28460842f75e8ca435d493f82a715874f29b08eb684d13e74a0de82002279c68",
          "transactionIndex": "0xd",
          "logIndex": "0x51",
          "removed": false
        },
        {
          "address": "0x30b3033a2a0cd95bdf8d5c01837f1fd501af04c5",
          "topics": [
            "0xc7f505b2f371ae2175ee4913f4499e1f2633a7b5936321eed1cdaeb6115181d2"
          ],
          "data": "0x0000000000000000000000000000000000000000000000000000000000000001",
          "blockHash": "0xde0242a738dcec1aa620dd9f9587689fcc6ef81da3bb0699658b33a1332626c1",
          "blockNumber": "0x26796d0",
          "blockTimestamp": "0x69e28c80",
          "transactionHash": "0x28460842f75e8ca435d493f82a715874f29b08eb684d13e74a0de82002279c68",
          "transactionIndex": "0xd",
          "logIndex": "0x52",
          "removed": false
        },
        {
          "address": "0xb538413c4ad1cbb94d67bf1c0a5f69b060ffe750",
          "topics": [
            "0x8be0079c531659141344cd1fd0a4f28419497f9722a3daafe3b4186f6b6457e0",
            "0x0000000000000000000000000000000000000000000000000000000000000000",
            "0x000000000000000000000000ff6bdef4fb646ee44e29fe8fc0862b02f0ba8a33"
          ],
          "data": "0x",
          "blockHash": "0xde0242a738dcec1aa620dd9f9587689fcc6ef81da3bb0699658b33a1332626c1",
          "blockNumber": "0x26796d0",
          "blockTimestamp": "0x69e28c80",
          "transactionHash": "0x28460842f75e8ca435d493f82a715874f29b08eb684d13e74a0de82002279c68",
          "transactionIndex": "0xd",
          "logIndex": "0x53",
          "removed": false
        },
        {
          "address": "0x30b3033a2a0cd95bdf8d5c01837f1fd501af04c5",
          "topics": [
            "0x7e644d79422f17c01e4894b5f4f588d331ebfa28653d42ae832dc59e38c9798f"
          ],
          "data": "0x0000000000000000000000000000000000000000000000000000000000000000000000000000000000000000b538413c4ad1cbb94d67bf1c0a5f69b060ffe750",
          "blockHash": "0xde0242a738dcec1aa620dd9f9587689fcc6ef81da3bb0699658b33a1332626c1",
          "blockNumber": "0x26796d0",
          "blockTimestamp": "0x69e28c80",
          "transactionHash": "0x28460842f75e8ca435d493f82a715874f29b08eb684d13e74a0de82002279c68",
          "transactionIndex": "0xd",
          "logIndex": "0x54",
          "removed": false
        },
        {
          "address": "0x3fa41528a22645bef478e9ebae83981c02e98f74",
          "topics": [
            "0xdaba71fb20c7def36f77061e2eb9b33ce4c86c9777d97c848deb399d13dcca8b",
            "0x000000000000000000000000d5bf655644398f0aea2c6c7d5178cf9920afbfd2",
            "0x000000000000000000000000ff6bdef4fb646ee44e29fe8fc0862b02f0ba8a33"
          ],
          "data": "0x000000000000000000000000bb2ba6eefda0c56e7501f4834b871df59945e3bb00000000000000000000000030b3033a2a0cd95bdf8d5c01837f1fd501af04c5000000000000000000000000fc76be90153b5f834b8ebc15e18a339e50083cfb000000000000000000000000adf3b6935598f029acd2afbcecb8ee4b82d83ebd00000000000000000000000000000000000000000000000001ff973cafa8000000000000000000000000000000000000000000000000001b1ae4d6e2ef50000000000000000000000000000000000000000000000000006c6b935b8bbd4000000000000000000000000000000000000000000000000000000000000069e3ddf200000000000000000000000000000000000000000000000000000000000007080000000000000000000000000000000000000000000000000de0b6b3a76400000000000000000000000000000000000000000000000000000000000069e28c80",
          "blockHash": "0xde0242a738dcec1aa620dd9f9587689fcc6ef81da3bb0699658b33a1332626c1",
          "blockNumber": "0x26796d0",
          "blockTimestamp": "0x69e28c80",
          "transactionHash": "0x28460842f75e8ca435d493f82a715874f29b08eb684d13e74a0de82002279c68",
          "transactionIndex": "0xd",
          "logIndex": "0x55",
          "removed": false
        }
      ],
      "logsBloom": "0x00000000204800001000100000210040c0040000001002200080800000000000100000000020000000000000000000000000000000000000000080100004000000000000800000000000000000000200000100000000000140000000000010000000000002000000010000000000080000000084000000000000100000800040000000000020000000080400000000028000000000008000010000000080000000000000000000000004c80000020040000080000000000000002a0000000000000000200800000000002000200100000004000004040000000000000000200000040000000000220000000000000000000042000000000000400000001001c0",
      "type": "0x2",
      "transactionHash": "0x28460842f75e8ca435d493f82a715874f29b08eb684d13e74a0de82002279c68",
      "transactionIndex": "0xd",
      "blockHash": "0xde0242a738dcec1aa620dd9f9587689fcc6ef81da3bb0699658b33a1332626c1",
      "blockNumber": "0x26796d0",
      "gasUsed": "0x36c5a6",
      "effectiveGasPrice": "0x5b8d80",
      "blobGasUsed": "0x87dc",
      "from": "0xff6bdef4fb646ee44e29fe8fc0862b02f0ba8a33",
      "to": "0x3fa41528a22645bef478e9ebae83981c02e98f74",
      "contractAddress": null,
      "daFootprintGasScalar": "0x94",
      "l1BaseFeeScalar": "0x44d",
      "l1BlobBaseFee": "0x1ab0a",
      "l1BlobBaseFeeScalar": "0xa118b",
      "l1Fee": "0x1112548",
      "l1GasPrice": "0x339fb",
      "l1GasUsed": "0xebf"
    },
    {
      "status": "0x1",
      "cumulativeGasUsed": "0x2895a3",
      "logs": [
        {
          "address": "0xd5bf655644398f0aea2c6c7d5178cf9920afbfd2",
          "topics": [
            "0x1809803edc7f4d0a1c400a8f95cac12ace860d60e118b6c9b491082a623963df",
            "0x00000000000000000000000032c344dc9713d904442d0e5b0d2b7994e52b0d4e"
          ],
          "data": "0x00000000000000000000000000000000000000000000000000000000000000800000000000000000000000000000000000000000000000000000000000000000000000000000000000000000000000000000000000000000000000000002328000000000000000000000000000000000000000000000000000000000000000000000000000000000000000000000000000000000000000000000000000000000",
          "blockHash": "0xa004821b89160c9becb1f579f88604c068a9ca73016b89e1a1233ef2b463c651",
          "blockNumber": "0x26796d2",
          "blockTimestamp": "0x69e28c84",
          "transactionHash": "0x37e845e7142c29e9e19835d403bd1d889f0e3c42f47eb5a7152b3fe679ca29ae",
          "transactionIndex": "0x7",
          "logIndex": "0x7f",
          "removed": false
        }
      ],
      "logsBloom": "0x00000000000000000000000000000000000000000000000400000000000000000000000000000000000000000000000000000000000000008000000000000000000000000000000000000000000000000000000000000000000000000000000000000000000000020000040000000000000000000000000000000000000000000000000000000000000000000000000000000000000000000100000000000000000000000000000000000000040200000000000000000000000000000000000000000000000000000000000000000000000400000000000000000000000000000000000000000000000000000000000000000000000002000000000000000000",
      "type": "0x2",
      "transactionHash": "0x37e845e7142c29e9e19835d403bd1d889f0e3c42f47eb5a7152b3fe679ca29ae",
      "transactionIndex": "0x7",
      "blockHash": "0xa004821b89160c9becb1f579f88604c068a9ca73016b89e1a1233ef2b463c651",
      "blockNumber": "0x26796d2",
      "gasUsed": "0x1f000",
      "effectiveGasPrice": "0x5b8d80",
      "blobGasUsed": "0x39d0",
      "from": "0xff6bdef4fb646ee44e29fe8fc0862b02f0ba8a33",
      "to": "0xd5bf655644398f0aea2c6c7d5178cf9920afbfd2",
      "contractAddress": null,
      "daFootprintGasScalar": "0x94",
      "l1BaseFeeScalar": "0x44d",
      "l1BlobBaseFee": "0x1ab0a",
      "l1BlobBaseFeeScalar": "0xa118b",
      "l1Fee": "0x73c143",
      "l1GasPrice": "0x339fb",
      "l1GasUsed": "0x640"
    },
    {
      "status": "0x1",
      "cumulativeGasUsed": "0x26a0e4",
      "logs": [
        {
          "address": "0x32c344dc9713d904442d0e5b0d2b7994e52b0d4e",
          "topics": [
            "0x8c5be1e5ebec7d5bd14f71427d1e84f3dd0314c0f7b2291e5b200ac8c7c3b925",
            "0x000000000000000000000000ff6bdef4fb646ee44e29fe8fc0862b02f0ba8a33",
            "0x000000000000000000000000d5bf655644398f0aea2c6c7d5178cf9920afbfd2"
          ],
          "data": "0xffffffffffffffffffffffffffffffffffffffffffffffffffffffffffffffff",
          "blockHash": "0x87f0a2e6679735592676179151fd92541aed89df5c35e380ca6acddfcb3563db",
          "blockNumber": "0x26796d3",
          "blockTimestamp": "0x69e28c86",
          "transactionHash": "0x0aa69a991d07551d487d7a536db46452b2baa9a090f3bd139e74c84515b95191",
          "transactionIndex": "0xb",
          "logIndex": "0x54",
          "removed": false
        }
      ],
      "logsBloom": "0x00000000000000000000100000000000000000000000020000000000000000000000000000000000000000000000000000000000000000000000001000200000000000000000000000000000000000000000000000000001000000000000000000000000000000000000000000000000010000000000000000000000000000000000000000000000000000000000000000000000000000000001000000000000020000000000000000000000000000000000000000000000000000000000000000000000040000000000000000010000000000000000000000000000000000000010000000000000000000000000000000000000000000000000000000000080",
      "type": "0x2",
      "transactionHash": "0x0aa69a991d07551d487d7a536db46452b2baa9a090f3bd139e74c84515b95191",
      "transactionIndex": "0xb",
      "blockHash": "0x87f0a2e6679735592676179151fd92541aed89df5c35e380ca6acddfcb3563db",
      "blockNumber": "0x26796d3",
      "gasUsed": "0xb4cb",
      "effectiveGasPrice": "0x5b8d80",
      "blobGasUsed": "0x39d0",
      "from": "0xff6bdef4fb646ee44e29fe8fc0862b02f0ba8a33",
      "to": "0x32c344dc9713d904442d0e5b0d2b7994e52b0d4e",
      "contractAddress": null,
      "daFootprintGasScalar": "0x94",
      "l1BaseFeeScalar": "0x44d",
      "l1BlobBaseFee": "0x1ab0a",
      "l1BlobBaseFeeScalar": "0xa118b",
      "l1Fee": "0x73c143",
      "l1GasPrice": "0x339fb",
      "l1GasUsed": "0x640"
    },
    {
      "status": "0x1",
      "cumulativeGasUsed": "0xb6420",
      "logs": [
        {
          "address": "0x32c344dc9713d904442d0e5b0d2b7994e52b0d4e",
          "topics": [
            "0xddf252ad1be2c89b69c2b068fc378daa952ba7f163c4a11628f55a4df523b3ef",
            "0x000000000000000000000000ff6bdef4fb646ee44e29fe8fc0862b02f0ba8a33",
            "0x000000000000000000000000d5bf655644398f0aea2c6c7d5178cf9920afbfd2"
          ],
          "data": "0x0000000000000000000000000000000000000000000000000000000006021600",
          "blockHash": "0x0ef41dd3fc786ad70ab81567d20398835631e6dfa34225278bdd338f6399c76e",
          "blockNumber": "0x26796d5",
          "blockTimestamp": "0x69e28c8a",
          "transactionHash": "0x1b16613da8e702686cc11560525b33f32b924507d87bc7233a19bd3e70c01316",
          "transactionIndex": "0x2",
          "logIndex": "0xb",
          "removed": false
        },
        {
          "address": "0xbb2ba6eefda0c56e7501f4834b871df59945e3bb",
          "topics": [
            "0xddf252ad1be2c89b69c2b068fc378daa952ba7f163c4a11628f55a4df523b3ef",
            "0x0000000000000000000000000000000000000000000000000000000000000000",
            "0x000000000000000000000000ff6bdef4fb646ee44e29fe8fc0862b02f0ba8a33"
          ],
          "data": "0x000000000000000000000000000000000000000000000025f273933db5700000",
          "blockHash": "0x0ef41dd3fc786ad70ab81567d20398835631e6dfa34225278bdd338f6399c76e",
          "blockNumber": "0x26796d5",
          "blockTimestamp": "0x69e28c8a",
          "transactionHash": "0x1b16613da8e702686cc11560525b33f32b924507d87bc7233a19bd3e70c01316",
          "transactionIndex": "0x2",
          "logIndex": "0xc",
          "removed": false
        },
        {
          "address": "0xd5bf655644398f0aea2c6c7d5178cf9920afbfd2",
          "topics": [
            "0x0b9c8304b83df3d2827b952a8e4c87faef3556dddcde57a47cb80f0c755606a5",
            "0x000000000000000000000000ff6bdef4fb646ee44e29fe8fc0862b02f0ba8a33",
            "0x00000000000000000000000032c344dc9713d904442d0e5b0d2b7994e52b0d4e"
          ],
          "data": "0x0000000000000000000000000000000000000000000000000000000006021600000000000000000000000000000000000000000000000025f273933db57000000000000000000000000000000000000000000000000000000000000000000000000000000000000000000000000000000000000000000025f273933db5700000",
          "blockHash": "0x0ef41dd3fc786ad70ab81567d20398835631e6dfa34225278bdd338f6399c76e",
          "blockNumber": "0x26796d5",
          "blockTimestamp": "0x69e28c8a",
          "transactionHash": "0x1b16613da8e702686cc11560525b33f32b924507d87bc7233a19bd3e70c01316",
          "transactionIndex": "0x2",
          "logIndex": "0xd",
          "removed": false
        },
        {
          "address": "0x32c344dc9713d904442d0e5b0d2b7994e52b0d4e",
          "topics": [
            "0xddf252ad1be2c89b69c2b068fc378daa952ba7f163c4a11628f55a4df523b3ef",
            "0x000000000000000000000000d5bf655644398f0aea2c6c7d5178cf9920afbfd2",
            "0x000000000000000000000000ff6bdef4fb646ee44e29fe8fc0862b02f0ba8a33"
          ],
          "data": "0x00000000000000000000000000000000000000000000000000000000001ec300",
          "blockHash": "0x0ef41dd3fc786ad70ab81567d20398835631e6dfa34225278bdd338f6399c76e",
          "blockNumber": "0x26796d5",
          "blockTimestamp": "0x69e28c8a",
          "transactionHash": "0x1b16613da8e702686cc11560525b33f32b924507d87bc7233a19bd3e70c01316",
          "transactionIndex": "0x2",
          "logIndex": "0xe",
          "removed": false
        },
        {
          "address": "0x32c344dc9713d904442d0e5b0d2b7994e52b0d4e",
          "topics": [
            "0xddf252ad1be2c89b69c2b068fc378daa952ba7f163c4a11628f55a4df523b3ef",
            "0x000000000000000000000000d5bf655644398f0aea2c6c7d5178cf9920afbfd2",
            "0x000000000000000000000000ff6bdef4fb646ee44e29fe8fc0862b02f0ba8a33"
          ],
          "data": "0x0000000000000000000000000000000000000000000000000000000005e35300",
          "blockHash": "0x0ef41dd3fc786ad70ab81567d20398835631e6dfa34225278bdd338f6399c76e",
          "blockNumber": "0x26796d5",
          "blockTimestamp": "0x69e28c8a",
          "transactionHash": "0x1b16613da8e702686cc11560525b33f32b924507d87bc7233a19bd3e70c01316",
          "transactionIndex": "0x2",
          "logIndex": "0xf",
          "removed": false
        },
        {
          "address": "0xd5bf655644398f0aea2c6c7d5178cf9920afbfd2",
          "topics": [
            "0x120bfc1de29621f7872a5b3129b6524ceb18df8c689a37496b8ee4007235dbc8"
          ],
          "data": "0x00000000000000000000000000000000000000000000000000000000000000000000000000000000000000000000000000000000000000000000000000000001",
          "blockHash": "0x0ef41dd3fc786ad70ab81567d20398835631e6dfa34225278bdd338f6399c76e",
          "blockNumber": "0x26796d5",
          "blockTimestamp": "0x69e28c8a",
          "transactionHash": "0x1b16613da8e702686cc11560525b33f32b924507d87bc7233a19bd3e70c01316",
          "transactionIndex": "0x2",
          "logIndex": "0x10",
          "removed": false
        },
        {
          "address": "0xd5bf655644398f0aea2c6c7d5178cf9920afbfd2",
          "topics": [
            "0xccb4518c7bb9cdee893961401854c0ac29fad869f3338dc3087c9215fa4ab9e1"
          ],
          "data": "0x0000000000000000000000000000000000000000000000000000000000000000000000000000000000000000000000000000000000000025f273933db5700000",
          "blockHash": "0x0ef41dd3fc786ad70ab81567d20398835631e6dfa34225278bdd338f6399c76e",
          "blockNumber": "0x26796d5",
          "blockTimestamp": "0x69e28c8a",
          "transactionHash": "0x1b16613da8e702686cc11560525b33f32b924507d87bc7233a19bd3e70c01316",
          "transactionIndex": "0x2",
          "logIndex": "0x11",
          "removed": false
        }
      ],
      "logsBloom": "0x00000000000000000000100000000000000400000000420000000000000008000000000000000000000000000000000000000000000000000000001000000000000000000000000000000008000010000000000000800001000000000000000000000000020000020000040000000800010000000000000000000010000000000000000000000000000000000000000000000000000000000101000000000000000000000000000000100020040200000000000000000000000000000000000000400002040000000000000020012000000400000000004000000000000020000004000000000000000000000000000000000000000000000000000000000080",
      "type": "0x2",
      "transactionHash": "0x1b16613da8e702686cc11560525b33f32b924507d87bc7233a19bd3e70c01316",
      "transactionIndex": "0x2",
      "blockHash": "0x0ef41dd3fc786ad70ab81567d20398835631e6dfa34225278bdd338f6399c76e",
      "blockNumber": "0x26796d5",
      "gasUsed": "0x48be0",
      "effectiveGasPrice": "0x5b8d80",
      "blobGasUsed": "0x39d0",
      "from": "0xff6bdef4fb646ee44e29fe8fc0862b02f0ba8a33",
      "to": "0xd5bf655644398f0aea2c6c7d5178cf9920afbfd2",
      "contractAddress": null,
      "daFootprintGasScalar": "0x94",
      "l1BaseFeeScalar": "0x44d",
      "l1BlobBaseFee": "0x17542",
      "l1BlobBaseFeeScalar": "0xa118b",
      "l1Fee": "0x65c585",
      "l1GasPrice": "0x32865",
      "l1GasUsed": "0x640"
    },
    {
      "status": "0x1",
      "cumulativeGasUsed": "0x86294",
      "logs": [
        {
          "address": "0xfc76be90153b5f834b8ebc15e18a339e50083cfb",
          "topics": [
            "0x8d160eff266df162107c57259a1f1e71787bd4ab800800826bd189d6f2f3e83c",
            "0x0000000000000000000000000000000000000000000000000000000000000001"
          ],
          "data": "0x0000000000000000000000000000000000000000000000000000000069e28c8e",
          "blockHash": "0xfb360d903971329a5806f0aa4bd558960dea0d2ac775c72367f74045e2e09bc3",
          "blockNumber": "0x26796d7",
          "blockTimestamp": "0x69e28c8e",
          "transactionHash": "0x051b6912d8068de14dfa421515afd224544ee29e91376bb75569e39e8b8d2e59",
          "transactionIndex": "0x2",
          "logIndex": "0xb",
          "removed": false
        }
      ],
      "logsBloom": "0x00000000800000000000000000000000000000000010000000000000000000000000000000000000000000000000000000000000000000000000000000040000000000008000000000000000000000000000000000040000000000000000000000000000000000000000000000000000000000000000000000000000000000000000000000000000000000000000000000000000000000000000000000000000000000000000000000000000080000000000000000000000000000000000000000000000000000000000200000000000000000000000000000000000000040000000000200000000000000000000000000000000000000000000000000000000",
      "type": "0x2",
      "transactionHash": "0x051b6912d8068de14dfa421515afd224544ee29e91376bb75569e39e8b8d2e59",
      "transactionIndex": "0x2",
      "blockHash": "0xfb360d903971329a5806f0aa4bd558960dea0d2ac775c72367f74045e2e09bc3",
      "blockNumber": "0x26796d7",
      "gasUsed": "0x248de",
      "effectiveGasPrice": "0x5b8d80",
      "blobGasUsed": "0x39d0",
      "from": "0xff6bdef4fb646ee44e29fe8fc0862b02f0ba8a33",
      "to": "0xd5bf655644398f0aea2c6c7d5178cf9920afbfd2",
      "contractAddress": null,
      "daFootprintGasScalar": "0x94",
      "l1BaseFeeScalar": "0x44d",
      "l1BlobBaseFee": "0x17542",
      "l1BlobBaseFeeScalar": "0xa118b",
      "l1Fee": "0x65c585",
      "l1GasPrice": "0x32865",
      "l1GasUsed": "0x640"
    },
    {
      "status": "0x1",
      "cumulativeGasUsed": "0x7f942",
      "logs": [
        {
          "address": "0xbb2ba6eefda0c56e7501f4834b871df59945e3bb",
          "topics": [
            "0x8c5be1e5ebec7d5bd14f71427d1e84f3dd0314c0f7b2291e5b200ac8c7c3b925",
            "0x000000000000000000000000ff6bdef4fb646ee44e29fe8fc0862b02f0ba8a33",
            "0x000000000000000000000000fc76be90153b5f834b8ebc15e18a339e50083cfb"
          ],
          "data": "0xffffffffffffffffffffffffffffffffffffffffffffffffffffffffffffffff",
          "blockHash": "0x91cd0241c29bdf528e2352b3c0ceaf2952eaeb2692ea084e33435111517865f7",
          "blockNumber": "0x26796d9",
          "blockTimestamp": "0x69e28c92",
          "transactionHash": "0x21fd0acd054007bfd5494f26dc90f32dc17d5ad9f2a349764e9bd1f630e21b22",
          "transactionIndex": "0x3",
          "logIndex": "0xc",
          "removed": false
        }
      ],
      "logsBloom": "0x00000000000000000000100000000000000400000000000000000000000000000000000000000000000000000000000000000000000000000000000000200000000000000000000000000000000000000000000000000001000000000000000000000000000000000000000000000000000000000000000000000000000000000000000000000000000000000000000000000000000000000000000000000010020000000000000000000000000000000000000000000000000000000000000000000000000000000000000020010000000000000000000000000000000000000014000000000000000000000000000000000000808000000000000000000000",
      "type": "0x2",
      "transactionHash": "0x21fd0acd054007bfd5494f26dc90f32dc17d5ad9f2a349764e9bd1f630e21b22",
      "transactionIndex": "0x3",
      "blockHash": "0x91cd0241c29bdf528e2352b3c0ceaf2952eaeb2692ea084e33435111517865f7",
      "blockNumber": "0x26796d9",
      "gasUsed": "0xc841",
      "effectiveGasPrice": "0x5b8d80",
      "blobGasUsed": "0x39d0",
      "from": "0xff6bdef4fb646ee44e29fe8fc0862b02f0ba8a33",
      "to": "0xbb2ba6eefda0c56e7501f4834b871df59945e3bb",
      "contractAddress": null,
      "daFootprintGasScalar": "0x94",
      "l1BaseFeeScalar": "0x44d",
      "l1BlobBaseFee": "0x17542",
      "l1BlobBaseFeeScalar": "0xa118b",
      "l1Fee": "0x65c585",
      "l1GasPrice": "0x32865",
      "l1GasUsed": "0x640"
    },
    {
      "status": "0x1",
      "cumulativeGasUsed": "0xeb875",
      "logs": [
        {
          "address": "0xbb2ba6eefda0c56e7501f4834b871df59945e3bb",
          "topics": [
            "0xddf252ad1be2c89b69c2b068fc378daa952ba7f163c4a11628f55a4df523b3ef",
            "0x000000000000000000000000ff6bdef4fb646ee44e29fe8fc0862b02f0ba8a33",
            "0x000000000000000000000000fc76be90153b5f834b8ebc15e18a339e50083cfb"
          ],
          "data": "0x000000000000000000000000000000000000000000000025f273933db5700000",
          "blockHash": "0x3a5662e5a4e4eb735bfef85ee07cf365df2db4fd5fa9f1316314a8aa9bda96c2",
          "blockNumber": "0x26796db",
          "blockTimestamp": "0x69e28c96",
          "transactionHash": "0x22cd8b9ba9b4379d2f6e4159cf17c0261a1712f55cc8a05095de728e6297afc8",
          "transactionIndex": "0x3",
          "logIndex": "0xf",
          "removed": false
        },
        {
          "address": "0xfc76be90153b5f834b8ebc15e18a339e50083cfb",
          "topics": [
            "0x9cfd25589d1eb8ad71e342a86a8524e83522e3936c0803048c08f6d9ad974f40",
            "0x000000000000000000000000ff6bdef4fb646ee44e29fe8fc0862b02f0ba8a33",
            "0x0000000000000000000000000000000000000000000000000000000000000000"
          ],
          "data": "0x000000000000000000000000000000000000000000000025f273933db5700000000000000000000000000000000000000000000000000025f273933db570000000000000000000000000000000000000000000000000000031f5c4ed27680000",
          "blockHash": "0x3a5662e5a4e4eb735bfef85ee07cf365df2db4fd5fa9f1316314a8aa9bda96c2",
          "blockNumber": "0x26796db",
          "blockTimestamp": "0x69e28c96",
          "transactionHash": "0x22cd8b9ba9b4379d2f6e4159cf17c0261a1712f55cc8a05095de728e6297afc8",
          "transactionIndex": "0x3",
          "logIndex": "0x10",
          "removed": false
        },
        {
          "address": "0xfc76be90153b5f834b8ebc15e18a339e50083cfb",
          "topics": [
            "0x875894a489de1b1b13bf2e6c03981e3ddabcf1794b4b94dc5ba5d8e855a1e2f9"
          ],
          "data": "0x00000000000000000000000000000000000000000000000031f5c4ed27680000000000000000000000000000000000000000000000000025f273933db570000000000000000000000000000000000000000000000000006c6b935b8bbd400000",
          "blockHash": "0x3a5662e5a4e4eb735bfef85ee07cf365df2db4fd5fa9f1316314a8aa9bda96c2",
          "blockNumber": "0x26796db",
          "blockTimestamp": "0x69e28c96",
          "transactionHash": "0x22cd8b9ba9b4379d2f6e4159cf17c0261a1712f55cc8a05095de728e6297afc8",
          "transactionIndex": "0x3",
          "logIndex": "0x11",
          "removed": false
        }
      ],
      "logsBloom": "0x00000000000000000000100000000000000400000010000000000000000000000000000000000000000000000000000000000000000000000008000000000000000000008000000000000008000000000000000000000001000000000000000000000000020000000000000000000800000000000000000000000010000000000000000000000000000000000000000000000000000000000000000000000010000000000000000000000010000000000000000000000000000000000000200000800002000000000000200020010000000000000000000000000000000020000004000000800000000000000000000000000000808000000000000000100000",
      "type": "0x2",
      "transactionHash": "0x22cd8b9ba9b4379d2f6e4159cf17c0261a1712f55cc8a05095de728e6297afc8",
      "transactionIndex": "0x3",
      "blockHash": "0x3a5662e5a4e4eb735bfef85ee07cf365df2db4fd5fa9f1316314a8aa9bda96c2",
      "blockNumber": "0x26796db",
      "gasUsed": "0x47cb2",
      "effectiveGasPrice": "0x5b8d80",
      "blobGasUsed": "0x39d0",
      "from": "0xff6bdef4fb646ee44e29fe8fc0862b02f0ba8a33",
      "to": "0xfc76be90153b5f834b8ebc15e18a339e50083cfb",
      "contractAddress": null,
      "daFootprintGasScalar": "0x94",
      "l1BaseFeeScalar": "0x44d",
      "l1BlobBaseFee": "0x17542",
      "l1BlobBaseFeeScalar": "0xa118b",
      "l1Fee": "0x65c585",
      "l1GasPrice": "0x32865",
      "l1GasUsed": "0x640"
    },
    {
      "status": "0x1",
      "cumulativeGasUsed": "0x5b62bf",
      "logs": [
        {
          "address": "0x32c344dc9713d904442d0e5b0d2b7994e52b0d4e",
          "topics": [
            "0xddf252ad1be2c89b69c2b068fc378daa952ba7f163c4a11628f55a4df523b3ef",
            "0x0000000000000000000000000000000000000000000000000000000000000000",
            "0x000000000000000000000000455ab6723ccab4cb62983710c33f6311cc85bc97"
          ],
          "data": "0x0000000000000000000000000000000000000000000000000000000002faf080",
          "blockHash": "0x07c9020f6910d18ecd39a61e70dca67f2780b410e07ab55e894ab400b7be8a31",
          "blockNumber": "0x26796dc",
          "blockTimestamp": "0x69e28c98",
          "transactionHash": "0xb73b4dcc83a2b1a5ed17ad550aaf0a2464886804c08ff32c40447e8cf5c5d05a",
          "transactionIndex": "0x14",
          "logIndex": "0xe8",
          "removed": false
        }
      ],
      "logsBloom": "0x00000000000000000000000000000000000000000000000000000000000000000000000000000000000000000000000000000000000000000000000000000000000000000000000000000008000000000000000000000000000000000000000000000000020000000000000000000800010000000000000000000010000100000000000000000000000000000002000000000000000000000001000000000000000000000000000000000000000000000000000000000000000000000000000000000002040000000000000000000000000000000000000000000000000020000000000000000000000000000000000000000000000000008000000000000000",
      "type": "0x2",
      "transactionHash": "0xb73b4dcc83a2b1a5ed17ad550aaf0a2464886804c08ff32c40447e8cf5c5d05a",
      "transactionIndex": "0x14",
      "blockHash": "0x07c9020f6910d18ecd39a61e70dca67f2780b410e07ab55e894ab400b7be8a31",
      "blockNumber": "0x26796dc",
      "gasUsed": "0xc734",
      "effectiveGasPrice": "0x5b8d80",
      "blobGasUsed": "0x39d0",
      "from": "0xff6bdef4fb646ee44e29fe8fc0862b02f0ba8a33",
      "to": "0x32c344dc9713d904442d0e5b0d2b7994e52b0d4e",
      "contractAddress": null,
      "daFootprintGasScalar": "0x94",
      "l1BaseFeeScalar": "0x44d",
      "l1BlobBaseFee": "0x17542",
      "l1BlobBaseFeeScalar": "0xa118b",
      "l1Fee": "0x65c585",
      "l1GasPrice": "0x32865",
      "l1GasUsed": "0x640"
    },
    {
      "status": "0x1",
      "cumulativeGasUsed": "0x6f9747",
      "logs": [
        {
          "address": "0x32c344dc9713d904442d0e5b0d2b7994e52b0d4e",
          "topics": [
            "0x8c5be1e5ebec7d5bd14f71427d1e84f3dd0314c0f7b2291e5b200ac8c7c3b925",
            "0x000000000000000000000000455ab6723ccab4cb62983710c33f6311cc85bc97",
            "0x000000000000000000000000d5bf655644398f0aea2c6c7d5178cf9920afbfd2"
          ],
          "data": "0xffffffffffffffffffffffffffffffffffffffffffffffffffffffffffffffff",
          "blockHash": "0xb1da5016f76ddd01284343352ebd868193270ef18a5d2ffa9d176ab1f25ff8fe",
          "blockNumber": "0x26796dd",
          "blockTimestamp": "0x69e28c9a",
          "transactionHash": "0x9e35b48b9b552639b3d3362053176335882c96080f9f1807c2badf99c159ac68",
          "transactionIndex": "0x13",
          "logIndex": "0x67",
          "removed": false
        }
      ],
      "logsBloom": "0x00000000000000000000000000000000000000000000020000000000000000000000000000000000000000000000000000000000000000000000001000200000000000000000000000000000000000000000000000000000000000000000000000000000000000000000000000000000010000000000000000000000000100000000000000000000000000000002000000000000000000000001000000000000020000000000000000000000000000000000000000000000000000000000000000000000040000000000000000000000000000000000000000000000000000000010000000000000000000000000000000000000000000008000000000000080",
      "type": "0x2",
      "transactionHash": "0x9e35b48b9b552639b3d3362053176335882c96080f9f1807c2badf99c159ac68",
      "transactionIndex": "0x13",
      "blockHash": "0xb1da5016f76ddd01284343352ebd868193270ef18a5d2ffa9d176ab1f25ff8fe",
      "blockNumber": "0x26796dd",
      "gasUsed": "0xb4cb",
      "effectiveGasPrice": "0x5b8d80",
      "blobGasUsed": "0x39d0",
      "from": "0x455ab6723ccab4cb62983710c33f6311cc85bc97",
      "to": "0x32c344dc9713d904442d0e5b0d2b7994e52b0d4e",
      "contractAddress": null,
      "daFootprintGasScalar": "0x94",
      "l1BaseFeeScalar": "0x44d",
      "l1BlobBaseFee": "0x17542",
      "l1BlobBaseFeeScalar": "0xa118b",
      "l1Fee": "0x65c585",
      "l1GasPrice": "0x32865",
      "l1GasUsed": "0x640"
    },
    {
      "status": "0x1",
      "cumulativeGasUsed": "0x68096d",
      "logs": [
        {
          "address": "0x32c344dc9713d904442d0e5b0d2b7994e52b0d4e",
          "topics": [
            "0xddf252ad1be2c89b69c2b068fc378daa952ba7f163c4a11628f55a4df523b3ef",
            "0x000000000000000000000000455ab6723ccab4cb62983710c33f6311cc85bc97",
            "0x000000000000000000000000d5bf655644398f0aea2c6c7d5178cf9920afbfd2"
          ],
          "data": "0x0000000000000000000000000000000000000000000000000000000002932e00",
          "blockHash": "0x8f52a2ca7944262aa74cc4714152be43e3668451e02b2d378dd735be108a2376",
          "blockNumber": "0x26796de",
          "blockTimestamp": "0x69e28c9c",
          "transactionHash": "0x4fa6a38bce53e161729635deae54f4e5ca918099a9d952bda295548d6c190de7",
          "transactionIndex": "0x17",
          "logIndex": "0xd7",
          "removed": false
        },
        {
          "address": "0x32c344dc9713d904442d0e5b0d2b7994e52b0d4e",
          "topics": [
            "0xddf252ad1be2c89b69c2b068fc378daa952ba7f163c4a11628f55a4df523b3ef",
            "0x000000000000000000000000d5bf655644398f0aea2c6c7d5178cf9920afbfd2",
            "0x000000000000000000000000ff6bdef4fb646ee44e29fe8fc0862b02f0ba8a33"
          ],
          "data": "0x0000000000000000000000000000000000000000000000000000000002932e00",
          "blockHash": "0x8f52a2ca7944262aa74cc4714152be43e3668451e02b2d378dd735be108a2376",
          "blockNumber": "0x26796de",
          "blockTimestamp": "0x69e28c9c",
          "transactionHash": "0x4fa6a38bce53e161729635deae54f4e5ca918099a9d952bda295548d6c190de7",
          "transactionIndex": "0x17",
          "logIndex": "0xd8",
          "removed": false
        },
        {
          "address": "0xbb2ba6eefda0c56e7501f4834b871df59945e3bb",
          "topics": [
            "0xddf252ad1be2c89b69c2b068fc378daa952ba7f163c4a11628f55a4df523b3ef",
            "0x0000000000000000000000000000000000000000000000000000000000000000",
            "0x000000000000000000000000455ab6723ccab4cb62983710c33f6311cc85bc97"
          ],
          "data": "0x00000000000000000000000000000000000000000000001043561a8829300000",
          "blockHash": "0x8f52a2ca7944262aa74cc4714152be43e3668451e02b2d378dd735be108a2376",
          "blockNumber": "0x26796de",
          "blockTimestamp": "0x69e28c9c",
          "transactionHash": "0x4fa6a38bce53e161729635deae54f4e5ca918099a9d952bda295548d6c190de7",
          "transactionIndex": "0x17",
          "logIndex": "0xd9",
          "removed": false
        },
        {
          "address": "0xd5bf655644398f0aea2c6c7d5178cf9920afbfd2",
          "topics": [
            "0x0b9c8304b83df3d2827b952a8e4c87faef3556dddcde57a47cb80f0c755606a5",
            "0x000000000000000000000000455ab6723ccab4cb62983710c33f6311cc85bc97",
            "0x00000000000000000000000032c344dc9713d904442d0e5b0d2b7994e52b0d4e"
          ],
          "data": "0x0000000000000000000000000000000000000000000000000000000002932e0000000000000000000000000000000000000000000000001043561a8829300000000000000000000000000000000000000000000000000000000000000000000000000000000000000000000000000000000000000000003635c9adc5dea00000",
          "blockHash": "0x8f52a2ca7944262aa74cc4714152be43e3668451e02b2d378dd735be108a2376",
          "blockNumber": "0x26796de",
          "blockTimestamp": "0x69e28c9c",
          "transactionHash": "0x4fa6a38bce53e161729635deae54f4e5ca918099a9d952bda295548d6c190de7",
          "transactionIndex": "0x17",
          "logIndex": "0xda",
          "removed": false
        }
      ],
      "logsBloom": "0x00000000000000000000100000000000000400000000020000000000000000000000000000000000000000000000000000000000000000000000001000000000000000000000000000000008000010000000000000000001000000000000000000000000020000020000040000000800010000000000000000000010000100000000000000000000000000000002000000000000000000000101000000000000000000000000000000000000040200000000000000000000000000000000000000400002040000000000000020010000000400000000004000000000000020000004000000000000000000000000000000000000000000008000000000000080",
      "type": "0x2",
      "transactionHash": "0x4fa6a38bce53e161729635deae54f4e5ca918099a9d952bda295548d6c190de7",
      "transactionIndex": "0x17",
      "blockHash": "0x8f52a2ca7944262aa74cc4714152be43e3668451e02b2d378dd735be108a2376",
      "blockNumber": "0x26796de",
      "gasUsed": "0x2696f",
      "effectiveGasPrice": "0x5b8d80",
      "blobGasUsed": "0x39d0",
      "from": "0x455ab6723ccab4cb62983710c33f6311cc85bc97",
      "to": "0xd5bf655644398f0aea2c6c7d5178cf9920afbfd2",
      "contractAddress": null,
      "daFootprintGasScalar": "0x94",
      "l1BaseFeeScalar": "0x44d",
      "l1BlobBaseFee": "0x17542",
      "l1BlobBaseFeeScalar": "0xa118b",
      "l1Fee": "0x65c585",
      "l1GasPrice": "0x32865",
      "l1GasUsed": "0x640"
    },
    {
      "status": "0x1",
      "cumulativeGasUsed": "0x21398",
      "logs": [
        {
          "address": "0xbb2ba6eefda0c56e7501f4834b871df59945e3bb",
          "topics": [
            "0x8c5be1e5ebec7d5bd14f71427d1e84f3dd0314c0f7b2291e5b200ac8c7c3b925",
            "0x000000000000000000000000455ab6723ccab4cb62983710c33f6311cc85bc97",
            "0x000000000000000000000000fc76be90153b5f834b8ebc15e18a339e50083cfb"
          ],
          "data": "0xffffffffffffffffffffffffffffffffffffffffffffffffffffffffffffffff",
          "blockHash": "0x0815b7477b280c6cd1205c88a9f2847368e406f29d0130a719e35d818a15a28b",
          "blockNumber": "0x26796e0",
          "blockTimestamp": "0x69e28ca0",
          "transactionHash": "0x89f300ba3613eaf8bd264396b18270a3cac60cdc4980c57544262814f4b0a417",
          "transactionIndex": "0x2",
          "logIndex": "0x1",
          "removed": false
        }
      ],
      "logsBloom": "0x00000000000000000000000000000000000400000000000000000000000000000000000000000000000000000000000000000000000000000000000000200000000000000000000000000000000000000000000000000000000000000000000000000000000000000000000000000000000000000000000000000000000100000000000000000000000000000002000000000000000000000000000000000010020000000000000000000000000000000000000000000000000000000000000000000000000000000000000020000000000000000000000000000000000000000014000000000000000000000000000000000000808000008000000000000000",
      "type": "0x2",
      "transactionHash": "0x89f300ba3613eaf8bd264396b18270a3cac60cdc4980c57544262814f4b0a417",
      "transactionIndex": "0x2",
      "blockHash": "0x0815b7477b280c6cd1205c88a9f2847368e406f29d0130a719e35d818a15a28b",
      "blockNumber": "0x26796e0",
      "gasUsed": "0xc841",
      "effectiveGasPrice": "0x5b8d80",
      "blobGasUsed": "0x39d0",
      "from": "0x455ab6723ccab4cb62983710c33f6311cc85bc97",
      "to": "0xbb2ba6eefda0c56e7501f4834b871df59945e3bb",
      "contractAddress": null,
      "daFootprintGasScalar": "0x94",
      "l1BaseFeeScalar": "0x44d",
      "l1BlobBaseFee": "0x17542",
      "l1BlobBaseFeeScalar": "0xa118b",
      "l1Fee": "0x65c585",
      "l1GasPrice": "0x32865",
      "l1GasUsed": "0x640"
    },
    {
      "status": "0x1",
      "cumulativeGasUsed": "0x60a784",
      "logs": [
        {
          "address": "0xbb2ba6eefda0c56e7501f4834b871df59945e3bb",
          "topics": [
            "0xddf252ad1be2c89b69c2b068fc378daa952ba7f163c4a11628f55a4df523b3ef",
            "0x000000000000000000000000455ab6723ccab4cb62983710c33f6311cc85bc97",
            "0x000000000000000000000000fc76be90153b5f834b8ebc15e18a339e50083cfb"
          ],
          "data": "0x00000000000000000000000000000000000000000000001043561a8829300000",
          "blockHash": "0xba175c2a3bc808e752e03a934ae051f7de9c5c0b2de72c0d4a38a74e4e78f290",
          "blockNumber": "0x26796e1",
          "blockTimestamp": "0x69e28ca2",
          "transactionHash": "0x6842428f77e6656c185ac5af86bfefc8f63e67cb7e889c89ebf1a23962c16020",
          "transactionIndex": "0x17",
          "logIndex": "0xe0",
          "removed": false
        },
        {
          "address": "0xfc76be90153b5f834b8ebc15e18a339e50083cfb",
          "topics": [
            "0x9cfd25589d1eb8ad71e342a86a8524e83522e3936c0803048c08f6d9ad974f40",
            "0x000000000000000000000000455ab6723ccab4cb62983710c33f6311cc85bc97",
            "0x0000000000000000000000000000000000000000000000000000000000000001"
          ],
          "data": "0x00000000000000000000000000000000000000000000001043561a882930000000000000000000000000000000000000000000000000003635c9adc5dea0000000000000000000000000000000000000000000000000000029a2241af62c0000",
          "blockHash": "0xba175c2a3bc808e752e03a934ae051f7de9c5c0b2de72c0d4a38a74e4e78f290",
          "blockNumber": "0x26796e1",
          "blockTimestamp": "0x69e28ca2",
          "transactionHash": "0x6842428f77e6656c185ac5af86bfefc8f63e67cb7e889c89ebf1a23962c16020",
          "transactionIndex": "0x17",
          "logIndex": "0xe1",
          "removed": false
        },
        {
          "address": "0xfc76be90153b5f834b8ebc15e18a339e50083cfb",
          "topics": [
            "0x875894a489de1b1b13bf2e6c03981e3ddabcf1794b4b94dc5ba5d8e855a1e2f9"
          ],
          "data": "0x00000000000000000000000000000000000000000000000029a2241af62c000000000000000000000000000000000000000000000000003635c9adc5dea0000000000000000000000000000000000000000000000000006c6b935b8bbd400000",
          "blockHash": "0xba175c2a3bc808e752e03a934ae051f7de9c5c0b2de72c0d4a38a74e4e78f290",
          "blockNumber": "0x26796e1",
          "blockTimestamp": "0x69e28ca2",
          "transactionHash": "0x6842428f77e6656c185ac5af86bfefc8f63e67cb7e889c89ebf1a23962c16020",
          "transactionIndex": "0x17",
          "logIndex": "0xe2",
          "removed": false
        }
      ],
      "logsBloom": "0x00000000000000000000000000000000000400000010000000000000000000000000000000000000000000000000000000000000000000000008000000040000000000008000000000000008000000000000000000040000000000000000000000000000000000000000000000000000000000000000000000000010000100000000000000000000000000000002000000000000000000000000000000000010000000000000000000000010000000000000000000000000000000000000200000800002000000000000200020000000000000000000000000000000000040000004000000800000000000000000000000000000808000008000000000100000",
      "type": "0x2",
      "transactionHash": "0x6842428f77e6656c185ac5af86bfefc8f63e67cb7e889c89ebf1a23962c16020",
      "transactionIndex": "0x17",
      "blockHash": "0xba175c2a3bc808e752e03a934ae051f7de9c5c0b2de72c0d4a38a74e4e78f290",
      "blockNumber": "0x26796e1",
      "gasUsed": "0x4ade9",
      "effectiveGasPrice": "0x5b8d80",
      "blobGasUsed": "0x39d0",
      "from": "0x455ab6723ccab4cb62983710c33f6311cc85bc97",
      "to": "0xfc76be90153b5f834b8ebc15e18a339e50083cfb",
      "contractAddress": null,
      "daFootprintGasScalar": "0x94",
      "l1BaseFeeScalar": "0x44d",
      "l1BlobBaseFee": "0x18acb",
      "l1BlobBaseFeeScalar": "0xa118b",
      "l1Fee": "0x6b3022",
      "l1GasPrice": "0x314e0",
      "l1GasUsed": "0x640"
    }
  ],
  "libraries": [],
  "pending": [],
  "returns": {},
  "timestamp": 1776454818398,
  "chain": 84532,
  "commit": "2eee8c0"
}