{
  "transactions": [
    {
      "hash": "0xe4121fca8cba7f098897de8e7b64aabd3669ae6f78b82eba34bdebc47248bbb5",
      "transactionType": "CALL",
      "contractName": "TransparentUpgradeableProxy",
      "contractAddress": "0x91fd5c9d274c519a152af14223bd10ed0b446bdd",
      "function": null,
      "arguments": null,
      "transaction": {
        "from": "0xff6bdef4fb646ee44e29fe8fc0862b02f0ba8a33",
        "to": "0x91fd5c9d274c519a152af14223bd10ed0b446bdd",
        "gas": "0x53ba45",
        "value": "0x0",
        "input": "0x8480fd830000000000000000000000000000000000000000000000000000000000000020000000000000000000000000ff6bdef4fb646ee44e29fe8fc0862b02f0ba8a3300000000000000000000000000000000000000000000000000000000000001c000000000000000000000000000000000000000000000000000000000000002000000000000000000000000000000000000000000000000000000000000000240000000000000000000000000000000000000000000000000000000000000028000000000000000000000000000000000000000000000000001ff973cafa8000000000000000000000000000000000000000000000000001b1ae4d6e2ef50000000000000000000000000000000000000000000000000006c6b935b8bbd4000000000000000000000000000000000000000000000000000000000000069f1b52200000000000000000000000000000000000000000000000000000000000007080000000000000000000000000000000000000000000000000de0b6b3a764000000000000000000000000000000000000000000000000000000000000000003e800000000000000000000000000000000000000000000010f0cf064dd59200000000000000000000000000000000000000000000000000000000000000000000300000000000000000000000000000000000000000000000000000000000000104f6c6976652049475020536963696c790000000000000000000000000000000000000000000000000000000000000000000000000000000000000000000000054f4c495645000000000000000000000000000000000000000000000000000000000000000000000000000000000000000000000000000000000000000000000b4f6c697665205969656c6400000000000000000000000000000000000000000000000000000000000000000000000000000000000000000000000000000000066f5949454c440000000000000000000000000000000000000000000000000000",
        "nonce": "0x88",
        "chainId": "0x14a34"
      },
      "additionalContracts": [
        {
          "transactionType": "CREATE",
          "contractName": "TransparentUpgradeableProxy",
          "address": "0xcb4eb2dbdf2cc94a00c595252faac257df0f6b8b",
          "initCode": "0x604060a08152610aac8038038061001581610268565b9283398101906060818303126102645761002e8161028d565b60209161003c83820161028d565b8582015190916001600160401b039190828211610264570185601f82011215610264578051908282116101ef5761007b601f8301601f19168701610268565b968288528683830101116102645785905f5b8381106102505750505f918701015284511561023f57823b1561021f577f360894a13ba1a3210667c828492db98dca3e2076cc3735a920a3ca505d382bbc80546001600160a01b03199081166001600160a01b03868116918217909355885192979195907fbc7cd75a20ee27fd9adebab32041f755214dbc6bffa90cc0225b39da2e5c2d3b5f80a28151156102035761012692506102a1565b505b85519161048391828401908111848210176101ef57868492879461062985391681520301905ff080156101e557831691826080527f7e644d79422f17c01e4894b5f4f588d331ebfa28653d42ae832dc59e38c9798f857fb53127684a568b3173ae13b9f8a6016e243e63b6e8ee1178d6a717850b5d6103958587549483519286168352820152a182156101ce5716179055516102f69081610333823960805181600f0152f35b8451633173bdd160e11b81525f6004820152602490fd5b84513d5f823e3d90fd5b634e487b7160e01b5f52604160045260245ffd5b5050346102105750610128565b63b398979f60e01b8152600490fd5b8551634c9c8ce360e01b81526001600160a01b0384166004820152602490fd5b85516330a289cf60e21b8152600490fd5b81810183015189820184015287920161008d565b5f80fd5b6040519190601f01601f191682016001600160401b038111838210176101ef57604052565b51906001600160a01b038216820361026457565b905f8091602081519101845af4808061031f575b156102d55750506040513d81523d5f602083013e60203d82010160405290565b156102fc57604051639996b31560e01b81526001600160a01b039091166004820152602490fd5b3d1561030d576040513d5f823e3d90fd5b60405163d6bda27560e01b8152600490fd5b503d1515806102b55750813b15156102b556fe60806040526001600160a01b03337f000000000000000000000000000000000000000000000000000000000000000082160361006a575f356001600160e01b03191663278f794360e11b14610060576040516334ad5dbb60e21b8152600490fd5b6100686100be565b005b5f80917f360894a13ba1a3210667c828492db98dca3e2076cc3735a920a3ca505d382bbc5416368280378136915af43d5f803e156100a6573d5ff35b3d5ffd5b634e487b7160e01b5f52604160045260245ffd5b3660041161015f57604036600319011261015f576004356001600160a01b0381169081900361015f576024359067ffffffffffffffff9081831161015f573660238401121561015f5782600401358281116101635760405192601f8201601f19908116603f011684019081118482101761016357604052808352366024828601011161015f576020815f92602461015d97018387013784010152610168565b565b5f80fd5b6100aa565b90813b156101ff577f360894a13ba1a3210667c828492db98dca3e2076cc3735a920a3ca505d382bbc80546001600160a01b0319166001600160a01b0384169081179091557fbc7cd75a20ee27fd9adebab32041f755214dbc6bffa90cc0225b39da2e5c2d3b5f80a28051156101e4576101e191610220565b50565b5050346101ed57565b60405163b398979f60e01b8152600490fd5b604051634c9c8ce360e01b81526001600160a01b0383166004820152602490fd5b905f8091602081519101845af48080610289575b156102465750506102436102a7565b90565b1561026e57604051639996b31560e01b81526001600160a01b03919091166004820152602490fd5b3d15155f0361029c5760405163d6bda27560e01b8152600490fd5b503d1515806102345750813b1515610234565b6040513d5f823e3d90fd5b604051903d82523d5f602084013e60203d83010160405256fea2646970667358221220371437a14d55b0192ed17af74450cdb0b22bf1f3d480185986e4348c96e968d064736f6c634300081800336080346100b957601f61048338819003918201601f19168301916001600160401b038311848410176100bd578084926020946040528339810103126100b957516001600160a01b0390818116908190036100b95780156100a1575f80546001600160a01b03198116831782556040519316907f8be0079c531659141344cd1fd0a4f28419497f9722a3daafe3b4186f6b6457e09080a36103b190816100d28239f35b604051631e4fbdf760e01b81525f6004820152602490fd5b5f80fd5b634e487b7160e01b5f52604160045260245ffdfe604060808152600480361015610013575f80fd5b5f915f3560e01c8063715018a6146102bb5780638da5cb5b146102945780639623609d1461015c578063ad3cb1cc146100eb5763f2fde38b14610054575f80fd5b346100e75760203660031901126100e7576001600160a01b038235818116939192908490036100e357610085610350565b83156100cd5750505f54826bffffffffffffffffffffffff60a01b8216175f55167f8be0079c531659141344cd1fd0a4f28419497f9722a3daafe3b4186f6b6457e05f80a380f35b51631e4fbdf760e01b8152908101849052602490fd5b5f80fd5b8280fd5b5082346101595780600319360112610159575080519080820182811067ffffffffffffffff821117610146576101429350815260058252640352e302e360dc1b602083015251918291602083526020830190610312565b0390f35b604184634e487b7160e01b5f525260245ffd5b80fd5b5060603660031901126100e3576001600160a01b03823581811693908490036100e35760249182359081168091036100e35767ffffffffffffffff906044358281116100e357366023820112156100e3578084013583811161028257865191601f8201601f19908116603f0116830185811184821017610270578852818352368783830101116100e357815f92886020930183860137830101526101fe610350565b863b156100e357610230965f92875180998194829363278f794360e11b8452898401528a8a8401526044830190610312565b039134905af1801561026657610244578580f35b909192938095501161025557505052005b604190634e487b7160e01b5f52525ffd5b84513d5f823e3d90fd5b87604188634e487b7160e01b5f52525ffd5b85604186634e487b7160e01b5f52525ffd5b50346100e3575f3660031901126100e3575f5490516001600160a01b039091168152602090f35b346100e3575f3660031901126100e3576102d3610350565b5f80546001600160a01b0319811682556001600160a01b03167f8be0079c531659141344cd1fd0a4f28419497f9722a3daafe3b4186f6b6457e08280a3005b91908251928382525f5b84811061033c575050825f602080949584010152601f8019910116010190565b60208183018101518483018201520161031c565b5f546001600160a01b0316330361036357565b60405163118cdaa760e01b8152336004820152602490fdfea26469706673582212202992a71449476404159c12582e1f3d5c014ae92bc1369e2e03b37152567a3c7d64736f6c6343000818003300000000000000000000000088008017bea558799a73b5479f6ae159698b48a8000000000000000000000000ff6bdef4fb646ee44e29fe8fc0862b02f0ba8a33000000000000000000000000000000000000000000000000000000000000006000000000000000000000000000000000000000000000000000000000000001e47c34725f000000000000000000000000ff6bdef4fb646ee44e29fe8fc0862b02f0ba8a3300000000000000000000000091fd5c9d274c519a152af14223bd10ed0b446bdd00000000000000000000000000000000000000000000000001ff973cafa8000000000000000000000000000000000000000000000000001b1ae4d6e2ef50000000000000000000000000000000000000000000000000006c6b935b8bbd4000000000000000000000000000000000000000000000000000000000000069f1b522000000000000000000000000000000000000000000000000000000000000070800000000000000000000000000000000000000000000000000000000000000c8000000000000000000000000000000000000000000000000000000000000012c00000000000000000000000000000000000000000000000000000000000003e800000000000000000000000000000000000000000000010f0cf064dd592000000000000000000000000000000000000000000000000000000000000000000003000000000000000000000000ff6bdef4fb646ee44e29fe8fc0862b02f0ba8a330000000000000000000000000000000000000000000000000000000000000000000000000000000000000000f286970e2470948abb010b4dd35e1ad2da3397b000000000000000000000000000000000000000000000000000000000"
        },
        {
          "transactionType": "CREATE",
          "contractName": "ProxyAdmin",
          "address": "0x265eedd555bb08c2306f270d5bbd19f8b2370b43",
          "initCode": "0x6080346100b957601f61048338819003918201601f19168301916001600160401b038311848410176100bd578084926020946040528339810103126100b957516001600160a01b0390818116908190036100b95780156100a1575f80546001600160a01b03198116831782556040519316907f8be0079c531659141344cd1fd0a4f28419497f9722a3daafe3b4186f6b6457e09080a36103b190816100d28239f35b604051631e4fbdf760e01b81525f6004820152602490fd5b5f80fd5b634e487b7160e01b5f52604160045260245ffdfe604060808152600480361015610013575f80fd5b5f915f3560e01c8063715018a6146102bb5780638da5cb5b146102945780639623609d1461015c578063ad3cb1cc146100eb5763f2fde38b14610054575f80fd5b346100e75760203660031901126100e7576001600160a01b038235818116939192908490036100e357610085610350565b83156100cd5750505f54826bffffffffffffffffffffffff60a01b8216175f55167f8be0079c531659141344cd1fd0a4f28419497f9722a3daafe3b4186f6b6457e05f80a380f35b51631e4fbdf760e01b8152908101849052602490fd5b5f80fd5b8280fd5b5082346101595780600319360112610159575080519080820182811067ffffffffffffffff821117610146576101429350815260058252640352e302e360dc1b602083015251918291602083526020830190610312565b0390f35b604184634e487b7160e01b5f525260245ffd5b80fd5b5060603660031901126100e3576001600160a01b03823581811693908490036100e35760249182359081168091036100e35767ffffffffffffffff906044358281116100e357366023820112156100e3578084013583811161028257865191601f8201601f19908116603f0116830185811184821017610270578852818352368783830101116100e357815f92886020930183860137830101526101fe610350565b863b156100e357610230965f92875180998194829363278f794360e11b8452898401528a8a8401526044830190610312565b039134905af1801561026657610244578580f35b909192938095501161025557505052005b604190634e487b7160e01b5f52525ffd5b84513d5f823e3d90fd5b87604188634e487b7160e01b5f52525ffd5b85604186634e487b7160e01b5f52525ffd5b50346100e3575f3660031901126100e3575f5490516001600160a01b039091168152602090f35b346100e3575f3660031901126100e3576102d3610350565b5f80546001600160a01b0319811682556001600160a01b03167f8be0079c531659141344cd1fd0a4f28419497f9722a3daafe3b4186f6b6457e08280a3005b91908251928382525f5b84811061033c575050825f602080949584010152601f8019910116010190565b60208183018101518483018201520161031c565b5f546001600160a01b0316330361036357565b60405163118cdaa760e01b8152336004820152602490fdfea26469706673582212202992a71449476404159c12582e1f3d5c014ae92bc1369e2e03b37152567a3c7d64736f6c63430008180033000000000000000000000000ff6bdef4fb646ee44e29fe8fc0862b02f0ba8a33"
        },
        {
          "transactionType": "CREATE",
          "contractName": "TransparentUpgradeableProxy",
          "address": "0x7e72772c9f6a35486ea80e15a8974aa8f14c00a8",
          "initCode": "0x604060a08152610aac8038038061001581610268565b9283398101906060818303126102645761002e8161028d565b60209161003c83820161028d565b8582015190916001600160401b039190828211610264570185601f82011215610264578051908282116101ef5761007b601f8301601f19168701610268565b968288528683830101116102645785905f5b8381106102505750505f918701015284511561023f57823b1561021f577f360894a13ba1a3210667c828492db98dca3e2076cc3735a920a3ca505d382bbc80546001600160a01b03199081166001600160a01b03868116918217909355885192979195907fbc7cd75a20ee27fd9adebab32041f755214dbc6bffa90cc0225b39da2e5c2d3b5f80a28151156102035761012692506102a1565b505b85519161048391828401908111848210176101ef57868492879461062985391681520301905ff080156101e557831691826080527f7e644d79422f17c01e4894b5f4f588d331ebfa28653d42ae832dc59e38c9798f857fb53127684a568b3173ae13b9f8a6016e243e63b6e8ee1178d6a717850b5d6103958587549483519286168352820152a182156101ce5716179055516102f69081610333823960805181600f0152f35b8451633173bdd160e11b81525f6004820152602490fd5b84513d5f823e3d90fd5b634e487b7160e01b5f52604160045260245ffd5b5050346102105750610128565b63b398979f60e01b8152600490fd5b8551634c9c8ce360e01b81526001600160a01b0384166004820152602490fd5b85516330a289cf60e21b8152600490fd5b81810183015189820184015287920161008d565b5f80fd5b6040519190601f01601f191682016001600160401b038111838210176101ef57604052565b51906001600160a01b038216820361026457565b905f8091602081519101845af4808061031f575b156102d55750506040513d81523d5f602083013e60203d82010160405290565b156102fc57604051639996b31560e01b81526001600160a01b039091166004820152602490fd5b3d1561030d576040513d5f823e3d90fd5b60405163d6bda27560e01b8152600490fd5b503d1515806102b55750813b15156102b556fe60806040526001600160a01b03337f000000000000000000000000000000000000000000000000000000000000000082160361006a575f356001600160e01b03191663278f794360e11b14610060576040516334ad5dbb60e21b8152600490fd5b6100686100be565b005b5f80917f360894a13ba1a3210667c828492db98dca3e2076cc3735a920a3ca505d382bbc5416368280378136915af43d5f803e156100a6573d5ff35b3d5ffd5b634e487b7160e01b5f52604160045260245ffd5b3660041161015f57604036600319011261015f576004356001600160a01b0381169081900361015f576024359067ffffffffffffffff9081831161015f573660238401121561015f5782600401358281116101635760405192601f8201601f19908116603f011684019081118482101761016357604052808352366024828601011161015f576020815f92602461015d97018387013784010152610168565b565b5f80fd5b6100aa565b90813b156101ff577f360894a13ba1a3210667c828492db98dca3e2076cc3735a920a3ca505d382bbc80546001600160a01b0319166001600160a01b0384169081179091557fbc7cd75a20ee27fd9adebab32041f755214dbc6bffa90cc0225b39da2e5c2d3b5f80a28051156101e4576101e191610220565b50565b5050346101ed57565b60405163b398979f60e01b8152600490fd5b604051634c9c8ce360e01b81526001600160a01b0383166004820152602490fd5b905f8091602081519101845af48080610289575b156102465750506102436102a7565b90565b1561026e57604051639996b31560e01b81526001600160a01b03919091166004820152602490fd5b3d15155f0361029c5760405163d6bda27560e01b8152600490fd5b503d1515806102345750813b1515610234565b6040513d5f823e3d90fd5b604051903d82523d5f602084013e60203d83010160405256fea2646970667358221220371437a14d55b0192ed17af74450cdb0b22bf1f3d480185986e4348c96e968d064736f6c634300081800336080346100b957601f61048338819003918201601f19168301916001600160401b038311848410176100bd578084926020946040528339810103126100b957516001600160a01b0390818116908190036100b95780156100a1575f80546001600160a01b03198116831782556040519316907f8be0079c531659141344cd1fd0a4f28419497f9722a3daafe3b4186f6b6457e09080a36103b190816100d28239f35b604051631e4fbdf760e01b81525f6004820152602490fd5b5f80fd5b634e487b7160e01b5f52604160045260245ffdfe604060808152600480361015610013575f80fd5b5f915f3560e01c8063715018a6146102bb5780638da5cb5b146102945780639623609d1461015c578063ad3cb1cc146100eb5763f2fde38b14610054575f80fd5b346100e75760203660031901126100e7576001600160a01b038235818116939192908490036100e357610085610350565b83156100cd5750505f54826bffffffffffffffffffffffff60a01b8216175f55167f8be0079c531659141344cd1fd0a4f28419497f9722a3daafe3b4186f6b6457e05f80a380f35b51631e4fbdf760e01b8152908101849052602490fd5b5f80fd5b8280fd5b5082346101595780600319360112610159575080519080820182811067ffffffffffffffff821117610146576101429350815260058252640352e302e360dc1b602083015251918291602083526020830190610312565b0390f35b604184634e487b7160e01b5f525260245ffd5b80fd5b5060603660031901126100e3576001600160a01b03823581811693908490036100e35760249182359081168091036100e35767ffffffffffffffff906044358281116100e357366023820112156100e3578084013583811161028257865191601f8201601f19908116603f0116830185811184821017610270578852818352368783830101116100e357815f92886020930183860137830101526101fe610350565b863b156100e357610230965f92875180998194829363278f794360e11b8452898401528a8a8401526044830190610312565b039134905af1801561026657610244578580f35b909192938095501161025557505052005b604190634e487b7160e01b5f52525ffd5b84513d5f823e3d90fd5b87604188634e487b7160e01b5f52525ffd5b85604186634e487b7160e01b5f52525ffd5b50346100e3575f3660031901126100e3575f5490516001600160a01b039091168152602090f35b346100e3575f3660031901126100e3576102d3610350565b5f80546001600160a01b0319811682556001600160a01b03167f8be0079c531659141344cd1fd0a4f28419497f9722a3daafe3b4186f6b6457e08280a3005b91908251928382525f5b84811061033c575050825f602080949584010152601f8019910116010190565b60208183018101518483018201520161031c565b5f546001600160a01b0316330361036357565b60405163118cdaa760e01b8152336004820152602490fdfea26469706673582212202992a71449476404159c12582e1f3d5c014ae92bc1369e2e03b37152567a3c7d64736f6c63430008180033000000000000000000000000d5a38db79b7385af025a2cf925ac4b17304a28af000000000000000000000000ff6bdef4fb646ee44e29fe8fc0862b02f0ba8a33000000000000000000000000000000000000000000000000000000000000006000000000000000000000000000000000000000000000000000000000000000e4077f224a000000000000000000000000000000000000000000000000000000000000006000000000000000000000000000000000000000000000000000000000000000a0000000000000000000000000cb4eb2dbdf2cc94a00c595252faac257df0f6b8b00000000000000000000000000000000000000000000000000000000000000104f6c6976652049475020536963696c790000000000000000000000000000000000000000000000000000000000000000000000000000000000000000000000054f4c49564500000000000000000000000000000000000000000000000000000000000000000000000000000000000000000000000000000000000000"
        },
        {
          "transactionType": "CREATE",
          "contractName": "ProxyAdmin",
          "address": "0xf613d35dc65284e3f0619687ffe4326a34d1d13a",
          "initCode": "0x6080346100b957601f61048338819003918201601f19168301916001600160401b038311848410176100bd578084926020946040528339810103126100b957516001600160a01b0390818116908190036100b95780156100a1575f80546001600160a01b03198116831782556040519316907f8be0079c531659141344cd1fd0a4f28419497f9722a3daafe3b4186f6b6457e09080a36103b190816100d28239f35b604051631e4fbdf760e01b81525f6004820152602490fd5b5f80fd5b634e487b7160e01b5f52604160045260245ffdfe604060808152600480361015610013575f80fd5b5f915f3560e01c8063715018a6146102bb5780638da5cb5b146102945780639623609d1461015c578063ad3cb1cc146100eb5763f2fde38b14610054575f80fd5b346100e75760203660031901126100e7576001600160a01b038235818116939192908490036100e357610085610350565b83156100cd5750505f54826bffffffffffffffffffffffff60a01b8216175f55167f8be0079c531659141344cd1fd0a4f28419497f9722a3daafe3b4186f6b6457e05f80a380f35b51631e4fbdf760e01b8152908101849052602490fd5b5f80fd5b8280fd5b5082346101595780600319360112610159575080519080820182811067ffffffffffffffff821117610146576101429350815260058252640352e302e360dc1b602083015251918291602083526020830190610312565b0390f35b604184634e487b7160e01b5f525260245ffd5b80fd5b5060603660031901126100e3576001600160a01b03823581811693908490036100e35760249182359081168091036100e35767ffffffffffffffff906044358281116100e357366023820112156100e3578084013583811161028257865191601f8201601f19908116603f0116830185811184821017610270578852818352368783830101116100e357815f92886020930183860137830101526101fe610350565b863b156100e357610230965f92875180998194829363278f794360e11b8452898401528a8a8401526044830190610312565b039134905af1801561026657610244578580f35b909192938095501161025557505052005b604190634e487b7160e01b5f52525ffd5b84513d5f823e3d90fd5b87604188634e487b7160e01b5f52525ffd5b85604186634e487b7160e01b5f52525ffd5b50346100e3575f3660031901126100e3575f5490516001600160a01b039091168152602090f35b346100e3575f3660031901126100e3576102d3610350565b5f80546001600160a01b0319811682556001600160a01b03167f8be0079c531659141344cd1fd0a4f28419497f9722a3daafe3b4186f6b6457e08280a3005b91908251928382525f5b84811061033c575050825f602080949584010152601f8019910116010190565b60208183018101518483018201520161031c565b5f546001600160a01b0316330361036357565b60405163118cdaa760e01b8152336004820152602490fdfea26469706673582212202992a71449476404159c12582e1f3d5c014ae92bc1369e2e03b37152567a3c7d64736f6c63430008180033000000000000000000000000ff6bdef4fb646ee44e29fe8fc0862b02f0ba8a33"
        },
        {
          "transactionType": "CREATE",
          "contractName": "TransparentUpgradeableProxy",
          "address": "0xc8aee8ed5fbf01153de2bb1067a98d24f2a9e6dd",
          "initCode": "0x604060a08152610aac8038038061001581610268565b9283398101906060818303126102645761002e8161028d565b60209161003c83820161028d565b8582015190916001600160401b039190828211610264570185601f82011215610264578051908282116101ef5761007b601f8301601f19168701610268565b968288528683830101116102645785905f5b8381106102505750505f918701015284511561023f57823b1561021f577f360894a13ba1a3210667c828492db98dca3e2076cc3735a920a3ca505d382bbc80546001600160a01b03199081166001600160a01b03868116918217909355885192979195907fbc7cd75a20ee27fd9adebab32041f755214dbc6bffa90cc0225b39da2e5c2d3b5f80a28151156102035761012692506102a1565b505b85519161048391828401908111848210176101ef57868492879461062985391681520301905ff080156101e557831691826080527f7e644d79422f17c01e4894b5f4f588d331ebfa28653d42ae832dc59e38c9798f857fb53127684a568b3173ae13b9f8a6016e243e63b6e8ee1178d6a717850b5d6103958587549483519286168352820152a182156101ce5716179055516102f69081610333823960805181600f0152f35b8451633173bdd160e11b81525f6004820152602490fd5b84513d5f823e3d90fd5b634e487b7160e01b5f52604160045260245ffd5b5050346102105750610128565b63b398979f60e01b8152600490fd5b8551634c9c8ce360e01b81526001600160a01b0384166004820152602490fd5b85516330a289cf60e21b8152600490fd5b81810183015189820184015287920161008d565b5f80fd5b6040519190601f01601f191682016001600160401b038111838210176101ef57604052565b51906001600160a01b038216820361026457565b905f8091602081519101845af4808061031f575b156102d55750506040513d81523d5f602083013e60203d82010160405290565b156102fc57604051639996b31560e01b81526001600160a01b039091166004820152602490fd5b3d1561030d576040513d5f823e3d90fd5b60405163d6bda27560e01b8152600490fd5b503d1515806102b55750813b15156102b556fe60806040526001600160a01b03337f000000000000000000000000000000000000000000000000000000000000000082160361006a575f356001600160e01b03191663278f794360e11b14610060576040516334ad5dbb60e21b8152600490fd5b6100686100be565b005b5f80917f360894a13ba1a3210667c828492db98dca3e2076cc3735a920a3ca505d382bbc5416368280378136915af43d5f803e156100a6573d5ff35b3d5ffd5b634e487b7160e01b5f52604160045260245ffd5b3660041161015f57604036600319011261015f576004356001600160a01b0381169081900361015f576024359067ffffffffffffffff9081831161015f573660238401121561015f5782600401358281116101635760405192601f8201601f19908116603f011684019081118482101761016357604052808352366024828601011161015f576020815f92602461015d97018387013784010152610168565b565b5f80fd5b6100aa565b90813b156101ff577f360894a13ba1a3210667c828492db98dca3e2076cc3735a920a3ca505d382bbc80546001600160a01b0319166001600160a01b0384169081179091557fbc7cd75a20ee27fd9adebab32041f755214dbc6bffa90cc0225b39da2e5c2d3b5f80a28051156101e4576101e191610220565b50565b5050346101ed57565b60405163b398979f60e01b8152600490fd5b604051634c9c8ce360e01b81526001600160a01b0383166004820152602490fd5b905f8091602081519101845af48080610289575b156102465750506102436102a7565b90565b1561026e57604051639996b31560e01b81526001600160a01b03919091166004820152602490fd5b3d15155f0361029c5760405163d6bda27560e01b8152600490fd5b503d1515806102345750813b1515610234565b6040513d5f823e3d90fd5b604051903d82523d5f602084013e60203d83010160405256fea2646970667358221220371437a14d55b0192ed17af74450cdb0b22bf1f3d480185986e4348c96e968d064736f6c634300081800336080346100b957601f61048338819003918201601f19168301916001600160401b038311848410176100bd578084926020946040528339810103126100b957516001600160a01b0390818116908190036100b95780156100a1575f80546001600160a01b03198116831782556040519316907f8be0079c531659141344cd1fd0a4f28419497f9722a3daafe3b4186f6b6457e09080a36103b190816100d28239f35b604051631e4fbdf760e01b81525f6004820152602490fd5b5f80fd5b634e487b7160e01b5f52604160045260245ffdfe604060808152600480361015610013575f80fd5b5f915f3560e01c8063715018a6146102bb5780638da5cb5b146102945780639623609d1461015c578063ad3cb1cc146100eb5763f2fde38b14610054575f80fd5b346100e75760203660031901126100e7576001600160a01b038235818116939192908490036100e357610085610350565b83156100cd5750505f54826bffffffffffffffffffffffff60a01b8216175f55167f8be0079c531659141344cd1fd0a4f28419497f9722a3daafe3b4186f6b6457e05f80a380f35b51631e4fbdf760e01b8152908101849052602490fd5b5f80fd5b8280fd5b5082346101595780600319360112610159575080519080820182811067ffffffffffffffff821117610146576101429350815260058252640352e302e360dc1b602083015251918291602083526020830190610312565b0390f35b604184634e487b7160e01b5f525260245ffd5b80fd5b5060603660031901126100e3576001600160a01b03823581811693908490036100e35760249182359081168091036100e35767ffffffffffffffff906044358281116100e357366023820112156100e3578084013583811161028257865191601f8201601f19908116603f0116830185811184821017610270578852818352368783830101116100e357815f92886020930183860137830101526101fe610350565b863b156100e357610230965f92875180998194829363278f794360e11b8452898401528a8a8401526044830190610312565b039134905af1801561026657610244578580f35b909192938095501161025557505052005b604190634e487b7160e01b5f52525ffd5b84513d5f823e3d90fd5b87604188634e487b7160e01b5f52525ffd5b85604186634e487b7160e01b5f52525ffd5b50346100e3575f3660031901126100e3575f5490516001600160a01b039091168152602090f35b346100e3575f3660031901126100e3576102d3610350565b5f80546001600160a01b0319811682556001600160a01b03167f8be0079c531659141344cd1fd0a4f28419497f9722a3daafe3b4186f6b6457e08280a3005b91908251928382525f5b84811061033c575050825f602080949584010152601f8019910116010190565b60208183018101518483018201520161031c565b5f546001600160a01b0316330361036357565b60405163118cdaa760e01b8152336004820152602490fdfea26469706673582212202992a71449476404159c12582e1f3d5c014ae92bc1369e2e03b37152567a3c7d64736f6c63430008180033000000000000000000000000a37df5ec09349dda1e0e7ca60e1ed3d110edb987000000000000000000000000ff6bdef4fb646ee44e29fe8fc0862b02f0ba8a33000000000000000000000000000000000000000000000000000000000000006000000000000000000000000000000000000000000000000000000000000000a4a6b63eb80000000000000000000000007e72772c9f6a35486ea80e15a8974aa8f14c00a8000000000000000000000000cb4eb2dbdf2cc94a00c595252faac257df0f6b8b00000000000000000000000091fd5c9d274c519a152af14223bd10ed0b446bdd00000000000000000000000000000000000000000000006c6b935b8bbd400000000000000000000000000000000000000000000000000000000000000000070800000000000000000000000000000000000000000000000000000000"
        },
        {
          "transactionType": "CREATE",
          "contractName": "ProxyAdmin",
          "address": "0x5689e4d702ed285efc033aef9fcfae82dd3aa3fd",
          "initCode": "0x6080346100b957601f61048338819003918201601f19168301916001600160401b038311848410176100bd578084926020946040528339810103126100b957516001600160a01b0390818116908190036100b95780156100a1575f80546001600160a01b03198116831782556040519316907f8be0079c531659141344cd1fd0a4f28419497f9722a3daafe3b4186f6b6457e09080a36103b190816100d28239f35b604051631e4fbdf760e01b81525f6004820152602490fd5b5f80fd5b634e487b7160e01b5f52604160045260245ffdfe604060808152600480361015610013575f80fd5b5f915f3560e01c8063715018a6146102bb5780638da5cb5b146102945780639623609d1461015c578063ad3cb1cc146100eb5763f2fde38b14610054575f80fd5b346100e75760203660031901126100e7576001600160a01b038235818116939192908490036100e357610085610350565b83156100cd5750505f54826bffffffffffffffffffffffff60a01b8216175f55167f8be0079c531659141344cd1fd0a4f28419497f9722a3daafe3b4186f6b6457e05f80a380f35b51631e4fbdf760e01b8152908101849052602490fd5b5f80fd5b8280fd5b5082346101595780600319360112610159575080519080820182811067ffffffffffffffff821117610146576101429350815260058252640352e302e360dc1b602083015251918291602083526020830190610312565b0390f35b604184634e487b7160e01b5f525260245ffd5b80fd5b5060603660031901126100e3576001600160a01b03823581811693908490036100e35760249182359081168091036100e35767ffffffffffffffff906044358281116100e357366023820112156100e3578084013583811161028257865191601f8201601f19908116603f0116830185811184821017610270578852818352368783830101116100e357815f92886020930183860137830101526101fe610350565b863b156100e357610230965f92875180998194829363278f794360e11b8452898401528a8a8401526044830190610312565b039134905af1801561026657610244578580f35b909192938095501161025557505052005b604190634e487b7160e01b5f52525ffd5b84513d5f823e3d90fd5b87604188634e487b7160e01b5f52525ffd5b85604186634e487b7160e01b5f52525ffd5b50346100e3575f3660031901126100e3575f5490516001600160a01b039091168152602090f35b346100e3575f3660031901126100e3576102d3610350565b5f80546001600160a01b0319811682556001600160a01b03167f8be0079c531659141344cd1fd0a4f28419497f9722a3daafe3b4186f6b6457e08280a3005b91908251928382525f5b84811061033c575050825f602080949584010152601f8019910116010190565b60208183018101518483018201520161031c565b5f546001600160a01b0316330361036357565b60405163118cdaa760e01b8152336004820152602490fdfea26469706673582212202992a71449476404159c12582e1f3d5c014ae92bc1369e2e03b37152567a3c7d64736f6c63430008180033000000000000000000000000ff6bdef4fb646ee44e29fe8fc0862b02f0ba8a33"
        },
        {
          "transactionType": "CREATE",
          "contractName": "TransparentUpgradeableProxy",
          "address": "0x3e03fa70a2a44269801ebd030bd2d2960b330944",
          "initCode": "0x604060a08152610aac8038038061001581610268565b9283398101906060818303126102645761002e8161028d565b60209161003c83820161028d565b8582015190916001600160401b039190828211610264570185601f82011215610264578051908282116101ef5761007b601f8301601f19168701610268565b968288528683830101116102645785905f5b8381106102505750505f918701015284511561023f57823b1561021f577f360894a13ba1a3210667c828492db98dca3e2076cc3735a920a3ca505d382bbc80546001600160a01b03199081166001600160a01b03868116918217909355885192979195907fbc7cd75a20ee27fd9adebab32041f755214dbc6bffa90cc0225b39da2e5c2d3b5f80a28151156102035761012692506102a1565b505b85519161048391828401908111848210176101ef57868492879461062985391681520301905ff080156101e557831691826080527f7e644d79422f17c01e4894b5f4f588d331ebfa28653d42ae832dc59e38c9798f857fb53127684a568b3173ae13b9f8a6016e243e63b6e8ee1178d6a717850b5d6103958587549483519286168352820152a182156101ce5716179055516102f69081610333823960805181600f0152f35b8451633173bdd160e11b81525f6004820152602490fd5b84513d5f823e3d90fd5b634e487b7160e01b5f52604160045260245ffd5b5050346102105750610128565b63b398979f60e01b8152600490fd5b8551634c9c8ce360e01b81526001600160a01b0384166004820152602490fd5b85516330a289cf60e21b8152600490fd5b81810183015189820184015287920161008d565b5f80fd5b6040519190601f01601f191682016001600160401b038111838210176101ef57604052565b51906001600160a01b038216820361026457565b905f8091602081519101845af4808061031f575b156102d55750506040513d81523d5f602083013e60203d82010160405290565b156102fc57604051639996b31560e01b81526001600160a01b039091166004820152602490fd5b3d1561030d576040513d5f823e3d90fd5b60405163d6bda27560e01b8152600490fd5b503d1515806102b55750813b15156102b556fe60806040526001600160a01b03337f000000000000000000000000000000000000000000000000000000000000000082160361006a575f356001600160e01b03191663278f794360e11b14610060576040516334ad5dbb60e21b8152600490fd5b6100686100be565b005b5f80917f360894a13ba1a3210667c828492db98dca3e2076cc3735a920a3ca505d382bbc5416368280378136915af43d5f803e156100a6573d5ff35b3d5ffd5b634e487b7160e01b5f52604160045260245ffd5b3660041161015f57604036600319011261015f576004356001600160a01b0381169081900361015f576024359067ffffffffffffffff9081831161015f573660238401121561015f5782600401358281116101635760405192601f8201601f19908116603f011684019081118482101761016357604052808352366024828601011161015f576020815f92602461015d97018387013784010152610168565b565b5f80fd5b6100aa565b90813b156101ff577f360894a13ba1a3210667c828492db98dca3e2076cc3735a920a3ca505d382bbc80546001600160a01b0319166001600160a01b0384169081179091557fbc7cd75a20ee27fd9adebab32041f755214dbc6bffa90cc0225b39da2e5c2d3b5f80a28051156101e4576101e191610220565b50565b5050346101ed57565b60405163b398979f60e01b8152600490fd5b604051634c9c8ce360e01b81526001600160a01b0383166004820152602490fd5b905f8091602081519101845af48080610289575b156102465750506102436102a7565b90565b1561026e57604051639996b31560e01b81526001600160a01b03919091166004820152602490fd5b3d15155f0361029c5760405163d6bda27560e01b8152600490fd5b503d1515806102345750813b1515610234565b6040513d5f823e3d90fd5b604051903d82523d5f602084013e60203d83010160405256fea2646970667358221220371437a14d55b0192ed17af74450cdb0b22bf1f3d480185986e4348c96e968d064736f6c634300081800336080346100b957601f61048338819003918201601f19168301916001600160401b038311848410176100bd578084926020946040528339810103126100b957516001600160a01b0390818116908190036100b95780156100a1575f80546001600160a01b03198116831782556040519316907f8be0079c531659141344cd1fd0a4f28419497f9722a3daafe3b4186f6b6457e09080a36103b190816100d28239f35b604051631e4fbdf760e01b81525f6004820152602490fd5b5f80fd5b634e487b7160e01b5f52604160045260245ffdfe604060808152600480361015610013575f80fd5b5f915f3560e01c8063715018a6146102bb5780638da5cb5b146102945780639623609d1461015c578063ad3cb1cc146100eb5763f2fde38b14610054575f80fd5b346100e75760203660031901126100e7576001600160a01b038235818116939192908490036100e357610085610350565b83156100cd5750505f54826bffffffffffffffffffffffff60a01b8216175f55167f8be0079c531659141344cd1fd0a4f28419497f9722a3daafe3b4186f6b6457e05f80a380f35b51631e4fbdf760e01b8152908101849052602490fd5b5f80fd5b8280fd5b5082346101595780600319360112610159575080519080820182811067ffffffffffffffff821117610146576101429350815260058252640352e302e360dc1b602083015251918291602083526020830190610312565b0390f35b604184634e487b7160e01b5f525260245ffd5b80fd5b5060603660031901126100e3576001600160a01b03823581811693908490036100e35760249182359081168091036100e35767ffffffffffffffff906044358281116100e357366023820112156100e3578084013583811161028257865191601f8201601f19908116603f0116830185811184821017610270578852818352368783830101116100e357815f92886020930183860137830101526101fe610350565b863b156100e357610230965f92875180998194829363278f794360e11b8452898401528a8a8401526044830190610312565b039134905af1801561026657610244578580f35b909192938095501161025557505052005b604190634e487b7160e01b5f52525ffd5b84513d5f823e3d90fd5b87604188634e487b7160e01b5f52525ffd5b85604186634e487b7160e01b5f52525ffd5b50346100e3575f3660031901126100e3575f5490516001600160a01b039091168152602090f35b346100e3575f3660031901126100e3576102d3610350565b5f80546001600160a01b0319811682556001600160a01b03167f8be0079c531659141344cd1fd0a4f28419497f9722a3daafe3b4186f6b6457e08280a3005b91908251928382525f5b84811061033c575050825f602080949584010152601f8019910116010190565b60208183018101518483018201520161031c565b5f546001600160a01b0316330361036357565b60405163118cdaa760e01b8152336004820152602490fdfea26469706673582212202992a71449476404159c12582e1f3d5c014ae92bc1369e2e03b37152567a3c7d64736f6c634300081800330000000000000000000000002d1725c10dafb1575e5f3d457aa5b2a7c2bb16f4000000000000000000000000ff6bdef4fb646ee44e29fe8fc0862b02f0ba8a33000000000000000000000000000000000000000000000000000000000000006000000000000000000000000000000000000000000000000000000000000000c4d7c41c79000000000000000000000000f286970e2470948abb010b4dd35e1ad2da3397b0000000000000000000000000ff6bdef4fb646ee44e29fe8fc0862b02f0ba8a3300000000000000000000000091fd5c9d274c519a152af14223bd10ed0b446bdd000000000000000000000000ff6bdef4fb646ee44e29fe8fc0862b02f0ba8a3300000000000000000000000000000000000000000000000000000000000000c80000000000000000000000000000000000000000000000000de0b6b3a764000000000000000000000000000000000000000000000000000000000000"
        },
        {
          "transactionType": "CREATE",
          "contractName": "ProxyAdmin",
          "address": "0xa66126b19dd4b5c0dd7d462de3598f11c0054280",
          "initCode": "0x6080346100b957601f61048338819003918201601f19168301916001600160401b038311848410176100bd578084926020946040528339810103126100b957516001600160a01b0390818116908190036100b95780156100a1575f80546001600160a01b03198116831782556040519316907f8be0079c531659141344cd1fd0a4f28419497f9722a3daafe3b4186f6b6457e09080a36103b190816100d28239f35b604051631e4fbdf760e01b81525f6004820152602490fd5b5f80fd5b634e487b7160e01b5f52604160045260245ffdfe604060808152600480361015610013575f80fd5b5f915f3560e01c8063715018a6146102bb5780638da5cb5b146102945780639623609d1461015c578063ad3cb1cc146100eb5763f2fde38b14610054575f80fd5b346100e75760203660031901126100e7576001600160a01b038235818116939192908490036100e357610085610350565b83156100cd5750505f54826bffffffffffffffffffffffff60a01b8216175f55167f8be0079c531659141344cd1fd0a4f28419497f9722a3daafe3b4186f6b6457e05f80a380f35b51631e4fbdf760e01b8152908101849052602490fd5b5f80fd5b8280fd5b5082346101595780600319360112610159575080519080820182811067ffffffffffffffff821117610146576101429350815260058252640352e302e360dc1b602083015251918291602083526020830190610312565b0390f35b604184634e487b7160e01b5f525260245ffd5b80fd5b5060603660031901126100e3576001600160a01b03823581811693908490036100e35760249182359081168091036100e35767ffffffffffffffff906044358281116100e357366023820112156100e3578084013583811161028257865191601f8201601f19908116603f0116830185811184821017610270578852818352368783830101116100e357815f92886020930183860137830101526101fe610350565b863b156100e357610230965f92875180998194829363278f794360e11b8452898401528a8a8401526044830190610312565b039134905af1801561026657610244578580f35b909192938095501161025557505052005b604190634e487b7160e01b5f52525ffd5b84513d5f823e3d90fd5b87604188634e487b7160e01b5f52525ffd5b85604186634e487b7160e01b5f52525ffd5b50346100e3575f3660031901126100e3575f5490516001600160a01b039091168152602090f35b346100e3575f3660031901126100e3576102d3610350565b5f80546001600160a01b0319811682556001600160a01b03167f8be0079c531659141344cd1fd0a4f28419497f9722a3daafe3b4186f6b6457e08280a3005b91908251928382525f5b84811061033c575050825f602080949584010152601f8019910116010190565b60208183018101518483018201520161031c565b5f546001600160a01b0316330361036357565b60405163118cdaa760e01b8152336004820152602490fdfea26469706673582212202992a71449476404159c12582e1f3d5c014ae92bc1369e2e03b37152567a3c7d64736f6c63430008180033000000000000000000000000ff6bdef4fb646ee44e29fe8fc0862b02f0ba8a33"
        },
        {
          "transactionType": "CREATE",
          "contractName": "TransparentUpgradeableProxy",
          "address": "0x5e07e377fa50721d2d74282fed1c63efc2bd4f38",
          "initCode": "0x604060a08152610aac8038038061001581610268565b9283398101906060818303126102645761002e8161028d565b60209161003c83820161028d565b8582015190916001600160401b039190828211610264570185601f82011215610264578051908282116101ef5761007b601f8301601f19168701610268565b968288528683830101116102645785905f5b8381106102505750505f918701015284511561023f57823b1561021f577f360894a13ba1a3210667c828492db98dca3e2076cc3735a920a3ca505d382bbc80546001600160a01b03199081166001600160a01b03868116918217909355885192979195907fbc7cd75a20ee27fd9adebab32041f755214dbc6bffa90cc0225b39da2e5c2d3b5f80a28151156102035761012692506102a1565b505b85519161048391828401908111848210176101ef57868492879461062985391681520301905ff080156101e557831691826080527f7e644d79422f17c01e4894b5f4f588d331ebfa28653d42ae832dc59e38c9798f857fb53127684a568b3173ae13b9f8a6016e243e63b6e8ee1178d6a717850b5d6103958587549483519286168352820152a182156101ce5716179055516102f69081610333823960805181600f0152f35b8451633173bdd160e11b81525f6004820152602490fd5b84513d5f823e3d90fd5b634e487b7160e01b5f52604160045260245ffd5b5050346102105750610128565b63b398979f60e01b8152600490fd5b8551634c9c8ce360e01b81526001600160a01b0384166004820152602490fd5b85516330a289cf60e21b8152600490fd5b81810183015189820184015287920161008d565b5f80fd5b6040519190601f01601f191682016001600160401b038111838210176101ef57604052565b51906001600160a01b038216820361026457565b905f8091602081519101845af4808061031f575b156102d55750506040513d81523d5f602083013e60203d82010160405290565b156102fc57604051639996b31560e01b81526001600160a01b039091166004820152602490fd5b3d1561030d576040513d5f823e3d90fd5b60405163d6bda27560e01b8152600490fd5b503d1515806102b55750813b15156102b556fe60806040526001600160a01b03337f000000000000000000000000000000000000000000000000000000000000000082160361006a575f356001600160e01b03191663278f794360e11b14610060576040516334ad5dbb60e21b8152600490fd5b6100686100be565b005b5f80917f360894a13ba1a3210667c828492db98dca3e2076cc3735a920a3ca505d382bbc5416368280378136915af43d5f803e156100a6573d5ff35b3d5ffd5b634e487b7160e01b5f52604160045260245ffd5b3660041161015f57604036600319011261015f576004356001600160a01b0381169081900361015f576024359067ffffffffffffffff9081831161015f573660238401121561015f5782600401358281116101635760405192601f8201601f19908116603f011684019081118482101761016357604052808352366024828601011161015f576020815f92602461015d97018387013784010152610168565b565b5f80fd5b6100aa565b90813b156101ff577f360894a13ba1a3210667c828492db98dca3e2076cc3735a920a3ca505d382bbc80546001600160a01b0319166001600160a01b0384169081179091557fbc7cd75a20ee27fd9adebab32041f755214dbc6bffa90cc0225b39da2e5c2d3b5f80a28051156101e4576101e191610220565b50565b5050346101ed57565b60405163b398979f60e01b8152600490fd5b604051634c9c8ce360e01b81526001600160a01b0383166004820152602490fd5b905f8091602081519101845af48080610289575b156102465750506102436102a7565b90565b1561026e57604051639996b31560e01b81526001600160a01b03919091166004820152602490fd5b3d15155f0361029c5760405163d6bda27560e01b8152600490fd5b503d1515806102345750813b1515610234565b6040513d5f823e3d90fd5b604051903d82523d5f602084013e60203d83010160405256fea2646970667358221220371437a14d55b0192ed17af74450cdb0b22bf1f3d480185986e4348c96e968d064736f6c634300081800336080346100b957601f61048338819003918201601f19168301916001600160401b038311848410176100bd578084926020946040528339810103126100b957516001600160a01b0390818116908190036100b95780156100a1575f80546001600160a01b03198116831782556040519316907f8be0079c531659141344cd1fd0a4f28419497f9722a3daafe3b4186f6b6457e09080a36103b190816100d28239f35b604051631e4fbdf760e01b81525f6004820152602490fd5b5f80fd5b634e487b7160e01b5f52604160045260245ffdfe604060808152600480361015610013575f80fd5b5f915f3560e01c8063715018a6146102bb5780638da5cb5b146102945780639623609d1461015c578063ad3cb1cc146100eb5763f2fde38b14610054575f80fd5b346100e75760203660031901126100e7576001600160a01b038235818116939192908490036100e357610085610350565b83156100cd5750505f54826bffffffffffffffffffffffff60a01b8216175f55167f8be0079c531659141344cd1fd0a4f28419497f9722a3daafe3b4186f6b6457e05f80a380f35b51631e4fbdf760e01b8152908101849052602490fd5b5f80fd5b8280fd5b5082346101595780600319360112610159575080519080820182811067ffffffffffffffff821117610146576101429350815260058252640352e302e360dc1b602083015251918291602083526020830190610312565b0390f35b604184634e487b7160e01b5f525260245ffd5b80fd5b5060603660031901126100e3576001600160a01b03823581811693908490036100e35760249182359081168091036100e35767ffffffffffffffff906044358281116100e357366023820112156100e3578084013583811161028257865191601f8201601f19908116603f0116830185811184821017610270578852818352368783830101116100e357815f92886020930183860137830101526101fe610350565b863b156100e357610230965f92875180998194829363278f794360e11b8452898401528a8a8401526044830190610312565b039134905af1801561026657610244578580f35b909192938095501161025557505052005b604190634e487b7160e01b5f52525ffd5b84513d5f823e3d90fd5b87604188634e487b7160e01b5f52525ffd5b85604186634e487b7160e01b5f52525ffd5b50346100e3575f3660031901126100e3575f5490516001600160a01b039091168152602090f35b346100e3575f3660031901126100e3576102d3610350565b5f80546001600160a01b0319811682556001600160a01b03167f8be0079c531659141344cd1fd0a4f28419497f9722a3daafe3b4186f6b6457e08280a3005b91908251928382525f5b84811061033c575050825f602080949584010152601f8019910116010190565b60208183018101518483018201520161031c565b5f546001600160a01b0316330361036357565b60405163118cdaa760e01b8152336004820152602490fdfea26469706673582212202992a71449476404159c12582e1f3d5c014ae92bc1369e2e03b37152567a3c7d64736f6c63430008180033000000000000000000000000c5b2ccef2304b7803f83c3e0800bfb57a6a396e3000000000000000000000000ff6bdef4fb646ee44e29fe8fc0862b02f0ba8a33000000000000000000000000000000000000000000000000000000000000006000000000000000000000000000000000000000000000000000000000000001048f15b414000000000000000000000000000000000000000000000000000000000000008000000000000000000000000000000000000000000000000000000000000000c0000000000000000000000000c8aee8ed5fbf01153de2bb1067a98d24f2a9e6dd0000000000000000000000003e03fa70a2a44269801ebd030bd2d2960b330944000000000000000000000000000000000000000000000000000000000000000b4f6c697665205969656c6400000000000000000000000000000000000000000000000000000000000000000000000000000000000000000000000000000000066f5949454c44000000000000000000000000000000000000000000000000000000000000000000000000000000000000000000000000000000000000"
        },
        {
          "transactionType": "CREATE",
          "contractName": "ProxyAdmin",
          "address": "0x123dec81402b1ca6975242e7dffdc59843ba16ee",
          "initCode": "0x6080346100b957601f61048338819003918201601f19168301916001600160401b038311848410176100bd578084926020946040528339810103126100b957516001600160a01b0390818116908190036100b95780156100a1575f80546001600160a01b03198116831782556040519316907f8be0079c531659141344cd1fd0a4f28419497f9722a3daafe3b4186f6b6457e09080a36103b190816100d28239f35b604051631e4fbdf760e01b81525f6004820152602490fd5b5f80fd5b634e487b7160e01b5f52604160045260245ffdfe604060808152600480361015610013575f80fd5b5f915f3560e01c8063715018a6146102bb5780638da5cb5b146102945780639623609d1461015c578063ad3cb1cc146100eb5763f2fde38b14610054575f80fd5b346100e75760203660031901126100e7576001600160a01b038235818116939192908490036100e357610085610350565b83156100cd5750505f54826bffffffffffffffffffffffff60a01b8216175f55167f8be0079c531659141344cd1fd0a4f28419497f9722a3daafe3b4186f6b6457e05f80a380f35b51631e4fbdf760e01b8152908101849052602490fd5b5f80fd5b8280fd5b5082346101595780600319360112610159575080519080820182811067ffffffffffffffff821117610146576101429350815260058252640352e302e360dc1b602083015251918291602083526020830190610312565b0390f35b604184634e487b7160e01b5f525260245ffd5b80fd5b5060603660031901126100e3576001600160a01b03823581811693908490036100e35760249182359081168091036100e35767ffffffffffffffff906044358281116100e357366023820112156100e3578084013583811161028257865191601f8201601f19908116603f0116830185811184821017610270578852818352368783830101116100e357815f92886020930183860137830101526101fe610350565b863b156100e357610230965f92875180998194829363278f794360e11b8452898401528a8a8401526044830190610312565b039134905af1801561026657610244578580f35b909192938095501161025557505052005b604190634e487b7160e01b5f52525ffd5b84513d5f823e3d90fd5b87604188634e487b7160e01b5f52525ffd5b85604186634e487b7160e01b5f52525ffd5b50346100e3575f3660031901126100e3575f5490516001600160a01b039091168152602090f35b346100e3575f3660031901126100e3576102d3610350565b5f80546001600160a01b0319811682556001600160a01b03167f8be0079c531659141344cd1fd0a4f28419497f9722a3daafe3b4186f6b6457e08280a3005b91908251928382525f5b84811061033c575050825f602080949584010152601f8019910116010190565b60208183018101518483018201520161031c565b5f546001600160a01b0316330361036357565b60405163118cdaa760e01b8152336004820152602490fdfea26469706673582212202992a71449476404159c12582e1f3d5c014ae92bc1369e2e03b37152567a3c7d64736f6c63430008180033000000000000000000000000ff6bdef4fb646ee44e29fe8fc0862b02f0ba8a33"
        }
      ],
      "isFixedGasLimit": false
    },
    {
      "hash": "0x4ed4eeefca263330d9adb8fb25b330b3649eaac36447e21703fc0e258ef84f62",
      "transactionType": "CALL",
      "contractName": "TransparentUpgradeableProxy",
      "contractAddress": "0xcb4eb2dbdf2cc94a00c595252faac257df0f6b8b",
      "function": null,
      "arguments": null,
      "transaction": {
        "from": "0xff6bdef4fb646ee44e29fe8fc0862b02f0ba8a33",
        "to": "0xcb4eb2dbdf2cc94a00c595252faac257df0f6b8b",
        "gas": "0x2d677",
        "value": "0x0",
        "input": "0x666033e6000000000000000000000000f286970e2470948abb010b4dd35e1ad2da3397b0000000000000000000000000000000000000000000000000000000000000000000000000000000000000000000000000000000000000000000000000000232800000000000000000000000000000000000000000000000000000000000000000",
        "nonce": "0x89",
        "chainId": "0x14a34"
      },
      "additionalContracts": [],
      "isFixedGasLimit": false
    },
    {
      "hash": "0x6b8f52149a86c291f553a0a411f16525d1dd02075be35ae1d9d8b201c002c2b7",
      "transactionType": "CALL",
      "contractName": "MockUSDC",
      "contractAddress": "0xf286970e2470948abb010b4dd35e1ad2da3397b0",
      "function": "approve(address,uint256)",
      "arguments": [
        "0xcB4Eb2dBdF2CC94a00c595252FAac257DF0F6b8b",
        "115792089237316195423570985008687907853269984665640564039457584007913129639935"
      ],
      "transaction": {
        "from": "0xff6bdef4fb646ee44e29fe8fc0862b02f0ba8a33",
        "to": "0xf286970e2470948abb010b4dd35e1ad2da3397b0",
        "gas": "0xf9a6",
        "value": "0x0",
        "input": "0x095ea7b3000000000000000000000000cb4eb2dbdf2cc94a00c595252faac257df0f6b8bffffffffffffffffffffffffffffffffffffffffffffffffffffffffffffffff",
        "nonce": "0x8a",
        "chainId": "0x14a34"
      },
      "additionalContracts": [],
      "isFixedGasLimit": false
    },
    {
      "hash": "0x667e8176dc1f3370c54cf19269cfc8ca311a230aa615d29fd8eb8c9ab652bacb",
      "transactionType": "CALL",
      "contractName": "TransparentUpgradeableProxy",
      "contractAddress": "0xcb4eb2dbdf2cc94a00c595252faac257df0f6b8b",
      "function": null,
      "arguments": null,
      "transaction": {
        "from": "0xff6bdef4fb646ee44e29fe8fc0862b02f0ba8a33",
        "to": "0xcb4eb2dbdf2cc94a00c595252faac257df0f6b8b",
        "gas": "0x6b494",
        "value": "0x0",
        "input": "0xcce7ec13000000000000000000000000f286970e2470948abb010b4dd35e1ad2da3397b00000000000000000000000000000000000000000000000000000000006021600",
        "nonce": "0x8b",
        "chainId": "0x14a34"
      },
      "additionalContracts": [],
      "isFixedGasLimit": false
    },
    {
      "hash": "0x42ce4dc1d1b8f6b579f0fd4d78fa02723155a02cb60146c863c929484674631a",
      "transactionType": "CALL",
      "contractName": "TransparentUpgradeableProxy",
      "contractAddress": "0xcb4eb2dbdf2cc94a00c595252faac257df0f6b8b",
      "function": null,
      "arguments": null,
      "transaction": {
        "from": "0xff6bdef4fb646ee44e29fe8fc0862b02f0ba8a33",
        "to": "0xcb4eb2dbdf2cc94a00c595252faac257df0f6b8b",
        "gas": "0x20bba",
        "value": "0x0",
        "input": "0xe2233cbd0000000000000000000000000000000000000000000000000000000002faf080",
        "nonce": "0x8c",
        "chainId": "0x14a34"
      },
      "additionalContracts": [],
      "isFixedGasLimit": false
    },
    {
      "hash": "0xad854e657cdb7137b46c900c584589724325bc5bfe2abf8bb7365337cafa6bdf",
      "transactionType": "CALL",
      "contractName": "TransparentUpgradeableProxy",
      "contractAddress": "0xcb4eb2dbdf2cc94a00c595252faac257df0f6b8b",
      "function": null,
      "arguments": null,
      "transaction": {
        "from": "0xff6bdef4fb646ee44e29fe8fc0862b02f0ba8a33",
        "to": "0xcb4eb2dbdf2cc94a00c595252faac257df0f6b8b",
        "gas": "0x3584d",
        "value": "0x0",
        "input": "0x703dbfe40000000000000000000000000000000000000000000000000000000000000001",
        "nonce": "0x8d",
        "chainId": "0x14a34"
      },
      "additionalContracts": [],
      "isFixedGasLimit": false
    },
    {
      "hash": "0xd59ec27dfd466b3e21c697925ad40ef94e420f1c5b4a00b55aa8dc41bdf595af",
      "transactionType": "CALL",
      "contractName": "TransparentUpgradeableProxy",
      "contractAddress": "0x7e72772c9f6a35486ea80e15a8974aa8f14c00a8",
      "function": null,
      "arguments": null,
      "transaction": {
        "from": "0xff6bdef4fb646ee44e29fe8fc0862b02f0ba8a33",
        "to": "0x7e72772c9f6a35486ea80e15a8974aa8f14c00a8",
        "gas": "0x124de",
        "value": "0x0",
        "input": "0x095ea7b3000000000000000000000000c8aee8ed5fbf01153de2bb1067a98d24f2a9e6ddffffffffffffffffffffffffffffffffffffffffffffffffffffffffffffffff",
        "nonce": "0x8e",
        "chainId": "0x14a34"
      },
      "additionalContracts": [],
      "isFixedGasLimit": false
    },
    {
      "hash": "0x65a003f27c8d3d8517abb88d76b6e6e25917bd96eb60b21b38ede2265c23e1b2",
      "transactionType": "CALL",
      "contractName": "TransparentUpgradeableProxy",
      "contractAddress": "0xc8aee8ed5fbf01153de2bb1067a98d24f2a9e6dd",
      "function": null,
      "arguments": null,
      "transaction": {
        "from": "0xff6bdef4fb646ee44e29fe8fc0862b02f0ba8a33",
        "to": "0xc8aee8ed5fbf01153de2bb1067a98d24f2a9e6dd",
        "gas": "0x67ff8",
        "value": "0x0",
        "input": "0xa694fc3a000000000000000000000000000000000000000000000025f273933db5700000",
        "nonce": "0x8f",
        "chainId": "0x14a34"
      },
      "additionalContracts": [],
      "isFixedGasLimit": false
    },
    {
      "hash": "0x76c662ef2a91de44d984d1603160d32d05160313fa9d04870a57a1f8ac98f237",
      "transactionType": "CALL",
      "contractName": "MockUSDC",
      "contractAddress": "0xf286970e2470948abb010b4dd35e1ad2da3397b0",
      "function": "mint(address,uint256)",
      "arguments": [
        "0x455aB6723CCab4cb62983710C33f6311cc85Bc97",
        "50000000"
      ],
      "transaction": {
        "from": "0xff6bdef4fb646ee44e29fe8fc0862b02f0ba8a33",
        "to": "0xf286970e2470948abb010b4dd35e1ad2da3397b0",
        "gas": "0xb6e2",
        "value": "0x0",
        "input": "0x40c10f19000000000000000000000000455ab6723ccab4cb62983710c33f6311cc85bc970000000000000000000000000000000000000000000000000000000002faf080",
        "nonce": "0x90",
        "chainId": "0x14a34"
      },
      "additionalContracts": [],
      "isFixedGasLimit": false
    },
    {
      "hash": "0x0d379a86b1bdce9f404c1e3f711c089b59fb86bd21eb48a6cc684d32e76b4675",
      "transactionType": "CALL",
      "contractName": "MockUSDC",
      "contractAddress": "0xf286970e2470948abb010b4dd35e1ad2da3397b0",
      "function": "approve(address,uint256)",
      "arguments": [
        "0xcB4Eb2dBdF2CC94a00c595252FAac257DF0F6b8b",
        "115792089237316195423570985008687907853269984665640564039457584007913129639935"
      ],
      "transaction": {
        "from": "0x455ab6723ccab4cb62983710c33f6311cc85bc97",
        "to": "0xf286970e2470948abb010b4dd35e1ad2da3397b0",
        "gas": "0xf9a6",
        "value": "0x0",
        "input": "0x095ea7b3000000000000000000000000cb4eb2dbdf2cc94a00c595252faac257df0f6b8bffffffffffffffffffffffffffffffffffffffffffffffffffffffffffffffff",
        "nonce": "0xc",
        "chainId": "0x14a34"
      },
      "additionalContracts": [],
      "isFixedGasLimit": false
    },
    {
      "hash": "0xf78becf5f074dc13962ede95f5eb6fa572cf3e38c270fc8462af076b98be5fdd",
      "transactionType": "CALL",
      "contractName": "TransparentUpgradeableProxy",
      "contractAddress": "0xcb4eb2dbdf2cc94a00c595252faac257df0f6b8b",
      "function": null,
      "arguments": null,
      "transaction": {
        "from": "0x455ab6723ccab4cb62983710c33f6311cc85bc97",
        "to": "0xcb4eb2dbdf2cc94a00c595252faac257df0f6b8b",
        "gas": "0x34224",
        "value": "0x0",
        "input": "0xcce7ec13000000000000000000000000f286970e2470948abb010b4dd35e1ad2da3397b00000000000000000000000000000000000000000000000000000000002932e00",
        "nonce": "0xd",
        "chainId": "0x14a34"
      },
      "additionalContracts": [],
      "isFixedGasLimit": false
    },
    {
      "hash": "0xbee00596f8ccb7b3c36baea5c60b31b2c8f962b4377198832746f550a402bcd7",
      "transactionType": "CALL",
      "contractName": "TransparentUpgradeableProxy",
      "contractAddress": "0x7e72772c9f6a35486ea80e15a8974aa8f14c00a8",
      "function": null,
      "arguments": null,
      "transaction": {
        "from": "0x455ab6723ccab4cb62983710c33f6311cc85bc97",
        "to": "0x7e72772c9f6a35486ea80e15a8974aa8f14c00a8",
        "gas": "0x124de",
        "value": "0x0",
        "input": "0x095ea7b3000000000000000000000000c8aee8ed5fbf01153de2bb1067a98d24f2a9e6ddffffffffffffffffffffffffffffffffffffffffffffffffffffffffffffffff",
        "nonce": "0xe",
        "chainId": "0x14a34"
      },
      "additionalContracts": [],
      "isFixedGasLimit": false
    },
    {
      "hash": "0xd0b7cf84c63d59590a48bf723f7adc998186ec4e9f39a64e302472b549a02741",
      "transactionType": "CALL",
      "contractName": "TransparentUpgradeableProxy",
      "contractAddress": "0xc8aee8ed5fbf01153de2bb1067a98d24f2a9e6dd",
      "function": null,
      "arguments": null,
      "transaction": {
        "from": "0x455ab6723ccab4cb62983710c33f6311cc85bc97",
        "to": "0xc8aee8ed5fbf01153de2bb1067a98d24f2a9e6dd",
        "gas": "0x5610c",
        "value": "0x0",
        "input": "0xa694fc3a00000000000000000000000000000000000000000000001043561a8829300000",
        "nonce": "0xf",
        "chainId": "0x14a34"
      },
      "additionalContracts": [],
      "isFixedGasLimit": false
    }
  ],
  "receipts": [
    {
      "status": "0x1",
      "cumulativeGasUsed": "0x55d2e4",
      "logs": [
        {
          "address": "0xcb4eb2dbdf2cc94a00c595252faac257df0f6b8b",
          "topics": [
            "0xbc7cd75a20ee27fd9adebab32041f755214dbc6bffa90cc0225b39da2e5c2d3b",
            "0x00000000000000000000000088008017bea558799a73b5479f6ae159698b48a8"
          ],
          "data": "0x",
          "blockHash": "0x0000000000000000000000000000000000000000000000000000000000000000",
          "blockNumber": "0x26e827e",
          "blockTimestamp": "0x69f063dc",
          "transactionHash": "0xe4121fca8cba7f098897de8e7b64aabd3669ae6f78b82eba34bdebc47248bbb5",
          "transactionIndex": "0x9",
          "logIndex": "0x56",
          "removed": false
        },
        {
          "address": "0xcb4eb2dbdf2cc94a00c595252faac257df0f6b8b",
          "topics": [
            "0xc7f505b2f371ae2175ee4913f4499e1f2633a7b5936321eed1cdaeb6115181d2"
          ],
          "data": "0x0000000000000000000000000000000000000000000000000000000000000001",
          "blockHash": "0x0000000000000000000000000000000000000000000000000000000000000000",
          "blockNumber": "0x26e827e",
          "blockTimestamp": "0x69f063dc",
          "transactionHash": "0xe4121fca8cba7f098897de8e7b64aabd3669ae6f78b82eba34bdebc47248bbb5",
          "transactionIndex": "0x9",
          "logIndex": "0x57",
          "removed": false
        },
        {
          "address": "0x265eedd555bb08c2306f270d5bbd19f8b2370b43",
          "topics": [
            "0x8be0079c531659141344cd1fd0a4f28419497f9722a3daafe3b4186f6b6457e0",
            "0x0000000000000000000000000000000000000000000000000000000000000000",
            "0x000000000000000000000000ff6bdef4fb646ee44e29fe8fc0862b02f0ba8a33"
          ],
          "data": "0x",
          "blockHash": "0x0000000000000000000000000000000000000000000000000000000000000000",
          "blockNumber": "0x26e827e",
          "blockTimestamp": "0x69f063dc",
          "transactionHash": "0xe4121fca8cba7f098897de8e7b64aabd3669ae6f78b82eba34bdebc47248bbb5",
          "transactionIndex": "0x9",
          "logIndex": "0x58",
          "removed": false
        },
        {
          "address": "0xcb4eb2dbdf2cc94a00c595252faac257df0f6b8b",
          "topics": [
            "0x7e644d79422f17c01e4894b5f4f588d331ebfa28653d42ae832dc59e38c9798f"
          ],
          "data": "0x0000000000000000000000000000000000000000000000000000000000000000000000000000000000000000265eedd555bb08c2306f270d5bbd19f8b2370b43",
          "blockHash": "0x0000000000000000000000000000000000000000000000000000000000000000",
          "blockNumber": "0x26e827e",
          "blockTimestamp": "0x69f063dc",
          "transactionHash": "0xe4121fca8cba7f098897de8e7b64aabd3669ae6f78b82eba34bdebc47248bbb5",
          "transactionIndex": "0x9",
          "logIndex": "0x59",
          "removed": false
        },
        {
          "address": "0x7e72772c9f6a35486ea80e15a8974aa8f14c00a8",
          "topics": [
            "0xbc7cd75a20ee27fd9adebab32041f755214dbc6bffa90cc0225b39da2e5c2d3b",
            "0x000000000000000000000000d5a38db79b7385af025a2cf925ac4b17304a28af"
          ],
          "data": "0x",
          "blockHash": "0x0000000000000000000000000000000000000000000000000000000000000000",
          "blockNumber": "0x26e827e",
          "blockTimestamp": "0x69f063dc",
          "transactionHash": "0xe4121fca8cba7f098897de8e7b64aabd3669ae6f78b82eba34bdebc47248bbb5",
          "transactionIndex": "0x9",
          "logIndex": "0x5a",
          "removed": false
        },
        {
          "address": "0x7e72772c9f6a35486ea80e15a8974aa8f14c00a8",
          "topics": [
            "0xc7f505b2f371ae2175ee4913f4499e1f2633a7b5936321eed1cdaeb6115181d2"
          ],
          "data": "0x0000000000000000000000000000000000000000000000000000000000000001",
          "blockHash": "0x0000000000000000000000000000000000000000000000000000000000000000",
          "blockNumber": "0x26e827e",
          "blockTimestamp": "0x69f063dc",
          "transactionHash": "0xe4121fca8cba7f098897de8e7b64aabd3669ae6f78b82eba34bdebc47248bbb5",
          "transactionIndex": "0x9",
          "logIndex": "0x5b",
          "removed": false
        },
        {
          "address": "0xf613d35dc65284e3f0619687ffe4326a34d1d13a",
          "topics": [
            "0x8be0079c531659141344cd1fd0a4f28419497f9722a3daafe3b4186f6b6457e0",
            "0x0000000000000000000000000000000000000000000000000000000000000000",
            "0x000000000000000000000000ff6bdef4fb646ee44e29fe8fc0862b02f0ba8a33"
          ],
          "data": "0x",
          "blockHash": "0x0000000000000000000000000000000000000000000000000000000000000000",
          "blockNumber": "0x26e827e",
          "blockTimestamp": "0x69f063dc",
          "transactionHash": "0xe4121fca8cba7f098897de8e7b64aabd3669ae6f78b82eba34bdebc47248bbb5",
          "transactionIndex": "0x9",
          "logIndex": "0x5c",
          "removed": false
        },
        {
          "address": "0x7e72772c9f6a35486ea80e15a8974aa8f14c00a8",
          "topics": [
            "0x7e644d79422f17c01e4894b5f4f588d331ebfa28653d42ae832dc59e38c9798f"
          ],
          "data": "0x0000000000000000000000000000000000000000000000000000000000000000000000000000000000000000f613d35dc65284e3f0619687ffe4326a34d1d13a",
          "blockHash": "0x0000000000000000000000000000000000000000000000000000000000000000",
          "blockNumber": "0x26e827e",
          "blockTimestamp": "0x69f063dc",
          "transactionHash": "0xe4121fca8cba7f098897de8e7b64aabd3669ae6f78b82eba34bdebc47248bbb5",
          "transactionIndex": "0x9",
          "logIndex": "0x5d",
          "removed": false
        },
        {
          "address": "0xc8aee8ed5fbf01153de2bb1067a98d24f2a9e6dd",
          "topics": [
            "0xbc7cd75a20ee27fd9adebab32041f755214dbc6bffa90cc0225b39da2e5c2d3b",
            "0x000000000000000000000000a37df5ec09349dda1e0e7ca60e1ed3d110edb987"
          ],
          "data": "0x",
          "blockHash": "0x0000000000000000000000000000000000000000000000000000000000000000",
          "blockNumber": "0x26e827e",
          "blockTimestamp": "0x69f063dc",
          "transactionHash": "0xe4121fca8cba7f098897de8e7b64aabd3669ae6f78b82eba34bdebc47248bbb5",
          "transactionIndex": "0x9",
          "logIndex": "0x5e",
          "removed": false
        },
        {
          "address": "0xc8aee8ed5fbf01153de2bb1067a98d24f2a9e6dd",
          "topics": [
            "0xc7f505b2f371ae2175ee4913f4499e1f2633a7b5936321eed1cdaeb6115181d2"
          ],
          "data": "0x0000000000000000000000000000000000000000000000000000000000000001",
          "blockHash": "0x0000000000000000000000000000000000000000000000000000000000000000",
          "blockNumber": "0x26e827e",
          "blockTimestamp": "0x69f063dc",
          "transactionHash": "0xe4121fca8cba7f098897de8e7b64aabd3669ae6f78b82eba34bdebc47248bbb5",
          "transactionIndex": "0x9",
          "logIndex": "0x5f",
          "removed": false
        },
        {
          "address": "0x5689e4d702ed285efc033aef9fcfae82dd3aa3fd",
          "topics": [
            "0x8be0079c531659141344cd1fd0a4f28419497f9722a3daafe3b4186f6b6457e0",
            "0x0000000000000000000000000000000000000000000000000000000000000000",
            "0x000000000000000000000000ff6bdef4fb646ee44e29fe8fc0862b02f0ba8a33"
          ],
          "data": "0x",
          "blockHash": "0x0000000000000000000000000000000000000000000000000000000000000000",
          "blockNumber": "0x26e827e",
          "blockTimestamp": "0x69f063dc",
          "transactionHash": "0xe4121fca8cba7f098897de8e7b64aabd3669ae6f78b82eba34bdebc47248bbb5",
          "transactionIndex": "0x9",
          "logIndex": "0x60",
          "removed": false
        },
        {
          "address": "0xc8aee8ed5fbf01153de2bb1067a98d24f2a9e6dd",
          "topics": [
            "0x7e644d79422f17c01e4894b5f4f588d331ebfa28653d42ae832dc59e38c9798f"
          ],
          "data": "0x00000000000000000000000000000000000000000000000000000000000000000000000000000000000000005689e4d702ed285efc033aef9fcfae82dd3aa3fd",
          "blockHash": "0x0000000000000000000000000000000000000000000000000000000000000000",
          "blockNumber": "0x26e827e",
          "blockTimestamp": "0x69f063dc",
          "transactionHash": "0xe4121fca8cba7f098897de8e7b64aabd3669ae6f78b82eba34bdebc47248bbb5",
          "transactionIndex": "0x9",
          "logIndex": "0x61",
          "removed": false
        },
        {
          "address": "0x3e03fa70a2a44269801ebd030bd2d2960b330944",
          "topics": [
            "0xbc7cd75a20ee27fd9adebab32041f755214dbc6bffa90cc0225b39da2e5c2d3b",
            "0x0000000000000000000000002d1725c10dafb1575e5f3d457aa5b2a7c2bb16f4"
          ],
          "data": "0x",
          "blockHash": "0x0000000000000000000000000000000000000000000000000000000000000000",
          "blockNumber": "0x26e827e",
          "blockTimestamp": "0x69f063dc",
          "transactionHash": "0xe4121fca8cba7f098897de8e7b64aabd3669ae6f78b82eba34bdebc47248bbb5",
          "transactionIndex": "0x9",
          "logIndex": "0x62",
          "removed": false
        },
        {
          "address": "0x3e03fa70a2a44269801ebd030bd2d2960b330944",
          "topics": [
            "0xc7f505b2f371ae2175ee4913f4499e1f2633a7b5936321eed1cdaeb6115181d2"
          ],
          "data": "0x0000000000000000000000000000000000000000000000000000000000000001",
          "blockHash": "0x0000000000000000000000000000000000000000000000000000000000000000",
          "blockNumber": "0x26e827e",
          "blockTimestamp": "0x69f063dc",
          "transactionHash": "0xe4121fca8cba7f098897de8e7b64aabd3669ae6f78b82eba34bdebc47248bbb5",
          "transactionIndex": "0x9",
          "logIndex": "0x63",
          "removed": false
        },
        {
          "address": "0xa66126b19dd4b5c0dd7d462de3598f11c0054280",
          "topics": [
            "0x8be0079c531659141344cd1fd0a4f28419497f9722a3daafe3b4186f6b6457e0",
            "0x0000000000000000000000000000000000000000000000000000000000000000",
            "0x000000000000000000000000ff6bdef4fb646ee44e29fe8fc0862b02f0ba8a33"
          ],
          "data": "0x",
          "blockHash": "0x0000000000000000000000000000000000000000000000000000000000000000",
          "blockNumber": "0x26e827e",
          "blockTimestamp": "0x69f063dc",
          "transactionHash": "0xe4121fca8cba7f098897de8e7b64aabd3669ae6f78b82eba34bdebc47248bbb5",
          "transactionIndex": "0x9",
          "logIndex": "0x64",
          "removed": false
        },
        {
          "address": "0x3e03fa70a2a44269801ebd030bd2d2960b330944",
          "topics": [
            "0x7e644d79422f17c01e4894b5f4f588d331ebfa28653d42ae832dc59e38c9798f"
          ],
          "data": "0x0000000000000000000000000000000000000000000000000000000000000000000000000000000000000000a66126b19dd4b5c0dd7d462de3598f11c0054280",
          "blockHash": "0x0000000000000000000000000000000000000000000000000000000000000000",
          "blockNumber": "0x26e827e",
          "blockTimestamp": "0x69f063dc",
          "transactionHash": "0xe4121fca8cba7f098897de8e7b64aabd3669ae6f78b82eba34bdebc47248bbb5",
          "transactionIndex": "0x9",
          "logIndex": "0x65",
          "removed": false
        },
        {
          "address": "0x5e07e377fa50721d2d74282fed1c63efc2bd4f38",
          "topics": [
            "0xbc7cd75a20ee27fd9adebab32041f755214dbc6bffa90cc0225b39da2e5c2d3b",
            "0x000000000000000000000000c5b2ccef2304b7803f83c3e0800bfb57a6a396e3"
          ],
          "data": "0x",
          "blockHash": "0x0000000000000000000000000000000000000000000000000000000000000000",
          "blockNumber": "0x26e827e",
          "blockTimestamp": "0x69f063dc",
          "transactionHash": "0xe4121fca8cba7f098897de8e7b64aabd3669ae6f78b82eba34bdebc47248bbb5",
          "transactionIndex": "0x9",
          "logIndex": "0x66",
          "removed": false
        },
        {
          "address": "0x5e07e377fa50721d2d74282fed1c63efc2bd4f38",
          "topics": [
            "0xc7f505b2f371ae2175ee4913f4499e1f2633a7b5936321eed1cdaeb6115181d2"
          ],
          "data": "0x0000000000000000000000000000000000000000000000000000000000000001",
          "blockHash": "0x0000000000000000000000000000000000000000000000000000000000000000",
          "blockNumber": "0x26e827e",
          "blockTimestamp": "0x69f063dc",
          "transactionHash": "0xe4121fca8cba7f098897de8e7b64aabd3669ae6f78b82eba34bdebc47248bbb5",
          "transactionIndex": "0x9",
          "logIndex": "0x67",
          "removed": false
        },
        {
          "address": "0x123dec81402b1ca6975242e7dffdc59843ba16ee",
          "topics": [
            "0x8be0079c531659141344cd1fd0a4f28419497f9722a3daafe3b4186f6b6457e0",
            "0x0000000000000000000000000000000000000000000000000000000000000000",
            "0x000000000000000000000000ff6bdef4fb646ee44e29fe8fc0862b02f0ba8a33"
          ],
          "data": "0x",
          "blockHash": "0x0000000000000000000000000000000000000000000000000000000000000000",
          "blockNumber": "0x26e827e",
          "blockTimestamp": "0x69f063dc",
          "transactionHash": "0xe4121fca8cba7f098897de8e7b64aabd3669ae6f78b82eba34bdebc47248bbb5",
          "transactionIndex": "0x9",
          "logIndex": "0x68",
          "removed": false
        },
        {
          "address": "0x5e07e377fa50721d2d74282fed1c63efc2bd4f38",
          "topics": [
            "0x7e644d79422f17c01e4894b5f4f588d331ebfa28653d42ae832dc59e38c9798f"
          ],
          "data": "0x0000000000000000000000000000000000000000000000000000000000000000000000000000000000000000123dec81402b1ca6975242e7dffdc59843ba16ee",
          "blockHash": "0x0000000000000000000000000000000000000000000000000000000000000000",
          "blockNumber": "0x26e827e",
          "blockTimestamp": "0x69f063dc",
          "transactionHash": "0xe4121fca8cba7f098897de8e7b64aabd3669ae6f78b82eba34bdebc47248bbb5",
          "transactionIndex": "0x9",
          "logIndex": "0x69",
          "removed": false
        },
        {
          "address": "0x91fd5c9d274c519a152af14223bd10ed0b446bdd",
          "topics": [
            "0x02e5501cd9c125c7ea37808e14d6fc604df3b0ed9d369ac30a1c1393e72dc300",
            "0x000000000000000000000000cb4eb2dbdf2cc94a00c595252faac257df0f6b8b",
            "0x000000000000000000000000ff6bdef4fb646ee44e29fe8fc0862b02f0ba8a33"
          ],
          "data": "0x0000000000000000000000007e72772c9f6a35486ea80e15a8974aa8f14c00a80000000000000000000000005e07e377fa50721d2d74282fed1c63efc2bd4f38000000000000000000000000c8aee8ed5fbf01153de2bb1067a98d24f2a9e6dd0000000000000000000000003e03fa70a2a44269801ebd030bd2d2960b33094400000000000000000000000000000000000000000000000001ff973cafa8000000000000000000000000000000000000000000000000001b1ae4d6e2ef50000000000000000000000000000000000000000000000000006c6b935b8bbd4000000000000000000000000000000000000000000000000000000000000069f1b52200000000000000000000000000000000000000000000000000000000000007080000000000000000000000000000000000000000000000000de0b6b3a76400000000000000000000000000000000000000000000000000000000000069f063dc00000000000000000000000000000000000000000000000000000000000003e800000000000000000000000000000000000000000000010f0cf064dd592000000000000000000000000000000000000000000000000000000000000000000003",
          "blockHash": "0x0000000000000000000000000000000000000000000000000000000000000000",
          "blockNumber": "0x26e827e",
          "blockTimestamp": "0x69f063dc",
          "transactionHash": "0xe4121fca8cba7f098897de8e7b64aabd3669ae6f78b82eba34bdebc47248bbb5",
          "transactionIndex": "0x9",
          "logIndex": "0x6a",
          "removed": false
        }
      ],
      "logsBloom": "0x002020000000200000001000020000824000000400000080008000000040000000100000800000000040100000000000000000004000000000004000000000001000200000000000000000000000020400010000000000014000200000000000000000000200000000000800000008000042208004000000040000000000004000800001000800002008000000008000000000000000c0000000000000800000000000000000000000200000000000000000000004000010100000000000000000001024000080000004000000010400000000000404000000000100000020000206000000000000000001000002000002000000030002000100002000000200",
      "type": "0x2",
      "transactionHash": "0xe4121fca8cba7f098897de8e7b64aabd3669ae6f78b82eba34bdebc47248bbb5",
      "transactionIndex": "0x9",
      "blockHash": "0x0000000000000000000000000000000000000000000000000000000000000000",
      "blockNumber": "0x26e827e",
      "gasUsed": "0x393fea",
      "effectiveGasPrice": "0x5b8d80",
      "blobGasUsed": "0x936c",
      "from": "0xff6bdef4fb646ee44e29fe8fc0862b02f0ba8a33",
      "to": "0x91fd5c9d274c519a152af14223bd10ed0b446bdd",
      "contractAddress": null,
      "daFootprintGasScalar": "0x94",
      "l1BaseFeeScalar": "0x44d",
      "l1BlobBaseFee": "0x2ff175b",
      "l1BlobBaseFeeScalar": "0xa118b",
      "l1Fee": "0x12fd28542",
      "l1GasPrice": "0x3c3ae59f",
      "l1GasUsed": "0xff3"
    },
    {
      "status": "0x1",
      "cumulativeGasUsed": "0x3baeab",
      "logs": [
        {
          "address": "0xcb4eb2dbdf2cc94a00c595252faac257df0f6b8b",
          "topics": [
            "0x1809803edc7f4d0a1c400a8f95cac12ace860d60e118b6c9b491082a623963df",
            "0x000000000000000000000000f286970e2470948abb010b4dd35e1ad2da3397b0"
          ],
          "data": "0x00000000000000000000000000000000000000000000000000000000000000800000000000000000000000000000000000000000000000000000000000000000000000000000000000000000000000000000000000000000000000000002328000000000000000000000000000000000000000000000000000000000000000000000000000000000000000000000000000000000000000000000000000000000",
          "blockHash": "0x0000000000000000000000000000000000000000000000000000000000000000",
          "blockNumber": "0x26e827f",
          "blockTimestamp": "0x69f063de",
          "transactionHash": "0x4ed4eeefca263330d9adb8fb25b330b3649eaac36447e21703fc0e258ef84f62",
          "transactionIndex": "0xa",
          "logIndex": "0xaf",
          "removed": false
        }
      ],
      "logsBloom": "0x00000000000000000000000000000000000000000000000400000000004000000000000000000000000000000000000000000000000000008000000000000000080000000000000000000000000000000000001000000000000000000000000000000000000000000000000000000000000000000000000000000000000000000000000100000000000000000000000000000000000000000000000000000000000000000000000000000000000000000000000000000000000000200000000000000000000000000000000000000400000000000000000000000000000000000000000000000000000000000000000000000000000002000000000000000000",
      "type": "0x2",
      "transactionHash": "0x4ed4eeefca263330d9adb8fb25b330b3649eaac36447e21703fc0e258ef84f62",
      "transactionIndex": "0xa",
      "blockHash": "0x0000000000000000000000000000000000000000000000000000000000000000",
      "blockNumber": "0x26e827f",
      "gasUsed": "0x1f0bb",
      "effectiveGasPrice": "0x5b8d80",
      "blobGasUsed": "0x39d0",
      "from": "0xff6bdef4fb646ee44e29fe8fc0862b02f0ba8a33",
      "to": "0xcb4eb2dbdf2cc94a00c595252faac257df0f6b8b",
      "contractAddress": null,
      "daFootprintGasScalar": "0x94",
      "l1BaseFeeScalar": "0x44d",
      "l1BlobBaseFee": "0x2ff175b",
      "l1BlobBaseFeeScalar": "0xa118b",
      "l1Fee": "0x65ac61f1c",
      "l1GasPrice": "0x3c3ae59f",
      "l1GasUsed": "0x640"
    },
    {
      "status": "0x1",
      "cumulativeGasUsed": "0x25ccbd",
      "logs": [
        {
          "address": "0xf286970e2470948abb010b4dd35e1ad2da3397b0",
          "topics": [
            "0x8c5be1e5ebec7d5bd14f71427d1e84f3dd0314c0f7b2291e5b200ac8c7c3b925",
            "0x000000000000000000000000ff6bdef4fb646ee44e29fe8fc0862b02f0ba8a33",
            "0x000000000000000000000000cb4eb2dbdf2cc94a00c595252faac257df0f6b8b"
          ],
          "data": "0xffffffffffffffffffffffffffffffffffffffffffffffffffffffffffffffff",
          "blockHash": "0x0000000000000000000000000000000000000000000000000000000000000000",
          "blockNumber": "0x26e8280",
          "blockTimestamp": "0x69f063e0",
          "transactionHash": "0x6b8f52149a86c291f553a0a411f16525d1dd02075be35ae1d9d8b201c002c2b7",
          "transactionIndex": "0xc",
          "logIndex": "0x29",
          "removed": false
        }
      ],
      "logsBloom": "0x00000000000000000000100000000000000000000000000000000000000000000000001000000000000010000000000000000000000000000000000000200000000000000000000000000200000000000000000000000001000000000000000000000000000000000000080000000000000000000000000000000000000000000000000000000000000000000000000000000000000000000000000000000000020000000000000000000000000000000000000000000000000000000000000000000000000000000000000000010000000000400000000000000000000000000010000000000000000000000000000000000000010000000000000000000000",
      "type": "0x2",
      "transactionHash": "0x6b8f52149a86c291f553a0a411f16525d1dd02075be35ae1d9d8b201c002c2b7",
      "transactionIndex": "0xc",
      "blockHash": "0x0000000000000000000000000000000000000000000000000000000000000000",
      "blockNumber": "0x26e8280",
      "gasUsed": "0xb4bf",
      "effectiveGasPrice": "0x5b8d80",
      "blobGasUsed": "0x39d0",
      "from": "0xff6bdef4fb646ee44e29fe8fc0862b02f0ba8a33",
      "to": "0xf286970e2470948abb010b4dd35e1ad2da3397b0",
      "contractAddress": null,
      "daFootprintGasScalar": "0x94",
      "l1BaseFeeScalar": "0x44d",
      "l1BlobBaseFee": "0x30aa686",
      "l1BlobBaseFeeScalar": "0xa118b",
      "l1Fee": "0x67f1d5ea4",
      "l1GasPrice": "0x3d91abce",
      "l1GasUsed": "0x640"
    },
    {
      "status": "0x1",
      "cumulativeGasUsed": "0x4a6136",
      "logs": [
        {
          "address": "0xf286970e2470948abb010b4dd35e1ad2da3397b0",
          "topics": [
            "0xddf252ad1be2c89b69c2b068fc378daa952ba7f163c4a11628f55a4df523b3ef",
            "0x000000000000000000000000ff6bdef4fb646ee44e29fe8fc0862b02f0ba8a33",
            "0x000000000000000000000000cb4eb2dbdf2cc94a00c595252faac257df0f6b8b"
          ],
          "data": "0x0000000000000000000000000000000000000000000000000000000006021600",
          "blockHash": "0xf1317be4e01b6a1d14f16db3d0a96d0393b87ff0e51abede823b3be5aed5d254",
          "blockNumber": "0x26e8281",
          "blockTimestamp": "0x69f063e2",
          "transactionHash": "0x667e8176dc1f3370c54cf19269cfc8ca311a230aa615d29fd8eb8c9ab652bacb",
          "transactionIndex": "0x10",
          "logIndex": "0xd6",
          "removed": false
        },
        {
          "address": "0xf286970e2470948abb010b4dd35e1ad2da3397b0",
          "topics": [
            "0xddf252ad1be2c89b69c2b068fc378daa952ba7f163c4a11628f55a4df523b3ef",
            "0x000000000000000000000000cb4eb2dbdf2cc94a00c595252faac257df0f6b8b",
            "0x000000000000000000000000ff6bdef4fb646ee44e29fe8fc0862b02f0ba8a33"
          ],
          "data": "0x00000000000000000000000000000000000000000000000000000000002e2480",
          "blockHash": "0xf1317be4e01b6a1d14f16db3d0a96d0393b87ff0e51abede823b3be5aed5d254",
          "blockNumber": "0x26e8281",
          "blockTimestamp": "0x69f063e2",
          "transactionHash": "0x667e8176dc1f3370c54cf19269cfc8ca311a230aa615d29fd8eb8c9ab652bacb",
          "transactionIndex": "0x10",
          "logIndex": "0xd7",
          "removed": false
        },
        {
          "address": "0xcb4eb2dbdf2cc94a00c595252faac257df0f6b8b",
          "topics": [
            "0x4dd12c0ecba594b5bb7a4e3ec05ef19e1135fed23711a1fe4b1c9e6c9b40391b",
            "0x000000000000000000000000ff6bdef4fb646ee44e29fe8fc0862b02f0ba8a33",
            "0x000000000000000000000000f286970e2470948abb010b4dd35e1ad2da3397b0"
          ],
          "data": "0x00000000000000000000000000000000000000000000000000000000002e2480",
          "blockHash": "0xf1317be4e01b6a1d14f16db3d0a96d0393b87ff0e51abede823b3be5aed5d254",
          "blockNumber": "0x26e8281",
          "blockTimestamp": "0x69f063e2",
          "transactionHash": "0x667e8176dc1f3370c54cf19269cfc8ca311a230aa615d29fd8eb8c9ab652bacb",
          "transactionIndex": "0x10",
          "logIndex": "0xd8",
          "removed": false
        },
        {
          "address": "0x7e72772c9f6a35486ea80e15a8974aa8f14c00a8",
          "topics": [
            "0xddf252ad1be2c89b69c2b068fc378daa952ba7f163c4a11628f55a4df523b3ef",
            "0x0000000000000000000000000000000000000000000000000000000000000000",
            "0x000000000000000000000000ff6bdef4fb646ee44e29fe8fc0862b02f0ba8a33"
          ],
          "data": "0x000000000000000000000000000000000000000000000025f273933db5700000",
          "blockHash": "0xf1317be4e01b6a1d14f16db3d0a96d0393b87ff0e51abede823b3be5aed5d254",
          "blockNumber": "0x26e8281",
          "blockTimestamp": "0x69f063e2",
          "transactionHash": "0x667e8176dc1f3370c54cf19269cfc8ca311a230aa615d29fd8eb8c9ab652bacb",
          "transactionIndex": "0x10",
          "logIndex": "0xd9",
          "removed": false
        },
        {
          "address": "0xcb4eb2dbdf2cc94a00c595252faac257df0f6b8b",
          "topics": [
            "0x0b9c8304b83df3d2827b952a8e4c87faef3556dddcde57a47cb80f0c755606a5",
            "0x000000000000000000000000ff6bdef4fb646ee44e29fe8fc0862b02f0ba8a33",
            "0x000000000000000000000000f286970e2470948abb010b4dd35e1ad2da3397b0"
          ],
          "data": "0x0000000000000000000000000000000000000000000000000000000006021600000000000000000000000000000000000000000000000025f273933db57000000000000000000000000000000000000000000000000000000000000000000000000000000000000000000000000000000000000000000025f273933db5700000",
          "blockHash": "0xf1317be4e01b6a1d14f16db3d0a96d0393b87ff0e51abede823b3be5aed5d254",
          "blockNumber": "0x26e8281",
          "blockTimestamp": "0x69f063e2",
          "transactionHash": "0x667e8176dc1f3370c54cf19269cfc8ca311a230aa615d29fd8eb8c9ab652bacb",
          "transactionIndex": "0x10",
          "logIndex": "0xda",
          "removed": false
        },
        {
          "address": "0xf286970e2470948abb010b4dd35e1ad2da3397b0",
          "topics": [
            "0xddf252ad1be2c89b69c2b068fc378daa952ba7f163c4a11628f55a4df523b3ef",
            "0x000000000000000000000000cb4eb2dbdf2cc94a00c595252faac257df0f6b8b",
            "0x000000000000000000000000ff6bdef4fb646ee44e29fe8fc0862b02f0ba8a33"
          ],
          "data": "0x0000000000000000000000000000000000000000000000000000000005d3f180",
          "blockHash": "0xf1317be4e01b6a1d14f16db3d0a96d0393b87ff0e51abede823b3be5aed5d254",
          "blockNumber": "0x26e8281",
          "blockTimestamp": "0x69f063e2",
          "transactionHash": "0x667e8176dc1f3370c54cf19269cfc8ca311a230aa615d29fd8eb8c9ab652bacb",
          "transactionIndex": "0x10",
          "logIndex": "0xdb",
          "removed": false
        },
        {
          "address": "0xcb4eb2dbdf2cc94a00c595252faac257df0f6b8b",
          "topics": [
            "0x120bfc1de29621f7872a5b3129b6524ceb18df8c689a37496b8ee4007235dbc8"
          ],
          "data": "0x00000000000000000000000000000000000000000000000000000000000000000000000000000000000000000000000000000000000000000000000000000001",
          "blockHash": "0xf1317be4e01b6a1d14f16db3d0a96d0393b87ff0e51abede823b3be5aed5d254",
          "blockNumber": "0x26e8281",
          "blockTimestamp": "0x69f063e2",
          "transactionHash": "0x667e8176dc1f3370c54cf19269cfc8ca311a230aa615d29fd8eb8c9ab652bacb",
          "transactionIndex": "0x10",
          "logIndex": "0xdc",
          "removed": false
        },
        {
          "address": "0xcb4eb2dbdf2cc94a00c595252faac257df0f6b8b",
          "topics": [
            "0xccb4518c7bb9cdee893961401854c0ac29fad869f3338dc3087c9215fa4ab9e1"
          ],
          "data": "0x0000000000000000000000000000000000000000000000000000000000000000000000000000000000000000000000000000000000000025f273933db5700000",
          "blockHash": "0xf1317be4e01b6a1d14f16db3d0a96d0393b87ff0e51abede823b3be5aed5d254",
          "blockNumber": "0x26e8281",
          "blockTimestamp": "0x69f063e2",
          "transactionHash": "0x667e8176dc1f3370c54cf19269cfc8ca311a230aa615d29fd8eb8c9ab652bacb",
          "transactionIndex": "0x10",
          "logIndex": "0xdd",
          "removed": false
        }
      ],
      "logsBloom": "0x00000000000000000000100000000000000000040000400080000000004008000000001000000000000010000000000000000000000000000000000000000000080000000000000000000208000010000000001000800001400000000000000000000000020000000000080000000800000000000000000000000010001000000000000100000000000000000000000000000000000040000000000000000000000000000000000000100020000000000000000000000000000000200000000000400002000000000000000000012400000000400000004000000000000020000000000002000000000000000000000000000000010000000000000000000000",
      "type": "0x2",
      "transactionHash": "0x667e8176dc1f3370c54cf19269cfc8ca311a230aa615d29fd8eb8c9ab652bacb",
      "transactionIndex": "0x10",
      "blockHash": "0xf1317be4e01b6a1d14f16db3d0a96d0393b87ff0e51abede823b3be5aed5d254",
      "blockNumber": "0x26e8281",
      "gasUsed": "0x495bb",
      "effectiveGasPrice": "0x5b8d80",
      "blobGasUsed": "0x39d0",
      "from": "0xff6bdef4fb646ee44e29fe8fc0862b02f0ba8a33",
      "to": "0xcb4eb2dbdf2cc94a00c595252faac257df0f6b8b",
      "contractAddress": null,
      "daFootprintGasScalar": "0x94",
      "l1BaseFeeScalar": "0x44d",
      "l1BlobBaseFee": "0x30aa686",
      "l1BlobBaseFeeScalar": "0xa118b",
      "l1Fee": "0x1352916fa",
      "l1GasPrice": "0x3d91abce",
      "l1GasUsed": "0x640"
    },
    {
      "status": "0x1",
      "cumulativeGasUsed": "0x7d7d2",
      "logs": [
        {
          "address": "0xf286970e2470948abb010b4dd35e1ad2da3397b0",
          "topics": [
            "0xddf252ad1be2c89b69c2b068fc378daa952ba7f163c4a11628f55a4df523b3ef",
            "0x000000000000000000000000ff6bdef4fb646ee44e29fe8fc0862b02f0ba8a33",
            "0x000000000000000000000000cb4eb2dbdf2cc94a00c595252faac257df0f6b8b"
          ],
          "data": "0x0000000000000000000000000000000000000000000000000000000002faf080",
          "blockHash": "0x0000000000000000000000000000000000000000000000000000000000000000",
          "blockNumber": "0x26e8283",
          "blockTimestamp": "0x69f063e6",
          "transactionHash": "0x42ce4dc1d1b8f6b579f0fd4d78fa02723155a02cb60146c863c929484674631a",
          "transactionIndex": "0x2",
          "logIndex": "0xb",
          "removed": false
        },
        {
          "address": "0xcb4eb2dbdf2cc94a00c595252faac257df0f6b8b",
          "topics": [
            "0xaff82f4178df227ea409be11c927e414a908fb01481236913cec80ea866b2468",
            "0x000000000000000000000000ff6bdef4fb646ee44e29fe8fc0862b02f0ba8a33"
          ],
          "data": "0x0000000000000000000000000000000000000000000000000000000002faf0800000000000000000000000000000000000000000000000000000000002faf080",
          "blockHash": "0x0000000000000000000000000000000000000000000000000000000000000000",
          "blockNumber": "0x26e8283",
          "blockTimestamp": "0x69f063e6",
          "transactionHash": "0x42ce4dc1d1b8f6b579f0fd4d78fa02723155a02cb60146c863c929484674631a",
          "transactionIndex": "0x2",
          "logIndex": "0xc",
          "removed": false
        }
      ],
      "logsBloom": "0x00000000000000000000100000000000000000000000000000000000004000000000001000000000000010000000000000000000000000000000000000000000000000000000000000000208000000000000000000000001000000000000000000000000000000000000080000000000000000000000000000000010000000000000000100000002000000000000000000000000000000000000000000000000000000000000000000000000000000000000000000000000000000000000000001008002000000000000000000010400000000400000000000000000000000000000000000000000000000000000000000000000010000000000000000000000",
      "type": "0x2",
      "transactionHash": "0x42ce4dc1d1b8f6b579f0fd4d78fa02723155a02cb60146c863c929484674631a",
      "transactionIndex": "0x2",
      "blockHash": "0x0000000000000000000000000000000000000000000000000000000000000000",
      "blockNumber": "0x26e8283",
      "gasUsed": "0x17b2c",
      "effectiveGasPrice": "0x5b8d80",
      "blobGasUsed": "0x39d0",
      "from": "0xff6bdef4fb646ee44e29fe8fc0862b02f0ba8a33",
      "to": "0xcb4eb2dbdf2cc94a00c595252faac257df0f6b8b",
      "contractAddress": null,
      "daFootprintGasScalar": "0x94",
      "l1BaseFeeScalar": "0x44d",
      "l1BlobBaseFee": "0x30aa686",
      "l1BlobBaseFeeScalar": "0xa118b",
      "l1Fee": "0x67f1d5ea4",
      "l1GasPrice": "0x3d91abce",
      "l1GasUsed": "0x640"
    },
    {
      "status": "0x1",
      "cumulativeGasUsed": "0x91bb6",
      "logs": [
        {
          "address": "0xc8aee8ed5fbf01153de2bb1067a98d24f2a9e6dd",
          "topics": [
            "0x8d160eff266df162107c57259a1f1e71787bd4ab800800826bd189d6f2f3e83c",
            "0x0000000000000000000000000000000000000000000000000000000000000001"
          ],
          "data": "0x0000000000000000000000000000000000000000000000000000000069f063ea",
          "blockHash": "0x0000000000000000000000000000000000000000000000000000000000000000",
          "blockNumber": "0x26e8285",
          "blockTimestamp": "0x69f063ea",
          "transactionHash": "0xad854e657cdb7137b46c900c584589724325bc5bfe2abf8bb7365337cafa6bdf",
          "transactionIndex": "0x3",
          "logIndex": "0xc",
          "removed": false
        }
      ],
      "logsBloom": "0x00000000800000000000000000000000000000000000000000000000000000000010000000000000000000000000000000000000000000000000000000040000000000000000000000000000000000000000000000040000000000000000000000000000000000000000000000000000000000000000000000000000000000000000000000000000000000000000000000000000000000000000000000000000000000000000000000000000080000000000000000000000000000000000000000000004000000000000000000000000000000000000000000000000000040000000000200000000000000000000000000000000000002000000000000000000",
      "type": "0x2",
      "transactionHash": "0xad854e657cdb7137b46c900c584589724325bc5bfe2abf8bb7365337cafa6bdf",
      "transactionIndex": "0x3",
      "blockHash": "0x0000000000000000000000000000000000000000000000000000000000000000",
      "blockNumber": "0x26e8285",
      "gasUsed": "0x24982",
      "effectiveGasPrice": "0x5b8d80",
      "blobGasUsed": "0x39d0",
      "from": "0xff6bdef4fb646ee44e29fe8fc0862b02f0ba8a33",
      "to": "0xcb4eb2dbdf2cc94a00c595252faac257df0f6b8b",
      "contractAddress": null,
      "daFootprintGasScalar": "0x94",
      "l1BaseFeeScalar": "0x44d",
      "l1BlobBaseFee": "0x3166248",
      "l1BlobBaseFeeScalar": "0xa118b",
      "l1Fee": "0x6d8c50032",
      "l1GasPrice": "0x427b1e9a",
      "l1GasUsed": "0x640"
    },
    {
      "status": "0x1",
      "cumulativeGasUsed": "0x213b0",
      "logs": [
        {
          "address": "0x7e72772c9f6a35486ea80e15a8974aa8f14c00a8",
          "topics": [
            "0x8c5be1e5ebec7d5bd14f71427d1e84f3dd0314c0f7b2291e5b200ac8c7c3b925",
            "0x000000000000000000000000ff6bdef4fb646ee44e29fe8fc0862b02f0ba8a33",
            "0x000000000000000000000000c8aee8ed5fbf01153de2bb1067a98d24f2a9e6dd"
          ],
          "data": "0xffffffffffffffffffffffffffffffffffffffffffffffffffffffffffffffff",
          "blockHash": "0x0000000000000000000000000000000000000000000000000000000000000000",
          "blockNumber": "0x26e8287",
          "blockTimestamp": "0x69f063ee",
          "transactionHash": "0xd59ec27dfd466b3e21c697925ad40ef94e420f1c5b4a00b55aa8dc41bdf595af",
          "transactionIndex": "0x2",
          "logIndex": "0x1",
          "removed": false
        }
      ],
      "logsBloom": "0x00000000000000000000100000000000000000040000000000000000000000000000000000000000000000000000000000000000000000000000000000200000000000000000000000000000000000040000000000000001400000000000000000200000000000000000000000000000000000000000000000000000000000000000000000000000000000001000000000000000000040000000000000000000020000000000000000000000000000000000000000000000000000000000000000000000000000000000000000010000000000000000000000000000000000000010000000000000000000000000000000000000000000000000000000000000",
      "type": "0x2",
      "transactionHash": "0xd59ec27dfd466b3e21c697925ad40ef94e420f1c5b4a00b55aa8dc41bdf595af",
      "transactionIndex": "0x2",
      "blockHash": "0x0000000000000000000000000000000000000000000000000000000000000000",
      "blockNumber": "0x26e8287",
      "gasUsed": "0xc841",
      "effectiveGasPrice": "0x5b8d80",
      "blobGasUsed": "0x39d0",
      "from": "0xff6bdef4fb646ee44e29fe8fc0862b02f0ba8a33",
      "to": "0x7e72772c9f6a35486ea80e15a8974aa8f14c00a8",
      "contractAddress": null,
      "daFootprintGasScalar": "0x94",
      "l1BaseFeeScalar": "0x44d",
      "l1BlobBaseFee": "0x3166248",
      "l1BlobBaseFeeScalar": "0xa118b",
      "l1Fee": "0x140d67140",
      "l1GasPrice": "0x427b1e9a",
      "l1GasUsed": "0x640"
    },
    {
      "status": "0x1",
      "cumulativeGasUsed": "0xb38b0",
      "logs": [
        {
          "address": "0x7e72772c9f6a35486ea80e15a8974aa8f14c00a8",
          "topics": [
            "0xddf252ad1be2c89b69c2b068fc378daa952ba7f163c4a11628f55a4df523b3ef",
            "0x000000000000000000000000ff6bdef4fb646ee44e29fe8fc0862b02f0ba8a33",
            "0x000000000000000000000000c8aee8ed5fbf01153de2bb1067a98d24f2a9e6dd"
          ],
          "data": "0x000000000000000000000000000000000000000000000025f273933db5700000",
          "blockHash": "0x0000000000000000000000000000000000000000000000000000000000000000",
          "blockNumber": "0x26e8289",
          "blockTimestamp": "0x69f063f2",
          "transactionHash": "0x65a003f27c8d3d8517abb88d76b6e6e25917bd96eb60b21b38ede2265c23e1b2",
          "transactionIndex": "0x2",
          "logIndex": "0xb",
          "removed": false
        },
        {
          "address": "0xc8aee8ed5fbf01153de2bb1067a98d24f2a9e6dd",
          "topics": [
            "0x9cfd25589d1eb8ad71e342a86a8524e83522e3936c0803048c08f6d9ad974f40",
            "0x000000000000000000000000ff6bdef4fb646ee44e29fe8fc0862b02f0ba8a33",
            "0x0000000000000000000000000000000000000000000000000000000000000000"
          ],
          "data": "0x000000000000000000000000000000000000000000000025f273933db5700000000000000000000000000000000000000000000000000025f273933db570000000000000000000000000000000000000000000000000000031f5c4ed27680000",
          "blockHash": "0x0000000000000000000000000000000000000000000000000000000000000000",
          "blockNumber": "0x26e8289",
          "blockTimestamp": "0x69f063f2",
          "transactionHash": "0x65a003f27c8d3d8517abb88d76b6e6e25917bd96eb60b21b38ede2265c23e1b2",
          "transactionIndex": "0x2",
          "logIndex": "0xc",
          "removed": false
        },
        {
          "address": "0xc8aee8ed5fbf01153de2bb1067a98d24f2a9e6dd",
          "topics": [
            "0x875894a489de1b1b13bf2e6c03981e3ddabcf1794b4b94dc5ba5d8e855a1e2f9"
          ],
          "data": "0x00000000000000000000000000000000000000000000000031f5c4ed27680000000000000000000000000000000000000000000000000025f273933db570000000000000000000000000000000000000000000000000006c6b935b8bbd400000",
          "blockHash": "0x0000000000000000000000000000000000000000000000000000000000000000",
          "blockNumber": "0x26e8289",
          "blockTimestamp": "0x69f063f2",
          "transactionHash": "0x65a003f27c8d3d8517abb88d76b6e6e25917bd96eb60b21b38ede2265c23e1b2",
          "transactionIndex": "0x2",
          "logIndex": "0xd",
          "removed": false
        }
      ],
      "logsBloom": "0x00000000000000000000100000000000000000040000000000000000000000000010000000000000000000000000000000000000000000000008000000000000000000000000000000000008000000040000000000000001400000000000000000200000020000000000000000000800000000000000000000000010000000000000000000000000000000001000000000000000000040000000000000000000000000000000000000000010000000000000000000000000000000000000200000800006000000000000000000010000000000000000000000000000000020000000000000800000000000000000000000000000000002000000000000100000",
      "type": "0x2",
      "transactionHash": "0x65a003f27c8d3d8517abb88d76b6e6e25917bd96eb60b21b38ede2265c23e1b2",
      "transactionIndex": "0x2",
      "blockHash": "0x0000000000000000000000000000000000000000000000000000000000000000",
      "blockNumber": "0x26e8289",
      "gasUsed": "0x47cb2",
      "effectiveGasPrice": "0x5b8d80",
      "blobGasUsed": "0x39d0",
      "from": "0xff6bdef4fb646ee44e29fe8fc0862b02f0ba8a33",
      "to": "0xc8aee8ed5fbf01153de2bb1067a98d24f2a9e6dd",
      "contractAddress": null,
      "daFootprintGasScalar": "0x94",
      "l1BaseFeeScalar": "0x44d",
      "l1BlobBaseFee": "0x3166248",
      "l1BlobBaseFeeScalar": "0xa118b",
      "l1Fee": "0x69db9cca1",
      "l1GasPrice": "0x427b1e9a",
      "l1GasUsed": "0x640"
    },
    {
      "status": "0x1",
      "cumulativeGasUsed": "0x185c00",
      "logs": [
        {
          "address": "0xf286970e2470948abb010b4dd35e1ad2da3397b0",
          "topics": [
            "0xddf252ad1be2c89b69c2b068fc378daa952ba7f163c4a11628f55a4df523b3ef",
            "0x0000000000000000000000000000000000000000000000000000000000000000",
            "0x000000000000000000000000455ab6723ccab4cb62983710c33f6311cc85bc97"
          ],
          "data": "0x0000000000000000000000000000000000000000000000000000000002faf080",
          "blockHash": "0x0000000000000000000000000000000000000000000000000000000000000000",
          "blockNumber": "0x26e828b",
          "blockTimestamp": "0x69f063f6",
          "transactionHash": "0x76c662ef2a91de44d984d1603160d32d05160313fa9d04870a57a1f8ac98f237",
          "transactionIndex": "0x6",
          "logIndex": "0x49",
          "removed": false
        }
      ],
      "logsBloom": "0x00000000000000000000000000000000000000000000000000000000000000000000001000000000000000000000000000000000000000000000000000000000000000000000000000000208000000000000000000000000000000000000000000000000020000000000000000000800000000000000000000000010000100000000000000000000000000000002000000000000000000000000000000000000000000000000000000000000000000000000000000000000000000000000000000000002000000000000000000000000000000400000000000000000000020000000000000000000000000000000000000000000000000008000000000000000",
      "type": "0x2",
      "transactionHash": "0x76c662ef2a91de44d984d1603160d32d05160313fa9d04870a57a1f8ac98f237",
      "transactionIndex": "0x6",
      "blockHash": "0x0000000000000000000000000000000000000000000000000000000000000000",
      "blockNumber": "0x26e828b",
      "gasUsed": "0x8468",
      "effectiveGasPrice": "0x5b8d80",
      "blobGasUsed": "0x39d0",
      "from": "0xff6bdef4fb646ee44e29fe8fc0862b02f0ba8a33",
      "to": "0xf286970e2470948abb010b4dd35e1ad2da3397b0",
      "contractAddress": null,
      "daFootprintGasScalar": "0x94",
      "l1BaseFeeScalar": "0x44d",
      "l1BlobBaseFee": "0x32b5830",
      "l1BlobBaseFeeScalar": "0xa118b",
      "l1Fee": "0x1490633bc",
      "l1GasPrice": "0x440fae2b",
      "l1GasUsed": "0x640"
    },
    {
      "status": "0x1",
      "cumulativeGasUsed": "0x3249e4",
      "logs": [
        {
          "address": "0xf286970e2470948abb010b4dd35e1ad2da3397b0",
          "topics": [
            "0x8c5be1e5ebec7d5bd14f71427d1e84f3dd0314c0f7b2291e5b200ac8c7c3b925",
            "0x000000000000000000000000455ab6723ccab4cb62983710c33f6311cc85bc97",
            "0x000000000000000000000000cb4eb2dbdf2cc94a00c595252faac257df0f6b8b"
          ],
          "data": "0xffffffffffffffffffffffffffffffffffffffffffffffffffffffffffffffff",
          "blockHash": "0x0000000000000000000000000000000000000000000000000000000000000000",
          "blockNumber": "0x26e828c",
          "blockTimestamp": "0x69f063f8",
          "transactionHash": "0x0d379a86b1bdce9f404c1e3f711c089b59fb86bd21eb48a6cc684d32e76b4675",
          "transactionIndex": "0xd",
          "logIndex": "0x48",
          "removed": false
        }
      ],
      "logsBloom": "0x00000000000000000000000000000000000000000000000000000000000000000000001000000000000010000000000000000000000000000000000000200000000000000000000000000200000000000000000000000000000000000000000000000000000000000000080000000000000000000000000000000000000100000000000000000000000000000002000000000000000000000000000000000000020000000000000000000000000000000000000000000000000000000000000000000000000000000000000000000000000000400000000000000000000000000010000000000000000000000000000000000000010000008000000000000000",
      "type": "0x2",
      "transactionHash": "0x0d379a86b1bdce9f404c1e3f711c089b59fb86bd21eb48a6cc684d32e76b4675",
      "transactionIndex": "0xd",
      "blockHash": "0x0000000000000000000000000000000000000000000000000000000000000000",
      "blockNumber": "0x26e828c",
      "gasUsed": "0xb4bf",
      "effectiveGasPrice": "0x5b8d80",
      "blobGasUsed": "0x39d0",
      "from": "0x455ab6723ccab4cb62983710c33f6311cc85bc97",
      "to": "0xf286970e2470948abb010b4dd35e1ad2da3397b0",
      "contractAddress": null,
      "daFootprintGasScalar": "0x94",
      "l1BaseFeeScalar": "0x44d",
      "l1BlobBaseFee": "0x32b5830",
      "l1BlobBaseFeeScalar": "0xa118b",
      "l1Fee": "0x1490633bc",
      "l1GasPrice": "0x440fae2b",
      "l1GasUsed": "0x640"
    },
    {
      "status": "0x1",
      "cumulativeGasUsed": "0x4fcd33",
      "logs": [
        {
          "address": "0xf286970e2470948abb010b4dd35e1ad2da3397b0",
          "topics": [
            "0xddf252ad1be2c89b69c2b068fc378daa952ba7f163c4a11628f55a4df523b3ef",
            "0x000000000000000000000000455ab6723ccab4cb62983710c33f6311cc85bc97",
            "0x000000000000000000000000cb4eb2dbdf2cc94a00c595252faac257df0f6b8b"
          ],
          "data": "0x0000000000000000000000000000000000000000000000000000000002932e00",
          "blockHash": "0x9cdd124688ade204ec037f02bb04aa276c1c82b1a21524ed68d9bec65db6ce13",
          "blockNumber": "0x26e828d",
          "blockTimestamp": "0x69f063fa",
          "transactionHash": "0xf78becf5f074dc13962ede95f5eb6fa572cf3e38c270fc8462af076b98be5fdd",
          "transactionIndex": "0x14",
          "logIndex": "0xc2",
          "removed": false
        },
        {
          "address": "0xf286970e2470948abb010b4dd35e1ad2da3397b0",
          "topics": [
            "0xddf252ad1be2c89b69c2b068fc378daa952ba7f163c4a11628f55a4df523b3ef",
            "0x000000000000000000000000cb4eb2dbdf2cc94a00c595252faac257df0f6b8b",
            "0x000000000000000000000000ff6bdef4fb646ee44e29fe8fc0862b02f0ba8a33"
          ],
          "data": "0x000000000000000000000000000000000000000000000000000000000013c680",
          "blockHash": "0x9cdd124688ade204ec037f02bb04aa276c1c82b1a21524ed68d9bec65db6ce13",
          "blockNumber": "0x26e828d",
          "blockTimestamp": "0x69f063fa",
          "transactionHash": "0xf78becf5f074dc13962ede95f5eb6fa572cf3e38c270fc8462af076b98be5fdd",
          "transactionIndex": "0x14",
          "logIndex": "0xc3",
          "removed": false
        },
        {
          "address": "0xcb4eb2dbdf2cc94a00c595252faac257df0f6b8b",
          "topics": [
            "0x4dd12c0ecba594b5bb7a4e3ec05ef19e1135fed23711a1fe4b1c9e6c9b40391b",
            "0x000000000000000000000000455ab6723ccab4cb62983710c33f6311cc85bc97",
            "0x000000000000000000000000f286970e2470948abb010b4dd35e1ad2da3397b0"
          ],
          "data": "0x000000000000000000000000000000000000000000000000000000000013c680",
          "blockHash": "0x9cdd124688ade204ec037f02bb04aa276c1c82b1a21524ed68d9bec65db6ce13",
          "blockNumber": "0x26e828d",
          "blockTimestamp": "0x69f063fa",
          "transactionHash": "0xf78becf5f074dc13962ede95f5eb6fa572cf3e38c270fc8462af076b98be5fdd",
          "transactionIndex": "0x14",
          "logIndex": "0xc4",
          "removed": false
        },
        {
          "address": "0xf286970e2470948abb010b4dd35e1ad2da3397b0",
          "topics": [
            "0xddf252ad1be2c89b69c2b068fc378daa952ba7f163c4a11628f55a4df523b3ef",
            "0x000000000000000000000000cb4eb2dbdf2cc94a00c595252faac257df0f6b8b",
            "0x000000000000000000000000ff6bdef4fb646ee44e29fe8fc0862b02f0ba8a33"
          ],
          "data": "0x00000000000000000000000000000000000000000000000000000000027f6780",
          "blockHash": "0x9cdd124688ade204ec037f02bb04aa276c1c82b1a21524ed68d9bec65db6ce13",
          "blockNumber": "0x26e828d",
          "blockTimestamp": "0x69f063fa",
          "transactionHash": "0xf78becf5f074dc13962ede95f5eb6fa572cf3e38c270fc8462af076b98be5fdd",
          "transactionIndex": "0x14",
          "logIndex": "0xc5",
          "removed": false
        },
        {
          "address": "0x7e72772c9f6a35486ea80e15a8974aa8f14c00a8",
          "topics": [
            "0xddf252ad1be2c89b69c2b068fc378daa952ba7f163c4a11628f55a4df523b3ef",
            "0x0000000000000000000000000000000000000000000000000000000000000000",
            "0x000000000000000000000000455ab6723ccab4cb62983710c33f6311cc85bc97"
          ],
          "data": "0x00000000000000000000000000000000000000000000001043561a8829300000",
          "blockHash": "0x9cdd124688ade204ec037f02bb04aa276c1c82b1a21524ed68d9bec65db6ce13",
          "blockNumber": "0x26e828d",
          "blockTimestamp": "0x69f063fa",
          "transactionHash": "0xf78becf5f074dc13962ede95f5eb6fa572cf3e38c270fc8462af076b98be5fdd",
          "transactionIndex": "0x14",
          "logIndex": "0xc6",
          "removed": false
        },
        {
          "address": "0xcb4eb2dbdf2cc94a00c595252faac257df0f6b8b",
          "topics": [
            "0x0b9c8304b83df3d2827b952a8e4c87faef3556dddcde57a47cb80f0c755606a5",
            "0x000000000000000000000000455ab6723ccab4cb62983710c33f6311cc85bc97",
            "0x000000000000000000000000f286970e2470948abb010b4dd35e1ad2da3397b0"
          ],
          "data": "0x0000000000000000000000000000000000000000000000000000000002932e0000000000000000000000000000000000000000000000001043561a8829300000000000000000000000000000000000000000000000000000000000000000000000000000000000000000000000000000000000000000003635c9adc5dea00000",
          "blockHash": "0x9cdd124688ade204ec037f02bb04aa276c1c82b1a21524ed68d9bec65db6ce13",
          "blockNumber": "0x26e828d",
          "blockTimestamp": "0x69f063fa",
          "transactionHash": "0xf78becf5f074dc13962ede95f5eb6fa572cf3e38c270fc8462af076b98be5fdd",
          "transactionIndex": "0x14",
          "logIndex": "0xc7",
          "removed": false
        }
      ],
      "logsBloom": "0x00000000000000000000100000000000000000040000000080000000004000000000001000000000000010000000000000000000000000000000000000000000080000000000000000000208000010000000001000000001400000000000000000000000020000000000080000000800000000000000000000000010001100000000000100000000000000000002000000000000000040000000000000000000000000000000000000000000000000000000000000000000000000200000000000400002000000000000000000010400000000400000004000000000000020000000000002000000000000000000000000000000010000008000000000000000",
      "type": "0x2",
      "transactionHash": "0xf78becf5f074dc13962ede95f5eb6fa572cf3e38c270fc8462af076b98be5fdd",
      "transactionIndex": "0x14",
      "blockHash": "0x9cdd124688ade204ec037f02bb04aa276c1c82b1a21524ed68d9bec65db6ce13",
      "blockNumber": "0x26e828d",
      "gasUsed": "0x2922f",
      "effectiveGasPrice": "0x5b8d80",
      "blobGasUsed": "0x39d0",
      "from": "0x455ab6723ccab4cb62983710c33f6311cc85bc97",
      "to": "0xcb4eb2dbdf2cc94a00c595252faac257df0f6b8b",
      "contractAddress": null,
      "daFootprintGasScalar": "0x94",
      "l1BaseFeeScalar": "0x44d",
      "l1BlobBaseFee": "0x32b5830",
      "l1BlobBaseFeeScalar": "0xa118b",
      "l1Fee": "0x1490633bc",
      "l1GasPrice": "0x440fae2b",
      "l1GasUsed": "0x640"
    },
    {
      "status": "0x1",
      "cumulativeGasUsed": "0x845f3",
      "logs": [
        {
          "address": "0x7e72772c9f6a35486ea80e15a8974aa8f14c00a8",
          "topics": [
            "0x8c5be1e5ebec7d5bd14f71427d1e84f3dd0314c0f7b2291e5b200ac8c7c3b925",
            "0x000000000000000000000000455ab6723ccab4cb62983710c33f6311cc85bc97",
            "0x000000000000000000000000c8aee8ed5fbf01153de2bb1067a98d24f2a9e6dd"
          ],
          "data": "0xffffffffffffffffffffffffffffffffffffffffffffffffffffffffffffffff",
          "blockHash": "0x0000000000000000000000000000000000000000000000000000000000000000",
          "blockNumber": "0x26e828f",
          "blockTimestamp": "0x69f063fe",
          "transactionHash": "0xbee00596f8ccb7b3c36baea5c60b31b2c8f962b4377198832746f550a402bcd7",
          "transactionIndex": "0x4",
          "logIndex": "0xd",
          "removed": false
        }
      ],
      "logsBloom": "0x00000000000000000000000000000000000000040000000000000000000000000000000000000000000000000000000000000000000000000000000000200000000000000000000000000000000000040000000000000000400000000000000000200000000000000000000000000000000000000000000000000000000100000000000000000000000000001002000000000000000040000000000000000000020000000000000000000000000000000000000000000000000000000000000000000000000000000000000000000000000000000000000000000000000000000010000000000000000000000000000000000000000000008000000000000000",
      "type": "0x2",
      "transactionHash": "0xbee00596f8ccb7b3c36baea5c60b31b2c8f962b4377198832746f550a402bcd7",
      "transactionIndex": "0x4",
      "blockHash": "0x0000000000000000000000000000000000000000000000000000000000000000",
      "blockNumber": "0x26e828f",
      "gasUsed": "0xc841",
      "effectiveGasPrice": "0x5b8d80",
      "blobGasUsed": "0x39d0",
      "from": "0x455ab6723ccab4cb62983710c33f6311cc85bc97",
      "to": "0x7e72772c9f6a35486ea80e15a8974aa8f14c00a8",
      "contractAddress": null,
      "daFootprintGasScalar": "0x94",
      "l1BaseFeeScalar": "0x44d",
      "l1BlobBaseFee": "0x32b5830",
      "l1BlobBaseFeeScalar": "0xa118b",
      "l1Fee": "0x6ecb9154f",
      "l1GasPrice": "0x440fae2b",
      "l1GasUsed": "0x640"
    },
    {
      "status": "0x1",
      "cumulativeGasUsed": "0xb17b5",
      "logs": [
        {
          "address": "0x7e72772c9f6a35486ea80e15a8974aa8f14c00a8",
          "topics": [
            "0xddf252ad1be2c89b69c2b068fc378daa952ba7f163c4a11628f55a4df523b3ef",
            "0x000000000000000000000000455ab6723ccab4cb62983710c33f6311cc85bc97",
            "0x000000000000000000000000c8aee8ed5fbf01153de2bb1067a98d24f2a9e6dd"
          ],
          "data": "0x00000000000000000000000000000000000000000000001043561a8829300000",
          "blockHash": "0x0000000000000000000000000000000000000000000000000000000000000000",
          "blockNumber": "0x26e8291",
          "blockTimestamp": "0x69f06402",
          "transactionHash": "0xd0b7cf84c63d59590a48bf723f7adc998186ec4e9f39a64e302472b549a02741",
          "transactionIndex": "0x2",
          "logIndex": "0xb",
          "removed": false
        },
        {
          "address": "0xc8aee8ed5fbf01153de2bb1067a98d24f2a9e6dd",
          "topics": [
            "0x9cfd25589d1eb8ad71e342a86a8524e83522e3936c0803048c08f6d9ad974f40",
            "0x000000000000000000000000455ab6723ccab4cb62983710c33f6311cc85bc97",
            "0x0000000000000000000000000000000000000000000000000000000000000001"
          ],
          "data": "0x00000000000000000000000000000000000000000000001043561a882930000000000000000000000000000000000000000000000000003635c9adc5dea0000000000000000000000000000000000000000000000000000029a2241af62c0000",
          "blockHash": "0x0000000000000000000000000000000000000000000000000000000000000000",
          "blockNumber": "0x26e8291",
          "blockTimestamp": "0x69f06402",
          "transactionHash": "0xd0b7cf84c63d59590a48bf723f7adc998186ec4e9f39a64e302472b549a02741",
          "transactionIndex": "0x2",
          "logIndex": "0xc",
          "removed": false
        },
        {
          "address": "0xc8aee8ed5fbf01153de2bb1067a98d24f2a9e6dd",
          "topics": [
            "0x875894a489de1b1b13bf2e6c03981e3ddabcf1794b4b94dc5ba5d8e855a1e2f9"
          ],
          "data": "0x00000000000000000000000000000000000000000000000029a2241af62c000000000000000000000000000000000000000000000000003635c9adc5dea0000000000000000000000000000000000000000000000000006c6b935b8bbd400000",
          "blockHash": "0x0000000000000000000000000000000000000000000000000000000000000000",
          "blockNumber": "0x26e8291",
          "blockTimestamp": "0x69f06402",
          "transactionHash": "0xd0b7cf84c63d59590a48bf723f7adc998186ec4e9f39a64e302472b549a02741",
          "transactionIndex": "0x2",
          "logIndex": "0xd",
          "removed": false
        }
      ],
      "logsBloom": "0x00000000000000000000000000000000000000040000000000000000000000000010000000000000000000000000000000000000000000000008000000040000000000000000000000000008000000040000000000040000400000000000000000200000000000000000000000000000000000000000000000000010000100000000000000000000000000001002000000000000000040000000000000000000000000000000000000000010000000000000000000000000000000000000200000800006000000000000000000000000000000000000000000000000000040000000000000800000000000000000000000000000000002008000000000100000",
      "type": "0x2",
      "transactionHash": "0xd0b7cf84c63d59590a48bf723f7adc998186ec4e9f39a64e302472b549a02741",
      "transactionIndex": "0x2",
      "blockHash": "0x0000000000000000000000000000000000000000000000000000000000000000",
      "blockNumber": "0x26e8291",
      "gasUsed": "0x4ade9",
      "effectiveGasPrice": "0x5b8d80",
      "blobGasUsed": "0x39d0",
      "from": "0x455ab6723ccab4cb62983710c33f6311cc85bc97",
      "to": "0xc8aee8ed5fbf01153de2bb1067a98d24f2a9e6dd",
      "contractAddress": null,
      "daFootprintGasScalar": "0x94",
      "l1BaseFeeScalar": "0x44d",
      "l1BlobBaseFee": "0x33dc0ab",
      "l1BlobBaseFeeScalar": "0xa118b",
      "l1Fee": "0x712f0eea7",
      "l1GasPrice": "0x45194676",
      "l1GasUsed": "0x640"
    }
  ],
  "libraries": [],
  "pending": [],
  "returns": {},
  "timestamp": 1777361921217,
  "chain": 84532,
  "commit": "65f7898"
}