{
  "transactions": [
    {
      "hash": "0x828ae7bc3f360861eaad9600023c45dc928d298634723a6ad40277c60fde104e",
      "transactionType": "CALL",
      "contractName": null,
      "contractAddress": "0x341be87780d6ce9f7785900d3245cb61fb3b1ae1",
      "function": "mint(address,uint256)",
      "arguments": [
        "0xFF6bdef4fB646EE44e29FE8FC0862B02F0Ba8a33",
        "25000000000"
      ],
      "transaction": {
        "from": "0xff6bdef4fb646ee44e29fe8fc0862b02f0ba8a33",
        "to": "0x341be87780d6ce9f7785900d3245cb61fb3b1ae1",
        "gas": "0xb6e2",
        "value": "0x0",
        "input": "0x40c10f19000000000000000000000000ff6bdef4fb646ee44e29fe8fc0862b02f0ba8a3300000000000000000000000000000000000000000000000000000005d21dba00",
        "nonce": "0x92",
        "chainId": "0xaa36a7"
      },
      "additionalContracts": [],
      "isFixedGasLimit": false
    },
    {
      "hash": "0x48d3517074446ce09eff5ef9c238cbb37886ecc20ec5efd7cc89f18493e7785f",
      "transactionType": "CALL",
      "contractName": null,
      "contractAddress": "0xb804de4d151e5a8a9eba61a9904ec3588c8efb56",
      "function": "createCampaign((address,string,string,string,string,uint256,(uint256,uint256,uint256,uint256,uint256,uint256,address,address),(uint256,uint256,uint256,uint256)))",
      "arguments": [
        "(0xFF6bdef4fB646EE44e29FE8FC0862B02F0Ba8a33, Repayment Vineyard Demo, RPAY, Repayment Vineyard Yield, rYIELD, 1000000000000000000, (100000000000000000, 100000000000000000000, 250000000000000000000000, 1781446992, 604800, 0, 0x0000000000000000000000000000000000000000, 0x0000000000000000000000000000000000000000), (6000000000000000000000, 700000000000000000000, 2030, 0))"
      ],
      "transaction": {
        "from": "0xff6bdef4fb646ee44e29fe8fc0862b02f0ba8a33",
        "to": "0xb804de4d151e5a8a9eba61a9904ec3588c8efb56",
        "gas": "0x6dcd2b",
        "value": "0x0",
        "input": "0xe5bb36800000000000000000000000000000000000000000000000000000000000000020000000000000000000000000ff6bdef4fb646ee44e29fe8fc0862b02f0ba8a330000000000000000000000000000000000000000000000000000000000000240000000000000000000000000000000000000000000000000000000000000028000000000000000000000000000000000000000000000000000000000000002c000000000000000000000000000000000000000000000000000000000000003000000000000000000000000000000000000000000000000000de0b6b3a7640000000000000000000000000000000000000000000000000000016345785d8a00000000000000000000000000000000000000000000000000056bc75e2d631000000000000000000000000000000000000000000000000034f086f3b33b68400000000000000000000000000000000000000000000000000000000000006a2eb9500000000000000000000000000000000000000000000000000000000000093a8000000000000000000000000000000000000000000000000000000000000000000000000000000000000000000000000000000000000000000000000000000000000000000000000000000000000000000000000000000000000000000000000000000000000000000000000000000000000000000000014542ba12a337c00000000000000000000000000000000000000000000000000025f273933db570000000000000000000000000000000000000000000000000000000000000000007ee0000000000000000000000000000000000000000000000000000000000000000000000000000000000000000000000000000000000000000000000000000001752657061796d656e742056696e65796172642044656d6f00000000000000000000000000000000000000000000000000000000000000000000000000000000045250415900000000000000000000000000000000000000000000000000000000000000000000000000000000000000000000000000000000000000000000001852657061796d656e742056696e6579617264205969656c6400000000000000000000000000000000000000000000000000000000000000000000000000000006725949454c440000000000000000000000000000000000000000000000000000",
        "nonce": "0x93",
        "chainId": "0xaa36a7"
      },
      "additionalContracts": [
        {
          "transactionType": "CREATE",
          "contractName": "TransparentUpgradeableProxy",
          "address": "0x90f294f6f73515b97b69ac57775ff58eba5e0608",
          "initCode": "0x604060a08152610aac8038038061001581610268565b9283398101906060818303126102645761002e8161028d565b60209161003c83820161028d565b8582015190916001600160401b039190828211610264570185601f82011215610264578051908282116101ef5761007b601f8301601f19168701610268565b968288528683830101116102645785905f5b8381106102505750505f918701015284511561023f57823b1561021f577f360894a13ba1a3210667c828492db98dca3e2076cc3735a920a3ca505d382bbc80546001600160a01b03199081166001600160a01b03868116918217909355885192979195907fbc7cd75a20ee27fd9adebab32041f755214dbc6bffa90cc0225b39da2e5c2d3b5f80a28151156102035761012692506102a1565b505b85519161048391828401908111848210176101ef57868492879461062985391681520301905ff080156101e557831691826080527f7e644d79422f17c01e4894b5f4f588d331ebfa28653d42ae832dc59e38c9798f857fb53127684a568b3173ae13b9f8a6016e243e63b6e8ee1178d6a717850b5d6103958587549483519286168352820152a182156101ce5716179055516102f69081610333823960805181600f0152f35b8451633173bdd160e11b81525f6004820152602490fd5b84513d5f823e3d90fd5b634e487b7160e01b5f52604160045260245ffd5b5050346102105750610128565b63b398979f60e01b8152600490fd5b8551634c9c8ce360e01b81526001600160a01b0384166004820152602490fd5b85516330a289cf60e21b8152600490fd5b81810183015189820184015287920161008d565b5f80fd5b6040519190601f01601f191682016001600160401b038111838210176101ef57604052565b51906001600160a01b038216820361026457565b905f8091602081519101845af4808061031f575b156102d55750506040513d81523d5f602083013e60203d82010160405290565b156102fc57604051639996b31560e01b81526001600160a01b039091166004820152602490fd5b3d1561030d576040513d5f823e3d90fd5b60405163d6bda27560e01b8152600490fd5b503d1515806102b55750813b15156102b556fe60806040526001600160a01b03337f000000000000000000000000000000000000000000000000000000000000000082160361006a575f356001600160e01b03191663278f794360e11b14610060576040516334ad5dbb60e21b8152600490fd5b6100686100be565b005b5f80917f360894a13ba1a3210667c828492db98dca3e2076cc3735a920a3ca505d382bbc5416368280378136915af43d5f803e156100a6573d5ff35b3d5ffd5b634e487b7160e01b5f52604160045260245ffd5b3660041161015f57604036600319011261015f576004356001600160a01b0381169081900361015f576024359067ffffffffffffffff9081831161015f573660238401121561015f5782600401358281116101635760405192601f8201601f19908116603f011684019081118482101761016357604052808352366024828601011161015f576020815f92602461015d97018387013784010152610168565b565b5f80fd5b6100aa565b90813b156101ff577f360894a13ba1a3210667c828492db98dca3e2076cc3735a920a3ca505d382bbc80546001600160a01b0319166001600160a01b0384169081179091557fbc7cd75a20ee27fd9adebab32041f755214dbc6bffa90cc0225b39da2e5c2d3b5f80a28051156101e4576101e191610220565b50565b5050346101ed57565b60405163b398979f60e01b8152600490fd5b604051634c9c8ce360e01b81526001600160a01b0383166004820152602490fd5b905f8091602081519101845af48080610289575b156102465750506102436102a7565b90565b1561026e57604051639996b31560e01b81526001600160a01b03919091166004820152602490fd5b3d15155f0361029c5760405163d6bda27560e01b8152600490fd5b503d1515806102345750813b1515610234565b6040513d5f823e3d90fd5b604051903d82523d5f602084013e60203d83010160405256fea2646970667358221220371437a14d55b0192ed17af74450cdb0b22bf1f3d480185986e4348c96e968d064736f6c634300081800336080346100b957601f61048338819003918201601f19168301916001600160401b038311848410176100bd578084926020946040528339810103126100b957516001600160a01b0390818116908190036100b95780156100a1575f80546001600160a01b03198116831782556040519316907f8be0079c531659141344cd1fd0a4f28419497f9722a3daafe3b4186f6b6457e09080a36103b190816100d28239f35b604051631e4fbdf760e01b81525f6004820152602490fd5b5f80fd5b634e487b7160e01b5f52604160045260245ffdfe604060808152600480361015610013575f80fd5b5f915f3560e01c8063715018a6146102bb5780638da5cb5b146102945780639623609d1461015c578063ad3cb1cc146100eb5763f2fde38b14610054575f80fd5b346100e75760203660031901126100e7576001600160a01b038235818116939192908490036100e357610085610350565b83156100cd5750505f54826bffffffffffffffffffffffff60a01b8216175f55167f8be0079c531659141344cd1fd0a4f28419497f9722a3daafe3b4186f6b6457e05f80a380f35b51631e4fbdf760e01b8152908101849052602490fd5b5f80fd5b8280fd5b5082346101595780600319360112610159575080519080820182811067ffffffffffffffff821117610146576101429350815260058252640352e302e360dc1b602083015251918291602083526020830190610312565b0390f35b604184634e487b7160e01b5f525260245ffd5b80fd5b5060603660031901126100e3576001600160a01b03823581811693908490036100e35760249182359081168091036100e35767ffffffffffffffff906044358281116100e357366023820112156100e3578084013583811161028257865191601f8201601f19908116603f0116830185811184821017610270578852818352368783830101116100e357815f92886020930183860137830101526101fe610350565b863b156100e357610230965f92875180998194829363278f794360e11b8452898401528a8a8401526044830190610312565b039134905af1801561026657610244578580f35b909192938095501161025557505052005b604190634e487b7160e01b5f52525ffd5b84513d5f823e3d90fd5b87604188634e487b7160e01b5f52525ffd5b85604186634e487b7160e01b5f52525ffd5b50346100e3575f3660031901126100e3575f5490516001600160a01b039091168152602090f35b346100e3575f3660031901126100e3576102d3610350565b5f80546001600160a01b0319811682556001600160a01b03167f8be0079c531659141344cd1fd0a4f28419497f9722a3daafe3b4186f6b6457e08280a3005b91908251928382525f5b84811061033c575050825f602080949584010152601f8019910116010190565b60208183018101518483018201520161031c565b5f546001600160a01b0316330361036357565b60405163118cdaa760e01b8152336004820152602490fdfea26469706673582212202992a71449476404159c12582e1f3d5c014ae92bc1369e2e03b37152567a3c7d64736f6c634300081800330000000000000000000000007b03b539958db590813ba9ca8788f5ddca4e1b75000000000000000000000000ff6bdef4fb646ee44e29fe8fc0862b02f0ba8a33000000000000000000000000000000000000000000000000000000000000006000000000000000000000000000000000000000000000000000000000000000840415cc15000000000000000000000000ff6bdef4fb646ee44e29fe8fc0862b02f0ba8a33000000000000000000000000b804de4d151e5a8a9eba61a9904ec3588c8efb56000000000000000000000000341be87780d6ce9f7785900d3245cb61fb3b1ae1000000000000000000000000892bd2ab53c26b09cd874c5afeb331cac885184800000000000000000000000000000000000000000000000000000000"
        },
        {
          "transactionType": "CREATE",
          "contractName": "ProxyAdmin",
          "address": "0xa10c18ff3d181028bc4df8d28eacc4d811404400",
          "initCode": "0x6080346100b957601f61048338819003918201601f19168301916001600160401b038311848410176100bd578084926020946040528339810103126100b957516001600160a01b0390818116908190036100b95780156100a1575f80546001600160a01b03198116831782556040519316907f8be0079c531659141344cd1fd0a4f28419497f9722a3daafe3b4186f6b6457e09080a36103b190816100d28239f35b604051631e4fbdf760e01b81525f6004820152602490fd5b5f80fd5b634e487b7160e01b5f52604160045260245ffdfe604060808152600480361015610013575f80fd5b5f915f3560e01c8063715018a6146102bb5780638da5cb5b146102945780639623609d1461015c578063ad3cb1cc146100eb5763f2fde38b14610054575f80fd5b346100e75760203660031901126100e7576001600160a01b038235818116939192908490036100e357610085610350565b83156100cd5750505f54826bffffffffffffffffffffffff60a01b8216175f55167f8be0079c531659141344cd1fd0a4f28419497f9722a3daafe3b4186f6b6457e05f80a380f35b51631e4fbdf760e01b8152908101849052602490fd5b5f80fd5b8280fd5b5082346101595780600319360112610159575080519080820182811067ffffffffffffffff821117610146576101429350815260058252640352e302e360dc1b602083015251918291602083526020830190610312565b0390f35b604184634e487b7160e01b5f525260245ffd5b80fd5b5060603660031901126100e3576001600160a01b03823581811693908490036100e35760249182359081168091036100e35767ffffffffffffffff906044358281116100e357366023820112156100e3578084013583811161028257865191601f8201601f19908116603f0116830185811184821017610270578852818352368783830101116100e357815f92886020930183860137830101526101fe610350565b863b156100e357610230965f92875180998194829363278f794360e11b8452898401528a8a8401526044830190610312565b039134905af1801561026657610244578580f35b909192938095501161025557505052005b604190634e487b7160e01b5f52525ffd5b84513d5f823e3d90fd5b87604188634e487b7160e01b5f52525ffd5b85604186634e487b7160e01b5f52525ffd5b50346100e3575f3660031901126100e3575f5490516001600160a01b039091168152602090f35b346100e3575f3660031901126100e3576102d3610350565b5f80546001600160a01b0319811682556001600160a01b03167f8be0079c531659141344cd1fd0a4f28419497f9722a3daafe3b4186f6b6457e08280a3005b91908251928382525f5b84811061033c575050825f602080949584010152601f8019910116010190565b60208183018101518483018201520161031c565b5f546001600160a01b0316330361036357565b60405163118cdaa760e01b8152336004820152602490fdfea26469706673582212202992a71449476404159c12582e1f3d5c014ae92bc1369e2e03b37152567a3c7d64736f6c63430008180033000000000000000000000000ff6bdef4fb646ee44e29fe8fc0862b02f0ba8a33"
        },
        {
          "transactionType": "CREATE",
          "contractName": "TransparentUpgradeableProxy",
          "address": "0xd080da73d0d8a1b004d3b82c7ed6044c0307dec7",
          "initCode": "0x604060a08152610aac8038038061001581610268565b9283398101906060818303126102645761002e8161028d565b60209161003c83820161028d565b8582015190916001600160401b039190828211610264570185601f82011215610264578051908282116101ef5761007b601f8301601f19168701610268565b968288528683830101116102645785905f5b8381106102505750505f918701015284511561023f57823b1561021f577f360894a13ba1a3210667c828492db98dca3e2076cc3735a920a3ca505d382bbc80546001600160a01b03199081166001600160a01b03868116918217909355885192979195907fbc7cd75a20ee27fd9adebab32041f755214dbc6bffa90cc0225b39da2e5c2d3b5f80a28151156102035761012692506102a1565b505b85519161048391828401908111848210176101ef57868492879461062985391681520301905ff080156101e557831691826080527f7e644d79422f17c01e4894b5f4f588d331ebfa28653d42ae832dc59e38c9798f857fb53127684a568b3173ae13b9f8a6016e243e63b6e8ee1178d6a717850b5d6103958587549483519286168352820152a182156101ce5716179055516102f69081610333823960805181600f0152f35b8451633173bdd160e11b81525f6004820152602490fd5b84513d5f823e3d90fd5b634e487b7160e01b5f52604160045260245ffd5b5050346102105750610128565b63b398979f60e01b8152600490fd5b8551634c9c8ce360e01b81526001600160a01b0384166004820152602490fd5b85516330a289cf60e21b8152600490fd5b81810183015189820184015287920161008d565b5f80fd5b6040519190601f01601f191682016001600160401b038111838210176101ef57604052565b51906001600160a01b038216820361026457565b905f8091602081519101845af4808061031f575b156102d55750506040513d81523d5f602083013e60203d82010160405290565b156102fc57604051639996b31560e01b81526001600160a01b039091166004820152602490fd5b3d1561030d576040513d5f823e3d90fd5b60405163d6bda27560e01b8152600490fd5b503d1515806102b55750813b15156102b556fe60806040526001600160a01b03337f000000000000000000000000000000000000000000000000000000000000000082160361006a575f356001600160e01b03191663278f794360e11b14610060576040516334ad5dbb60e21b8152600490fd5b6100686100be565b005b5f80917f360894a13ba1a3210667c828492db98dca3e2076cc3735a920a3ca505d382bbc5416368280378136915af43d5f803e156100a6573d5ff35b3d5ffd5b634e487b7160e01b5f52604160045260245ffd5b3660041161015f57604036600319011261015f576004356001600160a01b0381169081900361015f576024359067ffffffffffffffff9081831161015f573660238401121561015f5782600401358281116101635760405192601f8201601f19908116603f011684019081118482101761016357604052808352366024828601011161015f576020815f92602461015d97018387013784010152610168565b565b5f80fd5b6100aa565b90813b156101ff577f360894a13ba1a3210667c828492db98dca3e2076cc3735a920a3ca505d382bbc80546001600160a01b0319166001600160a01b0384169081179091557fbc7cd75a20ee27fd9adebab32041f755214dbc6bffa90cc0225b39da2e5c2d3b5f80a28051156101e4576101e191610220565b50565b5050346101ed57565b60405163b398979f60e01b8152600490fd5b604051634c9c8ce360e01b81526001600160a01b0383166004820152602490fd5b905f8091602081519101845af48080610289575b156102465750506102436102a7565b90565b1561026e57604051639996b31560e01b81526001600160a01b03919091166004820152602490fd5b3d15155f0361029c5760405163d6bda27560e01b8152600490fd5b503d1515806102345750813b1515610234565b6040513d5f823e3d90fd5b604051903d82523d5f602084013e60203d83010160405256fea2646970667358221220371437a14d55b0192ed17af74450cdb0b22bf1f3d480185986e4348c96e968d064736f6c634300081800336080346100b957601f61048338819003918201601f19168301916001600160401b038311848410176100bd578084926020946040528339810103126100b957516001600160a01b0390818116908190036100b95780156100a1575f80546001600160a01b03198116831782556040519316907f8be0079c531659141344cd1fd0a4f28419497f9722a3daafe3b4186f6b6457e09080a36103b190816100d28239f35b604051631e4fbdf760e01b81525f6004820152602490fd5b5f80fd5b634e487b7160e01b5f52604160045260245ffdfe604060808152600480361015610013575f80fd5b5f915f3560e01c8063715018a6146102bb5780638da5cb5b146102945780639623609d1461015c578063ad3cb1cc146100eb5763f2fde38b14610054575f80fd5b346100e75760203660031901126100e7576001600160a01b038235818116939192908490036100e357610085610350565b83156100cd5750505f54826bffffffffffffffffffffffff60a01b8216175f55167f8be0079c531659141344cd1fd0a4f28419497f9722a3daafe3b4186f6b6457e05f80a380f35b51631e4fbdf760e01b8152908101849052602490fd5b5f80fd5b8280fd5b5082346101595780600319360112610159575080519080820182811067ffffffffffffffff821117610146576101429350815260058252640352e302e360dc1b602083015251918291602083526020830190610312565b0390f35b604184634e487b7160e01b5f525260245ffd5b80fd5b5060603660031901126100e3576001600160a01b03823581811693908490036100e35760249182359081168091036100e35767ffffffffffffffff906044358281116100e357366023820112156100e3578084013583811161028257865191601f8201601f19908116603f0116830185811184821017610270578852818352368783830101116100e357815f92886020930183860137830101526101fe610350565b863b156100e357610230965f92875180998194829363278f794360e11b8452898401528a8a8401526044830190610312565b039134905af1801561026657610244578580f35b909192938095501161025557505052005b604190634e487b7160e01b5f52525ffd5b84513d5f823e3d90fd5b87604188634e487b7160e01b5f52525ffd5b85604186634e487b7160e01b5f52525ffd5b50346100e3575f3660031901126100e3575f5490516001600160a01b039091168152602090f35b346100e3575f3660031901126100e3576102d3610350565b5f80546001600160a01b0319811682556001600160a01b03167f8be0079c531659141344cd1fd0a4f28419497f9722a3daafe3b4186f6b6457e08280a3005b91908251928382525f5b84811061033c575050825f602080949584010152601f8019910116010190565b60208183018101518483018201520161031c565b5f546001600160a01b0316330361036357565b60405163118cdaa760e01b8152336004820152602490fdfea26469706673582212202992a71449476404159c12582e1f3d5c014ae92bc1369e2e03b37152567a3c7d64736f6c634300081800330000000000000000000000002a53ffd704ef93b001ab7439f08e13d6836fc336000000000000000000000000ff6bdef4fb646ee44e29fe8fc0862b02f0ba8a33000000000000000000000000000000000000000000000000000000000000006000000000000000000000000000000000000000000000000000000000000000e4077f224a000000000000000000000000000000000000000000000000000000000000006000000000000000000000000000000000000000000000000000000000000000a000000000000000000000000090f294f6f73515b97b69ac57775ff58eba5e0608000000000000000000000000000000000000000000000000000000000000001752657061796d656e742056696e65796172642044656d6f0000000000000000000000000000000000000000000000000000000000000000000000000000000004525041590000000000000000000000000000000000000000000000000000000000000000000000000000000000000000000000000000000000000000"
        },
        {
          "transactionType": "CREATE",
          "contractName": "ProxyAdmin",
          "address": "0x0af8e4d2e4289ecf499395b1d23f186ac2a3cdc1",
          "initCode": "0x6080346100b957601f61048338819003918201601f19168301916001600160401b038311848410176100bd578084926020946040528339810103126100b957516001600160a01b0390818116908190036100b95780156100a1575f80546001600160a01b03198116831782556040519316907f8be0079c531659141344cd1fd0a4f28419497f9722a3daafe3b4186f6b6457e09080a36103b190816100d28239f35b604051631e4fbdf760e01b81525f6004820152602490fd5b5f80fd5b634e487b7160e01b5f52604160045260245ffdfe604060808152600480361015610013575f80fd5b5f915f3560e01c8063715018a6146102bb5780638da5cb5b146102945780639623609d1461015c578063ad3cb1cc146100eb5763f2fde38b14610054575f80fd5b346100e75760203660031901126100e7576001600160a01b038235818116939192908490036100e357610085610350565b83156100cd5750505f54826bffffffffffffffffffffffff60a01b8216175f55167f8be0079c531659141344cd1fd0a4f28419497f9722a3daafe3b4186f6b6457e05f80a380f35b51631e4fbdf760e01b8152908101849052602490fd5b5f80fd5b8280fd5b5082346101595780600319360112610159575080519080820182811067ffffffffffffffff821117610146576101429350815260058252640352e302e360dc1b602083015251918291602083526020830190610312565b0390f35b604184634e487b7160e01b5f525260245ffd5b80fd5b5060603660031901126100e3576001600160a01b03823581811693908490036100e35760249182359081168091036100e35767ffffffffffffffff906044358281116100e357366023820112156100e3578084013583811161028257865191601f8201601f19908116603f0116830185811184821017610270578852818352368783830101116100e357815f92886020930183860137830101526101fe610350565b863b156100e357610230965f92875180998194829363278f794360e11b8452898401528a8a8401526044830190610312565b039134905af1801561026657610244578580f35b909192938095501161025557505052005b604190634e487b7160e01b5f52525ffd5b84513d5f823e3d90fd5b87604188634e487b7160e01b5f52525ffd5b85604186634e487b7160e01b5f52525ffd5b50346100e3575f3660031901126100e3575f5490516001600160a01b039091168152602090f35b346100e3575f3660031901126100e3576102d3610350565b5f80546001600160a01b0319811682556001600160a01b03167f8be0079c531659141344cd1fd0a4f28419497f9722a3daafe3b4186f6b6457e08280a3005b91908251928382525f5b84811061033c575050825f602080949584010152601f8019910116010190565b60208183018101518483018201520161031c565b5f546001600160a01b0316330361036357565b60405163118cdaa760e01b8152336004820152602490fdfea26469706673582212202992a71449476404159c12582e1f3d5c014ae92bc1369e2e03b37152567a3c7d64736f6c63430008180033000000000000000000000000ff6bdef4fb646ee44e29fe8fc0862b02f0ba8a33"
        },
        {
          "transactionType": "CREATE",
          "contractName": "TransparentUpgradeableProxy",
          "address": "0x1c1bc02d68b90f994711f382bec37587f489f838",
          "initCode": "0x604060a08152610aac8038038061001581610268565b9283398101906060818303126102645761002e8161028d565b60209161003c83820161028d565b8582015190916001600160401b039190828211610264570185601f82011215610264578051908282116101ef5761007b601f8301601f19168701610268565b968288528683830101116102645785905f5b8381106102505750505f918701015284511561023f57823b1561021f577f360894a13ba1a3210667c828492db98dca3e2076cc3735a920a3ca505d382bbc80546001600160a01b03199081166001600160a01b03868116918217909355885192979195907fbc7cd75a20ee27fd9adebab32041f755214dbc6bffa90cc0225b39da2e5c2d3b5f80a28151156102035761012692506102a1565b505b85519161048391828401908111848210176101ef57868492879461062985391681520301905ff080156101e557831691826080527f7e644d79422f17c01e4894b5f4f588d331ebfa28653d42ae832dc59e38c9798f857fb53127684a568b3173ae13b9f8a6016e243e63b6e8ee1178d6a717850b5d6103958587549483519286168352820152a182156101ce5716179055516102f69081610333823960805181600f0152f35b8451633173bdd160e11b81525f6004820152602490fd5b84513d5f823e3d90fd5b634e487b7160e01b5f52604160045260245ffd5b5050346102105750610128565b63b398979f60e01b8152600490fd5b8551634c9c8ce360e01b81526001600160a01b0384166004820152602490fd5b85516330a289cf60e21b8152600490fd5b81810183015189820184015287920161008d565b5f80fd5b6040519190601f01601f191682016001600160401b038111838210176101ef57604052565b51906001600160a01b038216820361026457565b905f8091602081519101845af4808061031f575b156102d55750506040513d81523d5f602083013e60203d82010160405290565b156102fc57604051639996b31560e01b81526001600160a01b039091166004820152602490fd5b3d1561030d576040513d5f823e3d90fd5b60405163d6bda27560e01b8152600490fd5b503d1515806102b55750813b15156102b556fe60806040526001600160a01b03337f000000000000000000000000000000000000000000000000000000000000000082160361006a575f356001600160e01b03191663278f794360e11b14610060576040516334ad5dbb60e21b8152600490fd5b6100686100be565b005b5f80917f360894a13ba1a3210667c828492db98dca3e2076cc3735a920a3ca505d382bbc5416368280378136915af43d5f803e156100a6573d5ff35b3d5ffd5b634e487b7160e01b5f52604160045260245ffd5b3660041161015f57604036600319011261015f576004356001600160a01b0381169081900361015f576024359067ffffffffffffffff9081831161015f573660238401121561015f5782600401358281116101635760405192601f8201601f19908116603f011684019081118482101761016357604052808352366024828601011161015f576020815f92602461015d97018387013784010152610168565b565b5f80fd5b6100aa565b90813b156101ff577f360894a13ba1a3210667c828492db98dca3e2076cc3735a920a3ca505d382bbc80546001600160a01b0319166001600160a01b0384169081179091557fbc7cd75a20ee27fd9adebab32041f755214dbc6bffa90cc0225b39da2e5c2d3b5f80a28051156101e4576101e191610220565b50565b5050346101ed57565b60405163b398979f60e01b8152600490fd5b604051634c9c8ce360e01b81526001600160a01b0383166004820152602490fd5b905f8091602081519101845af48080610289575b156102465750506102436102a7565b90565b1561026e57604051639996b31560e01b81526001600160a01b03919091166004820152602490fd5b3d15155f0361029c5760405163d6bda27560e01b8152600490fd5b503d1515806102345750813b1515610234565b6040513d5f823e3d90fd5b604051903d82523d5f602084013e60203d83010160405256fea2646970667358221220371437a14d55b0192ed17af74450cdb0b22bf1f3d480185986e4348c96e968d064736f6c634300081800336080346100b957601f61048338819003918201601f19168301916001600160401b038311848410176100bd578084926020946040528339810103126100b957516001600160a01b0390818116908190036100b95780156100a1575f80546001600160a01b03198116831782556040519316907f8be0079c531659141344cd1fd0a4f28419497f9722a3daafe3b4186f6b6457e09080a36103b190816100d28239f35b604051631e4fbdf760e01b81525f6004820152602490fd5b5f80fd5b634e487b7160e01b5f52604160045260245ffdfe604060808152600480361015610013575f80fd5b5f915f3560e01c8063715018a6146102bb5780638da5cb5b146102945780639623609d1461015c578063ad3cb1cc146100eb5763f2fde38b14610054575f80fd5b346100e75760203660031901126100e7576001600160a01b038235818116939192908490036100e357610085610350565b83156100cd5750505f54826bffffffffffffffffffffffff60a01b8216175f55167f8be0079c531659141344cd1fd0a4f28419497f9722a3daafe3b4186f6b6457e05f80a380f35b51631e4fbdf760e01b8152908101849052602490fd5b5f80fd5b8280fd5b5082346101595780600319360112610159575080519080820182811067ffffffffffffffff821117610146576101429350815260058252640352e302e360dc1b602083015251918291602083526020830190610312565b0390f35b604184634e487b7160e01b5f525260245ffd5b80fd5b5060603660031901126100e3576001600160a01b03823581811693908490036100e35760249182359081168091036100e35767ffffffffffffffff906044358281116100e357366023820112156100e3578084013583811161028257865191601f8201601f19908116603f0116830185811184821017610270578852818352368783830101116100e357815f92886020930183860137830101526101fe610350565b863b156100e357610230965f92875180998194829363278f794360e11b8452898401528a8a8401526044830190610312565b039134905af1801561026657610244578580f35b909192938095501161025557505052005b604190634e487b7160e01b5f52525ffd5b84513d5f823e3d90fd5b87604188634e487b7160e01b5f52525ffd5b85604186634e487b7160e01b5f52525ffd5b50346100e3575f3660031901126100e3575f5490516001600160a01b039091168152602090f35b346100e3575f3660031901126100e3576102d3610350565b5f80546001600160a01b0319811682556001600160a01b03167f8be0079c531659141344cd1fd0a4f28419497f9722a3daafe3b4186f6b6457e08280a3005b91908251928382525f5b84811061033c575050825f602080949584010152601f8019910116010190565b60208183018101518483018201520161031c565b5f546001600160a01b0316330361036357565b60405163118cdaa760e01b8152336004820152602490fdfea26469706673582212202992a71449476404159c12582e1f3d5c014ae92bc1369e2e03b37152567a3c7d64736f6c6343000818003300000000000000000000000071bfc33642477f86cd9a2ad50dd63ded170f4ec5000000000000000000000000ff6bdef4fb646ee44e29fe8fc0862b02f0ba8a33000000000000000000000000000000000000000000000000000000000000006000000000000000000000000000000000000000000000000000000000000000a4a6b63eb8000000000000000000000000d080da73d0d8a1b004d3b82c7ed6044c0307dec700000000000000000000000090f294f6f73515b97b69ac57775ff58eba5e0608000000000000000000000000b804de4d151e5a8a9eba61a9904ec3588c8efb560000000000000000000000000000000000000000000034f086f3b33b684000000000000000000000000000000000000000000000000000000000000000093a8000000000000000000000000000000000000000000000000000000000"
        },
        {
          "transactionType": "CREATE",
          "contractName": "ProxyAdmin",
          "address": "0xd289873b3a2762317ce829a169e0084c6dca7175",
          "initCode": "0x6080346100b957601f61048338819003918201601f19168301916001600160401b038311848410176100bd578084926020946040528339810103126100b957516001600160a01b0390818116908190036100b95780156100a1575f80546001600160a01b03198116831782556040519316907f8be0079c531659141344cd1fd0a4f28419497f9722a3daafe3b4186f6b6457e09080a36103b190816100d28239f35b604051631e4fbdf760e01b81525f6004820152602490fd5b5f80fd5b634e487b7160e01b5f52604160045260245ffdfe604060808152600480361015610013575f80fd5b5f915f3560e01c8063715018a6146102bb5780638da5cb5b146102945780639623609d1461015c578063ad3cb1cc146100eb5763f2fde38b14610054575f80fd5b346100e75760203660031901126100e7576001600160a01b038235818116939192908490036100e357610085610350565b83156100cd5750505f54826bffffffffffffffffffffffff60a01b8216175f55167f8be0079c531659141344cd1fd0a4f28419497f9722a3daafe3b4186f6b6457e05f80a380f35b51631e4fbdf760e01b8152908101849052602490fd5b5f80fd5b8280fd5b5082346101595780600319360112610159575080519080820182811067ffffffffffffffff821117610146576101429350815260058252640352e302e360dc1b602083015251918291602083526020830190610312565b0390f35b604184634e487b7160e01b5f525260245ffd5b80fd5b5060603660031901126100e3576001600160a01b03823581811693908490036100e35760249182359081168091036100e35767ffffffffffffffff906044358281116100e357366023820112156100e3578084013583811161028257865191601f8201601f19908116603f0116830185811184821017610270578852818352368783830101116100e357815f92886020930183860137830101526101fe610350565b863b156100e357610230965f92875180998194829363278f794360e11b8452898401528a8a8401526044830190610312565b039134905af1801561026657610244578580f35b909192938095501161025557505052005b604190634e487b7160e01b5f52525ffd5b84513d5f823e3d90fd5b87604188634e487b7160e01b5f52525ffd5b85604186634e487b7160e01b5f52525ffd5b50346100e3575f3660031901126100e3575f5490516001600160a01b039091168152602090f35b346100e3575f3660031901126100e3576102d3610350565b5f80546001600160a01b0319811682556001600160a01b03167f8be0079c531659141344cd1fd0a4f28419497f9722a3daafe3b4186f6b6457e08280a3005b91908251928382525f5b84811061033c575050825f602080949584010152601f8019910116010190565b60208183018101518483018201520161031c565b5f546001600160a01b0316330361036357565b60405163118cdaa760e01b8152336004820152602490fdfea26469706673582212202992a71449476404159c12582e1f3d5c014ae92bc1369e2e03b37152567a3c7d64736f6c63430008180033000000000000000000000000ff6bdef4fb646ee44e29fe8fc0862b02f0ba8a33"
        },
        {
          "transactionType": "CREATE",
          "contractName": "TransparentUpgradeableProxy",
          "address": "0x845e1946aaa5ba69b91d413f3e316a4345bbd17d",
          "initCode": "0x604060a08152610aac8038038061001581610268565b9283398101906060818303126102645761002e8161028d565b60209161003c83820161028d565b8582015190916001600160401b039190828211610264570185601f82011215610264578051908282116101ef5761007b601f8301601f19168701610268565b968288528683830101116102645785905f5b8381106102505750505f918701015284511561023f57823b1561021f577f360894a13ba1a3210667c828492db98dca3e2076cc3735a920a3ca505d382bbc80546001600160a01b03199081166001600160a01b03868116918217909355885192979195907fbc7cd75a20ee27fd9adebab32041f755214dbc6bffa90cc0225b39da2e5c2d3b5f80a28151156102035761012692506102a1565b505b85519161048391828401908111848210176101ef57868492879461062985391681520301905ff080156101e557831691826080527f7e644d79422f17c01e4894b5f4f588d331ebfa28653d42ae832dc59e38c9798f857fb53127684a568b3173ae13b9f8a6016e243e63b6e8ee1178d6a717850b5d6103958587549483519286168352820152a182156101ce5716179055516102f69081610333823960805181600f0152f35b8451633173bdd160e11b81525f6004820152602490fd5b84513d5f823e3d90fd5b634e487b7160e01b5f52604160045260245ffd5b5050346102105750610128565b63b398979f60e01b8152600490fd5b8551634c9c8ce360e01b81526001600160a01b0384166004820152602490fd5b85516330a289cf60e21b8152600490fd5b81810183015189820184015287920161008d565b5f80fd5b6040519190601f01601f191682016001600160401b038111838210176101ef57604052565b51906001600160a01b038216820361026457565b905f8091602081519101845af4808061031f575b156102d55750506040513d81523d5f602083013e60203d82010160405290565b156102fc57604051639996b31560e01b81526001600160a01b039091166004820152602490fd5b3d1561030d576040513d5f823e3d90fd5b60405163d6bda27560e01b8152600490fd5b503d1515806102b55750813b15156102b556fe60806040526001600160a01b03337f000000000000000000000000000000000000000000000000000000000000000082160361006a575f356001600160e01b03191663278f794360e11b14610060576040516334ad5dbb60e21b8152600490fd5b6100686100be565b005b5f80917f360894a13ba1a3210667c828492db98dca3e2076cc3735a920a3ca505d382bbc5416368280378136915af43d5f803e156100a6573d5ff35b3d5ffd5b634e487b7160e01b5f52604160045260245ffd5b3660041161015f57604036600319011261015f576004356001600160a01b0381169081900361015f576024359067ffffffffffffffff9081831161015f573660238401121561015f5782600401358281116101635760405192601f8201601f19908116603f011684019081118482101761016357604052808352366024828601011161015f576020815f92602461015d97018387013784010152610168565b565b5f80fd5b6100aa565b90813b156101ff577f360894a13ba1a3210667c828492db98dca3e2076cc3735a920a3ca505d382bbc80546001600160a01b0319166001600160a01b0384169081179091557fbc7cd75a20ee27fd9adebab32041f755214dbc6bffa90cc0225b39da2e5c2d3b5f80a28051156101e4576101e191610220565b50565b5050346101ed57565b60405163b398979f60e01b8152600490fd5b604051634c9c8ce360e01b81526001600160a01b0383166004820152602490fd5b905f8091602081519101845af48080610289575b156102465750506102436102a7565b90565b1561026e57604051639996b31560e01b81526001600160a01b03919091166004820152602490fd5b3d15155f0361029c5760405163d6bda27560e01b8152600490fd5b503d1515806102345750813b1515610234565b6040513d5f823e3d90fd5b604051903d82523d5f602084013e60203d83010160405256fea2646970667358221220371437a14d55b0192ed17af74450cdb0b22bf1f3d480185986e4348c96e968d064736f6c634300081800336080346100b957601f61048338819003918201601f19168301916001600160401b038311848410176100bd578084926020946040528339810103126100b957516001600160a01b0390818116908190036100b95780156100a1575f80546001600160a01b03198116831782556040519316907f8be0079c531659141344cd1fd0a4f28419497f9722a3daafe3b4186f6b6457e09080a36103b190816100d28239f35b604051631e4fbdf760e01b81525f6004820152602490fd5b5f80fd5b634e487b7160e01b5f52604160045260245ffdfe604060808152600480361015610013575f80fd5b5f915f3560e01c8063715018a6146102bb5780638da5cb5b146102945780639623609d1461015c578063ad3cb1cc146100eb5763f2fde38b14610054575f80fd5b346100e75760203660031901126100e7576001600160a01b038235818116939192908490036100e357610085610350565b83156100cd5750505f54826bffffffffffffffffffffffff60a01b8216175f55167f8be0079c531659141344cd1fd0a4f28419497f9722a3daafe3b4186f6b6457e05f80a380f35b51631e4fbdf760e01b8152908101849052602490fd5b5f80fd5b8280fd5b5082346101595780600319360112610159575080519080820182811067ffffffffffffffff821117610146576101429350815260058252640352e302e360dc1b602083015251918291602083526020830190610312565b0390f35b604184634e487b7160e01b5f525260245ffd5b80fd5b5060603660031901126100e3576001600160a01b03823581811693908490036100e35760249182359081168091036100e35767ffffffffffffffff906044358281116100e357366023820112156100e3578084013583811161028257865191601f8201601f19908116603f0116830185811184821017610270578852818352368783830101116100e357815f92886020930183860137830101526101fe610350565b863b156100e357610230965f92875180998194829363278f794360e11b8452898401528a8a8401526044830190610312565b039134905af1801561026657610244578580f35b909192938095501161025557505052005b604190634e487b7160e01b5f52525ffd5b84513d5f823e3d90fd5b87604188634e487b7160e01b5f52525ffd5b85604186634e487b7160e01b5f52525ffd5b50346100e3575f3660031901126100e3575f5490516001600160a01b039091168152602090f35b346100e3575f3660031901126100e3576102d3610350565b5f80546001600160a01b0319811682556001600160a01b03167f8be0079c531659141344cd1fd0a4f28419497f9722a3daafe3b4186f6b6457e08280a3005b91908251928382525f5b84811061033c575050825f602080949584010152601f8019910116010190565b60208183018101518483018201520161031c565b5f546001600160a01b0316330361036357565b60405163118cdaa760e01b8152336004820152602490fdfea26469706673582212202992a71449476404159c12582e1f3d5c014ae92bc1369e2e03b37152567a3c7d64736f6c634300081800330000000000000000000000002a9ba590375486afe22b86738367cf5bd391789c000000000000000000000000ff6bdef4fb646ee44e29fe8fc0862b02f0ba8a33000000000000000000000000000000000000000000000000000000000000006000000000000000000000000000000000000000000000000000000000000000c4d7c41c79000000000000000000000000341be87780d6ce9f7785900d3245cb61fb3b1ae1000000000000000000000000ff6bdef4fb646ee44e29fe8fc0862b02f0ba8a33000000000000000000000000b804de4d151e5a8a9eba61a9904ec3588c8efb56000000000000000000000000892bd2ab53c26b09cd874c5afeb331cac885184800000000000000000000000000000000000000000000000000000000000000c80000000000000000000000000000000000000000000000000de0b6b3a764000000000000000000000000000000000000000000000000000000000000"
        },
        {
          "transactionType": "CREATE",
          "contractName": "ProxyAdmin",
          "address": "0xa4e40864e56163bddf3dc6d3e72e5ba41275e7bd",
          "initCode": "0x6080346100b957601f61048338819003918201601f19168301916001600160401b038311848410176100bd578084926020946040528339810103126100b957516001600160a01b0390818116908190036100b95780156100a1575f80546001600160a01b03198116831782556040519316907f8be0079c531659141344cd1fd0a4f28419497f9722a3daafe3b4186f6b6457e09080a36103b190816100d28239f35b604051631e4fbdf760e01b81525f6004820152602490fd5b5f80fd5b634e487b7160e01b5f52604160045260245ffdfe604060808152600480361015610013575f80fd5b5f915f3560e01c8063715018a6146102bb5780638da5cb5b146102945780639623609d1461015c578063ad3cb1cc146100eb5763f2fde38b14610054575f80fd5b346100e75760203660031901126100e7576001600160a01b038235818116939192908490036100e357610085610350565b83156100cd5750505f54826bffffffffffffffffffffffff60a01b8216175f55167f8be0079c531659141344cd1fd0a4f28419497f9722a3daafe3b4186f6b6457e05f80a380f35b51631e4fbdf760e01b8152908101849052602490fd5b5f80fd5b8280fd5b5082346101595780600319360112610159575080519080820182811067ffffffffffffffff821117610146576101429350815260058252640352e302e360dc1b602083015251918291602083526020830190610312565b0390f35b604184634e487b7160e01b5f525260245ffd5b80fd5b5060603660031901126100e3576001600160a01b03823581811693908490036100e35760249182359081168091036100e35767ffffffffffffffff906044358281116100e357366023820112156100e3578084013583811161028257865191601f8201601f19908116603f0116830185811184821017610270578852818352368783830101116100e357815f92886020930183860137830101526101fe610350565b863b156100e357610230965f92875180998194829363278f794360e11b8452898401528a8a8401526044830190610312565b039134905af1801561026657610244578580f35b909192938095501161025557505052005b604190634e487b7160e01b5f52525ffd5b84513d5f823e3d90fd5b87604188634e487b7160e01b5f52525ffd5b85604186634e487b7160e01b5f52525ffd5b50346100e3575f3660031901126100e3575f5490516001600160a01b039091168152602090f35b346100e3575f3660031901126100e3576102d3610350565b5f80546001600160a01b0319811682556001600160a01b03167f8be0079c531659141344cd1fd0a4f28419497f9722a3daafe3b4186f6b6457e08280a3005b91908251928382525f5b84811061033c575050825f602080949584010152601f8019910116010190565b60208183018101518483018201520161031c565b5f546001600160a01b0316330361036357565b60405163118cdaa760e01b8152336004820152602490fdfea26469706673582212202992a71449476404159c12582e1f3d5c014ae92bc1369e2e03b37152567a3c7d64736f6c63430008180033000000000000000000000000ff6bdef4fb646ee44e29fe8fc0862b02f0ba8a33"
        },
        {
          "transactionType": "CREATE",
          "contractName": "TransparentUpgradeableProxy",
          "address": "0x6b3474f3effbc6670d9e7aa31b6c42ddd4e858e2",
          "initCode": "0x604060a08152610aac8038038061001581610268565b9283398101906060818303126102645761002e8161028d565b60209161003c83820161028d565b8582015190916001600160401b039190828211610264570185601f82011215610264578051908282116101ef5761007b601f8301601f19168701610268565b968288528683830101116102645785905f5b8381106102505750505f918701015284511561023f57823b1561021f577f360894a13ba1a3210667c828492db98dca3e2076cc3735a920a3ca505d382bbc80546001600160a01b03199081166001600160a01b03868116918217909355885192979195907fbc7cd75a20ee27fd9adebab32041f755214dbc6bffa90cc0225b39da2e5c2d3b5f80a28151156102035761012692506102a1565b505b85519161048391828401908111848210176101ef57868492879461062985391681520301905ff080156101e557831691826080527f7e644d79422f17c01e4894b5f4f588d331ebfa28653d42ae832dc59e38c9798f857fb53127684a568b3173ae13b9f8a6016e243e63b6e8ee1178d6a717850b5d6103958587549483519286168352820152a182156101ce5716179055516102f69081610333823960805181600f0152f35b8451633173bdd160e11b81525f6004820152602490fd5b84513d5f823e3d90fd5b634e487b7160e01b5f52604160045260245ffd5b5050346102105750610128565b63b398979f60e01b8152600490fd5b8551634c9c8ce360e01b81526001600160a01b0384166004820152602490fd5b85516330a289cf60e21b8152600490fd5b81810183015189820184015287920161008d565b5f80fd5b6040519190601f01601f191682016001600160401b038111838210176101ef57604052565b51906001600160a01b038216820361026457565b905f8091602081519101845af4808061031f575b156102d55750506040513d81523d5f602083013e60203d82010160405290565b156102fc57604051639996b31560e01b81526001600160a01b039091166004820152602490fd5b3d1561030d576040513d5f823e3d90fd5b60405163d6bda27560e01b8152600490fd5b503d1515806102b55750813b15156102b556fe60806040526001600160a01b03337f000000000000000000000000000000000000000000000000000000000000000082160361006a575f356001600160e01b03191663278f794360e11b14610060576040516334ad5dbb60e21b8152600490fd5b6100686100be565b005b5f80917f360894a13ba1a3210667c828492db98dca3e2076cc3735a920a3ca505d382bbc5416368280378136915af43d5f803e156100a6573d5ff35b3d5ffd5b634e487b7160e01b5f52604160045260245ffd5b3660041161015f57604036600319011261015f576004356001600160a01b0381169081900361015f576024359067ffffffffffffffff9081831161015f573660238401121561015f5782600401358281116101635760405192601f8201601f19908116603f011684019081118482101761016357604052808352366024828601011161015f576020815f92602461015d97018387013784010152610168565b565b5f80fd5b6100aa565b90813b156101ff577f360894a13ba1a3210667c828492db98dca3e2076cc3735a920a3ca505d382bbc80546001600160a01b0319166001600160a01b0384169081179091557fbc7cd75a20ee27fd9adebab32041f755214dbc6bffa90cc0225b39da2e5c2d3b5f80a28051156101e4576101e191610220565b50565b5050346101ed57565b60405163b398979f60e01b8152600490fd5b604051634c9c8ce360e01b81526001600160a01b0383166004820152602490fd5b905f8091602081519101845af48080610289575b156102465750506102436102a7565b90565b1561026e57604051639996b31560e01b81526001600160a01b03919091166004820152602490fd5b3d15155f0361029c5760405163d6bda27560e01b8152600490fd5b503d1515806102345750813b1515610234565b6040513d5f823e3d90fd5b604051903d82523d5f602084013e60203d83010160405256fea2646970667358221220371437a14d55b0192ed17af74450cdb0b22bf1f3d480185986e4348c96e968d064736f6c634300081800336080346100b957601f61048338819003918201601f19168301916001600160401b038311848410176100bd578084926020946040528339810103126100b957516001600160a01b0390818116908190036100b95780156100a1575f80546001600160a01b03198116831782556040519316907f8be0079c531659141344cd1fd0a4f28419497f9722a3daafe3b4186f6b6457e09080a36103b190816100d28239f35b604051631e4fbdf760e01b81525f6004820152602490fd5b5f80fd5b634e487b7160e01b5f52604160045260245ffdfe604060808152600480361015610013575f80fd5b5f915f3560e01c8063715018a6146102bb5780638da5cb5b146102945780639623609d1461015c578063ad3cb1cc146100eb5763f2fde38b14610054575f80fd5b346100e75760203660031901126100e7576001600160a01b038235818116939192908490036100e357610085610350565b83156100cd5750505f54826bffffffffffffffffffffffff60a01b8216175f55167f8be0079c531659141344cd1fd0a4f28419497f9722a3daafe3b4186f6b6457e05f80a380f35b51631e4fbdf760e01b8152908101849052602490fd5b5f80fd5b8280fd5b5082346101595780600319360112610159575080519080820182811067ffffffffffffffff821117610146576101429350815260058252640352e302e360dc1b602083015251918291602083526020830190610312565b0390f35b604184634e487b7160e01b5f525260245ffd5b80fd5b5060603660031901126100e3576001600160a01b03823581811693908490036100e35760249182359081168091036100e35767ffffffffffffffff906044358281116100e357366023820112156100e3578084013583811161028257865191601f8201601f19908116603f0116830185811184821017610270578852818352368783830101116100e357815f92886020930183860137830101526101fe610350565b863b156100e357610230965f92875180998194829363278f794360e11b8452898401528a8a8401526044830190610312565b039134905af1801561026657610244578580f35b909192938095501161025557505052005b604190634e487b7160e01b5f52525ffd5b84513d5f823e3d90fd5b87604188634e487b7160e01b5f52525ffd5b85604186634e487b7160e01b5f52525ffd5b50346100e3575f3660031901126100e3575f5490516001600160a01b039091168152602090f35b346100e3575f3660031901126100e3576102d3610350565b5f80546001600160a01b0319811682556001600160a01b03167f8be0079c531659141344cd1fd0a4f28419497f9722a3daafe3b4186f6b6457e08280a3005b91908251928382525f5b84811061033c575050825f602080949584010152601f8019910116010190565b60208183018101518483018201520161031c565b5f546001600160a01b0316330361036357565b60405163118cdaa760e01b8152336004820152602490fdfea26469706673582212202992a71449476404159c12582e1f3d5c014ae92bc1369e2e03b37152567a3c7d64736f6c63430008180033000000000000000000000000199b430359595ad09d42f697f33f44ddfd658c12000000000000000000000000ff6bdef4fb646ee44e29fe8fc0862b02f0ba8a33000000000000000000000000000000000000000000000000000000000000006000000000000000000000000000000000000000000000000000000000000001048f15b414000000000000000000000000000000000000000000000000000000000000008000000000000000000000000000000000000000000000000000000000000000c00000000000000000000000001c1bc02d68b90f994711f382bec37587f489f838000000000000000000000000845e1946aaa5ba69b91d413f3e316a4345bbd17d000000000000000000000000000000000000000000000000000000000000001852657061796d656e742056696e6579617264205969656c6400000000000000000000000000000000000000000000000000000000000000000000000000000006725949454c44000000000000000000000000000000000000000000000000000000000000000000000000000000000000000000000000000000000000"
        },
        {
          "transactionType": "CREATE",
          "contractName": "ProxyAdmin",
          "address": "0x259c20cec3e6fa4d4614846ba9d439919c53608f",
          "initCode": "0x6080346100b957601f61048338819003918201601f19168301916001600160401b038311848410176100bd578084926020946040528339810103126100b957516001600160a01b0390818116908190036100b95780156100a1575f80546001600160a01b03198116831782556040519316907f8be0079c531659141344cd1fd0a4f28419497f9722a3daafe3b4186f6b6457e09080a36103b190816100d28239f35b604051631e4fbdf760e01b81525f6004820152602490fd5b5f80fd5b634e487b7160e01b5f52604160045260245ffdfe604060808152600480361015610013575f80fd5b5f915f3560e01c8063715018a6146102bb5780638da5cb5b146102945780639623609d1461015c578063ad3cb1cc146100eb5763f2fde38b14610054575f80fd5b346100e75760203660031901126100e7576001600160a01b038235818116939192908490036100e357610085610350565b83156100cd5750505f54826bffffffffffffffffffffffff60a01b8216175f55167f8be0079c531659141344cd1fd0a4f28419497f9722a3daafe3b4186f6b6457e05f80a380f35b51631e4fbdf760e01b8152908101849052602490fd5b5f80fd5b8280fd5b5082346101595780600319360112610159575080519080820182811067ffffffffffffffff821117610146576101429350815260058252640352e302e360dc1b602083015251918291602083526020830190610312565b0390f35b604184634e487b7160e01b5f525260245ffd5b80fd5b5060603660031901126100e3576001600160a01b03823581811693908490036100e35760249182359081168091036100e35767ffffffffffffffff906044358281116100e357366023820112156100e3578084013583811161028257865191601f8201601f19908116603f0116830185811184821017610270578852818352368783830101116100e357815f92886020930183860137830101526101fe610350565b863b156100e357610230965f92875180998194829363278f794360e11b8452898401528a8a8401526044830190610312565b039134905af1801561026657610244578580f35b909192938095501161025557505052005b604190634e487b7160e01b5f52525ffd5b84513d5f823e3d90fd5b87604188634e487b7160e01b5f52525ffd5b85604186634e487b7160e01b5f52525ffd5b50346100e3575f3660031901126100e3575f5490516001600160a01b039091168152602090f35b346100e3575f3660031901126100e3576102d3610350565b5f80546001600160a01b0319811682556001600160a01b03167f8be0079c531659141344cd1fd0a4f28419497f9722a3daafe3b4186f6b6457e08280a3005b91908251928382525f5b84811061033c575050825f602080949584010152601f8019910116010190565b60208183018101518483018201520161031c565b5f546001600160a01b0316330361036357565b60405163118cdaa760e01b8152336004820152602490fdfea26469706673582212202992a71449476404159c12582e1f3d5c014ae92bc1369e2e03b37152567a3c7d64736f6c63430008180033000000000000000000000000ff6bdef4fb646ee44e29fe8fc0862b02f0ba8a33"
        }
      ],
      "isFixedGasLimit": false
    },
    {
      "hash": "0x82363b4c0270d67ae8ae07ced44d265bc3ca20721a86be55c33a618f1b351e20",
      "transactionType": "CALL",
      "contractName": "TransparentUpgradeableProxy",
      "contractAddress": "0x90f294f6f73515b97b69ac57775ff58eba5e0608",
      "function": null,
      "arguments": null,
      "transaction": {
        "from": "0xff6bdef4fb646ee44e29fe8fc0862b02f0ba8a33",
        "to": "0x90f294f6f73515b97b69ac57775ff58eba5e0608",
        "gas": "0x30eb8",
        "value": "0x0",
        "input": "0x666033e6000000000000000000000000341be87780d6ce9f7785900d3245cb61fb3b1ae1000000000000000000000000000000000000000000000000000000000000000000000000000000000000000000000000000000000000000000000000000186a00000000000000000000000000000000000000000000000000000000000000000",
        "nonce": "0x94",
        "chainId": "0xaa36a7"
      },
      "additionalContracts": [],
      "isFixedGasLimit": false
    },
    {
      "hash": "0x1058fdc367cbb38944edffaf618d245ea60a25d38337a49d5fc01c2c2932d114",
      "transactionType": "CALL",
      "contractName": null,
      "contractAddress": "0x341be87780d6ce9f7785900d3245cb61fb3b1ae1",
      "function": "approve(address,uint256)",
      "arguments": [
        "0x90f294f6F73515b97B69ac57775Ff58eBA5e0608",
        "115792089237316195423570985008687907853269984665640564039457584007913129639935"
      ],
      "transaction": {
        "from": "0xff6bdef4fb646ee44e29fe8fc0862b02f0ba8a33",
        "to": "0x341be87780d6ce9f7785900d3245cb61fb3b1ae1",
        "gas": "0x10868",
        "value": "0x0",
        "input": "0x095ea7b300000000000000000000000090f294f6f73515b97b69ac57775ff58eba5e0608ffffffffffffffffffffffffffffffffffffffffffffffffffffffffffffffff",
        "nonce": "0x95",
        "chainId": "0xaa36a7"
      },
      "additionalContracts": [],
      "isFixedGasLimit": false
    },
    {
      "hash": "0xfe5d237fbe2ebcc58f013eb6540e7f619cdff02352192607090e317d6773b972",
      "transactionType": "CALL",
      "contractName": "TransparentUpgradeableProxy",
      "contractAddress": "0x90f294f6f73515b97b69ac57775ff58eba5e0608",
      "function": null,
      "arguments": null,
      "transaction": {
        "from": "0xff6bdef4fb646ee44e29fe8fc0862b02f0ba8a33",
        "to": "0x90f294f6f73515b97b69ac57775ff58eba5e0608",
        "gas": "0x8db07",
        "value": "0x0",
        "input": "0xcce7ec13000000000000000000000000341be87780d6ce9f7785900d3245cb61fb3b1ae10000000000000000000000000000000000000000000000000000000007270e00",
        "nonce": "0x96",
        "chainId": "0xaa36a7"
      },
      "additionalContracts": [],
      "isFixedGasLimit": false
    },
    {
      "hash": "0xc7fb2d34b85349f8eee993d581e99ad921b753acce30a3ae909b13a27805de28",
      "transactionType": "CALL",
      "contractName": "TransparentUpgradeableProxy",
      "contractAddress": "0x90f294f6f73515b97b69ac57775ff58eba5e0608",
      "function": null,
      "arguments": null,
      "transaction": {
        "from": "0xff6bdef4fb646ee44e29fe8fc0862b02f0ba8a33",
        "to": "0x90f294f6f73515b97b69ac57775ff58eba5e0608",
        "gas": "0x41f1c",
        "value": "0x0",
        "input": "0x952a9633",
        "nonce": "0x97",
        "chainId": "0xaa36a7"
      },
      "additionalContracts": [],
      "isFixedGasLimit": false
    },
    {
      "hash": "0x4a1582ec371767c4b2241dce82288d3cb4ea307960694d843fafef97e231260f",
      "transactionType": "CALL",
      "contractName": "TransparentUpgradeableProxy",
      "contractAddress": "0x90f294f6f73515b97b69ac57775ff58eba5e0608",
      "function": null,
      "arguments": null,
      "transaction": {
        "from": "0xff6bdef4fb646ee44e29fe8fc0862b02f0ba8a33",
        "to": "0x90f294f6f73515b97b69ac57775ff58eba5e0608",
        "gas": "0x9cf88",
        "value": "0x0",
        "input": "0xff57866a8d8dbd54da6ed08f3af3f4408383e63b6594306608253e922377e052ddfbbc0582beecdd0fd7fb5ab47261b2dec556e40796f55e3706a60c118ff8e2a4e768e70000000000000000000000001b0a76431b3cfd55b3be22497f03920c71623c470000000000000000000000000000000000000000000000000000000000000080000000000000000000000000000000000000000000000000000000000000001c697066733a2f2f67726f7766692d72657061796d656e742d64656d6f00000000",
        "nonce": "0x98",
        "chainId": "0xaa36a7"
      },
      "additionalContracts": [],
      "isFixedGasLimit": false
    },
    {
      "hash": "0xe2d2ee973f393d300ac1ee8b6d8d8aeef1c88b3737b478207b4a414b8968a5f5",
      "transactionType": "CALL",
      "contractName": "TransparentUpgradeableProxy",
      "contractAddress": "0x90f294f6f73515b97b69ac57775ff58eba5e0608",
      "function": null,
      "arguments": null,
      "transaction": {
        "from": "0xff6bdef4fb646ee44e29fe8fc0862b02f0ba8a33",
        "to": "0x90f294f6f73515b97b69ac57775ff58eba5e0608",
        "gas": "0x23c91",
        "value": "0x0",
        "input": "0xe2cd4f760000000000000000000000000000000000000000000000000000000000001388",
        "nonce": "0x99",
        "chainId": "0xaa36a7"
      },
      "additionalContracts": [],
      "isFixedGasLimit": false
    },
    {
      "hash": "0x623a8ee5ae90b7495fef7c247f84baaa835cb562e422eb2065ecd0a51b468df2",
      "transactionType": "CALL",
      "contractName": "TransparentUpgradeableProxy",
      "contractAddress": "0x90f294f6f73515b97b69ac57775ff58eba5e0608",
      "function": null,
      "arguments": null,
      "transaction": {
        "from": "0xff6bdef4fb646ee44e29fe8fc0862b02f0ba8a33",
        "to": "0x90f294f6f73515b97b69ac57775ff58eba5e0608",
        "gas": "0x2247a",
        "value": "0x0",
        "input": "0xda3a5f720000000000000000000000000000000000000000000000000000000077359400",
        "nonce": "0x9a",
        "chainId": "0xaa36a7"
      },
      "additionalContracts": [],
      "isFixedGasLimit": false
    },
    {
      "hash": "0x6bcc84af67abe0a21faa1d71c7a1f8c685b29d377031856fc68ff03cb90fa5c7",
      "transactionType": "CALL",
      "contractName": null,
      "contractAddress": "0xb804de4d151e5a8a9eba61a9904ec3588c8efb56",
      "function": "addGrowfiTreasuryTrackedCampaign(address)",
      "arguments": [
        "0x90f294f6F73515b97B69ac57775Ff58eBA5e0608"
      ],
      "transaction": {
        "from": "0xff6bdef4fb646ee44e29fe8fc0862b02f0ba8a33",
        "to": "0xb804de4d151e5a8a9eba61a9904ec3588c8efb56",
        "gas": "0x2127b",
        "value": "0x0",
        "input": "0x7a89cdd400000000000000000000000090f294f6f73515b97b69ac57775ff58eba5e0608",
        "nonce": "0x9b",
        "chainId": "0xaa36a7"
      },
      "additionalContracts": [],
      "isFixedGasLimit": false
    }
  ],
  "receipts": [
    {
      "status": "0x1",
      "cumulativeGasUsed": "0x2531ce6",
      "logs": [
        {
          "address": "0x341be87780d6ce9f7785900d3245cb61fb3b1ae1",
          "topics": [
            "0xddf252ad1be2c89b69c2b068fc378daa952ba7f163c4a11628f55a4df523b3ef",
            "0x0000000000000000000000000000000000000000000000000000000000000000",
            "0x000000000000000000000000ff6bdef4fb646ee44e29fe8fc0862b02f0ba8a33"
          ],
          "data": "0x00000000000000000000000000000000000000000000000000000005d21dba00",
          "blockHash": "0x24b7574953fc6a00f7e82045312cd72309ef8affe378a0e65afa79cdc5739503",
          "blockNumber": "0xa5acf3",
          "blockTimestamp": "0x6a072c74",
          "transactionHash": "0x828ae7bc3f360861eaad9600023c45dc928d298634723a6ad40277c60fde104e",
          "transactionIndex": "0x102",
          "logIndex": "0x2bf",
          "removed": false
        }
      ],
      "logsBloom": "0x00000000004000000000100000000000000000000000000000000000000000000000000000000000000000000000000000000000000000000000000000000000000000000000000000000008000000000000000000000001000000000000000000000000020000000000000000000800000000000000000000000010000010000000000000000000000000000000800000000000000000000000000000000000000000000000000000000000000000000000000000000000000000000000000000000002000000000000000000010000000000000000000000000000000020000000000000000000000000000000000000000000000000000000000000000000",
      "type": "0x2",
      "transactionHash": "0x828ae7bc3f360861eaad9600023c45dc928d298634723a6ad40277c60fde104e",
      "transactionIndex": "0x102",
      "blockHash": "0x24b7574953fc6a00f7e82045312cd72309ef8affe378a0e65afa79cdc5739503",
      "blockNumber": "0xa5acf3",
      "gasUsed": "0x8468",
      "effectiveGasPrice": "0xf425e",
      "from": "0xff6bdef4fb646ee44e29fe8fc0862b02f0ba8a33",
      "to": "0x341be87780d6ce9f7785900d3245cb61fb3b1ae1",
      "contractAddress": null
    },
    {
      "status": "0x1",
      "cumulativeGasUsed": "0xb2efb9",
      "logs": [
        {
          "address": "0x90f294f6f73515b97b69ac57775ff58eba5e0608",
          "topics": [
            "0xbc7cd75a20ee27fd9adebab32041f755214dbc6bffa90cc0225b39da2e5c2d3b",
            "0x0000000000000000000000007b03b539958db590813ba9ca8788f5ddca4e1b75"
          ],
          "data": "0x",
          "blockHash": "0x40de16ee7be3be3ac180da7aa2dc9bf2dab3129924bdb500b56c53e60d06fa95",
          "blockNumber": "0xa5acf4",
          "blockTimestamp": "0x6a072c80",
          "transactionHash": "0x48d3517074446ce09eff5ef9c238cbb37886ecc20ec5efd7cc89f18493e7785f",
          "transactionIndex": "0x27",
          "logIndex": "0x7c",
          "removed": false
        },
        {
          "address": "0x90f294f6f73515b97b69ac57775ff58eba5e0608",
          "topics": [
            "0xc7f505b2f371ae2175ee4913f4499e1f2633a7b5936321eed1cdaeb6115181d2"
          ],
          "data": "0x0000000000000000000000000000000000000000000000000000000000000001",
          "blockHash": "0x40de16ee7be3be3ac180da7aa2dc9bf2dab3129924bdb500b56c53e60d06fa95",
          "blockNumber": "0xa5acf4",
          "blockTimestamp": "0x6a072c80",
          "transactionHash": "0x48d3517074446ce09eff5ef9c238cbb37886ecc20ec5efd7cc89f18493e7785f",
          "transactionIndex": "0x27",
          "logIndex": "0x7d",
          "removed": false
        },
        {
          "address": "0xa10c18ff3d181028bc4df8d28eacc4d811404400",
          "topics": [
            "0x8be0079c531659141344cd1fd0a4f28419497f9722a3daafe3b4186f6b6457e0",
            "0x0000000000000000000000000000000000000000000000000000000000000000",
            "0x000000000000000000000000ff6bdef4fb646ee44e29fe8fc0862b02f0ba8a33"
          ],
          "data": "0x",
          "blockHash": "0x40de16ee7be3be3ac180da7aa2dc9bf2dab3129924bdb500b56c53e60d06fa95",
          "blockNumber": "0xa5acf4",
          "blockTimestamp": "0x6a072c80",
          "transactionHash": "0x48d3517074446ce09eff5ef9c238cbb37886ecc20ec5efd7cc89f18493e7785f",
          "transactionIndex": "0x27",
          "logIndex": "0x7e",
          "removed": false
        },
        {
          "address": "0x90f294f6f73515b97b69ac57775ff58eba5e0608",
          "topics": [
            "0x7e644d79422f17c01e4894b5f4f588d331ebfa28653d42ae832dc59e38c9798f"
          ],
          "data": "0x0000000000000000000000000000000000000000000000000000000000000000000000000000000000000000a10c18ff3d181028bc4df8d28eacc4d811404400",
          "blockHash": "0x40de16ee7be3be3ac180da7aa2dc9bf2dab3129924bdb500b56c53e60d06fa95",
          "blockNumber": "0xa5acf4",
          "blockTimestamp": "0x6a072c80",
          "transactionHash": "0x48d3517074446ce09eff5ef9c238cbb37886ecc20ec5efd7cc89f18493e7785f",
          "transactionIndex": "0x27",
          "logIndex": "0x7f",
          "removed": false
        },
        {
          "address": "0xd080da73d0d8a1b004d3b82c7ed6044c0307dec7",
          "topics": [
            "0xbc7cd75a20ee27fd9adebab32041f755214dbc6bffa90cc0225b39da2e5c2d3b",
            "0x0000000000000000000000002a53ffd704ef93b001ab7439f08e13d6836fc336"
          ],
          "data": "0x",
          "blockHash": "0x40de16ee7be3be3ac180da7aa2dc9bf2dab3129924bdb500b56c53e60d06fa95",
          "blockNumber": "0xa5acf4",
          "blockTimestamp": "0x6a072c80",
          "transactionHash": "0x48d3517074446ce09eff5ef9c238cbb37886ecc20ec5efd7cc89f18493e7785f",
          "transactionIndex": "0x27",
          "logIndex": "0x80",
          "removed": false
        },
        {
          "address": "0xd080da73d0d8a1b004d3b82c7ed6044c0307dec7",
          "topics": [
            "0xc7f505b2f371ae2175ee4913f4499e1f2633a7b5936321eed1cdaeb6115181d2"
          ],
          "data": "0x0000000000000000000000000000000000000000000000000000000000000001",
          "blockHash": "0x40de16ee7be3be3ac180da7aa2dc9bf2dab3129924bdb500b56c53e60d06fa95",
          "blockNumber": "0xa5acf4",
          "blockTimestamp": "0x6a072c80",
          "transactionHash": "0x48d3517074446ce09eff5ef9c238cbb37886ecc20ec5efd7cc89f18493e7785f",
          "transactionIndex": "0x27",
          "logIndex": "0x81",
          "removed": false
        },
        {
          "address": "0x0af8e4d2e4289ecf499395b1d23f186ac2a3cdc1",
          "topics": [
            "0x8be0079c531659141344cd1fd0a4f28419497f9722a3daafe3b4186f6b6457e0",
            "0x0000000000000000000000000000000000000000000000000000000000000000",
            "0x000000000000000000000000ff6bdef4fb646ee44e29fe8fc0862b02f0ba8a33"
          ],
          "data": "0x",
          "blockHash": "0x40de16ee7be3be3ac180da7aa2dc9bf2dab3129924bdb500b56c53e60d06fa95",
          "blockNumber": "0xa5acf4",
          "blockTimestamp": "0x6a072c80",
          "transactionHash": "0x48d3517074446ce09eff5ef9c238cbb37886ecc20ec5efd7cc89f18493e7785f",
          "transactionIndex": "0x27",
          "logIndex": "0x82",
          "removed": false
        },
        {
          "address": "0xd080da73d0d8a1b004d3b82c7ed6044c0307dec7",
          "topics": [
            "0x7e644d79422f17c01e4894b5f4f588d331ebfa28653d42ae832dc59e38c9798f"
          ],
          "data": "0x00000000000000000000000000000000000000000000000000000000000000000000000000000000000000000af8e4d2e4289ecf499395b1d23f186ac2a3cdc1",
          "blockHash": "0x40de16ee7be3be3ac180da7aa2dc9bf2dab3129924bdb500b56c53e60d06fa95",
          "blockNumber": "0xa5acf4",
          "blockTimestamp": "0x6a072c80",
          "transactionHash": "0x48d3517074446ce09eff5ef9c238cbb37886ecc20ec5efd7cc89f18493e7785f",
          "transactionIndex": "0x27",
          "logIndex": "0x83",
          "removed": false
        },
        {
          "address": "0x1c1bc02d68b90f994711f382bec37587f489f838",
          "topics": [
            "0xbc7cd75a20ee27fd9adebab32041f755214dbc6bffa90cc0225b39da2e5c2d3b",
            "0x00000000000000000000000071bfc33642477f86cd9a2ad50dd63ded170f4ec5"
          ],
          "data": "0x",
          "blockHash": "0x40de16ee7be3be3ac180da7aa2dc9bf2dab3129924bdb500b56c53e60d06fa95",
          "blockNumber": "0xa5acf4",
          "blockTimestamp": "0x6a072c80",
          "transactionHash": "0x48d3517074446ce09eff5ef9c238cbb37886ecc20ec5efd7cc89f18493e7785f",
          "transactionIndex": "0x27",
          "logIndex": "0x84",
          "removed": false
        },
        {
          "address": "0x1c1bc02d68b90f994711f382bec37587f489f838",
          "topics": [
            "0xc7f505b2f371ae2175ee4913f4499e1f2633a7b5936321eed1cdaeb6115181d2"
          ],
          "data": "0x0000000000000000000000000000000000000000000000000000000000000001",
          "blockHash": "0x40de16ee7be3be3ac180da7aa2dc9bf2dab3129924bdb500b56c53e60d06fa95",
          "blockNumber": "0xa5acf4",
          "blockTimestamp": "0x6a072c80",
          "transactionHash": "0x48d3517074446ce09eff5ef9c238cbb37886ecc20ec5efd7cc89f18493e7785f",
          "transactionIndex": "0x27",
          "logIndex": "0x85",
          "removed": false
        },
        {
          "address": "0xd289873b3a2762317ce829a169e0084c6dca7175",
          "topics": [
            "0x8be0079c531659141344cd1fd0a4f28419497f9722a3daafe3b4186f6b6457e0",
            "0x0000000000000000000000000000000000000000000000000000000000000000",
            "0x000000000000000000000000ff6bdef4fb646ee44e29fe8fc0862b02f0ba8a33"
          ],
          "data": "0x",
          "blockHash": "0x40de16ee7be3be3ac180da7aa2dc9bf2dab3129924bdb500b56c53e60d06fa95",
          "blockNumber": "0xa5acf4",
          "blockTimestamp": "0x6a072c80",
          "transactionHash": "0x48d3517074446ce09eff5ef9c238cbb37886ecc20ec5efd7cc89f18493e7785f",
          "transactionIndex": "0x27",
          "logIndex": "0x86",
          "removed": false
        },
        {
          "address": "0x1c1bc02d68b90f994711f382bec37587f489f838",
          "topics": [
            "0x7e644d79422f17c01e4894b5f4f588d331ebfa28653d42ae832dc59e38c9798f"
          ],
          "data": "0x0000000000000000000000000000000000000000000000000000000000000000000000000000000000000000d289873b3a2762317ce829a169e0084c6dca7175",
          "blockHash": "0x40de16ee7be3be3ac180da7aa2dc9bf2dab3129924bdb500b56c53e60d06fa95",
          "blockNumber": "0xa5acf4",
          "blockTimestamp": "0x6a072c80",
          "transactionHash": "0x48d3517074446ce09eff5ef9c238cbb37886ecc20ec5efd7cc89f18493e7785f",
          "transactionIndex": "0x27",
          "logIndex": "0x87",
          "removed": false
        },
        {
          "address": "0x845e1946aaa5ba69b91d413f3e316a4345bbd17d",
          "topics": [
            "0xbc7cd75a20ee27fd9adebab32041f755214dbc6bffa90cc0225b39da2e5c2d3b",
            "0x0000000000000000000000002a9ba590375486afe22b86738367cf5bd391789c"
          ],
          "data": "0x",
          "blockHash": "0x40de16ee7be3be3ac180da7aa2dc9bf2dab3129924bdb500b56c53e60d06fa95",
          "blockNumber": "0xa5acf4",
          "blockTimestamp": "0x6a072c80",
          "transactionHash": "0x48d3517074446ce09eff5ef9c238cbb37886ecc20ec5efd7cc89f18493e7785f",
          "transactionIndex": "0x27",
          "logIndex": "0x88",
          "removed": false
        },
        {
          "address": "0x845e1946aaa5ba69b91d413f3e316a4345bbd17d",
          "topics": [
            "0xc7f505b2f371ae2175ee4913f4499e1f2633a7b5936321eed1cdaeb6115181d2"
          ],
          "data": "0x0000000000000000000000000000000000000000000000000000000000000001",
          "blockHash": "0x40de16ee7be3be3ac180da7aa2dc9bf2dab3129924bdb500b56c53e60d06fa95",
          "blockNumber": "0xa5acf4",
          "blockTimestamp": "0x6a072c80",
          "transactionHash": "0x48d3517074446ce09eff5ef9c238cbb37886ecc20ec5efd7cc89f18493e7785f",
          "transactionIndex": "0x27",
          "logIndex": "0x89",
          "removed": false
        },
        {
          "address": "0xa4e40864e56163bddf3dc6d3e72e5ba41275e7bd",
          "topics": [
            "0x8be0079c531659141344cd1fd0a4f28419497f9722a3daafe3b4186f6b6457e0",
            "0x0000000000000000000000000000000000000000000000000000000000000000",
            "0x000000000000000000000000ff6bdef4fb646ee44e29fe8fc0862b02f0ba8a33"
          ],
          "data": "0x",
          "blockHash": "0x40de16ee7be3be3ac180da7aa2dc9bf2dab3129924bdb500b56c53e60d06fa95",
          "blockNumber": "0xa5acf4",
          "blockTimestamp": "0x6a072c80",
          "transactionHash": "0x48d3517074446ce09eff5ef9c238cbb37886ecc20ec5efd7cc89f18493e7785f",
          "transactionIndex": "0x27",
          "logIndex": "0x8a",
          "removed": false
        },
        {
          "address": "0x845e1946aaa5ba69b91d413f3e316a4345bbd17d",
          "topics": [
            "0x7e644d79422f17c01e4894b5f4f588d331ebfa28653d42ae832dc59e38c9798f"
          ],
          "data": "0x0000000000000000000000000000000000000000000000000000000000000000000000000000000000000000a4e40864e56163bddf3dc6d3e72e5ba41275e7bd",
          "blockHash": "0x40de16ee7be3be3ac180da7aa2dc9bf2dab3129924bdb500b56c53e60d06fa95",
          "blockNumber": "0xa5acf4",
          "blockTimestamp": "0x6a072c80",
          "transactionHash": "0x48d3517074446ce09eff5ef9c238cbb37886ecc20ec5efd7cc89f18493e7785f",
          "transactionIndex": "0x27",
          "logIndex": "0x8b",
          "removed": false
        },
        {
          "address": "0x6b3474f3effbc6670d9e7aa31b6c42ddd4e858e2",
          "topics": [
            "0xbc7cd75a20ee27fd9adebab32041f755214dbc6bffa90cc0225b39da2e5c2d3b",
            "0x000000000000000000000000199b430359595ad09d42f697f33f44ddfd658c12"
          ],
          "data": "0x",
          "blockHash": "0x40de16ee7be3be3ac180da7aa2dc9bf2dab3129924bdb500b56c53e60d06fa95",
          "blockNumber": "0xa5acf4",
          "blockTimestamp": "0x6a072c80",
          "transactionHash": "0x48d3517074446ce09eff5ef9c238cbb37886ecc20ec5efd7cc89f18493e7785f",
          "transactionIndex": "0x27",
          "logIndex": "0x8c",
          "removed": false
        },
        {
          "address": "0x6b3474f3effbc6670d9e7aa31b6c42ddd4e858e2",
          "topics": [
            "0xc7f505b2f371ae2175ee4913f4499e1f2633a7b5936321eed1cdaeb6115181d2"
          ],
          "data": "0x0000000000000000000000000000000000000000000000000000000000000001",
          "blockHash": "0x40de16ee7be3be3ac180da7aa2dc9bf2dab3129924bdb500b56c53e60d06fa95",
          "blockNumber": "0xa5acf4",
          "blockTimestamp": "0x6a072c80",
          "transactionHash": "0x48d3517074446ce09eff5ef9c238cbb37886ecc20ec5efd7cc89f18493e7785f",
          "transactionIndex": "0x27",
          "logIndex": "0x8d",
          "removed": false
        },
        {
          "address": "0x259c20cec3e6fa4d4614846ba9d439919c53608f",
          "topics": [
            "0x8be0079c531659141344cd1fd0a4f28419497f9722a3daafe3b4186f6b6457e0",
            "0x0000000000000000000000000000000000000000000000000000000000000000",
            "0x000000000000000000000000ff6bdef4fb646ee44e29fe8fc0862b02f0ba8a33"
          ],
          "data": "0x",
          "blockHash": "0x40de16ee7be3be3ac180da7aa2dc9bf2dab3129924bdb500b56c53e60d06fa95",
          "blockNumber": "0xa5acf4",
          "blockTimestamp": "0x6a072c80",
          "transactionHash": "0x48d3517074446ce09eff5ef9c238cbb37886ecc20ec5efd7cc89f18493e7785f",
          "transactionIndex": "0x27",
          "logIndex": "0x8e",
          "removed": false
        },
        {
          "address": "0x6b3474f3effbc6670d9e7aa31b6c42ddd4e858e2",
          "topics": [
            "0x7e644d79422f17c01e4894b5f4f588d331ebfa28653d42ae832dc59e38c9798f"
          ],
          "data": "0x0000000000000000000000000000000000000000000000000000000000000000000000000000000000000000259c20cec3e6fa4d4614846ba9d439919c53608f",
          "blockHash": "0x40de16ee7be3be3ac180da7aa2dc9bf2dab3129924bdb500b56c53e60d06fa95",
          "blockNumber": "0xa5acf4",
          "blockTimestamp": "0x6a072c80",
          "transactionHash": "0x48d3517074446ce09eff5ef9c238cbb37886ecc20ec5efd7cc89f18493e7785f",
          "transactionIndex": "0x27",
          "logIndex": "0x8f",
          "removed": false
        },
        {
          "address": "0x90f294f6f73515b97b69ac57775ff58eba5e0608",
          "topics": [
            "0xe4820932fb8bfeb1d651397e57975ed0c2c8652dbf3cea72ffcb6007744d256f",
            "0xa04e266000000000000000000000000000000000000000000000000000000000",
            "0xc472767d72fba4fcee7061e2ac39a16f5573eb47987e601e2298bc318921f04b"
          ],
          "data": "0x",
          "blockHash": "0x40de16ee7be3be3ac180da7aa2dc9bf2dab3129924bdb500b56c53e60d06fa95",
          "blockNumber": "0xa5acf4",
          "blockTimestamp": "0x6a072c80",
          "transactionHash": "0x48d3517074446ce09eff5ef9c238cbb37886ecc20ec5efd7cc89f18493e7785f",
          "transactionIndex": "0x27",
          "logIndex": "0x90",
          "removed": false
        },
        {
          "address": "0x90f294f6f73515b97b69ac57775ff58eba5e0608",
          "topics": [
            "0xe4820932fb8bfeb1d651397e57975ed0c2c8652dbf3cea72ffcb6007744d256f",
            "0x666033e600000000000000000000000000000000000000000000000000000000",
            "0xc472767d72fba4fcee7061e2ac39a16f5573eb47987e601e2298bc318921f04b"
          ],
          "data": "0x",
          "blockHash": "0x40de16ee7be3be3ac180da7aa2dc9bf2dab3129924bdb500b56c53e60d06fa95",
          "blockNumber": "0xa5acf4",
          "blockTimestamp": "0x6a072c80",
          "transactionHash": "0x48d3517074446ce09eff5ef9c238cbb37886ecc20ec5efd7cc89f18493e7785f",
          "transactionIndex": "0x27",
          "logIndex": "0x91",
          "removed": false
        },
        {
          "address": "0x90f294f6f73515b97b69ac57775ff58eba5e0608",
          "topics": [
            "0xe4820932fb8bfeb1d651397e57975ed0c2c8652dbf3cea72ffcb6007744d256f",
            "0xd8134a2300000000000000000000000000000000000000000000000000000000",
            "0xc472767d72fba4fcee7061e2ac39a16f5573eb47987e601e2298bc318921f04b"
          ],
          "data": "0x",
          "blockHash": "0x40de16ee7be3be3ac180da7aa2dc9bf2dab3129924bdb500b56c53e60d06fa95",
          "blockNumber": "0xa5acf4",
          "blockTimestamp": "0x6a072c80",
          "transactionHash": "0x48d3517074446ce09eff5ef9c238cbb37886ecc20ec5efd7cc89f18493e7785f",
          "transactionIndex": "0x27",
          "logIndex": "0x92",
          "removed": false
        },
        {
          "address": "0x90f294f6f73515b97b69ac57775ff58eba5e0608",
          "topics": [
            "0xe4820932fb8bfeb1d651397e57975ed0c2c8652dbf3cea72ffcb6007744d256f",
            "0xcce7ec1300000000000000000000000000000000000000000000000000000000",
            "0xc472767d72fba4fcee7061e2ac39a16f5573eb47987e601e2298bc318921f04b"
          ],
          "data": "0x",
          "blockHash": "0x40de16ee7be3be3ac180da7aa2dc9bf2dab3129924bdb500b56c53e60d06fa95",
          "blockNumber": "0xa5acf4",
          "blockTimestamp": "0x6a072c80",
          "transactionHash": "0x48d3517074446ce09eff5ef9c238cbb37886ecc20ec5efd7cc89f18493e7785f",
          "transactionIndex": "0x27",
          "logIndex": "0x93",
          "removed": false
        },
        {
          "address": "0x90f294f6f73515b97b69ac57775ff58eba5e0608",
          "topics": [
            "0xe4820932fb8bfeb1d651397e57975ed0c2c8652dbf3cea72ffcb6007744d256f",
            "0xad5d4bc500000000000000000000000000000000000000000000000000000000",
            "0xc472767d72fba4fcee7061e2ac39a16f5573eb47987e601e2298bc318921f04b"
          ],
          "data": "0x",
          "blockHash": "0x40de16ee7be3be3ac180da7aa2dc9bf2dab3129924bdb500b56c53e60d06fa95",
          "blockNumber": "0xa5acf4",
          "blockTimestamp": "0x6a072c80",
          "transactionHash": "0x48d3517074446ce09eff5ef9c238cbb37886ecc20ec5efd7cc89f18493e7785f",
          "transactionIndex": "0x27",
          "logIndex": "0x94",
          "removed": false
        },
        {
          "address": "0x90f294f6f73515b97b69ac57775ff58eba5e0608",
          "topics": [
            "0xe4820932fb8bfeb1d651397e57975ed0c2c8652dbf3cea72ffcb6007744d256f",
            "0x9cbc0c9000000000000000000000000000000000000000000000000000000000",
            "0xc472767d72fba4fcee7061e2ac39a16f5573eb47987e601e2298bc318921f04b"
          ],
          "data": "0x",
          "blockHash": "0x40de16ee7be3be3ac180da7aa2dc9bf2dab3129924bdb500b56c53e60d06fa95",
          "blockNumber": "0xa5acf4",
          "blockTimestamp": "0x6a072c80",
          "transactionHash": "0x48d3517074446ce09eff5ef9c238cbb37886ecc20ec5efd7cc89f18493e7785f",
          "transactionIndex": "0x27",
          "logIndex": "0x95",
          "removed": false
        },
        {
          "address": "0x90f294f6f73515b97b69ac57775ff58eba5e0608",
          "topics": [
            "0xe4820932fb8bfeb1d651397e57975ed0c2c8652dbf3cea72ffcb6007744d256f",
            "0xe7fa35ea00000000000000000000000000000000000000000000000000000000",
            "0xc472767d72fba4fcee7061e2ac39a16f5573eb47987e601e2298bc318921f04b"
          ],
          "data": "0x",
          "blockHash": "0x40de16ee7be3be3ac180da7aa2dc9bf2dab3129924bdb500b56c53e60d06fa95",
          "blockNumber": "0xa5acf4",
          "blockTimestamp": "0x6a072c80",
          "transactionHash": "0x48d3517074446ce09eff5ef9c238cbb37886ecc20ec5efd7cc89f18493e7785f",
          "transactionIndex": "0x27",
          "logIndex": "0x96",
          "removed": false
        },
        {
          "address": "0x90f294f6f73515b97b69ac57775ff58eba5e0608",
          "topics": [
            "0xe4820932fb8bfeb1d651397e57975ed0c2c8652dbf3cea72ffcb6007744d256f",
            "0xfb3e6f2900000000000000000000000000000000000000000000000000000000",
            "0xc472767d72fba4fcee7061e2ac39a16f5573eb47987e601e2298bc318921f04b"
          ],
          "data": "0x",
          "blockHash": "0x40de16ee7be3be3ac180da7aa2dc9bf2dab3129924bdb500b56c53e60d06fa95",
          "blockNumber": "0xa5acf4",
          "blockTimestamp": "0x6a072c80",
          "transactionHash": "0x48d3517074446ce09eff5ef9c238cbb37886ecc20ec5efd7cc89f18493e7785f",
          "transactionIndex": "0x27",
          "logIndex": "0x97",
          "removed": false
        },
        {
          "address": "0x90f294f6f73515b97b69ac57775ff58eba5e0608",
          "topics": [
            "0xe4820932fb8bfeb1d651397e57975ed0c2c8652dbf3cea72ffcb6007744d256f",
            "0xea12e9b600000000000000000000000000000000000000000000000000000000",
            "0xc472767d72fba4fcee7061e2ac39a16f5573eb47987e601e2298bc318921f04b"
          ],
          "data": "0x",
          "blockHash": "0x40de16ee7be3be3ac180da7aa2dc9bf2dab3129924bdb500b56c53e60d06fa95",
          "blockNumber": "0xa5acf4",
          "blockTimestamp": "0x6a072c80",
          "transactionHash": "0x48d3517074446ce09eff5ef9c238cbb37886ecc20ec5efd7cc89f18493e7785f",
          "transactionIndex": "0x27",
          "logIndex": "0x98",
          "removed": false
        },
        {
          "address": "0x90f294f6f73515b97b69ac57775ff58eba5e0608",
          "topics": [
            "0xe4820932fb8bfeb1d651397e57975ed0c2c8652dbf3cea72ffcb6007744d256f",
            "0xf5d8790400000000000000000000000000000000000000000000000000000000",
            "0xc472767d72fba4fcee7061e2ac39a16f5573eb47987e601e2298bc318921f04b"
          ],
          "data": "0x",
          "blockHash": "0x40de16ee7be3be3ac180da7aa2dc9bf2dab3129924bdb500b56c53e60d06fa95",
          "blockNumber": "0xa5acf4",
          "blockTimestamp": "0x6a072c80",
          "transactionHash": "0x48d3517074446ce09eff5ef9c238cbb37886ecc20ec5efd7cc89f18493e7785f",
          "transactionIndex": "0x27",
          "logIndex": "0x99",
          "removed": false
        },
        {
          "address": "0x90f294f6f73515b97b69ac57775ff58eba5e0608",
          "topics": [
            "0xe4820932fb8bfeb1d651397e57975ed0c2c8652dbf3cea72ffcb6007744d256f",
            "0xae3b748d00000000000000000000000000000000000000000000000000000000",
            "0xc472767d72fba4fcee7061e2ac39a16f5573eb47987e601e2298bc318921f04b"
          ],
          "data": "0x",
          "blockHash": "0x40de16ee7be3be3ac180da7aa2dc9bf2dab3129924bdb500b56c53e60d06fa95",
          "blockNumber": "0xa5acf4",
          "blockTimestamp": "0x6a072c80",
          "transactionHash": "0x48d3517074446ce09eff5ef9c238cbb37886ecc20ec5efd7cc89f18493e7785f",
          "transactionIndex": "0x27",
          "logIndex": "0x9a",
          "removed": false
        },
        {
          "address": "0x90f294f6f73515b97b69ac57775ff58eba5e0608",
          "topics": [
            "0xe4820932fb8bfeb1d651397e57975ed0c2c8652dbf3cea72ffcb6007744d256f",
            "0x763265de00000000000000000000000000000000000000000000000000000000",
            "0xc472767d72fba4fcee7061e2ac39a16f5573eb47987e601e2298bc318921f04b"
          ],
          "data": "0x",
          "blockHash": "0x40de16ee7be3be3ac180da7aa2dc9bf2dab3129924bdb500b56c53e60d06fa95",
          "blockNumber": "0xa5acf4",
          "blockTimestamp": "0x6a072c80",
          "transactionHash": "0x48d3517074446ce09eff5ef9c238cbb37886ecc20ec5efd7cc89f18493e7785f",
          "transactionIndex": "0x27",
          "logIndex": "0x9b",
          "removed": false
        },
        {
          "address": "0x90f294f6f73515b97b69ac57775ff58eba5e0608",
          "topics": [
            "0xe4820932fb8bfeb1d651397e57975ed0c2c8652dbf3cea72ffcb6007744d256f",
            "0xb5ac48a000000000000000000000000000000000000000000000000000000000",
            "0xc472767d72fba4fcee7061e2ac39a16f5573eb47987e601e2298bc318921f04b"
          ],
          "data": "0x",
          "blockHash": "0x40de16ee7be3be3ac180da7aa2dc9bf2dab3129924bdb500b56c53e60d06fa95",
          "blockNumber": "0xa5acf4",
          "blockTimestamp": "0x6a072c80",
          "transactionHash": "0x48d3517074446ce09eff5ef9c238cbb37886ecc20ec5efd7cc89f18493e7785f",
          "transactionIndex": "0x27",
          "logIndex": "0x9c",
          "removed": false
        },
        {
          "address": "0x90f294f6f73515b97b69ac57775ff58eba5e0608",
          "topics": [
            "0xe4820932fb8bfeb1d651397e57975ed0c2c8652dbf3cea72ffcb6007744d256f",
            "0x449e815d00000000000000000000000000000000000000000000000000000000",
            "0xc472767d72fba4fcee7061e2ac39a16f5573eb47987e601e2298bc318921f04b"
          ],
          "data": "0x",
          "blockHash": "0x40de16ee7be3be3ac180da7aa2dc9bf2dab3129924bdb500b56c53e60d06fa95",
          "blockNumber": "0xa5acf4",
          "blockTimestamp": "0x6a072c80",
          "transactionHash": "0x48d3517074446ce09eff5ef9c238cbb37886ecc20ec5efd7cc89f18493e7785f",
          "transactionIndex": "0x27",
          "logIndex": "0x9d",
          "removed": false
        },
        {
          "address": "0x90f294f6f73515b97b69ac57775ff58eba5e0608",
          "topics": [
            "0xe4820932fb8bfeb1d651397e57975ed0c2c8652dbf3cea72ffcb6007744d256f",
            "0x2f75700600000000000000000000000000000000000000000000000000000000",
            "0xc472767d72fba4fcee7061e2ac39a16f5573eb47987e601e2298bc318921f04b"
          ],
          "data": "0x",
          "blockHash": "0x40de16ee7be3be3ac180da7aa2dc9bf2dab3129924bdb500b56c53e60d06fa95",
          "blockNumber": "0xa5acf4",
          "blockTimestamp": "0x6a072c80",
          "transactionHash": "0x48d3517074446ce09eff5ef9c238cbb37886ecc20ec5efd7cc89f18493e7785f",
          "transactionIndex": "0x27",
          "logIndex": "0x9e",
          "removed": false
        },
        {
          "address": "0x90f294f6f73515b97b69ac57775ff58eba5e0608",
          "topics": [
            "0xe4820932fb8bfeb1d651397e57975ed0c2c8652dbf3cea72ffcb6007744d256f",
            "0x0bec101c00000000000000000000000000000000000000000000000000000000",
            "0xc472767d72fba4fcee7061e2ac39a16f5573eb47987e601e2298bc318921f04b"
          ],
          "data": "0x",
          "blockHash": "0x40de16ee7be3be3ac180da7aa2dc9bf2dab3129924bdb500b56c53e60d06fa95",
          "blockNumber": "0xa5acf4",
          "blockTimestamp": "0x6a072c80",
          "transactionHash": "0x48d3517074446ce09eff5ef9c238cbb37886ecc20ec5efd7cc89f18493e7785f",
          "transactionIndex": "0x27",
          "logIndex": "0x9f",
          "removed": false
        },
        {
          "address": "0x90f294f6f73515b97b69ac57775ff58eba5e0608",
          "topics": [
            "0xe4820932fb8bfeb1d651397e57975ed0c2c8652dbf3cea72ffcb6007744d256f",
            "0xfe136c4e00000000000000000000000000000000000000000000000000000000",
            "0xc472767d72fba4fcee7061e2ac39a16f5573eb47987e601e2298bc318921f04b"
          ],
          "data": "0x",
          "blockHash": "0x40de16ee7be3be3ac180da7aa2dc9bf2dab3129924bdb500b56c53e60d06fa95",
          "blockNumber": "0xa5acf4",
          "blockTimestamp": "0x6a072c80",
          "transactionHash": "0x48d3517074446ce09eff5ef9c238cbb37886ecc20ec5efd7cc89f18493e7785f",
          "transactionIndex": "0x27",
          "logIndex": "0xa0",
          "removed": false
        },
        {
          "address": "0x90f294f6f73515b97b69ac57775ff58eba5e0608",
          "topics": [
            "0xe4820932fb8bfeb1d651397e57975ed0c2c8652dbf3cea72ffcb6007744d256f",
            "0x7b1b1de600000000000000000000000000000000000000000000000000000000",
            "0xc472767d72fba4fcee7061e2ac39a16f5573eb47987e601e2298bc318921f04b"
          ],
          "data": "0x",
          "blockHash": "0x40de16ee7be3be3ac180da7aa2dc9bf2dab3129924bdb500b56c53e60d06fa95",
          "blockNumber": "0xa5acf4",
          "blockTimestamp": "0x6a072c80",
          "transactionHash": "0x48d3517074446ce09eff5ef9c238cbb37886ecc20ec5efd7cc89f18493e7785f",
          "transactionIndex": "0x27",
          "logIndex": "0xa1",
          "removed": false
        },
        {
          "address": "0x90f294f6f73515b97b69ac57775ff58eba5e0608",
          "topics": [
            "0xe4820932fb8bfeb1d651397e57975ed0c2c8652dbf3cea72ffcb6007744d256f",
            "0x3fa615b000000000000000000000000000000000000000000000000000000000",
            "0xc472767d72fba4fcee7061e2ac39a16f5573eb47987e601e2298bc318921f04b"
          ],
          "data": "0x",
          "blockHash": "0x40de16ee7be3be3ac180da7aa2dc9bf2dab3129924bdb500b56c53e60d06fa95",
          "blockNumber": "0xa5acf4",
          "blockTimestamp": "0x6a072c80",
          "transactionHash": "0x48d3517074446ce09eff5ef9c238cbb37886ecc20ec5efd7cc89f18493e7785f",
          "transactionIndex": "0x27",
          "logIndex": "0xa2",
          "removed": false
        },
        {
          "address": "0x90f294f6f73515b97b69ac57775ff58eba5e0608",
          "topics": [
            "0xe4820932fb8bfeb1d651397e57975ed0c2c8652dbf3cea72ffcb6007744d256f",
            "0x23548b8b00000000000000000000000000000000000000000000000000000000",
            "0xc472767d72fba4fcee7061e2ac39a16f5573eb47987e601e2298bc318921f04b"
          ],
          "data": "0x",
          "blockHash": "0x40de16ee7be3be3ac180da7aa2dc9bf2dab3129924bdb500b56c53e60d06fa95",
          "blockNumber": "0xa5acf4",
          "blockTimestamp": "0x6a072c80",
          "transactionHash": "0x48d3517074446ce09eff5ef9c238cbb37886ecc20ec5efd7cc89f18493e7785f",
          "transactionIndex": "0x27",
          "logIndex": "0xa3",
          "removed": false
        },
        {
          "address": "0x90f294f6f73515b97b69ac57775ff58eba5e0608",
          "topics": [
            "0xe4820932fb8bfeb1d651397e57975ed0c2c8652dbf3cea72ffcb6007744d256f",
            "0x796b23bb00000000000000000000000000000000000000000000000000000000",
            "0xc472767d72fba4fcee7061e2ac39a16f5573eb47987e601e2298bc318921f04b"
          ],
          "data": "0x",
          "blockHash": "0x40de16ee7be3be3ac180da7aa2dc9bf2dab3129924bdb500b56c53e60d06fa95",
          "blockNumber": "0xa5acf4",
          "blockTimestamp": "0x6a072c80",
          "transactionHash": "0x48d3517074446ce09eff5ef9c238cbb37886ecc20ec5efd7cc89f18493e7785f",
          "transactionIndex": "0x27",
          "logIndex": "0xa4",
          "removed": false
        },
        {
          "address": "0x90f294f6f73515b97b69ac57775ff58eba5e0608",
          "topics": [
            "0xe4820932fb8bfeb1d651397e57975ed0c2c8652dbf3cea72ffcb6007744d256f",
            "0xe76c590800000000000000000000000000000000000000000000000000000000",
            "0xc472767d72fba4fcee7061e2ac39a16f5573eb47987e601e2298bc318921f04b"
          ],
          "data": "0x",
          "blockHash": "0x40de16ee7be3be3ac180da7aa2dc9bf2dab3129924bdb500b56c53e60d06fa95",
          "blockNumber": "0xa5acf4",
          "blockTimestamp": "0x6a072c80",
          "transactionHash": "0x48d3517074446ce09eff5ef9c238cbb37886ecc20ec5efd7cc89f18493e7785f",
          "transactionIndex": "0x27",
          "logIndex": "0xa5",
          "removed": false
        },
        {
          "address": "0x90f294f6f73515b97b69ac57775ff58eba5e0608",
          "topics": [
            "0xe4820932fb8bfeb1d651397e57975ed0c2c8652dbf3cea72ffcb6007744d256f",
            "0x1c1e04ac00000000000000000000000000000000000000000000000000000000",
            "0xc472767d72fba4fcee7061e2ac39a16f5573eb47987e601e2298bc318921f04b"
          ],
          "data": "0x",
          "blockHash": "0x40de16ee7be3be3ac180da7aa2dc9bf2dab3129924bdb500b56c53e60d06fa95",
          "blockNumber": "0xa5acf4",
          "blockTimestamp": "0x6a072c80",
          "transactionHash": "0x48d3517074446ce09eff5ef9c238cbb37886ecc20ec5efd7cc89f18493e7785f",
          "transactionIndex": "0x27",
          "logIndex": "0xa6",
          "removed": false
        },
        {
          "address": "0x90f294f6f73515b97b69ac57775ff58eba5e0608",
          "topics": [
            "0xe4820932fb8bfeb1d651397e57975ed0c2c8652dbf3cea72ffcb6007744d256f",
            "0x771282f600000000000000000000000000000000000000000000000000000000",
            "0xc472767d72fba4fcee7061e2ac39a16f5573eb47987e601e2298bc318921f04b"
          ],
          "data": "0x",
          "blockHash": "0x40de16ee7be3be3ac180da7aa2dc9bf2dab3129924bdb500b56c53e60d06fa95",
          "blockNumber": "0xa5acf4",
          "blockTimestamp": "0x6a072c80",
          "transactionHash": "0x48d3517074446ce09eff5ef9c238cbb37886ecc20ec5efd7cc89f18493e7785f",
          "transactionIndex": "0x27",
          "logIndex": "0xa7",
          "removed": false
        },
        {
          "address": "0x90f294f6f73515b97b69ac57775ff58eba5e0608",
          "topics": [
            "0xe4820932fb8bfeb1d651397e57975ed0c2c8652dbf3cea72ffcb6007744d256f",
            "0x6b98f83500000000000000000000000000000000000000000000000000000000",
            "0xc472767d72fba4fcee7061e2ac39a16f5573eb47987e601e2298bc318921f04b"
          ],
          "data": "0x",
          "blockHash": "0x40de16ee7be3be3ac180da7aa2dc9bf2dab3129924bdb500b56c53e60d06fa95",
          "blockNumber": "0xa5acf4",
          "blockTimestamp": "0x6a072c80",
          "transactionHash": "0x48d3517074446ce09eff5ef9c238cbb37886ecc20ec5efd7cc89f18493e7785f",
          "transactionIndex": "0x27",
          "logIndex": "0xa8",
          "removed": false
        },
        {
          "address": "0x90f294f6f73515b97b69ac57775ff58eba5e0608",
          "topics": [
            "0xe4820932fb8bfeb1d651397e57975ed0c2c8652dbf3cea72ffcb6007744d256f",
            "0xa36c415600000000000000000000000000000000000000000000000000000000",
            "0xc472767d72fba4fcee7061e2ac39a16f5573eb47987e601e2298bc318921f04b"
          ],
          "data": "0x",
          "blockHash": "0x40de16ee7be3be3ac180da7aa2dc9bf2dab3129924bdb500b56c53e60d06fa95",
          "blockNumber": "0xa5acf4",
          "blockTimestamp": "0x6a072c80",
          "transactionHash": "0x48d3517074446ce09eff5ef9c238cbb37886ecc20ec5efd7cc89f18493e7785f",
          "transactionIndex": "0x27",
          "logIndex": "0xa9",
          "removed": false
        },
        {
          "address": "0x90f294f6f73515b97b69ac57775ff58eba5e0608",
          "topics": [
            "0xe4820932fb8bfeb1d651397e57975ed0c2c8652dbf3cea72ffcb6007744d256f",
            "0xf8dfe6ca00000000000000000000000000000000000000000000000000000000",
            "0xc472767d72fba4fcee7061e2ac39a16f5573eb47987e601e2298bc318921f04b"
          ],
          "data": "0x",
          "blockHash": "0x40de16ee7be3be3ac180da7aa2dc9bf2dab3129924bdb500b56c53e60d06fa95",
          "blockNumber": "0xa5acf4",
          "blockTimestamp": "0x6a072c80",
          "transactionHash": "0x48d3517074446ce09eff5ef9c238cbb37886ecc20ec5efd7cc89f18493e7785f",
          "transactionIndex": "0x27",
          "logIndex": "0xaa",
          "removed": false
        },
        {
          "address": "0x90f294f6f73515b97b69ac57775ff58eba5e0608",
          "topics": [
            "0xe4820932fb8bfeb1d651397e57975ed0c2c8652dbf3cea72ffcb6007744d256f",
            "0x6d291fe200000000000000000000000000000000000000000000000000000000",
            "0xc472767d72fba4fcee7061e2ac39a16f5573eb47987e601e2298bc318921f04b"
          ],
          "data": "0x",
          "blockHash": "0x40de16ee7be3be3ac180da7aa2dc9bf2dab3129924bdb500b56c53e60d06fa95",
          "blockNumber": "0xa5acf4",
          "blockTimestamp": "0x6a072c80",
          "transactionHash": "0x48d3517074446ce09eff5ef9c238cbb37886ecc20ec5efd7cc89f18493e7785f",
          "transactionIndex": "0x27",
          "logIndex": "0xab",
          "removed": false
        },
        {
          "address": "0x90f294f6f73515b97b69ac57775ff58eba5e0608",
          "topics": [
            "0xc3b3bba350d426d8b0241206f22ea56f835fbcc9ade54bd871bf75a0d6c9f887",
            "0xc472767d72fba4fcee7061e2ac39a16f5573eb47987e601e2298bc318921f04b",
            "0x000000000000000000000000b7fc18d80374c0dbced9daa76c337f8064ccdb62",
            "0x88e9afc607128bf3de27d7af622a7cba98b48c9d710282f9e82f9fb433935e74"
          ],
          "data": "0x00000000000000000000000000000000000000000000000000000000000000200000000000000000000000000000000000000000000000000000000000000000",
          "blockHash": "0x40de16ee7be3be3ac180da7aa2dc9bf2dab3129924bdb500b56c53e60d06fa95",
          "blockNumber": "0xa5acf4",
          "blockTimestamp": "0x6a072c80",
          "transactionHash": "0x48d3517074446ce09eff5ef9c238cbb37886ecc20ec5efd7cc89f18493e7785f",
          "transactionIndex": "0x27",
          "logIndex": "0xac",
          "removed": false
        },
        {
          "address": "0x90f294f6f73515b97b69ac57775ff58eba5e0608",
          "topics": [
            "0x4ea5d8560836bfba61d44f4e79836932f499a1372b9668df9ba51c1a49a8d822"
          ],
          "data": "0x000000000000000000000000000000000000000000000000016345785d8a00000000000000000000000000000000000000000000000000056bc75e2d631000000000000000000000000000000000000000000000000034f086f3b33b68400000000000000000000000000000000000000000000000000000000000006a2eb9500000000000000000000000000000000000000000000000000000000000093a80000000000000000000000000000000000000000000000000000000000000012c",
          "blockHash": "0x40de16ee7be3be3ac180da7aa2dc9bf2dab3129924bdb500b56c53e60d06fa95",
          "blockNumber": "0xa5acf4",
          "blockTimestamp": "0x6a072c80",
          "transactionHash": "0x48d3517074446ce09eff5ef9c238cbb37886ecc20ec5efd7cc89f18493e7785f",
          "transactionIndex": "0x27",
          "logIndex": "0xad",
          "removed": false
        },
        {
          "address": "0x90f294f6f73515b97b69ac57775ff58eba5e0608",
          "topics": [
            "0xe4820932fb8bfeb1d651397e57975ed0c2c8652dbf3cea72ffcb6007744d256f",
            "0xa850809000000000000000000000000000000000000000000000000000000000",
            "0x8e5ea360bdeed818efd87c6f274fcdf58af90bb406d23ae98973b22658c61d20"
          ],
          "data": "0x",
          "blockHash": "0x40de16ee7be3be3ac180da7aa2dc9bf2dab3129924bdb500b56c53e60d06fa95",
          "blockNumber": "0xa5acf4",
          "blockTimestamp": "0x6a072c80",
          "transactionHash": "0x48d3517074446ce09eff5ef9c238cbb37886ecc20ec5efd7cc89f18493e7785f",
          "transactionIndex": "0x27",
          "logIndex": "0xae",
          "removed": false
        },
        {
          "address": "0x90f294f6f73515b97b69ac57775ff58eba5e0608",
          "topics": [
            "0xe4820932fb8bfeb1d651397e57975ed0c2c8652dbf3cea72ffcb6007744d256f",
            "0xe2233cbd00000000000000000000000000000000000000000000000000000000",
            "0x8e5ea360bdeed818efd87c6f274fcdf58af90bb406d23ae98973b22658c61d20"
          ],
          "data": "0x",
          "blockHash": "0x40de16ee7be3be3ac180da7aa2dc9bf2dab3129924bdb500b56c53e60d06fa95",
          "blockNumber": "0xa5acf4",
          "blockTimestamp": "0x6a072c80",
          "transactionHash": "0x48d3517074446ce09eff5ef9c238cbb37886ecc20ec5efd7cc89f18493e7785f",
          "transactionIndex": "0x27",
          "logIndex": "0xaf",
          "removed": false
        },
        {
          "address": "0x90f294f6f73515b97b69ac57775ff58eba5e0608",
          "topics": [
            "0xe4820932fb8bfeb1d651397e57975ed0c2c8652dbf3cea72ffcb6007744d256f",
            "0xe740010f00000000000000000000000000000000000000000000000000000000",
            "0x8e5ea360bdeed818efd87c6f274fcdf58af90bb406d23ae98973b22658c61d20"
          ],
          "data": "0x",
          "blockHash": "0x40de16ee7be3be3ac180da7aa2dc9bf2dab3129924bdb500b56c53e60d06fa95",
          "blockNumber": "0xa5acf4",
          "blockTimestamp": "0x6a072c80",
          "transactionHash": "0x48d3517074446ce09eff5ef9c238cbb37886ecc20ec5efd7cc89f18493e7785f",
          "transactionIndex": "0x27",
          "logIndex": "0xb0",
          "removed": false
        },
        {
          "address": "0x90f294f6f73515b97b69ac57775ff58eba5e0608",
          "topics": [
            "0xe4820932fb8bfeb1d651397e57975ed0c2c8652dbf3cea72ffcb6007744d256f",
            "0xffc8321700000000000000000000000000000000000000000000000000000000",
            "0x8e5ea360bdeed818efd87c6f274fcdf58af90bb406d23ae98973b22658c61d20"
          ],
          "data": "0x",
          "blockHash": "0x40de16ee7be3be3ac180da7aa2dc9bf2dab3129924bdb500b56c53e60d06fa95",
          "blockNumber": "0xa5acf4",
          "blockTimestamp": "0x6a072c80",
          "transactionHash": "0x48d3517074446ce09eff5ef9c238cbb37886ecc20ec5efd7cc89f18493e7785f",
          "transactionIndex": "0x27",
          "logIndex": "0xb1",
          "removed": false
        },
        {
          "address": "0x90f294f6f73515b97b69ac57775ff58eba5e0608",
          "topics": [
            "0xe4820932fb8bfeb1d651397e57975ed0c2c8652dbf3cea72ffcb6007744d256f",
            "0x251f47c100000000000000000000000000000000000000000000000000000000",
            "0x8e5ea360bdeed818efd87c6f274fcdf58af90bb406d23ae98973b22658c61d20"
          ],
          "data": "0x",
          "blockHash": "0x40de16ee7be3be3ac180da7aa2dc9bf2dab3129924bdb500b56c53e60d06fa95",
          "blockNumber": "0xa5acf4",
          "blockTimestamp": "0x6a072c80",
          "transactionHash": "0x48d3517074446ce09eff5ef9c238cbb37886ecc20ec5efd7cc89f18493e7785f",
          "transactionIndex": "0x27",
          "logIndex": "0xb2",
          "removed": false
        },
        {
          "address": "0x90f294f6f73515b97b69ac57775ff58eba5e0608",
          "topics": [
            "0xe4820932fb8bfeb1d651397e57975ed0c2c8652dbf3cea72ffcb6007744d256f",
            "0x1a63dfe000000000000000000000000000000000000000000000000000000000",
            "0x8e5ea360bdeed818efd87c6f274fcdf58af90bb406d23ae98973b22658c61d20"
          ],
          "data": "0x",
          "blockHash": "0x40de16ee7be3be3ac180da7aa2dc9bf2dab3129924bdb500b56c53e60d06fa95",
          "blockNumber": "0xa5acf4",
          "blockTimestamp": "0x6a072c80",
          "transactionHash": "0x48d3517074446ce09eff5ef9c238cbb37886ecc20ec5efd7cc89f18493e7785f",
          "transactionIndex": "0x27",
          "logIndex": "0xb3",
          "removed": false
        },
        {
          "address": "0x90f294f6f73515b97b69ac57775ff58eba5e0608",
          "topics": [
            "0xe4820932fb8bfeb1d651397e57975ed0c2c8652dbf3cea72ffcb6007744d256f",
            "0x6d076eed00000000000000000000000000000000000000000000000000000000",
            "0x8e5ea360bdeed818efd87c6f274fcdf58af90bb406d23ae98973b22658c61d20"
          ],
          "data": "0x",
          "blockHash": "0x40de16ee7be3be3ac180da7aa2dc9bf2dab3129924bdb500b56c53e60d06fa95",
          "blockNumber": "0xa5acf4",
          "blockTimestamp": "0x6a072c80",
          "transactionHash": "0x48d3517074446ce09eff5ef9c238cbb37886ecc20ec5efd7cc89f18493e7785f",
          "transactionIndex": "0x27",
          "logIndex": "0xb4",
          "removed": false
        },
        {
          "address": "0x90f294f6f73515b97b69ac57775ff58eba5e0608",
          "topics": [
            "0xe4820932fb8bfeb1d651397e57975ed0c2c8652dbf3cea72ffcb6007744d256f",
            "0xa95effd300000000000000000000000000000000000000000000000000000000",
            "0x8e5ea360bdeed818efd87c6f274fcdf58af90bb406d23ae98973b22658c61d20"
          ],
          "data": "0x",
          "blockHash": "0x40de16ee7be3be3ac180da7aa2dc9bf2dab3129924bdb500b56c53e60d06fa95",
          "blockNumber": "0xa5acf4",
          "blockTimestamp": "0x6a072c80",
          "transactionHash": "0x48d3517074446ce09eff5ef9c238cbb37886ecc20ec5efd7cc89f18493e7785f",
          "transactionIndex": "0x27",
          "logIndex": "0xb5",
          "removed": false
        },
        {
          "address": "0x90f294f6f73515b97b69ac57775ff58eba5e0608",
          "topics": [
            "0xe4820932fb8bfeb1d651397e57975ed0c2c8652dbf3cea72ffcb6007744d256f",
            "0x2ae14e7600000000000000000000000000000000000000000000000000000000",
            "0x8e5ea360bdeed818efd87c6f274fcdf58af90bb406d23ae98973b22658c61d20"
          ],
          "data": "0x",
          "blockHash": "0x40de16ee7be3be3ac180da7aa2dc9bf2dab3129924bdb500b56c53e60d06fa95",
          "blockNumber": "0xa5acf4",
          "blockTimestamp": "0x6a072c80",
          "transactionHash": "0x48d3517074446ce09eff5ef9c238cbb37886ecc20ec5efd7cc89f18493e7785f",
          "transactionIndex": "0x27",
          "logIndex": "0xb6",
          "removed": false
        },
        {
          "address": "0x90f294f6f73515b97b69ac57775ff58eba5e0608",
          "topics": [
            "0xe4820932fb8bfeb1d651397e57975ed0c2c8652dbf3cea72ffcb6007744d256f",
            "0xd612873a00000000000000000000000000000000000000000000000000000000",
            "0x8e5ea360bdeed818efd87c6f274fcdf58af90bb406d23ae98973b22658c61d20"
          ],
          "data": "0x",
          "blockHash": "0x40de16ee7be3be3ac180da7aa2dc9bf2dab3129924bdb500b56c53e60d06fa95",
          "blockNumber": "0xa5acf4",
          "blockTimestamp": "0x6a072c80",
          "transactionHash": "0x48d3517074446ce09eff5ef9c238cbb37886ecc20ec5efd7cc89f18493e7785f",
          "transactionIndex": "0x27",
          "logIndex": "0xb7",
          "removed": false
        },
        {
          "address": "0x90f294f6f73515b97b69ac57775ff58eba5e0608",
          "topics": [
            "0xe4820932fb8bfeb1d651397e57975ed0c2c8652dbf3cea72ffcb6007744d256f",
            "0x6a3541c500000000000000000000000000000000000000000000000000000000",
            "0x8e5ea360bdeed818efd87c6f274fcdf58af90bb406d23ae98973b22658c61d20"
          ],
          "data": "0x",
          "blockHash": "0x40de16ee7be3be3ac180da7aa2dc9bf2dab3129924bdb500b56c53e60d06fa95",
          "blockNumber": "0xa5acf4",
          "blockTimestamp": "0x6a072c80",
          "transactionHash": "0x48d3517074446ce09eff5ef9c238cbb37886ecc20ec5efd7cc89f18493e7785f",
          "transactionIndex": "0x27",
          "logIndex": "0xb8",
          "removed": false
        },
        {
          "address": "0x90f294f6f73515b97b69ac57775ff58eba5e0608",
          "topics": [
            "0xe4820932fb8bfeb1d651397e57975ed0c2c8652dbf3cea72ffcb6007744d256f",
            "0xca343f0e00000000000000000000000000000000000000000000000000000000",
            "0x8e5ea360bdeed818efd87c6f274fcdf58af90bb406d23ae98973b22658c61d20"
          ],
          "data": "0x",
          "blockHash": "0x40de16ee7be3be3ac180da7aa2dc9bf2dab3129924bdb500b56c53e60d06fa95",
          "blockNumber": "0xa5acf4",
          "blockTimestamp": "0x6a072c80",
          "transactionHash": "0x48d3517074446ce09eff5ef9c238cbb37886ecc20ec5efd7cc89f18493e7785f",
          "transactionIndex": "0x27",
          "logIndex": "0xb9",
          "removed": false
        },
        {
          "address": "0x90f294f6f73515b97b69ac57775ff58eba5e0608",
          "topics": [
            "0xe4820932fb8bfeb1d651397e57975ed0c2c8652dbf3cea72ffcb6007744d256f",
            "0x02d40c7f00000000000000000000000000000000000000000000000000000000",
            "0x8e5ea360bdeed818efd87c6f274fcdf58af90bb406d23ae98973b22658c61d20"
          ],
          "data": "0x",
          "blockHash": "0x40de16ee7be3be3ac180da7aa2dc9bf2dab3129924bdb500b56c53e60d06fa95",
          "blockNumber": "0xa5acf4",
          "blockTimestamp": "0x6a072c80",
          "transactionHash": "0x48d3517074446ce09eff5ef9c238cbb37886ecc20ec5efd7cc89f18493e7785f",
          "transactionIndex": "0x27",
          "logIndex": "0xba",
          "removed": false
        },
        {
          "address": "0x90f294f6f73515b97b69ac57775ff58eba5e0608",
          "topics": [
            "0xc3b3bba350d426d8b0241206f22ea56f835fbcc9ade54bd871bf75a0d6c9f887",
            "0x8e5ea360bdeed818efd87c6f274fcdf58af90bb406d23ae98973b22658c61d20",
            "0x0000000000000000000000000f80631fe3771b53f1595556ce7b8d45bcd3bef9",
            "0x6c793fb30246223245423ced28fc6fa7b89eea6a674b20b41c832376265edb73"
          ],
          "data": "0x00000000000000000000000000000000000000000000000000000000000000200000000000000000000000000000000000000000000000000000000000000000",
          "blockHash": "0x40de16ee7be3be3ac180da7aa2dc9bf2dab3129924bdb500b56c53e60d06fa95",
          "blockNumber": "0xa5acf4",
          "blockTimestamp": "0x6a072c80",
          "transactionHash": "0x48d3517074446ce09eff5ef9c238cbb37886ecc20ec5efd7cc89f18493e7785f",
          "transactionIndex": "0x27",
          "logIndex": "0xbb",
          "removed": false
        },
        {
          "address": "0x90f294f6f73515b97b69ac57775ff58eba5e0608",
          "topics": [
            "0x2c6cd2e637271e88bd41d11ab8103ce18ceb1d94731043fce5c8ef9316c95ddd"
          ],
          "data": "0x00000000000000000000000000000000000000000000014542ba12a337c00000000000000000000000000000000000000000000000000025f273933db570000000000000000000000000000000000000000000000000000000000000000007ee0000000000000000000000000000000000000000000000000000000000000000",
          "blockHash": "0x40de16ee7be3be3ac180da7aa2dc9bf2dab3129924bdb500b56c53e60d06fa95",
          "blockNumber": "0xa5acf4",
          "blockTimestamp": "0x6a072c80",
          "transactionHash": "0x48d3517074446ce09eff5ef9c238cbb37886ecc20ec5efd7cc89f18493e7785f",
          "transactionIndex": "0x27",
          "logIndex": "0xbc",
          "removed": false
        },
        {
          "address": "0x90f294f6f73515b97b69ac57775ff58eba5e0608",
          "topics": [
            "0x725cf1036108ee5837eb8c6e4e3d5b0e688428b7922f5f165872bc2b4b69b7b1"
          ],
          "data": "0x",
          "blockHash": "0x40de16ee7be3be3ac180da7aa2dc9bf2dab3129924bdb500b56c53e60d06fa95",
          "blockNumber": "0xa5acf4",
          "blockTimestamp": "0x6a072c80",
          "transactionHash": "0x48d3517074446ce09eff5ef9c238cbb37886ecc20ec5efd7cc89f18493e7785f",
          "transactionIndex": "0x27",
          "logIndex": "0xbd",
          "removed": false
        },
        {
          "address": "0x369fe004842a3b3fb5285a30c63c9ba60aa4f99f",
          "topics": [
            "0xfcf599051bcc41e5a7b155a94bbdd6aaa68f954e694c5ab7bdecd3cfcf65ffad",
            "0x00000000000000000000000090f294f6f73515b97b69ac57775ff58eba5e0608"
          ],
          "data": "0x",
          "blockHash": "0x40de16ee7be3be3ac180da7aa2dc9bf2dab3129924bdb500b56c53e60d06fa95",
          "blockNumber": "0xa5acf4",
          "blockTimestamp": "0x6a072c80",
          "transactionHash": "0x48d3517074446ce09eff5ef9c238cbb37886ecc20ec5efd7cc89f18493e7785f",
          "transactionIndex": "0x27",
          "logIndex": "0xbe",
          "removed": false
        },
        {
          "address": "0xb804de4d151e5a8a9eba61a9904ec3588c8efb56",
          "topics": [
            "0x3d0d0506c8fbb4fe692d4bb7a08d56876fec8ff877b533d59f460ce6e1658c69",
            "0x00000000000000000000000090f294f6f73515b97b69ac57775ff58eba5e0608",
            "0x000000000000000000000000ff6bdef4fb646ee44e29fe8fc0862b02f0ba8a33"
          ],
          "data": "0x000000000000000000000000d080da73d0d8a1b004d3b82c7ed6044c0307dec70000000000000000000000006b3474f3effbc6670d9e7aa31b6c42ddd4e858e20000000000000000000000001c1bc02d68b90f994711f382bec37587f489f838000000000000000000000000845e1946aaa5ba69b91d413f3e316a4345bbd17d000000000000000000000000000000000000000000000000016345785d8a00000000000000000000000000000000000000000000000000056bc75e2d631000000000000000000000000000000000000000000000000034f086f3b33b68400000000000000000000000000000000000000000000000000000000000006a2eb9500000000000000000000000000000000000000000000000000000000000093a800000000000000000000000000000000000000000000000000de0b6b3a7640000000000000000000000000000000000000000000000000000000000006a072c8000000000000000000000000000000000000000000000014542ba12a337c00000000000000000000000000000000000000000000000000025f273933db570000000000000000000000000000000000000000000000000000000000000000007ee0000000000000000000000000000000000000000000000000000000000000000",
          "blockHash": "0x40de16ee7be3be3ac180da7aa2dc9bf2dab3129924bdb500b56c53e60d06fa95",
          "blockNumber": "0xa5acf4",
          "blockTimestamp": "0x6a072c80",
          "transactionHash": "0x48d3517074446ce09eff5ef9c238cbb37886ecc20ec5efd7cc89f18493e7785f",
          "transactionIndex": "0x27",
          "logIndex": "0xbf",
          "removed": false
        }
      ],
      "logsBloom": "0x52080005006804000000900000000000442200004900000000800000840028050000000100021100422250042201000100010000000001011210044900000000a8d0120a0601040080800104020006408801500040000205000090000006011000800000020082404100000010c00990001000914001160600008000000400400000802000000840000800028002403000001000000884880820000000c6a00000ca008400000200004004428200002050100010040042004000010002010800c40040a80008028002800000800300401204000024040000040032001000200200102010880000c1000000800800800000884810062c40408200000008000000",
      "type": "0x2",
      "transactionHash": "0x48d3517074446ce09eff5ef9c238cbb37886ecc20ec5efd7cc89f18493e7785f",
      "transactionIndex": "0x27",
      "blockHash": "0x40de16ee7be3be3ac180da7aa2dc9bf2dab3129924bdb500b56c53e60d06fa95",
      "blockNumber": "0xa5acf4",
      "gasUsed": "0x4f7e88",
      "effectiveGasPrice": "0xf4261",
      "from": "0xff6bdef4fb646ee44e29fe8fc0862b02f0ba8a33",
      "to": "0xb804de4d151e5a8a9eba61a9904ec3588c8efb56",
      "contractAddress": null
    },
    {
      "status": "0x1",
      "cumulativeGasUsed": "0x88effd",
      "logs": [
        {
          "address": "0x90f294f6f73515b97b69ac57775ff58eba5e0608",
          "topics": [
            "0x1809803edc7f4d0a1c400a8f95cac12ace860d60e118b6c9b491082a623963df",
            "0x000000000000000000000000341be87780d6ce9f7785900d3245cb61fb3b1ae1"
          ],
          "data": "0x0000000000000000000000000000000000000000000000000000000000000080000000000000000000000000000000000000000000000000000000000000000000000000000000000000000000000000000000000000000000000000000186a000000000000000000000000000000000000000000000000000000000000000000000000000000000000000000000000000000000000000000000000000000000",
          "blockHash": "0x5d5aa1e7ceeb5be2c79f4b47434120e72386c92db595e3c55230cc4482a65049",
          "blockNumber": "0xa5acf5",
          "blockTimestamp": "0x6a072c8c",
          "transactionHash": "0x82363b4c0270d67ae8ae07ced44d265bc3ca20721a86be55c33a618f1b351e20",
          "transactionIndex": "0x3d",
          "logIndex": "0xc9",
          "removed": false
        }
      ],
      "logsBloom": "0x00000004000000000000000000000000000000000000000400000000000000000000000000000100000000000000000000000000100000008000000000000000000000000000000000000000100000000000000000000000000000000000000000000000000000000000000000000000000000004000000000000000000000000000000000000000000000000000000000000000000000000000000000000000000000000000000000000000000000000000000000000000000000000000000000000000000000800000000000000000000000000000000000000000000000000000000000000000000000000000000000000000000002000000000000000000",
      "type": "0x2",
      "transactionHash": "0x82363b4c0270d67ae8ae07ced44d265bc3ca20721a86be55c33a618f1b351e20",
      "transactionIndex": "0x3d",
      "blockHash": "0x5d5aa1e7ceeb5be2c79f4b47434120e72386c92db595e3c55230cc4482a65049",
      "blockNumber": "0xa5acf5",
      "gasUsed": "0x21732",
      "effectiveGasPrice": "0xf4261",
      "from": "0xff6bdef4fb646ee44e29fe8fc0862b02f0ba8a33",
      "to": "0x90f294f6f73515b97b69ac57775ff58eba5e0608",
      "contractAddress": null
    },
    {
      "status": "0x1",
      "cumulativeGasUsed": "0x683e7d",
      "logs": [
        {
          "address": "0x341be87780d6ce9f7785900d3245cb61fb3b1ae1",
          "topics": [
            "0x8c5be1e5ebec7d5bd14f71427d1e84f3dd0314c0f7b2291e5b200ac8c7c3b925",
            "0x000000000000000000000000ff6bdef4fb646ee44e29fe8fc0862b02f0ba8a33",
            "0x00000000000000000000000090f294f6f73515b97b69ac57775ff58eba5e0608"
          ],
          "data": "0xffffffffffffffffffffffffffffffffffffffffffffffffffffffffffffffff",
          "blockHash": "0xb762ec90bd55c0444bacdffd2b0a3dcbe659124bf572f2b92d884d2961671c3a",
          "blockNumber": "0xa5acf6",
          "blockTimestamp": "0x6a072c98",
          "transactionHash": "0x1058fdc367cbb38944edffaf618d245ea60a25d38337a49d5fc01c2c2932d114",
          "transactionIndex": "0x2e",
          "logIndex": "0xbb",
          "removed": false
        }
      ],
      "logsBloom": "0x00000000004000000000100000000000000000000000000000000000800000000000000000000000000000000000000000000000000000000000000000200000000000000000000000000000000000000000000000000001000010000000000000000000000000000000000000000000000000000000000000000000000010000000000000000000000000000000800000000000000000000000000000000000028000000000000000000000000000000000000000000000000000000000000000000000000000000000000000010000000000000000000000000000000000000010000000000000000000000000000000000000000000000000000000000000",
      "type": "0x2",
      "transactionHash": "0x1058fdc367cbb38944edffaf618d245ea60a25d38337a49d5fc01c2c2932d114",
      "transactionIndex": "0x2e",
      "blockHash": "0xb762ec90bd55c0444bacdffd2b0a3dcbe659124bf572f2b92d884d2961671c3a",
      "blockNumber": "0xa5acf6",
      "gasUsed": "0xb4cb",
      "effectiveGasPrice": "0xf4261",
      "from": "0xff6bdef4fb646ee44e29fe8fc0862b02f0ba8a33",
      "to": "0x341be87780d6ce9f7785900d3245cb61fb3b1ae1",
      "contractAddress": null
    },
    {
      "status": "0x1",
      "cumulativeGasUsed": "0x16e6eaf",
      "logs": [
        {
          "address": "0x341be87780d6ce9f7785900d3245cb61fb3b1ae1",
          "topics": [
            "0xddf252ad1be2c89b69c2b068fc378daa952ba7f163c4a11628f55a4df523b3ef",
            "0x000000000000000000000000ff6bdef4fb646ee44e29fe8fc0862b02f0ba8a33",
            "0x00000000000000000000000090f294f6f73515b97b69ac57775ff58eba5e0608"
          ],
          "data": "0x0000000000000000000000000000000000000000000000000000000007270e00",
          "blockHash": "0xa67598ee44a53b65e8a7fc50a6d46f471180980f84179fa2840b0086a060907c",
          "blockNumber": "0xa5acf7",
          "blockTimestamp": "0x6a072ca4",
          "transactionHash": "0xfe5d237fbe2ebcc58f013eb6540e7f619cdff02352192607090e317d6773b972",
          "transactionIndex": "0x69",
          "logIndex": "0x149",
          "removed": false
        },
        {
          "address": "0x341be87780d6ce9f7785900d3245cb61fb3b1ae1",
          "topics": [
            "0xddf252ad1be2c89b69c2b068fc378daa952ba7f163c4a11628f55a4df523b3ef",
            "0x00000000000000000000000090f294f6f73515b97b69ac57775ff58eba5e0608",
            "0x000000000000000000000000892bd2ab53c26b09cd874c5afeb331cac8851848"
          ],
          "data": "0x000000000000000000000000000000000000000000000000000000000036ee80",
          "blockHash": "0xa67598ee44a53b65e8a7fc50a6d46f471180980f84179fa2840b0086a060907c",
          "blockNumber": "0xa5acf7",
          "blockTimestamp": "0x6a072ca4",
          "transactionHash": "0xfe5d237fbe2ebcc58f013eb6540e7f619cdff02352192607090e317d6773b972",
          "transactionIndex": "0x69",
          "logIndex": "0x14a",
          "removed": false
        },
        {
          "address": "0x90f294f6f73515b97b69ac57775ff58eba5e0608",
          "topics": [
            "0x4dd12c0ecba594b5bb7a4e3ec05ef19e1135fed23711a1fe4b1c9e6c9b40391b",
            "0x000000000000000000000000ff6bdef4fb646ee44e29fe8fc0862b02f0ba8a33",
            "0x000000000000000000000000341be87780d6ce9f7785900d3245cb61fb3b1ae1"
          ],
          "data": "0x000000000000000000000000000000000000000000000000000000000036ee80",
          "blockHash": "0xa67598ee44a53b65e8a7fc50a6d46f471180980f84179fa2840b0086a060907c",
          "blockNumber": "0xa5acf7",
          "blockTimestamp": "0x6a072ca4",
          "transactionHash": "0xfe5d237fbe2ebcc58f013eb6540e7f619cdff02352192607090e317d6773b972",
          "transactionIndex": "0x69",
          "logIndex": "0x14b",
          "removed": false
        },
        {
          "address": "0xd080da73d0d8a1b004d3b82c7ed6044c0307dec7",
          "topics": [
            "0xddf252ad1be2c89b69c2b068fc378daa952ba7f163c4a11628f55a4df523b3ef",
            "0x0000000000000000000000000000000000000000000000000000000000000000",
            "0x000000000000000000000000ff6bdef4fb646ee44e29fe8fc0862b02f0ba8a33"
          ],
          "data": "0x0000000000000000000000000000000000000000000000410d586a20a4c00000",
          "blockHash": "0xa67598ee44a53b65e8a7fc50a6d46f471180980f84179fa2840b0086a060907c",
          "blockNumber": "0xa5acf7",
          "blockTimestamp": "0x6a072ca4",
          "transactionHash": "0xfe5d237fbe2ebcc58f013eb6540e7f619cdff02352192607090e317d6773b972",
          "transactionIndex": "0x69",
          "logIndex": "0x14c",
          "removed": false
        },
        {
          "address": "0x90f294f6f73515b97b69ac57775ff58eba5e0608",
          "topics": [
            "0x0b9c8304b83df3d2827b952a8e4c87faef3556dddcde57a47cb80f0c755606a5",
            "0x000000000000000000000000ff6bdef4fb646ee44e29fe8fc0862b02f0ba8a33",
            "0x000000000000000000000000341be87780d6ce9f7785900d3245cb61fb3b1ae1"
          ],
          "data": "0x0000000000000000000000000000000000000000000000000000000007270e000000000000000000000000000000000000000000000000410d586a20a4c0000000000000000000000000000000000000000000000000000000000000000000000000000000000000000000000000000000000000000000410d586a20a4c00000",
          "blockHash": "0xa67598ee44a53b65e8a7fc50a6d46f471180980f84179fa2840b0086a060907c",
          "blockNumber": "0xa5acf7",
          "blockTimestamp": "0x6a072ca4",
          "transactionHash": "0xfe5d237fbe2ebcc58f013eb6540e7f619cdff02352192607090e317d6773b972",
          "transactionIndex": "0x69",
          "logIndex": "0x14d",
          "removed": false
        },
        {
          "address": "0x369fe004842a3b3fb5285a30c63c9ba60aa4f99f",
          "topics": [
            "0x719e40e438f954166f47e9c151eedc7cf154fd5379ffbaad9796c3530ba668b4",
            "0x00000000000000000000000090f294f6f73515b97b69ac57775ff58eba5e0608",
            "0x000000000000000000000000ff6bdef4fb646ee44e29fe8fc0862b02f0ba8a33"
          ],
          "data": "0x000000000000000000000000000000000000000000000004b75e170de2fc0000",
          "blockHash": "0xa67598ee44a53b65e8a7fc50a6d46f471180980f84179fa2840b0086a060907c",
          "blockNumber": "0xa5acf7",
          "blockTimestamp": "0x6a072ca4",
          "transactionHash": "0xfe5d237fbe2ebcc58f013eb6540e7f619cdff02352192607090e317d6773b972",
          "transactionIndex": "0x69",
          "logIndex": "0x14e",
          "removed": false
        },
        {
          "address": "0x341be87780d6ce9f7785900d3245cb61fb3b1ae1",
          "topics": [
            "0xddf252ad1be2c89b69c2b068fc378daa952ba7f163c4a11628f55a4df523b3ef",
            "0x00000000000000000000000090f294f6f73515b97b69ac57775ff58eba5e0608",
            "0x000000000000000000000000ff6bdef4fb646ee44e29fe8fc0862b02f0ba8a33"
          ],
          "data": "0x0000000000000000000000000000000000000000000000000000000006f01f80",
          "blockHash": "0xa67598ee44a53b65e8a7fc50a6d46f471180980f84179fa2840b0086a060907c",
          "blockNumber": "0xa5acf7",
          "blockTimestamp": "0x6a072ca4",
          "transactionHash": "0xfe5d237fbe2ebcc58f013eb6540e7f619cdff02352192607090e317d6773b972",
          "transactionIndex": "0x69",
          "logIndex": "0x14f",
          "removed": false
        },
        {
          "address": "0x369fe004842a3b3fb5285a30c63c9ba60aa4f99f",
          "topics": [
            "0x127a0d60b64e68d983855c4d67e59aab432c3fded72f4317958b05a2eb1dbe0f",
            "0x00000000000000000000000090f294f6f73515b97b69ac57775ff58eba5e0608"
          ],
          "data": "0x000000000000000000000000000000000000000000000004b75e170de2fc0000",
          "blockHash": "0xa67598ee44a53b65e8a7fc50a6d46f471180980f84179fa2840b0086a060907c",
          "blockNumber": "0xa5acf7",
          "blockTimestamp": "0x6a072ca4",
          "transactionHash": "0xfe5d237fbe2ebcc58f013eb6540e7f619cdff02352192607090e317d6773b972",
          "transactionIndex": "0x69",
          "logIndex": "0x150",
          "removed": false
        },
        {
          "address": "0x90f294f6f73515b97b69ac57775ff58eba5e0608",
          "topics": [
            "0x120bfc1de29621f7872a5b3129b6524ceb18df8c689a37496b8ee4007235dbc8"
          ],
          "data": "0x00000000000000000000000000000000000000000000000000000000000000000000000000000000000000000000000000000000000000000000000000000001",
          "blockHash": "0xa67598ee44a53b65e8a7fc50a6d46f471180980f84179fa2840b0086a060907c",
          "blockNumber": "0xa5acf7",
          "blockTimestamp": "0x6a072ca4",
          "transactionHash": "0xfe5d237fbe2ebcc58f013eb6540e7f619cdff02352192607090e317d6773b972",
          "transactionIndex": "0x69",
          "logIndex": "0x151",
          "removed": false
        },
        {
          "address": "0x90f294f6f73515b97b69ac57775ff58eba5e0608",
          "topics": [
            "0xccb4518c7bb9cdee893961401854c0ac29fad869f3338dc3087c9215fa4ab9e1"
          ],
          "data": "0x00000000000000000000000000000000000000000000000000000000000000000000000000000000000000000000000000000000000000410d586a20a4c00000",
          "blockHash": "0xa67598ee44a53b65e8a7fc50a6d46f471180980f84179fa2840b0086a060907c",
          "blockNumber": "0xa5acf7",
          "blockTimestamp": "0x6a072ca4",
          "transactionHash": "0xfe5d237fbe2ebcc58f013eb6540e7f619cdff02352192607090e317d6773b972",
          "transactionIndex": "0x69",
          "logIndex": "0x152",
          "removed": false
        }
      ],
      "logsBloom": "0x00000004004000000000100000000000000000000000400080000000800048000000000000000100000000000000000000000000100000000000000000000000000000000000000000000008100010000400000000800001000010000000010000000000020000000000000000000800000000004000000000000010001010000000000000000000000000000002800000001000000000000010000000000000008220000000000000100420000000000000000000000000000002010000080000400002000000800000000000012000000000000000004000200000000020000002000002000000000000000000000000000800000000000000000000000000",
      "type": "0x2",
      "transactionHash": "0xfe5d237fbe2ebcc58f013eb6540e7f619cdff02352192607090e317d6773b972",
      "transactionIndex": "0x69",
      "blockHash": "0xa67598ee44a53b65e8a7fc50a6d46f471180980f84179fa2840b0086a060907c",
      "blockNumber": "0xa5acf7",
      "gasUsed": "0x60e1b",
      "effectiveGasPrice": "0xf4260",
      "from": "0xff6bdef4fb646ee44e29fe8fc0862b02f0ba8a33",
      "to": "0x90f294f6f73515b97b69ac57775ff58eba5e0608",
      "contractAddress": null
    },
    {
      "status": "0x1",
      "cumulativeGasUsed": "0x6395f5",
      "logs": [
        {
          "address": "0x1c1bc02d68b90f994711f382bec37587f489f838",
          "topics": [
            "0x8d160eff266df162107c57259a1f1e71787bd4ab800800826bd189d6f2f3e83c",
            "0x0000000000000000000000000000000000000000000000000000000000000001"
          ],
          "data": "0x000000000000000000000000000000000000000000000000000000006a072cb0",
          "blockHash": "0xb6e24071f0991a7843146e18d2372d8e40f6904dc114b2f08754738bde3dcdea",
          "blockNumber": "0xa5acf8",
          "blockTimestamp": "0x6a072cb0",
          "transactionHash": "0xc7fb2d34b85349f8eee993d581e99ad921b753acce30a3ae909b13a27805de28",
          "transactionIndex": "0x44",
          "logIndex": "0x91",
          "removed": false
        }
      ],
      "logsBloom": "0x000000008000000000000000000000000000000000000000000000000000000000000000000000000000000000000000000000000000000000000000000400000000000000000000000000000000000000000000000400000000000000000000000000000000000041000000000000000000000000000000000000000000000000000000000000000000000000000000000000000000000000000000000000000000000000000000000000000a0000000000000000000000000000000000000000000000000000000000000000000000000000000000000000000000000040000000000200000000000000000000000000000000000000000000000000000000",
      "type": "0x2",
      "transactionHash": "0xc7fb2d34b85349f8eee993d581e99ad921b753acce30a3ae909b13a27805de28",
      "transactionIndex": "0x44",
      "blockHash": "0xb6e24071f0991a7843146e18d2372d8e40f6904dc114b2f08754738bde3dcdea",
      "blockNumber": "0xa5acf8",
      "gasUsed": "0x2d172",
      "effectiveGasPrice": "0xf4261",
      "from": "0xff6bdef4fb646ee44e29fe8fc0862b02f0ba8a33",
      "to": "0x90f294f6f73515b97b69ac57775ff58eba5e0608",
      "contractAddress": null
    },
    {
      "status": "0x1",
      "cumulativeGasUsed": "0x116400b",
      "logs": [
        {
          "address": "0x90f294f6f73515b97b69ac57775ff58eba5e0608",
          "topics": [
            "0xe4820932fb8bfeb1d651397e57975ed0c2c8652dbf3cea72ffcb6007744d256f",
            "0x55a4347000000000000000000000000000000000000000000000000000000000",
            "0x8d8dbd54da6ed08f3af3f4408383e63b6594306608253e922377e052ddfbbc05"
          ],
          "data": "0x",
          "blockHash": "0x2a37b109f7248a6368fa597723234d2de3d138462af9cc71a55ae6199fb1db78",
          "blockNumber": "0xa5acf9",
          "blockTimestamp": "0x6a072cc8",
          "transactionHash": "0x4a1582ec371767c4b2241dce82288d3cb4ea307960694d843fafef97e231260f",
          "transactionIndex": "0x88",
          "logIndex": "0x18c",
          "removed": false
        },
        {
          "address": "0x90f294f6f73515b97b69ac57775ff58eba5e0608",
          "topics": [
            "0xe4820932fb8bfeb1d651397e57975ed0c2c8652dbf3cea72ffcb6007744d256f",
            "0xe2cd4f7600000000000000000000000000000000000000000000000000000000",
            "0x8d8dbd54da6ed08f3af3f4408383e63b6594306608253e922377e052ddfbbc05"
          ],
          "data": "0x",
          "blockHash": "0x2a37b109f7248a6368fa597723234d2de3d138462af9cc71a55ae6199fb1db78",
          "blockNumber": "0xa5acf9",
          "blockTimestamp": "0x6a072cc8",
          "transactionHash": "0x4a1582ec371767c4b2241dce82288d3cb4ea307960694d843fafef97e231260f",
          "transactionIndex": "0x88",
          "logIndex": "0x18d",
          "removed": false
        },
        {
          "address": "0x90f294f6f73515b97b69ac57775ff58eba5e0608",
          "topics": [
            "0xe4820932fb8bfeb1d651397e57975ed0c2c8652dbf3cea72ffcb6007744d256f",
            "0xda3a5f7200000000000000000000000000000000000000000000000000000000",
            "0x8d8dbd54da6ed08f3af3f4408383e63b6594306608253e922377e052ddfbbc05"
          ],
          "data": "0x",
          "blockHash": "0x2a37b109f7248a6368fa597723234d2de3d138462af9cc71a55ae6199fb1db78",
          "blockNumber": "0xa5acf9",
          "blockTimestamp": "0x6a072cc8",
          "transactionHash": "0x4a1582ec371767c4b2241dce82288d3cb4ea307960694d843fafef97e231260f",
          "transactionIndex": "0x88",
          "logIndex": "0x18e",
          "removed": false
        },
        {
          "address": "0x90f294f6f73515b97b69ac57775ff58eba5e0608",
          "topics": [
            "0xe4820932fb8bfeb1d651397e57975ed0c2c8652dbf3cea72ffcb6007744d256f",
            "0x1c5d809000000000000000000000000000000000000000000000000000000000",
            "0x8d8dbd54da6ed08f3af3f4408383e63b6594306608253e922377e052ddfbbc05"
          ],
          "data": "0x",
          "blockHash": "0x2a37b109f7248a6368fa597723234d2de3d138462af9cc71a55ae6199fb1db78",
          "blockNumber": "0xa5acf9",
          "blockTimestamp": "0x6a072cc8",
          "transactionHash": "0x4a1582ec371767c4b2241dce82288d3cb4ea307960694d843fafef97e231260f",
          "transactionIndex": "0x88",
          "logIndex": "0x18f",
          "removed": false
        },
        {
          "address": "0x90f294f6f73515b97b69ac57775ff58eba5e0608",
          "topics": [
            "0xe4820932fb8bfeb1d651397e57975ed0c2c8652dbf3cea72ffcb6007744d256f",
            "0xd2fdf2e200000000000000000000000000000000000000000000000000000000",
            "0x8d8dbd54da6ed08f3af3f4408383e63b6594306608253e922377e052ddfbbc05"
          ],
          "data": "0x",
          "blockHash": "0x2a37b109f7248a6368fa597723234d2de3d138462af9cc71a55ae6199fb1db78",
          "blockNumber": "0xa5acf9",
          "blockTimestamp": "0x6a072cc8",
          "transactionHash": "0x4a1582ec371767c4b2241dce82288d3cb4ea307960694d843fafef97e231260f",
          "transactionIndex": "0x88",
          "logIndex": "0x190",
          "removed": false
        },
        {
          "address": "0x90f294f6f73515b97b69ac57775ff58eba5e0608",
          "topics": [
            "0xe4820932fb8bfeb1d651397e57975ed0c2c8652dbf3cea72ffcb6007744d256f",
            "0xc4a0db9600000000000000000000000000000000000000000000000000000000",
            "0x8d8dbd54da6ed08f3af3f4408383e63b6594306608253e922377e052ddfbbc05"
          ],
          "data": "0x",
          "blockHash": "0x2a37b109f7248a6368fa597723234d2de3d138462af9cc71a55ae6199fb1db78",
          "blockNumber": "0xa5acf9",
          "blockTimestamp": "0x6a072cc8",
          "transactionHash": "0x4a1582ec371767c4b2241dce82288d3cb4ea307960694d843fafef97e231260f",
          "transactionIndex": "0x88",
          "logIndex": "0x191",
          "removed": false
        },
        {
          "address": "0x90f294f6f73515b97b69ac57775ff58eba5e0608",
          "topics": [
            "0xe4820932fb8bfeb1d651397e57975ed0c2c8652dbf3cea72ffcb6007744d256f",
            "0x96365d4400000000000000000000000000000000000000000000000000000000",
            "0x8d8dbd54da6ed08f3af3f4408383e63b6594306608253e922377e052ddfbbc05"
          ],
          "data": "0x",
          "blockHash": "0x2a37b109f7248a6368fa597723234d2de3d138462af9cc71a55ae6199fb1db78",
          "blockNumber": "0xa5acf9",
          "blockTimestamp": "0x6a072cc8",
          "transactionHash": "0x4a1582ec371767c4b2241dce82288d3cb4ea307960694d843fafef97e231260f",
          "transactionIndex": "0x88",
          "logIndex": "0x192",
          "removed": false
        },
        {
          "address": "0x90f294f6f73515b97b69ac57775ff58eba5e0608",
          "topics": [
            "0xe4820932fb8bfeb1d651397e57975ed0c2c8652dbf3cea72ffcb6007744d256f",
            "0xb82a161c00000000000000000000000000000000000000000000000000000000",
            "0x8d8dbd54da6ed08f3af3f4408383e63b6594306608253e922377e052ddfbbc05"
          ],
          "data": "0x",
          "blockHash": "0x2a37b109f7248a6368fa597723234d2de3d138462af9cc71a55ae6199fb1db78",
          "blockNumber": "0xa5acf9",
          "blockTimestamp": "0x6a072cc8",
          "transactionHash": "0x4a1582ec371767c4b2241dce82288d3cb4ea307960694d843fafef97e231260f",
          "transactionIndex": "0x88",
          "logIndex": "0x193",
          "removed": false
        },
        {
          "address": "0x90f294f6f73515b97b69ac57775ff58eba5e0608",
          "topics": [
            "0xe4820932fb8bfeb1d651397e57975ed0c2c8652dbf3cea72ffcb6007744d256f",
            "0x9545303400000000000000000000000000000000000000000000000000000000",
            "0x8d8dbd54da6ed08f3af3f4408383e63b6594306608253e922377e052ddfbbc05"
          ],
          "data": "0x",
          "blockHash": "0x2a37b109f7248a6368fa597723234d2de3d138462af9cc71a55ae6199fb1db78",
          "blockNumber": "0xa5acf9",
          "blockTimestamp": "0x6a072cc8",
          "transactionHash": "0x4a1582ec371767c4b2241dce82288d3cb4ea307960694d843fafef97e231260f",
          "transactionIndex": "0x88",
          "logIndex": "0x194",
          "removed": false
        },
        {
          "address": "0x90f294f6f73515b97b69ac57775ff58eba5e0608",
          "topics": [
            "0xe4820932fb8bfeb1d651397e57975ed0c2c8652dbf3cea72ffcb6007744d256f",
            "0x61b479f900000000000000000000000000000000000000000000000000000000",
            "0x8d8dbd54da6ed08f3af3f4408383e63b6594306608253e922377e052ddfbbc05"
          ],
          "data": "0x",
          "blockHash": "0x2a37b109f7248a6368fa597723234d2de3d138462af9cc71a55ae6199fb1db78",
          "blockNumber": "0xa5acf9",
          "blockTimestamp": "0x6a072cc8",
          "transactionHash": "0x4a1582ec371767c4b2241dce82288d3cb4ea307960694d843fafef97e231260f",
          "transactionIndex": "0x88",
          "logIndex": "0x195",
          "removed": false
        },
        {
          "address": "0x90f294f6f73515b97b69ac57775ff58eba5e0608",
          "topics": [
            "0xe4820932fb8bfeb1d651397e57975ed0c2c8652dbf3cea72ffcb6007744d256f",
            "0x18c4110700000000000000000000000000000000000000000000000000000000",
            "0x8d8dbd54da6ed08f3af3f4408383e63b6594306608253e922377e052ddfbbc05"
          ],
          "data": "0x",
          "blockHash": "0x2a37b109f7248a6368fa597723234d2de3d138462af9cc71a55ae6199fb1db78",
          "blockNumber": "0xa5acf9",
          "blockTimestamp": "0x6a072cc8",
          "transactionHash": "0x4a1582ec371767c4b2241dce82288d3cb4ea307960694d843fafef97e231260f",
          "transactionIndex": "0x88",
          "logIndex": "0x196",
          "removed": false
        },
        {
          "address": "0x90f294f6f73515b97b69ac57775ff58eba5e0608",
          "topics": [
            "0xe4820932fb8bfeb1d651397e57975ed0c2c8652dbf3cea72ffcb6007744d256f",
            "0x9ec728bd00000000000000000000000000000000000000000000000000000000",
            "0x8d8dbd54da6ed08f3af3f4408383e63b6594306608253e922377e052ddfbbc05"
          ],
          "data": "0x",
          "blockHash": "0x2a37b109f7248a6368fa597723234d2de3d138462af9cc71a55ae6199fb1db78",
          "blockNumber": "0xa5acf9",
          "blockTimestamp": "0x6a072cc8",
          "transactionHash": "0x4a1582ec371767c4b2241dce82288d3cb4ea307960694d843fafef97e231260f",
          "transactionIndex": "0x88",
          "logIndex": "0x197",
          "removed": false
        },
        {
          "address": "0x90f294f6f73515b97b69ac57775ff58eba5e0608",
          "topics": [
            "0xc3b3bba350d426d8b0241206f22ea56f835fbcc9ade54bd871bf75a0d6c9f887",
            "0x8d8dbd54da6ed08f3af3f4408383e63b6594306608253e922377e052ddfbbc05",
            "0x0000000000000000000000001b0a76431b3cfd55b3be22497f03920c71623c47",
            "0x82beecdd0fd7fb5ab47261b2dec556e40796f55e3706a60c118ff8e2a4e768e7"
          ],
          "data": "0x0000000000000000000000000000000000000000000000000000000000000020000000000000000000000000000000000000000000000000000000000000001c697066733a2f2f67726f7766692d72657061796d656e742d64656d6f00000000",
          "blockHash": "0x2a37b109f7248a6368fa597723234d2de3d138462af9cc71a55ae6199fb1db78",
          "blockNumber": "0xa5acf9",
          "blockTimestamp": "0x6a072cc8",
          "transactionHash": "0x4a1582ec371767c4b2241dce82288d3cb4ea307960694d843fafef97e231260f",
          "transactionIndex": "0x88",
          "logIndex": "0x198",
          "removed": false
        }
      ],
      "logsBloom": "0x00000004000000000040000000000000041000000000000002000000000000000000000000100100000040000000000000000000000000000000000040000000000000000020001000000010008000000000004000000000800000000000000000000080000002400000a000000000000000200040000040000000001000000000000000800000000100000000000000000000002000000800000000000000000000040200000000100000000000000000000400000000000004000000800001400000000100008200000000000000020000000000000008000080000000000000100000004a00c00c0000800000000800080000200000000000000000000000",
      "type": "0x2",
      "transactionHash": "0x4a1582ec371767c4b2241dce82288d3cb4ea307960694d843fafef97e231260f",
      "transactionIndex": "0x88",
      "blockHash": "0x2a37b109f7248a6368fa597723234d2de3d138462af9cc71a55ae6199fb1db78",
      "blockNumber": "0xa5acf9",
      "gasUsed": "0x71a4f",
      "effectiveGasPrice": "0xf425f",
      "from": "0xff6bdef4fb646ee44e29fe8fc0862b02f0ba8a33",
      "to": "0x90f294f6f73515b97b69ac57775ff58eba5e0608",
      "contractAddress": null
    },
    {
      "status": "0x1",
      "cumulativeGasUsed": "0xff906d",
      "logs": [
        {
          "address": "0x90f294f6f73515b97b69ac57775ff58eba5e0608",
          "topics": [
            "0x4018fcb748592685f34200d22f4fb69f64e6bda52dc414278eb06dfb19f1a5ba"
          ],
          "data": "0x0000000000000000000000000000000000000000000000000000000000001388",
          "blockHash": "0x94ec9cf32beb6dde40a89cb80af4e60ddaefc369593ce9cf43553bcc569d60e7",
          "blockNumber": "0xa5acfa",
          "blockTimestamp": "0x6a072cd4",
          "transactionHash": "0xe2d2ee973f393d300ac1ee8b6d8d8aeef1c88b3737b478207b4a414b8968a5f5",
          "transactionIndex": "0x44",
          "logIndex": "0x96",
          "removed": false
        }
      ],
      "logsBloom": "0x00000004000000000000000000000000000000000000000000000000000000000000000000000100000000000000000000000000000000000000000000000000000000000004000000000400000000000000000000000000000000000000000000000000000000000000000000000000000000000000000000000000000000000000000000000000000000000000000000000400000000000000000000000000000000000000000000000000000000000000000000000000000000000000000000000000000000800000000000000000000000000000000000000000000000000000000000000000000000000000000000000000000000000000000000000000",
      "type": "0x2",
      "transactionHash": "0xe2d2ee973f393d300ac1ee8b6d8d8aeef1c88b3737b478207b4a414b8968a5f5",
      "transactionIndex": "0x44",
      "blockHash": "0x94ec9cf32beb6dde40a89cb80af4e60ddaefc369593ce9cf43553bcc569d60e7",
      "blockNumber": "0xa5acfa",
      "gasUsed": "0x19e88",
      "effectiveGasPrice": "0xf4260",
      "from": "0xff6bdef4fb646ee44e29fe8fc0862b02f0ba8a33",
      "to": "0x90f294f6f73515b97b69ac57775ff58eba5e0608",
      "contractAddress": null
    },
    {
      "status": "0x1",
      "cumulativeGasUsed": "0x3f08ae",
      "logs": [
        {
          "address": "0x341be87780d6ce9f7785900d3245cb61fb3b1ae1",
          "topics": [
            "0xddf252ad1be2c89b69c2b068fc378daa952ba7f163c4a11628f55a4df523b3ef",
            "0x000000000000000000000000ff6bdef4fb646ee44e29fe8fc0862b02f0ba8a33",
            "0x00000000000000000000000090f294f6f73515b97b69ac57775ff58eba5e0608"
          ],
          "data": "0x0000000000000000000000000000000000000000000000000000000077359400",
          "blockHash": "0xd6eaee90dfc828d0f78747bd09e3e175ca495f704201f1619d5fa9f65bbcf78d",
          "blockNumber": "0xa5acfb",
          "blockTimestamp": "0x6a072ce0",
          "transactionHash": "0x623a8ee5ae90b7495fef7c247f84baaa835cb562e422eb2065ecd0a51b468df2",
          "transactionIndex": "0x33",
          "logIndex": "0x4e",
          "removed": false
        },
        {
          "address": "0x90f294f6f73515b97b69ac57775ff58eba5e0608",
          "topics": [
            "0x26b8fad11da5740fffba282b3ba46348c95e4bf89e9fc60146d45e941b92c4fc",
            "0x000000000000000000000000ff6bdef4fb646ee44e29fe8fc0862b02f0ba8a33"
          ],
          "data": "0x00000000000000000000000000000000000000000000000000000000773594000000000000000000000000000000000000000000000000000000000077359400",
          "blockHash": "0xd6eaee90dfc828d0f78747bd09e3e175ca495f704201f1619d5fa9f65bbcf78d",
          "blockNumber": "0xa5acfb",
          "blockTimestamp": "0x6a072ce0",
          "transactionHash": "0x623a8ee5ae90b7495fef7c247f84baaa835cb562e422eb2065ecd0a51b468df2",
          "transactionIndex": "0x33",
          "logIndex": "0x4f",
          "removed": false
        }
      ],
      "logsBloom": "0x00000004004000000000100000000000000000000000000000000000800000000000000000000100000000000000000000000020000000000000000000000000000000000000000000000008000000000000000000000001000010000000000000000000000000000000000000000000000000000000000000000010000010000000000000000000000000001000800000000000000000000000000000000000008000000000000000000000000000000000000000000000000000000000000000000002000000800000000000010000000000000000000000000000000000000000000000000000000000000000000000000000000000000008000000000000",
      "type": "0x2",
      "transactionHash": "0x623a8ee5ae90b7495fef7c247f84baaa835cb562e422eb2065ecd0a51b468df2",
      "transactionIndex": "0x33",
      "blockHash": "0xd6eaee90dfc828d0f78747bd09e3e175ca495f704201f1619d5fa9f65bbcf78d",
      "blockNumber": "0xa5acfb",
      "gasUsed": "0x18d17",
      "effectiveGasPrice": "0xf4261",
      "from": "0xff6bdef4fb646ee44e29fe8fc0862b02f0ba8a33",
      "to": "0x90f294f6f73515b97b69ac57775ff58eba5e0608",
      "contractAddress": null
    },
    {
      "status": "0x1",
      "cumulativeGasUsed": "0xbbfbe6",
      "logs": [
        {
          "address": "0x9b7898cd64741d7a5503e8092f04fef2106c2291",
          "topics": [
            "0xf06d825adfb713360b9703a6cd4510b7e21da224ee5ade3542128b322e0b2afd",
            "0x00000000000000000000000090f294f6f73515b97b69ac57775ff58eba5e0608"
          ],
          "data": "0x",
          "blockHash": "0x2b99b4677b900e8e409b262e349660c1edb2a21ea1f59965f4b42c0211e74812",
          "blockNumber": "0xa5acfc",
          "blockTimestamp": "0x6a072cec",
          "transactionHash": "0x6bcc84af67abe0a21faa1d71c7a1f8c685b29d377031856fc68ff03cb90fa5c7",
          "transactionIndex": "0x69",
          "logIndex": "0x154",
          "removed": false
        }
      ],
      "logsBloom": "0x00000000000000000000000080000000000000000000000000000000800000000000000000000000000000000000000000000000000000000000000000000000000000000000000000000000000000000000000000000000000010000000000080000000000000200000000000000000000000000000000000000000000000000020000000000000000000000000000000000000000000000000000000000000008000000010000000000000000000000000000000000000000000000000000000800000000000000000000000000000000000000000000000000000000000000000000000000000000000000000000000000000000000000000000000000000",
      "type": "0x2",
      "transactionHash": "0x6bcc84af67abe0a21faa1d71c7a1f8c685b29d377031856fc68ff03cb90fa5c7",
      "transactionIndex": "0x69",
      "blockHash": "0x2b99b4677b900e8e409b262e349660c1edb2a21ea1f59965f4b42c0211e74812",
      "blockNumber": "0xa5acfc",
      "gasUsed": "0x16ab9",
      "effectiveGasPrice": "0xf4260",
      "from": "0xff6bdef4fb646ee44e29fe8fc0862b02f0ba8a33",
      "to": "0xb804de4d151e5a8a9eba61a9904ec3588c8efb56",
      "contractAddress": null
    }
  ],
  "libraries": [],
  "pending": [],
  "returns": {},
  "timestamp": 1778855148849,
  "chain": 11155111,
  "commit": "f574dbb"
}