{
  "transactions": [
    {
      "hash": "0x61233c1460f0974d61b82fd89215052c08141ea52ef7c58ccab0523ae9bf3b9b",
      "transactionType": "CREATE",
      "contractName": "MockStablecoin",
      "contractAddress": "0x9c872074c9fc38e5e777ff53eeecbc61d1cf3186",
      "function": null,
      "arguments": [
        "Mock Tether USD",
        "mUSDT",
        "6"
      ],
      "transaction": {
        "from": "0xff6bdef4fb646ee44e29fe8fc0862b02f0ba8a33",
        "gas": "0xa5851",
        "value": "0x0",
        "input": "0x60a060405234620003885762000b77803803806200001d816200038c565b9283398101606082820312620003885781516001600160401b0391908281116200038857816200004f918501620003b2565b6020918285015184811162000388576040916200006e918701620003b2565b9401519260ff841684036200038857815181811162000293576003908154906001948583811c931680156200037d575b8784101462000369578190601f9384811162000316575b508790848311600114620002b3575f92620002a7575b50505f1982851b1c191690851b1782555b8651928311620002935760049485548581811c9116801562000288575b8282101462000275578281116200022d575b5080918411600114620001c4575082939495965f93620001b8575b505082841b925f19911b1c19161782555b46148015620001ac575b8015620001a1575b801562000195575b80156200018a575b6200017b575060805260405161075490816200042382396080518161031d0152f35b604051631295176d60e31b8152fd5b506089461462000159565b50612105461462000151565b50600a461462000149565b5061a4b1461462000141565b015191505f8062000126565b9190601f19841697865f52835f20935f905b8a821062000215575050848697989910620001fb575b50505050811b01825562000137565b01519060f8845f19921b161c191690555f808080620001ec565b808885978294968601518155019601930190620001d6565b865f52815f208380870160051c8201928488106200026b575b0160051c019086905b8281106200025f5750506200010b565b5f81550186906200024f565b9250819262000246565b602287634e487b7160e01b5f525260245ffd5b90607f1690620000f9565b634e487b7160e01b5f52604160045260245ffd5b015190505f80620000cb565b90879350601f19831691865f52895f20925f5b8b828210620002ff5750508411620002e7575b505050811b018255620000dc565b01515f1983871b60f8161c191690555f8080620002d9565b8385015186558b97909501949384019301620002c6565b909150845f52875f208480850160051c8201928a86106200035f575b918991869594930160051c01915b82811062000350575050620000b5565b5f815585945089910162000340565b9250819262000332565b634e487b7160e01b5f52602260045260245ffd5b92607f16926200009e565b5f80fd5b6040519190601f01601f191682016001600160401b038111838210176200029357604052565b919080601f84011215620003885782516001600160401b0381116200029357602090620003e8601f8201601f191683016200038c565b9281845282828701011162000388575f5b8181106200040e5750825f9394955001015290565b8581018301518482018401528201620003f956fe6080604090808252600480361015610015575f80fd5b5f3560e01c91826306fdde03146104f957508163095ea7b31461045157816318160ddd1461043357816323b872dd14610341578163313ce5671461030457816340c10f191461025f57816370a082311461022957816395d89b411461010a57508063a9059cbb146100da5763dd62ed3e1461008e575f80fd5b346100d657806003193601126100d6576020906100a9610618565b6100b161062e565b9060018060a01b038091165f5260018452825f2091165f528252805f20549051908152f35b5f80fd5b50346100d657806003193601126100d6576020906101036100f9610618565b6024359033610644565b5160018152f35b82346100d6575f3660031901126100d6578051905f835460018160011c906001831692831561021f575b602093848410811461020c578388529081156101f0575060011461019c575b505050829003601f01601f191682019267ffffffffffffffff84118385101761018957508291826101859252826105d1565b0390f35b604190634e487b7160e01b5f525260245ffd5b5f878152929350837f8a35acfbc15ff81a39ae7d344fd709f28e8600b4aa8c65c6b64bfe7fe36bd19b5b8385106101dc5750505050830101848080610153565b8054888601830152930192849082016101c6565b60ff1916878501525050151560051b8401019050848080610153565b602289634e487b7160e01b5f525260245ffd5b91607f1691610134565b82346100d65760203660031901126100d6576020906001600160a01b0361024e610618565b165f525f8252805f20549051908152f35b82346100d657806003193601126100d657610278610618565b6001600160a01b031691602435919083156102ef57600254908382018092116102dc57505f927fddf252ad1be2c89b69c2b068fc378daa952ba7f163c4a11628f55a4df523b3ef9260209260025585855284835280852082815401905551908152a3005b601190634e487b7160e01b5f525260245ffd5b5f602492519163ec442f0560e01b8352820152fd5b82346100d6575f3660031901126100d6576020905160ff7f0000000000000000000000000000000000000000000000000000000000000000168152f35b9050346100d65760603660031901126100d65761035c610618565b61036461062e565b906044359260018060a01b038216805f526001602052855f20335f52602052855f2054915f19831061039f575b602087610103888888610644565b8583106104075781156103f15733156103db57505f90815260016020908152868220338352815290869020918590039091558290610103610391565b6024905f885191634a1406b160e11b8352820152fd5b6024905f88519163e602df0560e01b8352820152fd5b8651637dc7a0d960e11b8152339181019182526020820193909352604081018690528291506060010390fd5b82346100d6575f3660031901126100d6576020906002549051908152f35b82346100d657806003193601126100d65761046a610618565b6024359033156104e3576001600160a01b03169081156104cd5760209350335f5260018452825f20825f52845280835f205582519081527f8c5be1e5ebec7d5bd14f71427d1e84f3dd0314c0f7b2291e5b200ac8c7c3b925843392a35160018152f35b8251634a1406b160e11b81525f81860152602490fd5b825163e602df0560e01b81525f81860152602490fd5b83346100d6575f3660031901126100d6575f60035460018160011c90600183169283156105c7575b602093848410811461020c578388529081156101f0575060011461057157505050829003601f01601f191682019267ffffffffffffffff84118385101761018957508291826101859252826105d1565b60035f908152929350837fc2575a0e9e593c00f959f8c92f12db2869c3395a3b0502d05e2516446f71f85b5b8385106105b35750505050830101848080610153565b80548886018301529301928490820161059d565b91607f1691610521565b602080825282518183018190529093925f5b82811061060457505060409293505f838284010152601f8019910116010190565b8181018601518482016040015285016105e3565b600435906001600160a01b03821682036100d657565b602435906001600160a01b03821682036100d657565b916001600160a01b0380841692831561070657169283156106ee57825f525f60205260405f2054908282106106bc5750817fddf252ad1be2c89b69c2b068fc378daa952ba7f163c4a11628f55a4df523b3ef92602092855f525f84520360405f2055845f5260405f20818154019055604051908152a3565b60405163391434e360e21b81526001600160a01b03919091166004820152602481019190915260448101829052606490fd5b60405163ec442f0560e01b81525f6004820152602490fd5b604051634b637e8f60e11b81525f6004820152602490fdfea264697066735822122021d8c7cd7f5fea384dfb0235901b03d38e598113efcb8b85ac303308e74e4d7164736f6c63430008180033000000000000000000000000000000000000000000000000000000000000006000000000000000000000000000000000000000000000000000000000000000a00000000000000000000000000000000000000000000000000000000000000006000000000000000000000000000000000000000000000000000000000000000f4d6f636b2054657468657220555344000000000000000000000000000000000000000000000000000000000000000000000000000000000000000000000000056d55534454000000000000000000000000000000000000000000000000000000",
        "nonce": "0x215",
        "chainId": "0x14a34"
      },
      "additionalContracts": [],
      "isFixedGasLimit": false
    },
    {
      "hash": "0x062834f31d49bfba44a39665f281c6e24fddbee732c295d12eaab67ae523150c",
      "transactionType": "CALL",
      "contractName": "MockStablecoin",
      "contractAddress": "0x9c872074c9fc38e5e777ff53eeecbc61d1cf3186",
      "function": "mint(address,uint256)",
      "arguments": [
        "0xFF6bdef4fB646EE44e29FE8FC0862B02F0Ba8a33",
        "10000000000000"
      ],
      "transaction": {
        "from": "0xff6bdef4fb646ee44e29fe8fc0862b02f0ba8a33",
        "to": "0x9c872074c9fc38e5e777ff53eeecbc61d1cf3186",
        "gas": "0x16f79",
        "value": "0x0",
        "input": "0x40c10f19000000000000000000000000ff6bdef4fb646ee44e29fe8fc0862b02f0ba8a33000000000000000000000000000000000000000000000000000009184e72a000",
        "nonce": "0x216",
        "chainId": "0x14a34"
      },
      "additionalContracts": [],
      "isFixedGasLimit": false
    },
    {
      "hash": "0xdade46ef28fa8bb1bb8efd5ce5c3c0c70f5a9795bfe5988ec04ee5729a64673b",
      "transactionType": "CREATE",
      "contractName": "MockStablecoin",
      "contractAddress": "0x18d1777cc183f6073d585f934335a773ffc7284c",
      "function": null,
      "arguments": [
        "Mock Dai",
        "mDAI",
        "18"
      ],
      "transaction": {
        "from": "0xff6bdef4fb646ee44e29fe8fc0862b02f0ba8a33",
        "gas": "0xa57d4",
        "value": "0x0",
        "input": "0x60a060405234620003885762000b77803803806200001d816200038c565b9283398101606082820312620003885781516001600160401b0391908281116200038857816200004f918501620003b2565b6020918285015184811162000388576040916200006e918701620003b2565b9401519260ff841684036200038857815181811162000293576003908154906001948583811c931680156200037d575b8784101462000369578190601f9384811162000316575b508790848311600114620002b3575f92620002a7575b50505f1982851b1c191690851b1782555b8651928311620002935760049485548581811c9116801562000288575b8282101462000275578281116200022d575b5080918411600114620001c4575082939495965f93620001b8575b505082841b925f19911b1c19161782555b46148015620001ac575b8015620001a1575b801562000195575b80156200018a575b6200017b575060805260405161075490816200042382396080518161031d0152f35b604051631295176d60e31b8152fd5b506089461462000159565b50612105461462000151565b50600a461462000149565b5061a4b1461462000141565b015191505f8062000126565b9190601f19841697865f52835f20935f905b8a821062000215575050848697989910620001fb575b50505050811b01825562000137565b01519060f8845f19921b161c191690555f808080620001ec565b808885978294968601518155019601930190620001d6565b865f52815f208380870160051c8201928488106200026b575b0160051c019086905b8281106200025f5750506200010b565b5f81550186906200024f565b9250819262000246565b602287634e487b7160e01b5f525260245ffd5b90607f1690620000f9565b634e487b7160e01b5f52604160045260245ffd5b015190505f80620000cb565b90879350601f19831691865f52895f20925f5b8b828210620002ff5750508411620002e7575b505050811b018255620000dc565b01515f1983871b60f8161c191690555f8080620002d9565b8385015186558b97909501949384019301620002c6565b909150845f52875f208480850160051c8201928a86106200035f575b918991869594930160051c01915b82811062000350575050620000b5565b5f815585945089910162000340565b9250819262000332565b634e487b7160e01b5f52602260045260245ffd5b92607f16926200009e565b5f80fd5b6040519190601f01601f191682016001600160401b038111838210176200029357604052565b919080601f84011215620003885782516001600160401b0381116200029357602090620003e8601f8201601f191683016200038c565b9281845282828701011162000388575f5b8181106200040e5750825f9394955001015290565b8581018301518482018401528201620003f956fe6080604090808252600480361015610015575f80fd5b5f3560e01c91826306fdde03146104f957508163095ea7b31461045157816318160ddd1461043357816323b872dd14610341578163313ce5671461030457816340c10f191461025f57816370a082311461022957816395d89b411461010a57508063a9059cbb146100da5763dd62ed3e1461008e575f80fd5b346100d657806003193601126100d6576020906100a9610618565b6100b161062e565b9060018060a01b038091165f5260018452825f2091165f528252805f20549051908152f35b5f80fd5b50346100d657806003193601126100d6576020906101036100f9610618565b6024359033610644565b5160018152f35b82346100d6575f3660031901126100d6578051905f835460018160011c906001831692831561021f575b602093848410811461020c578388529081156101f0575060011461019c575b505050829003601f01601f191682019267ffffffffffffffff84118385101761018957508291826101859252826105d1565b0390f35b604190634e487b7160e01b5f525260245ffd5b5f878152929350837f8a35acfbc15ff81a39ae7d344fd709f28e8600b4aa8c65c6b64bfe7fe36bd19b5b8385106101dc5750505050830101848080610153565b8054888601830152930192849082016101c6565b60ff1916878501525050151560051b8401019050848080610153565b602289634e487b7160e01b5f525260245ffd5b91607f1691610134565b82346100d65760203660031901126100d6576020906001600160a01b0361024e610618565b165f525f8252805f20549051908152f35b82346100d657806003193601126100d657610278610618565b6001600160a01b031691602435919083156102ef57600254908382018092116102dc57505f927fddf252ad1be2c89b69c2b068fc378daa952ba7f163c4a11628f55a4df523b3ef9260209260025585855284835280852082815401905551908152a3005b601190634e487b7160e01b5f525260245ffd5b5f602492519163ec442f0560e01b8352820152fd5b82346100d6575f3660031901126100d6576020905160ff7f0000000000000000000000000000000000000000000000000000000000000000168152f35b9050346100d65760603660031901126100d65761035c610618565b61036461062e565b906044359260018060a01b038216805f526001602052855f20335f52602052855f2054915f19831061039f575b602087610103888888610644565b8583106104075781156103f15733156103db57505f90815260016020908152868220338352815290869020918590039091558290610103610391565b6024905f885191634a1406b160e11b8352820152fd5b6024905f88519163e602df0560e01b8352820152fd5b8651637dc7a0d960e11b8152339181019182526020820193909352604081018690528291506060010390fd5b82346100d6575f3660031901126100d6576020906002549051908152f35b82346100d657806003193601126100d65761046a610618565b6024359033156104e3576001600160a01b03169081156104cd5760209350335f5260018452825f20825f52845280835f205582519081527f8c5be1e5ebec7d5bd14f71427d1e84f3dd0314c0f7b2291e5b200ac8c7c3b925843392a35160018152f35b8251634a1406b160e11b81525f81860152602490fd5b825163e602df0560e01b81525f81860152602490fd5b83346100d6575f3660031901126100d6575f60035460018160011c90600183169283156105c7575b602093848410811461020c578388529081156101f0575060011461057157505050829003601f01601f191682019267ffffffffffffffff84118385101761018957508291826101859252826105d1565b60035f908152929350837fc2575a0e9e593c00f959f8c92f12db2869c3395a3b0502d05e2516446f71f85b5b8385106105b35750505050830101848080610153565b80548886018301529301928490820161059d565b91607f1691610521565b602080825282518183018190529093925f5b82811061060457505060409293505f838284010152601f8019910116010190565b8181018601518482016040015285016105e3565b600435906001600160a01b03821682036100d657565b602435906001600160a01b03821682036100d657565b916001600160a01b0380841692831561070657169283156106ee57825f525f60205260405f2054908282106106bc5750817fddf252ad1be2c89b69c2b068fc378daa952ba7f163c4a11628f55a4df523b3ef92602092855f525f84520360405f2055845f5260405f20818154019055604051908152a3565b60405163391434e360e21b81526001600160a01b03919091166004820152602481019190915260448101829052606490fd5b60405163ec442f0560e01b81525f6004820152602490fd5b604051634b637e8f60e11b81525f6004820152602490fdfea264697066735822122021d8c7cd7f5fea384dfb0235901b03d38e598113efcb8b85ac303308e74e4d7164736f6c63430008180033000000000000000000000000000000000000000000000000000000000000006000000000000000000000000000000000000000000000000000000000000000a0000000000000000000000000000000000000000000000000000000000000001200000000000000000000000000000000000000000000000000000000000000084d6f636b2044616900000000000000000000000000000000000000000000000000000000000000000000000000000000000000000000000000000000000000046d44414900000000000000000000000000000000000000000000000000000000",
        "nonce": "0x217",
        "chainId": "0x14a34"
      },
      "additionalContracts": [],
      "isFixedGasLimit": false
    },
    {
      "hash": "0xb6d16aa16278cf2320a8abaa8e44775ff48717f8a7e43ac7fdf1cc2cf94c3afe",
      "transactionType": "CALL",
      "contractName": "MockStablecoin",
      "contractAddress": "0x18d1777cc183f6073d585f934335a773ffc7284c",
      "function": "mint(address,uint256)",
      "arguments": [
        "0xFF6bdef4fB646EE44e29FE8FC0862B02F0Ba8a33",
        "10000000000000000000000000"
      ],
      "transaction": {
        "from": "0xff6bdef4fb646ee44e29fe8fc0862b02f0ba8a33",
        "to": "0x18d1777cc183f6073d585f934335a773ffc7284c",
        "gas": "0x16fab",
        "value": "0x0",
        "input": "0x40c10f19000000000000000000000000ff6bdef4fb646ee44e29fe8fc0862b02f0ba8a33000000000000000000000000000000000000000000084595161401484a000000",
        "nonce": "0x218",
        "chainId": "0x14a34"
      },
      "additionalContracts": [],
      "isFixedGasLimit": false
    },
    {
      "hash": "0x971eaf8c3df5008728659066ee47f943d3f129c4e944218321ca61431795f6de",
      "transactionType": "CREATE",
      "contractName": "MockOracle",
      "contractAddress": "0xb0996507b56ec86638366ad7d87e2689685e9850",
      "function": null,
      "arguments": [
        "100000000",
        "8"
      ],
      "transaction": {
        "from": "0xff6bdef4fb646ee44e29fe8fc0862b02f0ba8a33",
        "gas": "0x49563",
        "value": "0x0",
        "input": "0x60803461009057601f61023a38819003918201601f19168301916001600160401b0383118484101761009457808492604094855283398101031261009057602081519101519060ff821680920361009057600380546001600160a01b0319166a01000000000000000000011790555f556001805460ff19169190911790554260025560405161019190816100a98239f35b5f80fd5b634e487b7160e01b5f52604160045260245ffdfe6080806040526004361015610012575f80fd5b5f3560e01c9081631ecc7d8814610142578163313ce5671461012557508063b3d59861146100bd578063f7a30806146100a15763feaf968c14610053575f80fd5b3461009d575f36600319011261009d5760a060035469ffffffffffffffffffff5f54916002546040519383831685526020850152426040850152606084015260501c166080820152f35b5f80fd5b3461009d57602036600319011261009d576004355f5542600255005b3461009d57604036600319011261009d5760043569ffffffffffffffffffff9081811680910361009d57602435918216820361009d576003549169ffffffffffffffffffff60501b9060501b16916bffffffffffffffffffffffff60a01b1617176003555f80f35b3461009d575f36600319011261009d5760209060ff600154168152f35b3461009d57602036600319011261009d5760043560025500fea2646970667358221220028cda59eef60da6c1be526cc3599d16692de49e3b7101ded9f8482a9130b7af64736f6c634300081800330000000000000000000000000000000000000000000000000000000005f5e1000000000000000000000000000000000000000000000000000000000000000008",
        "nonce": "0x219",
        "chainId": "0x14a34"
      },
      "additionalContracts": [],
      "isFixedGasLimit": false
    },
    {
      "hash": "0x57f76ac4be9a6198d4146a181c1a0038a3ffc60a947dba8c7dbbb7c65c2c930a",
      "transactionType": "CREATE",
      "contractName": "MockOracle",
      "contractAddress": "0xb9b5c416eeb20afd2cac97d72b4c99dfe5d5ab0a",
      "function": null,
      "arguments": [
        "100000000",
        "8"
      ],
      "transaction": {
        "from": "0xff6bdef4fb646ee44e29fe8fc0862b02f0ba8a33",
        "gas": "0x49563",
        "value": "0x0",
        "input": "0x60803461009057601f61023a38819003918201601f19168301916001600160401b0383118484101761009457808492604094855283398101031261009057602081519101519060ff821680920361009057600380546001600160a01b0319166a01000000000000000000011790555f556001805460ff19169190911790554260025560405161019190816100a98239f35b5f80fd5b634e487b7160e01b5f52604160045260245ffdfe6080806040526004361015610012575f80fd5b5f3560e01c9081631ecc7d8814610142578163313ce5671461012557508063b3d59861146100bd578063f7a30806146100a15763feaf968c14610053575f80fd5b3461009d575f36600319011261009d5760a060035469ffffffffffffffffffff5f54916002546040519383831685526020850152426040850152606084015260501c166080820152f35b5f80fd5b3461009d57602036600319011261009d576004355f5542600255005b3461009d57604036600319011261009d5760043569ffffffffffffffffffff9081811680910361009d57602435918216820361009d576003549169ffffffffffffffffffff60501b9060501b16916bffffffffffffffffffffffff60a01b1617176003555f80f35b3461009d575f36600319011261009d5760209060ff600154168152f35b3461009d57602036600319011261009d5760043560025500fea2646970667358221220028cda59eef60da6c1be526cc3599d16692de49e3b7101ded9f8482a9130b7af64736f6c634300081800330000000000000000000000000000000000000000000000000000000005f5e1000000000000000000000000000000000000000000000000000000000000000008",
        "nonce": "0x21a",
        "chainId": "0x14a34"
      },
      "additionalContracts": [],
      "isFixedGasLimit": false
    },
    {
      "hash": "0x3cb1e85feb0aaad3ccdc7200af476af43fff5d3efd1d957dee98a10d58654e6b",
      "transactionType": "CALL",
      "contractName": null,
      "contractAddress": "0xaf81c05747eda1e1715ff23626ab83c3351dcff6",
      "function": "addGrowfiTreasuryStablecoin(address,uint256,address,uint64,uint16,uint16)",
      "arguments": [
        "0x9c872074c9fc38E5e777ff53EeEcBC61d1Cf3186",
        "1000000000000",
        "0xB0996507b56eC86638366AD7d87E2689685E9850",
        "86400",
        "9500",
        "10500"
      ],
      "transaction": {
        "from": "0xff6bdef4fb646ee44e29fe8fc0862b02f0ba8a33",
        "to": "0xaf81c05747eda1e1715ff23626ab83c3351dcff6",
        "gas": "0x321a3",
        "value": "0x0",
        "input": "0x71a4feae0000000000000000000000009c872074c9fc38e5e777ff53eeecbc61d1cf3186000000000000000000000000000000000000000000000000000000e8d4a51000000000000000000000000000b0996507b56ec86638366ad7d87e2689685e98500000000000000000000000000000000000000000000000000000000000015180000000000000000000000000000000000000000000000000000000000000251c0000000000000000000000000000000000000000000000000000000000002904",
        "nonce": "0x21b",
        "chainId": "0x14a34"
      },
      "additionalContracts": [],
      "isFixedGasLimit": false
    },
    {
      "hash": "0x3105f2f624ad94f98313bb256f135305c017f21db5e071b07c71492169a36d06",
      "transactionType": "CALL",
      "contractName": null,
      "contractAddress": "0xaf81c05747eda1e1715ff23626ab83c3351dcff6",
      "function": "addGrowfiTreasuryStablecoin(address,uint256,address,uint64,uint16,uint16)",
      "arguments": [
        "0x18d1777Cc183F6073D585F934335a773ffC7284c",
        "1",
        "0xB9B5C416eeb20AFd2CAC97d72b4C99DfE5D5aB0A",
        "86400",
        "9500",
        "10500"
      ],
      "transaction": {
        "from": "0xff6bdef4fb646ee44e29fe8fc0862b02f0ba8a33",
        "to": "0xaf81c05747eda1e1715ff23626ab83c3351dcff6",
        "gas": "0x2f4e7",
        "value": "0x0",
        "input": "0x71a4feae00000000000000000000000018d1777cc183f6073d585f934335a773ffc7284c0000000000000000000000000000000000000000000000000000000000000001000000000000000000000000b9b5c416eeb20afd2cac97d72b4c99dfe5d5ab0a0000000000000000000000000000000000000000000000000000000000015180000000000000000000000000000000000000000000000000000000000000251c0000000000000000000000000000000000000000000000000000000000002904",
        "nonce": "0x21c",
        "chainId": "0x14a34"
      },
      "additionalContracts": [],
      "isFixedGasLimit": false
    },
    {
      "hash": "0x524ef510da50df8ee5565e87f6a5ec116177c6d05002bacde3d870ea62aac559",
      "transactionType": "CALL",
      "contractName": null,
      "contractAddress": "0xaf81c05747eda1e1715ff23626ab83c3351dcff6",
      "function": "setCampaignPaymentTokenPolicy(address,bool,bool,bool,address)",
      "arguments": [
        "0x9c872074c9fc38E5e777ff53EeEcBC61d1Cf3186",
        "true",
        "true",
        "false",
        "0x0000000000000000000000000000000000000000"
      ],
      "transaction": {
        "from": "0xff6bdef4fb646ee44e29fe8fc0862b02f0ba8a33",
        "to": "0xaf81c05747eda1e1715ff23626ab83c3351dcff6",
        "gas": "0x12c04",
        "value": "0x0",
        "input": "0x897c09110000000000000000000000009c872074c9fc38e5e777ff53eeecbc61d1cf31860000000000000000000000000000000000000000000000000000000000000001000000000000000000000000000000000000000000000000000000000000000100000000000000000000000000000000000000000000000000000000000000000000000000000000000000000000000000000000000000000000000000000000",
        "nonce": "0x21d",
        "chainId": "0x14a34"
      },
      "additionalContracts": [],
      "isFixedGasLimit": false
    },
    {
      "hash": "0x094c6d84424e9f7cdfb51f8531fe7d430661c2b857664f4652bbdedf834fae7e",
      "transactionType": "CALL",
      "contractName": null,
      "contractAddress": "0xaf81c05747eda1e1715ff23626ab83c3351dcff6",
      "function": "setCampaignPaymentTokenPolicy(address,bool,bool,bool,address)",
      "arguments": [
        "0x18d1777Cc183F6073D585F934335a773ffC7284c",
        "true",
        "true",
        "false",
        "0x0000000000000000000000000000000000000000"
      ],
      "transaction": {
        "from": "0xff6bdef4fb646ee44e29fe8fc0862b02f0ba8a33",
        "to": "0xaf81c05747eda1e1715ff23626ab83c3351dcff6",
        "gas": "0x12c04",
        "value": "0x0",
        "input": "0x897c091100000000000000000000000018d1777cc183f6073d585f934335a773ffc7284c0000000000000000000000000000000000000000000000000000000000000001000000000000000000000000000000000000000000000000000000000000000100000000000000000000000000000000000000000000000000000000000000000000000000000000000000000000000000000000000000000000000000000000",
        "nonce": "0x21e",
        "chainId": "0x14a34"
      },
      "additionalContracts": [],
      "isFixedGasLimit": false
    }
  ],
  "receipts": [
    {
      "status": "0x1",
      "cumulativeGasUsed": "0x8a9c1",
      "logs": [],
      "logsBloom": "0x00000000000000000000000000000000000000000000000000000000000000000000000000000000000000000000000000000000000000000000000000000000000000000000000000000000000000000000000000000000000000000000000000000000000000000000000000000000000000000000000000000000000000000000000000000000000000000000000000000000000000000000000000000000000000000000000000000000000000000000000000000000000000000000000000000000000000000000000000000000000000000000000000000000000000000000000000000000000000000000000000000000000000000000000000000000",
      "type": "0x2",
      "transactionHash": "0x61233c1460f0974d61b82fd89215052c08141ea52ef7c58ccab0523ae9bf3b9b",
      "transactionIndex": "0x1",
      "blockHash": "0x4115097b165da06de01887965de6916943103a3406ec0504e6f1d18c29491ce1",
      "blockNumber": "0x28b840b",
      "gasUsed": "0x7f52b",
      "effectiveGasPrice": "0x5b8d80",
      "blobGasUsed": "0xd823e",
      "from": "0xff6bdef4fb646ee44e29fe8fc0862b02f0ba8a33",
      "to": null,
      "contractAddress": "0x9c872074c9fc38e5e777ff53eeecbc61d1cf3186",
      "daFootprintGasScalar": "0x1be",
      "l1BaseFeeScalar": "0x44d",
      "l1BlobBaseFee": "0xc948738",
      "l1BlobBaseFeeScalar": "0xa118b",
      "l1Fee": "0x5ab7eaf5e4",
      "l1GasPrice": "0xc0e65dd4",
      "l1GasUsed": "0x7c11"
    },
    {
      "status": "0x1",
      "cumulativeGasUsed": "0x21eac0",
      "logs": [
        {
          "address": "0x9c872074c9fc38e5e777ff53eeecbc61d1cf3186",
          "topics": [
            "0xddf252ad1be2c89b69c2b068fc378daa952ba7f163c4a11628f55a4df523b3ef",
            "0x0000000000000000000000000000000000000000000000000000000000000000",
            "0x000000000000000000000000ff6bdef4fb646ee44e29fe8fc0862b02f0ba8a33"
          ],
          "data": "0x000000000000000000000000000000000000000000000000000009184e72a000",
          "blockHash": "0x0a02163ea566bcc694b7ad6248ba833a733c8857d0d51c3c53101ee6feb2b003",
          "blockNumber": "0x28b840c",
          "blockTimestamp": "0x6a2a66f8",
          "transactionHash": "0x062834f31d49bfba44a39665f281c6e24fddbee732c295d12eaab67ae523150c",
          "transactionIndex": "0x7",
          "logIndex": "0x49",
          "removed": false
        }
      ],
      "logsBloom": "0x00000000000000000000100000000000000000000000002000000000000000000000000000000000000000000000000000000000000000000000000000000000000000000000000000000008000001000000000000000001000000000000000000000000020000000000000000000800000000000000000000000010000000000000000000000000000000000000000000000000000000000000000000000000000000000000000000000000000000000000000000000000000000000000000000000002000000000000000000010000000000000000000000000000000020000000000000000002000000000000000000000000000000000000000000000000",
      "type": "0x2",
      "transactionHash": "0x062834f31d49bfba44a39665f281c6e24fddbee732c295d12eaab67ae523150c",
      "transactionIndex": "0x7",
      "blockHash": "0x0a02163ea566bcc694b7ad6248ba833a733c8857d0d51c3c53101ee6feb2b003",
      "blockNumber": "0x28b840c",
      "gasUsed": "0x10a0c",
      "effectiveGasPrice": "0x5b8d80",
      "blobGasUsed": "0xae38",
      "from": "0xff6bdef4fb646ee44e29fe8fc0862b02f0ba8a33",
      "to": "0x9c872074c9fc38e5e777ff53eeecbc61d1cf3186",
      "contractAddress": null,
      "daFootprintGasScalar": "0x1be",
      "l1BaseFeeScalar": "0x44d",
      "l1BlobBaseFee": "0xc948738",
      "l1BlobBaseFeeScalar": "0xa118b",
      "l1Fee": "0x491eada21",
      "l1GasPrice": "0xc0e65dd4",
      "l1GasUsed": "0x640"
    },
    {
      "status": "0x1",
      "cumulativeGasUsed": "0x147fc4",
      "logs": [],
      "logsBloom": "0x00000000000000000000000000000000000000000000000000000000000000000000000000000000000000000000000000000000000000000000000000000000000000000000000000000000000000000000000000000000000000000000000000000000000000000000000000000000000000000000000000000000000000000000000000000000000000000000000000000000000000000000000000000000000000000000000000000000000000000000000000000000000000000000000000000000000000000000000000000000000000000000000000000000000000000000000000000000000000000000000000000000000000000000000000000000",
      "type": "0x2",
      "transactionHash": "0xdade46ef28fa8bb1bb8efd5ce5c3c0c70f5a9795bfe5988ec04ee5729a64673b",
      "transactionIndex": "0x3",
      "blockHash": "0xee46595387f9a8e21b7fd2790ea5c24f5e5cd250ec46072097a552a8d9d6fb86",
      "blockNumber": "0x28b840e",
      "gasUsed": "0x7f4cb",
      "effectiveGasPrice": "0x5b8d80",
      "blobGasUsed": "0xd744e",
      "from": "0xff6bdef4fb646ee44e29fe8fc0862b02f0ba8a33",
      "to": null,
      "contractAddress": "0x18d1777cc183f6073d585f934335a773ffc7284c",
      "daFootprintGasScalar": "0x1be",
      "l1BaseFeeScalar": "0x44d",
      "l1BlobBaseFee": "0xcb8db8e",
      "l1BlobBaseFeeScalar": "0xa118b",
      "l1Fee": "0x5ac16e66cb",
      "l1GasPrice": "0xbe62b570",
      "l1GasUsed": "0x7b98"
    },
    {
      "status": "0x1",
      "cumulativeGasUsed": "0x48e48f",
      "logs": [
        {
          "address": "0x18d1777cc183f6073d585f934335a773ffc7284c",
          "topics": [
            "0xddf252ad1be2c89b69c2b068fc378daa952ba7f163c4a11628f55a4df523b3ef",
            "0x0000000000000000000000000000000000000000000000000000000000000000",
            "0x000000000000000000000000ff6bdef4fb646ee44e29fe8fc0862b02f0ba8a33"
          ],
          "data": "0x000000000000000000000000000000000000000000084595161401484a000000",
          "blockHash": "0xe9ed57a0514d5cc8303ba750890986a5d16b013c439cb1cca1749bbff6876545",
          "blockNumber": "0x28b840f",
          "blockTimestamp": "0x6a2a66fe",
          "transactionHash": "0xb6d16aa16278cf2320a8abaa8e44775ff48717f8a7e43ac7fdf1cc2cf94c3afe",
          "transactionIndex": "0x9",
          "logIndex": "0xa3",
          "removed": false
        }
      ],
      "logsBloom": "0x00000000000000000000100000000000000000000000000000000000000000000000000000000000000000000000000000000000000000000000000000000000000200000000000000000008000000000000000000000001000000000000000000000000020000000000000000000800000000000000000000000010000000000000000000000000000000000800000000000000000000000000000000000000000000000000000000000000000000000040000000000000000000000000000000000002000000000000000000010000000000000000000000000000000020000000000000000000000000000000000000000000000000000000000000000000",
      "type": "0x2",
      "transactionHash": "0xb6d16aa16278cf2320a8abaa8e44775ff48717f8a7e43ac7fdf1cc2cf94c3afe",
      "transactionIndex": "0x9",
      "blockHash": "0xe9ed57a0514d5cc8303ba750890986a5d16b013c439cb1cca1749bbff6876545",
      "blockNumber": "0x28b840f",
      "gasUsed": "0x10a30",
      "effectiveGasPrice": "0x5b8d80",
      "blobGasUsed": "0xae38",
      "from": "0xff6bdef4fb646ee44e29fe8fc0862b02f0ba8a33",
      "to": "0x18d1777cc183f6073d585f934335a773ffc7284c",
      "contractAddress": null,
      "daFootprintGasScalar": "0x1be",
      "l1BaseFeeScalar": "0x44d",
      "l1BlobBaseFee": "0xcb8db8e",
      "l1BlobBaseFeeScalar": "0xa118b",
      "l1Fee": "0x496da2fa2",
      "l1GasPrice": "0xbe62b570",
      "l1GasUsed": "0x640"
    },
    {
      "status": "0x1",
      "cumulativeGasUsed": "0x63f849",
      "logs": [],
      "logsBloom": "0x00000000000000000000000000000000000000000000000000000000000000000000000000000000000000000000000000000000000000000000000000000000000000000000000000000000000000000000000000000000000000000000000000000000000000000000000000000000000000000000000000000000000000000000000000000000000000000000000000000000000000000000000000000000000000000000000000000000000000000000000000000000000000000000000000000000000000000000000000000000000000000000000000000000000000000000000000000000000000000000000000000000000000000000000000000000",
      "type": "0x2",
      "transactionHash": "0x971eaf8c3df5008728659066ee47f943d3f129c4e944218321ca61431795f6de",
      "transactionIndex": "0x2",
      "blockHash": "0x3ec79e76883491510eccde8772dd25c48485b6ed35e67c23c1239d49c047db72",
      "blockNumber": "0x28b8411",
      "gasUsed": "0x3869b",
      "effectiveGasPrice": "0x5b8d80",
      "blobGasUsed": "0x30c80",
      "from": "0xff6bdef4fb646ee44e29fe8fc0862b02f0ba8a33",
      "to": null,
      "contractAddress": "0xb0996507b56ec86638366ad7d87e2689685e9850",
      "daFootprintGasScalar": "0x1be",
      "l1BaseFeeScalar": "0x44d",
      "l1BlobBaseFee": "0xcb8db8e",
      "l1BlobBaseFeeScalar": "0xa118b",
      "l1Fee": "0x149481a580",
      "l1GasPrice": "0xbe62b570",
      "l1GasUsed": "0x1c07"
    },
    {
      "status": "0x1",
      "cumulativeGasUsed": "0x1a7beb",
      "logs": [],
      "logsBloom": "0x00000000000000000000000000000000000000000000000000000000000000000000000000000000000000000000000000000000000000000000000000000000000000000000000000000000000000000000000000000000000000000000000000000000000000000000000000000000000000000000000000000000000000000000000000000000000000000000000000000000000000000000000000000000000000000000000000000000000000000000000000000000000000000000000000000000000000000000000000000000000000000000000000000000000000000000000000000000000000000000000000000000000000000000000000000000",
      "type": "0x2",
      "transactionHash": "0x57f76ac4be9a6198d4146a181c1a0038a3ffc60a947dba8c7dbbb7c65c2c930a",
      "transactionIndex": "0x9",
      "blockHash": "0x88c9d2338f24b59e3a5d7bc72216e5a76f2397dc395ca0c539b891c457f15b78",
      "blockNumber": "0x28b8412",
      "gasUsed": "0x3869b",
      "effectiveGasPrice": "0x5b8d80",
      "blobGasUsed": "0x30c80",
      "from": "0xff6bdef4fb646ee44e29fe8fc0862b02f0ba8a33",
      "to": null,
      "contractAddress": "0xb9b5c416eeb20afd2cac97d72b4c99dfe5d5ab0a",
      "daFootprintGasScalar": "0x1be",
      "l1BaseFeeScalar": "0x44d",
      "l1BlobBaseFee": "0xcb8db8e",
      "l1BlobBaseFeeScalar": "0xa118b",
      "l1Fee": "0x149481a580",
      "l1GasPrice": "0xbe62b570",
      "l1GasUsed": "0x1c07"
    },
    {
      "status": "0x1",
      "cumulativeGasUsed": "0x306ddf",
      "logs": [
        {
          "address": "0x66b3b38fce61b0e5c96e9a1f0279321b14ac54d0",
          "topics": [
            "0x1ede2949888e48efd264887343f6e295304305abe5ad230701157a0b160c3775",
            "0x0000000000000000000000009c872074c9fc38e5e777ff53eeecbc61d1cf3186"
          ],
          "data": "0x000000000000000000000000000000000000000000000000000000e8d4a51000000000000000000000000000b0996507b56ec86638366ad7d87e2689685e98500000000000000000000000000000000000000000000000000000000000015180000000000000000000000000000000000000000000000000000000000000251c0000000000000000000000000000000000000000000000000000000000002904",
          "blockHash": "0xb6f603483bb64ac53e78b8669c14842f20e9f15157fb25ba9e00844091293c43",
          "blockNumber": "0x28b8413",
          "blockTimestamp": "0x6a2a6706",
          "transactionHash": "0x3cb1e85feb0aaad3ccdc7200af476af43fff5d3efd1d957dee98a10d58654e6b",
          "transactionIndex": "0xc",
          "logIndex": "0x84",
          "removed": false
        }
      ],
      "logsBloom": "0x00000000000000000000000020000000000000000000000000000000000000000000000000000000000000000000001000000000000000000000000000000000000000000000000000000000000000000000000000000000000000000000000000000000000000000000000000000000000000000000000000000000000000000000020000000000000000000000200000000000000000000000000000000000000000000000000000000000000000000000008000000000000000000000000000000400000000000000000000000000000000000000000010000000000000000000000000000000000000000000000000000000000000000000080000000100",
      "type": "0x2",
      "transactionHash": "0x3cb1e85feb0aaad3ccdc7200af476af43fff5d3efd1d957dee98a10d58654e6b",
      "transactionIndex": "0xc",
      "blockHash": "0xb6f603483bb64ac53e78b8669c14842f20e9f15157fb25ba9e00844091293c43",
      "blockNumber": "0x28b8413",
      "gasUsed": "0x22421",
      "effectiveGasPrice": "0x5b8d80",
      "blobGasUsed": "0xe27c",
      "from": "0xff6bdef4fb646ee44e29fe8fc0862b02f0ba8a33",
      "to": "0xaf81c05747eda1e1715ff23626ab83c3351dcff6",
      "contractAddress": null,
      "daFootprintGasScalar": "0x1be",
      "l1BaseFeeScalar": "0x44d",
      "l1BlobBaseFee": "0xcb8db8e",
      "l1BlobBaseFeeScalar": "0xa118b",
      "l1Fee": "0x5fe00e2b6",
      "l1GasPrice": "0xbe62b570",
      "l1GasUsed": "0x829"
    },
    {
      "status": "0x1",
      "cumulativeGasUsed": "0x4fa6f7",
      "logs": [
        {
          "address": "0x66b3b38fce61b0e5c96e9a1f0279321b14ac54d0",
          "topics": [
            "0x1ede2949888e48efd264887343f6e295304305abe5ad230701157a0b160c3775",
            "0x00000000000000000000000018d1777cc183f6073d585f934335a773ffc7284c"
          ],
          "data": "0x0000000000000000000000000000000000000000000000000000000000000001000000000000000000000000b9b5c416eeb20afd2cac97d72b4c99dfe5d5ab0a0000000000000000000000000000000000000000000000000000000000015180000000000000000000000000000000000000000000000000000000000000251c0000000000000000000000000000000000000000000000000000000000002904",
          "blockHash": "0xef16abd794bb6cd66381d8e5d80c7e98741664abe6c32d9edca44c013cdcd8df",
          "blockNumber": "0x28b8414",
          "blockTimestamp": "0x6a2a6708",
          "transactionHash": "0x3105f2f624ad94f98313bb256f135305c017f21db5e071b07c71492169a36d06",
          "transactionIndex": "0x10",
          "logIndex": "0xbc",
          "removed": false
        }
      ],
      "logsBloom": "0x00000000000000000000000020000000000000000000000000000000000000000000000000000000000000000000001000000000000000000000000000000000000000000000000000000000000000000000000000000000000000000000000000000000000000000000000000000000000000000000000000000000000000000000020000000000000000000000000000000000000000000000000000000000040000000000000000000000000000000000008000000000000000000000000000000400000000000000000000000000000000000000000210000000000000000000000000000000000000000000001000000000000000000000000000000000",
      "type": "0x2",
      "transactionHash": "0x3105f2f624ad94f98313bb256f135305c017f21db5e071b07c71492169a36d06",
      "transactionIndex": "0x10",
      "blockHash": "0xef16abd794bb6cd66381d8e5d80c7e98741664abe6c32d9edca44c013cdcd8df",
      "blockNumber": "0x28b8414",
      "gasUsed": "0x223fd",
      "effectiveGasPrice": "0x5b8d80",
      "blobGasUsed": "0xe43a",
      "from": "0xff6bdef4fb646ee44e29fe8fc0862b02f0ba8a33",
      "to": "0xaf81c05747eda1e1715ff23626ab83c3351dcff6",
      "contractAddress": null,
      "daFootprintGasScalar": "0x1be",
      "l1BaseFeeScalar": "0x44d",
      "l1BlobBaseFee": "0xb5f4470",
      "l1BlobBaseFeeScalar": "0xa118b",
      "l1Fee": "0x59e2e6387",
      "l1GasPrice": "0xc34fd262",
      "l1GasUsed": "0x836"
    },
    {
      "status": "0x1",
      "cumulativeGasUsed": "0x6f750",
      "logs": [
        {
          "address": "0xaf81c05747eda1e1715ff23626ab83c3351dcff6",
          "topics": [
            "0x7bcd1d50ea7637f438082e97dbfb992dfedb78cc1745b6047d09b0fbfd6facee",
            "0x0000000000000000000000009c872074c9fc38e5e777ff53eeecbc61d1cf3186"
          ],
          "data": "0x0000000000000000000000000000000000000000000000000000000000000001000000000000000000000000000000000000000000000000000000000000000100000000000000000000000000000000000000000000000000000000000000000000000000000000000000000000000000000000000000000000000000000000",
          "blockHash": "0x726cfac9807ec7cc054b59dc35ce72cc04495156963b55d28461042a5f69e302",
          "blockNumber": "0x28b8416",
          "blockTimestamp": "0x6a2a670c",
          "transactionHash": "0x524ef510da50df8ee5565e87f6a5ec116177c6d05002bacde3d870ea62aac559",
          "transactionIndex": "0x4",
          "logIndex": "0x8",
          "removed": false
        }
      ],
      "logsBloom": "0x00000000000000000000000000000000000000000000000000000000000000002000000000000000000000000000000000000000000000000000000000000000000000000000000000020000000000000000000000000000000000000000000000000000000000000000000010000000000000000000000000000000000000000000000000000000000000000000200000000000000200000000000000000000000000000000000000000000000000000000000000000000000000000000000000000000000000000000000000000000000000010000000000000000000000000000000000000000000000000040000000000000000000000000080000000100",
      "type": "0x2",
      "transactionHash": "0x524ef510da50df8ee5565e87f6a5ec116177c6d05002bacde3d870ea62aac559",
      "transactionIndex": "0x4",
      "blockHash": "0x726cfac9807ec7cc054b59dc35ce72cc04495156963b55d28461042a5f69e302",
      "blockNumber": "0x28b8416",
      "gasUsed": "0xd935",
      "effectiveGasPrice": "0x5b8d80",
      "blobGasUsed": "0xae38",
      "from": "0xff6bdef4fb646ee44e29fe8fc0862b02f0ba8a33",
      "to": "0xaf81c05747eda1e1715ff23626ab83c3351dcff6",
      "contractAddress": null,
      "daFootprintGasScalar": "0x1be",
      "l1BaseFeeScalar": "0x44d",
      "l1BlobBaseFee": "0xb5f4470",
      "l1BlobBaseFeeScalar": "0xa118b",
      "l1Fee": "0x44673f3c7",
      "l1GasPrice": "0xc34fd262",
      "l1GasUsed": "0x640"
    },
    {
      "status": "0x1",
      "cumulativeGasUsed": "0x83606",
      "logs": [
        {
          "address": "0xaf81c05747eda1e1715ff23626ab83c3351dcff6",
          "topics": [
            "0x7bcd1d50ea7637f438082e97dbfb992dfedb78cc1745b6047d09b0fbfd6facee",
            "0x00000000000000000000000018d1777cc183f6073d585f934335a773ffc7284c"
          ],
          "data": "0x0000000000000000000000000000000000000000000000000000000000000001000000000000000000000000000000000000000000000000000000000000000100000000000000000000000000000000000000000000000000000000000000000000000000000000000000000000000000000000000000000000000000000000",
          "blockHash": "0xba335a7727bebce33537385ec67fe7b9b7a554c2b11315fdd35bfa26bbd5fec6",
          "blockNumber": "0x28b8418",
          "blockTimestamp": "0x6a2a6710",
          "transactionHash": "0x094c6d84424e9f7cdfb51f8531fe7d430661c2b857664f4652bbdedf834fae7e",
          "transactionIndex": "0x3",
          "logIndex": "0xd",
          "removed": false
        }
      ],
      "logsBloom": "0x00000000000000000000000000000000000000000000000000000000000000002000000000000000000000000000000000000000000000000000000000000000000000000000000000020000000000000000000000000000000000000000000000000000000000000000000010000000000000000000000000000000000000000000000000000000000000000000000000000000000200000000000000000000040000000000000000000000000000000000000000000000000000000000000000000000000000000000000000000000000000010000000200000000000000000000000000000000000000000040001000000000000000000000000000000000",
      "type": "0x2",
      "transactionHash": "0x094c6d84424e9f7cdfb51f8531fe7d430661c2b857664f4652bbdedf834fae7e",
      "transactionIndex": "0x3",
      "blockHash": "0xba335a7727bebce33537385ec67fe7b9b7a554c2b11315fdd35bfa26bbd5fec6",
      "blockNumber": "0x28b8418",
      "gasUsed": "0xd935",
      "effectiveGasPrice": "0x5b8d80",
      "blobGasUsed": "0xae38",
      "from": "0xff6bdef4fb646ee44e29fe8fc0862b02f0ba8a33",
      "to": "0xaf81c05747eda1e1715ff23626ab83c3351dcff6",
      "contractAddress": null,
      "daFootprintGasScalar": "0x1be",
      "l1BaseFeeScalar": "0x44d",
      "l1BlobBaseFee": "0xb5f4470",
      "l1BlobBaseFeeScalar": "0xa118b",
      "l1Fee": "0x44673f3c7",
      "l1GasPrice": "0xc34fd262",
      "l1GasUsed": "0x640"
    }
  ],
  "libraries": [],
  "pending": [],
  "returns": {},
  "timestamp": 1781163793972,
  "chain": 84532,
  "commit": "4d1a755"
}